{
	"contracts/Crowdfunding.sol": {
		"Crowdfunding": {
			"abi": [
				{
					"inputs": [
						{
							"internalType": "uint256",
							"name": "",
							"type": "uint256"
						}
					],
					"name": "campaigns",
					"outputs": [
						{
							"internalType": "address payable",
							"name": "creator",
							"type": "address"
						},
						{
							"internalType": "string",
							"name": "title",
							"type": "string"
						},
						{
							"internalType": "string",
							"name": "description",
							"type": "string"
						},
						{
							"internalType": "uint256",
							"name": "goal",
							"type": "uint256"
						},
						{
							"internalType": "uint256",
							"name": "totalFunds",
							"type": "uint256"
						},
						{
							"internalType": "uint256",
							"name": "deadline",
							"type": "uint256"
						},
						{
							"internalType": "bool",
							"name": "goalReached",
							"type": "bool"
						},
						{
							"internalType": "bool",
							"name": "closed",
							"type": "bool"
						}
					],
					"stateMutability": "view",
					"type": "function"
				},
				{
					"inputs": [
						{
							"internalType": "uint256",
							"name": "_campaignId",
							"type": "uint256"
						}
					],
					"name": "contribute",
					"outputs": [],
					"stateMutability": "payable",
					"type": "function"
				},
				{
					"inputs": [
						{
							"internalType": "string",
							"name": "_title",
							"type": "string"
						},
						{
							"internalType": "string",
							"name": "_description",
							"type": "string"
						},
						{
							"internalType": "uint256",
							"name": "_duration",
							"type": "uint256"
						},
						{
							"internalType": "uint256",
							"name": "_goal",
							"type": "uint256"
						}
					],
					"name": "createCampaign",
					"outputs": [],
					"stateMutability": "nonpayable",
					"type": "function"
				},
				{
					"inputs": [
						{
							"internalType": "uint256",
							"name": "_campaignId",
							"type": "uint256"
						}
					],
					"name": "withdrawContributions",
					"outputs": [],
					"stateMutability": "payable",
					"type": "function"
				},
				{
					"inputs": [
						{
							"internalType": "uint256",
							"name": "_campaignId",
							"type": "uint256"
						}
					],
					"name": "withdrawFunds",
					"outputs": [],
					"stateMutability": "payable",
					"type": "function"
				}
			],
			"devdoc": {
				"kind": "dev",
				"methods": {},
				"version": 1
			},
			"evm": {
				"assembly": "    /* \"contracts/Crowdfunding.sol\":58:3578  contract Crowdfunding {... */\n  mstore(0x40, 0x80)\n  callvalue\n  dup1\n  iszero\n  tag_1\n  jumpi\n  0x00\n  dup1\n  revert\ntag_1:\n  pop\n  dataSize(sub_0)\n  dup1\n  dataOffset(sub_0)\n  0x00\n  codecopy\n  0x00\n  return\nstop\n\nsub_0: assembly {\n        /* \"contracts/Crowdfunding.sol\":58:3578  contract Crowdfunding {... */\n      mstore(0x40, 0x80)\n      jumpi(tag_1, lt(calldatasize, 0x04))\n      shr(0xe0, calldataload(0x00))\n      dup1\n      0x0b008fd0\n      eq\n      tag_2\n      jumpi\n      dup1\n      0x141961bc\n      eq\n      tag_3\n      jumpi\n      dup1\n      0x155dd5ee\n      eq\n      tag_4\n      jumpi\n      dup1\n      0xa318f269\n      eq\n      tag_5\n      jumpi\n      dup1\n      0xc1cbbca7\n      eq\n      tag_6\n      jumpi\n    tag_1:\n      0x00\n      dup1\n      revert\n        /* \"contracts/Crowdfunding.sol\":3040:3576  function withdrawContributions(uint256 _campaignId)... */\n    tag_2:\n      tag_7\n      0x04\n      dup1\n      calldatasize\n      sub\n      dup2\n      add\n      swap1\n      tag_8\n      swap2\n      swap1\n      tag_9\n      jump\t// in\n    tag_8:\n      tag_10\n      jump\t// in\n    tag_7:\n      stop\n        /* \"contracts/Crowdfunding.sol\":372:399  Campaign[] public campaigns */\n    tag_3:\n      callvalue\n      dup1\n      iszero\n      tag_11\n      jumpi\n      0x00\n      dup1\n      revert\n    tag_11:\n      pop\n      tag_12\n      0x04\n      dup1\n      calldatasize\n      sub\n      dup2\n      add\n      swap1\n      tag_13\n      swap2\n      swap1\n      tag_9\n      jump\t// in\n    tag_13:\n      tag_14\n      jump\t// in\n    tag_12:\n      mload(0x40)\n      tag_15\n      swap9\n      swap8\n      swap7\n      swap6\n      swap5\n      swap4\n      swap3\n      swap2\n      swap1\n      tag_16\n      jump\t// in\n    tag_15:\n      mload(0x40)\n      dup1\n      swap2\n      sub\n      swap1\n      return\n        /* \"contracts/Crowdfunding.sol\":2399:3034  function withdrawFunds(uint256 _campaignId)... */\n    tag_4:\n      tag_17\n      0x04\n      dup1\n      calldatasize\n      sub\n      dup2\n      add\n      swap1\n      tag_18\n      swap2\n      swap1\n      tag_9\n      jump\t// in\n    tag_18:\n      tag_19\n      jump\t// in\n    tag_17:\n      stop\n        /* \"contracts/Crowdfunding.sol\":1115:1747  function createCampaign(... */\n    tag_5:\n      callvalue\n      dup1\n      iszero\n      tag_20\n      jumpi\n      0x00\n      dup1\n      revert\n    tag_20:\n      pop\n      tag_21\n      0x04\n      dup1\n      calldatasize\n      sub\n      dup2\n      add\n      swap1\n      tag_22\n      swap2\n      swap1\n      tag_23\n      jump\t// in\n    tag_22:\n      tag_24\n      jump\t// in\n    tag_21:\n      stop\n        /* \"contracts/Crowdfunding.sol\":1753:2393  function contribute(uint256 _campaignId)... */\n    tag_6:\n      tag_25\n      0x04\n      dup1\n      calldatasize\n      sub\n      dup2\n      add\n      swap1\n      tag_26\n      swap2\n      swap1\n      tag_9\n      jump\t// in\n    tag_26:\n      tag_27\n      jump\t// in\n    tag_25:\n      stop\n        /* \"contracts/Crowdfunding.sol\":3040:3576  function withdrawContributions(uint256 _campaignId)... */\n    tag_10:\n        /* \"contracts/Crowdfunding.sol\":3145:3156  _campaignId */\n      dup1\n        /* \"contracts/Crowdfunding.sol\":519:528  campaigns */\n      0x00\n        /* \"contracts/Crowdfunding.sol\":519:535  campaigns.length */\n      dup1\n      sload\n      swap1\n      pop\n        /* \"contracts/Crowdfunding.sol\":505:516  _campaignId */\n      dup2\n        /* \"contracts/Crowdfunding.sol\":505:535  _campaignId < campaigns.length */\n      lt\n        /* \"contracts/Crowdfunding.sol\":497:559  require(_campaignId < campaigns.length, \"Invalid campaign ID\") */\n      tag_29\n      jumpi\n      mload(0x40)\n      0x08c379a000000000000000000000000000000000000000000000000000000000\n      dup2\n      mstore\n      0x04\n      add\n      tag_30\n      swap1\n      tag_31\n      jump\t// in\n    tag_30:\n      mload(0x40)\n      dup1\n      swap2\n      sub\n      swap1\n      revert\n    tag_29:\n        /* \"contracts/Crowdfunding.sol\":3181:3192  _campaignId */\n      dup2\n        /* \"contracts/Crowdfunding.sol\":922:931  campaigns */\n      0x00\n        /* \"contracts/Crowdfunding.sol\":932:943  _campaignId */\n      dup2\n        /* \"contracts/Crowdfunding.sol\":922:944  campaigns[_campaignId] */\n      dup2\n      sload\n      dup2\n      lt\n      tag_33\n      jumpi\n      tag_34\n      tag_35\n      jump\t// in\n    tag_34:\n    tag_33:\n      swap1\n      0x00\n      mstore\n      keccak256(0x00, 0x20)\n      swap1\n      0x08\n      mul\n      add\n        /* \"contracts/Crowdfunding.sol\":922:951  campaigns[_campaignId].closed */\n      0x06\n      add\n      0x01\n      swap1\n      sload\n      swap1\n      0x0100\n      exp\n      swap1\n      div\n      0xff\n      and\n        /* \"contracts/Crowdfunding.sol\":921:951  !campaigns[_campaignId].closed */\n      iszero\n        /* \"contracts/Crowdfunding.sol\":913:971  require(!campaigns[_campaignId].closed, \"Campaign closed\") */\n      tag_37\n      jumpi\n      mload(0x40)\n      0x08c379a000000000000000000000000000000000000000000000000000000000\n      dup2\n      mstore\n      0x04\n      add\n      tag_38\n      swap1\n      tag_39\n      jump\t// in\n    tag_38:\n      mload(0x40)\n      dup1\n      swap2\n      sub\n      swap1\n      revert\n    tag_37:\n        /* \"contracts/Crowdfunding.sol\":1020:1029  campaigns */\n      0x00\n        /* \"contracts/Crowdfunding.sol\":1030:1041  _campaignId */\n      dup2\n        /* \"contracts/Crowdfunding.sol\":1020:1042  campaigns[_campaignId] */\n      dup2\n      sload\n      dup2\n      lt\n      tag_40\n      jumpi\n      tag_41\n      tag_35\n      jump\t// in\n    tag_41:\n    tag_40:\n      swap1\n      0x00\n      mstore\n      keccak256(0x00, 0x20)\n      swap1\n      0x08\n      mul\n      add\n        /* \"contracts/Crowdfunding.sol\":1020:1051  campaigns[_campaignId].deadline */\n      0x05\n      add\n      sload\n        /* \"contracts/Crowdfunding.sol\":1002:1017  block.timestamp */\n      timestamp\n        /* \"contracts/Crowdfunding.sol\":1002:1051  block.timestamp < campaigns[_campaignId].deadline */\n      lt\n        /* \"contracts/Crowdfunding.sol\":981:1091  require(... */\n      tag_43\n      jumpi\n      mload(0x40)\n      0x08c379a000000000000000000000000000000000000000000000000000000000\n      dup2\n      mstore\n      0x04\n      add\n      tag_44\n      swap1\n      tag_45\n      jump\t// in\n    tag_44:\n      mload(0x40)\n      dup1\n      swap2\n      sub\n      swap1\n      revert\n    tag_43:\n        /* \"contracts/Crowdfunding.sol\":3248:3257  campaigns */\n      0x00\n        /* \"contracts/Crowdfunding.sol\":3258:3269  _campaignId */\n      dup4\n        /* \"contracts/Crowdfunding.sol\":3248:3270  campaigns[_campaignId] */\n      dup2\n      sload\n      dup2\n      lt\n      tag_47\n      jumpi\n      tag_48\n      tag_35\n      jump\t// in\n    tag_48:\n    tag_47:\n      swap1\n      0x00\n      mstore\n      keccak256(0x00, 0x20)\n      swap1\n      0x08\n      mul\n      add\n        /* \"contracts/Crowdfunding.sol\":3248:3279  campaigns[_campaignId].deadline */\n      0x05\n      add\n      sload\n        /* \"contracts/Crowdfunding.sol\":3229:3244  block.timestamp */\n      timestamp\n        /* \"contracts/Crowdfunding.sol\":3229:3279  block.timestamp >= campaigns[_campaignId].deadline */\n      lt\n      iszero\n        /* \"contracts/Crowdfunding.sol\":3208:3323  require(... */\n      tag_50\n      jumpi\n      mload(0x40)\n      0x08c379a000000000000000000000000000000000000000000000000000000000\n      dup2\n      mstore\n      0x04\n      add\n      tag_51\n      swap1\n      tag_52\n      jump\t// in\n    tag_51:\n      mload(0x40)\n      dup1\n      swap2\n      sub\n      swap1\n      revert\n    tag_50:\n        /* \"contracts/Crowdfunding.sol\":3334:3348  uint256 amount */\n      0x00\n        /* \"contracts/Crowdfunding.sol\":3351:3360  campaigns */\n      dup1\n        /* \"contracts/Crowdfunding.sol\":3361:3372  _campaignId */\n      dup5\n        /* \"contracts/Crowdfunding.sol\":3351:3373  campaigns[_campaignId] */\n      dup2\n      sload\n      dup2\n      lt\n      tag_53\n      jumpi\n      tag_54\n      tag_35\n      jump\t// in\n    tag_54:\n    tag_53:\n      swap1\n      0x00\n      mstore\n      keccak256(0x00, 0x20)\n      swap1\n      0x08\n      mul\n      add\n        /* \"contracts/Crowdfunding.sol\":3351:3387  campaigns[_campaignId].contributions */\n      0x07\n      add\n        /* \"contracts/Crowdfunding.sol\":3351:3399  campaigns[_campaignId].contributions[msg.sender] */\n      0x00\n        /* \"contracts/Crowdfunding.sol\":3388:3398  msg.sender */\n      caller\n        /* \"contracts/Crowdfunding.sol\":3351:3399  campaigns[_campaignId].contributions[msg.sender] */\n      0xffffffffffffffffffffffffffffffffffffffff\n      and\n      0xffffffffffffffffffffffffffffffffffffffff\n      and\n      dup2\n      mstore\n      0x20\n      add\n      swap1\n      dup2\n      mstore\n      0x20\n      add\n      0x00\n      keccak256\n      sload\n        /* \"contracts/Crowdfunding.sol\":3334:3399  uint256 amount = campaigns[_campaignId].contributions[msg.sender] */\n      swap1\n      pop\n        /* \"contracts/Crowdfunding.sol\":3426:3427  0 */\n      0x00\n        /* \"contracts/Crowdfunding.sol\":3417:3423  amount */\n      dup2\n        /* \"contracts/Crowdfunding.sol\":3417:3427  amount > 0 */\n      gt\n        /* \"contracts/Crowdfunding.sol\":3409:3460  require(amount > 0, \"No contributions to withdraw\") */\n      tag_56\n      jumpi\n      mload(0x40)\n      0x08c379a000000000000000000000000000000000000000000000000000000000\n      dup2\n      mstore\n      0x04\n      add\n      tag_57\n      swap1\n      tag_58\n      jump\t// in\n    tag_57:\n      mload(0x40)\n      dup1\n      swap2\n      sub\n      swap1\n      revert\n    tag_56:\n        /* \"contracts/Crowdfunding.sol\":3522:3523  0 */\n      0x00\n        /* \"contracts/Crowdfunding.sol\":3471:3480  campaigns */\n      dup1\n        /* \"contracts/Crowdfunding.sol\":3481:3492  _campaignId */\n      dup6\n        /* \"contracts/Crowdfunding.sol\":3471:3493  campaigns[_campaignId] */\n      dup2\n      sload\n      dup2\n      lt\n      tag_59\n      jumpi\n      tag_60\n      tag_35\n      jump\t// in\n    tag_60:\n    tag_59:\n      swap1\n      0x00\n      mstore\n      keccak256(0x00, 0x20)\n      swap1\n      0x08\n      mul\n      add\n        /* \"contracts/Crowdfunding.sol\":3471:3507  campaigns[_campaignId].contributions */\n      0x07\n      add\n        /* \"contracts/Crowdfunding.sol\":3471:3519  campaigns[_campaignId].contributions[msg.sender] */\n      0x00\n        /* \"contracts/Crowdfunding.sol\":3508:3518  msg.sender */\n      caller\n        /* \"contracts/Crowdfunding.sol\":3471:3519  campaigns[_campaignId].contributions[msg.sender] */\n      0xffffffffffffffffffffffffffffffffffffffff\n      and\n      0xffffffffffffffffffffffffffffffffffffffff\n      and\n      dup2\n      mstore\n      0x20\n      add\n      swap1\n      dup2\n      mstore\n      0x20\n      add\n      0x00\n      keccak256\n        /* \"contracts/Crowdfunding.sol\":3471:3523  campaigns[_campaignId].contributions[msg.sender] = 0 */\n      dup2\n      swap1\n      sstore\n      pop\n        /* \"contracts/Crowdfunding.sol\":3541:3551  msg.sender */\n      caller\n        /* \"contracts/Crowdfunding.sol\":3533:3561  payable(msg.sender).transfer */\n      0xffffffffffffffffffffffffffffffffffffffff\n      and\n        /* \"contracts/Crowdfunding.sol\":3533:3569  payable(msg.sender).transfer(amount) */\n      0x08fc\n        /* \"contracts/Crowdfunding.sol\":3562:3568  amount */\n      dup3\n        /* \"contracts/Crowdfunding.sol\":3533:3569  payable(msg.sender).transfer(amount) */\n      swap1\n      dup2\n      iszero\n      mul\n      swap1\n      mload(0x40)\n      0x00\n      mload(0x40)\n      dup1\n      dup4\n      sub\n      dup2\n      dup6\n      dup9\n      dup9\n      call\n      swap4\n      pop\n      pop\n      pop\n      pop\n      iszero\n      dup1\n      iszero\n      tag_63\n      jumpi\n      returndatasize\n      0x00\n      dup1\n      returndatacopy\n      revert(0x00, returndatasize)\n    tag_63:\n      pop\n        /* \"contracts/Crowdfunding.sol\":3198:3576  {... */\n      pop\n        /* \"contracts/Crowdfunding.sol\":569:570  _ */\n      pop\n        /* \"contracts/Crowdfunding.sol\":3040:3576  function withdrawContributions(uint256 _campaignId)... */\n      pop\n      pop\n      jump\t// out\n        /* \"contracts/Crowdfunding.sol\":372:399  Campaign[] public campaigns */\n    tag_14:\n      0x00\n      dup2\n      dup2\n      sload\n      dup2\n      lt\n      tag_64\n      jumpi\n      0x00\n      dup1\n      revert\n    tag_64:\n      swap1\n      0x00\n      mstore\n      keccak256(0x00, 0x20)\n      swap1\n      0x08\n      mul\n      add\n      0x00\n      swap2\n      pop\n      swap1\n      pop\n      dup1\n      0x00\n      add\n      0x00\n      swap1\n      sload\n      swap1\n      0x0100\n      exp\n      swap1\n      div\n      0xffffffffffffffffffffffffffffffffffffffff\n      and\n      swap1\n      dup1\n      0x01\n      add\n      dup1\n      sload\n      tag_66\n      swap1\n      tag_67\n      jump\t// in\n    tag_66:\n      dup1\n      0x1f\n      add\n      0x20\n      dup1\n      swap2\n      div\n      mul\n      0x20\n      add\n      mload(0x40)\n      swap1\n      dup2\n      add\n      0x40\n      mstore\n      dup1\n      swap3\n      swap2\n      swap1\n      dup2\n      dup2\n      mstore\n      0x20\n      add\n      dup3\n      dup1\n      sload\n      tag_68\n      swap1\n      tag_67\n      jump\t// in\n    tag_68:\n      dup1\n      iszero\n      tag_69\n      jumpi\n      dup1\n      0x1f\n      lt\n      tag_70\n      jumpi\n      0x0100\n      dup1\n      dup4\n      sload\n      div\n      mul\n      dup4\n      mstore\n      swap2\n      0x20\n      add\n      swap2\n      jump(tag_69)\n    tag_70:\n      dup3\n      add\n      swap2\n      swap1\n      0x00\n      mstore\n      keccak256(0x00, 0x20)\n      swap1\n    tag_71:\n      dup2\n      sload\n      dup2\n      mstore\n      swap1\n      0x01\n      add\n      swap1\n      0x20\n      add\n      dup1\n      dup4\n      gt\n      tag_71\n      jumpi\n      dup3\n      swap1\n      sub\n      0x1f\n      and\n      dup3\n      add\n      swap2\n    tag_69:\n      pop\n      pop\n      pop\n      pop\n      pop\n      swap1\n      dup1\n      0x02\n      add\n      dup1\n      sload\n      tag_72\n      swap1\n      tag_67\n      jump\t// in\n    tag_72:\n      dup1\n      0x1f\n      add\n      0x20\n      dup1\n      swap2\n      div\n      mul\n      0x20\n      add\n      mload(0x40)\n      swap1\n      dup2\n      add\n      0x40\n      mstore\n      dup1\n      swap3\n      swap2\n      swap1\n      dup2\n      dup2\n      mstore\n      0x20\n      add\n      dup3\n      dup1\n      sload\n      tag_73\n      swap1\n      tag_67\n      jump\t// in\n    tag_73:\n      dup1\n      iszero\n      tag_74\n      jumpi\n      dup1\n      0x1f\n      lt\n      tag_75\n      jumpi\n      0x0100\n      dup1\n      dup4\n      sload\n      div\n      mul\n      dup4\n      mstore\n      swap2\n      0x20\n      add\n      swap2\n      jump(tag_74)\n    tag_75:\n      dup3\n      add\n      swap2\n      swap1\n      0x00\n      mstore\n      keccak256(0x00, 0x20)\n      swap1\n    tag_76:\n      dup2\n      sload\n      dup2\n      mstore\n      swap1\n      0x01\n      add\n      swap1\n      0x20\n      add\n      dup1\n      dup4\n      gt\n      tag_76\n      jumpi\n      dup3\n      swap1\n      sub\n      0x1f\n      and\n      dup3\n      add\n      swap2\n    tag_74:\n      pop\n      pop\n      pop\n      pop\n      pop\n      swap1\n      dup1\n      0x03\n      add\n      sload\n      swap1\n      dup1\n      0x04\n      add\n      sload\n      swap1\n      dup1\n      0x05\n      add\n      sload\n      swap1\n      dup1\n      0x06\n      add\n      0x00\n      swap1\n      sload\n      swap1\n      0x0100\n      exp\n      swap1\n      div\n      0xff\n      and\n      swap1\n      dup1\n      0x06\n      add\n      0x01\n      swap1\n      sload\n      swap1\n      0x0100\n      exp\n      swap1\n      div\n      0xff\n      and\n      swap1\n      pop\n      dup9\n      jump\t// out\n        /* \"contracts/Crowdfunding.sol\":2399:3034  function withdrawFunds(uint256 _campaignId)... */\n    tag_19:\n        /* \"contracts/Crowdfunding.sol\":2496:2507  _campaignId */\n      dup1\n        /* \"contracts/Crowdfunding.sol\":519:528  campaigns */\n      0x00\n        /* \"contracts/Crowdfunding.sol\":519:535  campaigns.length */\n      dup1\n      sload\n      swap1\n      pop\n        /* \"contracts/Crowdfunding.sol\":505:516  _campaignId */\n      dup2\n        /* \"contracts/Crowdfunding.sol\":505:535  _campaignId < campaigns.length */\n      lt\n        /* \"contracts/Crowdfunding.sol\":497:559  require(_campaignId < campaigns.length, \"Invalid campaign ID\") */\n      tag_78\n      jumpi\n      mload(0x40)\n      0x08c379a000000000000000000000000000000000000000000000000000000000\n      dup2\n      mstore\n      0x04\n      add\n      tag_79\n      swap1\n      tag_31\n      jump\t// in\n    tag_79:\n      mload(0x40)\n      dup1\n      swap2\n      sub\n      swap1\n      revert\n    tag_78:\n        /* \"contracts/Crowdfunding.sol\":2529:2540  _campaignId */\n      dup2\n        /* \"contracts/Crowdfunding.sol\":729:739  msg.sender */\n      caller\n        /* \"contracts/Crowdfunding.sol\":695:739  campaigns[_campaignId].creator == msg.sender */\n      0xffffffffffffffffffffffffffffffffffffffff\n      and\n        /* \"contracts/Crowdfunding.sol\":695:704  campaigns */\n      0x00\n        /* \"contracts/Crowdfunding.sol\":705:716  _campaignId */\n      dup3\n        /* \"contracts/Crowdfunding.sol\":695:717  campaigns[_campaignId] */\n      dup2\n      sload\n      dup2\n      lt\n      tag_81\n      jumpi\n      tag_82\n      tag_35\n      jump\t// in\n    tag_82:\n    tag_81:\n      swap1\n      0x00\n      mstore\n      keccak256(0x00, 0x20)\n      swap1\n      0x08\n      mul\n      add\n        /* \"contracts/Crowdfunding.sol\":695:725  campaigns[_campaignId].creator */\n      0x00\n      add\n      0x00\n      swap1\n      sload\n      swap1\n      0x0100\n      exp\n      swap1\n      div\n      0xffffffffffffffffffffffffffffffffffffffff\n      and\n        /* \"contracts/Crowdfunding.sol\":695:739  campaigns[_campaignId].creator == msg.sender */\n      0xffffffffffffffffffffffffffffffffffffffff\n      and\n      eq\n        /* \"contracts/Crowdfunding.sol\":687:756  require(campaigns[_campaignId].creator == msg.sender, \"Unauthorized\") */\n      tag_84\n      jumpi\n      mload(0x40)\n      0x08c379a000000000000000000000000000000000000000000000000000000000\n      dup2\n      mstore\n      0x04\n      add\n      tag_85\n      swap1\n      tag_86\n      jump\t// in\n    tag_85:\n      mload(0x40)\n      dup1\n      swap2\n      sub\n      swap1\n      revert\n    tag_84:\n        /* \"contracts/Crowdfunding.sol\":2564:2573  campaigns */\n      0x00\n        /* \"contracts/Crowdfunding.sol\":2574:2585  _campaignId */\n      dup4\n        /* \"contracts/Crowdfunding.sol\":2564:2586  campaigns[_campaignId] */\n      dup2\n      sload\n      dup2\n      lt\n      tag_88\n      jumpi\n      tag_89\n      tag_35\n      jump\t// in\n    tag_89:\n    tag_88:\n      swap1\n      0x00\n      mstore\n      keccak256(0x00, 0x20)\n      swap1\n      0x08\n      mul\n      add\n        /* \"contracts/Crowdfunding.sol\":2564:2598  campaigns[_campaignId].goalReached */\n      0x06\n      add\n      0x00\n      swap1\n      sload\n      swap1\n      0x0100\n      exp\n      swap1\n      div\n      0xff\n      and\n        /* \"contracts/Crowdfunding.sol\":2556:2619  require(campaigns[_campaignId].goalReached, \"Goal not reached\") */\n      tag_91\n      jumpi\n      mload(0x40)\n      0x08c379a000000000000000000000000000000000000000000000000000000000\n      dup2\n      mstore\n      0x04\n      add\n      tag_92\n      swap1\n      tag_93\n      jump\t// in\n    tag_92:\n      mload(0x40)\n      dup1\n      swap2\n      sub\n      swap1\n      revert\n    tag_91:\n        /* \"contracts/Crowdfunding.sol\":2669:2678  campaigns */\n      0x00\n        /* \"contracts/Crowdfunding.sol\":2679:2690  _campaignId */\n      dup4\n        /* \"contracts/Crowdfunding.sol\":2669:2691  campaigns[_campaignId] */\n      dup2\n      sload\n      dup2\n      lt\n      tag_94\n      jumpi\n      tag_95\n      tag_35\n      jump\t// in\n    tag_95:\n    tag_94:\n      swap1\n      0x00\n      mstore\n      keccak256(0x00, 0x20)\n      swap1\n      0x08\n      mul\n      add\n        /* \"contracts/Crowdfunding.sol\":2669:2700  campaigns[_campaignId].deadline */\n      0x05\n      add\n      sload\n        /* \"contracts/Crowdfunding.sol\":2650:2665  block.timestamp */\n      timestamp\n        /* \"contracts/Crowdfunding.sol\":2650:2700  block.timestamp >= campaigns[_campaignId].deadline */\n      lt\n      iszero\n        /* \"contracts/Crowdfunding.sol\":2629:2745  require(... */\n      tag_97\n      jumpi\n      mload(0x40)\n      0x08c379a000000000000000000000000000000000000000000000000000000000\n      dup2\n      mstore\n      0x04\n      add\n      tag_98\n      swap1\n      tag_99\n      jump\t// in\n    tag_98:\n      mload(0x40)\n      dup1\n      swap2\n      sub\n      swap1\n      revert\n    tag_97:\n        /* \"contracts/Crowdfunding.sol\":2764:2773  campaigns */\n      0x00\n        /* \"contracts/Crowdfunding.sol\":2774:2785  _campaignId */\n      dup4\n        /* \"contracts/Crowdfunding.sol\":2764:2786  campaigns[_campaignId] */\n      dup2\n      sload\n      dup2\n      lt\n      tag_100\n      jumpi\n      tag_101\n      tag_35\n      jump\t// in\n    tag_101:\n    tag_100:\n      swap1\n      0x00\n      mstore\n      keccak256(0x00, 0x20)\n      swap1\n      0x08\n      mul\n      add\n        /* \"contracts/Crowdfunding.sol\":2764:2793  campaigns[_campaignId].closed */\n      0x06\n      add\n      0x01\n      swap1\n      sload\n      swap1\n      0x0100\n      exp\n      swap1\n      div\n      0xff\n      and\n        /* \"contracts/Crowdfunding.sol\":2763:2793  !campaigns[_campaignId].closed */\n      iszero\n        /* \"contracts/Crowdfunding.sol\":2755:2815  require(!campaigns[_campaignId].closed, \"Already withdrawn\") */\n      tag_103\n      jumpi\n      mload(0x40)\n      0x08c379a000000000000000000000000000000000000000000000000000000000\n      dup2\n      mstore\n      0x04\n      add\n      tag_104\n      swap1\n      tag_105\n      jump\t// in\n    tag_104:\n      mload(0x40)\n      dup1\n      swap2\n      sub\n      swap1\n      revert\n    tag_103:\n        /* \"contracts/Crowdfunding.sol\":2826:2840  uint256 amount */\n      0x00\n        /* \"contracts/Crowdfunding.sol\":2843:2852  campaigns */\n      dup1\n        /* \"contracts/Crowdfunding.sol\":2853:2864  _campaignId */\n      dup5\n        /* \"contracts/Crowdfunding.sol\":2843:2865  campaigns[_campaignId] */\n      dup2\n      sload\n      dup2\n      lt\n      tag_106\n      jumpi\n      tag_107\n      tag_35\n      jump\t// in\n    tag_107:\n    tag_106:\n      swap1\n      0x00\n      mstore\n      keccak256(0x00, 0x20)\n      swap1\n      0x08\n      mul\n      add\n        /* \"contracts/Crowdfunding.sol\":2843:2876  campaigns[_campaignId].totalFunds */\n      0x04\n      add\n      sload\n        /* \"contracts/Crowdfunding.sol\":2826:2876  uint256 amount = campaigns[_campaignId].totalFunds */\n      swap1\n      pop\n        /* \"contracts/Crowdfunding.sol\":2922:2923  0 */\n      0x00\n        /* \"contracts/Crowdfunding.sol\":2886:2895  campaigns */\n      dup1\n        /* \"contracts/Crowdfunding.sol\":2896:2907  _campaignId */\n      dup6\n        /* \"contracts/Crowdfunding.sol\":2886:2908  campaigns[_campaignId] */\n      dup2\n      sload\n      dup2\n      lt\n      tag_109\n      jumpi\n      tag_110\n      tag_35\n      jump\t// in\n    tag_110:\n    tag_109:\n      swap1\n      0x00\n      mstore\n      keccak256(0x00, 0x20)\n      swap1\n      0x08\n      mul\n      add\n        /* \"contracts/Crowdfunding.sol\":2886:2919  campaigns[_campaignId].totalFunds */\n      0x04\n      add\n        /* \"contracts/Crowdfunding.sol\":2886:2923  campaigns[_campaignId].totalFunds = 0 */\n      dup2\n      swap1\n      sstore\n      pop\n        /* \"contracts/Crowdfunding.sol\":2965:2970  false */\n      0x00\n        /* \"contracts/Crowdfunding.sol\":2933:2942  campaigns */\n      dup1\n        /* \"contracts/Crowdfunding.sol\":2943:2954  _campaignId */\n      dup6\n        /* \"contracts/Crowdfunding.sol\":2933:2955  campaigns[_campaignId] */\n      dup2\n      sload\n      dup2\n      lt\n      tag_112\n      jumpi\n      tag_113\n      tag_35\n      jump\t// in\n    tag_113:\n    tag_112:\n      swap1\n      0x00\n      mstore\n      keccak256(0x00, 0x20)\n      swap1\n      0x08\n      mul\n      add\n        /* \"contracts/Crowdfunding.sol\":2933:2962  campaigns[_campaignId].closed */\n      0x06\n      add\n      0x01\n        /* \"contracts/Crowdfunding.sol\":2933:2970  campaigns[_campaignId].closed = false */\n      0x0100\n      exp\n      dup2\n      sload\n      dup2\n      0xff\n      mul\n      not\n      and\n      swap1\n      dup4\n      iszero\n      iszero\n      mul\n      or\n      swap1\n      sstore\n      pop\n        /* \"contracts/Crowdfunding.sol\":2980:2989  campaigns */\n      0x00\n        /* \"contracts/Crowdfunding.sol\":2990:3001  _campaignId */\n      dup5\n        /* \"contracts/Crowdfunding.sol\":2980:3002  campaigns[_campaignId] */\n      dup2\n      sload\n      dup2\n      lt\n      tag_115\n      jumpi\n      tag_116\n      tag_35\n      jump\t// in\n    tag_116:\n    tag_115:\n      swap1\n      0x00\n      mstore\n      keccak256(0x00, 0x20)\n      swap1\n      0x08\n      mul\n      add\n        /* \"contracts/Crowdfunding.sol\":2980:3010  campaigns[_campaignId].creator */\n      0x00\n      add\n      0x00\n      swap1\n      sload\n      swap1\n      0x0100\n      exp\n      swap1\n      div\n      0xffffffffffffffffffffffffffffffffffffffff\n      and\n        /* \"contracts/Crowdfunding.sol\":2980:3019  campaigns[_campaignId].creator.transfer */\n      0xffffffffffffffffffffffffffffffffffffffff\n      and\n        /* \"contracts/Crowdfunding.sol\":2980:3027  campaigns[_campaignId].creator.transfer(amount) */\n      0x08fc\n        /* \"contracts/Crowdfunding.sol\":3020:3026  amount */\n      dup3\n        /* \"contracts/Crowdfunding.sol\":2980:3027  campaigns[_campaignId].creator.transfer(amount) */\n      swap1\n      dup2\n      iszero\n      mul\n      swap1\n      mload(0x40)\n      0x00\n      mload(0x40)\n      dup1\n      dup4\n      sub\n      dup2\n      dup6\n      dup9\n      dup9\n      call\n      swap4\n      pop\n      pop\n      pop\n      pop\n      iszero\n      dup1\n      iszero\n      tag_119\n      jumpi\n      returndatasize\n      0x00\n      dup1\n      returndatacopy\n      revert(0x00, returndatasize)\n    tag_119:\n      pop\n        /* \"contracts/Crowdfunding.sol\":2546:3034  {... */\n      pop\n        /* \"contracts/Crowdfunding.sol\":569:570  _ */\n      pop\n        /* \"contracts/Crowdfunding.sol\":2399:3034  function withdrawFunds(uint256 _campaignId)... */\n      pop\n      pop\n      jump\t// out\n        /* \"contracts/Crowdfunding.sol\":1115:1747  function createCampaign(... */\n    tag_24:\n        /* \"contracts/Crowdfunding.sol\":1294:1295  0 */\n      0x00\n        /* \"contracts/Crowdfunding.sol\":1286:1291  _goal */\n      dup2\n        /* \"contracts/Crowdfunding.sol\":1286:1295  _goal > 0 */\n      gt\n        /* \"contracts/Crowdfunding.sol\":1278:1316  require(_goal > 0, \"Goal must be > 0\") */\n      tag_121\n      jumpi\n      mload(0x40)\n      0x08c379a000000000000000000000000000000000000000000000000000000000\n      dup2\n      mstore\n      0x04\n      add\n      tag_122\n      swap1\n      tag_123\n      jump\t// in\n    tag_122:\n      mload(0x40)\n      dup1\n      swap2\n      sub\n      swap1\n      revert\n    tag_121:\n        /* \"contracts/Crowdfunding.sol\":1346:1347  0 */\n      0x00\n        /* \"contracts/Crowdfunding.sol\":1334:1343  _duration */\n      dup3\n        /* \"contracts/Crowdfunding.sol\":1334:1347  _duration > 0 */\n      gt\n        /* \"contracts/Crowdfunding.sol\":1326:1372  require(_duration > 0, \"Duration must be > 0\") */\n      tag_124\n      jumpi\n      mload(0x40)\n      0x08c379a000000000000000000000000000000000000000000000000000000000\n      dup2\n      mstore\n      0x04\n      add\n      tag_125\n      swap1\n      tag_126\n      jump\t// in\n    tag_125:\n      mload(0x40)\n      dup1\n      swap2\n      sub\n      swap1\n      revert\n    tag_124:\n        /* \"contracts/Crowdfunding.sol\":1383:1400  uint256 _deadline */\n      0x00\n        /* \"contracts/Crowdfunding.sol\":1421:1430  _duration */\n      dup3\n        /* \"contracts/Crowdfunding.sol\":1403:1418  block.timestamp */\n      timestamp\n        /* \"contracts/Crowdfunding.sol\":1403:1430  block.timestamp + _duration */\n      tag_127\n      swap2\n      swap1\n      tag_128\n      jump\t// in\n    tag_127:\n        /* \"contracts/Crowdfunding.sol\":1383:1430  uint256 _deadline = block.timestamp + _duration */\n      swap1\n      pop\n        /* \"contracts/Crowdfunding.sol\":1441:1469  Campaign storage newCampaign */\n      0x00\n        /* \"contracts/Crowdfunding.sol\":1472:1481  campaigns */\n      dup1\n        /* \"contracts/Crowdfunding.sol\":1472:1488  campaigns.push() */\n      0x01\n      dup2\n      0x01\n      dup2\n      sload\n      add\n      dup1\n      dup3\n      sstore\n      dup1\n      swap2\n      pop\n      pop\n      sub\n      swap1\n      0x00\n      mstore\n      keccak256(0x00, 0x20)\n      swap1\n      0x08\n      mul\n      add\n        /* \"contracts/Crowdfunding.sol\":1441:1488  Campaign storage newCampaign = campaigns.push() */\n      swap1\n      pop\n        /* \"contracts/Crowdfunding.sol\":1528:1538  msg.sender */\n      caller\n        /* \"contracts/Crowdfunding.sol\":1498:1509  newCampaign */\n      dup2\n        /* \"contracts/Crowdfunding.sol\":1498:1517  newCampaign.creator */\n      0x00\n      add\n      0x00\n        /* \"contracts/Crowdfunding.sol\":1498:1539  newCampaign.creator = payable(msg.sender) */\n      0x0100\n      exp\n      dup2\n      sload\n      dup2\n      0xffffffffffffffffffffffffffffffffffffffff\n      mul\n      not\n      and\n      swap1\n      dup4\n      0xffffffffffffffffffffffffffffffffffffffff\n      and\n      mul\n      or\n      swap1\n      sstore\n      pop\n        /* \"contracts/Crowdfunding.sol\":1569:1575  _title */\n      dup6\n        /* \"contracts/Crowdfunding.sol\":1549:1560  newCampaign */\n      dup2\n        /* \"contracts/Crowdfunding.sol\":1549:1566  newCampaign.title */\n      0x01\n      add\n        /* \"contracts/Crowdfunding.sol\":1549:1575  newCampaign.title = _title */\n      swap1\n      dup2\n      tag_130\n      swap2\n      swap1\n      tag_131\n      jump\t// in\n    tag_130:\n      pop\n        /* \"contracts/Crowdfunding.sol\":1611:1623  _description */\n      dup5\n        /* \"contracts/Crowdfunding.sol\":1585:1596  newCampaign */\n      dup2\n        /* \"contracts/Crowdfunding.sol\":1585:1608  newCampaign.description */\n      0x02\n      add\n        /* \"contracts/Crowdfunding.sol\":1585:1623  newCampaign.description = _description */\n      swap1\n      dup2\n      tag_132\n      swap2\n      swap1\n      tag_131\n      jump\t// in\n    tag_132:\n      pop\n        /* \"contracts/Crowdfunding.sol\":1652:1657  _goal */\n      dup3\n        /* \"contracts/Crowdfunding.sol\":1633:1644  newCampaign */\n      dup2\n        /* \"contracts/Crowdfunding.sol\":1633:1649  newCampaign.goal */\n      0x03\n      add\n        /* \"contracts/Crowdfunding.sol\":1633:1657  newCampaign.goal = _goal */\n      dup2\n      swap1\n      sstore\n      pop\n        /* \"contracts/Crowdfunding.sol\":1690:1699  _deadline */\n      dup2\n        /* \"contracts/Crowdfunding.sol\":1667:1678  newCampaign */\n      dup2\n        /* \"contracts/Crowdfunding.sol\":1667:1687  newCampaign.deadline */\n      0x05\n      add\n        /* \"contracts/Crowdfunding.sol\":1667:1699  newCampaign.deadline = _deadline */\n      dup2\n      swap1\n      sstore\n      pop\n        /* \"contracts/Crowdfunding.sol\":1735:1740  false */\n      0x00\n        /* \"contracts/Crowdfunding.sol\":1709:1720  newCampaign */\n      dup2\n        /* \"contracts/Crowdfunding.sol\":1709:1732  newCampaign.goalReached */\n      0x06\n      add\n      0x00\n        /* \"contracts/Crowdfunding.sol\":1709:1740  newCampaign.goalReached = false */\n      0x0100\n      exp\n      dup2\n      sload\n      dup2\n      0xff\n      mul\n      not\n      and\n      swap1\n      dup4\n      iszero\n      iszero\n      mul\n      or\n      swap1\n      sstore\n      pop\n        /* \"contracts/Crowdfunding.sol\":1268:1747  {... */\n      pop\n      pop\n        /* \"contracts/Crowdfunding.sol\":1115:1747  function createCampaign(... */\n      pop\n      pop\n      pop\n      pop\n      jump\t// out\n        /* \"contracts/Crowdfunding.sol\":1753:2393  function contribute(uint256 _campaignId)... */\n    tag_27:\n        /* \"contracts/Crowdfunding.sol\":1847:1858  _campaignId */\n      dup1\n        /* \"contracts/Crowdfunding.sol\":519:528  campaigns */\n      0x00\n        /* \"contracts/Crowdfunding.sol\":519:535  campaigns.length */\n      dup1\n      sload\n      swap1\n      pop\n        /* \"contracts/Crowdfunding.sol\":505:516  _campaignId */\n      dup2\n        /* \"contracts/Crowdfunding.sol\":505:535  _campaignId < campaigns.length */\n      lt\n        /* \"contracts/Crowdfunding.sol\":497:559  require(_campaignId < campaigns.length, \"Invalid campaign ID\") */\n      tag_134\n      jumpi\n      mload(0x40)\n      0x08c379a000000000000000000000000000000000000000000000000000000000\n      dup2\n      mstore\n      0x04\n      add\n      tag_135\n      swap1\n      tag_31\n      jump\t// in\n    tag_135:\n      mload(0x40)\n      dup1\n      swap2\n      sub\n      swap1\n      revert\n    tag_134:\n        /* \"contracts/Crowdfunding.sol\":1883:1894  _campaignId */\n      dup2\n        /* \"contracts/Crowdfunding.sol\":922:931  campaigns */\n      0x00\n        /* \"contracts/Crowdfunding.sol\":932:943  _campaignId */\n      dup2\n        /* \"contracts/Crowdfunding.sol\":922:944  campaigns[_campaignId] */\n      dup2\n      sload\n      dup2\n      lt\n      tag_137\n      jumpi\n      tag_138\n      tag_35\n      jump\t// in\n    tag_138:\n    tag_137:\n      swap1\n      0x00\n      mstore\n      keccak256(0x00, 0x20)\n      swap1\n      0x08\n      mul\n      add\n        /* \"contracts/Crowdfunding.sol\":922:951  campaigns[_campaignId].closed */\n      0x06\n      add\n      0x01\n      swap1\n      sload\n      swap1\n      0x0100\n      exp\n      swap1\n      div\n      0xff\n      and\n        /* \"contracts/Crowdfunding.sol\":921:951  !campaigns[_campaignId].closed */\n      iszero\n        /* \"contracts/Crowdfunding.sol\":913:971  require(!campaigns[_campaignId].closed, \"Campaign closed\") */\n      tag_140\n      jumpi\n      mload(0x40)\n      0x08c379a000000000000000000000000000000000000000000000000000000000\n      dup2\n      mstore\n      0x04\n      add\n      tag_141\n      swap1\n      tag_39\n      jump\t// in\n    tag_141:\n      mload(0x40)\n      dup1\n      swap2\n      sub\n      swap1\n      revert\n    tag_140:\n        /* \"contracts/Crowdfunding.sol\":1020:1029  campaigns */\n      0x00\n        /* \"contracts/Crowdfunding.sol\":1030:1041  _campaignId */\n      dup2\n        /* \"contracts/Crowdfunding.sol\":1020:1042  campaigns[_campaignId] */\n      dup2\n      sload\n      dup2\n      lt\n      tag_142\n      jumpi\n      tag_143\n      tag_35\n      jump\t// in\n    tag_143:\n    tag_142:\n      swap1\n      0x00\n      mstore\n      keccak256(0x00, 0x20)\n      swap1\n      0x08\n      mul\n      add\n        /* \"contracts/Crowdfunding.sol\":1020:1051  campaigns[_campaignId].deadline */\n      0x05\n      add\n      sload\n        /* \"contracts/Crowdfunding.sol\":1002:1017  block.timestamp */\n      timestamp\n        /* \"contracts/Crowdfunding.sol\":1002:1051  block.timestamp < campaigns[_campaignId].deadline */\n      lt\n        /* \"contracts/Crowdfunding.sol\":981:1091  require(... */\n      tag_145\n      jumpi\n      mload(0x40)\n      0x08c379a000000000000000000000000000000000000000000000000000000000\n      dup2\n      mstore\n      0x04\n      add\n      tag_146\n      swap1\n      tag_45\n      jump\t// in\n    tag_146:\n      mload(0x40)\n      dup1\n      swap2\n      sub\n      swap1\n      revert\n    tag_145:\n        /* \"contracts/Crowdfunding.sol\":1930:1931  0 */\n      0x00\n        /* \"contracts/Crowdfunding.sol\":1918:1927  msg.value */\n      callvalue\n        /* \"contracts/Crowdfunding.sol\":1918:1931  msg.value > 0 */\n      gt\n        /* \"contracts/Crowdfunding.sol\":1910:1960  require(msg.value > 0, \"Contribution must be > 0\") */\n      tag_148\n      jumpi\n      mload(0x40)\n      0x08c379a000000000000000000000000000000000000000000000000000000000\n      dup2\n      mstore\n      0x04\n      add\n      tag_149\n      swap1\n      tag_150\n      jump\t// in\n    tag_149:\n      mload(0x40)\n      dup1\n      swap2\n      sub\n      swap1\n      revert\n    tag_148:\n        /* \"contracts/Crowdfunding.sol\":2023:2032  msg.value */\n      callvalue\n        /* \"contracts/Crowdfunding.sol\":1971:1980  campaigns */\n      0x00\n        /* \"contracts/Crowdfunding.sol\":1981:1992  _campaignId */\n      dup5\n        /* \"contracts/Crowdfunding.sol\":1971:1993  campaigns[_campaignId] */\n      dup2\n      sload\n      dup2\n      lt\n      tag_151\n      jumpi\n      tag_152\n      tag_35\n      jump\t// in\n    tag_152:\n    tag_151:\n      swap1\n      0x00\n      mstore\n      keccak256(0x00, 0x20)\n      swap1\n      0x08\n      mul\n      add\n        /* \"contracts/Crowdfunding.sol\":1971:2007  campaigns[_campaignId].contributions */\n      0x07\n      add\n        /* \"contracts/Crowdfunding.sol\":1971:2019  campaigns[_campaignId].contributions[msg.sender] */\n      0x00\n        /* \"contracts/Crowdfunding.sol\":2008:2018  msg.sender */\n      caller\n        /* \"contracts/Crowdfunding.sol\":1971:2019  campaigns[_campaignId].contributions[msg.sender] */\n      0xffffffffffffffffffffffffffffffffffffffff\n      and\n      0xffffffffffffffffffffffffffffffffffffffff\n      and\n      dup2\n      mstore\n      0x20\n      add\n      swap1\n      dup2\n      mstore\n      0x20\n      add\n      0x00\n      keccak256\n      0x00\n        /* \"contracts/Crowdfunding.sol\":1971:2032  campaigns[_campaignId].contributions[msg.sender] += msg.value */\n      dup3\n      dup3\n      sload\n      tag_154\n      swap2\n      swap1\n      tag_128\n      jump\t// in\n    tag_154:\n      swap3\n      pop\n      pop\n      dup2\n      swap1\n      sstore\n      pop\n        /* \"contracts/Crowdfunding.sol\":2079:2088  msg.value */\n      callvalue\n        /* \"contracts/Crowdfunding.sol\":2042:2051  campaigns */\n      0x00\n        /* \"contracts/Crowdfunding.sol\":2052:2063  _campaignId */\n      dup5\n        /* \"contracts/Crowdfunding.sol\":2042:2064  campaigns[_campaignId] */\n      dup2\n      sload\n      dup2\n      lt\n      tag_155\n      jumpi\n      tag_156\n      tag_35\n      jump\t// in\n    tag_156:\n    tag_155:\n      swap1\n      0x00\n      mstore\n      keccak256(0x00, 0x20)\n      swap1\n      0x08\n      mul\n      add\n        /* \"contracts/Crowdfunding.sol\":2042:2075  campaigns[_campaignId].totalFunds */\n      0x04\n      add\n      0x00\n        /* \"contracts/Crowdfunding.sol\":2042:2088  campaigns[_campaignId].totalFunds += msg.value */\n      dup3\n      dup3\n      sload\n      tag_158\n      swap2\n      swap1\n      tag_128\n      jump\t// in\n    tag_158:\n      swap3\n      pop\n      pop\n      dup2\n      swap1\n      sstore\n      pop\n        /* \"contracts/Crowdfunding.sol\":2153:2162  campaigns */\n      0x00\n        /* \"contracts/Crowdfunding.sol\":2163:2174  _campaignId */\n      dup4\n        /* \"contracts/Crowdfunding.sol\":2153:2175  campaigns[_campaignId] */\n      dup2\n      sload\n      dup2\n      lt\n      tag_159\n      jumpi\n      tag_160\n      tag_35\n      jump\t// in\n    tag_160:\n    tag_159:\n      swap1\n      0x00\n      mstore\n      keccak256(0x00, 0x20)\n      swap1\n      0x08\n      mul\n      add\n        /* \"contracts/Crowdfunding.sol\":2153:2180  campaigns[_campaignId].goal */\n      0x03\n      add\n      sload\n        /* \"contracts/Crowdfunding.sol\":2116:2125  campaigns */\n      0x00\n        /* \"contracts/Crowdfunding.sol\":2126:2137  _campaignId */\n      dup5\n        /* \"contracts/Crowdfunding.sol\":2116:2138  campaigns[_campaignId] */\n      dup2\n      sload\n      dup2\n      lt\n      tag_162\n      jumpi\n      tag_163\n      tag_35\n      jump\t// in\n    tag_163:\n    tag_162:\n      swap1\n      0x00\n      mstore\n      keccak256(0x00, 0x20)\n      swap1\n      0x08\n      mul\n      add\n        /* \"contracts/Crowdfunding.sol\":2116:2149  campaigns[_campaignId].totalFunds */\n      0x04\n      add\n      sload\n        /* \"contracts/Crowdfunding.sol\":2116:2180  campaigns[_campaignId].totalFunds >= campaigns[_campaignId].goal */\n      lt\n      iszero\n        /* \"contracts/Crowdfunding.sol\":2116:2231  campaigns[_campaignId].totalFunds >= campaigns[_campaignId].goal &&... */\n      dup1\n      iszero\n      tag_165\n      jumpi\n      pop\n        /* \"contracts/Crowdfunding.sol\":2197:2206  campaigns */\n      0x00\n        /* \"contracts/Crowdfunding.sol\":2207:2218  _campaignId */\n      dup4\n        /* \"contracts/Crowdfunding.sol\":2197:2219  campaigns[_campaignId] */\n      dup2\n      sload\n      dup2\n      lt\n      tag_166\n      jumpi\n      tag_167\n      tag_35\n      jump\t// in\n    tag_167:\n    tag_166:\n      swap1\n      0x00\n      mstore\n      keccak256(0x00, 0x20)\n      swap1\n      0x08\n      mul\n      add\n        /* \"contracts/Crowdfunding.sol\":2197:2231  campaigns[_campaignId].goalReached */\n      0x06\n      add\n      0x00\n      swap1\n      sload\n      swap1\n      0x0100\n      exp\n      swap1\n      div\n      0xff\n      and\n        /* \"contracts/Crowdfunding.sol\":2196:2231  !campaigns[_campaignId].goalReached */\n      iszero\n        /* \"contracts/Crowdfunding.sol\":2116:2231  campaigns[_campaignId].totalFunds >= campaigns[_campaignId].goal &&... */\n    tag_165:\n        /* \"contracts/Crowdfunding.sol\":2099:2349  if (... */\n      iszero\n      tag_169\n      jumpi\n        /* \"contracts/Crowdfunding.sol\":2293:2297  true */\n      0x01\n        /* \"contracts/Crowdfunding.sol\":2256:2265  campaigns */\n      0x00\n        /* \"contracts/Crowdfunding.sol\":2266:2277  _campaignId */\n      dup5\n        /* \"contracts/Crowdfunding.sol\":2256:2278  campaigns[_campaignId] */\n      dup2\n      sload\n      dup2\n      lt\n      tag_170\n      jumpi\n      tag_171\n      tag_35\n      jump\t// in\n    tag_171:\n    tag_170:\n      swap1\n      0x00\n      mstore\n      keccak256(0x00, 0x20)\n      swap1\n      0x08\n      mul\n      add\n        /* \"contracts/Crowdfunding.sol\":2256:2290  campaigns[_campaignId].goalReached */\n      0x06\n      add\n      0x00\n        /* \"contracts/Crowdfunding.sol\":2256:2297  campaigns[_campaignId].goalReached = true */\n      0x0100\n      exp\n      dup2\n      sload\n      dup2\n      0xff\n      mul\n      not\n      and\n      swap1\n      dup4\n      iszero\n      iszero\n      mul\n      or\n      swap1\n      sstore\n      pop\n        /* \"contracts/Crowdfunding.sol\":2099:2349  if (... */\n    tag_169:\n        /* \"contracts/Crowdfunding.sol\":569:570  _ */\n      pop\n        /* \"contracts/Crowdfunding.sol\":1753:2393  function contribute(uint256 _campaignId)... */\n      pop\n      pop\n      jump\t// out\n        /* \"#utility.yul\":7:82   */\n    tag_173:\n        /* \"#utility.yul\":40:46   */\n      0x00\n        /* \"#utility.yul\":73:75   */\n      0x40\n        /* \"#utility.yul\":67:76   */\n      mload\n        /* \"#utility.yul\":57:76   */\n      swap1\n      pop\n        /* \"#utility.yul\":7:82   */\n      swap1\n      jump\t// out\n        /* \"#utility.yul\":88:205   */\n    tag_174:\n        /* \"#utility.yul\":197:198   */\n      0x00\n        /* \"#utility.yul\":194:195   */\n      dup1\n        /* \"#utility.yul\":187:199   */\n      revert\n        /* \"#utility.yul\":211:328   */\n    tag_175:\n        /* \"#utility.yul\":320:321   */\n      0x00\n        /* \"#utility.yul\":317:318   */\n      dup1\n        /* \"#utility.yul\":310:322   */\n      revert\n        /* \"#utility.yul\":334:411   */\n    tag_176:\n        /* \"#utility.yul\":371:378   */\n      0x00\n        /* \"#utility.yul\":400:405   */\n      dup2\n        /* \"#utility.yul\":389:405   */\n      swap1\n      pop\n        /* \"#utility.yul\":334:411   */\n      swap2\n      swap1\n      pop\n      jump\t// out\n        /* \"#utility.yul\":417:539   */\n    tag_177:\n        /* \"#utility.yul\":490:514   */\n      tag_246\n        /* \"#utility.yul\":508:513   */\n      dup2\n        /* \"#utility.yul\":490:514   */\n      tag_176\n      jump\t// in\n    tag_246:\n        /* \"#utility.yul\":483:488   */\n      dup2\n        /* \"#utility.yul\":480:515   */\n      eq\n        /* \"#utility.yul\":470:533   */\n      tag_247\n      jumpi\n        /* \"#utility.yul\":529:530   */\n      0x00\n        /* \"#utility.yul\":526:527   */\n      dup1\n        /* \"#utility.yul\":519:531   */\n      revert\n        /* \"#utility.yul\":470:533   */\n    tag_247:\n        /* \"#utility.yul\":417:539   */\n      pop\n      jump\t// out\n        /* \"#utility.yul\":545:684   */\n    tag_178:\n        /* \"#utility.yul\":591:596   */\n      0x00\n        /* \"#utility.yul\":629:635   */\n      dup2\n        /* \"#utility.yul\":616:636   */\n      calldataload\n        /* \"#utility.yul\":607:636   */\n      swap1\n      pop\n        /* \"#utility.yul\":645:678   */\n      tag_249\n        /* \"#utility.yul\":672:677   */\n      dup2\n        /* \"#utility.yul\":645:678   */\n      tag_177\n      jump\t// in\n    tag_249:\n        /* \"#utility.yul\":545:684   */\n      swap3\n      swap2\n      pop\n      pop\n      jump\t// out\n        /* \"#utility.yul\":690:1019   */\n    tag_9:\n        /* \"#utility.yul\":749:755   */\n      0x00\n        /* \"#utility.yul\":798:800   */\n      0x20\n        /* \"#utility.yul\":786:795   */\n      dup3\n        /* \"#utility.yul\":777:784   */\n      dup5\n        /* \"#utility.yul\":773:796   */\n      sub\n        /* \"#utility.yul\":769:801   */\n      slt\n        /* \"#utility.yul\":766:885   */\n      iszero\n      tag_251\n      jumpi\n        /* \"#utility.yul\":804:883   */\n      tag_252\n      tag_174\n      jump\t// in\n    tag_252:\n        /* \"#utility.yul\":766:885   */\n    tag_251:\n        /* \"#utility.yul\":924:925   */\n      0x00\n        /* \"#utility.yul\":949:1002   */\n      tag_253\n        /* \"#utility.yul\":994:1001   */\n      dup5\n        /* \"#utility.yul\":985:991   */\n      dup3\n        /* \"#utility.yul\":974:983   */\n      dup6\n        /* \"#utility.yul\":970:992   */\n      add\n        /* \"#utility.yul\":949:1002   */\n      tag_178\n      jump\t// in\n    tag_253:\n        /* \"#utility.yul\":939:1002   */\n      swap2\n      pop\n        /* \"#utility.yul\":895:1012   */\n      pop\n        /* \"#utility.yul\":690:1019   */\n      swap3\n      swap2\n      pop\n      pop\n      jump\t// out\n        /* \"#utility.yul\":1025:1151   */\n    tag_179:\n        /* \"#utility.yul\":1062:1069   */\n      0x00\n        /* \"#utility.yul\":1102:1144   */\n      0xffffffffffffffffffffffffffffffffffffffff\n        /* \"#utility.yul\":1095:1100   */\n      dup3\n        /* \"#utility.yul\":1091:1145   */\n      and\n        /* \"#utility.yul\":1080:1145   */\n      swap1\n      pop\n        /* \"#utility.yul\":1025:1151   */\n      swap2\n      swap1\n      pop\n      jump\t// out\n        /* \"#utility.yul\":1157:1261   */\n    tag_180:\n        /* \"#utility.yul\":1202:1209   */\n      0x00\n        /* \"#utility.yul\":1231:1255   */\n      tag_256\n        /* \"#utility.yul\":1249:1254   */\n      dup3\n        /* \"#utility.yul\":1231:1255   */\n      tag_179\n      jump\t// in\n    tag_256:\n        /* \"#utility.yul\":1220:1255   */\n      swap1\n      pop\n        /* \"#utility.yul\":1157:1261   */\n      swap2\n      swap1\n      pop\n      jump\t// out\n        /* \"#utility.yul\":1267:1409   */\n    tag_181:\n        /* \"#utility.yul\":1370:1402   */\n      tag_258\n        /* \"#utility.yul\":1396:1401   */\n      dup2\n        /* \"#utility.yul\":1370:1402   */\n      tag_180\n      jump\t// in\n    tag_258:\n        /* \"#utility.yul\":1365:1368   */\n      dup3\n        /* \"#utility.yul\":1358:1403   */\n      mstore\n        /* \"#utility.yul\":1267:1409   */\n      pop\n      pop\n      jump\t// out\n        /* \"#utility.yul\":1415:1514   */\n    tag_182:\n        /* \"#utility.yul\":1467:1473   */\n      0x00\n        /* \"#utility.yul\":1501:1506   */\n      dup2\n        /* \"#utility.yul\":1495:1507   */\n      mload\n        /* \"#utility.yul\":1485:1507   */\n      swap1\n      pop\n        /* \"#utility.yul\":1415:1514   */\n      swap2\n      swap1\n      pop\n      jump\t// out\n        /* \"#utility.yul\":1520:1689   */\n    tag_183:\n        /* \"#utility.yul\":1604:1615   */\n      0x00\n        /* \"#utility.yul\":1638:1644   */\n      dup3\n        /* \"#utility.yul\":1633:1636   */\n      dup3\n        /* \"#utility.yul\":1626:1645   */\n      mstore\n        /* \"#utility.yul\":1678:1682   */\n      0x20\n        /* \"#utility.yul\":1673:1676   */\n      dup3\n        /* \"#utility.yul\":1669:1683   */\n      add\n        /* \"#utility.yul\":1654:1683   */\n      swap1\n      pop\n        /* \"#utility.yul\":1520:1689   */\n      swap3\n      swap2\n      pop\n      pop\n      jump\t// out\n        /* \"#utility.yul\":1695:1834   */\n    tag_184:\n        /* \"#utility.yul\":1784:1790   */\n      dup3\n        /* \"#utility.yul\":1779:1782   */\n      dup2\n        /* \"#utility.yul\":1774:1777   */\n      dup4\n        /* \"#utility.yul\":1768:1791   */\n      mcopy\n        /* \"#utility.yul\":1825:1826   */\n      0x00\n        /* \"#utility.yul\":1816:1822   */\n      dup4\n        /* \"#utility.yul\":1811:1814   */\n      dup4\n        /* \"#utility.yul\":1807:1823   */\n      add\n        /* \"#utility.yul\":1800:1827   */\n      mstore\n        /* \"#utility.yul\":1695:1834   */\n      pop\n      pop\n      pop\n      jump\t// out\n        /* \"#utility.yul\":1840:1942   */\n    tag_185:\n        /* \"#utility.yul\":1881:1887   */\n      0x00\n        /* \"#utility.yul\":1932:1934   */\n      0x1f\n        /* \"#utility.yul\":1928:1935   */\n      not\n        /* \"#utility.yul\":1923:1925   */\n      0x1f\n        /* \"#utility.yul\":1916:1921   */\n      dup4\n        /* \"#utility.yul\":1912:1926   */\n      add\n        /* \"#utility.yul\":1908:1936   */\n      and\n        /* \"#utility.yul\":1898:1936   */\n      swap1\n      pop\n        /* \"#utility.yul\":1840:1942   */\n      swap2\n      swap1\n      pop\n      jump\t// out\n        /* \"#utility.yul\":1948:2325   */\n    tag_186:\n        /* \"#utility.yul\":2036:2039   */\n      0x00\n        /* \"#utility.yul\":2064:2103   */\n      tag_264\n        /* \"#utility.yul\":2097:2102   */\n      dup3\n        /* \"#utility.yul\":2064:2103   */\n      tag_182\n      jump\t// in\n    tag_264:\n        /* \"#utility.yul\":2119:2190   */\n      tag_265\n        /* \"#utility.yul\":2183:2189   */\n      dup2\n        /* \"#utility.yul\":2178:2181   */\n      dup6\n        /* \"#utility.yul\":2119:2190   */\n      tag_183\n      jump\t// in\n    tag_265:\n        /* \"#utility.yul\":2112:2190   */\n      swap4\n      pop\n        /* \"#utility.yul\":2199:2264   */\n      tag_266\n        /* \"#utility.yul\":2257:2263   */\n      dup2\n        /* \"#utility.yul\":2252:2255   */\n      dup6\n        /* \"#utility.yul\":2245:2249   */\n      0x20\n        /* \"#utility.yul\":2238:2243   */\n      dup7\n        /* \"#utility.yul\":2234:2250   */\n      add\n        /* \"#utility.yul\":2199:2264   */\n      tag_184\n      jump\t// in\n    tag_266:\n        /* \"#utility.yul\":2289:2318   */\n      tag_267\n        /* \"#utility.yul\":2311:2317   */\n      dup2\n        /* \"#utility.yul\":2289:2318   */\n      tag_185\n      jump\t// in\n    tag_267:\n        /* \"#utility.yul\":2284:2287   */\n      dup5\n        /* \"#utility.yul\":2280:2319   */\n      add\n        /* \"#utility.yul\":2273:2319   */\n      swap2\n      pop\n        /* \"#utility.yul\":2040:2325   */\n      pop\n        /* \"#utility.yul\":1948:2325   */\n      swap3\n      swap2\n      pop\n      pop\n      jump\t// out\n        /* \"#utility.yul\":2331:2449   */\n    tag_187:\n        /* \"#utility.yul\":2418:2442   */\n      tag_269\n        /* \"#utility.yul\":2436:2441   */\n      dup2\n        /* \"#utility.yul\":2418:2442   */\n      tag_176\n      jump\t// in\n    tag_269:\n        /* \"#utility.yul\":2413:2416   */\n      dup3\n        /* \"#utility.yul\":2406:2443   */\n      mstore\n        /* \"#utility.yul\":2331:2449   */\n      pop\n      pop\n      jump\t// out\n        /* \"#utility.yul\":2455:2545   */\n    tag_188:\n        /* \"#utility.yul\":2489:2496   */\n      0x00\n        /* \"#utility.yul\":2532:2537   */\n      dup2\n        /* \"#utility.yul\":2525:2538   */\n      iszero\n        /* \"#utility.yul\":2518:2539   */\n      iszero\n        /* \"#utility.yul\":2507:2539   */\n      swap1\n      pop\n        /* \"#utility.yul\":2455:2545   */\n      swap2\n      swap1\n      pop\n      jump\t// out\n        /* \"#utility.yul\":2551:2660   */\n    tag_189:\n        /* \"#utility.yul\":2632:2653   */\n      tag_272\n        /* \"#utility.yul\":2647:2652   */\n      dup2\n        /* \"#utility.yul\":2632:2653   */\n      tag_188\n      jump\t// in\n    tag_272:\n        /* \"#utility.yul\":2627:2630   */\n      dup3\n        /* \"#utility.yul\":2620:2654   */\n      mstore\n        /* \"#utility.yul\":2551:2660   */\n      pop\n      pop\n      jump\t// out\n        /* \"#utility.yul\":2666:3853   */\n    tag_16:\n        /* \"#utility.yul\":2999:3003   */\n      0x00\n        /* \"#utility.yul\":3037:3040   */\n      0x0100\n        /* \"#utility.yul\":3026:3035   */\n      dup3\n        /* \"#utility.yul\":3022:3041   */\n      add\n        /* \"#utility.yul\":3014:3041   */\n      swap1\n      pop\n        /* \"#utility.yul\":3051:3138   */\n      tag_274\n        /* \"#utility.yul\":3135:3136   */\n      0x00\n        /* \"#utility.yul\":3124:3133   */\n      dup4\n        /* \"#utility.yul\":3120:3137   */\n      add\n        /* \"#utility.yul\":3111:3117   */\n      dup12\n        /* \"#utility.yul\":3051:3138   */\n      tag_181\n      jump\t// in\n    tag_274:\n        /* \"#utility.yul\":3185:3194   */\n      dup2\n        /* \"#utility.yul\":3179:3183   */\n      dup2\n        /* \"#utility.yul\":3175:3195   */\n      sub\n        /* \"#utility.yul\":3170:3172   */\n      0x20\n        /* \"#utility.yul\":3159:3168   */\n      dup4\n        /* \"#utility.yul\":3155:3173   */\n      add\n        /* \"#utility.yul\":3148:3196   */\n      mstore\n        /* \"#utility.yul\":3213:3291   */\n      tag_275\n        /* \"#utility.yul\":3286:3290   */\n      dup2\n        /* \"#utility.yul\":3277:3283   */\n      dup11\n        /* \"#utility.yul\":3213:3291   */\n      tag_186\n      jump\t// in\n    tag_275:\n        /* \"#utility.yul\":3205:3291   */\n      swap1\n      pop\n        /* \"#utility.yul\":3338:3347   */\n      dup2\n        /* \"#utility.yul\":3332:3336   */\n      dup2\n        /* \"#utility.yul\":3328:3348   */\n      sub\n        /* \"#utility.yul\":3323:3325   */\n      0x40\n        /* \"#utility.yul\":3312:3321   */\n      dup4\n        /* \"#utility.yul\":3308:3326   */\n      add\n        /* \"#utility.yul\":3301:3349   */\n      mstore\n        /* \"#utility.yul\":3366:3444   */\n      tag_276\n        /* \"#utility.yul\":3439:3443   */\n      dup2\n        /* \"#utility.yul\":3430:3436   */\n      dup10\n        /* \"#utility.yul\":3366:3444   */\n      tag_186\n      jump\t// in\n    tag_276:\n        /* \"#utility.yul\":3358:3444   */\n      swap1\n      pop\n        /* \"#utility.yul\":3454:3526   */\n      tag_277\n        /* \"#utility.yul\":3522:3524   */\n      0x60\n        /* \"#utility.yul\":3511:3520   */\n      dup4\n        /* \"#utility.yul\":3507:3525   */\n      add\n        /* \"#utility.yul\":3498:3504   */\n      dup9\n        /* \"#utility.yul\":3454:3526   */\n      tag_187\n      jump\t// in\n    tag_277:\n        /* \"#utility.yul\":3536:3609   */\n      tag_278\n        /* \"#utility.yul\":3604:3607   */\n      0x80\n        /* \"#utility.yul\":3593:3602   */\n      dup4\n        /* \"#utility.yul\":3589:3608   */\n      add\n        /* \"#utility.yul\":3580:3586   */\n      dup8\n        /* \"#utility.yul\":3536:3609   */\n      tag_187\n      jump\t// in\n    tag_278:\n        /* \"#utility.yul\":3619:3692   */\n      tag_279\n        /* \"#utility.yul\":3687:3690   */\n      0xa0\n        /* \"#utility.yul\":3676:3685   */\n      dup4\n        /* \"#utility.yul\":3672:3691   */\n      add\n        /* \"#utility.yul\":3663:3669   */\n      dup7\n        /* \"#utility.yul\":3619:3692   */\n      tag_187\n      jump\t// in\n    tag_279:\n        /* \"#utility.yul\":3702:3769   */\n      tag_280\n        /* \"#utility.yul\":3764:3767   */\n      0xc0\n        /* \"#utility.yul\":3753:3762   */\n      dup4\n        /* \"#utility.yul\":3749:3768   */\n      add\n        /* \"#utility.yul\":3740:3746   */\n      dup6\n        /* \"#utility.yul\":3702:3769   */\n      tag_189\n      jump\t// in\n    tag_280:\n        /* \"#utility.yul\":3779:3846   */\n      tag_281\n        /* \"#utility.yul\":3841:3844   */\n      0xe0\n        /* \"#utility.yul\":3830:3839   */\n      dup4\n        /* \"#utility.yul\":3826:3845   */\n      add\n        /* \"#utility.yul\":3817:3823   */\n      dup5\n        /* \"#utility.yul\":3779:3846   */\n      tag_189\n      jump\t// in\n    tag_281:\n        /* \"#utility.yul\":2666:3853   */\n      swap10\n      swap9\n      pop\n      pop\n      pop\n      pop\n      pop\n      pop\n      pop\n      pop\n      pop\n      jump\t// out\n        /* \"#utility.yul\":3859:3976   */\n    tag_190:\n        /* \"#utility.yul\":3968:3969   */\n      0x00\n        /* \"#utility.yul\":3965:3966   */\n      dup1\n        /* \"#utility.yul\":3958:3970   */\n      revert\n        /* \"#utility.yul\":3982:4099   */\n    tag_191:\n        /* \"#utility.yul\":4091:4092   */\n      0x00\n        /* \"#utility.yul\":4088:4089   */\n      dup1\n        /* \"#utility.yul\":4081:4093   */\n      revert\n        /* \"#utility.yul\":4105:4285   */\n    tag_192:\n        /* \"#utility.yul\":4153:4230   */\n      0x4e487b7100000000000000000000000000000000000000000000000000000000\n        /* \"#utility.yul\":4150:4151   */\n      0x00\n        /* \"#utility.yul\":4143:4231   */\n      mstore\n        /* \"#utility.yul\":4250:4254   */\n      0x41\n        /* \"#utility.yul\":4247:4248   */\n      0x04\n        /* \"#utility.yul\":4240:4255   */\n      mstore\n        /* \"#utility.yul\":4274:4278   */\n      0x24\n        /* \"#utility.yul\":4271:4272   */\n      0x00\n        /* \"#utility.yul\":4264:4279   */\n      revert\n        /* \"#utility.yul\":4291:4572   */\n    tag_193:\n        /* \"#utility.yul\":4374:4401   */\n      tag_286\n        /* \"#utility.yul\":4396:4400   */\n      dup3\n        /* \"#utility.yul\":4374:4401   */\n      tag_185\n      jump\t// in\n    tag_286:\n        /* \"#utility.yul\":4366:4372   */\n      dup2\n        /* \"#utility.yul\":4362:4402   */\n      add\n        /* \"#utility.yul\":4504:4510   */\n      dup2\n        /* \"#utility.yul\":4492:4502   */\n      dup2\n        /* \"#utility.yul\":4489:4511   */\n      lt\n        /* \"#utility.yul\":4468:4486   */\n      0xffffffffffffffff\n        /* \"#utility.yul\":4456:4466   */\n      dup3\n        /* \"#utility.yul\":4453:4487   */\n      gt\n        /* \"#utility.yul\":4450:4512   */\n      or\n        /* \"#utility.yul\":4447:4535   */\n      iszero\n      tag_287\n      jumpi\n        /* \"#utility.yul\":4515:4533   */\n      tag_288\n      tag_192\n      jump\t// in\n    tag_288:\n        /* \"#utility.yul\":4447:4535   */\n    tag_287:\n        /* \"#utility.yul\":4555:4565   */\n      dup1\n        /* \"#utility.yul\":4551:4553   */\n      0x40\n        /* \"#utility.yul\":4544:4566   */\n      mstore\n        /* \"#utility.yul\":4334:4572   */\n      pop\n        /* \"#utility.yul\":4291:4572   */\n      pop\n      pop\n      jump\t// out\n        /* \"#utility.yul\":4578:4707   */\n    tag_194:\n        /* \"#utility.yul\":4612:4618   */\n      0x00\n        /* \"#utility.yul\":4639:4659   */\n      tag_290\n      tag_173\n      jump\t// in\n    tag_290:\n        /* \"#utility.yul\":4629:4659   */\n      swap1\n      pop\n        /* \"#utility.yul\":4668:4701   */\n      tag_291\n        /* \"#utility.yul\":4696:4700   */\n      dup3\n        /* \"#utility.yul\":4688:4694   */\n      dup3\n        /* \"#utility.yul\":4668:4701   */\n      tag_193\n      jump\t// in\n    tag_291:\n        /* \"#utility.yul\":4578:4707   */\n      swap2\n      swap1\n      pop\n      jump\t// out\n        /* \"#utility.yul\":4713:5021   */\n    tag_195:\n        /* \"#utility.yul\":4775:4779   */\n      0x00\n        /* \"#utility.yul\":4865:4883   */\n      0xffffffffffffffff\n        /* \"#utility.yul\":4857:4863   */\n      dup3\n        /* \"#utility.yul\":4854:4884   */\n      gt\n        /* \"#utility.yul\":4851:4907   */\n      iszero\n      tag_293\n      jumpi\n        /* \"#utility.yul\":4887:4905   */\n      tag_294\n      tag_192\n      jump\t// in\n    tag_294:\n        /* \"#utility.yul\":4851:4907   */\n    tag_293:\n        /* \"#utility.yul\":4925:4954   */\n      tag_295\n        /* \"#utility.yul\":4947:4953   */\n      dup3\n        /* \"#utility.yul\":4925:4954   */\n      tag_185\n      jump\t// in\n    tag_295:\n        /* \"#utility.yul\":4917:4954   */\n      swap1\n      pop\n        /* \"#utility.yul\":5009:5013   */\n      0x20\n        /* \"#utility.yul\":5003:5007   */\n      dup2\n        /* \"#utility.yul\":4999:5014   */\n      add\n        /* \"#utility.yul\":4991:5014   */\n      swap1\n      pop\n        /* \"#utility.yul\":4713:5021   */\n      swap2\n      swap1\n      pop\n      jump\t// out\n        /* \"#utility.yul\":5027:5175   */\n    tag_196:\n        /* \"#utility.yul\":5125:5131   */\n      dup3\n        /* \"#utility.yul\":5120:5123   */\n      dup2\n        /* \"#utility.yul\":5115:5118   */\n      dup4\n        /* \"#utility.yul\":5102:5132   */\n      calldatacopy\n        /* \"#utility.yul\":5166:5167   */\n      0x00\n        /* \"#utility.yul\":5157:5163   */\n      dup4\n        /* \"#utility.yul\":5152:5155   */\n      dup4\n        /* \"#utility.yul\":5148:5164   */\n      add\n        /* \"#utility.yul\":5141:5168   */\n      mstore\n        /* \"#utility.yul\":5027:5175   */\n      pop\n      pop\n      pop\n      jump\t// out\n        /* \"#utility.yul\":5181:5606   */\n    tag_197:\n        /* \"#utility.yul\":5259:5264   */\n      0x00\n        /* \"#utility.yul\":5284:5350   */\n      tag_298\n        /* \"#utility.yul\":5300:5349   */\n      tag_299\n        /* \"#utility.yul\":5342:5348   */\n      dup5\n        /* \"#utility.yul\":5300:5349   */\n      tag_195\n      jump\t// in\n    tag_299:\n        /* \"#utility.yul\":5284:5350   */\n      tag_194\n      jump\t// in\n    tag_298:\n        /* \"#utility.yul\":5275:5350   */\n      swap1\n      pop\n        /* \"#utility.yul\":5373:5379   */\n      dup3\n        /* \"#utility.yul\":5366:5371   */\n      dup2\n        /* \"#utility.yul\":5359:5380   */\n      mstore\n        /* \"#utility.yul\":5411:5415   */\n      0x20\n        /* \"#utility.yul\":5404:5409   */\n      dup2\n        /* \"#utility.yul\":5400:5416   */\n      add\n        /* \"#utility.yul\":5449:5452   */\n      dup5\n        /* \"#utility.yul\":5440:5446   */\n      dup5\n        /* \"#utility.yul\":5435:5438   */\n      dup5\n        /* \"#utility.yul\":5431:5447   */\n      add\n        /* \"#utility.yul\":5428:5453   */\n      gt\n        /* \"#utility.yul\":5425:5537   */\n      iszero\n      tag_300\n      jumpi\n        /* \"#utility.yul\":5456:5535   */\n      tag_301\n      tag_191\n      jump\t// in\n    tag_301:\n        /* \"#utility.yul\":5425:5537   */\n    tag_300:\n        /* \"#utility.yul\":5546:5600   */\n      tag_302\n        /* \"#utility.yul\":5593:5599   */\n      dup5\n        /* \"#utility.yul\":5588:5591   */\n      dup3\n        /* \"#utility.yul\":5583:5586   */\n      dup6\n        /* \"#utility.yul\":5546:5600   */\n      tag_196\n      jump\t// in\n    tag_302:\n        /* \"#utility.yul\":5265:5606   */\n      pop\n        /* \"#utility.yul\":5181:5606   */\n      swap4\n      swap3\n      pop\n      pop\n      pop\n      jump\t// out\n        /* \"#utility.yul\":5626:5966   */\n    tag_198:\n        /* \"#utility.yul\":5682:5687   */\n      0x00\n        /* \"#utility.yul\":5731:5734   */\n      dup3\n        /* \"#utility.yul\":5724:5728   */\n      0x1f\n        /* \"#utility.yul\":5716:5722   */\n      dup4\n        /* \"#utility.yul\":5712:5729   */\n      add\n        /* \"#utility.yul\":5708:5735   */\n      slt\n        /* \"#utility.yul\":5698:5820   */\n      tag_304\n      jumpi\n        /* \"#utility.yul\":5739:5818   */\n      tag_305\n      tag_190\n      jump\t// in\n    tag_305:\n        /* \"#utility.yul\":5698:5820   */\n    tag_304:\n        /* \"#utility.yul\":5856:5862   */\n      dup2\n        /* \"#utility.yul\":5843:5863   */\n      calldataload\n        /* \"#utility.yul\":5881:5960   */\n      tag_306\n        /* \"#utility.yul\":5956:5959   */\n      dup5\n        /* \"#utility.yul\":5948:5954   */\n      dup3\n        /* \"#utility.yul\":5941:5945   */\n      0x20\n        /* \"#utility.yul\":5933:5939   */\n      dup7\n        /* \"#utility.yul\":5929:5946   */\n      add\n        /* \"#utility.yul\":5881:5960   */\n      tag_197\n      jump\t// in\n    tag_306:\n        /* \"#utility.yul\":5872:5960   */\n      swap2\n      pop\n        /* \"#utility.yul\":5688:5966   */\n      pop\n        /* \"#utility.yul\":5626:5966   */\n      swap3\n      swap2\n      pop\n      pop\n      jump\t// out\n        /* \"#utility.yul\":5972:7097   */\n    tag_23:\n        /* \"#utility.yul\":6078:6084   */\n      0x00\n        /* \"#utility.yul\":6086:6092   */\n      dup1\n        /* \"#utility.yul\":6094:6100   */\n      0x00\n        /* \"#utility.yul\":6102:6108   */\n      dup1\n        /* \"#utility.yul\":6151:6154   */\n      0x80\n        /* \"#utility.yul\":6139:6148   */\n      dup6\n        /* \"#utility.yul\":6130:6137   */\n      dup8\n        /* \"#utility.yul\":6126:6149   */\n      sub\n        /* \"#utility.yul\":6122:6155   */\n      slt\n        /* \"#utility.yul\":6119:6239   */\n      iszero\n      tag_308\n      jumpi\n        /* \"#utility.yul\":6158:6237   */\n      tag_309\n      tag_174\n      jump\t// in\n    tag_309:\n        /* \"#utility.yul\":6119:6239   */\n    tag_308:\n        /* \"#utility.yul\":6306:6307   */\n      0x00\n        /* \"#utility.yul\":6295:6304   */\n      dup6\n        /* \"#utility.yul\":6291:6308   */\n      add\n        /* \"#utility.yul\":6278:6309   */\n      calldataload\n        /* \"#utility.yul\":6336:6354   */\n      0xffffffffffffffff\n        /* \"#utility.yul\":6328:6334   */\n      dup2\n        /* \"#utility.yul\":6325:6355   */\n      gt\n        /* \"#utility.yul\":6322:6439   */\n      iszero\n      tag_310\n      jumpi\n        /* \"#utility.yul\":6358:6437   */\n      tag_311\n      tag_175\n      jump\t// in\n    tag_311:\n        /* \"#utility.yul\":6322:6439   */\n    tag_310:\n        /* \"#utility.yul\":6463:6526   */\n      tag_312\n        /* \"#utility.yul\":6518:6525   */\n      dup8\n        /* \"#utility.yul\":6509:6515   */\n      dup3\n        /* \"#utility.yul\":6498:6507   */\n      dup9\n        /* \"#utility.yul\":6494:6516   */\n      add\n        /* \"#utility.yul\":6463:6526   */\n      tag_198\n      jump\t// in\n    tag_312:\n        /* \"#utility.yul\":6453:6526   */\n      swap5\n      pop\n        /* \"#utility.yul\":6249:6536   */\n      pop\n        /* \"#utility.yul\":6603:6605   */\n      0x20\n        /* \"#utility.yul\":6592:6601   */\n      dup6\n        /* \"#utility.yul\":6588:6606   */\n      add\n        /* \"#utility.yul\":6575:6607   */\n      calldataload\n        /* \"#utility.yul\":6634:6652   */\n      0xffffffffffffffff\n        /* \"#utility.yul\":6626:6632   */\n      dup2\n        /* \"#utility.yul\":6623:6653   */\n      gt\n        /* \"#utility.yul\":6620:6737   */\n      iszero\n      tag_313\n      jumpi\n        /* \"#utility.yul\":6656:6735   */\n      tag_314\n      tag_175\n      jump\t// in\n    tag_314:\n        /* \"#utility.yul\":6620:6737   */\n    tag_313:\n        /* \"#utility.yul\":6761:6824   */\n      tag_315\n        /* \"#utility.yul\":6816:6823   */\n      dup8\n        /* \"#utility.yul\":6807:6813   */\n      dup3\n        /* \"#utility.yul\":6796:6805   */\n      dup9\n        /* \"#utility.yul\":6792:6814   */\n      add\n        /* \"#utility.yul\":6761:6824   */\n      tag_198\n      jump\t// in\n    tag_315:\n        /* \"#utility.yul\":6751:6824   */\n      swap4\n      pop\n        /* \"#utility.yul\":6546:6834   */\n      pop\n        /* \"#utility.yul\":6873:6875   */\n      0x40\n        /* \"#utility.yul\":6899:6952   */\n      tag_316\n        /* \"#utility.yul\":6944:6951   */\n      dup8\n        /* \"#utility.yul\":6935:6941   */\n      dup3\n        /* \"#utility.yul\":6924:6933   */\n      dup9\n        /* \"#utility.yul\":6920:6942   */\n      add\n        /* \"#utility.yul\":6899:6952   */\n      tag_178\n      jump\t// in\n    tag_316:\n        /* \"#utility.yul\":6889:6952   */\n      swap3\n      pop\n        /* \"#utility.yul\":6844:6962   */\n      pop\n        /* \"#utility.yul\":7001:7003   */\n      0x60\n        /* \"#utility.yul\":7027:7080   */\n      tag_317\n        /* \"#utility.yul\":7072:7079   */\n      dup8\n        /* \"#utility.yul\":7063:7069   */\n      dup3\n        /* \"#utility.yul\":7052:7061   */\n      dup9\n        /* \"#utility.yul\":7048:7070   */\n      add\n        /* \"#utility.yul\":7027:7080   */\n      tag_178\n      jump\t// in\n    tag_317:\n        /* \"#utility.yul\":7017:7080   */\n      swap2\n      pop\n        /* \"#utility.yul\":6972:7090   */\n      pop\n        /* \"#utility.yul\":5972:7097   */\n      swap3\n      swap6\n      swap2\n      swap5\n      pop\n      swap3\n      pop\n      jump\t// out\n        /* \"#utility.yul\":7103:7272   */\n    tag_199:\n        /* \"#utility.yul\":7243:7264   */\n      0x496e76616c69642063616d706169676e20494400000000000000000000000000\n        /* \"#utility.yul\":7239:7240   */\n      0x00\n        /* \"#utility.yul\":7231:7237   */\n      dup3\n        /* \"#utility.yul\":7227:7241   */\n      add\n        /* \"#utility.yul\":7220:7265   */\n      mstore\n        /* \"#utility.yul\":7103:7272   */\n      pop\n      jump\t// out\n        /* \"#utility.yul\":7278:7644   */\n    tag_200:\n        /* \"#utility.yul\":7420:7423   */\n      0x00\n        /* \"#utility.yul\":7441:7508   */\n      tag_320\n        /* \"#utility.yul\":7505:7507   */\n      0x13\n        /* \"#utility.yul\":7500:7503   */\n      dup4\n        /* \"#utility.yul\":7441:7508   */\n      tag_183\n      jump\t// in\n    tag_320:\n        /* \"#utility.yul\":7434:7508   */\n      swap2\n      pop\n        /* \"#utility.yul\":7517:7610   */\n      tag_321\n        /* \"#utility.yul\":7606:7609   */\n      dup3\n        /* \"#utility.yul\":7517:7610   */\n      tag_199\n      jump\t// in\n    tag_321:\n        /* \"#utility.yul\":7635:7637   */\n      0x20\n        /* \"#utility.yul\":7630:7633   */\n      dup3\n        /* \"#utility.yul\":7626:7638   */\n      add\n        /* \"#utility.yul\":7619:7638   */\n      swap1\n      pop\n        /* \"#utility.yul\":7278:7644   */\n      swap2\n      swap1\n      pop\n      jump\t// out\n        /* \"#utility.yul\":7650:8069   */\n    tag_31:\n        /* \"#utility.yul\":7816:7820   */\n      0x00\n        /* \"#utility.yul\":7854:7856   */\n      0x20\n        /* \"#utility.yul\":7843:7852   */\n      dup3\n        /* \"#utility.yul\":7839:7857   */\n      add\n        /* \"#utility.yul\":7831:7857   */\n      swap1\n      pop\n        /* \"#utility.yul\":7903:7912   */\n      dup2\n        /* \"#utility.yul\":7897:7901   */\n      dup2\n        /* \"#utility.yul\":7893:7913   */\n      sub\n        /* \"#utility.yul\":7889:7890   */\n      0x00\n        /* \"#utility.yul\":7878:7887   */\n      dup4\n        /* \"#utility.yul\":7874:7891   */\n      add\n        /* \"#utility.yul\":7867:7914   */\n      mstore\n        /* \"#utility.yul\":7931:8062   */\n      tag_323\n        /* \"#utility.yul\":8057:8061   */\n      dup2\n        /* \"#utility.yul\":7931:8062   */\n      tag_200\n      jump\t// in\n    tag_323:\n        /* \"#utility.yul\":7923:8062   */\n      swap1\n      pop\n        /* \"#utility.yul\":7650:8069   */\n      swap2\n      swap1\n      pop\n      jump\t// out\n        /* \"#utility.yul\":8075:8255   */\n    tag_35:\n        /* \"#utility.yul\":8123:8200   */\n      0x4e487b7100000000000000000000000000000000000000000000000000000000\n        /* \"#utility.yul\":8120:8121   */\n      0x00\n        /* \"#utility.yul\":8113:8201   */\n      mstore\n        /* \"#utility.yul\":8220:8224   */\n      0x32\n        /* \"#utility.yul\":8217:8218   */\n      0x04\n        /* \"#utility.yul\":8210:8225   */\n      mstore\n        /* \"#utility.yul\":8244:8248   */\n      0x24\n        /* \"#utility.yul\":8241:8242   */\n      0x00\n        /* \"#utility.yul\":8234:8249   */\n      revert\n        /* \"#utility.yul\":8261:8426   */\n    tag_201:\n        /* \"#utility.yul\":8401:8418   */\n      0x43616d706169676e20636c6f7365640000000000000000000000000000000000\n        /* \"#utility.yul\":8397:8398   */\n      0x00\n        /* \"#utility.yul\":8389:8395   */\n      dup3\n        /* \"#utility.yul\":8385:8399   */\n      add\n        /* \"#utility.yul\":8378:8419   */\n      mstore\n        /* \"#utility.yul\":8261:8426   */\n      pop\n      jump\t// out\n        /* \"#utility.yul\":8432:8798   */\n    tag_202:\n        /* \"#utility.yul\":8574:8577   */\n      0x00\n        /* \"#utility.yul\":8595:8662   */\n      tag_327\n        /* \"#utility.yul\":8659:8661   */\n      0x0f\n        /* \"#utility.yul\":8654:8657   */\n      dup4\n        /* \"#utility.yul\":8595:8662   */\n      tag_183\n      jump\t// in\n    tag_327:\n        /* \"#utility.yul\":8588:8662   */\n      swap2\n      pop\n        /* \"#utility.yul\":8671:8764   */\n      tag_328\n        /* \"#utility.yul\":8760:8763   */\n      dup3\n        /* \"#utility.yul\":8671:8764   */\n      tag_201\n      jump\t// in\n    tag_328:\n        /* \"#utility.yul\":8789:8791   */\n      0x20\n        /* \"#utility.yul\":8784:8787   */\n      dup3\n        /* \"#utility.yul\":8780:8792   */\n      add\n        /* \"#utility.yul\":8773:8792   */\n      swap1\n      pop\n        /* \"#utility.yul\":8432:8798   */\n      swap2\n      swap1\n      pop\n      jump\t// out\n        /* \"#utility.yul\":8804:9223   */\n    tag_39:\n        /* \"#utility.yul\":8970:8974   */\n      0x00\n        /* \"#utility.yul\":9008:9010   */\n      0x20\n        /* \"#utility.yul\":8997:9006   */\n      dup3\n        /* \"#utility.yul\":8993:9011   */\n      add\n        /* \"#utility.yul\":8985:9011   */\n      swap1\n      pop\n        /* \"#utility.yul\":9057:9066   */\n      dup2\n        /* \"#utility.yul\":9051:9055   */\n      dup2\n        /* \"#utility.yul\":9047:9067   */\n      sub\n        /* \"#utility.yul\":9043:9044   */\n      0x00\n        /* \"#utility.yul\":9032:9041   */\n      dup4\n        /* \"#utility.yul\":9028:9045   */\n      add\n        /* \"#utility.yul\":9021:9068   */\n      mstore\n        /* \"#utility.yul\":9085:9216   */\n      tag_330\n        /* \"#utility.yul\":9211:9215   */\n      dup2\n        /* \"#utility.yul\":9085:9216   */\n      tag_202\n      jump\t// in\n    tag_330:\n        /* \"#utility.yul\":9077:9216   */\n      swap1\n      pop\n        /* \"#utility.yul\":8804:9223   */\n      swap2\n      swap1\n      pop\n      jump\t// out\n        /* \"#utility.yul\":9229:9393   */\n    tag_203:\n        /* \"#utility.yul\":9369:9385   */\n      0x43616d706169676e20656e646564000000000000000000000000000000000000\n        /* \"#utility.yul\":9365:9366   */\n      0x00\n        /* \"#utility.yul\":9357:9363   */\n      dup3\n        /* \"#utility.yul\":9353:9367   */\n      add\n        /* \"#utility.yul\":9346:9386   */\n      mstore\n        /* \"#utility.yul\":9229:9393   */\n      pop\n      jump\t// out\n        /* \"#utility.yul\":9399:9765   */\n    tag_204:\n        /* \"#utility.yul\":9541:9544   */\n      0x00\n        /* \"#utility.yul\":9562:9629   */\n      tag_333\n        /* \"#utility.yul\":9626:9628   */\n      0x0e\n        /* \"#utility.yul\":9621:9624   */\n      dup4\n        /* \"#utility.yul\":9562:9629   */\n      tag_183\n      jump\t// in\n    tag_333:\n        /* \"#utility.yul\":9555:9629   */\n      swap2\n      pop\n        /* \"#utility.yul\":9638:9731   */\n      tag_334\n        /* \"#utility.yul\":9727:9730   */\n      dup3\n        /* \"#utility.yul\":9638:9731   */\n      tag_203\n      jump\t// in\n    tag_334:\n        /* \"#utility.yul\":9756:9758   */\n      0x20\n        /* \"#utility.yul\":9751:9754   */\n      dup3\n        /* \"#utility.yul\":9747:9759   */\n      add\n        /* \"#utility.yul\":9740:9759   */\n      swap1\n      pop\n        /* \"#utility.yul\":9399:9765   */\n      swap2\n      swap1\n      pop\n      jump\t// out\n        /* \"#utility.yul\":9771:10190   */\n    tag_45:\n        /* \"#utility.yul\":9937:9941   */\n      0x00\n        /* \"#utility.yul\":9975:9977   */\n      0x20\n        /* \"#utility.yul\":9964:9973   */\n      dup3\n        /* \"#utility.yul\":9960:9978   */\n      add\n        /* \"#utility.yul\":9952:9978   */\n      swap1\n      pop\n        /* \"#utility.yul\":10024:10033   */\n      dup2\n        /* \"#utility.yul\":10018:10022   */\n      dup2\n        /* \"#utility.yul\":10014:10034   */\n      sub\n        /* \"#utility.yul\":10010:10011   */\n      0x00\n        /* \"#utility.yul\":9999:10008   */\n      dup4\n        /* \"#utility.yul\":9995:10012   */\n      add\n        /* \"#utility.yul\":9988:10035   */\n      mstore\n        /* \"#utility.yul\":10052:10183   */\n      tag_336\n        /* \"#utility.yul\":10178:10182   */\n      dup2\n        /* \"#utility.yul\":10052:10183   */\n      tag_204\n      jump\t// in\n    tag_336:\n        /* \"#utility.yul\":10044:10183   */\n      swap1\n      pop\n        /* \"#utility.yul\":9771:10190   */\n      swap2\n      swap1\n      pop\n      jump\t// out\n        /* \"#utility.yul\":10196:10364   */\n    tag_205:\n        /* \"#utility.yul\":10336:10356   */\n      0x43616d706169676e206e6f7420656e6465640000000000000000000000000000\n        /* \"#utility.yul\":10332:10333   */\n      0x00\n        /* \"#utility.yul\":10324:10330   */\n      dup3\n        /* \"#utility.yul\":10320:10334   */\n      add\n        /* \"#utility.yul\":10313:10357   */\n      mstore\n        /* \"#utility.yul\":10196:10364   */\n      pop\n      jump\t// out\n        /* \"#utility.yul\":10370:10736   */\n    tag_206:\n        /* \"#utility.yul\":10512:10515   */\n      0x00\n        /* \"#utility.yul\":10533:10600   */\n      tag_339\n        /* \"#utility.yul\":10597:10599   */\n      0x12\n        /* \"#utility.yul\":10592:10595   */\n      dup4\n        /* \"#utility.yul\":10533:10600   */\n      tag_183\n      jump\t// in\n    tag_339:\n        /* \"#utility.yul\":10526:10600   */\n      swap2\n      pop\n        /* \"#utility.yul\":10609:10702   */\n      tag_340\n        /* \"#utility.yul\":10698:10701   */\n      dup3\n        /* \"#utility.yul\":10609:10702   */\n      tag_205\n      jump\t// in\n    tag_340:\n        /* \"#utility.yul\":10727:10729   */\n      0x20\n        /* \"#utility.yul\":10722:10725   */\n      dup3\n        /* \"#utility.yul\":10718:10730   */\n      add\n        /* \"#utility.yul\":10711:10730   */\n      swap1\n      pop\n        /* \"#utility.yul\":10370:10736   */\n      swap2\n      swap1\n      pop\n      jump\t// out\n        /* \"#utility.yul\":10742:11161   */\n    tag_52:\n        /* \"#utility.yul\":10908:10912   */\n      0x00\n        /* \"#utility.yul\":10946:10948   */\n      0x20\n        /* \"#utility.yul\":10935:10944   */\n      dup3\n        /* \"#utility.yul\":10931:10949   */\n      add\n        /* \"#utility.yul\":10923:10949   */\n      swap1\n      pop\n        /* \"#utility.yul\":10995:11004   */\n      dup2\n        /* \"#utility.yul\":10989:10993   */\n      dup2\n        /* \"#utility.yul\":10985:11005   */\n      sub\n        /* \"#utility.yul\":10981:10982   */\n      0x00\n        /* \"#utility.yul\":10970:10979   */\n      dup4\n        /* \"#utility.yul\":10966:10983   */\n      add\n        /* \"#utility.yul\":10959:11006   */\n      mstore\n        /* \"#utility.yul\":11023:11154   */\n      tag_342\n        /* \"#utility.yul\":11149:11153   */\n      dup2\n        /* \"#utility.yul\":11023:11154   */\n      tag_206\n      jump\t// in\n    tag_342:\n        /* \"#utility.yul\":11015:11154   */\n      swap1\n      pop\n        /* \"#utility.yul\":10742:11161   */\n      swap2\n      swap1\n      pop\n      jump\t// out\n        /* \"#utility.yul\":11167:11345   */\n    tag_207:\n        /* \"#utility.yul\":11307:11337   */\n      0x4e6f20636f6e747269627574696f6e7320746f20776974686472617700000000\n        /* \"#utility.yul\":11303:11304   */\n      0x00\n        /* \"#utility.yul\":11295:11301   */\n      dup3\n        /* \"#utility.yul\":11291:11305   */\n      add\n        /* \"#utility.yul\":11284:11338   */\n      mstore\n        /* \"#utility.yul\":11167:11345   */\n      pop\n      jump\t// out\n        /* \"#utility.yul\":11351:11717   */\n    tag_208:\n        /* \"#utility.yul\":11493:11496   */\n      0x00\n        /* \"#utility.yul\":11514:11581   */\n      tag_345\n        /* \"#utility.yul\":11578:11580   */\n      0x1c\n        /* \"#utility.yul\":11573:11576   */\n      dup4\n        /* \"#utility.yul\":11514:11581   */\n      tag_183\n      jump\t// in\n    tag_345:\n        /* \"#utility.yul\":11507:11581   */\n      swap2\n      pop\n        /* \"#utility.yul\":11590:11683   */\n      tag_346\n        /* \"#utility.yul\":11679:11682   */\n      dup3\n        /* \"#utility.yul\":11590:11683   */\n      tag_207\n      jump\t// in\n    tag_346:\n        /* \"#utility.yul\":11708:11710   */\n      0x20\n        /* \"#utility.yul\":11703:11706   */\n      dup3\n        /* \"#utility.yul\":11699:11711   */\n      add\n        /* \"#utility.yul\":11692:11711   */\n      swap1\n      pop\n        /* \"#utility.yul\":11351:11717   */\n      swap2\n      swap1\n      pop\n      jump\t// out\n        /* \"#utility.yul\":11723:12142   */\n    tag_58:\n        /* \"#utility.yul\":11889:11893   */\n      0x00\n        /* \"#utility.yul\":11927:11929   */\n      0x20\n        /* \"#utility.yul\":11916:11925   */\n      dup3\n        /* \"#utility.yul\":11912:11930   */\n      add\n        /* \"#utility.yul\":11904:11930   */\n      swap1\n      pop\n        /* \"#utility.yul\":11976:11985   */\n      dup2\n        /* \"#utility.yul\":11970:11974   */\n      dup2\n        /* \"#utility.yul\":11966:11986   */\n      sub\n        /* \"#utility.yul\":11962:11963   */\n      0x00\n        /* \"#utility.yul\":11951:11960   */\n      dup4\n        /* \"#utility.yul\":11947:11964   */\n      add\n        /* \"#utility.yul\":11940:11987   */\n      mstore\n        /* \"#utility.yul\":12004:12135   */\n      tag_348\n        /* \"#utility.yul\":12130:12134   */\n      dup2\n        /* \"#utility.yul\":12004:12135   */\n      tag_208\n      jump\t// in\n    tag_348:\n        /* \"#utility.yul\":11996:12135   */\n      swap1\n      pop\n        /* \"#utility.yul\":11723:12142   */\n      swap2\n      swap1\n      pop\n      jump\t// out\n        /* \"#utility.yul\":12148:12328   */\n    tag_209:\n        /* \"#utility.yul\":12196:12273   */\n      0x4e487b7100000000000000000000000000000000000000000000000000000000\n        /* \"#utility.yul\":12193:12194   */\n      0x00\n        /* \"#utility.yul\":12186:12274   */\n      mstore\n        /* \"#utility.yul\":12293:12297   */\n      0x22\n        /* \"#utility.yul\":12290:12291   */\n      0x04\n        /* \"#utility.yul\":12283:12298   */\n      mstore\n        /* \"#utility.yul\":12317:12321   */\n      0x24\n        /* \"#utility.yul\":12314:12315   */\n      0x00\n        /* \"#utility.yul\":12307:12322   */\n      revert\n        /* \"#utility.yul\":12334:12654   */\n    tag_67:\n        /* \"#utility.yul\":12378:12384   */\n      0x00\n        /* \"#utility.yul\":12415:12416   */\n      0x02\n        /* \"#utility.yul\":12409:12413   */\n      dup3\n        /* \"#utility.yul\":12405:12417   */\n      div\n        /* \"#utility.yul\":12395:12417   */\n      swap1\n      pop\n        /* \"#utility.yul\":12462:12463   */\n      0x01\n        /* \"#utility.yul\":12456:12460   */\n      dup3\n        /* \"#utility.yul\":12452:12464   */\n      and\n        /* \"#utility.yul\":12483:12501   */\n      dup1\n        /* \"#utility.yul\":12473:12554   */\n      tag_351\n      jumpi\n        /* \"#utility.yul\":12539:12543   */\n      0x7f\n        /* \"#utility.yul\":12531:12537   */\n      dup3\n        /* \"#utility.yul\":12527:12544   */\n      and\n        /* \"#utility.yul\":12517:12544   */\n      swap2\n      pop\n        /* \"#utility.yul\":12473:12554   */\n    tag_351:\n        /* \"#utility.yul\":12601:12603   */\n      0x20\n        /* \"#utility.yul\":12593:12599   */\n      dup3\n        /* \"#utility.yul\":12590:12604   */\n      lt\n        /* \"#utility.yul\":12570:12588   */\n      dup2\n        /* \"#utility.yul\":12567:12605   */\n      sub\n        /* \"#utility.yul\":12564:12648   */\n      tag_352\n      jumpi\n        /* \"#utility.yul\":12620:12638   */\n      tag_353\n      tag_209\n      jump\t// in\n    tag_353:\n        /* \"#utility.yul\":12564:12648   */\n    tag_352:\n        /* \"#utility.yul\":12385:12654   */\n      pop\n        /* \"#utility.yul\":12334:12654   */\n      swap2\n      swap1\n      pop\n      jump\t// out\n        /* \"#utility.yul\":12660:12822   */\n    tag_210:\n        /* \"#utility.yul\":12800:12814   */\n      0x556e617574686f72697a65640000000000000000000000000000000000000000\n        /* \"#utility.yul\":12796:12797   */\n      0x00\n        /* \"#utility.yul\":12788:12794   */\n      dup3\n        /* \"#utility.yul\":12784:12798   */\n      add\n        /* \"#utility.yul\":12777:12815   */\n      mstore\n        /* \"#utility.yul\":12660:12822   */\n      pop\n      jump\t// out\n        /* \"#utility.yul\":12828:13194   */\n    tag_211:\n        /* \"#utility.yul\":12970:12973   */\n      0x00\n        /* \"#utility.yul\":12991:13058   */\n      tag_356\n        /* \"#utility.yul\":13055:13057   */\n      0x0c\n        /* \"#utility.yul\":13050:13053   */\n      dup4\n        /* \"#utility.yul\":12991:13058   */\n      tag_183\n      jump\t// in\n    tag_356:\n        /* \"#utility.yul\":12984:13058   */\n      swap2\n      pop\n        /* \"#utility.yul\":13067:13160   */\n      tag_357\n        /* \"#utility.yul\":13156:13159   */\n      dup3\n        /* \"#utility.yul\":13067:13160   */\n      tag_210\n      jump\t// in\n    tag_357:\n        /* \"#utility.yul\":13185:13187   */\n      0x20\n        /* \"#utility.yul\":13180:13183   */\n      dup3\n        /* \"#utility.yul\":13176:13188   */\n      add\n        /* \"#utility.yul\":13169:13188   */\n      swap1\n      pop\n        /* \"#utility.yul\":12828:13194   */\n      swap2\n      swap1\n      pop\n      jump\t// out\n        /* \"#utility.yul\":13200:13619   */\n    tag_86:\n        /* \"#utility.yul\":13366:13370   */\n      0x00\n        /* \"#utility.yul\":13404:13406   */\n      0x20\n        /* \"#utility.yul\":13393:13402   */\n      dup3\n        /* \"#utility.yul\":13389:13407   */\n      add\n        /* \"#utility.yul\":13381:13407   */\n      swap1\n      pop\n        /* \"#utility.yul\":13453:13462   */\n      dup2\n        /* \"#utility.yul\":13447:13451   */\n      dup2\n        /* \"#utility.yul\":13443:13463   */\n      sub\n        /* \"#utility.yul\":13439:13440   */\n      0x00\n        /* \"#utility.yul\":13428:13437   */\n      dup4\n        /* \"#utility.yul\":13424:13441   */\n      add\n        /* \"#utility.yul\":13417:13464   */\n      mstore\n        /* \"#utility.yul\":13481:13612   */\n      tag_359\n        /* \"#utility.yul\":13607:13611   */\n      dup2\n        /* \"#utility.yul\":13481:13612   */\n      tag_211\n      jump\t// in\n    tag_359:\n        /* \"#utility.yul\":13473:13612   */\n      swap1\n      pop\n        /* \"#utility.yul\":13200:13619   */\n      swap2\n      swap1\n      pop\n      jump\t// out\n        /* \"#utility.yul\":13625:13791   */\n    tag_212:\n        /* \"#utility.yul\":13765:13783   */\n      0x476f616c206e6f74207265616368656400000000000000000000000000000000\n        /* \"#utility.yul\":13761:13762   */\n      0x00\n        /* \"#utility.yul\":13753:13759   */\n      dup3\n        /* \"#utility.yul\":13749:13763   */\n      add\n        /* \"#utility.yul\":13742:13784   */\n      mstore\n        /* \"#utility.yul\":13625:13791   */\n      pop\n      jump\t// out\n        /* \"#utility.yul\":13797:14163   */\n    tag_213:\n        /* \"#utility.yul\":13939:13942   */\n      0x00\n        /* \"#utility.yul\":13960:14027   */\n      tag_362\n        /* \"#utility.yul\":14024:14026   */\n      0x10\n        /* \"#utility.yul\":14019:14022   */\n      dup4\n        /* \"#utility.yul\":13960:14027   */\n      tag_183\n      jump\t// in\n    tag_362:\n        /* \"#utility.yul\":13953:14027   */\n      swap2\n      pop\n        /* \"#utility.yul\":14036:14129   */\n      tag_363\n        /* \"#utility.yul\":14125:14128   */\n      dup3\n        /* \"#utility.yul\":14036:14129   */\n      tag_212\n      jump\t// in\n    tag_363:\n        /* \"#utility.yul\":14154:14156   */\n      0x20\n        /* \"#utility.yul\":14149:14152   */\n      dup3\n        /* \"#utility.yul\":14145:14157   */\n      add\n        /* \"#utility.yul\":14138:14157   */\n      swap1\n      pop\n        /* \"#utility.yul\":13797:14163   */\n      swap2\n      swap1\n      pop\n      jump\t// out\n        /* \"#utility.yul\":14169:14588   */\n    tag_93:\n        /* \"#utility.yul\":14335:14339   */\n      0x00\n        /* \"#utility.yul\":14373:14375   */\n      0x20\n        /* \"#utility.yul\":14362:14371   */\n      dup3\n        /* \"#utility.yul\":14358:14376   */\n      add\n        /* \"#utility.yul\":14350:14376   */\n      swap1\n      pop\n        /* \"#utility.yul\":14422:14431   */\n      dup2\n        /* \"#utility.yul\":14416:14420   */\n      dup2\n        /* \"#utility.yul\":14412:14432   */\n      sub\n        /* \"#utility.yul\":14408:14409   */\n      0x00\n        /* \"#utility.yul\":14397:14406   */\n      dup4\n        /* \"#utility.yul\":14393:14410   */\n      add\n        /* \"#utility.yul\":14386:14433   */\n      mstore\n        /* \"#utility.yul\":14450:14581   */\n      tag_365\n        /* \"#utility.yul\":14576:14580   */\n      dup2\n        /* \"#utility.yul\":14450:14581   */\n      tag_213\n      jump\t// in\n    tag_365:\n        /* \"#utility.yul\":14442:14581   */\n      swap1\n      pop\n        /* \"#utility.yul\":14169:14588   */\n      swap2\n      swap1\n      pop\n      jump\t// out\n        /* \"#utility.yul\":14594:14763   */\n    tag_214:\n        /* \"#utility.yul\":14734:14755   */\n      0x446561646c696e65206e6f742070617373656400000000000000000000000000\n        /* \"#utility.yul\":14730:14731   */\n      0x00\n        /* \"#utility.yul\":14722:14728   */\n      dup3\n        /* \"#utility.yul\":14718:14732   */\n      add\n        /* \"#utility.yul\":14711:14756   */\n      mstore\n        /* \"#utility.yul\":14594:14763   */\n      pop\n      jump\t// out\n        /* \"#utility.yul\":14769:15135   */\n    tag_215:\n        /* \"#utility.yul\":14911:14914   */\n      0x00\n        /* \"#utility.yul\":14932:14999   */\n      tag_368\n        /* \"#utility.yul\":14996:14998   */\n      0x13\n        /* \"#utility.yul\":14991:14994   */\n      dup4\n        /* \"#utility.yul\":14932:14999   */\n      tag_183\n      jump\t// in\n    tag_368:\n        /* \"#utility.yul\":14925:14999   */\n      swap2\n      pop\n        /* \"#utility.yul\":15008:15101   */\n      tag_369\n        /* \"#utility.yul\":15097:15100   */\n      dup3\n        /* \"#utility.yul\":15008:15101   */\n      tag_214\n      jump\t// in\n    tag_369:\n        /* \"#utility.yul\":15126:15128   */\n      0x20\n        /* \"#utility.yul\":15121:15124   */\n      dup3\n        /* \"#utility.yul\":15117:15129   */\n      add\n        /* \"#utility.yul\":15110:15129   */\n      swap1\n      pop\n        /* \"#utility.yul\":14769:15135   */\n      swap2\n      swap1\n      pop\n      jump\t// out\n        /* \"#utility.yul\":15141:15560   */\n    tag_99:\n        /* \"#utility.yul\":15307:15311   */\n      0x00\n        /* \"#utility.yul\":15345:15347   */\n      0x20\n        /* \"#utility.yul\":15334:15343   */\n      dup3\n        /* \"#utility.yul\":15330:15348   */\n      add\n        /* \"#utility.yul\":15322:15348   */\n      swap1\n      pop\n        /* \"#utility.yul\":15394:15403   */\n      dup2\n        /* \"#utility.yul\":15388:15392   */\n      dup2\n        /* \"#utility.yul\":15384:15404   */\n      sub\n        /* \"#utility.yul\":15380:15381   */\n      0x00\n        /* \"#utility.yul\":15369:15378   */\n      dup4\n        /* \"#utility.yul\":15365:15382   */\n      add\n        /* \"#utility.yul\":15358:15405   */\n      mstore\n        /* \"#utility.yul\":15422:15553   */\n      tag_371\n        /* \"#utility.yul\":15548:15552   */\n      dup2\n        /* \"#utility.yul\":15422:15553   */\n      tag_215\n      jump\t// in\n    tag_371:\n        /* \"#utility.yul\":15414:15553   */\n      swap1\n      pop\n        /* \"#utility.yul\":15141:15560   */\n      swap2\n      swap1\n      pop\n      jump\t// out\n        /* \"#utility.yul\":15566:15733   */\n    tag_216:\n        /* \"#utility.yul\":15706:15725   */\n      0x416c72656164792077697468647261776e000000000000000000000000000000\n        /* \"#utility.yul\":15702:15703   */\n      0x00\n        /* \"#utility.yul\":15694:15700   */\n      dup3\n        /* \"#utility.yul\":15690:15704   */\n      add\n        /* \"#utility.yul\":15683:15726   */\n      mstore\n        /* \"#utility.yul\":15566:15733   */\n      pop\n      jump\t// out\n        /* \"#utility.yul\":15739:16105   */\n    tag_217:\n        /* \"#utility.yul\":15881:15884   */\n      0x00\n        /* \"#utility.yul\":15902:15969   */\n      tag_374\n        /* \"#utility.yul\":15966:15968   */\n      0x11\n        /* \"#utility.yul\":15961:15964   */\n      dup4\n        /* \"#utility.yul\":15902:15969   */\n      tag_183\n      jump\t// in\n    tag_374:\n        /* \"#utility.yul\":15895:15969   */\n      swap2\n      pop\n        /* \"#utility.yul\":15978:16071   */\n      tag_375\n        /* \"#utility.yul\":16067:16070   */\n      dup3\n        /* \"#utility.yul\":15978:16071   */\n      tag_216\n      jump\t// in\n    tag_375:\n        /* \"#utility.yul\":16096:16098   */\n      0x20\n        /* \"#utility.yul\":16091:16094   */\n      dup3\n        /* \"#utility.yul\":16087:16099   */\n      add\n        /* \"#utility.yul\":16080:16099   */\n      swap1\n      pop\n        /* \"#utility.yul\":15739:16105   */\n      swap2\n      swap1\n      pop\n      jump\t// out\n        /* \"#utility.yul\":16111:16530   */\n    tag_105:\n        /* \"#utility.yul\":16277:16281   */\n      0x00\n        /* \"#utility.yul\":16315:16317   */\n      0x20\n        /* \"#utility.yul\":16304:16313   */\n      dup3\n        /* \"#utility.yul\":16300:16318   */\n      add\n        /* \"#utility.yul\":16292:16318   */\n      swap1\n      pop\n        /* \"#utility.yul\":16364:16373   */\n      dup2\n        /* \"#utility.yul\":16358:16362   */\n      dup2\n        /* \"#utility.yul\":16354:16374   */\n      sub\n        /* \"#utility.yul\":16350:16351   */\n      0x00\n        /* \"#utility.yul\":16339:16348   */\n      dup4\n        /* \"#utility.yul\":16335:16352   */\n      add\n        /* \"#utility.yul\":16328:16375   */\n      mstore\n        /* \"#utility.yul\":16392:16523   */\n      tag_377\n        /* \"#utility.yul\":16518:16522   */\n      dup2\n        /* \"#utility.yul\":16392:16523   */\n      tag_217\n      jump\t// in\n    tag_377:\n        /* \"#utility.yul\":16384:16523   */\n      swap1\n      pop\n        /* \"#utility.yul\":16111:16530   */\n      swap2\n      swap1\n      pop\n      jump\t// out\n        /* \"#utility.yul\":16536:16702   */\n    tag_218:\n        /* \"#utility.yul\":16676:16694   */\n      0x476f616c206d757374206265203e203000000000000000000000000000000000\n        /* \"#utility.yul\":16672:16673   */\n      0x00\n        /* \"#utility.yul\":16664:16670   */\n      dup3\n        /* \"#utility.yul\":16660:16674   */\n      add\n        /* \"#utility.yul\":16653:16695   */\n      mstore\n        /* \"#utility.yul\":16536:16702   */\n      pop\n      jump\t// out\n        /* \"#utility.yul\":16708:17074   */\n    tag_219:\n        /* \"#utility.yul\":16850:16853   */\n      0x00\n        /* \"#utility.yul\":16871:16938   */\n      tag_380\n        /* \"#utility.yul\":16935:16937   */\n      0x10\n        /* \"#utility.yul\":16930:16933   */\n      dup4\n        /* \"#utility.yul\":16871:16938   */\n      tag_183\n      jump\t// in\n    tag_380:\n        /* \"#utility.yul\":16864:16938   */\n      swap2\n      pop\n        /* \"#utility.yul\":16947:17040   */\n      tag_381\n        /* \"#utility.yul\":17036:17039   */\n      dup3\n        /* \"#utility.yul\":16947:17040   */\n      tag_218\n      jump\t// in\n    tag_381:\n        /* \"#utility.yul\":17065:17067   */\n      0x20\n        /* \"#utility.yul\":17060:17063   */\n      dup3\n        /* \"#utility.yul\":17056:17068   */\n      add\n        /* \"#utility.yul\":17049:17068   */\n      swap1\n      pop\n        /* \"#utility.yul\":16708:17074   */\n      swap2\n      swap1\n      pop\n      jump\t// out\n        /* \"#utility.yul\":17080:17499   */\n    tag_123:\n        /* \"#utility.yul\":17246:17250   */\n      0x00\n        /* \"#utility.yul\":17284:17286   */\n      0x20\n        /* \"#utility.yul\":17273:17282   */\n      dup3\n        /* \"#utility.yul\":17269:17287   */\n      add\n        /* \"#utility.yul\":17261:17287   */\n      swap1\n      pop\n        /* \"#utility.yul\":17333:17342   */\n      dup2\n        /* \"#utility.yul\":17327:17331   */\n      dup2\n        /* \"#utility.yul\":17323:17343   */\n      sub\n        /* \"#utility.yul\":17319:17320   */\n      0x00\n        /* \"#utility.yul\":17308:17317   */\n      dup4\n        /* \"#utility.yul\":17304:17321   */\n      add\n        /* \"#utility.yul\":17297:17344   */\n      mstore\n        /* \"#utility.yul\":17361:17492   */\n      tag_383\n        /* \"#utility.yul\":17487:17491   */\n      dup2\n        /* \"#utility.yul\":17361:17492   */\n      tag_219\n      jump\t// in\n    tag_383:\n        /* \"#utility.yul\":17353:17492   */\n      swap1\n      pop\n        /* \"#utility.yul\":17080:17499   */\n      swap2\n      swap1\n      pop\n      jump\t// out\n        /* \"#utility.yul\":17505:17675   */\n    tag_220:\n        /* \"#utility.yul\":17645:17667   */\n      0x4475726174696f6e206d757374206265203e2030000000000000000000000000\n        /* \"#utility.yul\":17641:17642   */\n      0x00\n        /* \"#utility.yul\":17633:17639   */\n      dup3\n        /* \"#utility.yul\":17629:17643   */\n      add\n        /* \"#utility.yul\":17622:17668   */\n      mstore\n        /* \"#utility.yul\":17505:17675   */\n      pop\n      jump\t// out\n        /* \"#utility.yul\":17681:18047   */\n    tag_221:\n        /* \"#utility.yul\":17823:17826   */\n      0x00\n        /* \"#utility.yul\":17844:17911   */\n      tag_386\n        /* \"#utility.yul\":17908:17910   */\n      0x14\n        /* \"#utility.yul\":17903:17906   */\n      dup4\n        /* \"#utility.yul\":17844:17911   */\n      tag_183\n      jump\t// in\n    tag_386:\n        /* \"#utility.yul\":17837:17911   */\n      swap2\n      pop\n        /* \"#utility.yul\":17920:18013   */\n      tag_387\n        /* \"#utility.yul\":18009:18012   */\n      dup3\n        /* \"#utility.yul\":17920:18013   */\n      tag_220\n      jump\t// in\n    tag_387:\n        /* \"#utility.yul\":18038:18040   */\n      0x20\n        /* \"#utility.yul\":18033:18036   */\n      dup3\n        /* \"#utility.yul\":18029:18041   */\n      add\n        /* \"#utility.yul\":18022:18041   */\n      swap1\n      pop\n        /* \"#utility.yul\":17681:18047   */\n      swap2\n      swap1\n      pop\n      jump\t// out\n        /* \"#utility.yul\":18053:18472   */\n    tag_126:\n        /* \"#utility.yul\":18219:18223   */\n      0x00\n        /* \"#utility.yul\":18257:18259   */\n      0x20\n        /* \"#utility.yul\":18246:18255   */\n      dup3\n        /* \"#utility.yul\":18242:18260   */\n      add\n        /* \"#utility.yul\":18234:18260   */\n      swap1\n      pop\n        /* \"#utility.yul\":18306:18315   */\n      dup2\n        /* \"#utility.yul\":18300:18304   */\n      dup2\n        /* \"#utility.yul\":18296:18316   */\n      sub\n        /* \"#utility.yul\":18292:18293   */\n      0x00\n        /* \"#utility.yul\":18281:18290   */\n      dup4\n        /* \"#utility.yul\":18277:18294   */\n      add\n        /* \"#utility.yul\":18270:18317   */\n      mstore\n        /* \"#utility.yul\":18334:18465   */\n      tag_389\n        /* \"#utility.yul\":18460:18464   */\n      dup2\n        /* \"#utility.yul\":18334:18465   */\n      tag_221\n      jump\t// in\n    tag_389:\n        /* \"#utility.yul\":18326:18465   */\n      swap1\n      pop\n        /* \"#utility.yul\":18053:18472   */\n      swap2\n      swap1\n      pop\n      jump\t// out\n        /* \"#utility.yul\":18478:18658   */\n    tag_222:\n        /* \"#utility.yul\":18526:18603   */\n      0x4e487b7100000000000000000000000000000000000000000000000000000000\n        /* \"#utility.yul\":18523:18524   */\n      0x00\n        /* \"#utility.yul\":18516:18604   */\n      mstore\n        /* \"#utility.yul\":18623:18627   */\n      0x11\n        /* \"#utility.yul\":18620:18621   */\n      0x04\n        /* \"#utility.yul\":18613:18628   */\n      mstore\n        /* \"#utility.yul\":18647:18651   */\n      0x24\n        /* \"#utility.yul\":18644:18645   */\n      0x00\n        /* \"#utility.yul\":18637:18652   */\n      revert\n        /* \"#utility.yul\":18664:18855   */\n    tag_128:\n        /* \"#utility.yul\":18704:18707   */\n      0x00\n        /* \"#utility.yul\":18723:18743   */\n      tag_392\n        /* \"#utility.yul\":18741:18742   */\n      dup3\n        /* \"#utility.yul\":18723:18743   */\n      tag_176\n      jump\t// in\n    tag_392:\n        /* \"#utility.yul\":18718:18743   */\n      swap2\n      pop\n        /* \"#utility.yul\":18757:18777   */\n      tag_393\n        /* \"#utility.yul\":18775:18776   */\n      dup4\n        /* \"#utility.yul\":18757:18777   */\n      tag_176\n      jump\t// in\n    tag_393:\n        /* \"#utility.yul\":18752:18777   */\n      swap3\n      pop\n        /* \"#utility.yul\":18800:18801   */\n      dup3\n        /* \"#utility.yul\":18797:18798   */\n      dup3\n        /* \"#utility.yul\":18793:18802   */\n      add\n        /* \"#utility.yul\":18786:18802   */\n      swap1\n      pop\n        /* \"#utility.yul\":18821:18824   */\n      dup1\n        /* \"#utility.yul\":18818:18819   */\n      dup3\n        /* \"#utility.yul\":18815:18825   */\n      gt\n        /* \"#utility.yul\":18812:18848   */\n      iszero\n      tag_394\n      jumpi\n        /* \"#utility.yul\":18828:18846   */\n      tag_395\n      tag_222\n      jump\t// in\n    tag_395:\n        /* \"#utility.yul\":18812:18848   */\n    tag_394:\n        /* \"#utility.yul\":18664:18855   */\n      swap3\n      swap2\n      pop\n      pop\n      jump\t// out\n        /* \"#utility.yul\":18861:19002   */\n    tag_223:\n        /* \"#utility.yul\":18910:18914   */\n      0x00\n        /* \"#utility.yul\":18933:18936   */\n      dup2\n        /* \"#utility.yul\":18925:18936   */\n      swap1\n      pop\n        /* \"#utility.yul\":18956:18959   */\n      dup2\n        /* \"#utility.yul\":18953:18954   */\n      0x00\n        /* \"#utility.yul\":18946:18960   */\n      mstore\n        /* \"#utility.yul\":18990:18994   */\n      0x20\n        /* \"#utility.yul\":18987:18988   */\n      0x00\n        /* \"#utility.yul\":18977:18995   */\n      keccak256\n        /* \"#utility.yul\":18969:18995   */\n      swap1\n      pop\n        /* \"#utility.yul\":18861:19002   */\n      swap2\n      swap1\n      pop\n      jump\t// out\n        /* \"#utility.yul\":19008:19101   */\n    tag_224:\n        /* \"#utility.yul\":19045:19051   */\n      0x00\n        /* \"#utility.yul\":19092:19094   */\n      0x20\n        /* \"#utility.yul\":19087:19089   */\n      0x1f\n        /* \"#utility.yul\":19080:19085   */\n      dup4\n        /* \"#utility.yul\":19076:19090   */\n      add\n        /* \"#utility.yul\":19072:19095   */\n      div\n        /* \"#utility.yul\":19062:19095   */\n      swap1\n      pop\n        /* \"#utility.yul\":19008:19101   */\n      swap2\n      swap1\n      pop\n      jump\t// out\n        /* \"#utility.yul\":19107:19214   */\n    tag_225:\n        /* \"#utility.yul\":19151:19159   */\n      0x00\n        /* \"#utility.yul\":19201:19206   */\n      dup3\n        /* \"#utility.yul\":19195:19199   */\n      dup3\n        /* \"#utility.yul\":19191:19207   */\n      shl\n        /* \"#utility.yul\":19170:19207   */\n      swap1\n      pop\n        /* \"#utility.yul\":19107:19214   */\n      swap3\n      swap2\n      pop\n      pop\n      jump\t// out\n        /* \"#utility.yul\":19220:19613   */\n    tag_226:\n        /* \"#utility.yul\":19289:19295   */\n      0x00\n        /* \"#utility.yul\":19339:19340   */\n      0x08\n        /* \"#utility.yul\":19327:19337   */\n      dup4\n        /* \"#utility.yul\":19323:19341   */\n      mul\n        /* \"#utility.yul\":19362:19459   */\n      tag_400\n        /* \"#utility.yul\":19392:19458   */\n      0xffffffffffffffffffffffffffffffffffffffffffffffffffffffffffffffff\n        /* \"#utility.yul\":19381:19390   */\n      dup3\n        /* \"#utility.yul\":19362:19459   */\n      tag_225\n      jump\t// in\n    tag_400:\n        /* \"#utility.yul\":19480:19519   */\n      tag_401\n        /* \"#utility.yul\":19510:19518   */\n      dup7\n        /* \"#utility.yul\":19499:19508   */\n      dup4\n        /* \"#utility.yul\":19480:19519   */\n      tag_225\n      jump\t// in\n    tag_401:\n        /* \"#utility.yul\":19468:19519   */\n      swap6\n      pop\n        /* \"#utility.yul\":19552:19556   */\n      dup1\n        /* \"#utility.yul\":19548:19557   */\n      not\n        /* \"#utility.yul\":19541:19546   */\n      dup5\n        /* \"#utility.yul\":19537:19558   */\n      and\n        /* \"#utility.yul\":19528:19558   */\n      swap4\n      pop\n        /* \"#utility.yul\":19601:19605   */\n      dup1\n        /* \"#utility.yul\":19591:19599   */\n      dup7\n        /* \"#utility.yul\":19587:19606   */\n      and\n        /* \"#utility.yul\":19580:19585   */\n      dup5\n        /* \"#utility.yul\":19577:19607   */\n      or\n        /* \"#utility.yul\":19567:19607   */\n      swap3\n      pop\n        /* \"#utility.yul\":19296:19613   */\n      pop\n      pop\n        /* \"#utility.yul\":19220:19613   */\n      swap4\n      swap3\n      pop\n      pop\n      pop\n      jump\t// out\n        /* \"#utility.yul\":19619:19679   */\n    tag_227:\n        /* \"#utility.yul\":19647:19650   */\n      0x00\n        /* \"#utility.yul\":19668:19673   */\n      dup2\n        /* \"#utility.yul\":19661:19673   */\n      swap1\n      pop\n        /* \"#utility.yul\":19619:19679   */\n      swap2\n      swap1\n      pop\n      jump\t// out\n        /* \"#utility.yul\":19685:19827   */\n    tag_228:\n        /* \"#utility.yul\":19735:19744   */\n      0x00\n        /* \"#utility.yul\":19768:19821   */\n      tag_404\n        /* \"#utility.yul\":19786:19820   */\n      tag_405\n        /* \"#utility.yul\":19795:19819   */\n      tag_406\n        /* \"#utility.yul\":19813:19818   */\n      dup5\n        /* \"#utility.yul\":19795:19819   */\n      tag_176\n      jump\t// in\n    tag_406:\n        /* \"#utility.yul\":19786:19820   */\n      tag_227\n      jump\t// in\n    tag_405:\n        /* \"#utility.yul\":19768:19821   */\n      tag_176\n      jump\t// in\n    tag_404:\n        /* \"#utility.yul\":19755:19821   */\n      swap1\n      pop\n        /* \"#utility.yul\":19685:19827   */\n      swap2\n      swap1\n      pop\n      jump\t// out\n        /* \"#utility.yul\":19833:19908   */\n    tag_229:\n        /* \"#utility.yul\":19876:19879   */\n      0x00\n        /* \"#utility.yul\":19897:19902   */\n      dup2\n        /* \"#utility.yul\":19890:19902   */\n      swap1\n      pop\n        /* \"#utility.yul\":19833:19908   */\n      swap2\n      swap1\n      pop\n      jump\t// out\n        /* \"#utility.yul\":19914:20183   */\n    tag_230:\n        /* \"#utility.yul\":20024:20063   */\n      tag_409\n        /* \"#utility.yul\":20055:20062   */\n      dup4\n        /* \"#utility.yul\":20024:20063   */\n      tag_228\n      jump\t// in\n    tag_409:\n        /* \"#utility.yul\":20085:20176   */\n      tag_410\n        /* \"#utility.yul\":20134:20175   */\n      tag_411\n        /* \"#utility.yul\":20158:20174   */\n      dup3\n        /* \"#utility.yul\":20134:20175   */\n      tag_229\n      jump\t// in\n    tag_411:\n        /* \"#utility.yul\":20126:20132   */\n      dup5\n        /* \"#utility.yul\":20119:20123   */\n      dup5\n        /* \"#utility.yul\":20113:20124   */\n      sload\n        /* \"#utility.yul\":20085:20176   */\n      tag_226\n      jump\t// in\n    tag_410:\n        /* \"#utility.yul\":20079:20083   */\n      dup3\n        /* \"#utility.yul\":20072:20177   */\n      sstore\n        /* \"#utility.yul\":19990:20183   */\n      pop\n        /* \"#utility.yul\":19914:20183   */\n      pop\n      pop\n      pop\n      jump\t// out\n        /* \"#utility.yul\":20189:20262   */\n    tag_231:\n        /* \"#utility.yul\":20234:20237   */\n      0x00\n        /* \"#utility.yul\":20189:20262   */\n      swap1\n      jump\t// out\n        /* \"#utility.yul\":20268:20457   */\n    tag_232:\n        /* \"#utility.yul\":20345:20377   */\n      tag_414\n      tag_231\n      jump\t// in\n    tag_414:\n        /* \"#utility.yul\":20386:20451   */\n      tag_415\n        /* \"#utility.yul\":20444:20450   */\n      dup2\n        /* \"#utility.yul\":20436:20442   */\n      dup5\n        /* \"#utility.yul\":20430:20434   */\n      dup5\n        /* \"#utility.yul\":20386:20451   */\n      tag_230\n      jump\t// in\n    tag_415:\n        /* \"#utility.yul\":20321:20457   */\n      pop\n        /* \"#utility.yul\":20268:20457   */\n      pop\n      pop\n      jump\t// out\n        /* \"#utility.yul\":20463:20649   */\n    tag_233:\n        /* \"#utility.yul\":20523:20643   */\n    tag_417:\n        /* \"#utility.yul\":20540:20543   */\n      dup2\n        /* \"#utility.yul\":20533:20538   */\n      dup2\n        /* \"#utility.yul\":20530:20544   */\n      lt\n        /* \"#utility.yul\":20523:20643   */\n      iszero\n      tag_419\n      jumpi\n        /* \"#utility.yul\":20594:20633   */\n      tag_420\n        /* \"#utility.yul\":20631:20632   */\n      0x00\n        /* \"#utility.yul\":20624:20629   */\n      dup3\n        /* \"#utility.yul\":20594:20633   */\n      tag_232\n      jump\t// in\n    tag_420:\n        /* \"#utility.yul\":20567:20568   */\n      0x01\n        /* \"#utility.yul\":20560:20565   */\n      dup2\n        /* \"#utility.yul\":20556:20569   */\n      add\n        /* \"#utility.yul\":20547:20569   */\n      swap1\n      pop\n        /* \"#utility.yul\":20523:20643   */\n      jump(tag_417)\n    tag_419:\n        /* \"#utility.yul\":20463:20649   */\n      pop\n      pop\n      jump\t// out\n        /* \"#utility.yul\":20655:21198   */\n    tag_234:\n        /* \"#utility.yul\":20756:20758   */\n      0x1f\n        /* \"#utility.yul\":20751:20754   */\n      dup3\n        /* \"#utility.yul\":20748:20759   */\n      gt\n        /* \"#utility.yul\":20745:21191   */\n      iszero\n      tag_422\n      jumpi\n        /* \"#utility.yul\":20790:20828   */\n      tag_423\n        /* \"#utility.yul\":20822:20827   */\n      dup2\n        /* \"#utility.yul\":20790:20828   */\n      tag_223\n      jump\t// in\n    tag_423:\n        /* \"#utility.yul\":20874:20903   */\n      tag_424\n        /* \"#utility.yul\":20892:20902   */\n      dup5\n        /* \"#utility.yul\":20874:20903   */\n      tag_224\n      jump\t// in\n    tag_424:\n        /* \"#utility.yul\":20864:20872   */\n      dup2\n        /* \"#utility.yul\":20860:20904   */\n      add\n        /* \"#utility.yul\":21057:21059   */\n      0x20\n        /* \"#utility.yul\":21045:21055   */\n      dup6\n        /* \"#utility.yul\":21042:21060   */\n      lt\n        /* \"#utility.yul\":21039:21088   */\n      iszero\n      tag_425\n      jumpi\n        /* \"#utility.yul\":21078:21086   */\n      dup2\n        /* \"#utility.yul\":21063:21086   */\n      swap1\n      pop\n        /* \"#utility.yul\":21039:21088   */\n    tag_425:\n        /* \"#utility.yul\":21101:21181   */\n      tag_426\n        /* \"#utility.yul\":21157:21179   */\n      tag_427\n        /* \"#utility.yul\":21175:21178   */\n      dup6\n        /* \"#utility.yul\":21157:21179   */\n      tag_224\n      jump\t// in\n    tag_427:\n        /* \"#utility.yul\":21147:21155   */\n      dup4\n        /* \"#utility.yul\":21143:21180   */\n      add\n        /* \"#utility.yul\":21130:21141   */\n      dup3\n        /* \"#utility.yul\":21101:21181   */\n      tag_233\n      jump\t// in\n    tag_426:\n        /* \"#utility.yul\":20760:21191   */\n      pop\n      pop\n        /* \"#utility.yul\":20745:21191   */\n    tag_422:\n        /* \"#utility.yul\":20655:21198   */\n      pop\n      pop\n      pop\n      jump\t// out\n        /* \"#utility.yul\":21204:21321   */\n    tag_235:\n        /* \"#utility.yul\":21258:21266   */\n      0x00\n        /* \"#utility.yul\":21308:21313   */\n      dup3\n        /* \"#utility.yul\":21302:21306   */\n      dup3\n        /* \"#utility.yul\":21298:21314   */\n      shr\n        /* \"#utility.yul\":21277:21314   */\n      swap1\n      pop\n        /* \"#utility.yul\":21204:21321   */\n      swap3\n      swap2\n      pop\n      pop\n      jump\t// out\n        /* \"#utility.yul\":21327:21496   */\n    tag_236:\n        /* \"#utility.yul\":21371:21377   */\n      0x00\n        /* \"#utility.yul\":21404:21455   */\n      tag_430\n        /* \"#utility.yul\":21452:21453   */\n      0x00\n        /* \"#utility.yul\":21448:21454   */\n      not\n        /* \"#utility.yul\":21440:21445   */\n      dup5\n        /* \"#utility.yul\":21437:21438   */\n      0x08\n        /* \"#utility.yul\":21433:21446   */\n      mul\n        /* \"#utility.yul\":21404:21455   */\n      tag_235\n      jump\t// in\n    tag_430:\n        /* \"#utility.yul\":21400:21456   */\n      not\n        /* \"#utility.yul\":21485:21489   */\n      dup1\n        /* \"#utility.yul\":21479:21483   */\n      dup4\n        /* \"#utility.yul\":21475:21490   */\n      and\n        /* \"#utility.yul\":21465:21490   */\n      swap2\n      pop\n        /* \"#utility.yul\":21378:21496   */\n      pop\n        /* \"#utility.yul\":21327:21496   */\n      swap3\n      swap2\n      pop\n      pop\n      jump\t// out\n        /* \"#utility.yul\":21501:21796   */\n    tag_237:\n        /* \"#utility.yul\":21577:21581   */\n      0x00\n        /* \"#utility.yul\":21723:21752   */\n      tag_432\n        /* \"#utility.yul\":21748:21751   */\n      dup4\n        /* \"#utility.yul\":21742:21746   */\n      dup4\n        /* \"#utility.yul\":21723:21752   */\n      tag_236\n      jump\t// in\n    tag_432:\n        /* \"#utility.yul\":21715:21752   */\n      swap2\n      pop\n        /* \"#utility.yul\":21785:21788   */\n      dup3\n        /* \"#utility.yul\":21782:21783   */\n      0x02\n        /* \"#utility.yul\":21778:21789   */\n      mul\n        /* \"#utility.yul\":21772:21776   */\n      dup3\n        /* \"#utility.yul\":21769:21790   */\n      or\n        /* \"#utility.yul\":21761:21790   */\n      swap1\n      pop\n        /* \"#utility.yul\":21501:21796   */\n      swap3\n      swap2\n      pop\n      pop\n      jump\t// out\n        /* \"#utility.yul\":21801:23196   */\n    tag_131:\n        /* \"#utility.yul\":21918:21955   */\n      tag_434\n        /* \"#utility.yul\":21951:21954   */\n      dup3\n        /* \"#utility.yul\":21918:21955   */\n      tag_182\n      jump\t// in\n    tag_434:\n        /* \"#utility.yul\":22020:22038   */\n      0xffffffffffffffff\n        /* \"#utility.yul\":22012:22018   */\n      dup2\n        /* \"#utility.yul\":22009:22039   */\n      gt\n        /* \"#utility.yul\":22006:22062   */\n      iszero\n      tag_435\n      jumpi\n        /* \"#utility.yul\":22042:22060   */\n      tag_436\n      tag_192\n      jump\t// in\n    tag_436:\n        /* \"#utility.yul\":22006:22062   */\n    tag_435:\n        /* \"#utility.yul\":22086:22124   */\n      tag_437\n        /* \"#utility.yul\":22118:22122   */\n      dup3\n        /* \"#utility.yul\":22112:22123   */\n      sload\n        /* \"#utility.yul\":22086:22124   */\n      tag_67\n      jump\t// in\n    tag_437:\n        /* \"#utility.yul\":22171:22238   */\n      tag_438\n        /* \"#utility.yul\":22231:22237   */\n      dup3\n        /* \"#utility.yul\":22223:22229   */\n      dup3\n        /* \"#utility.yul\":22217:22221   */\n      dup6\n        /* \"#utility.yul\":22171:22238   */\n      tag_234\n      jump\t// in\n    tag_438:\n        /* \"#utility.yul\":22265:22266   */\n      0x00\n        /* \"#utility.yul\":22289:22293   */\n      0x20\n        /* \"#utility.yul\":22276:22293   */\n      swap1\n      pop\n        /* \"#utility.yul\":22321:22323   */\n      0x1f\n        /* \"#utility.yul\":22313:22319   */\n      dup4\n        /* \"#utility.yul\":22310:22324   */\n      gt\n        /* \"#utility.yul\":22338:22339   */\n      0x01\n        /* \"#utility.yul\":22333:22951   */\n      dup2\n      eq\n      tag_440\n      jumpi\n        /* \"#utility.yul\":22995:22996   */\n      0x00\n        /* \"#utility.yul\":23012:23018   */\n      dup5\n        /* \"#utility.yul\":23009:23086   */\n      iszero\n      tag_441\n      jumpi\n        /* \"#utility.yul\":23061:23070   */\n      dup3\n        /* \"#utility.yul\":23056:23059   */\n      dup8\n        /* \"#utility.yul\":23052:23071   */\n      add\n        /* \"#utility.yul\":23046:23072   */\n      mload\n        /* \"#utility.yul\":23037:23072   */\n      swap1\n      pop\n        /* \"#utility.yul\":23009:23086   */\n    tag_441:\n        /* \"#utility.yul\":23112:23179   */\n      tag_442\n        /* \"#utility.yul\":23172:23178   */\n      dup6\n        /* \"#utility.yul\":23165:23170   */\n      dup3\n        /* \"#utility.yul\":23112:23179   */\n      tag_237\n      jump\t// in\n    tag_442:\n        /* \"#utility.yul\":23106:23110   */\n      dup7\n        /* \"#utility.yul\":23099:23180   */\n      sstore\n        /* \"#utility.yul\":22968:23190   */\n      pop\n        /* \"#utility.yul\":22303:23190   */\n      jump(tag_439)\n        /* \"#utility.yul\":22333:22951   */\n    tag_440:\n        /* \"#utility.yul\":22385:22389   */\n      0x1f\n        /* \"#utility.yul\":22381:22390   */\n      not\n        /* \"#utility.yul\":22373:22379   */\n      dup5\n        /* \"#utility.yul\":22369:22391   */\n      and\n        /* \"#utility.yul\":22419:22456   */\n      tag_443\n        /* \"#utility.yul\":22451:22455   */\n      dup7\n        /* \"#utility.yul\":22419:22456   */\n      tag_223\n      jump\t// in\n    tag_443:\n        /* \"#utility.yul\":22478:22479   */\n      0x00\n        /* \"#utility.yul\":22492:22700   */\n    tag_444:\n        /* \"#utility.yul\":22506:22513   */\n      dup3\n        /* \"#utility.yul\":22503:22504   */\n      dup2\n        /* \"#utility.yul\":22500:22514   */\n      lt\n        /* \"#utility.yul\":22492:22700   */\n      iszero\n      tag_446\n      jumpi\n        /* \"#utility.yul\":22585:22594   */\n      dup5\n        /* \"#utility.yul\":22580:22583   */\n      dup10\n        /* \"#utility.yul\":22576:22595   */\n      add\n        /* \"#utility.yul\":22570:22596   */\n      mload\n        /* \"#utility.yul\":22562:22568   */\n      dup3\n        /* \"#utility.yul\":22555:22597   */\n      sstore\n        /* \"#utility.yul\":22636:22637   */\n      0x01\n        /* \"#utility.yul\":22628:22634   */\n      dup3\n        /* \"#utility.yul\":22624:22638   */\n      add\n        /* \"#utility.yul\":22614:22638   */\n      swap2\n      pop\n        /* \"#utility.yul\":22683:22685   */\n      0x20\n        /* \"#utility.yul\":22672:22681   */\n      dup6\n        /* \"#utility.yul\":22668:22686   */\n      add\n        /* \"#utility.yul\":22655:22686   */\n      swap5\n      pop\n        /* \"#utility.yul\":22529:22533   */\n      0x20\n        /* \"#utility.yul\":22526:22527   */\n      dup2\n        /* \"#utility.yul\":22522:22534   */\n      add\n        /* \"#utility.yul\":22517:22534   */\n      swap1\n      pop\n        /* \"#utility.yul\":22492:22700   */\n      jump(tag_444)\n    tag_446:\n        /* \"#utility.yul\":22728:22734   */\n      dup7\n        /* \"#utility.yul\":22719:22726   */\n      dup4\n        /* \"#utility.yul\":22716:22735   */\n      lt\n        /* \"#utility.yul\":22713:22892   */\n      iszero\n      tag_447\n      jumpi\n        /* \"#utility.yul\":22786:22795   */\n      dup5\n        /* \"#utility.yul\":22781:22784   */\n      dup10\n        /* \"#utility.yul\":22777:22796   */\n      add\n        /* \"#utility.yul\":22771:22797   */\n      mload\n        /* \"#utility.yul\":22829:22877   */\n      tag_448\n        /* \"#utility.yul\":22871:22875   */\n      0x1f\n        /* \"#utility.yul\":22863:22869   */\n      dup10\n        /* \"#utility.yul\":22859:22876   */\n      and\n        /* \"#utility.yul\":22848:22857   */\n      dup3\n        /* \"#utility.yul\":22829:22877   */\n      tag_236\n      jump\t// in\n    tag_448:\n        /* \"#utility.yul\":22821:22827   */\n      dup4\n        /* \"#utility.yul\":22814:22878   */\n      sstore\n        /* \"#utility.yul\":22736:22892   */\n      pop\n        /* \"#utility.yul\":22713:22892   */\n    tag_447:\n        /* \"#utility.yul\":22938:22939   */\n      0x01\n        /* \"#utility.yul\":22934:22935   */\n      0x02\n        /* \"#utility.yul\":22926:22932   */\n      dup9\n        /* \"#utility.yul\":22922:22936   */\n      mul\n        /* \"#utility.yul\":22918:22940   */\n      add\n        /* \"#utility.yul\":22912:22916   */\n      dup9\n        /* \"#utility.yul\":22905:22941   */\n      sstore\n        /* \"#utility.yul\":22340:22951   */\n      pop\n      pop\n      pop\n        /* \"#utility.yul\":22303:23190   */\n    tag_439:\n      pop\n        /* \"#utility.yul\":21893:23196   */\n      pop\n      pop\n      pop\n        /* \"#utility.yul\":21801:23196   */\n      pop\n      pop\n      jump\t// out\n        /* \"#utility.yul\":23202:23376   */\n    tag_238:\n        /* \"#utility.yul\":23342:23368   */\n      0x436f6e747269627574696f6e206d757374206265203e20300000000000000000\n        /* \"#utility.yul\":23338:23339   */\n      0x00\n        /* \"#utility.yul\":23330:23336   */\n      dup3\n        /* \"#utility.yul\":23326:23340   */\n      add\n        /* \"#utility.yul\":23319:23369   */\n      mstore\n        /* \"#utility.yul\":23202:23376   */\n      pop\n      jump\t// out\n        /* \"#utility.yul\":23382:23748   */\n    tag_239:\n        /* \"#utility.yul\":23524:23527   */\n      0x00\n        /* \"#utility.yul\":23545:23612   */\n      tag_451\n        /* \"#utility.yul\":23609:23611   */\n      0x18\n        /* \"#utility.yul\":23604:23607   */\n      dup4\n        /* \"#utility.yul\":23545:23612   */\n      tag_183\n      jump\t// in\n    tag_451:\n        /* \"#utility.yul\":23538:23612   */\n      swap2\n      pop\n        /* \"#utility.yul\":23621:23714   */\n      tag_452\n        /* \"#utility.yul\":23710:23713   */\n      dup3\n        /* \"#utility.yul\":23621:23714   */\n      tag_238\n      jump\t// in\n    tag_452:\n        /* \"#utility.yul\":23739:23741   */\n      0x20\n        /* \"#utility.yul\":23734:23737   */\n      dup3\n        /* \"#utility.yul\":23730:23742   */\n      add\n        /* \"#utility.yul\":23723:23742   */\n      swap1\n      pop\n        /* \"#utility.yul\":23382:23748   */\n      swap2\n      swap1\n      pop\n      jump\t// out\n        /* \"#utility.yul\":23754:24173   */\n    tag_150:\n        /* \"#utility.yul\":23920:23924   */\n      0x00\n        /* \"#utility.yul\":23958:23960   */\n      0x20\n        /* \"#utility.yul\":23947:23956   */\n      dup3\n        /* \"#utility.yul\":23943:23961   */\n      add\n        /* \"#utility.yul\":23935:23961   */\n      swap1\n      pop\n        /* \"#utility.yul\":24007:24016   */\n      dup2\n        /* \"#utility.yul\":24001:24005   */\n      dup2\n        /* \"#utility.yul\":23997:24017   */\n      sub\n        /* \"#utility.yul\":23993:23994   */\n      0x00\n        /* \"#utility.yul\":23982:23991   */\n      dup4\n        /* \"#utility.yul\":23978:23995   */\n      add\n        /* \"#utility.yul\":23971:24018   */\n      mstore\n        /* \"#utility.yul\":24035:24166   */\n      tag_454\n        /* \"#utility.yul\":24161:24165   */\n      dup2\n        /* \"#utility.yul\":24035:24166   */\n      tag_239\n      jump\t// in\n    tag_454:\n        /* \"#utility.yul\":24027:24166   */\n      swap1\n      pop\n        /* \"#utility.yul\":23754:24173   */\n      swap2\n      swap1\n      pop\n      jump\t// out\n\n    auxdata: 0xa26469706673582212203fae3aed5781fa2ef2bb8f74e633d335a7fa65936446313b33a941d0a33a51d564736f6c634300081a0033\n}\n",
				"bytecode": {
					"linkReferences": {},
					"object": "6080604052348015600e575f80fd5b506118dc8061001c5f395ff3fe608060405260043610610049575f3560e01c80630b008fd01461004d578063141961bc14610069578063155dd5ee146100ac578063a318f269146100c8578063c1cbbca7146100f0575b5f80fd5b61006760048036038101906100629190610d1b565b61010c565b005b348015610074575f80fd5b5061008f600480360381019061008a9190610d1b565b6103dc565b6040516100a3989796959493929190610e1e565b60405180910390f35b6100c660048036038101906100c19190610d1b565b610572565b005b3480156100d3575f80fd5b506100ee60048036038101906100e99190610fd4565b6108bc565b005b61010a60048036038101906101059190610d1b565b610a09565b005b805f805490508110610153576040517f08c379a000000000000000000000000000000000000000000000000000000000815260040161014a906110ba565b60405180910390fd5b815f8181548110610167576101666110d8565b5b905f5260205f20906008020160060160019054906101000a900460ff16156101c4576040517f08c379a00000000000000000000000000000000000000000000000000000000081526004016101bb9061114f565b60405180910390fd5b5f81815481106101d7576101d66110d8565b5b905f5260205f209060080201600501544210610228576040517f08c379a000000000000000000000000000000000000000000000000000000000815260040161021f906111b7565b60405180910390fd5b5f838154811061023b5761023a6110d8565b5b905f5260205f2090600802016005015442101561028d576040517f08c379a00000000000000000000000000000000000000000000000000000000081526004016102849061121f565b60405180910390fd5b5f8084815481106102a1576102a06110d8565b5b905f5260205f2090600802016007015f3373ffffffffffffffffffffffffffffffffffffffff1673ffffffffffffffffffffffffffffffffffffffff1681526020019081526020015f205490505f8111610330576040517f08c379a000000000000000000000000000000000000000000000000000000000815260040161032790611287565b60405180910390fd5b5f808581548110610344576103436110d8565b5b905f5260205f2090600802016007015f3373ffffffffffffffffffffffffffffffffffffffff1673ffffffffffffffffffffffffffffffffffffffff1681526020019081526020015f20819055503373ffffffffffffffffffffffffffffffffffffffff166108fc8290811502906040515f60405180830381858888f193505050501580156103d5573d5f803e3d5ffd5b5050505050565b5f81815481106103ea575f80fd5b905f5260205f2090600802015f91509050805f015f9054906101000a900473ffffffffffffffffffffffffffffffffffffffff169080600101805461042e906112d2565b80601f016020809104026020016040519081016040528092919081815260200182805461045a906112d2565b80156104a55780601f1061047c576101008083540402835291602001916104a5565b820191905f5260205f20905b81548152906001019060200180831161048857829003601f168201915b5050505050908060020180546104ba906112d2565b80601f01602080910402602001604051908101604052809291908181526020018280546104e6906112d2565b80156105315780601f1061050857610100808354040283529160200191610531565b820191905f5260205f20905b81548152906001019060200180831161051457829003601f168201915b505050505090806003015490806004015490806005015490806006015f9054906101000a900460ff16908060060160019054906101000a900460ff16905088565b805f8054905081106105b9576040517f08c379a00000000000000000000000000000000000000000000000000000000081526004016105b0906110ba565b60405180910390fd5b813373ffffffffffffffffffffffffffffffffffffffff165f82815481106105e4576105e36110d8565b5b905f5260205f2090600802015f015f9054906101000a900473ffffffffffffffffffffffffffffffffffffffff1673ffffffffffffffffffffffffffffffffffffffff1614610668576040517f08c379a000000000000000000000000000000000000000000000000000000000815260040161065f9061134c565b60405180910390fd5b5f838154811061067b5761067a6110d8565b5b905f5260205f2090600802016006015f9054906101000a900460ff166106d6576040517f08c379a00000000000000000000000000000000000000000000000000000000081526004016106cd906113b4565b60405180910390fd5b5f83815481106106e9576106e86110d8565b5b905f5260205f2090600802016005015442101561073b576040517f08c379a00000000000000000000000000000000000000000000000000000000081526004016107329061141c565b60405180910390fd5b5f838154811061074e5761074d6110d8565b5b905f5260205f20906008020160060160019054906101000a900460ff16156107ab576040517f08c379a00000000000000000000000000000000000000000000000000000000081526004016107a290611484565b60405180910390fd5b5f8084815481106107bf576107be6110d8565b5b905f5260205f2090600802016004015490505f8085815481106107e5576107e46110d8565b5b905f5260205f209060080201600401819055505f80858154811061080c5761080b6110d8565b5b905f5260205f20906008020160060160016101000a81548160ff0219169083151502179055505f8481548110610845576108446110d8565b5b905f5260205f2090600802015f015f9054906101000a900473ffffffffffffffffffffffffffffffffffffffff1673ffffffffffffffffffffffffffffffffffffffff166108fc8290811502906040515f60405180830381858888f193505050501580156108b5573d5f803e3d5ffd5b5050505050565b5f81116108fe576040517f08c379a00000000000000000000000000000000000000000000000000000000081526004016108f5906114ec565b60405180910390fd5b5f8211610940576040517f08c379a000000000000000000000000000000000000000000000000000000000815260040161093790611554565b60405180910390fd5b5f824261094d919061159f565b90505f8060018160018154018082558091505003905f5260205f209060080201905033815f015f6101000a81548173ffffffffffffffffffffffffffffffffffffffff021916908373ffffffffffffffffffffffffffffffffffffffff160217905550858160010190816109c1919061176f565b50848160020190816109d3919061176f565b508281600301819055508181600501819055505f816006015f6101000a81548160ff021916908315150217905550505050505050565b805f805490508110610a50576040517f08c379a0000000000000000000000000000000000000000000000000000000008152600401610a47906110ba565b60405180910390fd5b815f8181548110610a6457610a636110d8565b5b905f5260205f20906008020160060160019054906101000a900460ff1615610ac1576040517f08c379a0000000000000000000000000000000000000000000000000000000008152600401610ab89061114f565b60405180910390fd5b5f8181548110610ad457610ad36110d8565b5b905f5260205f209060080201600501544210610b25576040517f08c379a0000000000000000000000000000000000000000000000000000000008152600401610b1c906111b7565b60405180910390fd5b5f3411610b67576040517f08c379a0000000000000000000000000000000000000000000000000000000008152600401610b5e90611888565b60405180910390fd5b345f8481548110610b7b57610b7a6110d8565b5b905f5260205f2090600802016007015f3373ffffffffffffffffffffffffffffffffffffffff1673ffffffffffffffffffffffffffffffffffffffff1681526020019081526020015f205f828254610bd3919061159f565b92505081905550345f8481548110610bee57610bed6110d8565b5b905f5260205f2090600802016004015f828254610c0b919061159f565b925050819055505f8381548110610c2557610c246110d8565b5b905f5260205f209060080201600301545f8481548110610c4857610c476110d8565b5b905f5260205f2090600802016004015410158015610c9257505f8381548110610c7457610c736110d8565b5b905f5260205f2090600802016006015f9054906101000a900460ff16155b15610cd25760015f8481548110610cac57610cab6110d8565b5b905f5260205f2090600802016006015f6101000a81548160ff0219169083151502179055505b505050565b5f604051905090565b5f80fd5b5f80fd5b5f819050919050565b610cfa81610ce8565b8114610d04575f80fd5b50565b5f81359050610d1581610cf1565b92915050565b5f60208284031215610d3057610d2f610ce0565b5b5f610d3d84828501610d07565b91505092915050565b5f73ffffffffffffffffffffffffffffffffffffffff82169050919050565b5f610d6f82610d46565b9050919050565b610d7f81610d65565b82525050565b5f81519050919050565b5f82825260208201905092915050565b8281835e5f83830152505050565b5f601f19601f8301169050919050565b5f610dc782610d85565b610dd18185610d8f565b9350610de1818560208601610d9f565b610dea81610dad565b840191505092915050565b610dfe81610ce8565b82525050565b5f8115159050919050565b610e1881610e04565b82525050565b5f61010082019050610e325f83018b610d76565b8181036020830152610e44818a610dbd565b90508181036040830152610e588189610dbd565b9050610e676060830188610df5565b610e746080830187610df5565b610e8160a0830186610df5565b610e8e60c0830185610e0f565b610e9b60e0830184610e0f565b9998505050505050505050565b5f80fd5b5f80fd5b7f4e487b71000000000000000000000000000000000000000000000000000000005f52604160045260245ffd5b610ee682610dad565b810181811067ffffffffffffffff82111715610f0557610f04610eb0565b5b80604052505050565b5f610f17610cd7565b9050610f238282610edd565b919050565b5f67ffffffffffffffff821115610f4257610f41610eb0565b5b610f4b82610dad565b9050602081019050919050565b828183375f83830152505050565b5f610f78610f7384610f28565b610f0e565b905082815260208101848484011115610f9457610f93610eac565b5b610f9f848285610f58565b509392505050565b5f82601f830112610fbb57610fba610ea8565b5b8135610fcb848260208601610f66565b91505092915050565b5f805f8060808587031215610fec57610feb610ce0565b5b5f85013567ffffffffffffffff81111561100957611008610ce4565b5b61101587828801610fa7565b945050602085013567ffffffffffffffff81111561103657611035610ce4565b5b61104287828801610fa7565b935050604061105387828801610d07565b925050606061106487828801610d07565b91505092959194509250565b7f496e76616c69642063616d706169676e204944000000000000000000000000005f82015250565b5f6110a4601383610d8f565b91506110af82611070565b602082019050919050565b5f6020820190508181035f8301526110d181611098565b9050919050565b7f4e487b71000000000000000000000000000000000000000000000000000000005f52603260045260245ffd5b7f43616d706169676e20636c6f73656400000000000000000000000000000000005f82015250565b5f611139600f83610d8f565b915061114482611105565b602082019050919050565b5f6020820190508181035f8301526111668161112d565b9050919050565b7f43616d706169676e20656e6465640000000000000000000000000000000000005f82015250565b5f6111a1600e83610d8f565b91506111ac8261116d565b602082019050919050565b5f6020820190508181035f8301526111ce81611195565b9050919050565b7f43616d706169676e206e6f7420656e64656400000000000000000000000000005f82015250565b5f611209601283610d8f565b9150611214826111d5565b602082019050919050565b5f6020820190508181035f830152611236816111fd565b9050919050565b7f4e6f20636f6e747269627574696f6e7320746f207769746864726177000000005f82015250565b5f611271601c83610d8f565b915061127c8261123d565b602082019050919050565b5f6020820190508181035f83015261129e81611265565b9050919050565b7f4e487b71000000000000000000000000000000000000000000000000000000005f52602260045260245ffd5b5f60028204905060018216806112e957607f821691505b6020821081036112fc576112fb6112a5565b5b50919050565b7f556e617574686f72697a656400000000000000000000000000000000000000005f82015250565b5f611336600c83610d8f565b915061134182611302565b602082019050919050565b5f6020820190508181035f8301526113638161132a565b9050919050565b7f476f616c206e6f742072656163686564000000000000000000000000000000005f82015250565b5f61139e601083610d8f565b91506113a98261136a565b602082019050919050565b5f6020820190508181035f8301526113cb81611392565b9050919050565b7f446561646c696e65206e6f7420706173736564000000000000000000000000005f82015250565b5f611406601383610d8f565b9150611411826113d2565b602082019050919050565b5f6020820190508181035f830152611433816113fa565b9050919050565b7f416c72656164792077697468647261776e0000000000000000000000000000005f82015250565b5f61146e601183610d8f565b91506114798261143a565b602082019050919050565b5f6020820190508181035f83015261149b81611462565b9050919050565b7f476f616c206d757374206265203e2030000000000000000000000000000000005f82015250565b5f6114d6601083610d8f565b91506114e1826114a2565b602082019050919050565b5f6020820190508181035f830152611503816114ca565b9050919050565b7f4475726174696f6e206d757374206265203e20300000000000000000000000005f82015250565b5f61153e601483610d8f565b91506115498261150a565b602082019050919050565b5f6020820190508181035f83015261156b81611532565b9050919050565b7f4e487b71000000000000000000000000000000000000000000000000000000005f52601160045260245ffd5b5f6115a982610ce8565b91506115b483610ce8565b92508282019050808211156115cc576115cb611572565b5b92915050565b5f819050815f5260205f209050919050565b5f6020601f8301049050919050565b5f82821b905092915050565b5f6008830261162e7fffffffffffffffffffffffffffffffffffffffffffffffffffffffffffffffff826115f3565b61163886836115f3565b95508019841693508086168417925050509392505050565b5f819050919050565b5f61167361166e61166984610ce8565b611650565b610ce8565b9050919050565b5f819050919050565b61168c83611659565b6116a06116988261167a565b8484546115ff565b825550505050565b5f90565b6116b46116a8565b6116bf818484611683565b505050565b5b818110156116e2576116d75f826116ac565b6001810190506116c5565b5050565b601f821115611727576116f8816115d2565b611701846115e4565b81016020851015611710578190505b61172461171c856115e4565b8301826116c4565b50505b505050565b5f82821c905092915050565b5f6117475f198460080261172c565b1980831691505092915050565b5f61175f8383611738565b9150826002028217905092915050565b61177882610d85565b67ffffffffffffffff81111561179157611790610eb0565b5b61179b82546112d2565b6117a68282856116e6565b5f60209050601f8311600181146117d7575f84156117c5578287015190505b6117cf8582611754565b865550611836565b601f1984166117e5866115d2565b5f5b8281101561180c578489015182556001820191506020850194506020810190506117e7565b868310156118295784890151611825601f891682611738565b8355505b6001600288020188555050505b505050505050565b7f436f6e747269627574696f6e206d757374206265203e203000000000000000005f82015250565b5f611872601883610d8f565b915061187d8261183e565b602082019050919050565b5f6020820190508181035f83015261189f81611866565b905091905056fea26469706673582212203fae3aed5781fa2ef2bb8f74e633d335a7fa65936446313b33a941d0a33a51d564736f6c634300081a0033",
					"opcodes": "PUSH1 0x80 PUSH1 0x40 MSTORE CALLVALUE DUP1 ISZERO PUSH1 0xE JUMPI PUSH0 DUP1 REVERT JUMPDEST POP PUSH2 0x18DC DUP1 PUSH2 0x1C PUSH0 CODECOPY PUSH0 RETURN INVALID PUSH1 0x80 PUSH1 0x40 MSTORE PUSH1 0x4 CALLDATASIZE LT PUSH2 0x49 JUMPI PUSH0 CALLDATALOAD PUSH1 0xE0 SHR DUP1 PUSH4 0xB008FD0 EQ PUSH2 0x4D JUMPI DUP1 PUSH4 0x141961BC EQ PUSH2 0x69 JUMPI DUP1 PUSH4 0x155DD5EE EQ PUSH2 0xAC JUMPI DUP1 PUSH4 0xA318F269 EQ PUSH2 0xC8 JUMPI DUP1 PUSH4 0xC1CBBCA7 EQ PUSH2 0xF0 JUMPI JUMPDEST PUSH0 DUP1 REVERT JUMPDEST PUSH2 0x67 PUSH1 0x4 DUP1 CALLDATASIZE SUB DUP2 ADD SWAP1 PUSH2 0x62 SWAP2 SWAP1 PUSH2 0xD1B JUMP JUMPDEST PUSH2 0x10C JUMP JUMPDEST STOP JUMPDEST CALLVALUE DUP1 ISZERO PUSH2 0x74 JUMPI PUSH0 DUP1 REVERT JUMPDEST POP PUSH2 0x8F PUSH1 0x4 DUP1 CALLDATASIZE SUB DUP2 ADD SWAP1 PUSH2 0x8A SWAP2 SWAP1 PUSH2 0xD1B JUMP JUMPDEST PUSH2 0x3DC JUMP JUMPDEST PUSH1 0x40 MLOAD PUSH2 0xA3 SWAP9 SWAP8 SWAP7 SWAP6 SWAP5 SWAP4 SWAP3 SWAP2 SWAP1 PUSH2 0xE1E JUMP JUMPDEST PUSH1 0x40 MLOAD DUP1 SWAP2 SUB SWAP1 RETURN JUMPDEST PUSH2 0xC6 PUSH1 0x4 DUP1 CALLDATASIZE SUB DUP2 ADD SWAP1 PUSH2 0xC1 SWAP2 SWAP1 PUSH2 0xD1B JUMP JUMPDEST PUSH2 0x572 JUMP JUMPDEST STOP JUMPDEST CALLVALUE DUP1 ISZERO PUSH2 0xD3 JUMPI PUSH0 DUP1 REVERT JUMPDEST POP PUSH2 0xEE PUSH1 0x4 DUP1 CALLDATASIZE SUB DUP2 ADD SWAP1 PUSH2 0xE9 SWAP2 SWAP1 PUSH2 0xFD4 JUMP JUMPDEST PUSH2 0x8BC JUMP JUMPDEST STOP JUMPDEST PUSH2 0x10A PUSH1 0x4 DUP1 CALLDATASIZE SUB DUP2 ADD SWAP1 PUSH2 0x105 SWAP2 SWAP1 PUSH2 0xD1B JUMP JUMPDEST PUSH2 0xA09 JUMP JUMPDEST STOP JUMPDEST DUP1 PUSH0 DUP1 SLOAD SWAP1 POP DUP2 LT PUSH2 0x153 JUMPI PUSH1 0x40 MLOAD PUSH32 0x8C379A000000000000000000000000000000000000000000000000000000000 DUP2 MSTORE PUSH1 0x4 ADD PUSH2 0x14A SWAP1 PUSH2 0x10BA JUMP JUMPDEST PUSH1 0x40 MLOAD DUP1 SWAP2 SUB SWAP1 REVERT JUMPDEST DUP2 PUSH0 DUP2 DUP2 SLOAD DUP2 LT PUSH2 0x167 JUMPI PUSH2 0x166 PUSH2 0x10D8 JUMP JUMPDEST JUMPDEST SWAP1 PUSH0 MSTORE PUSH1 0x20 PUSH0 KECCAK256 SWAP1 PUSH1 0x8 MUL ADD PUSH1 0x6 ADD PUSH1 0x1 SWAP1 SLOAD SWAP1 PUSH2 0x100 EXP SWAP1 DIV PUSH1 0xFF AND ISZERO PUSH2 0x1C4 JUMPI PUSH1 0x40 MLOAD PUSH32 0x8C379A000000000000000000000000000000000000000000000000000000000 DUP2 MSTORE PUSH1 0x4 ADD PUSH2 0x1BB SWAP1 PUSH2 0x114F JUMP JUMPDEST PUSH1 0x40 MLOAD DUP1 SWAP2 SUB SWAP1 REVERT JUMPDEST PUSH0 DUP2 DUP2 SLOAD DUP2 LT PUSH2 0x1D7 JUMPI PUSH2 0x1D6 PUSH2 0x10D8 JUMP JUMPDEST JUMPDEST SWAP1 PUSH0 MSTORE PUSH1 0x20 PUSH0 KECCAK256 SWAP1 PUSH1 0x8 MUL ADD PUSH1 0x5 ADD SLOAD TIMESTAMP LT PUSH2 0x228 JUMPI PUSH1 0x40 MLOAD PUSH32 0x8C379A000000000000000000000000000000000000000000000000000000000 DUP2 MSTORE PUSH1 0x4 ADD PUSH2 0x21F SWAP1 PUSH2 0x11B7 JUMP JUMPDEST PUSH1 0x40 MLOAD DUP1 SWAP2 SUB SWAP1 REVERT JUMPDEST PUSH0 DUP4 DUP2 SLOAD DUP2 LT PUSH2 0x23B JUMPI PUSH2 0x23A PUSH2 0x10D8 JUMP JUMPDEST JUMPDEST SWAP1 PUSH0 MSTORE PUSH1 0x20 PUSH0 KECCAK256 SWAP1 PUSH1 0x8 MUL ADD PUSH1 0x5 ADD SLOAD TIMESTAMP LT ISZERO PUSH2 0x28D JUMPI PUSH1 0x40 MLOAD PUSH32 0x8C379A000000000000000000000000000000000000000000000000000000000 DUP2 MSTORE PUSH1 0x4 ADD PUSH2 0x284 SWAP1 PUSH2 0x121F JUMP JUMPDEST PUSH1 0x40 MLOAD DUP1 SWAP2 SUB SWAP1 REVERT JUMPDEST PUSH0 DUP1 DUP5 DUP2 SLOAD DUP2 LT PUSH2 0x2A1 JUMPI PUSH2 0x2A0 PUSH2 0x10D8 JUMP JUMPDEST JUMPDEST SWAP1 PUSH0 MSTORE PUSH1 0x20 PUSH0 KECCAK256 SWAP1 PUSH1 0x8 MUL ADD PUSH1 0x7 ADD PUSH0 CALLER PUSH20 0xFFFFFFFFFFFFFFFFFFFFFFFFFFFFFFFFFFFFFFFF AND PUSH20 0xFFFFFFFFFFFFFFFFFFFFFFFFFFFFFFFFFFFFFFFF AND DUP2 MSTORE PUSH1 0x20 ADD SWAP1 DUP2 MSTORE PUSH1 0x20 ADD PUSH0 KECCAK256 SLOAD SWAP1 POP PUSH0 DUP2 GT PUSH2 0x330 JUMPI PUSH1 0x40 MLOAD PUSH32 0x8C379A000000000000000000000000000000000000000000000000000000000 DUP2 MSTORE PUSH1 0x4 ADD PUSH2 0x327 SWAP1 PUSH2 0x1287 JUMP JUMPDEST PUSH1 0x40 MLOAD DUP1 SWAP2 SUB SWAP1 REVERT JUMPDEST PUSH0 DUP1 DUP6 DUP2 SLOAD DUP2 LT PUSH2 0x344 JUMPI PUSH2 0x343 PUSH2 0x10D8 JUMP JUMPDEST JUMPDEST SWAP1 PUSH0 MSTORE PUSH1 0x20 PUSH0 KECCAK256 SWAP1 PUSH1 0x8 MUL ADD PUSH1 0x7 ADD PUSH0 CALLER PUSH20 0xFFFFFFFFFFFFFFFFFFFFFFFFFFFFFFFFFFFFFFFF AND PUSH20 0xFFFFFFFFFFFFFFFFFFFFFFFFFFFFFFFFFFFFFFFF AND DUP2 MSTORE PUSH1 0x20 ADD SWAP1 DUP2 MSTORE PUSH1 0x20 ADD PUSH0 KECCAK256 DUP2 SWAP1 SSTORE POP CALLER PUSH20 0xFFFFFFFFFFFFFFFFFFFFFFFFFFFFFFFFFFFFFFFF AND PUSH2 0x8FC DUP3 SWAP1 DUP2 ISZERO MUL SWAP1 PUSH1 0x40 MLOAD PUSH0 PUSH1 0x40 MLOAD DUP1 DUP4 SUB DUP2 DUP6 DUP9 DUP9 CALL SWAP4 POP POP POP POP ISZERO DUP1 ISZERO PUSH2 0x3D5 JUMPI RETURNDATASIZE PUSH0 DUP1 RETURNDATACOPY RETURNDATASIZE PUSH0 REVERT JUMPDEST POP POP POP POP POP JUMP JUMPDEST PUSH0 DUP2 DUP2 SLOAD DUP2 LT PUSH2 0x3EA JUMPI PUSH0 DUP1 REVERT JUMPDEST SWAP1 PUSH0 MSTORE PUSH1 0x20 PUSH0 KECCAK256 SWAP1 PUSH1 0x8 MUL ADD PUSH0 SWAP2 POP SWAP1 POP DUP1 PUSH0 ADD PUSH0 SWAP1 SLOAD SWAP1 PUSH2 0x100 EXP SWAP1 DIV PUSH20 0xFFFFFFFFFFFFFFFFFFFFFFFFFFFFFFFFFFFFFFFF AND SWAP1 DUP1 PUSH1 0x1 ADD DUP1 SLOAD PUSH2 0x42E SWAP1 PUSH2 0x12D2 JUMP JUMPDEST DUP1 PUSH1 0x1F ADD PUSH1 0x20 DUP1 SWAP2 DIV MUL PUSH1 0x20 ADD PUSH1 0x40 MLOAD SWAP1 DUP2 ADD PUSH1 0x40 MSTORE DUP1 SWAP3 SWAP2 SWAP1 DUP2 DUP2 MSTORE PUSH1 0x20 ADD DUP3 DUP1 SLOAD PUSH2 0x45A SWAP1 PUSH2 0x12D2 JUMP JUMPDEST DUP1 ISZERO PUSH2 0x4A5 JUMPI DUP1 PUSH1 0x1F LT PUSH2 0x47C JUMPI PUSH2 0x100 DUP1 DUP4 SLOAD DIV MUL DUP4 MSTORE SWAP2 PUSH1 0x20 ADD SWAP2 PUSH2 0x4A5 JUMP JUMPDEST DUP3 ADD SWAP2 SWAP1 PUSH0 MSTORE PUSH1 0x20 PUSH0 KECCAK256 SWAP1 JUMPDEST DUP2 SLOAD DUP2 MSTORE SWAP1 PUSH1 0x1 ADD SWAP1 PUSH1 0x20 ADD DUP1 DUP4 GT PUSH2 0x488 JUMPI DUP3 SWAP1 SUB PUSH1 0x1F AND DUP3 ADD SWAP2 JUMPDEST POP POP POP POP POP SWAP1 DUP1 PUSH1 0x2 ADD DUP1 SLOAD PUSH2 0x4BA SWAP1 PUSH2 0x12D2 JUMP JUMPDEST DUP1 PUSH1 0x1F ADD PUSH1 0x20 DUP1 SWAP2 DIV MUL PUSH1 0x20 ADD PUSH1 0x40 MLOAD SWAP1 DUP2 ADD PUSH1 0x40 MSTORE DUP1 SWAP3 SWAP2 SWAP1 DUP2 DUP2 MSTORE PUSH1 0x20 ADD DUP3 DUP1 SLOAD PUSH2 0x4E6 SWAP1 PUSH2 0x12D2 JUMP JUMPDEST DUP1 ISZERO PUSH2 0x531 JUMPI DUP1 PUSH1 0x1F LT PUSH2 0x508 JUMPI PUSH2 0x100 DUP1 DUP4 SLOAD DIV MUL DUP4 MSTORE SWAP2 PUSH1 0x20 ADD SWAP2 PUSH2 0x531 JUMP JUMPDEST DUP3 ADD SWAP2 SWAP1 PUSH0 MSTORE PUSH1 0x20 PUSH0 KECCAK256 SWAP1 JUMPDEST DUP2 SLOAD DUP2 MSTORE SWAP1 PUSH1 0x1 ADD SWAP1 PUSH1 0x20 ADD DUP1 DUP4 GT PUSH2 0x514 JUMPI DUP3 SWAP1 SUB PUSH1 0x1F AND DUP3 ADD SWAP2 JUMPDEST POP POP POP POP POP SWAP1 DUP1 PUSH1 0x3 ADD SLOAD SWAP1 DUP1 PUSH1 0x4 ADD SLOAD SWAP1 DUP1 PUSH1 0x5 ADD SLOAD SWAP1 DUP1 PUSH1 0x6 ADD PUSH0 SWAP1 SLOAD SWAP1 PUSH2 0x100 EXP SWAP1 DIV PUSH1 0xFF AND SWAP1 DUP1 PUSH1 0x6 ADD PUSH1 0x1 SWAP1 SLOAD SWAP1 PUSH2 0x100 EXP SWAP1 DIV PUSH1 0xFF AND SWAP1 POP DUP9 JUMP JUMPDEST DUP1 PUSH0 DUP1 SLOAD SWAP1 POP DUP2 LT PUSH2 0x5B9 JUMPI PUSH1 0x40 MLOAD PUSH32 0x8C379A000000000000000000000000000000000000000000000000000000000 DUP2 MSTORE PUSH1 0x4 ADD PUSH2 0x5B0 SWAP1 PUSH2 0x10BA JUMP JUMPDEST PUSH1 0x40 MLOAD DUP1 SWAP2 SUB SWAP1 REVERT JUMPDEST DUP2 CALLER PUSH20 0xFFFFFFFFFFFFFFFFFFFFFFFFFFFFFFFFFFFFFFFF AND PUSH0 DUP3 DUP2 SLOAD DUP2 LT PUSH2 0x5E4 JUMPI PUSH2 0x5E3 PUSH2 0x10D8 JUMP JUMPDEST JUMPDEST SWAP1 PUSH0 MSTORE PUSH1 0x20 PUSH0 KECCAK256 SWAP1 PUSH1 0x8 MUL ADD PUSH0 ADD PUSH0 SWAP1 SLOAD SWAP1 PUSH2 0x100 EXP SWAP1 DIV PUSH20 0xFFFFFFFFFFFFFFFFFFFFFFFFFFFFFFFFFFFFFFFF AND PUSH20 0xFFFFFFFFFFFFFFFFFFFFFFFFFFFFFFFFFFFFFFFF AND EQ PUSH2 0x668 JUMPI PUSH1 0x40 MLOAD PUSH32 0x8C379A000000000000000000000000000000000000000000000000000000000 DUP2 MSTORE PUSH1 0x4 ADD PUSH2 0x65F SWAP1 PUSH2 0x134C JUMP JUMPDEST PUSH1 0x40 MLOAD DUP1 SWAP2 SUB SWAP1 REVERT JUMPDEST PUSH0 DUP4 DUP2 SLOAD DUP2 LT PUSH2 0x67B JUMPI PUSH2 0x67A PUSH2 0x10D8 JUMP JUMPDEST JUMPDEST SWAP1 PUSH0 MSTORE PUSH1 0x20 PUSH0 KECCAK256 SWAP1 PUSH1 0x8 MUL ADD PUSH1 0x6 ADD PUSH0 SWAP1 SLOAD SWAP1 PUSH2 0x100 EXP SWAP1 DIV PUSH1 0xFF AND PUSH2 0x6D6 JUMPI PUSH1 0x40 MLOAD PUSH32 0x8C379A000000000000000000000000000000000000000000000000000000000 DUP2 MSTORE PUSH1 0x4 ADD PUSH2 0x6CD SWAP1 PUSH2 0x13B4 JUMP JUMPDEST PUSH1 0x40 MLOAD DUP1 SWAP2 SUB SWAP1 REVERT JUMPDEST PUSH0 DUP4 DUP2 SLOAD DUP2 LT PUSH2 0x6E9 JUMPI PUSH2 0x6E8 PUSH2 0x10D8 JUMP JUMPDEST JUMPDEST SWAP1 PUSH0 MSTORE PUSH1 0x20 PUSH0 KECCAK256 SWAP1 PUSH1 0x8 MUL ADD PUSH1 0x5 ADD SLOAD TIMESTAMP LT ISZERO PUSH2 0x73B JUMPI PUSH1 0x40 MLOAD PUSH32 0x8C379A000000000000000000000000000000000000000000000000000000000 DUP2 MSTORE PUSH1 0x4 ADD PUSH2 0x732 SWAP1 PUSH2 0x141C JUMP JUMPDEST PUSH1 0x40 MLOAD DUP1 SWAP2 SUB SWAP1 REVERT JUMPDEST PUSH0 DUP4 DUP2 SLOAD DUP2 LT PUSH2 0x74E JUMPI PUSH2 0x74D PUSH2 0x10D8 JUMP JUMPDEST JUMPDEST SWAP1 PUSH0 MSTORE PUSH1 0x20 PUSH0 KECCAK256 SWAP1 PUSH1 0x8 MUL ADD PUSH1 0x6 ADD PUSH1 0x1 SWAP1 SLOAD SWAP1 PUSH2 0x100 EXP SWAP1 DIV PUSH1 0xFF AND ISZERO PUSH2 0x7AB JUMPI PUSH1 0x40 MLOAD PUSH32 0x8C379A000000000000000000000000000000000000000000000000000000000 DUP2 MSTORE PUSH1 0x4 ADD PUSH2 0x7A2 SWAP1 PUSH2 0x1484 JUMP JUMPDEST PUSH1 0x40 MLOAD DUP1 SWAP2 SUB SWAP1 REVERT JUMPDEST PUSH0 DUP1 DUP5 DUP2 SLOAD DUP2 LT PUSH2 0x7BF JUMPI PUSH2 0x7BE PUSH2 0x10D8 JUMP JUMPDEST JUMPDEST SWAP1 PUSH0 MSTORE PUSH1 0x20 PUSH0 KECCAK256 SWAP1 PUSH1 0x8 MUL ADD PUSH1 0x4 ADD SLOAD SWAP1 POP PUSH0 DUP1 DUP6 DUP2 SLOAD DUP2 LT PUSH2 0x7E5 JUMPI PUSH2 0x7E4 PUSH2 0x10D8 JUMP JUMPDEST JUMPDEST SWAP1 PUSH0 MSTORE PUSH1 0x20 PUSH0 KECCAK256 SWAP1 PUSH1 0x8 MUL ADD PUSH1 0x4 ADD DUP2 SWAP1 SSTORE POP PUSH0 DUP1 DUP6 DUP2 SLOAD DUP2 LT PUSH2 0x80C JUMPI PUSH2 0x80B PUSH2 0x10D8 JUMP JUMPDEST JUMPDEST SWAP1 PUSH0 MSTORE PUSH1 0x20 PUSH0 KECCAK256 SWAP1 PUSH1 0x8 MUL ADD PUSH1 0x6 ADD PUSH1 0x1 PUSH2 0x100 EXP DUP2 SLOAD DUP2 PUSH1 0xFF MUL NOT AND SWAP1 DUP4 ISZERO ISZERO MUL OR SWAP1 SSTORE POP PUSH0 DUP5 DUP2 SLOAD DUP2 LT PUSH2 0x845 JUMPI PUSH2 0x844 PUSH2 0x10D8 JUMP JUMPDEST JUMPDEST SWAP1 PUSH0 MSTORE PUSH1 0x20 PUSH0 KECCAK256 SWAP1 PUSH1 0x8 MUL ADD PUSH0 ADD PUSH0 SWAP1 SLOAD SWAP1 PUSH2 0x100 EXP SWAP1 DIV PUSH20 0xFFFFFFFFFFFFFFFFFFFFFFFFFFFFFFFFFFFFFFFF AND PUSH20 0xFFFFFFFFFFFFFFFFFFFFFFFFFFFFFFFFFFFFFFFF AND PUSH2 0x8FC DUP3 SWAP1 DUP2 ISZERO MUL SWAP1 PUSH1 0x40 MLOAD PUSH0 PUSH1 0x40 MLOAD DUP1 DUP4 SUB DUP2 DUP6 DUP9 DUP9 CALL SWAP4 POP POP POP POP ISZERO DUP1 ISZERO PUSH2 0x8B5 JUMPI RETURNDATASIZE PUSH0 DUP1 RETURNDATACOPY RETURNDATASIZE PUSH0 REVERT JUMPDEST POP POP POP POP POP JUMP JUMPDEST PUSH0 DUP2 GT PUSH2 0x8FE JUMPI PUSH1 0x40 MLOAD PUSH32 0x8C379A000000000000000000000000000000000000000000000000000000000 DUP2 MSTORE PUSH1 0x4 ADD PUSH2 0x8F5 SWAP1 PUSH2 0x14EC JUMP JUMPDEST PUSH1 0x40 MLOAD DUP1 SWAP2 SUB SWAP1 REVERT JUMPDEST PUSH0 DUP3 GT PUSH2 0x940 JUMPI PUSH1 0x40 MLOAD PUSH32 0x8C379A000000000000000000000000000000000000000000000000000000000 DUP2 MSTORE PUSH1 0x4 ADD PUSH2 0x937 SWAP1 PUSH2 0x1554 JUMP JUMPDEST PUSH1 0x40 MLOAD DUP1 SWAP2 SUB SWAP1 REVERT JUMPDEST PUSH0 DUP3 TIMESTAMP PUSH2 0x94D SWAP2 SWAP1 PUSH2 0x159F JUMP JUMPDEST SWAP1 POP PUSH0 DUP1 PUSH1 0x1 DUP2 PUSH1 0x1 DUP2 SLOAD ADD DUP1 DUP3 SSTORE DUP1 SWAP2 POP POP SUB SWAP1 PUSH0 MSTORE PUSH1 0x20 PUSH0 KECCAK256 SWAP1 PUSH1 0x8 MUL ADD SWAP1 POP CALLER DUP2 PUSH0 ADD PUSH0 PUSH2 0x100 EXP DUP2 SLOAD DUP2 PUSH20 0xFFFFFFFFFFFFFFFFFFFFFFFFFFFFFFFFFFFFFFFF MUL NOT AND SWAP1 DUP4 PUSH20 0xFFFFFFFFFFFFFFFFFFFFFFFFFFFFFFFFFFFFFFFF AND MUL OR SWAP1 SSTORE POP DUP6 DUP2 PUSH1 0x1 ADD SWAP1 DUP2 PUSH2 0x9C1 SWAP2 SWAP1 PUSH2 0x176F JUMP JUMPDEST POP DUP5 DUP2 PUSH1 0x2 ADD SWAP1 DUP2 PUSH2 0x9D3 SWAP2 SWAP1 PUSH2 0x176F JUMP JUMPDEST POP DUP3 DUP2 PUSH1 0x3 ADD DUP2 SWAP1 SSTORE POP DUP2 DUP2 PUSH1 0x5 ADD DUP2 SWAP1 SSTORE POP PUSH0 DUP2 PUSH1 0x6 ADD PUSH0 PUSH2 0x100 EXP DUP2 SLOAD DUP2 PUSH1 0xFF MUL NOT AND SWAP1 DUP4 ISZERO ISZERO MUL OR SWAP1 SSTORE POP POP POP POP POP POP POP JUMP JUMPDEST DUP1 PUSH0 DUP1 SLOAD SWAP1 POP DUP2 LT PUSH2 0xA50 JUMPI PUSH1 0x40 MLOAD PUSH32 0x8C379A000000000000000000000000000000000000000000000000000000000 DUP2 MSTORE PUSH1 0x4 ADD PUSH2 0xA47 SWAP1 PUSH2 0x10BA JUMP JUMPDEST PUSH1 0x40 MLOAD DUP1 SWAP2 SUB SWAP1 REVERT JUMPDEST DUP2 PUSH0 DUP2 DUP2 SLOAD DUP2 LT PUSH2 0xA64 JUMPI PUSH2 0xA63 PUSH2 0x10D8 JUMP JUMPDEST JUMPDEST SWAP1 PUSH0 MSTORE PUSH1 0x20 PUSH0 KECCAK256 SWAP1 PUSH1 0x8 MUL ADD PUSH1 0x6 ADD PUSH1 0x1 SWAP1 SLOAD SWAP1 PUSH2 0x100 EXP SWAP1 DIV PUSH1 0xFF AND ISZERO PUSH2 0xAC1 JUMPI PUSH1 0x40 MLOAD PUSH32 0x8C379A000000000000000000000000000000000000000000000000000000000 DUP2 MSTORE PUSH1 0x4 ADD PUSH2 0xAB8 SWAP1 PUSH2 0x114F JUMP JUMPDEST PUSH1 0x40 MLOAD DUP1 SWAP2 SUB SWAP1 REVERT JUMPDEST PUSH0 DUP2 DUP2 SLOAD DUP2 LT PUSH2 0xAD4 JUMPI PUSH2 0xAD3 PUSH2 0x10D8 JUMP JUMPDEST JUMPDEST SWAP1 PUSH0 MSTORE PUSH1 0x20 PUSH0 KECCAK256 SWAP1 PUSH1 0x8 MUL ADD PUSH1 0x5 ADD SLOAD TIMESTAMP LT PUSH2 0xB25 JUMPI PUSH1 0x40 MLOAD PUSH32 0x8C379A000000000000000000000000000000000000000000000000000000000 DUP2 MSTORE PUSH1 0x4 ADD PUSH2 0xB1C SWAP1 PUSH2 0x11B7 JUMP JUMPDEST PUSH1 0x40 MLOAD DUP1 SWAP2 SUB SWAP1 REVERT JUMPDEST PUSH0 CALLVALUE GT PUSH2 0xB67 JUMPI PUSH1 0x40 MLOAD PUSH32 0x8C379A000000000000000000000000000000000000000000000000000000000 DUP2 MSTORE PUSH1 0x4 ADD PUSH2 0xB5E SWAP1 PUSH2 0x1888 JUMP JUMPDEST PUSH1 0x40 MLOAD DUP1 SWAP2 SUB SWAP1 REVERT JUMPDEST CALLVALUE PUSH0 DUP5 DUP2 SLOAD DUP2 LT PUSH2 0xB7B JUMPI PUSH2 0xB7A PUSH2 0x10D8 JUMP JUMPDEST JUMPDEST SWAP1 PUSH0 MSTORE PUSH1 0x20 PUSH0 KECCAK256 SWAP1 PUSH1 0x8 MUL ADD PUSH1 0x7 ADD PUSH0 CALLER PUSH20 0xFFFFFFFFFFFFFFFFFFFFFFFFFFFFFFFFFFFFFFFF AND PUSH20 0xFFFFFFFFFFFFFFFFFFFFFFFFFFFFFFFFFFFFFFFF AND DUP2 MSTORE PUSH1 0x20 ADD SWAP1 DUP2 MSTORE PUSH1 0x20 ADD PUSH0 KECCAK256 PUSH0 DUP3 DUP3 SLOAD PUSH2 0xBD3 SWAP2 SWAP1 PUSH2 0x159F JUMP JUMPDEST SWAP3 POP POP DUP2 SWAP1 SSTORE POP CALLVALUE PUSH0 DUP5 DUP2 SLOAD DUP2 LT PUSH2 0xBEE JUMPI PUSH2 0xBED PUSH2 0x10D8 JUMP JUMPDEST JUMPDEST SWAP1 PUSH0 MSTORE PUSH1 0x20 PUSH0 KECCAK256 SWAP1 PUSH1 0x8 MUL ADD PUSH1 0x4 ADD PUSH0 DUP3 DUP3 SLOAD PUSH2 0xC0B SWAP2 SWAP1 PUSH2 0x159F JUMP JUMPDEST SWAP3 POP POP DUP2 SWAP1 SSTORE POP PUSH0 DUP4 DUP2 SLOAD DUP2 LT PUSH2 0xC25 JUMPI PUSH2 0xC24 PUSH2 0x10D8 JUMP JUMPDEST JUMPDEST SWAP1 PUSH0 MSTORE PUSH1 0x20 PUSH0 KECCAK256 SWAP1 PUSH1 0x8 MUL ADD PUSH1 0x3 ADD SLOAD PUSH0 DUP5 DUP2 SLOAD DUP2 LT PUSH2 0xC48 JUMPI PUSH2 0xC47 PUSH2 0x10D8 JUMP JUMPDEST JUMPDEST SWAP1 PUSH0 MSTORE PUSH1 0x20 PUSH0 KECCAK256 SWAP1 PUSH1 0x8 MUL ADD PUSH1 0x4 ADD SLOAD LT ISZERO DUP1 ISZERO PUSH2 0xC92 JUMPI POP PUSH0 DUP4 DUP2 SLOAD DUP2 LT PUSH2 0xC74 JUMPI PUSH2 0xC73 PUSH2 0x10D8 JUMP JUMPDEST JUMPDEST SWAP1 PUSH0 MSTORE PUSH1 0x20 PUSH0 KECCAK256 SWAP1 PUSH1 0x8 MUL ADD PUSH1 0x6 ADD PUSH0 SWAP1 SLOAD SWAP1 PUSH2 0x100 EXP SWAP1 DIV PUSH1 0xFF AND ISZERO JUMPDEST ISZERO PUSH2 0xCD2 JUMPI PUSH1 0x1 PUSH0 DUP5 DUP2 SLOAD DUP2 LT PUSH2 0xCAC JUMPI PUSH2 0xCAB PUSH2 0x10D8 JUMP JUMPDEST JUMPDEST SWAP1 PUSH0 MSTORE PUSH1 0x20 PUSH0 KECCAK256 SWAP1 PUSH1 0x8 MUL ADD PUSH1 0x6 ADD PUSH0 PUSH2 0x100 EXP DUP2 SLOAD DUP2 PUSH1 0xFF MUL NOT AND SWAP1 DUP4 ISZERO ISZERO MUL OR SWAP1 SSTORE POP JUMPDEST POP POP POP JUMP JUMPDEST PUSH0 PUSH1 0x40 MLOAD SWAP1 POP SWAP1 JUMP JUMPDEST PUSH0 DUP1 REVERT JUMPDEST PUSH0 DUP1 REVERT JUMPDEST PUSH0 DUP2 SWAP1 POP SWAP2 SWAP1 POP JUMP JUMPDEST PUSH2 0xCFA DUP2 PUSH2 0xCE8 JUMP JUMPDEST DUP2 EQ PUSH2 0xD04 JUMPI PUSH0 DUP1 REVERT JUMPDEST POP JUMP JUMPDEST PUSH0 DUP2 CALLDATALOAD SWAP1 POP PUSH2 0xD15 DUP2 PUSH2 0xCF1 JUMP JUMPDEST SWAP3 SWAP2 POP POP JUMP JUMPDEST PUSH0 PUSH1 0x20 DUP3 DUP5 SUB SLT ISZERO PUSH2 0xD30 JUMPI PUSH2 0xD2F PUSH2 0xCE0 JUMP JUMPDEST JUMPDEST PUSH0 PUSH2 0xD3D DUP5 DUP3 DUP6 ADD PUSH2 0xD07 JUMP JUMPDEST SWAP2 POP POP SWAP3 SWAP2 POP POP JUMP JUMPDEST PUSH0 PUSH20 0xFFFFFFFFFFFFFFFFFFFFFFFFFFFFFFFFFFFFFFFF DUP3 AND SWAP1 POP SWAP2 SWAP1 POP JUMP JUMPDEST PUSH0 PUSH2 0xD6F DUP3 PUSH2 0xD46 JUMP JUMPDEST SWAP1 POP SWAP2 SWAP1 POP JUMP JUMPDEST PUSH2 0xD7F DUP2 PUSH2 0xD65 JUMP JUMPDEST DUP3 MSTORE POP POP JUMP JUMPDEST PUSH0 DUP2 MLOAD SWAP1 POP SWAP2 SWAP1 POP JUMP JUMPDEST PUSH0 DUP3 DUP3 MSTORE PUSH1 0x20 DUP3 ADD SWAP1 POP SWAP3 SWAP2 POP POP JUMP JUMPDEST DUP3 DUP2 DUP4 MCOPY PUSH0 DUP4 DUP4 ADD MSTORE POP POP POP JUMP JUMPDEST PUSH0 PUSH1 0x1F NOT PUSH1 0x1F DUP4 ADD AND SWAP1 POP SWAP2 SWAP1 POP JUMP JUMPDEST PUSH0 PUSH2 0xDC7 DUP3 PUSH2 0xD85 JUMP JUMPDEST PUSH2 0xDD1 DUP2 DUP6 PUSH2 0xD8F JUMP JUMPDEST SWAP4 POP PUSH2 0xDE1 DUP2 DUP6 PUSH1 0x20 DUP7 ADD PUSH2 0xD9F JUMP JUMPDEST PUSH2 0xDEA DUP2 PUSH2 0xDAD JUMP JUMPDEST DUP5 ADD SWAP2 POP POP SWAP3 SWAP2 POP POP JUMP JUMPDEST PUSH2 0xDFE DUP2 PUSH2 0xCE8 JUMP JUMPDEST DUP3 MSTORE POP POP JUMP JUMPDEST PUSH0 DUP2 ISZERO ISZERO SWAP1 POP SWAP2 SWAP1 POP JUMP JUMPDEST PUSH2 0xE18 DUP2 PUSH2 0xE04 JUMP JUMPDEST DUP3 MSTORE POP POP JUMP JUMPDEST PUSH0 PUSH2 0x100 DUP3 ADD SWAP1 POP PUSH2 0xE32 PUSH0 DUP4 ADD DUP12 PUSH2 0xD76 JUMP JUMPDEST DUP2 DUP2 SUB PUSH1 0x20 DUP4 ADD MSTORE PUSH2 0xE44 DUP2 DUP11 PUSH2 0xDBD JUMP JUMPDEST SWAP1 POP DUP2 DUP2 SUB PUSH1 0x40 DUP4 ADD MSTORE PUSH2 0xE58 DUP2 DUP10 PUSH2 0xDBD JUMP JUMPDEST SWAP1 POP PUSH2 0xE67 PUSH1 0x60 DUP4 ADD DUP9 PUSH2 0xDF5 JUMP JUMPDEST PUSH2 0xE74 PUSH1 0x80 DUP4 ADD DUP8 PUSH2 0xDF5 JUMP JUMPDEST PUSH2 0xE81 PUSH1 0xA0 DUP4 ADD DUP7 PUSH2 0xDF5 JUMP JUMPDEST PUSH2 0xE8E PUSH1 0xC0 DUP4 ADD DUP6 PUSH2 0xE0F JUMP JUMPDEST PUSH2 0xE9B PUSH1 0xE0 DUP4 ADD DUP5 PUSH2 0xE0F JUMP JUMPDEST SWAP10 SWAP9 POP POP POP POP POP POP POP POP POP JUMP JUMPDEST PUSH0 DUP1 REVERT JUMPDEST PUSH0 DUP1 REVERT JUMPDEST PUSH32 0x4E487B7100000000000000000000000000000000000000000000000000000000 PUSH0 MSTORE PUSH1 0x41 PUSH1 0x4 MSTORE PUSH1 0x24 PUSH0 REVERT JUMPDEST PUSH2 0xEE6 DUP3 PUSH2 0xDAD JUMP JUMPDEST DUP2 ADD DUP2 DUP2 LT PUSH8 0xFFFFFFFFFFFFFFFF DUP3 GT OR ISZERO PUSH2 0xF05 JUMPI PUSH2 0xF04 PUSH2 0xEB0 JUMP JUMPDEST JUMPDEST DUP1 PUSH1 0x40 MSTORE POP POP POP JUMP JUMPDEST PUSH0 PUSH2 0xF17 PUSH2 0xCD7 JUMP JUMPDEST SWAP1 POP PUSH2 0xF23 DUP3 DUP3 PUSH2 0xEDD JUMP JUMPDEST SWAP2 SWAP1 POP JUMP JUMPDEST PUSH0 PUSH8 0xFFFFFFFFFFFFFFFF DUP3 GT ISZERO PUSH2 0xF42 JUMPI PUSH2 0xF41 PUSH2 0xEB0 JUMP JUMPDEST JUMPDEST PUSH2 0xF4B DUP3 PUSH2 0xDAD JUMP JUMPDEST SWAP1 POP PUSH1 0x20 DUP2 ADD SWAP1 POP SWAP2 SWAP1 POP JUMP JUMPDEST DUP3 DUP2 DUP4 CALLDATACOPY PUSH0 DUP4 DUP4 ADD MSTORE POP POP POP JUMP JUMPDEST PUSH0 PUSH2 0xF78 PUSH2 0xF73 DUP5 PUSH2 0xF28 JUMP JUMPDEST PUSH2 0xF0E JUMP JUMPDEST SWAP1 POP DUP3 DUP2 MSTORE PUSH1 0x20 DUP2 ADD DUP5 DUP5 DUP5 ADD GT ISZERO PUSH2 0xF94 JUMPI PUSH2 0xF93 PUSH2 0xEAC JUMP JUMPDEST JUMPDEST PUSH2 0xF9F DUP5 DUP3 DUP6 PUSH2 0xF58 JUMP JUMPDEST POP SWAP4 SWAP3 POP POP POP JUMP JUMPDEST PUSH0 DUP3 PUSH1 0x1F DUP4 ADD SLT PUSH2 0xFBB JUMPI PUSH2 0xFBA PUSH2 0xEA8 JUMP JUMPDEST JUMPDEST DUP2 CALLDATALOAD PUSH2 0xFCB DUP5 DUP3 PUSH1 0x20 DUP7 ADD PUSH2 0xF66 JUMP JUMPDEST SWAP2 POP POP SWAP3 SWAP2 POP POP JUMP JUMPDEST PUSH0 DUP1 PUSH0 DUP1 PUSH1 0x80 DUP6 DUP8 SUB SLT ISZERO PUSH2 0xFEC JUMPI PUSH2 0xFEB PUSH2 0xCE0 JUMP JUMPDEST JUMPDEST PUSH0 DUP6 ADD CALLDATALOAD PUSH8 0xFFFFFFFFFFFFFFFF DUP2 GT ISZERO PUSH2 0x1009 JUMPI PUSH2 0x1008 PUSH2 0xCE4 JUMP JUMPDEST JUMPDEST PUSH2 0x1015 DUP8 DUP3 DUP9 ADD PUSH2 0xFA7 JUMP JUMPDEST SWAP5 POP POP PUSH1 0x20 DUP6 ADD CALLDATALOAD PUSH8 0xFFFFFFFFFFFFFFFF DUP2 GT ISZERO PUSH2 0x1036 JUMPI PUSH2 0x1035 PUSH2 0xCE4 JUMP JUMPDEST JUMPDEST PUSH2 0x1042 DUP8 DUP3 DUP9 ADD PUSH2 0xFA7 JUMP JUMPDEST SWAP4 POP POP PUSH1 0x40 PUSH2 0x1053 DUP8 DUP3 DUP9 ADD PUSH2 0xD07 JUMP JUMPDEST SWAP3 POP POP PUSH1 0x60 PUSH2 0x1064 DUP8 DUP3 DUP9 ADD PUSH2 0xD07 JUMP JUMPDEST SWAP2 POP POP SWAP3 SWAP6 SWAP2 SWAP5 POP SWAP3 POP JUMP JUMPDEST PUSH32 0x496E76616C69642063616D706169676E20494400000000000000000000000000 PUSH0 DUP3 ADD MSTORE POP JUMP JUMPDEST PUSH0 PUSH2 0x10A4 PUSH1 0x13 DUP4 PUSH2 0xD8F JUMP JUMPDEST SWAP2 POP PUSH2 0x10AF DUP3 PUSH2 0x1070 JUMP JUMPDEST PUSH1 0x20 DUP3 ADD SWAP1 POP SWAP2 SWAP1 POP JUMP JUMPDEST PUSH0 PUSH1 0x20 DUP3 ADD SWAP1 POP DUP2 DUP2 SUB PUSH0 DUP4 ADD MSTORE PUSH2 0x10D1 DUP2 PUSH2 0x1098 JUMP JUMPDEST SWAP1 POP SWAP2 SWAP1 POP JUMP JUMPDEST PUSH32 0x4E487B7100000000000000000000000000000000000000000000000000000000 PUSH0 MSTORE PUSH1 0x32 PUSH1 0x4 MSTORE PUSH1 0x24 PUSH0 REVERT JUMPDEST PUSH32 0x43616D706169676E20636C6F7365640000000000000000000000000000000000 PUSH0 DUP3 ADD MSTORE POP JUMP JUMPDEST PUSH0 PUSH2 0x1139 PUSH1 0xF DUP4 PUSH2 0xD8F JUMP JUMPDEST SWAP2 POP PUSH2 0x1144 DUP3 PUSH2 0x1105 JUMP JUMPDEST PUSH1 0x20 DUP3 ADD SWAP1 POP SWAP2 SWAP1 POP JUMP JUMPDEST PUSH0 PUSH1 0x20 DUP3 ADD SWAP1 POP DUP2 DUP2 SUB PUSH0 DUP4 ADD MSTORE PUSH2 0x1166 DUP2 PUSH2 0x112D JUMP JUMPDEST SWAP1 POP SWAP2 SWAP1 POP JUMP JUMPDEST PUSH32 0x43616D706169676E20656E646564000000000000000000000000000000000000 PUSH0 DUP3 ADD MSTORE POP JUMP JUMPDEST PUSH0 PUSH2 0x11A1 PUSH1 0xE DUP4 PUSH2 0xD8F JUMP JUMPDEST SWAP2 POP PUSH2 0x11AC DUP3 PUSH2 0x116D JUMP JUMPDEST PUSH1 0x20 DUP3 ADD SWAP1 POP SWAP2 SWAP1 POP JUMP JUMPDEST PUSH0 PUSH1 0x20 DUP3 ADD SWAP1 POP DUP2 DUP2 SUB PUSH0 DUP4 ADD MSTORE PUSH2 0x11CE DUP2 PUSH2 0x1195 JUMP JUMPDEST SWAP1 POP SWAP2 SWAP1 POP JUMP JUMPDEST PUSH32 0x43616D706169676E206E6F7420656E6465640000000000000000000000000000 PUSH0 DUP3 ADD MSTORE POP JUMP JUMPDEST PUSH0 PUSH2 0x1209 PUSH1 0x12 DUP4 PUSH2 0xD8F JUMP JUMPDEST SWAP2 POP PUSH2 0x1214 DUP3 PUSH2 0x11D5 JUMP JUMPDEST PUSH1 0x20 DUP3 ADD SWAP1 POP SWAP2 SWAP1 POP JUMP JUMPDEST PUSH0 PUSH1 0x20 DUP3 ADD SWAP1 POP DUP2 DUP2 SUB PUSH0 DUP4 ADD MSTORE PUSH2 0x1236 DUP2 PUSH2 0x11FD JUMP JUMPDEST SWAP1 POP SWAP2 SWAP1 POP JUMP JUMPDEST PUSH32 0x4E6F20636F6E747269627574696F6E7320746F20776974686472617700000000 PUSH0 DUP3 ADD MSTORE POP JUMP JUMPDEST PUSH0 PUSH2 0x1271 PUSH1 0x1C DUP4 PUSH2 0xD8F JUMP JUMPDEST SWAP2 POP PUSH2 0x127C DUP3 PUSH2 0x123D JUMP JUMPDEST PUSH1 0x20 DUP3 ADD SWAP1 POP SWAP2 SWAP1 POP JUMP JUMPDEST PUSH0 PUSH1 0x20 DUP3 ADD SWAP1 POP DUP2 DUP2 SUB PUSH0 DUP4 ADD MSTORE PUSH2 0x129E DUP2 PUSH2 0x1265 JUMP JUMPDEST SWAP1 POP SWAP2 SWAP1 POP JUMP JUMPDEST PUSH32 0x4E487B7100000000000000000000000000000000000000000000000000000000 PUSH0 MSTORE PUSH1 0x22 PUSH1 0x4 MSTORE PUSH1 0x24 PUSH0 REVERT JUMPDEST PUSH0 PUSH1 0x2 DUP3 DIV SWAP1 POP PUSH1 0x1 DUP3 AND DUP1 PUSH2 0x12E9 JUMPI PUSH1 0x7F DUP3 AND SWAP2 POP JUMPDEST PUSH1 0x20 DUP3 LT DUP2 SUB PUSH2 0x12FC JUMPI PUSH2 0x12FB PUSH2 0x12A5 JUMP JUMPDEST JUMPDEST POP SWAP2 SWAP1 POP JUMP JUMPDEST PUSH32 0x556E617574686F72697A65640000000000000000000000000000000000000000 PUSH0 DUP3 ADD MSTORE POP JUMP JUMPDEST PUSH0 PUSH2 0x1336 PUSH1 0xC DUP4 PUSH2 0xD8F JUMP JUMPDEST SWAP2 POP PUSH2 0x1341 DUP3 PUSH2 0x1302 JUMP JUMPDEST PUSH1 0x20 DUP3 ADD SWAP1 POP SWAP2 SWAP1 POP JUMP JUMPDEST PUSH0 PUSH1 0x20 DUP3 ADD SWAP1 POP DUP2 DUP2 SUB PUSH0 DUP4 ADD MSTORE PUSH2 0x1363 DUP2 PUSH2 0x132A JUMP JUMPDEST SWAP1 POP SWAP2 SWAP1 POP JUMP JUMPDEST PUSH32 0x476F616C206E6F74207265616368656400000000000000000000000000000000 PUSH0 DUP3 ADD MSTORE POP JUMP JUMPDEST PUSH0 PUSH2 0x139E PUSH1 0x10 DUP4 PUSH2 0xD8F JUMP JUMPDEST SWAP2 POP PUSH2 0x13A9 DUP3 PUSH2 0x136A JUMP JUMPDEST PUSH1 0x20 DUP3 ADD SWAP1 POP SWAP2 SWAP1 POP JUMP JUMPDEST PUSH0 PUSH1 0x20 DUP3 ADD SWAP1 POP DUP2 DUP2 SUB PUSH0 DUP4 ADD MSTORE PUSH2 0x13CB DUP2 PUSH2 0x1392 JUMP JUMPDEST SWAP1 POP SWAP2 SWAP1 POP JUMP JUMPDEST PUSH32 0x446561646C696E65206E6F742070617373656400000000000000000000000000 PUSH0 DUP3 ADD MSTORE POP JUMP JUMPDEST PUSH0 PUSH2 0x1406 PUSH1 0x13 DUP4 PUSH2 0xD8F JUMP JUMPDEST SWAP2 POP PUSH2 0x1411 DUP3 PUSH2 0x13D2 JUMP JUMPDEST PUSH1 0x20 DUP3 ADD SWAP1 POP SWAP2 SWAP1 POP JUMP JUMPDEST PUSH0 PUSH1 0x20 DUP3 ADD SWAP1 POP DUP2 DUP2 SUB PUSH0 DUP4 ADD MSTORE PUSH2 0x1433 DUP2 PUSH2 0x13FA JUMP JUMPDEST SWAP1 POP SWAP2 SWAP1 POP JUMP JUMPDEST PUSH32 0x416C72656164792077697468647261776E000000000000000000000000000000 PUSH0 DUP3 ADD MSTORE POP JUMP JUMPDEST PUSH0 PUSH2 0x146E PUSH1 0x11 DUP4 PUSH2 0xD8F JUMP JUMPDEST SWAP2 POP PUSH2 0x1479 DUP3 PUSH2 0x143A JUMP JUMPDEST PUSH1 0x20 DUP3 ADD SWAP1 POP SWAP2 SWAP1 POP JUMP JUMPDEST PUSH0 PUSH1 0x20 DUP3 ADD SWAP1 POP DUP2 DUP2 SUB PUSH0 DUP4 ADD MSTORE PUSH2 0x149B DUP2 PUSH2 0x1462 JUMP JUMPDEST SWAP1 POP SWAP2 SWAP1 POP JUMP JUMPDEST PUSH32 0x476F616C206D757374206265203E203000000000000000000000000000000000 PUSH0 DUP3 ADD MSTORE POP JUMP JUMPDEST PUSH0 PUSH2 0x14D6 PUSH1 0x10 DUP4 PUSH2 0xD8F JUMP JUMPDEST SWAP2 POP PUSH2 0x14E1 DUP3 PUSH2 0x14A2 JUMP JUMPDEST PUSH1 0x20 DUP3 ADD SWAP1 POP SWAP2 SWAP1 POP JUMP JUMPDEST PUSH0 PUSH1 0x20 DUP3 ADD SWAP1 POP DUP2 DUP2 SUB PUSH0 DUP4 ADD MSTORE PUSH2 0x1503 DUP2 PUSH2 0x14CA JUMP JUMPDEST SWAP1 POP SWAP2 SWAP1 POP JUMP JUMPDEST PUSH32 0x4475726174696F6E206D757374206265203E2030000000000000000000000000 PUSH0 DUP3 ADD MSTORE POP JUMP JUMPDEST PUSH0 PUSH2 0x153E PUSH1 0x14 DUP4 PUSH2 0xD8F JUMP JUMPDEST SWAP2 POP PUSH2 0x1549 DUP3 PUSH2 0x150A JUMP JUMPDEST PUSH1 0x20 DUP3 ADD SWAP1 POP SWAP2 SWAP1 POP JUMP JUMPDEST PUSH0 PUSH1 0x20 DUP3 ADD SWAP1 POP DUP2 DUP2 SUB PUSH0 DUP4 ADD MSTORE PUSH2 0x156B DUP2 PUSH2 0x1532 JUMP JUMPDEST SWAP1 POP SWAP2 SWAP1 POP JUMP JUMPDEST PUSH32 0x4E487B7100000000000000000000000000000000000000000000000000000000 PUSH0 MSTORE PUSH1 0x11 PUSH1 0x4 MSTORE PUSH1 0x24 PUSH0 REVERT JUMPDEST PUSH0 PUSH2 0x15A9 DUP3 PUSH2 0xCE8 JUMP JUMPDEST SWAP2 POP PUSH2 0x15B4 DUP4 PUSH2 0xCE8 JUMP JUMPDEST SWAP3 POP DUP3 DUP3 ADD SWAP1 POP DUP1 DUP3 GT ISZERO PUSH2 0x15CC JUMPI PUSH2 0x15CB PUSH2 0x1572 JUMP JUMPDEST JUMPDEST SWAP3 SWAP2 POP POP JUMP JUMPDEST PUSH0 DUP2 SWAP1 POP DUP2 PUSH0 MSTORE PUSH1 0x20 PUSH0 KECCAK256 SWAP1 POP SWAP2 SWAP1 POP JUMP JUMPDEST PUSH0 PUSH1 0x20 PUSH1 0x1F DUP4 ADD DIV SWAP1 POP SWAP2 SWAP1 POP JUMP JUMPDEST PUSH0 DUP3 DUP3 SHL SWAP1 POP SWAP3 SWAP2 POP POP JUMP JUMPDEST PUSH0 PUSH1 0x8 DUP4 MUL PUSH2 0x162E PUSH32 0xFFFFFFFFFFFFFFFFFFFFFFFFFFFFFFFFFFFFFFFFFFFFFFFFFFFFFFFFFFFFFFFF DUP3 PUSH2 0x15F3 JUMP JUMPDEST PUSH2 0x1638 DUP7 DUP4 PUSH2 0x15F3 JUMP JUMPDEST SWAP6 POP DUP1 NOT DUP5 AND SWAP4 POP DUP1 DUP7 AND DUP5 OR SWAP3 POP POP POP SWAP4 SWAP3 POP POP POP JUMP JUMPDEST PUSH0 DUP2 SWAP1 POP SWAP2 SWAP1 POP JUMP JUMPDEST PUSH0 PUSH2 0x1673 PUSH2 0x166E PUSH2 0x1669 DUP5 PUSH2 0xCE8 JUMP JUMPDEST PUSH2 0x1650 JUMP JUMPDEST PUSH2 0xCE8 JUMP JUMPDEST SWAP1 POP SWAP2 SWAP1 POP JUMP JUMPDEST PUSH0 DUP2 SWAP1 POP SWAP2 SWAP1 POP JUMP JUMPDEST PUSH2 0x168C DUP4 PUSH2 0x1659 JUMP JUMPDEST PUSH2 0x16A0 PUSH2 0x1698 DUP3 PUSH2 0x167A JUMP JUMPDEST DUP5 DUP5 SLOAD PUSH2 0x15FF JUMP JUMPDEST DUP3 SSTORE POP POP POP POP JUMP JUMPDEST PUSH0 SWAP1 JUMP JUMPDEST PUSH2 0x16B4 PUSH2 0x16A8 JUMP JUMPDEST PUSH2 0x16BF DUP2 DUP5 DUP5 PUSH2 0x1683 JUMP JUMPDEST POP POP POP JUMP JUMPDEST JUMPDEST DUP2 DUP2 LT ISZERO PUSH2 0x16E2 JUMPI PUSH2 0x16D7 PUSH0 DUP3 PUSH2 0x16AC JUMP JUMPDEST PUSH1 0x1 DUP2 ADD SWAP1 POP PUSH2 0x16C5 JUMP JUMPDEST POP POP JUMP JUMPDEST PUSH1 0x1F DUP3 GT ISZERO PUSH2 0x1727 JUMPI PUSH2 0x16F8 DUP2 PUSH2 0x15D2 JUMP JUMPDEST PUSH2 0x1701 DUP5 PUSH2 0x15E4 JUMP JUMPDEST DUP2 ADD PUSH1 0x20 DUP6 LT ISZERO PUSH2 0x1710 JUMPI DUP2 SWAP1 POP JUMPDEST PUSH2 0x1724 PUSH2 0x171C DUP6 PUSH2 0x15E4 JUMP JUMPDEST DUP4 ADD DUP3 PUSH2 0x16C4 JUMP JUMPDEST POP POP JUMPDEST POP POP POP JUMP JUMPDEST PUSH0 DUP3 DUP3 SHR SWAP1 POP SWAP3 SWAP2 POP POP JUMP JUMPDEST PUSH0 PUSH2 0x1747 PUSH0 NOT DUP5 PUSH1 0x8 MUL PUSH2 0x172C JUMP JUMPDEST NOT DUP1 DUP4 AND SWAP2 POP POP SWAP3 SWAP2 POP POP JUMP JUMPDEST PUSH0 PUSH2 0x175F DUP4 DUP4 PUSH2 0x1738 JUMP JUMPDEST SWAP2 POP DUP3 PUSH1 0x2 MUL DUP3 OR SWAP1 POP SWAP3 SWAP2 POP POP JUMP JUMPDEST PUSH2 0x1778 DUP3 PUSH2 0xD85 JUMP JUMPDEST PUSH8 0xFFFFFFFFFFFFFFFF DUP2 GT ISZERO PUSH2 0x1791 JUMPI PUSH2 0x1790 PUSH2 0xEB0 JUMP JUMPDEST JUMPDEST PUSH2 0x179B DUP3 SLOAD PUSH2 0x12D2 JUMP JUMPDEST PUSH2 0x17A6 DUP3 DUP3 DUP6 PUSH2 0x16E6 JUMP JUMPDEST PUSH0 PUSH1 0x20 SWAP1 POP PUSH1 0x1F DUP4 GT PUSH1 0x1 DUP2 EQ PUSH2 0x17D7 JUMPI PUSH0 DUP5 ISZERO PUSH2 0x17C5 JUMPI DUP3 DUP8 ADD MLOAD SWAP1 POP JUMPDEST PUSH2 0x17CF DUP6 DUP3 PUSH2 0x1754 JUMP JUMPDEST DUP7 SSTORE POP PUSH2 0x1836 JUMP JUMPDEST PUSH1 0x1F NOT DUP5 AND PUSH2 0x17E5 DUP7 PUSH2 0x15D2 JUMP JUMPDEST PUSH0 JUMPDEST DUP3 DUP2 LT ISZERO PUSH2 0x180C JUMPI DUP5 DUP10 ADD MLOAD DUP3 SSTORE PUSH1 0x1 DUP3 ADD SWAP2 POP PUSH1 0x20 DUP6 ADD SWAP5 POP PUSH1 0x20 DUP2 ADD SWAP1 POP PUSH2 0x17E7 JUMP JUMPDEST DUP7 DUP4 LT ISZERO PUSH2 0x1829 JUMPI DUP5 DUP10 ADD MLOAD PUSH2 0x1825 PUSH1 0x1F DUP10 AND DUP3 PUSH2 0x1738 JUMP JUMPDEST DUP4 SSTORE POP JUMPDEST PUSH1 0x1 PUSH1 0x2 DUP9 MUL ADD DUP9 SSTORE POP POP POP JUMPDEST POP POP POP POP POP POP JUMP JUMPDEST PUSH32 0x436F6E747269627574696F6E206D757374206265203E20300000000000000000 PUSH0 DUP3 ADD MSTORE POP JUMP JUMPDEST PUSH0 PUSH2 0x1872 PUSH1 0x18 DUP4 PUSH2 0xD8F JUMP JUMPDEST SWAP2 POP PUSH2 0x187D DUP3 PUSH2 0x183E JUMP JUMPDEST PUSH1 0x20 DUP3 ADD SWAP1 POP SWAP2 SWAP1 POP JUMP JUMPDEST PUSH0 PUSH1 0x20 DUP3 ADD SWAP1 POP DUP2 DUP2 SUB PUSH0 DUP4 ADD MSTORE PUSH2 0x189F DUP2 PUSH2 0x1866 JUMP JUMPDEST SWAP1 POP SWAP2 SWAP1 POP JUMP INVALID LOG2 PUSH5 0x6970667358 0x22 SLT KECCAK256 EXTCODEHASH 0xAE GASPRICE 0xED JUMPI DUP2 STATICCALL 0x2E CALLCODE 0xBB DUP16 PUSH21 0xE633D335A7FA65936446313B33A941D0A33A51D564 PUSH20 0x6F6C634300081A00330000000000000000000000 "
				},
				"gasEstimates": {
					"creation": {
						"codeDepositCost": "1272800",
						"executionCost": "1320",
						"totalCost": "1274120"
					},
					"external": {
						"campaigns(uint256)": "infinite",
						"contribute(uint256)": "infinite",
						"createCampaign(string,string,uint256,uint256)": "infinite",
						"withdrawContributions(uint256)": "infinite",
						"withdrawFunds(uint256)": "infinite"
					}
				},
				"methodIdentifiers": {
					"campaigns(uint256)": "141961bc",
					"contribute(uint256)": "c1cbbca7",
					"createCampaign(string,string,uint256,uint256)": "a318f269",
					"withdrawContributions(uint256)": "0b008fd0",
					"withdrawFunds(uint256)": "155dd5ee"
				}
			},
			"storageLayout": {
				"storage": [
					{
						"astId": 26,
						"contract": "contracts/Crowdfunding.sol:Crowdfunding",
						"label": "campaigns",
						"offset": 0,
						"slot": "0",
						"type": "t_array(t_struct(Campaign)22_storage)dyn_storage"
					}
				],
				"types": {
					"t_address": {
						"encoding": "inplace",
						"label": "address",
						"numberOfBytes": "20"
					},
					"t_address_payable": {
						"encoding": "inplace",
						"label": "address payable",
						"numberOfBytes": "20"
					},
					"t_array(t_struct(Campaign)22_storage)dyn_storage": {
						"base": "t_struct(Campaign)22_storage",
						"encoding": "dynamic_array",
						"label": "struct Crowdfunding.Campaign[]",
						"numberOfBytes": "32"
					},
					"t_bool": {
						"encoding": "inplace",
						"label": "bool",
						"numberOfBytes": "1"
					},
					"t_mapping(t_address,t_uint256)": {
						"encoding": "mapping",
						"key": "t_address",
						"label": "mapping(address => uint256)",
						"numberOfBytes": "32",
						"value": "t_uint256"
					},
					"t_string_storage": {
						"encoding": "bytes",
						"label": "string",
						"numberOfBytes": "32"
					},
					"t_struct(Campaign)22_storage": {
						"encoding": "inplace",
						"label": "struct Crowdfunding.Campaign",
						"members": [
							{
								"astId": 3,
								"contract": "contracts/Crowdfunding.sol:Crowdfunding",
								"label": "creator",
								"offset": 0,
								"slot": "0",
								"type": "t_address_payable"
							},
							{
								"astId": 5,
								"contract": "contracts/Crowdfunding.sol:Crowdfunding",
								"label": "title",
								"offset": 0,
								"slot": "1",
								"type": "t_string_storage"
							},
							{
								"astId": 7,
								"contract": "contracts/Crowdfunding.sol:Crowdfunding",
								"label": "description",
								"offset": 0,
								"slot": "2",
								"type": "t_string_storage"
							},
							{
								"astId": 9,
								"contract": "contracts/Crowdfunding.sol:Crowdfunding",
								"label": "goal",
								"offset": 0,
								"slot": "3",
								"type": "t_uint256"
							},
							{
								"astId": 11,
								"contract": "contracts/Crowdfunding.sol:Crowdfunding",
								"label": "totalFunds",
								"offset": 0,
								"slot": "4",
								"type": "t_uint256"
							},
							{
								"astId": 13,
								"contract": "contracts/Crowdfunding.sol:Crowdfunding",
								"label": "deadline",
								"offset": 0,
								"slot": "5",
								"type": "t_uint256"
							},
							{
								"astId": 15,
								"contract": "contracts/Crowdfunding.sol:Crowdfunding",
								"label": "goalReached",
								"offset": 0,
								"slot": "6",
								"type": "t_bool"
							},
							{
								"astId": 17,
								"contract": "contracts/Crowdfunding.sol:Crowdfunding",
								"label": "closed",
								"offset": 1,
								"slot": "6",
								"type": "t_bool"
							},
							{
								"astId": 21,
								"contract": "contracts/Crowdfunding.sol:Crowdfunding",
								"label": "contributions",
								"offset": 0,
								"slot": "7",
								"type": "t_mapping(t_address,t_uint256)"
							}
						],
						"numberOfBytes": "256"
					},
					"t_uint256": {
						"encoding": "inplace",
						"label": "uint256",
						"numberOfBytes": "32"
					}
				}
			},
			"userdoc": {
				"kind": "user",
				"methods": {},
				"version": 1
			}
		}
	}
}