{
	"contracts/Crowdfunding.sol": {
		"Crowdfunding": {
			"abi": [
				{
					"anonymous": false,
					"inputs": [
						{
							"indexed": true,
							"internalType": "uint256",
							"name": "campaignId",
							"type": "uint256"
						},
						{
							"indexed": false,
							"internalType": "address",
							"name": "creator",
							"type": "address"
						}
					],
					"name": "CampaignCreated",
					"type": "event"
				},
				{
					"anonymous": false,
					"inputs": [
						{
							"indexed": true,
							"internalType": "uint256",
							"name": "campaignId",
							"type": "uint256"
						},
						{
							"indexed": false,
							"internalType": "address",
							"name": "contributor",
							"type": "address"
						},
						{
							"indexed": false,
							"internalType": "uint256",
							"name": "amount",
							"type": "uint256"
						}
					],
					"name": "ContributionMade",
					"type": "event"
				},
				{
					"anonymous": false,
					"inputs": [
						{
							"indexed": true,
							"internalType": "uint256",
							"name": "campaignId",
							"type": "uint256"
						},
						{
							"indexed": false,
							"internalType": "address",
							"name": "contributor",
							"type": "address"
						},
						{
							"indexed": false,
							"internalType": "uint256",
							"name": "amount",
							"type": "uint256"
						}
					],
					"name": "ContributionWithdrawn",
					"type": "event"
				},
				{
					"anonymous": false,
					"inputs": [
						{
							"indexed": true,
							"internalType": "uint256",
							"name": "campaignId",
							"type": "uint256"
						},
						{
							"indexed": false,
							"internalType": "address",
							"name": "creator",
							"type": "address"
						},
						{
							"indexed": false,
							"internalType": "uint256",
							"name": "amount",
							"type": "uint256"
						}
					],
					"name": "FundsWithdrawn",
					"type": "event"
				},
				{
					"inputs": [
						{
							"internalType": "uint256",
							"name": "",
							"type": "uint256"
						}
					],
					"name": "campaigns",
					"outputs": [
						{
							"internalType": "address payable",
							"name": "creator",
							"type": "address"
						},
						{
							"internalType": "string",
							"name": "title",
							"type": "string"
						},
						{
							"internalType": "string",
							"name": "description",
							"type": "string"
						},
						{
							"internalType": "uint256",
							"name": "goal",
							"type": "uint256"
						},
						{
							"internalType": "uint256",
							"name": "totalFunds",
							"type": "uint256"
						},
						{
							"internalType": "uint256",
							"name": "deadline",
							"type": "uint256"
						},
						{
							"internalType": "bool",
							"name": "goalReached",
							"type": "bool"
						},
						{
							"internalType": "bool",
							"name": "closed",
							"type": "bool"
						}
					],
					"stateMutability": "view",
					"type": "function"
				},
				{
					"inputs": [
						{
							"internalType": "uint256",
							"name": "campaignId",
							"type": "uint256"
						}
					],
					"name": "contribute",
					"outputs": [],
					"stateMutability": "payable",
					"type": "function"
				},
				{
					"inputs": [
						{
							"internalType": "string",
							"name": "_title",
							"type": "string"
						},
						{
							"internalType": "string",
							"name": "_description",
							"type": "string"
						},
						{
							"internalType": "uint256",
							"name": "_duration",
							"type": "uint256"
						},
						{
							"internalType": "uint256",
							"name": "_goal",
							"type": "uint256"
						}
					],
					"name": "createCampaign",
					"outputs": [
						{
							"internalType": "uint256",
							"name": "",
							"type": "uint256"
						}
					],
					"stateMutability": "nonpayable",
					"type": "function"
				},
				{
					"inputs": [
						{
							"internalType": "uint256",
							"name": "_campaignId",
							"type": "uint256"
						}
					],
					"name": "withdrawContribution",
					"outputs": [],
					"stateMutability": "nonpayable",
					"type": "function"
				},
				{
					"inputs": [
						{
							"internalType": "uint256",
							"name": "_campaignId",
							"type": "uint256"
						}
					],
					"name": "withdrawFunds",
					"outputs": [],
					"stateMutability": "nonpayable",
					"type": "function"
				}
			],
			"devdoc": {
				"kind": "dev",
				"methods": {},
				"version": 1
			},
			"evm": {
				"assembly": "    /* \"contracts/Crowdfunding.sol\":58:3817  contract Crowdfunding {... */\n  mstore(0x40, 0x80)\n  callvalue\n  dup1\n  iszero\n  tag_1\n  jumpi\n  0x00\n  dup1\n  revert\ntag_1:\n  pop\n  dataSize(sub_0)\n  dup1\n  dataOffset(sub_0)\n  0x00\n  codecopy\n  0x00\n  return\nstop\n\nsub_0: assembly {\n        /* \"contracts/Crowdfunding.sol\":58:3817  contract Crowdfunding {... */\n      mstore(0x40, 0x80)\n      jumpi(tag_1, lt(calldatasize, 0x04))\n      shr(0xe0, calldataload(0x00))\n      dup1\n      0x141961bc\n      eq\n      tag_2\n      jumpi\n      dup1\n      0x155dd5ee\n      eq\n      tag_3\n      jumpi\n      dup1\n      0xa318f269\n      eq\n      tag_4\n      jumpi\n      dup1\n      0xc1cbbca7\n      eq\n      tag_5\n      jumpi\n      dup1\n      0xd25090ff\n      eq\n      tag_6\n      jumpi\n    tag_1:\n      0x00\n      dup1\n      revert\n        /* \"contracts/Crowdfunding.sol\":372:399  Campaign[] public campaigns */\n    tag_2:\n      callvalue\n      dup1\n      iszero\n      tag_7\n      jumpi\n      0x00\n      dup1\n      revert\n    tag_7:\n      pop\n      tag_8\n      0x04\n      dup1\n      calldatasize\n      sub\n      dup2\n      add\n      swap1\n      tag_9\n      swap2\n      swap1\n      tag_10\n      jump\t// in\n    tag_9:\n      tag_11\n      jump\t// in\n    tag_8:\n      mload(0x40)\n      tag_12\n      swap9\n      swap8\n      swap7\n      swap6\n      swap5\n      swap4\n      swap3\n      swap2\n      swap1\n      tag_13\n      jump\t// in\n    tag_12:\n      mload(0x40)\n      dup1\n      swap2\n      sub\n      swap1\n      return\n        /* \"contracts/Crowdfunding.sol\":2601:3193  function withdrawFunds(uint256 _campaignId) external validCampaign(_campaignId) onlyCreator(_campaignId) {... */\n    tag_3:\n      callvalue\n      dup1\n      iszero\n      tag_14\n      jumpi\n      0x00\n      dup1\n      revert\n    tag_14:\n      pop\n      tag_15\n      0x04\n      dup1\n      calldatasize\n      sub\n      dup2\n      add\n      swap1\n      tag_16\n      swap2\n      swap1\n      tag_10\n      jump\t// in\n    tag_16:\n      tag_17\n      jump\t// in\n    tag_15:\n      stop\n        /* \"contracts/Crowdfunding.sol\":1265:2057  function createCampaign(... */\n    tag_4:\n      callvalue\n      dup1\n      iszero\n      tag_18\n      jumpi\n      0x00\n      dup1\n      revert\n    tag_18:\n      pop\n      tag_19\n      0x04\n      dup1\n      calldatasize\n      sub\n      dup2\n      add\n      swap1\n      tag_20\n      swap2\n      swap1\n      tag_21\n      jump\t// in\n    tag_20:\n      tag_22\n      jump\t// in\n    tag_19:\n      mload(0x40)\n      tag_23\n      swap2\n      swap1\n      tag_24\n      jump\t// in\n    tag_23:\n      mload(0x40)\n      dup1\n      swap2\n      sub\n      swap1\n      return\n        /* \"contracts/Crowdfunding.sol\":2063:2595  function contribute(uint256 campaignId) external payable validCampaign(campaignId) campaignActive(campaignId) {... */\n    tag_5:\n      tag_25\n      0x04\n      dup1\n      calldatasize\n      sub\n      dup2\n      add\n      swap1\n      tag_26\n      swap2\n      swap1\n      tag_10\n      jump\t// in\n    tag_26:\n      tag_27\n      jump\t// in\n    tag_25:\n      stop\n        /* \"contracts/Crowdfunding.sol\":3199:3815  function withdrawContribution(uint256 _campaignId) external validCampaign(_campaignId) {... */\n    tag_6:\n      callvalue\n      dup1\n      iszero\n      tag_28\n      jumpi\n      0x00\n      dup1\n      revert\n    tag_28:\n      pop\n      tag_29\n      0x04\n      dup1\n      calldatasize\n      sub\n      dup2\n      add\n      swap1\n      tag_30\n      swap2\n      swap1\n      tag_10\n      jump\t// in\n    tag_30:\n      tag_31\n      jump\t// in\n    tag_29:\n      stop\n        /* \"contracts/Crowdfunding.sol\":372:399  Campaign[] public campaigns */\n    tag_11:\n      0x00\n      dup2\n      dup2\n      sload\n      dup2\n      lt\n      tag_32\n      jumpi\n      0x00\n      dup1\n      revert\n    tag_32:\n      swap1\n      0x00\n      mstore\n      keccak256(0x00, 0x20)\n      swap1\n      0x08\n      mul\n      add\n      0x00\n      swap2\n      pop\n      swap1\n      pop\n      dup1\n      0x00\n      add\n      0x00\n      swap1\n      sload\n      swap1\n      0x0100\n      exp\n      swap1\n      div\n      0xffffffffffffffffffffffffffffffffffffffff\n      and\n      swap1\n      dup1\n      0x01\n      add\n      dup1\n      sload\n      tag_34\n      swap1\n      tag_35\n      jump\t// in\n    tag_34:\n      dup1\n      0x1f\n      add\n      0x20\n      dup1\n      swap2\n      div\n      mul\n      0x20\n      add\n      mload(0x40)\n      swap1\n      dup2\n      add\n      0x40\n      mstore\n      dup1\n      swap3\n      swap2\n      swap1\n      dup2\n      dup2\n      mstore\n      0x20\n      add\n      dup3\n      dup1\n      sload\n      tag_36\n      swap1\n      tag_35\n      jump\t// in\n    tag_36:\n      dup1\n      iszero\n      tag_37\n      jumpi\n      dup1\n      0x1f\n      lt\n      tag_38\n      jumpi\n      0x0100\n      dup1\n      dup4\n      sload\n      div\n      mul\n      dup4\n      mstore\n      swap2\n      0x20\n      add\n      swap2\n      jump(tag_37)\n    tag_38:\n      dup3\n      add\n      swap2\n      swap1\n      0x00\n      mstore\n      keccak256(0x00, 0x20)\n      swap1\n    tag_39:\n      dup2\n      sload\n      dup2\n      mstore\n      swap1\n      0x01\n      add\n      swap1\n      0x20\n      add\n      dup1\n      dup4\n      gt\n      tag_39\n      jumpi\n      dup3\n      swap1\n      sub\n      0x1f\n      and\n      dup3\n      add\n      swap2\n    tag_37:\n      pop\n      pop\n      pop\n      pop\n      pop\n      swap1\n      dup1\n      0x02\n      add\n      dup1\n      sload\n      tag_40\n      swap1\n      tag_35\n      jump\t// in\n    tag_40:\n      dup1\n      0x1f\n      add\n      0x20\n      dup1\n      swap2\n      div\n      mul\n      0x20\n      add\n      mload(0x40)\n      swap1\n      dup2\n      add\n      0x40\n      mstore\n      dup1\n      swap3\n      swap2\n      swap1\n      dup2\n      dup2\n      mstore\n      0x20\n      add\n      dup3\n      dup1\n      sload\n      tag_41\n      swap1\n      tag_35\n      jump\t// in\n    tag_41:\n      dup1\n      iszero\n      tag_42\n      jumpi\n      dup1\n      0x1f\n      lt\n      tag_43\n      jumpi\n      0x0100\n      dup1\n      dup4\n      sload\n      div\n      mul\n      dup4\n      mstore\n      swap2\n      0x20\n      add\n      swap2\n      jump(tag_42)\n    tag_43:\n      dup3\n      add\n      swap2\n      swap1\n      0x00\n      mstore\n      keccak256(0x00, 0x20)\n      swap1\n    tag_44:\n      dup2\n      sload\n      dup2\n      mstore\n      swap1\n      0x01\n      add\n      swap1\n      0x20\n      add\n      dup1\n      dup4\n      gt\n      tag_44\n      jumpi\n      dup3\n      swap1\n      sub\n      0x1f\n      and\n      dup3\n      add\n      swap2\n    tag_42:\n      pop\n      pop\n      pop\n      pop\n      pop\n      swap1\n      dup1\n      0x03\n      add\n      sload\n      swap1\n      dup1\n      0x04\n      add\n      sload\n      swap1\n      dup1\n      0x05\n      add\n      sload\n      swap1\n      dup1\n      0x06\n      add\n      0x00\n      swap1\n      sload\n      swap1\n      0x0100\n      exp\n      swap1\n      div\n      0xff\n      and\n      swap1\n      dup1\n      0x06\n      add\n      0x01\n      swap1\n      sload\n      swap1\n      0x0100\n      exp\n      swap1\n      div\n      0xff\n      and\n      swap1\n      pop\n      dup9\n      jump\t// out\n        /* \"contracts/Crowdfunding.sol\":2601:3193  function withdrawFunds(uint256 _campaignId) external validCampaign(_campaignId) onlyCreator(_campaignId) {... */\n    tag_17:\n        /* \"contracts/Crowdfunding.sol\":2668:2679  _campaignId */\n      dup1\n        /* \"contracts/Crowdfunding.sol\":482:491  campaigns */\n      0x00\n        /* \"contracts/Crowdfunding.sol\":482:498  campaigns.length */\n      dup1\n      sload\n      swap1\n      pop\n        /* \"contracts/Crowdfunding.sol\":468:479  _campaignId */\n      dup2\n        /* \"contracts/Crowdfunding.sol\":468:498  _campaignId < campaigns.length */\n      lt\n        /* \"contracts/Crowdfunding.sol\":460:522  require(_campaignId < campaigns.length, \"Invalid campaign ID\") */\n      tag_46\n      jumpi\n      mload(0x40)\n      0x08c379a000000000000000000000000000000000000000000000000000000000\n      dup2\n      mstore\n      0x04\n      add\n      tag_47\n      swap1\n      tag_48\n      jump\t// in\n    tag_47:\n      mload(0x40)\n      dup1\n      swap2\n      sub\n      swap1\n      revert\n    tag_46:\n        /* \"contracts/Crowdfunding.sol\":2693:2704  _campaignId */\n      dup2\n        /* \"contracts/Crowdfunding.sol\":640:650  msg.sender */\n      caller\n        /* \"contracts/Crowdfunding.sol\":606:650  campaigns[_campaignId].creator == msg.sender */\n      0xffffffffffffffffffffffffffffffffffffffff\n      and\n        /* \"contracts/Crowdfunding.sol\":606:615  campaigns */\n      0x00\n        /* \"contracts/Crowdfunding.sol\":616:627  _campaignId */\n      dup3\n        /* \"contracts/Crowdfunding.sol\":606:628  campaigns[_campaignId] */\n      dup2\n      sload\n      dup2\n      lt\n      tag_50\n      jumpi\n      tag_51\n      tag_52\n      jump\t// in\n    tag_51:\n    tag_50:\n      swap1\n      0x00\n      mstore\n      keccak256(0x00, 0x20)\n      swap1\n      0x08\n      mul\n      add\n        /* \"contracts/Crowdfunding.sol\":606:636  campaigns[_campaignId].creator */\n      0x00\n      add\n      0x00\n      swap1\n      sload\n      swap1\n      0x0100\n      exp\n      swap1\n      div\n      0xffffffffffffffffffffffffffffffffffffffff\n      and\n        /* \"contracts/Crowdfunding.sol\":606:650  campaigns[_campaignId].creator == msg.sender */\n      0xffffffffffffffffffffffffffffffffffffffff\n      and\n      eq\n        /* \"contracts/Crowdfunding.sol\":598:667  require(campaigns[_campaignId].creator == msg.sender, \"Unauthorized\") */\n      tag_54\n      jumpi\n      mload(0x40)\n      0x08c379a000000000000000000000000000000000000000000000000000000000\n      dup2\n      mstore\n      0x04\n      add\n      tag_55\n      swap1\n      tag_56\n      jump\t// in\n    tag_55:\n      mload(0x40)\n      dup1\n      swap2\n      sub\n      swap1\n      revert\n    tag_54:\n        /* \"contracts/Crowdfunding.sol\":2716:2741  Campaign storage campaign */\n      0x00\n        /* \"contracts/Crowdfunding.sol\":2744:2753  campaigns */\n      dup1\n        /* \"contracts/Crowdfunding.sol\":2754:2765  _campaignId */\n      dup5\n        /* \"contracts/Crowdfunding.sol\":2744:2766  campaigns[_campaignId] */\n      dup2\n      sload\n      dup2\n      lt\n      tag_58\n      jumpi\n      tag_59\n      tag_52\n      jump\t// in\n    tag_59:\n    tag_58:\n      swap1\n      0x00\n      mstore\n      keccak256(0x00, 0x20)\n      swap1\n      0x08\n      mul\n      add\n        /* \"contracts/Crowdfunding.sol\":2716:2766  Campaign storage campaign = campaigns[_campaignId] */\n      swap1\n      pop\n        /* \"contracts/Crowdfunding.sol\":2784:2792  campaign */\n      dup1\n        /* \"contracts/Crowdfunding.sol\":2784:2804  campaign.goalReached */\n      0x06\n      add\n      0x00\n      swap1\n      sload\n      swap1\n      0x0100\n      exp\n      swap1\n      div\n      0xff\n      and\n        /* \"contracts/Crowdfunding.sol\":2776:2825  require(campaign.goalReached, \"Goal not reached\") */\n      tag_61\n      jumpi\n      mload(0x40)\n      0x08c379a000000000000000000000000000000000000000000000000000000000\n      dup2\n      mstore\n      0x04\n      add\n      tag_62\n      swap1\n      tag_63\n      jump\t// in\n    tag_62:\n      mload(0x40)\n      dup1\n      swap2\n      sub\n      swap1\n      revert\n    tag_61:\n        /* \"contracts/Crowdfunding.sol\":2862:2870  campaign */\n      dup1\n        /* \"contracts/Crowdfunding.sol\":2862:2879  campaign.deadline */\n      0x05\n      add\n      sload\n        /* \"contracts/Crowdfunding.sol\":2843:2858  block.timestamp */\n      timestamp\n        /* \"contracts/Crowdfunding.sol\":2843:2879  block.timestamp >= campaign.deadline */\n      lt\n      iszero\n        /* \"contracts/Crowdfunding.sol\":2835:2903  require(block.timestamp >= campaign.deadline, \"Deadline not passed\") */\n      tag_64\n      jumpi\n      mload(0x40)\n      0x08c379a000000000000000000000000000000000000000000000000000000000\n      dup2\n      mstore\n      0x04\n      add\n      tag_65\n      swap1\n      tag_66\n      jump\t// in\n    tag_65:\n      mload(0x40)\n      dup1\n      swap2\n      sub\n      swap1\n      revert\n    tag_64:\n        /* \"contracts/Crowdfunding.sol\":2922:2930  campaign */\n      dup1\n        /* \"contracts/Crowdfunding.sol\":2922:2937  campaign.closed */\n      0x06\n      add\n      0x01\n      swap1\n      sload\n      swap1\n      0x0100\n      exp\n      swap1\n      div\n      0xff\n      and\n        /* \"contracts/Crowdfunding.sol\":2921:2937  !campaign.closed */\n      iszero\n        /* \"contracts/Crowdfunding.sol\":2913:2965  require(!campaign.closed, \"Funds already withdrawn\") */\n      tag_67\n      jumpi\n      mload(0x40)\n      0x08c379a000000000000000000000000000000000000000000000000000000000\n      dup2\n      mstore\n      0x04\n      add\n      tag_68\n      swap1\n      tag_69\n      jump\t// in\n    tag_68:\n      mload(0x40)\n      dup1\n      swap2\n      sub\n      swap1\n      revert\n    tag_67:\n        /* \"contracts/Crowdfunding.sol\":2976:2990  uint256 amount */\n      0x00\n        /* \"contracts/Crowdfunding.sol\":2993:3001  campaign */\n      dup2\n        /* \"contracts/Crowdfunding.sol\":2993:3012  campaign.totalFunds */\n      0x04\n      add\n      sload\n        /* \"contracts/Crowdfunding.sol\":2976:3012  uint256 amount = campaign.totalFunds */\n      swap1\n      pop\n        /* \"contracts/Crowdfunding.sol\":3044:3045  0 */\n      0x00\n        /* \"contracts/Crowdfunding.sol\":3022:3030  campaign */\n      dup3\n        /* \"contracts/Crowdfunding.sol\":3022:3041  campaign.totalFunds */\n      0x04\n      add\n        /* \"contracts/Crowdfunding.sol\":3022:3045  campaign.totalFunds = 0 */\n      dup2\n      swap1\n      sstore\n      pop\n        /* \"contracts/Crowdfunding.sol\":3073:3077  true */\n      0x01\n        /* \"contracts/Crowdfunding.sol\":3055:3063  campaign */\n      dup3\n        /* \"contracts/Crowdfunding.sol\":3055:3070  campaign.closed */\n      0x06\n      add\n      0x01\n        /* \"contracts/Crowdfunding.sol\":3055:3077  campaign.closed = true */\n      0x0100\n      exp\n      dup2\n      sload\n      dup2\n      0xff\n      mul\n      not\n      and\n      swap1\n      dup4\n      iszero\n      iszero\n      mul\n      or\n      swap1\n      sstore\n      pop\n        /* \"contracts/Crowdfunding.sol\":3096:3106  msg.sender */\n      caller\n        /* \"contracts/Crowdfunding.sol\":3088:3116  payable(msg.sender).transfer */\n      0xffffffffffffffffffffffffffffffffffffffff\n      and\n        /* \"contracts/Crowdfunding.sol\":3088:3124  payable(msg.sender).transfer(amount) */\n      0x08fc\n        /* \"contracts/Crowdfunding.sol\":3117:3123  amount */\n      dup3\n        /* \"contracts/Crowdfunding.sol\":3088:3124  payable(msg.sender).transfer(amount) */\n      swap1\n      dup2\n      iszero\n      mul\n      swap1\n      mload(0x40)\n      0x00\n      mload(0x40)\n      dup1\n      dup4\n      sub\n      dup2\n      dup6\n      dup9\n      dup9\n      call\n      swap4\n      pop\n      pop\n      pop\n      pop\n      iszero\n      dup1\n      iszero\n      tag_71\n      jumpi\n      returndatasize\n      0x00\n      dup1\n      returndatacopy\n      revert(0x00, returndatasize)\n    tag_71:\n      pop\n        /* \"contracts/Crowdfunding.sol\":3154:3165  _campaignId */\n      dup5\n        /* \"contracts/Crowdfunding.sol\":3139:3186  FundsWithdrawn(_campaignId, msg.sender, amount) */\n      0xf440aec6b52895984d061d622e6edeba6210f7c3e059be920663140c084560d7\n        /* \"contracts/Crowdfunding.sol\":3167:3177  msg.sender */\n      caller\n        /* \"contracts/Crowdfunding.sol\":3179:3185  amount */\n      dup4\n        /* \"contracts/Crowdfunding.sol\":3139:3186  FundsWithdrawn(_campaignId, msg.sender, amount) */\n      mload(0x40)\n      tag_72\n      swap3\n      swap2\n      swap1\n      tag_73\n      jump\t// in\n    tag_72:\n      mload(0x40)\n      dup1\n      swap2\n      sub\n      swap1\n      log2\n        /* \"contracts/Crowdfunding.sol\":2706:3193  {... */\n      pop\n      pop\n        /* \"contracts/Crowdfunding.sol\":532:533  _ */\n      pop\n        /* \"contracts/Crowdfunding.sol\":2601:3193  function withdrawFunds(uint256 _campaignId) external validCampaign(_campaignId) onlyCreator(_campaignId) {... */\n      pop\n      pop\n      jump\t// out\n        /* \"contracts/Crowdfunding.sol\":1265:2057  function createCampaign(... */\n    tag_22:\n        /* \"contracts/Crowdfunding.sol\":1433:1440  uint256 */\n      0x00\n        /* \"contracts/Crowdfunding.sol\":1468:1469  0 */\n      dup1\n        /* \"contracts/Crowdfunding.sol\":1460:1465  _goal */\n      dup3\n        /* \"contracts/Crowdfunding.sol\":1460:1469  _goal > 0 */\n      gt\n        /* \"contracts/Crowdfunding.sol\":1452:1490  require(_goal > 0, \"Goal must be > 0\") */\n      tag_75\n      jumpi\n      mload(0x40)\n      0x08c379a000000000000000000000000000000000000000000000000000000000\n      dup2\n      mstore\n      0x04\n      add\n      tag_76\n      swap1\n      tag_77\n      jump\t// in\n    tag_76:\n      mload(0x40)\n      dup1\n      swap2\n      sub\n      swap1\n      revert\n    tag_75:\n        /* \"contracts/Crowdfunding.sol\":1520:1521  0 */\n      0x00\n        /* \"contracts/Crowdfunding.sol\":1508:1517  _duration */\n      dup4\n        /* \"contracts/Crowdfunding.sol\":1508:1521  _duration > 0 */\n      gt\n        /* \"contracts/Crowdfunding.sol\":1500:1546  require(_duration > 0, \"Duration must be > 0\") */\n      tag_78\n      jumpi\n      mload(0x40)\n      0x08c379a000000000000000000000000000000000000000000000000000000000\n      dup2\n      mstore\n      0x04\n      add\n      tag_79\n      swap1\n      tag_80\n      jump\t// in\n    tag_79:\n      mload(0x40)\n      dup1\n      swap2\n      sub\n      swap1\n      revert\n    tag_78:\n        /* \"contracts/Crowdfunding.sol\":1557:1573  uint256 deadline */\n      0x00\n        /* \"contracts/Crowdfunding.sol\":1594:1603  _duration */\n      dup4\n        /* \"contracts/Crowdfunding.sol\":1576:1591  block.timestamp */\n      timestamp\n        /* \"contracts/Crowdfunding.sol\":1576:1603  block.timestamp + _duration */\n      tag_81\n      swap2\n      swap1\n      tag_82\n      jump\t// in\n    tag_81:\n        /* \"contracts/Crowdfunding.sol\":1557:1603  uint256 deadline = block.timestamp + _duration */\n      swap1\n      pop\n        /* \"contracts/Crowdfunding.sol\":1613:1641  Campaign storage newCampaign */\n      0x00\n        /* \"contracts/Crowdfunding.sol\":1644:1653  campaigns */\n      dup1\n        /* \"contracts/Crowdfunding.sol\":1644:1660  campaigns.push() */\n      0x01\n      dup2\n      0x01\n      dup2\n      sload\n      add\n      dup1\n      dup3\n      sstore\n      dup1\n      swap2\n      pop\n      pop\n      sub\n      swap1\n      0x00\n      mstore\n      keccak256(0x00, 0x20)\n      swap1\n      0x08\n      mul\n      add\n        /* \"contracts/Crowdfunding.sol\":1613:1660  Campaign storage newCampaign = campaigns.push() */\n      swap1\n      pop\n        /* \"contracts/Crowdfunding.sol\":1701:1711  msg.sender */\n      caller\n        /* \"contracts/Crowdfunding.sol\":1671:1682  newCampaign */\n      dup2\n        /* \"contracts/Crowdfunding.sol\":1671:1690  newCampaign.creator */\n      0x00\n      add\n      0x00\n        /* \"contracts/Crowdfunding.sol\":1671:1712  newCampaign.creator = payable(msg.sender) */\n      0x0100\n      exp\n      dup2\n      sload\n      dup2\n      0xffffffffffffffffffffffffffffffffffffffff\n      mul\n      not\n      and\n      swap1\n      dup4\n      0xffffffffffffffffffffffffffffffffffffffff\n      and\n      mul\n      or\n      swap1\n      sstore\n      pop\n        /* \"contracts/Crowdfunding.sol\":1742:1748  _title */\n      dup9\n      dup9\n        /* \"contracts/Crowdfunding.sol\":1722:1733  newCampaign */\n      dup3\n        /* \"contracts/Crowdfunding.sol\":1722:1739  newCampaign.title */\n      0x01\n      add\n        /* \"contracts/Crowdfunding.sol\":1722:1748  newCampaign.title = _title */\n      swap2\n      dup3\n      tag_84\n      swap3\n      swap2\n      swap1\n      tag_85\n      jump\t// in\n    tag_84:\n      pop\n        /* \"contracts/Crowdfunding.sol\":1784:1796  _description */\n      dup7\n      dup7\n        /* \"contracts/Crowdfunding.sol\":1758:1769  newCampaign */\n      dup3\n        /* \"contracts/Crowdfunding.sol\":1758:1781  newCampaign.description */\n      0x02\n      add\n        /* \"contracts/Crowdfunding.sol\":1758:1796  newCampaign.description = _description */\n      swap2\n      dup3\n      tag_86\n      swap3\n      swap2\n      swap1\n      tag_85\n      jump\t// in\n    tag_86:\n      pop\n        /* \"contracts/Crowdfunding.sol\":1825:1830  _goal */\n      dup4\n        /* \"contracts/Crowdfunding.sol\":1806:1817  newCampaign */\n      dup2\n        /* \"contracts/Crowdfunding.sol\":1806:1822  newCampaign.goal */\n      0x03\n      add\n        /* \"contracts/Crowdfunding.sol\":1806:1830  newCampaign.goal = _goal */\n      dup2\n      swap1\n      sstore\n      pop\n        /* \"contracts/Crowdfunding.sol\":1863:1871  deadline */\n      dup2\n        /* \"contracts/Crowdfunding.sol\":1840:1851  newCampaign */\n      dup2\n        /* \"contracts/Crowdfunding.sol\":1840:1860  newCampaign.deadline */\n      0x05\n      add\n        /* \"contracts/Crowdfunding.sol\":1840:1871  newCampaign.deadline = deadline */\n      dup2\n      swap1\n      sstore\n      pop\n        /* \"contracts/Crowdfunding.sol\":1907:1912  false */\n      0x00\n        /* \"contracts/Crowdfunding.sol\":1881:1892  newCampaign */\n      dup2\n        /* \"contracts/Crowdfunding.sol\":1881:1904  newCampaign.goalReached */\n      0x06\n      add\n      0x00\n        /* \"contracts/Crowdfunding.sol\":1881:1912  newCampaign.goalReached = false */\n      0x0100\n      exp\n      dup2\n      sload\n      dup2\n      0xff\n      mul\n      not\n      and\n      swap1\n      dup4\n      iszero\n      iszero\n      mul\n      or\n      swap1\n      sstore\n      pop\n        /* \"contracts/Crowdfunding.sol\":1943:1948  false */\n      0x00\n        /* \"contracts/Crowdfunding.sol\":1922:1933  newCampaign */\n      dup2\n        /* \"contracts/Crowdfunding.sol\":1922:1940  newCampaign.closed */\n      0x06\n      add\n      0x01\n        /* \"contracts/Crowdfunding.sol\":1922:1948  newCampaign.closed = false */\n      0x0100\n      exp\n      dup2\n      sload\n      dup2\n      0xff\n      mul\n      not\n      and\n      swap1\n      dup4\n      iszero\n      iszero\n      mul\n      or\n      swap1\n      sstore\n      pop\n        /* \"contracts/Crowdfunding.sol\":1999:2000  1 */\n      0x01\n        /* \"contracts/Crowdfunding.sol\":1980:1989  campaigns */\n      0x00\n        /* \"contracts/Crowdfunding.sol\":1980:1996  campaigns.length */\n      dup1\n      sload\n      swap1\n      pop\n        /* \"contracts/Crowdfunding.sol\":1980:2000  campaigns.length - 1 */\n      tag_87\n      swap2\n      swap1\n      tag_88\n      jump\t// in\n    tag_87:\n        /* \"contracts/Crowdfunding.sol\":1964:2013  CampaignCreated(campaigns.length - 1, msg.sender) */\n      0x633109eec20320eded000fc1e2634211aa7e92ba3f5b15faf6dcdafca05094e4\n        /* \"contracts/Crowdfunding.sol\":2002:2012  msg.sender */\n      caller\n        /* \"contracts/Crowdfunding.sol\":1964:2013  CampaignCreated(campaigns.length - 1, msg.sender) */\n      mload(0x40)\n      tag_89\n      swap2\n      swap1\n      tag_90\n      jump\t// in\n    tag_89:\n      mload(0x40)\n      dup1\n      swap2\n      sub\n      swap1\n      log2\n        /* \"contracts/Crowdfunding.sol\":2049:2050  1 */\n      0x01\n        /* \"contracts/Crowdfunding.sol\":2030:2039  campaigns */\n      0x00\n        /* \"contracts/Crowdfunding.sol\":2030:2046  campaigns.length */\n      dup1\n      sload\n      swap1\n      pop\n        /* \"contracts/Crowdfunding.sol\":2030:2050  campaigns.length - 1 */\n      tag_91\n      swap2\n      swap1\n      tag_88\n      jump\t// in\n    tag_91:\n        /* \"contracts/Crowdfunding.sol\":2023:2050  return campaigns.length - 1 */\n      swap3\n      pop\n      pop\n      pop\n        /* \"contracts/Crowdfunding.sol\":1265:2057  function createCampaign(... */\n      swap7\n      swap6\n      pop\n      pop\n      pop\n      pop\n      pop\n      pop\n      jump\t// out\n        /* \"contracts/Crowdfunding.sol\":2063:2595  function contribute(uint256 campaignId) external payable validCampaign(campaignId) campaignActive(campaignId) {... */\n    tag_27:\n        /* \"contracts/Crowdfunding.sol\":2134:2144  campaignId */\n      dup1\n        /* \"contracts/Crowdfunding.sol\":482:491  campaigns */\n      0x00\n        /* \"contracts/Crowdfunding.sol\":482:498  campaigns.length */\n      dup1\n      sload\n      swap1\n      pop\n        /* \"contracts/Crowdfunding.sol\":468:479  _campaignId */\n      dup2\n        /* \"contracts/Crowdfunding.sol\":468:498  _campaignId < campaigns.length */\n      lt\n        /* \"contracts/Crowdfunding.sol\":460:522  require(_campaignId < campaigns.length, \"Invalid campaign ID\") */\n      tag_93\n      jumpi\n      mload(0x40)\n      0x08c379a000000000000000000000000000000000000000000000000000000000\n      dup2\n      mstore\n      0x04\n      add\n      tag_94\n      swap1\n      tag_48\n      jump\t// in\n    tag_94:\n      mload(0x40)\n      dup1\n      swap2\n      sub\n      swap1\n      revert\n    tag_93:\n        /* \"contracts/Crowdfunding.sol\":2161:2171  campaignId */\n      dup2\n        /* \"contracts/Crowdfunding.sol\":755:764  campaigns */\n      0x00\n        /* \"contracts/Crowdfunding.sol\":765:776  _campaignId */\n      dup2\n        /* \"contracts/Crowdfunding.sol\":755:777  campaigns[_campaignId] */\n      dup2\n      sload\n      dup2\n      lt\n      tag_96\n      jumpi\n      tag_97\n      tag_52\n      jump\t// in\n    tag_97:\n    tag_96:\n      swap1\n      0x00\n      mstore\n      keccak256(0x00, 0x20)\n      swap1\n      0x08\n      mul\n      add\n        /* \"contracts/Crowdfunding.sol\":755:784  campaigns[_campaignId].closed */\n      0x06\n      add\n      0x01\n      swap1\n      sload\n      swap1\n      0x0100\n      exp\n      swap1\n      div\n      0xff\n      and\n        /* \"contracts/Crowdfunding.sol\":754:784  !campaigns[_campaignId].closed */\n      iszero\n        /* \"contracts/Crowdfunding.sol\":746:804  require(!campaigns[_campaignId].closed, \"Campaign closed\") */\n      tag_99\n      jumpi\n      mload(0x40)\n      0x08c379a000000000000000000000000000000000000000000000000000000000\n      dup2\n      mstore\n      0x04\n      add\n      tag_100\n      swap1\n      tag_101\n      jump\t// in\n    tag_100:\n      mload(0x40)\n      dup1\n      swap2\n      sub\n      swap1\n      revert\n    tag_99:\n        /* \"contracts/Crowdfunding.sol\":840:849  campaigns */\n      0x00\n        /* \"contracts/Crowdfunding.sol\":850:861  _campaignId */\n      dup2\n        /* \"contracts/Crowdfunding.sol\":840:862  campaigns[_campaignId] */\n      dup2\n      sload\n      dup2\n      lt\n      tag_102\n      jumpi\n      tag_103\n      tag_52\n      jump\t// in\n    tag_103:\n    tag_102:\n      swap1\n      0x00\n      mstore\n      keccak256(0x00, 0x20)\n      swap1\n      0x08\n      mul\n      add\n        /* \"contracts/Crowdfunding.sol\":840:871  campaigns[_campaignId].deadline */\n      0x05\n      add\n      sload\n        /* \"contracts/Crowdfunding.sol\":822:837  block.timestamp */\n      timestamp\n        /* \"contracts/Crowdfunding.sol\":822:871  block.timestamp < campaigns[_campaignId].deadline */\n      lt\n        /* \"contracts/Crowdfunding.sol\":814:890  require(block.timestamp < campaigns[_campaignId].deadline, \"Campaign ended\") */\n      tag_105\n      jumpi\n      mload(0x40)\n      0x08c379a000000000000000000000000000000000000000000000000000000000\n      dup2\n      mstore\n      0x04\n      add\n      tag_106\n      swap1\n      tag_107\n      jump\t// in\n    tag_106:\n      mload(0x40)\n      dup1\n      swap2\n      sub\n      swap1\n      revert\n    tag_105:\n        /* \"contracts/Crowdfunding.sol\":2203:2204  0 */\n      0x00\n        /* \"contracts/Crowdfunding.sol\":2191:2200  msg.value */\n      callvalue\n        /* \"contracts/Crowdfunding.sol\":2191:2204  msg.value > 0 */\n      gt\n        /* \"contracts/Crowdfunding.sol\":2183:2233  require(msg.value > 0, \"Contribution must be > 0\") */\n      tag_109\n      jumpi\n      mload(0x40)\n      0x08c379a000000000000000000000000000000000000000000000000000000000\n      dup2\n      mstore\n      0x04\n      add\n      tag_110\n      swap1\n      tag_111\n      jump\t// in\n    tag_110:\n      mload(0x40)\n      dup1\n      swap2\n      sub\n      swap1\n      revert\n    tag_109:\n        /* \"contracts/Crowdfunding.sol\":2244:2269  Campaign storage campaign */\n      0x00\n        /* \"contracts/Crowdfunding.sol\":2272:2281  campaigns */\n      dup1\n        /* \"contracts/Crowdfunding.sol\":2282:2292  campaignId */\n      dup5\n        /* \"contracts/Crowdfunding.sol\":2272:2293  campaigns[campaignId] */\n      dup2\n      sload\n      dup2\n      lt\n      tag_112\n      jumpi\n      tag_113\n      tag_52\n      jump\t// in\n    tag_113:\n    tag_112:\n      swap1\n      0x00\n      mstore\n      keccak256(0x00, 0x20)\n      swap1\n      0x08\n      mul\n      add\n        /* \"contracts/Crowdfunding.sol\":2244:2293  Campaign storage campaign = campaigns[campaignId] */\n      swap1\n      pop\n        /* \"contracts/Crowdfunding.sol\":2341:2350  msg.value */\n      callvalue\n        /* \"contracts/Crowdfunding.sol\":2303:2311  campaign */\n      dup2\n        /* \"contracts/Crowdfunding.sol\":2303:2325  campaign.contributions */\n      0x07\n      add\n        /* \"contracts/Crowdfunding.sol\":2303:2337  campaign.contributions[msg.sender] */\n      0x00\n        /* \"contracts/Crowdfunding.sol\":2326:2336  msg.sender */\n      caller\n        /* \"contracts/Crowdfunding.sol\":2303:2337  campaign.contributions[msg.sender] */\n      0xffffffffffffffffffffffffffffffffffffffff\n      and\n      0xffffffffffffffffffffffffffffffffffffffff\n      and\n      dup2\n      mstore\n      0x20\n      add\n      swap1\n      dup2\n      mstore\n      0x20\n      add\n      0x00\n      keccak256\n      0x00\n        /* \"contracts/Crowdfunding.sol\":2303:2350  campaign.contributions[msg.sender] += msg.value */\n      dup3\n      dup3\n      sload\n      tag_115\n      swap2\n      swap1\n      tag_82\n      jump\t// in\n    tag_115:\n      swap3\n      pop\n      pop\n      dup2\n      swap1\n      sstore\n      pop\n        /* \"contracts/Crowdfunding.sol\":2383:2392  msg.value */\n      callvalue\n        /* \"contracts/Crowdfunding.sol\":2360:2368  campaign */\n      dup2\n        /* \"contracts/Crowdfunding.sol\":2360:2379  campaign.totalFunds */\n      0x04\n      add\n      0x00\n        /* \"contracts/Crowdfunding.sol\":2360:2392  campaign.totalFunds += msg.value */\n      dup3\n      dup3\n      sload\n      tag_116\n      swap2\n      swap1\n      tag_82\n      jump\t// in\n    tag_116:\n      swap3\n      pop\n      pop\n      dup2\n      swap1\n      sstore\n      pop\n        /* \"contracts/Crowdfunding.sol\":2430:2438  campaign */\n      dup1\n        /* \"contracts/Crowdfunding.sol\":2430:2443  campaign.goal */\n      0x03\n      add\n      sload\n        /* \"contracts/Crowdfunding.sol\":2407:2415  campaign */\n      dup2\n        /* \"contracts/Crowdfunding.sol\":2407:2426  campaign.totalFunds */\n      0x04\n      add\n      sload\n        /* \"contracts/Crowdfunding.sol\":2407:2443  campaign.totalFunds >= campaign.goal */\n      lt\n      iszero\n        /* \"contracts/Crowdfunding.sol\":2407:2468  campaign.totalFunds >= campaign.goal && !campaign.goalReached */\n      dup1\n      iszero\n      tag_117\n      jumpi\n      pop\n        /* \"contracts/Crowdfunding.sol\":2448:2456  campaign */\n      dup1\n        /* \"contracts/Crowdfunding.sol\":2448:2468  campaign.goalReached */\n      0x06\n      add\n      0x00\n      swap1\n      sload\n      swap1\n      0x0100\n      exp\n      swap1\n      div\n      0xff\n      and\n        /* \"contracts/Crowdfunding.sol\":2447:2468  !campaign.goalReached */\n      iszero\n        /* \"contracts/Crowdfunding.sol\":2407:2468  campaign.totalFunds >= campaign.goal && !campaign.goalReached */\n    tag_117:\n        /* \"contracts/Crowdfunding.sol\":2403:2522  if (campaign.totalFunds >= campaign.goal && !campaign.goalReached) {... */\n      iszero\n      tag_118\n      jumpi\n        /* \"contracts/Crowdfunding.sol\":2507:2511  true */\n      0x01\n        /* \"contracts/Crowdfunding.sol\":2484:2492  campaign */\n      dup2\n        /* \"contracts/Crowdfunding.sol\":2484:2504  campaign.goalReached */\n      0x06\n      add\n      0x00\n        /* \"contracts/Crowdfunding.sol\":2484:2511  campaign.goalReached = true */\n      0x0100\n      exp\n      dup2\n      sload\n      dup2\n      0xff\n      mul\n      not\n      and\n      swap1\n      dup4\n      iszero\n      iszero\n      mul\n      or\n      swap1\n      sstore\n      pop\n        /* \"contracts/Crowdfunding.sol\":2403:2522  if (campaign.totalFunds >= campaign.goal && !campaign.goalReached) {... */\n    tag_118:\n        /* \"contracts/Crowdfunding.sol\":2554:2564  campaignId */\n      dup4\n        /* \"contracts/Crowdfunding.sol\":2537:2588  ContributionMade(campaignId, msg.sender, msg.value) */\n      0x0a4a91237423e0a1766a761c7cb029311d8b95d6b1b81db1b949a70c98b4e08e\n        /* \"contracts/Crowdfunding.sol\":2566:2576  msg.sender */\n      caller\n        /* \"contracts/Crowdfunding.sol\":2578:2587  msg.value */\n      callvalue\n        /* \"contracts/Crowdfunding.sol\":2537:2588  ContributionMade(campaignId, msg.sender, msg.value) */\n      mload(0x40)\n      tag_119\n      swap3\n      swap2\n      swap1\n      tag_73\n      jump\t// in\n    tag_119:\n      mload(0x40)\n      dup1\n      swap2\n      sub\n      swap1\n      log2\n        /* \"contracts/Crowdfunding.sol\":2173:2595  {... */\n      pop\n        /* \"contracts/Crowdfunding.sol\":532:533  _ */\n      pop\n        /* \"contracts/Crowdfunding.sol\":2063:2595  function contribute(uint256 campaignId) external payable validCampaign(campaignId) campaignActive(campaignId) {... */\n      pop\n      pop\n      jump\t// out\n        /* \"contracts/Crowdfunding.sol\":3199:3815  function withdrawContribution(uint256 _campaignId) external validCampaign(_campaignId) {... */\n    tag_31:\n        /* \"contracts/Crowdfunding.sol\":3273:3284  _campaignId */\n      dup1\n        /* \"contracts/Crowdfunding.sol\":482:491  campaigns */\n      0x00\n        /* \"contracts/Crowdfunding.sol\":482:498  campaigns.length */\n      dup1\n      sload\n      swap1\n      pop\n        /* \"contracts/Crowdfunding.sol\":468:479  _campaignId */\n      dup2\n        /* \"contracts/Crowdfunding.sol\":468:498  _campaignId < campaigns.length */\n      lt\n        /* \"contracts/Crowdfunding.sol\":460:522  require(_campaignId < campaigns.length, \"Invalid campaign ID\") */\n      tag_121\n      jumpi\n      mload(0x40)\n      0x08c379a000000000000000000000000000000000000000000000000000000000\n      dup2\n      mstore\n      0x04\n      add\n      tag_122\n      swap1\n      tag_48\n      jump\t// in\n    tag_122:\n      mload(0x40)\n      dup1\n      swap2\n      sub\n      swap1\n      revert\n    tag_121:\n        /* \"contracts/Crowdfunding.sol\":3296:3321  Campaign storage campaign */\n      0x00\n        /* \"contracts/Crowdfunding.sol\":3324:3333  campaigns */\n      dup1\n        /* \"contracts/Crowdfunding.sol\":3334:3345  _campaignId */\n      dup4\n        /* \"contracts/Crowdfunding.sol\":3324:3346  campaigns[_campaignId] */\n      dup2\n      sload\n      dup2\n      lt\n      tag_124\n      jumpi\n      tag_125\n      tag_52\n      jump\t// in\n    tag_125:\n    tag_124:\n      swap1\n      0x00\n      mstore\n      keccak256(0x00, 0x20)\n      swap1\n      0x08\n      mul\n      add\n        /* \"contracts/Crowdfunding.sol\":3296:3346  Campaign storage campaign = campaigns[_campaignId] */\n      swap1\n      pop\n        /* \"contracts/Crowdfunding.sol\":3383:3391  campaign */\n      dup1\n        /* \"contracts/Crowdfunding.sol\":3383:3400  campaign.deadline */\n      0x05\n      add\n      sload\n        /* \"contracts/Crowdfunding.sol\":3364:3379  block.timestamp */\n      timestamp\n        /* \"contracts/Crowdfunding.sol\":3364:3400  block.timestamp >= campaign.deadline */\n      lt\n      iszero\n        /* \"contracts/Crowdfunding.sol\":3356:3423  require(block.timestamp >= campaign.deadline, \"Campaign not ended\") */\n      tag_127\n      jumpi\n      mload(0x40)\n      0x08c379a000000000000000000000000000000000000000000000000000000000\n      dup2\n      mstore\n      0x04\n      add\n      tag_128\n      swap1\n      tag_129\n      jump\t// in\n    tag_128:\n      mload(0x40)\n      dup1\n      swap2\n      sub\n      swap1\n      revert\n    tag_127:\n        /* \"contracts/Crowdfunding.sol\":3442:3450  campaign */\n      dup1\n        /* \"contracts/Crowdfunding.sol\":3442:3462  campaign.goalReached */\n      0x06\n      add\n      0x00\n      swap1\n      sload\n      swap1\n      0x0100\n      exp\n      swap1\n      div\n      0xff\n      and\n        /* \"contracts/Crowdfunding.sol\":3441:3462  !campaign.goalReached */\n      iszero\n        /* \"contracts/Crowdfunding.sol\":3433:3479  require(!campaign.goalReached, \"Goal reached\") */\n      tag_130\n      jumpi\n      mload(0x40)\n      0x08c379a000000000000000000000000000000000000000000000000000000000\n      dup2\n      mstore\n      0x04\n      add\n      tag_131\n      swap1\n      tag_132\n      jump\t// in\n    tag_131:\n      mload(0x40)\n      dup1\n      swap2\n      sub\n      swap1\n      revert\n    tag_130:\n        /* \"contracts/Crowdfunding.sol\":3498:3506  campaign */\n      dup1\n        /* \"contracts/Crowdfunding.sol\":3498:3513  campaign.closed */\n      0x06\n      add\n      0x01\n      swap1\n      sload\n      swap1\n      0x0100\n      exp\n      swap1\n      div\n      0xff\n      and\n        /* \"contracts/Crowdfunding.sol\":3497:3513  !campaign.closed */\n      iszero\n        /* \"contracts/Crowdfunding.sol\":3489:3533  require(!campaign.closed, \"Funds withdrawn\") */\n      tag_133\n      jumpi\n      mload(0x40)\n      0x08c379a000000000000000000000000000000000000000000000000000000000\n      dup2\n      mstore\n      0x04\n      add\n      tag_134\n      swap1\n      tag_135\n      jump\t// in\n    tag_134:\n      mload(0x40)\n      dup1\n      swap2\n      sub\n      swap1\n      revert\n    tag_133:\n        /* \"contracts/Crowdfunding.sol\":3544:3558  uint256 amount */\n      0x00\n        /* \"contracts/Crowdfunding.sol\":3561:3569  campaign */\n      dup2\n        /* \"contracts/Crowdfunding.sol\":3561:3583  campaign.contributions */\n      0x07\n      add\n        /* \"contracts/Crowdfunding.sol\":3561:3595  campaign.contributions[msg.sender] */\n      0x00\n        /* \"contracts/Crowdfunding.sol\":3584:3594  msg.sender */\n      caller\n        /* \"contracts/Crowdfunding.sol\":3561:3595  campaign.contributions[msg.sender] */\n      0xffffffffffffffffffffffffffffffffffffffff\n      and\n      0xffffffffffffffffffffffffffffffffffffffff\n      and\n      dup2\n      mstore\n      0x20\n      add\n      swap1\n      dup2\n      mstore\n      0x20\n      add\n      0x00\n      keccak256\n      sload\n        /* \"contracts/Crowdfunding.sol\":3544:3595  uint256 amount = campaign.contributions[msg.sender] */\n      swap1\n      pop\n        /* \"contracts/Crowdfunding.sol\":3622:3623  0 */\n      0x00\n        /* \"contracts/Crowdfunding.sol\":3613:3619  amount */\n      dup2\n        /* \"contracts/Crowdfunding.sol\":3613:3623  amount > 0 */\n      gt\n        /* \"contracts/Crowdfunding.sol\":3605:3644  require(amount > 0, \"No contributions\") */\n      tag_136\n      jumpi\n      mload(0x40)\n      0x08c379a000000000000000000000000000000000000000000000000000000000\n      dup2\n      mstore\n      0x04\n      add\n      tag_137\n      swap1\n      tag_138\n      jump\t// in\n    tag_137:\n      mload(0x40)\n      dup1\n      swap2\n      sub\n      swap1\n      revert\n    tag_136:\n        /* \"contracts/Crowdfunding.sol\":3692:3693  0 */\n      0x00\n        /* \"contracts/Crowdfunding.sol\":3655:3663  campaign */\n      dup3\n        /* \"contracts/Crowdfunding.sol\":3655:3677  campaign.contributions */\n      0x07\n      add\n        /* \"contracts/Crowdfunding.sol\":3655:3689  campaign.contributions[msg.sender] */\n      0x00\n        /* \"contracts/Crowdfunding.sol\":3678:3688  msg.sender */\n      caller\n        /* \"contracts/Crowdfunding.sol\":3655:3689  campaign.contributions[msg.sender] */\n      0xffffffffffffffffffffffffffffffffffffffff\n      and\n      0xffffffffffffffffffffffffffffffffffffffff\n      and\n      dup2\n      mstore\n      0x20\n      add\n      swap1\n      dup2\n      mstore\n      0x20\n      add\n      0x00\n      keccak256\n        /* \"contracts/Crowdfunding.sol\":3655:3693  campaign.contributions[msg.sender] = 0 */\n      dup2\n      swap1\n      sstore\n      pop\n        /* \"contracts/Crowdfunding.sol\":3711:3721  msg.sender */\n      caller\n        /* \"contracts/Crowdfunding.sol\":3703:3731  payable(msg.sender).transfer */\n      0xffffffffffffffffffffffffffffffffffffffff\n      and\n        /* \"contracts/Crowdfunding.sol\":3703:3739  payable(msg.sender).transfer(amount) */\n      0x08fc\n        /* \"contracts/Crowdfunding.sol\":3732:3738  amount */\n      dup3\n        /* \"contracts/Crowdfunding.sol\":3703:3739  payable(msg.sender).transfer(amount) */\n      swap1\n      dup2\n      iszero\n      mul\n      swap1\n      mload(0x40)\n      0x00\n      mload(0x40)\n      dup1\n      dup4\n      sub\n      dup2\n      dup6\n      dup9\n      dup9\n      call\n      swap4\n      pop\n      pop\n      pop\n      pop\n      iszero\n      dup1\n      iszero\n      tag_140\n      jumpi\n      returndatasize\n      0x00\n      dup1\n      returndatacopy\n      revert(0x00, returndatasize)\n    tag_140:\n      pop\n        /* \"contracts/Crowdfunding.sol\":3776:3787  _campaignId */\n      dup4\n        /* \"contracts/Crowdfunding.sol\":3754:3808  ContributionWithdrawn(_campaignId, msg.sender, amount) */\n      0xa182b2a9c58fae7e4827fbe3ac2fa1c5711191ef3f58b1fa19631feb97273bb2\n        /* \"contracts/Crowdfunding.sol\":3789:3799  msg.sender */\n      caller\n        /* \"contracts/Crowdfunding.sol\":3801:3807  amount */\n      dup4\n        /* \"contracts/Crowdfunding.sol\":3754:3808  ContributionWithdrawn(_campaignId, msg.sender, amount) */\n      mload(0x40)\n      tag_141\n      swap3\n      swap2\n      swap1\n      tag_73\n      jump\t// in\n    tag_141:\n      mload(0x40)\n      dup1\n      swap2\n      sub\n      swap1\n      log2\n        /* \"contracts/Crowdfunding.sol\":3286:3815  {... */\n      pop\n      pop\n        /* \"contracts/Crowdfunding.sol\":3199:3815  function withdrawContribution(uint256 _campaignId) external validCampaign(_campaignId) {... */\n      pop\n      pop\n      jump\t// out\n        /* \"#utility.yul\":88:205   */\n    tag_143:\n        /* \"#utility.yul\":197:198   */\n      0x00\n        /* \"#utility.yul\":194:195   */\n      dup1\n        /* \"#utility.yul\":187:199   */\n      revert\n        /* \"#utility.yul\":211:328   */\n    tag_144:\n        /* \"#utility.yul\":320:321   */\n      0x00\n        /* \"#utility.yul\":317:318   */\n      dup1\n        /* \"#utility.yul\":310:322   */\n      revert\n        /* \"#utility.yul\":334:411   */\n    tag_145:\n        /* \"#utility.yul\":371:378   */\n      0x00\n        /* \"#utility.yul\":400:405   */\n      dup2\n        /* \"#utility.yul\":389:405   */\n      swap1\n      pop\n        /* \"#utility.yul\":334:411   */\n      swap2\n      swap1\n      pop\n      jump\t// out\n        /* \"#utility.yul\":417:539   */\n    tag_146:\n        /* \"#utility.yul\":490:514   */\n      tag_218\n        /* \"#utility.yul\":508:513   */\n      dup2\n        /* \"#utility.yul\":490:514   */\n      tag_145\n      jump\t// in\n    tag_218:\n        /* \"#utility.yul\":483:488   */\n      dup2\n        /* \"#utility.yul\":480:515   */\n      eq\n        /* \"#utility.yul\":470:533   */\n      tag_219\n      jumpi\n        /* \"#utility.yul\":529:530   */\n      0x00\n        /* \"#utility.yul\":526:527   */\n      dup1\n        /* \"#utility.yul\":519:531   */\n      revert\n        /* \"#utility.yul\":470:533   */\n    tag_219:\n        /* \"#utility.yul\":417:539   */\n      pop\n      jump\t// out\n        /* \"#utility.yul\":545:684   */\n    tag_147:\n        /* \"#utility.yul\":591:596   */\n      0x00\n        /* \"#utility.yul\":629:635   */\n      dup2\n        /* \"#utility.yul\":616:636   */\n      calldataload\n        /* \"#utility.yul\":607:636   */\n      swap1\n      pop\n        /* \"#utility.yul\":645:678   */\n      tag_221\n        /* \"#utility.yul\":672:677   */\n      dup2\n        /* \"#utility.yul\":645:678   */\n      tag_146\n      jump\t// in\n    tag_221:\n        /* \"#utility.yul\":545:684   */\n      swap3\n      swap2\n      pop\n      pop\n      jump\t// out\n        /* \"#utility.yul\":690:1019   */\n    tag_10:\n        /* \"#utility.yul\":749:755   */\n      0x00\n        /* \"#utility.yul\":798:800   */\n      0x20\n        /* \"#utility.yul\":786:795   */\n      dup3\n        /* \"#utility.yul\":777:784   */\n      dup5\n        /* \"#utility.yul\":773:796   */\n      sub\n        /* \"#utility.yul\":769:801   */\n      slt\n        /* \"#utility.yul\":766:885   */\n      iszero\n      tag_223\n      jumpi\n        /* \"#utility.yul\":804:883   */\n      tag_224\n      tag_143\n      jump\t// in\n    tag_224:\n        /* \"#utility.yul\":766:885   */\n    tag_223:\n        /* \"#utility.yul\":924:925   */\n      0x00\n        /* \"#utility.yul\":949:1002   */\n      tag_225\n        /* \"#utility.yul\":994:1001   */\n      dup5\n        /* \"#utility.yul\":985:991   */\n      dup3\n        /* \"#utility.yul\":974:983   */\n      dup6\n        /* \"#utility.yul\":970:992   */\n      add\n        /* \"#utility.yul\":949:1002   */\n      tag_147\n      jump\t// in\n    tag_225:\n        /* \"#utility.yul\":939:1002   */\n      swap2\n      pop\n        /* \"#utility.yul\":895:1012   */\n      pop\n        /* \"#utility.yul\":690:1019   */\n      swap3\n      swap2\n      pop\n      pop\n      jump\t// out\n        /* \"#utility.yul\":1025:1151   */\n    tag_148:\n        /* \"#utility.yul\":1062:1069   */\n      0x00\n        /* \"#utility.yul\":1102:1144   */\n      0xffffffffffffffffffffffffffffffffffffffff\n        /* \"#utility.yul\":1095:1100   */\n      dup3\n        /* \"#utility.yul\":1091:1145   */\n      and\n        /* \"#utility.yul\":1080:1145   */\n      swap1\n      pop\n        /* \"#utility.yul\":1025:1151   */\n      swap2\n      swap1\n      pop\n      jump\t// out\n        /* \"#utility.yul\":1157:1261   */\n    tag_149:\n        /* \"#utility.yul\":1202:1209   */\n      0x00\n        /* \"#utility.yul\":1231:1255   */\n      tag_228\n        /* \"#utility.yul\":1249:1254   */\n      dup3\n        /* \"#utility.yul\":1231:1255   */\n      tag_148\n      jump\t// in\n    tag_228:\n        /* \"#utility.yul\":1220:1255   */\n      swap1\n      pop\n        /* \"#utility.yul\":1157:1261   */\n      swap2\n      swap1\n      pop\n      jump\t// out\n        /* \"#utility.yul\":1267:1409   */\n    tag_150:\n        /* \"#utility.yul\":1370:1402   */\n      tag_230\n        /* \"#utility.yul\":1396:1401   */\n      dup2\n        /* \"#utility.yul\":1370:1402   */\n      tag_149\n      jump\t// in\n    tag_230:\n        /* \"#utility.yul\":1365:1368   */\n      dup3\n        /* \"#utility.yul\":1358:1403   */\n      mstore\n        /* \"#utility.yul\":1267:1409   */\n      pop\n      pop\n      jump\t// out\n        /* \"#utility.yul\":1415:1514   */\n    tag_151:\n        /* \"#utility.yul\":1467:1473   */\n      0x00\n        /* \"#utility.yul\":1501:1506   */\n      dup2\n        /* \"#utility.yul\":1495:1507   */\n      mload\n        /* \"#utility.yul\":1485:1507   */\n      swap1\n      pop\n        /* \"#utility.yul\":1415:1514   */\n      swap2\n      swap1\n      pop\n      jump\t// out\n        /* \"#utility.yul\":1520:1689   */\n    tag_152:\n        /* \"#utility.yul\":1604:1615   */\n      0x00\n        /* \"#utility.yul\":1638:1644   */\n      dup3\n        /* \"#utility.yul\":1633:1636   */\n      dup3\n        /* \"#utility.yul\":1626:1645   */\n      mstore\n        /* \"#utility.yul\":1678:1682   */\n      0x20\n        /* \"#utility.yul\":1673:1676   */\n      dup3\n        /* \"#utility.yul\":1669:1683   */\n      add\n        /* \"#utility.yul\":1654:1683   */\n      swap1\n      pop\n        /* \"#utility.yul\":1520:1689   */\n      swap3\n      swap2\n      pop\n      pop\n      jump\t// out\n        /* \"#utility.yul\":1695:1834   */\n    tag_153:\n        /* \"#utility.yul\":1784:1790   */\n      dup3\n        /* \"#utility.yul\":1779:1782   */\n      dup2\n        /* \"#utility.yul\":1774:1777   */\n      dup4\n        /* \"#utility.yul\":1768:1791   */\n      mcopy\n        /* \"#utility.yul\":1825:1826   */\n      0x00\n        /* \"#utility.yul\":1816:1822   */\n      dup4\n        /* \"#utility.yul\":1811:1814   */\n      dup4\n        /* \"#utility.yul\":1807:1823   */\n      add\n        /* \"#utility.yul\":1800:1827   */\n      mstore\n        /* \"#utility.yul\":1695:1834   */\n      pop\n      pop\n      pop\n      jump\t// out\n        /* \"#utility.yul\":1840:1942   */\n    tag_154:\n        /* \"#utility.yul\":1881:1887   */\n      0x00\n        /* \"#utility.yul\":1932:1934   */\n      0x1f\n        /* \"#utility.yul\":1928:1935   */\n      not\n        /* \"#utility.yul\":1923:1925   */\n      0x1f\n        /* \"#utility.yul\":1916:1921   */\n      dup4\n        /* \"#utility.yul\":1912:1926   */\n      add\n        /* \"#utility.yul\":1908:1936   */\n      and\n        /* \"#utility.yul\":1898:1936   */\n      swap1\n      pop\n        /* \"#utility.yul\":1840:1942   */\n      swap2\n      swap1\n      pop\n      jump\t// out\n        /* \"#utility.yul\":1948:2325   */\n    tag_155:\n        /* \"#utility.yul\":2036:2039   */\n      0x00\n        /* \"#utility.yul\":2064:2103   */\n      tag_236\n        /* \"#utility.yul\":2097:2102   */\n      dup3\n        /* \"#utility.yul\":2064:2103   */\n      tag_151\n      jump\t// in\n    tag_236:\n        /* \"#utility.yul\":2119:2190   */\n      tag_237\n        /* \"#utility.yul\":2183:2189   */\n      dup2\n        /* \"#utility.yul\":2178:2181   */\n      dup6\n        /* \"#utility.yul\":2119:2190   */\n      tag_152\n      jump\t// in\n    tag_237:\n        /* \"#utility.yul\":2112:2190   */\n      swap4\n      pop\n        /* \"#utility.yul\":2199:2264   */\n      tag_238\n        /* \"#utility.yul\":2257:2263   */\n      dup2\n        /* \"#utility.yul\":2252:2255   */\n      dup6\n        /* \"#utility.yul\":2245:2249   */\n      0x20\n        /* \"#utility.yul\":2238:2243   */\n      dup7\n        /* \"#utility.yul\":2234:2250   */\n      add\n        /* \"#utility.yul\":2199:2264   */\n      tag_153\n      jump\t// in\n    tag_238:\n        /* \"#utility.yul\":2289:2318   */\n      tag_239\n        /* \"#utility.yul\":2311:2317   */\n      dup2\n        /* \"#utility.yul\":2289:2318   */\n      tag_154\n      jump\t// in\n    tag_239:\n        /* \"#utility.yul\":2284:2287   */\n      dup5\n        /* \"#utility.yul\":2280:2319   */\n      add\n        /* \"#utility.yul\":2273:2319   */\n      swap2\n      pop\n        /* \"#utility.yul\":2040:2325   */\n      pop\n        /* \"#utility.yul\":1948:2325   */\n      swap3\n      swap2\n      pop\n      pop\n      jump\t// out\n        /* \"#utility.yul\":2331:2449   */\n    tag_156:\n        /* \"#utility.yul\":2418:2442   */\n      tag_241\n        /* \"#utility.yul\":2436:2441   */\n      dup2\n        /* \"#utility.yul\":2418:2442   */\n      tag_145\n      jump\t// in\n    tag_241:\n        /* \"#utility.yul\":2413:2416   */\n      dup3\n        /* \"#utility.yul\":2406:2443   */\n      mstore\n        /* \"#utility.yul\":2331:2449   */\n      pop\n      pop\n      jump\t// out\n        /* \"#utility.yul\":2455:2545   */\n    tag_157:\n        /* \"#utility.yul\":2489:2496   */\n      0x00\n        /* \"#utility.yul\":2532:2537   */\n      dup2\n        /* \"#utility.yul\":2525:2538   */\n      iszero\n        /* \"#utility.yul\":2518:2539   */\n      iszero\n        /* \"#utility.yul\":2507:2539   */\n      swap1\n      pop\n        /* \"#utility.yul\":2455:2545   */\n      swap2\n      swap1\n      pop\n      jump\t// out\n        /* \"#utility.yul\":2551:2660   */\n    tag_158:\n        /* \"#utility.yul\":2632:2653   */\n      tag_244\n        /* \"#utility.yul\":2647:2652   */\n      dup2\n        /* \"#utility.yul\":2632:2653   */\n      tag_157\n      jump\t// in\n    tag_244:\n        /* \"#utility.yul\":2627:2630   */\n      dup3\n        /* \"#utility.yul\":2620:2654   */\n      mstore\n        /* \"#utility.yul\":2551:2660   */\n      pop\n      pop\n      jump\t// out\n        /* \"#utility.yul\":2666:3853   */\n    tag_13:\n        /* \"#utility.yul\":2999:3003   */\n      0x00\n        /* \"#utility.yul\":3037:3040   */\n      0x0100\n        /* \"#utility.yul\":3026:3035   */\n      dup3\n        /* \"#utility.yul\":3022:3041   */\n      add\n        /* \"#utility.yul\":3014:3041   */\n      swap1\n      pop\n        /* \"#utility.yul\":3051:3138   */\n      tag_246\n        /* \"#utility.yul\":3135:3136   */\n      0x00\n        /* \"#utility.yul\":3124:3133   */\n      dup4\n        /* \"#utility.yul\":3120:3137   */\n      add\n        /* \"#utility.yul\":3111:3117   */\n      dup12\n        /* \"#utility.yul\":3051:3138   */\n      tag_150\n      jump\t// in\n    tag_246:\n        /* \"#utility.yul\":3185:3194   */\n      dup2\n        /* \"#utility.yul\":3179:3183   */\n      dup2\n        /* \"#utility.yul\":3175:3195   */\n      sub\n        /* \"#utility.yul\":3170:3172   */\n      0x20\n        /* \"#utility.yul\":3159:3168   */\n      dup4\n        /* \"#utility.yul\":3155:3173   */\n      add\n        /* \"#utility.yul\":3148:3196   */\n      mstore\n        /* \"#utility.yul\":3213:3291   */\n      tag_247\n        /* \"#utility.yul\":3286:3290   */\n      dup2\n        /* \"#utility.yul\":3277:3283   */\n      dup11\n        /* \"#utility.yul\":3213:3291   */\n      tag_155\n      jump\t// in\n    tag_247:\n        /* \"#utility.yul\":3205:3291   */\n      swap1\n      pop\n        /* \"#utility.yul\":3338:3347   */\n      dup2\n        /* \"#utility.yul\":3332:3336   */\n      dup2\n        /* \"#utility.yul\":3328:3348   */\n      sub\n        /* \"#utility.yul\":3323:3325   */\n      0x40\n        /* \"#utility.yul\":3312:3321   */\n      dup4\n        /* \"#utility.yul\":3308:3326   */\n      add\n        /* \"#utility.yul\":3301:3349   */\n      mstore\n        /* \"#utility.yul\":3366:3444   */\n      tag_248\n        /* \"#utility.yul\":3439:3443   */\n      dup2\n        /* \"#utility.yul\":3430:3436   */\n      dup10\n        /* \"#utility.yul\":3366:3444   */\n      tag_155\n      jump\t// in\n    tag_248:\n        /* \"#utility.yul\":3358:3444   */\n      swap1\n      pop\n        /* \"#utility.yul\":3454:3526   */\n      tag_249\n        /* \"#utility.yul\":3522:3524   */\n      0x60\n        /* \"#utility.yul\":3511:3520   */\n      dup4\n        /* \"#utility.yul\":3507:3525   */\n      add\n        /* \"#utility.yul\":3498:3504   */\n      dup9\n        /* \"#utility.yul\":3454:3526   */\n      tag_156\n      jump\t// in\n    tag_249:\n        /* \"#utility.yul\":3536:3609   */\n      tag_250\n        /* \"#utility.yul\":3604:3607   */\n      0x80\n        /* \"#utility.yul\":3593:3602   */\n      dup4\n        /* \"#utility.yul\":3589:3608   */\n      add\n        /* \"#utility.yul\":3580:3586   */\n      dup8\n        /* \"#utility.yul\":3536:3609   */\n      tag_156\n      jump\t// in\n    tag_250:\n        /* \"#utility.yul\":3619:3692   */\n      tag_251\n        /* \"#utility.yul\":3687:3690   */\n      0xa0\n        /* \"#utility.yul\":3676:3685   */\n      dup4\n        /* \"#utility.yul\":3672:3691   */\n      add\n        /* \"#utility.yul\":3663:3669   */\n      dup7\n        /* \"#utility.yul\":3619:3692   */\n      tag_156\n      jump\t// in\n    tag_251:\n        /* \"#utility.yul\":3702:3769   */\n      tag_252\n        /* \"#utility.yul\":3764:3767   */\n      0xc0\n        /* \"#utility.yul\":3753:3762   */\n      dup4\n        /* \"#utility.yul\":3749:3768   */\n      add\n        /* \"#utility.yul\":3740:3746   */\n      dup6\n        /* \"#utility.yul\":3702:3769   */\n      tag_158\n      jump\t// in\n    tag_252:\n        /* \"#utility.yul\":3779:3846   */\n      tag_253\n        /* \"#utility.yul\":3841:3844   */\n      0xe0\n        /* \"#utility.yul\":3830:3839   */\n      dup4\n        /* \"#utility.yul\":3826:3845   */\n      add\n        /* \"#utility.yul\":3817:3823   */\n      dup5\n        /* \"#utility.yul\":3779:3846   */\n      tag_158\n      jump\t// in\n    tag_253:\n        /* \"#utility.yul\":2666:3853   */\n      swap10\n      swap9\n      pop\n      pop\n      pop\n      pop\n      pop\n      pop\n      pop\n      pop\n      pop\n      jump\t// out\n        /* \"#utility.yul\":3859:3976   */\n    tag_159:\n        /* \"#utility.yul\":3968:3969   */\n      0x00\n        /* \"#utility.yul\":3965:3966   */\n      dup1\n        /* \"#utility.yul\":3958:3970   */\n      revert\n        /* \"#utility.yul\":3982:4099   */\n    tag_160:\n        /* \"#utility.yul\":4091:4092   */\n      0x00\n        /* \"#utility.yul\":4088:4089   */\n      dup1\n        /* \"#utility.yul\":4081:4093   */\n      revert\n        /* \"#utility.yul\":4105:4222   */\n    tag_161:\n        /* \"#utility.yul\":4214:4215   */\n      0x00\n        /* \"#utility.yul\":4211:4212   */\n      dup1\n        /* \"#utility.yul\":4204:4216   */\n      revert\n        /* \"#utility.yul\":4242:4795   */\n    tag_162:\n        /* \"#utility.yul\":4300:4308   */\n      0x00\n        /* \"#utility.yul\":4310:4316   */\n      dup1\n        /* \"#utility.yul\":4360:4363   */\n      dup4\n        /* \"#utility.yul\":4353:4357   */\n      0x1f\n        /* \"#utility.yul\":4345:4351   */\n      dup5\n        /* \"#utility.yul\":4341:4358   */\n      add\n        /* \"#utility.yul\":4337:4364   */\n      slt\n        /* \"#utility.yul\":4327:4449   */\n      tag_258\n      jumpi\n        /* \"#utility.yul\":4368:4447   */\n      tag_259\n      tag_159\n      jump\t// in\n    tag_259:\n        /* \"#utility.yul\":4327:4449   */\n    tag_258:\n        /* \"#utility.yul\":4481:4487   */\n      dup3\n        /* \"#utility.yul\":4468:4488   */\n      calldataload\n        /* \"#utility.yul\":4458:4488   */\n      swap1\n      pop\n        /* \"#utility.yul\":4511:4529   */\n      0xffffffffffffffff\n        /* \"#utility.yul\":4503:4509   */\n      dup2\n        /* \"#utility.yul\":4500:4530   */\n      gt\n        /* \"#utility.yul\":4497:4614   */\n      iszero\n      tag_260\n      jumpi\n        /* \"#utility.yul\":4533:4612   */\n      tag_261\n      tag_160\n      jump\t// in\n    tag_261:\n        /* \"#utility.yul\":4497:4614   */\n    tag_260:\n        /* \"#utility.yul\":4647:4651   */\n      0x20\n        /* \"#utility.yul\":4639:4645   */\n      dup4\n        /* \"#utility.yul\":4635:4652   */\n      add\n        /* \"#utility.yul\":4623:4652   */\n      swap2\n      pop\n        /* \"#utility.yul\":4701:4704   */\n      dup4\n        /* \"#utility.yul\":4693:4697   */\n      0x01\n        /* \"#utility.yul\":4685:4691   */\n      dup3\n        /* \"#utility.yul\":4681:4698   */\n      mul\n        /* \"#utility.yul\":4671:4679   */\n      dup4\n        /* \"#utility.yul\":4667:4699   */\n      add\n        /* \"#utility.yul\":4664:4705   */\n      gt\n        /* \"#utility.yul\":4661:4789   */\n      iszero\n      tag_262\n      jumpi\n        /* \"#utility.yul\":4708:4787   */\n      tag_263\n      tag_161\n      jump\t// in\n    tag_263:\n        /* \"#utility.yul\":4661:4789   */\n    tag_262:\n        /* \"#utility.yul\":4242:4795   */\n      swap3\n      pop\n      swap3\n      swap1\n      pop\n      jump\t// out\n        /* \"#utility.yul\":4801:5966   */\n    tag_21:\n        /* \"#utility.yul\":4911:4917   */\n      0x00\n        /* \"#utility.yul\":4919:4925   */\n      dup1\n        /* \"#utility.yul\":4927:4933   */\n      0x00\n        /* \"#utility.yul\":4935:4941   */\n      dup1\n        /* \"#utility.yul\":4943:4949   */\n      0x00\n        /* \"#utility.yul\":4951:4957   */\n      dup1\n        /* \"#utility.yul\":5000:5003   */\n      0x80\n        /* \"#utility.yul\":4988:4997   */\n      dup8\n        /* \"#utility.yul\":4979:4986   */\n      dup10\n        /* \"#utility.yul\":4975:4998   */\n      sub\n        /* \"#utility.yul\":4971:5004   */\n      slt\n        /* \"#utility.yul\":4968:5088   */\n      iszero\n      tag_265\n      jumpi\n        /* \"#utility.yul\":5007:5086   */\n      tag_266\n      tag_143\n      jump\t// in\n    tag_266:\n        /* \"#utility.yul\":4968:5088   */\n    tag_265:\n        /* \"#utility.yul\":5155:5156   */\n      0x00\n        /* \"#utility.yul\":5144:5153   */\n      dup8\n        /* \"#utility.yul\":5140:5157   */\n      add\n        /* \"#utility.yul\":5127:5158   */\n      calldataload\n        /* \"#utility.yul\":5185:5203   */\n      0xffffffffffffffff\n        /* \"#utility.yul\":5177:5183   */\n      dup2\n        /* \"#utility.yul\":5174:5204   */\n      gt\n        /* \"#utility.yul\":5171:5288   */\n      iszero\n      tag_267\n      jumpi\n        /* \"#utility.yul\":5207:5286   */\n      tag_268\n      tag_144\n      jump\t// in\n    tag_268:\n        /* \"#utility.yul\":5171:5288   */\n    tag_267:\n        /* \"#utility.yul\":5320:5385   */\n      tag_269\n        /* \"#utility.yul\":5377:5384   */\n      dup10\n        /* \"#utility.yul\":5368:5374   */\n      dup3\n        /* \"#utility.yul\":5357:5366   */\n      dup11\n        /* \"#utility.yul\":5353:5375   */\n      add\n        /* \"#utility.yul\":5320:5385   */\n      tag_162\n      jump\t// in\n    tag_269:\n        /* \"#utility.yul\":5302:5385   */\n      swap7\n      pop\n      swap7\n      pop\n        /* \"#utility.yul\":5098:5395   */\n      pop\n        /* \"#utility.yul\":5462:5464   */\n      0x20\n        /* \"#utility.yul\":5451:5460   */\n      dup8\n        /* \"#utility.yul\":5447:5465   */\n      add\n        /* \"#utility.yul\":5434:5466   */\n      calldataload\n        /* \"#utility.yul\":5493:5511   */\n      0xffffffffffffffff\n        /* \"#utility.yul\":5485:5491   */\n      dup2\n        /* \"#utility.yul\":5482:5512   */\n      gt\n        /* \"#utility.yul\":5479:5596   */\n      iszero\n      tag_270\n      jumpi\n        /* \"#utility.yul\":5515:5594   */\n      tag_271\n      tag_144\n      jump\t// in\n    tag_271:\n        /* \"#utility.yul\":5479:5596   */\n    tag_270:\n        /* \"#utility.yul\":5628:5693   */\n      tag_272\n        /* \"#utility.yul\":5685:5692   */\n      dup10\n        /* \"#utility.yul\":5676:5682   */\n      dup3\n        /* \"#utility.yul\":5665:5674   */\n      dup11\n        /* \"#utility.yul\":5661:5683   */\n      add\n        /* \"#utility.yul\":5628:5693   */\n      tag_162\n      jump\t// in\n    tag_272:\n        /* \"#utility.yul\":5610:5693   */\n      swap5\n      pop\n      swap5\n      pop\n        /* \"#utility.yul\":5405:5703   */\n      pop\n        /* \"#utility.yul\":5742:5744   */\n      0x40\n        /* \"#utility.yul\":5768:5821   */\n      tag_273\n        /* \"#utility.yul\":5813:5820   */\n      dup10\n        /* \"#utility.yul\":5804:5810   */\n      dup3\n        /* \"#utility.yul\":5793:5802   */\n      dup11\n        /* \"#utility.yul\":5789:5811   */\n      add\n        /* \"#utility.yul\":5768:5821   */\n      tag_147\n      jump\t// in\n    tag_273:\n        /* \"#utility.yul\":5758:5821   */\n      swap3\n      pop\n        /* \"#utility.yul\":5713:5831   */\n      pop\n        /* \"#utility.yul\":5870:5872   */\n      0x60\n        /* \"#utility.yul\":5896:5949   */\n      tag_274\n        /* \"#utility.yul\":5941:5948   */\n      dup10\n        /* \"#utility.yul\":5932:5938   */\n      dup3\n        /* \"#utility.yul\":5921:5930   */\n      dup11\n        /* \"#utility.yul\":5917:5939   */\n      add\n        /* \"#utility.yul\":5896:5949   */\n      tag_147\n      jump\t// in\n    tag_274:\n        /* \"#utility.yul\":5886:5949   */\n      swap2\n      pop\n        /* \"#utility.yul\":5841:5959   */\n      pop\n        /* \"#utility.yul\":4801:5966   */\n      swap3\n      swap6\n      pop\n      swap3\n      swap6\n      pop\n      swap3\n      swap6\n      jump\t// out\n        /* \"#utility.yul\":5972:6194   */\n    tag_24:\n        /* \"#utility.yul\":6065:6069   */\n      0x00\n        /* \"#utility.yul\":6103:6105   */\n      0x20\n        /* \"#utility.yul\":6092:6101   */\n      dup3\n        /* \"#utility.yul\":6088:6106   */\n      add\n        /* \"#utility.yul\":6080:6106   */\n      swap1\n      pop\n        /* \"#utility.yul\":6116:6187   */\n      tag_276\n        /* \"#utility.yul\":6184:6185   */\n      0x00\n        /* \"#utility.yul\":6173:6182   */\n      dup4\n        /* \"#utility.yul\":6169:6186   */\n      add\n        /* \"#utility.yul\":6160:6166   */\n      dup5\n        /* \"#utility.yul\":6116:6187   */\n      tag_156\n      jump\t// in\n    tag_276:\n        /* \"#utility.yul\":5972:6194   */\n      swap3\n      swap2\n      pop\n      pop\n      jump\t// out\n        /* \"#utility.yul\":6200:6380   */\n    tag_163:\n        /* \"#utility.yul\":6248:6325   */\n      0x4e487b7100000000000000000000000000000000000000000000000000000000\n        /* \"#utility.yul\":6245:6246   */\n      0x00\n        /* \"#utility.yul\":6238:6326   */\n      mstore\n        /* \"#utility.yul\":6345:6349   */\n      0x22\n        /* \"#utility.yul\":6342:6343   */\n      0x04\n        /* \"#utility.yul\":6335:6350   */\n      mstore\n        /* \"#utility.yul\":6369:6373   */\n      0x24\n        /* \"#utility.yul\":6366:6367   */\n      0x00\n        /* \"#utility.yul\":6359:6374   */\n      revert\n        /* \"#utility.yul\":6386:6706   */\n    tag_35:\n        /* \"#utility.yul\":6430:6436   */\n      0x00\n        /* \"#utility.yul\":6467:6468   */\n      0x02\n        /* \"#utility.yul\":6461:6465   */\n      dup3\n        /* \"#utility.yul\":6457:6469   */\n      div\n        /* \"#utility.yul\":6447:6469   */\n      swap1\n      pop\n        /* \"#utility.yul\":6514:6515   */\n      0x01\n        /* \"#utility.yul\":6508:6512   */\n      dup3\n        /* \"#utility.yul\":6504:6516   */\n      and\n        /* \"#utility.yul\":6535:6553   */\n      dup1\n        /* \"#utility.yul\":6525:6606   */\n      tag_279\n      jumpi\n        /* \"#utility.yul\":6591:6595   */\n      0x7f\n        /* \"#utility.yul\":6583:6589   */\n      dup3\n        /* \"#utility.yul\":6579:6596   */\n      and\n        /* \"#utility.yul\":6569:6596   */\n      swap2\n      pop\n        /* \"#utility.yul\":6525:6606   */\n    tag_279:\n        /* \"#utility.yul\":6653:6655   */\n      0x20\n        /* \"#utility.yul\":6645:6651   */\n      dup3\n        /* \"#utility.yul\":6642:6656   */\n      lt\n        /* \"#utility.yul\":6622:6640   */\n      dup2\n        /* \"#utility.yul\":6619:6657   */\n      sub\n        /* \"#utility.yul\":6616:6700   */\n      tag_280\n      jumpi\n        /* \"#utility.yul\":6672:6690   */\n      tag_281\n      tag_163\n      jump\t// in\n    tag_281:\n        /* \"#utility.yul\":6616:6700   */\n    tag_280:\n        /* \"#utility.yul\":6437:6706   */\n      pop\n        /* \"#utility.yul\":6386:6706   */\n      swap2\n      swap1\n      pop\n      jump\t// out\n        /* \"#utility.yul\":6712:6881   */\n    tag_164:\n        /* \"#utility.yul\":6852:6873   */\n      0x496e76616c69642063616d706169676e20494400000000000000000000000000\n        /* \"#utility.yul\":6848:6849   */\n      0x00\n        /* \"#utility.yul\":6840:6846   */\n      dup3\n        /* \"#utility.yul\":6836:6850   */\n      add\n        /* \"#utility.yul\":6829:6874   */\n      mstore\n        /* \"#utility.yul\":6712:6881   */\n      pop\n      jump\t// out\n        /* \"#utility.yul\":6887:7253   */\n    tag_165:\n        /* \"#utility.yul\":7029:7032   */\n      0x00\n        /* \"#utility.yul\":7050:7117   */\n      tag_284\n        /* \"#utility.yul\":7114:7116   */\n      0x13\n        /* \"#utility.yul\":7109:7112   */\n      dup4\n        /* \"#utility.yul\":7050:7117   */\n      tag_152\n      jump\t// in\n    tag_284:\n        /* \"#utility.yul\":7043:7117   */\n      swap2\n      pop\n        /* \"#utility.yul\":7126:7219   */\n      tag_285\n        /* \"#utility.yul\":7215:7218   */\n      dup3\n        /* \"#utility.yul\":7126:7219   */\n      tag_164\n      jump\t// in\n    tag_285:\n        /* \"#utility.yul\":7244:7246   */\n      0x20\n        /* \"#utility.yul\":7239:7242   */\n      dup3\n        /* \"#utility.yul\":7235:7247   */\n      add\n        /* \"#utility.yul\":7228:7247   */\n      swap1\n      pop\n        /* \"#utility.yul\":6887:7253   */\n      swap2\n      swap1\n      pop\n      jump\t// out\n        /* \"#utility.yul\":7259:7678   */\n    tag_48:\n        /* \"#utility.yul\":7425:7429   */\n      0x00\n        /* \"#utility.yul\":7463:7465   */\n      0x20\n        /* \"#utility.yul\":7452:7461   */\n      dup3\n        /* \"#utility.yul\":7448:7466   */\n      add\n        /* \"#utility.yul\":7440:7466   */\n      swap1\n      pop\n        /* \"#utility.yul\":7512:7521   */\n      dup2\n        /* \"#utility.yul\":7506:7510   */\n      dup2\n        /* \"#utility.yul\":7502:7522   */\n      sub\n        /* \"#utility.yul\":7498:7499   */\n      0x00\n        /* \"#utility.yul\":7487:7496   */\n      dup4\n        /* \"#utility.yul\":7483:7500   */\n      add\n        /* \"#utility.yul\":7476:7523   */\n      mstore\n        /* \"#utility.yul\":7540:7671   */\n      tag_287\n        /* \"#utility.yul\":7666:7670   */\n      dup2\n        /* \"#utility.yul\":7540:7671   */\n      tag_165\n      jump\t// in\n    tag_287:\n        /* \"#utility.yul\":7532:7671   */\n      swap1\n      pop\n        /* \"#utility.yul\":7259:7678   */\n      swap2\n      swap1\n      pop\n      jump\t// out\n        /* \"#utility.yul\":7684:7864   */\n    tag_52:\n        /* \"#utility.yul\":7732:7809   */\n      0x4e487b7100000000000000000000000000000000000000000000000000000000\n        /* \"#utility.yul\":7729:7730   */\n      0x00\n        /* \"#utility.yul\":7722:7810   */\n      mstore\n        /* \"#utility.yul\":7829:7833   */\n      0x32\n        /* \"#utility.yul\":7826:7827   */\n      0x04\n        /* \"#utility.yul\":7819:7834   */\n      mstore\n        /* \"#utility.yul\":7853:7857   */\n      0x24\n        /* \"#utility.yul\":7850:7851   */\n      0x00\n        /* \"#utility.yul\":7843:7858   */\n      revert\n        /* \"#utility.yul\":7870:8032   */\n    tag_166:\n        /* \"#utility.yul\":8010:8024   */\n      0x556e617574686f72697a65640000000000000000000000000000000000000000\n        /* \"#utility.yul\":8006:8007   */\n      0x00\n        /* \"#utility.yul\":7998:8004   */\n      dup3\n        /* \"#utility.yul\":7994:8008   */\n      add\n        /* \"#utility.yul\":7987:8025   */\n      mstore\n        /* \"#utility.yul\":7870:8032   */\n      pop\n      jump\t// out\n        /* \"#utility.yul\":8038:8404   */\n    tag_167:\n        /* \"#utility.yul\":8180:8183   */\n      0x00\n        /* \"#utility.yul\":8201:8268   */\n      tag_291\n        /* \"#utility.yul\":8265:8267   */\n      0x0c\n        /* \"#utility.yul\":8260:8263   */\n      dup4\n        /* \"#utility.yul\":8201:8268   */\n      tag_152\n      jump\t// in\n    tag_291:\n        /* \"#utility.yul\":8194:8268   */\n      swap2\n      pop\n        /* \"#utility.yul\":8277:8370   */\n      tag_292\n        /* \"#utility.yul\":8366:8369   */\n      dup3\n        /* \"#utility.yul\":8277:8370   */\n      tag_166\n      jump\t// in\n    tag_292:\n        /* \"#utility.yul\":8395:8397   */\n      0x20\n        /* \"#utility.yul\":8390:8393   */\n      dup3\n        /* \"#utility.yul\":8386:8398   */\n      add\n        /* \"#utility.yul\":8379:8398   */\n      swap1\n      pop\n        /* \"#utility.yul\":8038:8404   */\n      swap2\n      swap1\n      pop\n      jump\t// out\n        /* \"#utility.yul\":8410:8829   */\n    tag_56:\n        /* \"#utility.yul\":8576:8580   */\n      0x00\n        /* \"#utility.yul\":8614:8616   */\n      0x20\n        /* \"#utility.yul\":8603:8612   */\n      dup3\n        /* \"#utility.yul\":8599:8617   */\n      add\n        /* \"#utility.yul\":8591:8617   */\n      swap1\n      pop\n        /* \"#utility.yul\":8663:8672   */\n      dup2\n        /* \"#utility.yul\":8657:8661   */\n      dup2\n        /* \"#utility.yul\":8653:8673   */\n      sub\n        /* \"#utility.yul\":8649:8650   */\n      0x00\n        /* \"#utility.yul\":8638:8647   */\n      dup4\n        /* \"#utility.yul\":8634:8651   */\n      add\n        /* \"#utility.yul\":8627:8674   */\n      mstore\n        /* \"#utility.yul\":8691:8822   */\n      tag_294\n        /* \"#utility.yul\":8817:8821   */\n      dup2\n        /* \"#utility.yul\":8691:8822   */\n      tag_167\n      jump\t// in\n    tag_294:\n        /* \"#utility.yul\":8683:8822   */\n      swap1\n      pop\n        /* \"#utility.yul\":8410:8829   */\n      swap2\n      swap1\n      pop\n      jump\t// out\n        /* \"#utility.yul\":8835:9001   */\n    tag_168:\n        /* \"#utility.yul\":8975:8993   */\n      0x476f616c206e6f74207265616368656400000000000000000000000000000000\n        /* \"#utility.yul\":8971:8972   */\n      0x00\n        /* \"#utility.yul\":8963:8969   */\n      dup3\n        /* \"#utility.yul\":8959:8973   */\n      add\n        /* \"#utility.yul\":8952:8994   */\n      mstore\n        /* \"#utility.yul\":8835:9001   */\n      pop\n      jump\t// out\n        /* \"#utility.yul\":9007:9373   */\n    tag_169:\n        /* \"#utility.yul\":9149:9152   */\n      0x00\n        /* \"#utility.yul\":9170:9237   */\n      tag_297\n        /* \"#utility.yul\":9234:9236   */\n      0x10\n        /* \"#utility.yul\":9229:9232   */\n      dup4\n        /* \"#utility.yul\":9170:9237   */\n      tag_152\n      jump\t// in\n    tag_297:\n        /* \"#utility.yul\":9163:9237   */\n      swap2\n      pop\n        /* \"#utility.yul\":9246:9339   */\n      tag_298\n        /* \"#utility.yul\":9335:9338   */\n      dup3\n        /* \"#utility.yul\":9246:9339   */\n      tag_168\n      jump\t// in\n    tag_298:\n        /* \"#utility.yul\":9364:9366   */\n      0x20\n        /* \"#utility.yul\":9359:9362   */\n      dup3\n        /* \"#utility.yul\":9355:9367   */\n      add\n        /* \"#utility.yul\":9348:9367   */\n      swap1\n      pop\n        /* \"#utility.yul\":9007:9373   */\n      swap2\n      swap1\n      pop\n      jump\t// out\n        /* \"#utility.yul\":9379:9798   */\n    tag_63:\n        /* \"#utility.yul\":9545:9549   */\n      0x00\n        /* \"#utility.yul\":9583:9585   */\n      0x20\n        /* \"#utility.yul\":9572:9581   */\n      dup3\n        /* \"#utility.yul\":9568:9586   */\n      add\n        /* \"#utility.yul\":9560:9586   */\n      swap1\n      pop\n        /* \"#utility.yul\":9632:9641   */\n      dup2\n        /* \"#utility.yul\":9626:9630   */\n      dup2\n        /* \"#utility.yul\":9622:9642   */\n      sub\n        /* \"#utility.yul\":9618:9619   */\n      0x00\n        /* \"#utility.yul\":9607:9616   */\n      dup4\n        /* \"#utility.yul\":9603:9620   */\n      add\n        /* \"#utility.yul\":9596:9643   */\n      mstore\n        /* \"#utility.yul\":9660:9791   */\n      tag_300\n        /* \"#utility.yul\":9786:9790   */\n      dup2\n        /* \"#utility.yul\":9660:9791   */\n      tag_169\n      jump\t// in\n    tag_300:\n        /* \"#utility.yul\":9652:9791   */\n      swap1\n      pop\n        /* \"#utility.yul\":9379:9798   */\n      swap2\n      swap1\n      pop\n      jump\t// out\n        /* \"#utility.yul\":9804:9973   */\n    tag_170:\n        /* \"#utility.yul\":9944:9965   */\n      0x446561646c696e65206e6f742070617373656400000000000000000000000000\n        /* \"#utility.yul\":9940:9941   */\n      0x00\n        /* \"#utility.yul\":9932:9938   */\n      dup3\n        /* \"#utility.yul\":9928:9942   */\n      add\n        /* \"#utility.yul\":9921:9966   */\n      mstore\n        /* \"#utility.yul\":9804:9973   */\n      pop\n      jump\t// out\n        /* \"#utility.yul\":9979:10345   */\n    tag_171:\n        /* \"#utility.yul\":10121:10124   */\n      0x00\n        /* \"#utility.yul\":10142:10209   */\n      tag_303\n        /* \"#utility.yul\":10206:10208   */\n      0x13\n        /* \"#utility.yul\":10201:10204   */\n      dup4\n        /* \"#utility.yul\":10142:10209   */\n      tag_152\n      jump\t// in\n    tag_303:\n        /* \"#utility.yul\":10135:10209   */\n      swap2\n      pop\n        /* \"#utility.yul\":10218:10311   */\n      tag_304\n        /* \"#utility.yul\":10307:10310   */\n      dup3\n        /* \"#utility.yul\":10218:10311   */\n      tag_170\n      jump\t// in\n    tag_304:\n        /* \"#utility.yul\":10336:10338   */\n      0x20\n        /* \"#utility.yul\":10331:10334   */\n      dup3\n        /* \"#utility.yul\":10327:10339   */\n      add\n        /* \"#utility.yul\":10320:10339   */\n      swap1\n      pop\n        /* \"#utility.yul\":9979:10345   */\n      swap2\n      swap1\n      pop\n      jump\t// out\n        /* \"#utility.yul\":10351:10770   */\n    tag_66:\n        /* \"#utility.yul\":10517:10521   */\n      0x00\n        /* \"#utility.yul\":10555:10557   */\n      0x20\n        /* \"#utility.yul\":10544:10553   */\n      dup3\n        /* \"#utility.yul\":10540:10558   */\n      add\n        /* \"#utility.yul\":10532:10558   */\n      swap1\n      pop\n        /* \"#utility.yul\":10604:10613   */\n      dup2\n        /* \"#utility.yul\":10598:10602   */\n      dup2\n        /* \"#utility.yul\":10594:10614   */\n      sub\n        /* \"#utility.yul\":10590:10591   */\n      0x00\n        /* \"#utility.yul\":10579:10588   */\n      dup4\n        /* \"#utility.yul\":10575:10592   */\n      add\n        /* \"#utility.yul\":10568:10615   */\n      mstore\n        /* \"#utility.yul\":10632:10763   */\n      tag_306\n        /* \"#utility.yul\":10758:10762   */\n      dup2\n        /* \"#utility.yul\":10632:10763   */\n      tag_171\n      jump\t// in\n    tag_306:\n        /* \"#utility.yul\":10624:10763   */\n      swap1\n      pop\n        /* \"#utility.yul\":10351:10770   */\n      swap2\n      swap1\n      pop\n      jump\t// out\n        /* \"#utility.yul\":10776:10949   */\n    tag_172:\n        /* \"#utility.yul\":10916:10941   */\n      0x46756e647320616c72656164792077697468647261776e000000000000000000\n        /* \"#utility.yul\":10912:10913   */\n      0x00\n        /* \"#utility.yul\":10904:10910   */\n      dup3\n        /* \"#utility.yul\":10900:10914   */\n      add\n        /* \"#utility.yul\":10893:10942   */\n      mstore\n        /* \"#utility.yul\":10776:10949   */\n      pop\n      jump\t// out\n        /* \"#utility.yul\":10955:11321   */\n    tag_173:\n        /* \"#utility.yul\":11097:11100   */\n      0x00\n        /* \"#utility.yul\":11118:11185   */\n      tag_309\n        /* \"#utility.yul\":11182:11184   */\n      0x17\n        /* \"#utility.yul\":11177:11180   */\n      dup4\n        /* \"#utility.yul\":11118:11185   */\n      tag_152\n      jump\t// in\n    tag_309:\n        /* \"#utility.yul\":11111:11185   */\n      swap2\n      pop\n        /* \"#utility.yul\":11194:11287   */\n      tag_310\n        /* \"#utility.yul\":11283:11286   */\n      dup3\n        /* \"#utility.yul\":11194:11287   */\n      tag_172\n      jump\t// in\n    tag_310:\n        /* \"#utility.yul\":11312:11314   */\n      0x20\n        /* \"#utility.yul\":11307:11310   */\n      dup3\n        /* \"#utility.yul\":11303:11315   */\n      add\n        /* \"#utility.yul\":11296:11315   */\n      swap1\n      pop\n        /* \"#utility.yul\":10955:11321   */\n      swap2\n      swap1\n      pop\n      jump\t// out\n        /* \"#utility.yul\":11327:11746   */\n    tag_69:\n        /* \"#utility.yul\":11493:11497   */\n      0x00\n        /* \"#utility.yul\":11531:11533   */\n      0x20\n        /* \"#utility.yul\":11520:11529   */\n      dup3\n        /* \"#utility.yul\":11516:11534   */\n      add\n        /* \"#utility.yul\":11508:11534   */\n      swap1\n      pop\n        /* \"#utility.yul\":11580:11589   */\n      dup2\n        /* \"#utility.yul\":11574:11578   */\n      dup2\n        /* \"#utility.yul\":11570:11590   */\n      sub\n        /* \"#utility.yul\":11566:11567   */\n      0x00\n        /* \"#utility.yul\":11555:11564   */\n      dup4\n        /* \"#utility.yul\":11551:11568   */\n      add\n        /* \"#utility.yul\":11544:11591   */\n      mstore\n        /* \"#utility.yul\":11608:11739   */\n      tag_312\n        /* \"#utility.yul\":11734:11738   */\n      dup2\n        /* \"#utility.yul\":11608:11739   */\n      tag_173\n      jump\t// in\n    tag_312:\n        /* \"#utility.yul\":11600:11739   */\n      swap1\n      pop\n        /* \"#utility.yul\":11327:11746   */\n      swap2\n      swap1\n      pop\n      jump\t// out\n        /* \"#utility.yul\":11752:11848   */\n    tag_174:\n        /* \"#utility.yul\":11789:11796   */\n      0x00\n        /* \"#utility.yul\":11818:11842   */\n      tag_314\n        /* \"#utility.yul\":11836:11841   */\n      dup3\n        /* \"#utility.yul\":11818:11842   */\n      tag_148\n      jump\t// in\n    tag_314:\n        /* \"#utility.yul\":11807:11842   */\n      swap1\n      pop\n        /* \"#utility.yul\":11752:11848   */\n      swap2\n      swap1\n      pop\n      jump\t// out\n        /* \"#utility.yul\":11854:11972   */\n    tag_175:\n        /* \"#utility.yul\":11941:11965   */\n      tag_316\n        /* \"#utility.yul\":11959:11964   */\n      dup2\n        /* \"#utility.yul\":11941:11965   */\n      tag_174\n      jump\t// in\n    tag_316:\n        /* \"#utility.yul\":11936:11939   */\n      dup3\n        /* \"#utility.yul\":11929:11966   */\n      mstore\n        /* \"#utility.yul\":11854:11972   */\n      pop\n      pop\n      jump\t// out\n        /* \"#utility.yul\":11978:12310   */\n    tag_73:\n        /* \"#utility.yul\":12099:12103   */\n      0x00\n        /* \"#utility.yul\":12137:12139   */\n      0x40\n        /* \"#utility.yul\":12126:12135   */\n      dup3\n        /* \"#utility.yul\":12122:12140   */\n      add\n        /* \"#utility.yul\":12114:12140   */\n      swap1\n      pop\n        /* \"#utility.yul\":12150:12221   */\n      tag_318\n        /* \"#utility.yul\":12218:12219   */\n      0x00\n        /* \"#utility.yul\":12207:12216   */\n      dup4\n        /* \"#utility.yul\":12203:12220   */\n      add\n        /* \"#utility.yul\":12194:12200   */\n      dup6\n        /* \"#utility.yul\":12150:12221   */\n      tag_175\n      jump\t// in\n    tag_318:\n        /* \"#utility.yul\":12231:12303   */\n      tag_319\n        /* \"#utility.yul\":12299:12301   */\n      0x20\n        /* \"#utility.yul\":12288:12297   */\n      dup4\n        /* \"#utility.yul\":12284:12302   */\n      add\n        /* \"#utility.yul\":12275:12281   */\n      dup5\n        /* \"#utility.yul\":12231:12303   */\n      tag_156\n      jump\t// in\n    tag_319:\n        /* \"#utility.yul\":11978:12310   */\n      swap4\n      swap3\n      pop\n      pop\n      pop\n      jump\t// out\n        /* \"#utility.yul\":12316:12482   */\n    tag_176:\n        /* \"#utility.yul\":12456:12474   */\n      0x476f616c206d757374206265203e203000000000000000000000000000000000\n        /* \"#utility.yul\":12452:12453   */\n      0x00\n        /* \"#utility.yul\":12444:12450   */\n      dup3\n        /* \"#utility.yul\":12440:12454   */\n      add\n        /* \"#utility.yul\":12433:12475   */\n      mstore\n        /* \"#utility.yul\":12316:12482   */\n      pop\n      jump\t// out\n        /* \"#utility.yul\":12488:12854   */\n    tag_177:\n        /* \"#utility.yul\":12630:12633   */\n      0x00\n        /* \"#utility.yul\":12651:12718   */\n      tag_322\n        /* \"#utility.yul\":12715:12717   */\n      0x10\n        /* \"#utility.yul\":12710:12713   */\n      dup4\n        /* \"#utility.yul\":12651:12718   */\n      tag_152\n      jump\t// in\n    tag_322:\n        /* \"#utility.yul\":12644:12718   */\n      swap2\n      pop\n        /* \"#utility.yul\":12727:12820   */\n      tag_323\n        /* \"#utility.yul\":12816:12819   */\n      dup3\n        /* \"#utility.yul\":12727:12820   */\n      tag_176\n      jump\t// in\n    tag_323:\n        /* \"#utility.yul\":12845:12847   */\n      0x20\n        /* \"#utility.yul\":12840:12843   */\n      dup3\n        /* \"#utility.yul\":12836:12848   */\n      add\n        /* \"#utility.yul\":12829:12848   */\n      swap1\n      pop\n        /* \"#utility.yul\":12488:12854   */\n      swap2\n      swap1\n      pop\n      jump\t// out\n        /* \"#utility.yul\":12860:13279   */\n    tag_77:\n        /* \"#utility.yul\":13026:13030   */\n      0x00\n        /* \"#utility.yul\":13064:13066   */\n      0x20\n        /* \"#utility.yul\":13053:13062   */\n      dup3\n        /* \"#utility.yul\":13049:13067   */\n      add\n        /* \"#utility.yul\":13041:13067   */\n      swap1\n      pop\n        /* \"#utility.yul\":13113:13122   */\n      dup2\n        /* \"#utility.yul\":13107:13111   */\n      dup2\n        /* \"#utility.yul\":13103:13123   */\n      sub\n        /* \"#utility.yul\":13099:13100   */\n      0x00\n        /* \"#utility.yul\":13088:13097   */\n      dup4\n        /* \"#utility.yul\":13084:13101   */\n      add\n        /* \"#utility.yul\":13077:13124   */\n      mstore\n        /* \"#utility.yul\":13141:13272   */\n      tag_325\n        /* \"#utility.yul\":13267:13271   */\n      dup2\n        /* \"#utility.yul\":13141:13272   */\n      tag_177\n      jump\t// in\n    tag_325:\n        /* \"#utility.yul\":13133:13272   */\n      swap1\n      pop\n        /* \"#utility.yul\":12860:13279   */\n      swap2\n      swap1\n      pop\n      jump\t// out\n        /* \"#utility.yul\":13285:13455   */\n    tag_178:\n        /* \"#utility.yul\":13425:13447   */\n      0x4475726174696f6e206d757374206265203e2030000000000000000000000000\n        /* \"#utility.yul\":13421:13422   */\n      0x00\n        /* \"#utility.yul\":13413:13419   */\n      dup3\n        /* \"#utility.yul\":13409:13423   */\n      add\n        /* \"#utility.yul\":13402:13448   */\n      mstore\n        /* \"#utility.yul\":13285:13455   */\n      pop\n      jump\t// out\n        /* \"#utility.yul\":13461:13827   */\n    tag_179:\n        /* \"#utility.yul\":13603:13606   */\n      0x00\n        /* \"#utility.yul\":13624:13691   */\n      tag_328\n        /* \"#utility.yul\":13688:13690   */\n      0x14\n        /* \"#utility.yul\":13683:13686   */\n      dup4\n        /* \"#utility.yul\":13624:13691   */\n      tag_152\n      jump\t// in\n    tag_328:\n        /* \"#utility.yul\":13617:13691   */\n      swap2\n      pop\n        /* \"#utility.yul\":13700:13793   */\n      tag_329\n        /* \"#utility.yul\":13789:13792   */\n      dup3\n        /* \"#utility.yul\":13700:13793   */\n      tag_178\n      jump\t// in\n    tag_329:\n        /* \"#utility.yul\":13818:13820   */\n      0x20\n        /* \"#utility.yul\":13813:13816   */\n      dup3\n        /* \"#utility.yul\":13809:13821   */\n      add\n        /* \"#utility.yul\":13802:13821   */\n      swap1\n      pop\n        /* \"#utility.yul\":13461:13827   */\n      swap2\n      swap1\n      pop\n      jump\t// out\n        /* \"#utility.yul\":13833:14252   */\n    tag_80:\n        /* \"#utility.yul\":13999:14003   */\n      0x00\n        /* \"#utility.yul\":14037:14039   */\n      0x20\n        /* \"#utility.yul\":14026:14035   */\n      dup3\n        /* \"#utility.yul\":14022:14040   */\n      add\n        /* \"#utility.yul\":14014:14040   */\n      swap1\n      pop\n        /* \"#utility.yul\":14086:14095   */\n      dup2\n        /* \"#utility.yul\":14080:14084   */\n      dup2\n        /* \"#utility.yul\":14076:14096   */\n      sub\n        /* \"#utility.yul\":14072:14073   */\n      0x00\n        /* \"#utility.yul\":14061:14070   */\n      dup4\n        /* \"#utility.yul\":14057:14074   */\n      add\n        /* \"#utility.yul\":14050:14097   */\n      mstore\n        /* \"#utility.yul\":14114:14245   */\n      tag_331\n        /* \"#utility.yul\":14240:14244   */\n      dup2\n        /* \"#utility.yul\":14114:14245   */\n      tag_179\n      jump\t// in\n    tag_331:\n        /* \"#utility.yul\":14106:14245   */\n      swap1\n      pop\n        /* \"#utility.yul\":13833:14252   */\n      swap2\n      swap1\n      pop\n      jump\t// out\n        /* \"#utility.yul\":14258:14438   */\n    tag_180:\n        /* \"#utility.yul\":14306:14383   */\n      0x4e487b7100000000000000000000000000000000000000000000000000000000\n        /* \"#utility.yul\":14303:14304   */\n      0x00\n        /* \"#utility.yul\":14296:14384   */\n      mstore\n        /* \"#utility.yul\":14403:14407   */\n      0x11\n        /* \"#utility.yul\":14400:14401   */\n      0x04\n        /* \"#utility.yul\":14393:14408   */\n      mstore\n        /* \"#utility.yul\":14427:14431   */\n      0x24\n        /* \"#utility.yul\":14424:14425   */\n      0x00\n        /* \"#utility.yul\":14417:14432   */\n      revert\n        /* \"#utility.yul\":14444:14635   */\n    tag_82:\n        /* \"#utility.yul\":14484:14487   */\n      0x00\n        /* \"#utility.yul\":14503:14523   */\n      tag_334\n        /* \"#utility.yul\":14521:14522   */\n      dup3\n        /* \"#utility.yul\":14503:14523   */\n      tag_145\n      jump\t// in\n    tag_334:\n        /* \"#utility.yul\":14498:14523   */\n      swap2\n      pop\n        /* \"#utility.yul\":14537:14557   */\n      tag_335\n        /* \"#utility.yul\":14555:14556   */\n      dup4\n        /* \"#utility.yul\":14537:14557   */\n      tag_145\n      jump\t// in\n    tag_335:\n        /* \"#utility.yul\":14532:14557   */\n      swap3\n      pop\n        /* \"#utility.yul\":14580:14581   */\n      dup3\n        /* \"#utility.yul\":14577:14578   */\n      dup3\n        /* \"#utility.yul\":14573:14582   */\n      add\n        /* \"#utility.yul\":14566:14582   */\n      swap1\n      pop\n        /* \"#utility.yul\":14601:14604   */\n      dup1\n        /* \"#utility.yul\":14598:14599   */\n      dup3\n        /* \"#utility.yul\":14595:14605   */\n      gt\n        /* \"#utility.yul\":14592:14628   */\n      iszero\n      tag_336\n      jumpi\n        /* \"#utility.yul\":14608:14626   */\n      tag_337\n      tag_180\n      jump\t// in\n    tag_337:\n        /* \"#utility.yul\":14592:14628   */\n    tag_336:\n        /* \"#utility.yul\":14444:14635   */\n      swap3\n      swap2\n      pop\n      pop\n      jump\t// out\n        /* \"#utility.yul\":14641:14738   */\n    tag_181:\n        /* \"#utility.yul\":14700:14706   */\n      0x00\n        /* \"#utility.yul\":14728:14731   */\n      dup3\n        /* \"#utility.yul\":14718:14731   */\n      swap1\n      pop\n        /* \"#utility.yul\":14641:14738   */\n      swap3\n      swap2\n      pop\n      pop\n      jump\t// out\n        /* \"#utility.yul\":14744:14924   */\n    tag_182:\n        /* \"#utility.yul\":14792:14869   */\n      0x4e487b7100000000000000000000000000000000000000000000000000000000\n        /* \"#utility.yul\":14789:14790   */\n      0x00\n        /* \"#utility.yul\":14782:14870   */\n      mstore\n        /* \"#utility.yul\":14889:14893   */\n      0x41\n        /* \"#utility.yul\":14886:14887   */\n      0x04\n        /* \"#utility.yul\":14879:14894   */\n      mstore\n        /* \"#utility.yul\":14913:14917   */\n      0x24\n        /* \"#utility.yul\":14910:14911   */\n      0x00\n        /* \"#utility.yul\":14903:14918   */\n      revert\n        /* \"#utility.yul\":14930:15071   */\n    tag_183:\n        /* \"#utility.yul\":14979:14983   */\n      0x00\n        /* \"#utility.yul\":15002:15005   */\n      dup2\n        /* \"#utility.yul\":14994:15005   */\n      swap1\n      pop\n        /* \"#utility.yul\":15025:15028   */\n      dup2\n        /* \"#utility.yul\":15022:15023   */\n      0x00\n        /* \"#utility.yul\":15015:15029   */\n      mstore\n        /* \"#utility.yul\":15059:15063   */\n      0x20\n        /* \"#utility.yul\":15056:15057   */\n      0x00\n        /* \"#utility.yul\":15046:15064   */\n      keccak256\n        /* \"#utility.yul\":15038:15064   */\n      swap1\n      pop\n        /* \"#utility.yul\":14930:15071   */\n      swap2\n      swap1\n      pop\n      jump\t// out\n        /* \"#utility.yul\":15077:15170   */\n    tag_184:\n        /* \"#utility.yul\":15114:15120   */\n      0x00\n        /* \"#utility.yul\":15161:15163   */\n      0x20\n        /* \"#utility.yul\":15156:15158   */\n      0x1f\n        /* \"#utility.yul\":15149:15154   */\n      dup4\n        /* \"#utility.yul\":15145:15159   */\n      add\n        /* \"#utility.yul\":15141:15164   */\n      div\n        /* \"#utility.yul\":15131:15164   */\n      swap1\n      pop\n        /* \"#utility.yul\":15077:15170   */\n      swap2\n      swap1\n      pop\n      jump\t// out\n        /* \"#utility.yul\":15176:15283   */\n    tag_185:\n        /* \"#utility.yul\":15220:15228   */\n      0x00\n        /* \"#utility.yul\":15270:15275   */\n      dup3\n        /* \"#utility.yul\":15264:15268   */\n      dup3\n        /* \"#utility.yul\":15260:15276   */\n      shl\n        /* \"#utility.yul\":15239:15276   */\n      swap1\n      pop\n        /* \"#utility.yul\":15176:15283   */\n      swap3\n      swap2\n      pop\n      pop\n      jump\t// out\n        /* \"#utility.yul\":15289:15682   */\n    tag_186:\n        /* \"#utility.yul\":15358:15364   */\n      0x00\n        /* \"#utility.yul\":15408:15409   */\n      0x08\n        /* \"#utility.yul\":15396:15406   */\n      dup4\n        /* \"#utility.yul\":15392:15410   */\n      mul\n        /* \"#utility.yul\":15431:15528   */\n      tag_344\n        /* \"#utility.yul\":15461:15527   */\n      0xffffffffffffffffffffffffffffffffffffffffffffffffffffffffffffffff\n        /* \"#utility.yul\":15450:15459   */\n      dup3\n        /* \"#utility.yul\":15431:15528   */\n      tag_185\n      jump\t// in\n    tag_344:\n        /* \"#utility.yul\":15549:15588   */\n      tag_345\n        /* \"#utility.yul\":15579:15587   */\n      dup7\n        /* \"#utility.yul\":15568:15577   */\n      dup4\n        /* \"#utility.yul\":15549:15588   */\n      tag_185\n      jump\t// in\n    tag_345:\n        /* \"#utility.yul\":15537:15588   */\n      swap6\n      pop\n        /* \"#utility.yul\":15621:15625   */\n      dup1\n        /* \"#utility.yul\":15617:15626   */\n      not\n        /* \"#utility.yul\":15610:15615   */\n      dup5\n        /* \"#utility.yul\":15606:15627   */\n      and\n        /* \"#utility.yul\":15597:15627   */\n      swap4\n      pop\n        /* \"#utility.yul\":15670:15674   */\n      dup1\n        /* \"#utility.yul\":15660:15668   */\n      dup7\n        /* \"#utility.yul\":15656:15675   */\n      and\n        /* \"#utility.yul\":15649:15654   */\n      dup5\n        /* \"#utility.yul\":15646:15676   */\n      or\n        /* \"#utility.yul\":15636:15676   */\n      swap3\n      pop\n        /* \"#utility.yul\":15365:15682   */\n      pop\n      pop\n        /* \"#utility.yul\":15289:15682   */\n      swap4\n      swap3\n      pop\n      pop\n      pop\n      jump\t// out\n        /* \"#utility.yul\":15688:15748   */\n    tag_187:\n        /* \"#utility.yul\":15716:15719   */\n      0x00\n        /* \"#utility.yul\":15737:15742   */\n      dup2\n        /* \"#utility.yul\":15730:15742   */\n      swap1\n      pop\n        /* \"#utility.yul\":15688:15748   */\n      swap2\n      swap1\n      pop\n      jump\t// out\n        /* \"#utility.yul\":15754:15896   */\n    tag_188:\n        /* \"#utility.yul\":15804:15813   */\n      0x00\n        /* \"#utility.yul\":15837:15890   */\n      tag_348\n        /* \"#utility.yul\":15855:15889   */\n      tag_349\n        /* \"#utility.yul\":15864:15888   */\n      tag_350\n        /* \"#utility.yul\":15882:15887   */\n      dup5\n        /* \"#utility.yul\":15864:15888   */\n      tag_145\n      jump\t// in\n    tag_350:\n        /* \"#utility.yul\":15855:15889   */\n      tag_187\n      jump\t// in\n    tag_349:\n        /* \"#utility.yul\":15837:15890   */\n      tag_145\n      jump\t// in\n    tag_348:\n        /* \"#utility.yul\":15824:15890   */\n      swap1\n      pop\n        /* \"#utility.yul\":15754:15896   */\n      swap2\n      swap1\n      pop\n      jump\t// out\n        /* \"#utility.yul\":15902:15977   */\n    tag_189:\n        /* \"#utility.yul\":15945:15948   */\n      0x00\n        /* \"#utility.yul\":15966:15971   */\n      dup2\n        /* \"#utility.yul\":15959:15971   */\n      swap1\n      pop\n        /* \"#utility.yul\":15902:15977   */\n      swap2\n      swap1\n      pop\n      jump\t// out\n        /* \"#utility.yul\":15983:16252   */\n    tag_190:\n        /* \"#utility.yul\":16093:16132   */\n      tag_353\n        /* \"#utility.yul\":16124:16131   */\n      dup4\n        /* \"#utility.yul\":16093:16132   */\n      tag_188\n      jump\t// in\n    tag_353:\n        /* \"#utility.yul\":16154:16245   */\n      tag_354\n        /* \"#utility.yul\":16203:16244   */\n      tag_355\n        /* \"#utility.yul\":16227:16243   */\n      dup3\n        /* \"#utility.yul\":16203:16244   */\n      tag_189\n      jump\t// in\n    tag_355:\n        /* \"#utility.yul\":16195:16201   */\n      dup5\n        /* \"#utility.yul\":16188:16192   */\n      dup5\n        /* \"#utility.yul\":16182:16193   */\n      sload\n        /* \"#utility.yul\":16154:16245   */\n      tag_186\n      jump\t// in\n    tag_354:\n        /* \"#utility.yul\":16148:16152   */\n      dup3\n        /* \"#utility.yul\":16141:16246   */\n      sstore\n        /* \"#utility.yul\":16059:16252   */\n      pop\n        /* \"#utility.yul\":15983:16252   */\n      pop\n      pop\n      pop\n      jump\t// out\n        /* \"#utility.yul\":16258:16331   */\n    tag_191:\n        /* \"#utility.yul\":16303:16306   */\n      0x00\n        /* \"#utility.yul\":16258:16331   */\n      swap1\n      jump\t// out\n        /* \"#utility.yul\":16337:16526   */\n    tag_192:\n        /* \"#utility.yul\":16414:16446   */\n      tag_358\n      tag_191\n      jump\t// in\n    tag_358:\n        /* \"#utility.yul\":16455:16520   */\n      tag_359\n        /* \"#utility.yul\":16513:16519   */\n      dup2\n        /* \"#utility.yul\":16505:16511   */\n      dup5\n        /* \"#utility.yul\":16499:16503   */\n      dup5\n        /* \"#utility.yul\":16455:16520   */\n      tag_190\n      jump\t// in\n    tag_359:\n        /* \"#utility.yul\":16390:16526   */\n      pop\n        /* \"#utility.yul\":16337:16526   */\n      pop\n      pop\n      jump\t// out\n        /* \"#utility.yul\":16532:16718   */\n    tag_193:\n        /* \"#utility.yul\":16592:16712   */\n    tag_361:\n        /* \"#utility.yul\":16609:16612   */\n      dup2\n        /* \"#utility.yul\":16602:16607   */\n      dup2\n        /* \"#utility.yul\":16599:16613   */\n      lt\n        /* \"#utility.yul\":16592:16712   */\n      iszero\n      tag_363\n      jumpi\n        /* \"#utility.yul\":16663:16702   */\n      tag_364\n        /* \"#utility.yul\":16700:16701   */\n      0x00\n        /* \"#utility.yul\":16693:16698   */\n      dup3\n        /* \"#utility.yul\":16663:16702   */\n      tag_192\n      jump\t// in\n    tag_364:\n        /* \"#utility.yul\":16636:16637   */\n      0x01\n        /* \"#utility.yul\":16629:16634   */\n      dup2\n        /* \"#utility.yul\":16625:16638   */\n      add\n        /* \"#utility.yul\":16616:16638   */\n      swap1\n      pop\n        /* \"#utility.yul\":16592:16712   */\n      jump(tag_361)\n    tag_363:\n        /* \"#utility.yul\":16532:16718   */\n      pop\n      pop\n      jump\t// out\n        /* \"#utility.yul\":16724:17267   */\n    tag_194:\n        /* \"#utility.yul\":16825:16827   */\n      0x1f\n        /* \"#utility.yul\":16820:16823   */\n      dup3\n        /* \"#utility.yul\":16817:16828   */\n      gt\n        /* \"#utility.yul\":16814:17260   */\n      iszero\n      tag_366\n      jumpi\n        /* \"#utility.yul\":16859:16897   */\n      tag_367\n        /* \"#utility.yul\":16891:16896   */\n      dup2\n        /* \"#utility.yul\":16859:16897   */\n      tag_183\n      jump\t// in\n    tag_367:\n        /* \"#utility.yul\":16943:16972   */\n      tag_368\n        /* \"#utility.yul\":16961:16971   */\n      dup5\n        /* \"#utility.yul\":16943:16972   */\n      tag_184\n      jump\t// in\n    tag_368:\n        /* \"#utility.yul\":16933:16941   */\n      dup2\n        /* \"#utility.yul\":16929:16973   */\n      add\n        /* \"#utility.yul\":17126:17128   */\n      0x20\n        /* \"#utility.yul\":17114:17124   */\n      dup6\n        /* \"#utility.yul\":17111:17129   */\n      lt\n        /* \"#utility.yul\":17108:17157   */\n      iszero\n      tag_369\n      jumpi\n        /* \"#utility.yul\":17147:17155   */\n      dup2\n        /* \"#utility.yul\":17132:17155   */\n      swap1\n      pop\n        /* \"#utility.yul\":17108:17157   */\n    tag_369:\n        /* \"#utility.yul\":17170:17250   */\n      tag_370\n        /* \"#utility.yul\":17226:17248   */\n      tag_371\n        /* \"#utility.yul\":17244:17247   */\n      dup6\n        /* \"#utility.yul\":17226:17248   */\n      tag_184\n      jump\t// in\n    tag_371:\n        /* \"#utility.yul\":17216:17224   */\n      dup4\n        /* \"#utility.yul\":17212:17249   */\n      add\n        /* \"#utility.yul\":17199:17210   */\n      dup3\n        /* \"#utility.yul\":17170:17250   */\n      tag_193\n      jump\t// in\n    tag_370:\n        /* \"#utility.yul\":16829:17260   */\n      pop\n      pop\n        /* \"#utility.yul\":16814:17260   */\n    tag_366:\n        /* \"#utility.yul\":16724:17267   */\n      pop\n      pop\n      pop\n      jump\t// out\n        /* \"#utility.yul\":17273:17390   */\n    tag_195:\n        /* \"#utility.yul\":17327:17335   */\n      0x00\n        /* \"#utility.yul\":17377:17382   */\n      dup3\n        /* \"#utility.yul\":17371:17375   */\n      dup3\n        /* \"#utility.yul\":17367:17383   */\n      shr\n        /* \"#utility.yul\":17346:17383   */\n      swap1\n      pop\n        /* \"#utility.yul\":17273:17390   */\n      swap3\n      swap2\n      pop\n      pop\n      jump\t// out\n        /* \"#utility.yul\":17396:17565   */\n    tag_196:\n        /* \"#utility.yul\":17440:17446   */\n      0x00\n        /* \"#utility.yul\":17473:17524   */\n      tag_374\n        /* \"#utility.yul\":17521:17522   */\n      0x00\n        /* \"#utility.yul\":17517:17523   */\n      not\n        /* \"#utility.yul\":17509:17514   */\n      dup5\n        /* \"#utility.yul\":17506:17507   */\n      0x08\n        /* \"#utility.yul\":17502:17515   */\n      mul\n        /* \"#utility.yul\":17473:17524   */\n      tag_195\n      jump\t// in\n    tag_374:\n        /* \"#utility.yul\":17469:17525   */\n      not\n        /* \"#utility.yul\":17554:17558   */\n      dup1\n        /* \"#utility.yul\":17548:17552   */\n      dup4\n        /* \"#utility.yul\":17544:17559   */\n      and\n        /* \"#utility.yul\":17534:17559   */\n      swap2\n      pop\n        /* \"#utility.yul\":17447:17565   */\n      pop\n        /* \"#utility.yul\":17396:17565   */\n      swap3\n      swap2\n      pop\n      pop\n      jump\t// out\n        /* \"#utility.yul\":17570:17865   */\n    tag_197:\n        /* \"#utility.yul\":17646:17650   */\n      0x00\n        /* \"#utility.yul\":17792:17821   */\n      tag_376\n        /* \"#utility.yul\":17817:17820   */\n      dup4\n        /* \"#utility.yul\":17811:17815   */\n      dup4\n        /* \"#utility.yul\":17792:17821   */\n      tag_196\n      jump\t// in\n    tag_376:\n        /* \"#utility.yul\":17784:17821   */\n      swap2\n      pop\n        /* \"#utility.yul\":17854:17857   */\n      dup3\n        /* \"#utility.yul\":17851:17852   */\n      0x02\n        /* \"#utility.yul\":17847:17858   */\n      mul\n        /* \"#utility.yul\":17841:17845   */\n      dup3\n        /* \"#utility.yul\":17838:17859   */\n      or\n        /* \"#utility.yul\":17830:17859   */\n      swap1\n      pop\n        /* \"#utility.yul\":17570:17865   */\n      swap3\n      swap2\n      pop\n      pop\n      jump\t// out\n        /* \"#utility.yul\":17870:19273   */\n    tag_85:\n        /* \"#utility.yul\":17994:18038   */\n      tag_378\n        /* \"#utility.yul\":18034:18037   */\n      dup4\n        /* \"#utility.yul\":18029:18032   */\n      dup4\n        /* \"#utility.yul\":17994:18038   */\n      tag_181\n      jump\t// in\n    tag_378:\n        /* \"#utility.yul\":18103:18121   */\n      0xffffffffffffffff\n        /* \"#utility.yul\":18095:18101   */\n      dup2\n        /* \"#utility.yul\":18092:18122   */\n      gt\n        /* \"#utility.yul\":18089:18145   */\n      iszero\n      tag_379\n      jumpi\n        /* \"#utility.yul\":18125:18143   */\n      tag_380\n      tag_182\n      jump\t// in\n    tag_380:\n        /* \"#utility.yul\":18089:18145   */\n    tag_379:\n        /* \"#utility.yul\":18169:18207   */\n      tag_381\n        /* \"#utility.yul\":18201:18205   */\n      dup3\n        /* \"#utility.yul\":18195:18206   */\n      sload\n        /* \"#utility.yul\":18169:18207   */\n      tag_35\n      jump\t// in\n    tag_381:\n        /* \"#utility.yul\":18254:18321   */\n      tag_382\n        /* \"#utility.yul\":18314:18320   */\n      dup3\n        /* \"#utility.yul\":18306:18312   */\n      dup3\n        /* \"#utility.yul\":18300:18304   */\n      dup6\n        /* \"#utility.yul\":18254:18321   */\n      tag_194\n      jump\t// in\n    tag_382:\n        /* \"#utility.yul\":18348:18349   */\n      0x00\n        /* \"#utility.yul\":18377:18379   */\n      0x1f\n        /* \"#utility.yul\":18369:18375   */\n      dup4\n        /* \"#utility.yul\":18366:18380   */\n      gt\n        /* \"#utility.yul\":18394:18395   */\n      0x01\n        /* \"#utility.yul\":18389:19021   */\n      dup2\n      eq\n      tag_384\n      jumpi\n        /* \"#utility.yul\":19065:19066   */\n      0x00\n        /* \"#utility.yul\":19082:19088   */\n      dup5\n        /* \"#utility.yul\":19079:19163   */\n      iszero\n      tag_385\n      jumpi\n        /* \"#utility.yul\":19138:19147   */\n      dup3\n        /* \"#utility.yul\":19133:19136   */\n      dup8\n        /* \"#utility.yul\":19129:19148   */\n      add\n        /* \"#utility.yul\":19116:19149   */\n      calldataload\n        /* \"#utility.yul\":19107:19149   */\n      swap1\n      pop\n        /* \"#utility.yul\":19079:19163   */\n    tag_385:\n        /* \"#utility.yul\":19189:19256   */\n      tag_386\n        /* \"#utility.yul\":19249:19255   */\n      dup6\n        /* \"#utility.yul\":19242:19247   */\n      dup3\n        /* \"#utility.yul\":19189:19256   */\n      tag_197\n      jump\t// in\n    tag_386:\n        /* \"#utility.yul\":19183:19187   */\n      dup7\n        /* \"#utility.yul\":19176:19257   */\n      sstore\n        /* \"#utility.yul\":19038:19267   */\n      pop\n        /* \"#utility.yul\":18359:19267   */\n      jump(tag_383)\n        /* \"#utility.yul\":18389:19021   */\n    tag_384:\n        /* \"#utility.yul\":18441:18445   */\n      0x1f\n        /* \"#utility.yul\":18437:18446   */\n      not\n        /* \"#utility.yul\":18429:18435   */\n      dup5\n        /* \"#utility.yul\":18425:18447   */\n      and\n        /* \"#utility.yul\":18475:18512   */\n      tag_387\n        /* \"#utility.yul\":18507:18511   */\n      dup7\n        /* \"#utility.yul\":18475:18512   */\n      tag_183\n      jump\t// in\n    tag_387:\n        /* \"#utility.yul\":18534:18535   */\n      0x00\n        /* \"#utility.yul\":18548:18763   */\n    tag_388:\n        /* \"#utility.yul\":18562:18569   */\n      dup3\n        /* \"#utility.yul\":18559:18560   */\n      dup2\n        /* \"#utility.yul\":18556:18570   */\n      lt\n        /* \"#utility.yul\":18548:18763   */\n      iszero\n      tag_390\n      jumpi\n        /* \"#utility.yul\":18648:18657   */\n      dup5\n        /* \"#utility.yul\":18643:18646   */\n      dup10\n        /* \"#utility.yul\":18639:18658   */\n      add\n        /* \"#utility.yul\":18626:18659   */\n      calldataload\n        /* \"#utility.yul\":18618:18624   */\n      dup3\n        /* \"#utility.yul\":18611:18660   */\n      sstore\n        /* \"#utility.yul\":18699:18700   */\n      0x01\n        /* \"#utility.yul\":18691:18697   */\n      dup3\n        /* \"#utility.yul\":18687:18701   */\n      add\n        /* \"#utility.yul\":18677:18701   */\n      swap2\n      pop\n        /* \"#utility.yul\":18746:18748   */\n      0x20\n        /* \"#utility.yul\":18735:18744   */\n      dup6\n        /* \"#utility.yul\":18731:18749   */\n      add\n        /* \"#utility.yul\":18718:18749   */\n      swap5\n      pop\n        /* \"#utility.yul\":18585:18589   */\n      0x20\n        /* \"#utility.yul\":18582:18583   */\n      dup2\n        /* \"#utility.yul\":18578:18590   */\n      add\n        /* \"#utility.yul\":18573:18590   */\n      swap1\n      pop\n        /* \"#utility.yul\":18548:18763   */\n      jump(tag_388)\n    tag_390:\n        /* \"#utility.yul\":18791:18797   */\n      dup7\n        /* \"#utility.yul\":18782:18789   */\n      dup4\n        /* \"#utility.yul\":18779:18798   */\n      lt\n        /* \"#utility.yul\":18776:18962   */\n      iszero\n      tag_391\n      jumpi\n        /* \"#utility.yul\":18856:18865   */\n      dup5\n        /* \"#utility.yul\":18851:18854   */\n      dup10\n        /* \"#utility.yul\":18847:18866   */\n      add\n        /* \"#utility.yul\":18834:18867   */\n      calldataload\n        /* \"#utility.yul\":18899:18947   */\n      tag_392\n        /* \"#utility.yul\":18941:18945   */\n      0x1f\n        /* \"#utility.yul\":18933:18939   */\n      dup10\n        /* \"#utility.yul\":18929:18946   */\n      and\n        /* \"#utility.yul\":18918:18927   */\n      dup3\n        /* \"#utility.yul\":18899:18947   */\n      tag_196\n      jump\t// in\n    tag_392:\n        /* \"#utility.yul\":18891:18897   */\n      dup4\n        /* \"#utility.yul\":18884:18948   */\n      sstore\n        /* \"#utility.yul\":18799:18962   */\n      pop\n        /* \"#utility.yul\":18776:18962   */\n    tag_391:\n        /* \"#utility.yul\":19008:19009   */\n      0x01\n        /* \"#utility.yul\":19004:19005   */\n      0x02\n        /* \"#utility.yul\":18996:19002   */\n      dup9\n        /* \"#utility.yul\":18992:19006   */\n      mul\n        /* \"#utility.yul\":18988:19010   */\n      add\n        /* \"#utility.yul\":18982:18986   */\n      dup9\n        /* \"#utility.yul\":18975:19011   */\n      sstore\n        /* \"#utility.yul\":18396:19021   */\n      pop\n      pop\n      pop\n        /* \"#utility.yul\":18359:19267   */\n    tag_383:\n      pop\n        /* \"#utility.yul\":17969:19273   */\n      pop\n      pop\n      pop\n        /* \"#utility.yul\":17870:19273   */\n      pop\n      pop\n      pop\n      jump\t// out\n        /* \"#utility.yul\":19279:19473   */\n    tag_88:\n        /* \"#utility.yul\":19319:19323   */\n      0x00\n        /* \"#utility.yul\":19339:19359   */\n      tag_394\n        /* \"#utility.yul\":19357:19358   */\n      dup3\n        /* \"#utility.yul\":19339:19359   */\n      tag_145\n      jump\t// in\n    tag_394:\n        /* \"#utility.yul\":19334:19359   */\n      swap2\n      pop\n        /* \"#utility.yul\":19373:19393   */\n      tag_395\n        /* \"#utility.yul\":19391:19392   */\n      dup4\n        /* \"#utility.yul\":19373:19393   */\n      tag_145\n      jump\t// in\n    tag_395:\n        /* \"#utility.yul\":19368:19393   */\n      swap3\n      pop\n        /* \"#utility.yul\":19417:19418   */\n      dup3\n        /* \"#utility.yul\":19414:19415   */\n      dup3\n        /* \"#utility.yul\":19410:19419   */\n      sub\n        /* \"#utility.yul\":19402:19419   */\n      swap1\n      pop\n        /* \"#utility.yul\":19441:19442   */\n      dup2\n        /* \"#utility.yul\":19435:19439   */\n      dup2\n        /* \"#utility.yul\":19432:19443   */\n      gt\n        /* \"#utility.yul\":19429:19466   */\n      iszero\n      tag_396\n      jumpi\n        /* \"#utility.yul\":19446:19464   */\n      tag_397\n      tag_180\n      jump\t// in\n    tag_397:\n        /* \"#utility.yul\":19429:19466   */\n    tag_396:\n        /* \"#utility.yul\":19279:19473   */\n      swap3\n      swap2\n      pop\n      pop\n      jump\t// out\n        /* \"#utility.yul\":19479:19701   */\n    tag_90:\n        /* \"#utility.yul\":19572:19576   */\n      0x00\n        /* \"#utility.yul\":19610:19612   */\n      0x20\n        /* \"#utility.yul\":19599:19608   */\n      dup3\n        /* \"#utility.yul\":19595:19613   */\n      add\n        /* \"#utility.yul\":19587:19613   */\n      swap1\n      pop\n        /* \"#utility.yul\":19623:19694   */\n      tag_399\n        /* \"#utility.yul\":19691:19692   */\n      0x00\n        /* \"#utility.yul\":19680:19689   */\n      dup4\n        /* \"#utility.yul\":19676:19693   */\n      add\n        /* \"#utility.yul\":19667:19673   */\n      dup5\n        /* \"#utility.yul\":19623:19694   */\n      tag_175\n      jump\t// in\n    tag_399:\n        /* \"#utility.yul\":19479:19701   */\n      swap3\n      swap2\n      pop\n      pop\n      jump\t// out\n        /* \"#utility.yul\":19707:19872   */\n    tag_198:\n        /* \"#utility.yul\":19847:19864   */\n      0x43616d706169676e20636c6f7365640000000000000000000000000000000000\n        /* \"#utility.yul\":19843:19844   */\n      0x00\n        /* \"#utility.yul\":19835:19841   */\n      dup3\n        /* \"#utility.yul\":19831:19845   */\n      add\n        /* \"#utility.yul\":19824:19865   */\n      mstore\n        /* \"#utility.yul\":19707:19872   */\n      pop\n      jump\t// out\n        /* \"#utility.yul\":19878:20244   */\n    tag_199:\n        /* \"#utility.yul\":20020:20023   */\n      0x00\n        /* \"#utility.yul\":20041:20108   */\n      tag_402\n        /* \"#utility.yul\":20105:20107   */\n      0x0f\n        /* \"#utility.yul\":20100:20103   */\n      dup4\n        /* \"#utility.yul\":20041:20108   */\n      tag_152\n      jump\t// in\n    tag_402:\n        /* \"#utility.yul\":20034:20108   */\n      swap2\n      pop\n        /* \"#utility.yul\":20117:20210   */\n      tag_403\n        /* \"#utility.yul\":20206:20209   */\n      dup3\n        /* \"#utility.yul\":20117:20210   */\n      tag_198\n      jump\t// in\n    tag_403:\n        /* \"#utility.yul\":20235:20237   */\n      0x20\n        /* \"#utility.yul\":20230:20233   */\n      dup3\n        /* \"#utility.yul\":20226:20238   */\n      add\n        /* \"#utility.yul\":20219:20238   */\n      swap1\n      pop\n        /* \"#utility.yul\":19878:20244   */\n      swap2\n      swap1\n      pop\n      jump\t// out\n        /* \"#utility.yul\":20250:20669   */\n    tag_101:\n        /* \"#utility.yul\":20416:20420   */\n      0x00\n        /* \"#utility.yul\":20454:20456   */\n      0x20\n        /* \"#utility.yul\":20443:20452   */\n      dup3\n        /* \"#utility.yul\":20439:20457   */\n      add\n        /* \"#utility.yul\":20431:20457   */\n      swap1\n      pop\n        /* \"#utility.yul\":20503:20512   */\n      dup2\n        /* \"#utility.yul\":20497:20501   */\n      dup2\n        /* \"#utility.yul\":20493:20513   */\n      sub\n        /* \"#utility.yul\":20489:20490   */\n      0x00\n        /* \"#utility.yul\":20478:20487   */\n      dup4\n        /* \"#utility.yul\":20474:20491   */\n      add\n        /* \"#utility.yul\":20467:20514   */\n      mstore\n        /* \"#utility.yul\":20531:20662   */\n      tag_405\n        /* \"#utility.yul\":20657:20661   */\n      dup2\n        /* \"#utility.yul\":20531:20662   */\n      tag_199\n      jump\t// in\n    tag_405:\n        /* \"#utility.yul\":20523:20662   */\n      swap1\n      pop\n        /* \"#utility.yul\":20250:20669   */\n      swap2\n      swap1\n      pop\n      jump\t// out\n        /* \"#utility.yul\":20675:20839   */\n    tag_200:\n        /* \"#utility.yul\":20815:20831   */\n      0x43616d706169676e20656e646564000000000000000000000000000000000000\n        /* \"#utility.yul\":20811:20812   */\n      0x00\n        /* \"#utility.yul\":20803:20809   */\n      dup3\n        /* \"#utility.yul\":20799:20813   */\n      add\n        /* \"#utility.yul\":20792:20832   */\n      mstore\n        /* \"#utility.yul\":20675:20839   */\n      pop\n      jump\t// out\n        /* \"#utility.yul\":20845:21211   */\n    tag_201:\n        /* \"#utility.yul\":20987:20990   */\n      0x00\n        /* \"#utility.yul\":21008:21075   */\n      tag_408\n        /* \"#utility.yul\":21072:21074   */\n      0x0e\n        /* \"#utility.yul\":21067:21070   */\n      dup4\n        /* \"#utility.yul\":21008:21075   */\n      tag_152\n      jump\t// in\n    tag_408:\n        /* \"#utility.yul\":21001:21075   */\n      swap2\n      pop\n        /* \"#utility.yul\":21084:21177   */\n      tag_409\n        /* \"#utility.yul\":21173:21176   */\n      dup3\n        /* \"#utility.yul\":21084:21177   */\n      tag_200\n      jump\t// in\n    tag_409:\n        /* \"#utility.yul\":21202:21204   */\n      0x20\n        /* \"#utility.yul\":21197:21200   */\n      dup3\n        /* \"#utility.yul\":21193:21205   */\n      add\n        /* \"#utility.yul\":21186:21205   */\n      swap1\n      pop\n        /* \"#utility.yul\":20845:21211   */\n      swap2\n      swap1\n      pop\n      jump\t// out\n        /* \"#utility.yul\":21217:21636   */\n    tag_107:\n        /* \"#utility.yul\":21383:21387   */\n      0x00\n        /* \"#utility.yul\":21421:21423   */\n      0x20\n        /* \"#utility.yul\":21410:21419   */\n      dup3\n        /* \"#utility.yul\":21406:21424   */\n      add\n        /* \"#utility.yul\":21398:21424   */\n      swap1\n      pop\n        /* \"#utility.yul\":21470:21479   */\n      dup2\n        /* \"#utility.yul\":21464:21468   */\n      dup2\n        /* \"#utility.yul\":21460:21480   */\n      sub\n        /* \"#utility.yul\":21456:21457   */\n      0x00\n        /* \"#utility.yul\":21445:21454   */\n      dup4\n        /* \"#utility.yul\":21441:21458   */\n      add\n        /* \"#utility.yul\":21434:21481   */\n      mstore\n        /* \"#utility.yul\":21498:21629   */\n      tag_411\n        /* \"#utility.yul\":21624:21628   */\n      dup2\n        /* \"#utility.yul\":21498:21629   */\n      tag_201\n      jump\t// in\n    tag_411:\n        /* \"#utility.yul\":21490:21629   */\n      swap1\n      pop\n        /* \"#utility.yul\":21217:21636   */\n      swap2\n      swap1\n      pop\n      jump\t// out\n        /* \"#utility.yul\":21642:21816   */\n    tag_202:\n        /* \"#utility.yul\":21782:21808   */\n      0x436f6e747269627574696f6e206d757374206265203e20300000000000000000\n        /* \"#utility.yul\":21778:21779   */\n      0x00\n        /* \"#utility.yul\":21770:21776   */\n      dup3\n        /* \"#utility.yul\":21766:21780   */\n      add\n        /* \"#utility.yul\":21759:21809   */\n      mstore\n        /* \"#utility.yul\":21642:21816   */\n      pop\n      jump\t// out\n        /* \"#utility.yul\":21822:22188   */\n    tag_203:\n        /* \"#utility.yul\":21964:21967   */\n      0x00\n        /* \"#utility.yul\":21985:22052   */\n      tag_414\n        /* \"#utility.yul\":22049:22051   */\n      0x18\n        /* \"#utility.yul\":22044:22047   */\n      dup4\n        /* \"#utility.yul\":21985:22052   */\n      tag_152\n      jump\t// in\n    tag_414:\n        /* \"#utility.yul\":21978:22052   */\n      swap2\n      pop\n        /* \"#utility.yul\":22061:22154   */\n      tag_415\n        /* \"#utility.yul\":22150:22153   */\n      dup3\n        /* \"#utility.yul\":22061:22154   */\n      tag_202\n      jump\t// in\n    tag_415:\n        /* \"#utility.yul\":22179:22181   */\n      0x20\n        /* \"#utility.yul\":22174:22177   */\n      dup3\n        /* \"#utility.yul\":22170:22182   */\n      add\n        /* \"#utility.yul\":22163:22182   */\n      swap1\n      pop\n        /* \"#utility.yul\":21822:22188   */\n      swap2\n      swap1\n      pop\n      jump\t// out\n        /* \"#utility.yul\":22194:22613   */\n    tag_111:\n        /* \"#utility.yul\":22360:22364   */\n      0x00\n        /* \"#utility.yul\":22398:22400   */\n      0x20\n        /* \"#utility.yul\":22387:22396   */\n      dup3\n        /* \"#utility.yul\":22383:22401   */\n      add\n        /* \"#utility.yul\":22375:22401   */\n      swap1\n      pop\n        /* \"#utility.yul\":22447:22456   */\n      dup2\n        /* \"#utility.yul\":22441:22445   */\n      dup2\n        /* \"#utility.yul\":22437:22457   */\n      sub\n        /* \"#utility.yul\":22433:22434   */\n      0x00\n        /* \"#utility.yul\":22422:22431   */\n      dup4\n        /* \"#utility.yul\":22418:22435   */\n      add\n        /* \"#utility.yul\":22411:22458   */\n      mstore\n        /* \"#utility.yul\":22475:22606   */\n      tag_417\n        /* \"#utility.yul\":22601:22605   */\n      dup2\n        /* \"#utility.yul\":22475:22606   */\n      tag_203\n      jump\t// in\n    tag_417:\n        /* \"#utility.yul\":22467:22606   */\n      swap1\n      pop\n        /* \"#utility.yul\":22194:22613   */\n      swap2\n      swap1\n      pop\n      jump\t// out\n        /* \"#utility.yul\":22619:22787   */\n    tag_204:\n        /* \"#utility.yul\":22759:22779   */\n      0x43616d706169676e206e6f7420656e6465640000000000000000000000000000\n        /* \"#utility.yul\":22755:22756   */\n      0x00\n        /* \"#utility.yul\":22747:22753   */\n      dup3\n        /* \"#utility.yul\":22743:22757   */\n      add\n        /* \"#utility.yul\":22736:22780   */\n      mstore\n        /* \"#utility.yul\":22619:22787   */\n      pop\n      jump\t// out\n        /* \"#utility.yul\":22793:23159   */\n    tag_205:\n        /* \"#utility.yul\":22935:22938   */\n      0x00\n        /* \"#utility.yul\":22956:23023   */\n      tag_420\n        /* \"#utility.yul\":23020:23022   */\n      0x12\n        /* \"#utility.yul\":23015:23018   */\n      dup4\n        /* \"#utility.yul\":22956:23023   */\n      tag_152\n      jump\t// in\n    tag_420:\n        /* \"#utility.yul\":22949:23023   */\n      swap2\n      pop\n        /* \"#utility.yul\":23032:23125   */\n      tag_421\n        /* \"#utility.yul\":23121:23124   */\n      dup3\n        /* \"#utility.yul\":23032:23125   */\n      tag_204\n      jump\t// in\n    tag_421:\n        /* \"#utility.yul\":23150:23152   */\n      0x20\n        /* \"#utility.yul\":23145:23148   */\n      dup3\n        /* \"#utility.yul\":23141:23153   */\n      add\n        /* \"#utility.yul\":23134:23153   */\n      swap1\n      pop\n        /* \"#utility.yul\":22793:23159   */\n      swap2\n      swap1\n      pop\n      jump\t// out\n        /* \"#utility.yul\":23165:23584   */\n    tag_129:\n        /* \"#utility.yul\":23331:23335   */\n      0x00\n        /* \"#utility.yul\":23369:23371   */\n      0x20\n        /* \"#utility.yul\":23358:23367   */\n      dup3\n        /* \"#utility.yul\":23354:23372   */\n      add\n        /* \"#utility.yul\":23346:23372   */\n      swap1\n      pop\n        /* \"#utility.yul\":23418:23427   */\n      dup2\n        /* \"#utility.yul\":23412:23416   */\n      dup2\n        /* \"#utility.yul\":23408:23428   */\n      sub\n        /* \"#utility.yul\":23404:23405   */\n      0x00\n        /* \"#utility.yul\":23393:23402   */\n      dup4\n        /* \"#utility.yul\":23389:23406   */\n      add\n        /* \"#utility.yul\":23382:23429   */\n      mstore\n        /* \"#utility.yul\":23446:23577   */\n      tag_423\n        /* \"#utility.yul\":23572:23576   */\n      dup2\n        /* \"#utility.yul\":23446:23577   */\n      tag_205\n      jump\t// in\n    tag_423:\n        /* \"#utility.yul\":23438:23577   */\n      swap1\n      pop\n        /* \"#utility.yul\":23165:23584   */\n      swap2\n      swap1\n      pop\n      jump\t// out\n        /* \"#utility.yul\":23590:23752   */\n    tag_206:\n        /* \"#utility.yul\":23730:23744   */\n      0x476f616c20726561636865640000000000000000000000000000000000000000\n        /* \"#utility.yul\":23726:23727   */\n      0x00\n        /* \"#utility.yul\":23718:23724   */\n      dup3\n        /* \"#utility.yul\":23714:23728   */\n      add\n        /* \"#utility.yul\":23707:23745   */\n      mstore\n        /* \"#utility.yul\":23590:23752   */\n      pop\n      jump\t// out\n        /* \"#utility.yul\":23758:24124   */\n    tag_207:\n        /* \"#utility.yul\":23900:23903   */\n      0x00\n        /* \"#utility.yul\":23921:23988   */\n      tag_426\n        /* \"#utility.yul\":23985:23987   */\n      0x0c\n        /* \"#utility.yul\":23980:23983   */\n      dup4\n        /* \"#utility.yul\":23921:23988   */\n      tag_152\n      jump\t// in\n    tag_426:\n        /* \"#utility.yul\":23914:23988   */\n      swap2\n      pop\n        /* \"#utility.yul\":23997:24090   */\n      tag_427\n        /* \"#utility.yul\":24086:24089   */\n      dup3\n        /* \"#utility.yul\":23997:24090   */\n      tag_206\n      jump\t// in\n    tag_427:\n        /* \"#utility.yul\":24115:24117   */\n      0x20\n        /* \"#utility.yul\":24110:24113   */\n      dup3\n        /* \"#utility.yul\":24106:24118   */\n      add\n        /* \"#utility.yul\":24099:24118   */\n      swap1\n      pop\n        /* \"#utility.yul\":23758:24124   */\n      swap2\n      swap1\n      pop\n      jump\t// out\n        /* \"#utility.yul\":24130:24549   */\n    tag_132:\n        /* \"#utility.yul\":24296:24300   */\n      0x00\n        /* \"#utility.yul\":24334:24336   */\n      0x20\n        /* \"#utility.yul\":24323:24332   */\n      dup3\n        /* \"#utility.yul\":24319:24337   */\n      add\n        /* \"#utility.yul\":24311:24337   */\n      swap1\n      pop\n        /* \"#utility.yul\":24383:24392   */\n      dup2\n        /* \"#utility.yul\":24377:24381   */\n      dup2\n        /* \"#utility.yul\":24373:24393   */\n      sub\n        /* \"#utility.yul\":24369:24370   */\n      0x00\n        /* \"#utility.yul\":24358:24367   */\n      dup4\n        /* \"#utility.yul\":24354:24371   */\n      add\n        /* \"#utility.yul\":24347:24394   */\n      mstore\n        /* \"#utility.yul\":24411:24542   */\n      tag_429\n        /* \"#utility.yul\":24537:24541   */\n      dup2\n        /* \"#utility.yul\":24411:24542   */\n      tag_207\n      jump\t// in\n    tag_429:\n        /* \"#utility.yul\":24403:24542   */\n      swap1\n      pop\n        /* \"#utility.yul\":24130:24549   */\n      swap2\n      swap1\n      pop\n      jump\t// out\n        /* \"#utility.yul\":24555:24720   */\n    tag_208:\n        /* \"#utility.yul\":24695:24712   */\n      0x46756e64732077697468647261776e0000000000000000000000000000000000\n        /* \"#utility.yul\":24691:24692   */\n      0x00\n        /* \"#utility.yul\":24683:24689   */\n      dup3\n        /* \"#utility.yul\":24679:24693   */\n      add\n        /* \"#utility.yul\":24672:24713   */\n      mstore\n        /* \"#utility.yul\":24555:24720   */\n      pop\n      jump\t// out\n        /* \"#utility.yul\":24726:25092   */\n    tag_209:\n        /* \"#utility.yul\":24868:24871   */\n      0x00\n        /* \"#utility.yul\":24889:24956   */\n      tag_432\n        /* \"#utility.yul\":24953:24955   */\n      0x0f\n        /* \"#utility.yul\":24948:24951   */\n      dup4\n        /* \"#utility.yul\":24889:24956   */\n      tag_152\n      jump\t// in\n    tag_432:\n        /* \"#utility.yul\":24882:24956   */\n      swap2\n      pop\n        /* \"#utility.yul\":24965:25058   */\n      tag_433\n        /* \"#utility.yul\":25054:25057   */\n      dup3\n        /* \"#utility.yul\":24965:25058   */\n      tag_208\n      jump\t// in\n    tag_433:\n        /* \"#utility.yul\":25083:25085   */\n      0x20\n        /* \"#utility.yul\":25078:25081   */\n      dup3\n        /* \"#utility.yul\":25074:25086   */\n      add\n        /* \"#utility.yul\":25067:25086   */\n      swap1\n      pop\n        /* \"#utility.yul\":24726:25092   */\n      swap2\n      swap1\n      pop\n      jump\t// out\n        /* \"#utility.yul\":25098:25517   */\n    tag_135:\n        /* \"#utility.yul\":25264:25268   */\n      0x00\n        /* \"#utility.yul\":25302:25304   */\n      0x20\n        /* \"#utility.yul\":25291:25300   */\n      dup3\n        /* \"#utility.yul\":25287:25305   */\n      add\n        /* \"#utility.yul\":25279:25305   */\n      swap1\n      pop\n        /* \"#utility.yul\":25351:25360   */\n      dup2\n        /* \"#utility.yul\":25345:25349   */\n      dup2\n        /* \"#utility.yul\":25341:25361   */\n      sub\n        /* \"#utility.yul\":25337:25338   */\n      0x00\n        /* \"#utility.yul\":25326:25335   */\n      dup4\n        /* \"#utility.yul\":25322:25339   */\n      add\n        /* \"#utility.yul\":25315:25362   */\n      mstore\n        /* \"#utility.yul\":25379:25510   */\n      tag_435\n        /* \"#utility.yul\":25505:25509   */\n      dup2\n        /* \"#utility.yul\":25379:25510   */\n      tag_209\n      jump\t// in\n    tag_435:\n        /* \"#utility.yul\":25371:25510   */\n      swap1\n      pop\n        /* \"#utility.yul\":25098:25517   */\n      swap2\n      swap1\n      pop\n      jump\t// out\n        /* \"#utility.yul\":25523:25689   */\n    tag_210:\n        /* \"#utility.yul\":25663:25681   */\n      0x4e6f20636f6e747269627574696f6e7300000000000000000000000000000000\n        /* \"#utility.yul\":25659:25660   */\n      0x00\n        /* \"#utility.yul\":25651:25657   */\n      dup3\n        /* \"#utility.yul\":25647:25661   */\n      add\n        /* \"#utility.yul\":25640:25682   */\n      mstore\n        /* \"#utility.yul\":25523:25689   */\n      pop\n      jump\t// out\n        /* \"#utility.yul\":25695:26061   */\n    tag_211:\n        /* \"#utility.yul\":25837:25840   */\n      0x00\n        /* \"#utility.yul\":25858:25925   */\n      tag_438\n        /* \"#utility.yul\":25922:25924   */\n      0x10\n        /* \"#utility.yul\":25917:25920   */\n      dup4\n        /* \"#utility.yul\":25858:25925   */\n      tag_152\n      jump\t// in\n    tag_438:\n        /* \"#utility.yul\":25851:25925   */\n      swap2\n      pop\n        /* \"#utility.yul\":25934:26027   */\n      tag_439\n        /* \"#utility.yul\":26023:26026   */\n      dup3\n        /* \"#utility.yul\":25934:26027   */\n      tag_210\n      jump\t// in\n    tag_439:\n        /* \"#utility.yul\":26052:26054   */\n      0x20\n        /* \"#utility.yul\":26047:26050   */\n      dup3\n        /* \"#utility.yul\":26043:26055   */\n      add\n        /* \"#utility.yul\":26036:26055   */\n      swap1\n      pop\n        /* \"#utility.yul\":25695:26061   */\n      swap2\n      swap1\n      pop\n      jump\t// out\n        /* \"#utility.yul\":26067:26486   */\n    tag_138:\n        /* \"#utility.yul\":26233:26237   */\n      0x00\n        /* \"#utility.yul\":26271:26273   */\n      0x20\n        /* \"#utility.yul\":26260:26269   */\n      dup3\n        /* \"#utility.yul\":26256:26274   */\n      add\n        /* \"#utility.yul\":26248:26274   */\n      swap1\n      pop\n        /* \"#utility.yul\":26320:26329   */\n      dup2\n        /* \"#utility.yul\":26314:26318   */\n      dup2\n        /* \"#utility.yul\":26310:26330   */\n      sub\n        /* \"#utility.yul\":26306:26307   */\n      0x00\n        /* \"#utility.yul\":26295:26304   */\n      dup4\n        /* \"#utility.yul\":26291:26308   */\n      add\n        /* \"#utility.yul\":26284:26331   */\n      mstore\n        /* \"#utility.yul\":26348:26479   */\n      tag_441\n        /* \"#utility.yul\":26474:26478   */\n      dup2\n        /* \"#utility.yul\":26348:26479   */\n      tag_211\n      jump\t// in\n    tag_441:\n        /* \"#utility.yul\":26340:26479   */\n      swap1\n      pop\n        /* \"#utility.yul\":26067:26486   */\n      swap2\n      swap1\n      pop\n      jump\t// out\n\n    auxdata: 0xa26469706673582212200be63f190088c6248010262792edb4d48e7725cbb23b552f7d330ca4a987f8ae64736f6c634300081a0033\n}\n",
				"bytecode": {
					"linkReferences": {},
					"object": "6080604052348015600e575f80fd5b5061194f8061001c5f395ff3fe608060405260043610610049575f3560e01c8063141961bc1461004d578063155dd5ee14610090578063a318f269146100b8578063c1cbbca7146100f4578063d25090ff14610110575b5f80fd5b348015610058575f80fd5b50610073600480360381019061006e9190610ca1565b610138565b604051610087989796959493929190610da4565b60405180910390f35b34801561009b575f80fd5b506100b660048036038101906100b19190610ca1565b6102ce565b005b3480156100c3575f80fd5b506100de60048036038101906100d99190610e8f565b610582565b6040516100eb9190610f32565b60405180910390f35b61010e60048036038101906101099190610ca1565b61074f565b005b34801561011b575f80fd5b5061013660048036038101906101319190610ca1565b6109c6565b005b5f8181548110610146575f80fd5b905f5260205f2090600802015f91509050805f015f9054906101000a900473ffffffffffffffffffffffffffffffffffffffff169080600101805461018a90610f78565b80601f01602080910402602001604051908101604052809291908181526020018280546101b690610f78565b80156102015780601f106101d857610100808354040283529160200191610201565b820191905f5260205f20905b8154815290600101906020018083116101e457829003601f168201915b50505050509080600201805461021690610f78565b80601f016020809104026020016040519081016040528092919081815260200182805461024290610f78565b801561028d5780601f106102645761010080835404028352916020019161028d565b820191905f5260205f20905b81548152906001019060200180831161027057829003601f168201915b505050505090806003015490806004015490806005015490806006015f9054906101000a900460ff16908060060160019054906101000a900460ff16905088565b805f805490508110610315576040517f08c379a000000000000000000000000000000000000000000000000000000000815260040161030c90610ff2565b60405180910390fd5b813373ffffffffffffffffffffffffffffffffffffffff165f82815481106103405761033f611010565b5b905f5260205f2090600802015f015f9054906101000a900473ffffffffffffffffffffffffffffffffffffffff1673ffffffffffffffffffffffffffffffffffffffff16146103c4576040517f08c379a00000000000000000000000000000000000000000000000000000000081526004016103bb90611087565b60405180910390fd5b5f8084815481106103d8576103d7611010565b5b905f5260205f2090600802019050806006015f9054906101000a900460ff16610436576040517f08c379a000000000000000000000000000000000000000000000000000000000815260040161042d906110ef565b60405180910390fd5b806005015442101561047d576040517f08c379a000000000000000000000000000000000000000000000000000000000815260040161047490611157565b60405180910390fd5b8060060160019054906101000a900460ff16156104cf576040517f08c379a00000000000000000000000000000000000000000000000000000000081526004016104c6906111bf565b60405180910390fd5b5f816004015490505f826004018190555060018260060160016101000a81548160ff0219169083151502179055503373ffffffffffffffffffffffffffffffffffffffff166108fc8290811502906040515f60405180830381858888f19350505050158015610540573d5f803e3d5ffd5b50847ff440aec6b52895984d061d622e6edeba6210f7c3e059be920663140c084560d733836040516105739291906111fd565b60405180910390a25050505050565b5f8082116105c5576040517f08c379a00000000000000000000000000000000000000000000000000000000081526004016105bc9061126e565b60405180910390fd5b5f8311610607576040517f08c379a00000000000000000000000000000000000000000000000000000000081526004016105fe906112d6565b60405180910390fd5b5f83426106149190611321565b90505f8060018160018154018082558091505003905f5260205f209060080201905033815f015f6101000a81548173ffffffffffffffffffffffffffffffffffffffff021916908373ffffffffffffffffffffffffffffffffffffffff160217905550888882600101918261068a929190611528565b50868682600201918261069e929190611528565b508381600301819055508181600501819055505f816006015f6101000a81548160ff0219169083151502179055505f8160060160016101000a81548160ff02191690831515021790555060015f805490506106f991906115f5565b7f633109eec20320eded000fc1e2634211aa7e92ba3f5b15faf6dcdafca05094e4336040516107289190611628565b60405180910390a260015f8054905061074191906115f5565b925050509695505050505050565b805f805490508110610796576040517f08c379a000000000000000000000000000000000000000000000000000000000815260040161078d90610ff2565b60405180910390fd5b815f81815481106107aa576107a9611010565b5b905f5260205f20906008020160060160019054906101000a900460ff1615610807576040517f08c379a00000000000000000000000000000000000000000000000000000000081526004016107fe9061168b565b60405180910390fd5b5f818154811061081a57610819611010565b5b905f5260205f20906008020160050154421061086b576040517f08c379a0000000000000000000000000000000000000000000000000000000008152600401610862906116f3565b60405180910390fd5b5f34116108ad576040517f08c379a00000000000000000000000000000000000000000000000000000000081526004016108a49061175b565b60405180910390fd5b5f8084815481106108c1576108c0611010565b5b905f5260205f209060080201905034816007015f3373ffffffffffffffffffffffffffffffffffffffff1673ffffffffffffffffffffffffffffffffffffffff1681526020019081526020015f205f82825461091d9190611321565b9250508190555034816004015f8282546109379190611321565b9250508190555080600301548160040154101580156109645750806006015f9054906101000a900460ff16155b15610986576001816006015f6101000a81548160ff0219169083151502179055505b837f0a4a91237423e0a1766a761c7cb029311d8b95d6b1b81db1b949a70c98b4e08e33346040516109b89291906111fd565b60405180910390a250505050565b805f805490508110610a0d576040517f08c379a0000000000000000000000000000000000000000000000000000000008152600401610a0490610ff2565b60405180910390fd5b5f808381548110610a2157610a20611010565b5b905f5260205f20906008020190508060050154421015610a76576040517f08c379a0000000000000000000000000000000000000000000000000000000008152600401610a6d906117c3565b60405180910390fd5b806006015f9054906101000a900460ff1615610ac7576040517f08c379a0000000000000000000000000000000000000000000000000000000008152600401610abe9061182b565b60405180910390fd5b8060060160019054906101000a900460ff1615610b19576040517f08c379a0000000000000000000000000000000000000000000000000000000008152600401610b1090611893565b60405180910390fd5b5f816007015f3373ffffffffffffffffffffffffffffffffffffffff1673ffffffffffffffffffffffffffffffffffffffff1681526020019081526020015f205490505f8111610b9e576040517f08c379a0000000000000000000000000000000000000000000000000000000008152600401610b95906118fb565b60405180910390fd5b5f826007015f3373ffffffffffffffffffffffffffffffffffffffff1673ffffffffffffffffffffffffffffffffffffffff1681526020019081526020015f20819055503373ffffffffffffffffffffffffffffffffffffffff166108fc8290811502906040515f60405180830381858888f19350505050158015610c25573d5f803e3d5ffd5b50837fa182b2a9c58fae7e4827fbe3ac2fa1c5711191ef3f58b1fa19631feb97273bb23383604051610c589291906111fd565b60405180910390a250505050565b5f80fd5b5f80fd5b5f819050919050565b610c8081610c6e565b8114610c8a575f80fd5b50565b5f81359050610c9b81610c77565b92915050565b5f60208284031215610cb657610cb5610c66565b5b5f610cc384828501610c8d565b91505092915050565b5f73ffffffffffffffffffffffffffffffffffffffff82169050919050565b5f610cf582610ccc565b9050919050565b610d0581610ceb565b82525050565b5f81519050919050565b5f82825260208201905092915050565b8281835e5f83830152505050565b5f601f19601f8301169050919050565b5f610d4d82610d0b565b610d578185610d15565b9350610d67818560208601610d25565b610d7081610d33565b840191505092915050565b610d8481610c6e565b82525050565b5f8115159050919050565b610d9e81610d8a565b82525050565b5f61010082019050610db85f83018b610cfc565b8181036020830152610dca818a610d43565b90508181036040830152610dde8189610d43565b9050610ded6060830188610d7b565b610dfa6080830187610d7b565b610e0760a0830186610d7b565b610e1460c0830185610d95565b610e2160e0830184610d95565b9998505050505050505050565b5f80fd5b5f80fd5b5f80fd5b5f8083601f840112610e4f57610e4e610e2e565b5b8235905067ffffffffffffffff811115610e6c57610e6b610e32565b5b602083019150836001820283011115610e8857610e87610e36565b5b9250929050565b5f805f805f8060808789031215610ea957610ea8610c66565b5b5f87013567ffffffffffffffff811115610ec657610ec5610c6a565b5b610ed289828a01610e3a565b9650965050602087013567ffffffffffffffff811115610ef557610ef4610c6a565b5b610f0189828a01610e3a565b94509450506040610f1489828a01610c8d565b9250506060610f2589828a01610c8d565b9150509295509295509295565b5f602082019050610f455f830184610d7b565b92915050565b7f4e487b71000000000000000000000000000000000000000000000000000000005f52602260045260245ffd5b5f6002820490506001821680610f8f57607f821691505b602082108103610fa257610fa1610f4b565b5b50919050565b7f496e76616c69642063616d706169676e204944000000000000000000000000005f82015250565b5f610fdc601383610d15565b9150610fe782610fa8565b602082019050919050565b5f6020820190508181035f83015261100981610fd0565b9050919050565b7f4e487b71000000000000000000000000000000000000000000000000000000005f52603260045260245ffd5b7f556e617574686f72697a656400000000000000000000000000000000000000005f82015250565b5f611071600c83610d15565b915061107c8261103d565b602082019050919050565b5f6020820190508181035f83015261109e81611065565b9050919050565b7f476f616c206e6f742072656163686564000000000000000000000000000000005f82015250565b5f6110d9601083610d15565b91506110e4826110a5565b602082019050919050565b5f6020820190508181035f830152611106816110cd565b9050919050565b7f446561646c696e65206e6f7420706173736564000000000000000000000000005f82015250565b5f611141601383610d15565b915061114c8261110d565b602082019050919050565b5f6020820190508181035f83015261116e81611135565b9050919050565b7f46756e647320616c72656164792077697468647261776e0000000000000000005f82015250565b5f6111a9601783610d15565b91506111b482611175565b602082019050919050565b5f6020820190508181035f8301526111d68161119d565b9050919050565b5f6111e782610ccc565b9050919050565b6111f7816111dd565b82525050565b5f6040820190506112105f8301856111ee565b61121d6020830184610d7b565b9392505050565b7f476f616c206d757374206265203e2030000000000000000000000000000000005f82015250565b5f611258601083610d15565b915061126382611224565b602082019050919050565b5f6020820190508181035f8301526112858161124c565b9050919050565b7f4475726174696f6e206d757374206265203e20300000000000000000000000005f82015250565b5f6112c0601483610d15565b91506112cb8261128c565b602082019050919050565b5f6020820190508181035f8301526112ed816112b4565b9050919050565b7f4e487b71000000000000000000000000000000000000000000000000000000005f52601160045260245ffd5b5f61132b82610c6e565b915061133683610c6e565b925082820190508082111561134e5761134d6112f4565b5b92915050565b5f82905092915050565b7f4e487b71000000000000000000000000000000000000000000000000000000005f52604160045260245ffd5b5f819050815f5260205f209050919050565b5f6020601f8301049050919050565b5f82821b905092915050565b5f600883026113e77fffffffffffffffffffffffffffffffffffffffffffffffffffffffffffffffff826113ac565b6113f186836113ac565b95508019841693508086168417925050509392505050565b5f819050919050565b5f61142c61142761142284610c6e565b611409565b610c6e565b9050919050565b5f819050919050565b61144583611412565b61145961145182611433565b8484546113b8565b825550505050565b5f90565b61146d611461565b61147881848461143c565b505050565b5b8181101561149b576114905f82611465565b60018101905061147e565b5050565b601f8211156114e0576114b18161138b565b6114ba8461139d565b810160208510156114c9578190505b6114dd6114d58561139d565b83018261147d565b50505b505050565b5f82821c905092915050565b5f6115005f19846008026114e5565b1980831691505092915050565b5f61151883836114f1565b9150826002028217905092915050565b6115328383611354565b67ffffffffffffffff81111561154b5761154a61135e565b5b6115558254610f78565b61156082828561149f565b5f601f83116001811461158d575f841561157b578287013590505b611585858261150d565b8655506115ec565b601f19841661159b8661138b565b5f5b828110156115c25784890135825560018201915060208501945060208101905061159d565b868310156115df57848901356115db601f8916826114f1565b8355505b6001600288020188555050505b50505050505050565b5f6115ff82610c6e565b915061160a83610c6e565b9250828203905081811115611622576116216112f4565b5b92915050565b5f60208201905061163b5f8301846111ee565b92915050565b7f43616d706169676e20636c6f73656400000000000000000000000000000000005f82015250565b5f611675600f83610d15565b915061168082611641565b602082019050919050565b5f6020820190508181035f8301526116a281611669565b9050919050565b7f43616d706169676e20656e6465640000000000000000000000000000000000005f82015250565b5f6116dd600e83610d15565b91506116e8826116a9565b602082019050919050565b5f6020820190508181035f83015261170a816116d1565b9050919050565b7f436f6e747269627574696f6e206d757374206265203e203000000000000000005f82015250565b5f611745601883610d15565b915061175082611711565b602082019050919050565b5f6020820190508181035f83015261177281611739565b9050919050565b7f43616d706169676e206e6f7420656e64656400000000000000000000000000005f82015250565b5f6117ad601283610d15565b91506117b882611779565b602082019050919050565b5f6020820190508181035f8301526117da816117a1565b9050919050565b7f476f616c207265616368656400000000000000000000000000000000000000005f82015250565b5f611815600c83610d15565b9150611820826117e1565b602082019050919050565b5f6020820190508181035f83015261184281611809565b9050919050565b7f46756e64732077697468647261776e00000000000000000000000000000000005f82015250565b5f61187d600f83610d15565b915061188882611849565b602082019050919050565b5f6020820190508181035f8301526118aa81611871565b9050919050565b7f4e6f20636f6e747269627574696f6e73000000000000000000000000000000005f82015250565b5f6118e5601083610d15565b91506118f0826118b1565b602082019050919050565b5f6020820190508181035f830152611912816118d9565b905091905056fea26469706673582212200be63f190088c6248010262792edb4d48e7725cbb23b552f7d330ca4a987f8ae64736f6c634300081a0033",
					"opcodes": "PUSH1 0x80 PUSH1 0x40 MSTORE CALLVALUE DUP1 ISZERO PUSH1 0xE JUMPI PUSH0 DUP1 REVERT JUMPDEST POP PUSH2 0x194F DUP1 PUSH2 0x1C PUSH0 CODECOPY PUSH0 RETURN INVALID PUSH1 0x80 PUSH1 0x40 MSTORE PUSH1 0x4 CALLDATASIZE LT PUSH2 0x49 JUMPI PUSH0 CALLDATALOAD PUSH1 0xE0 SHR DUP1 PUSH4 0x141961BC EQ PUSH2 0x4D JUMPI DUP1 PUSH4 0x155DD5EE EQ PUSH2 0x90 JUMPI DUP1 PUSH4 0xA318F269 EQ PUSH2 0xB8 JUMPI DUP1 PUSH4 0xC1CBBCA7 EQ PUSH2 0xF4 JUMPI DUP1 PUSH4 0xD25090FF EQ PUSH2 0x110 JUMPI JUMPDEST PUSH0 DUP1 REVERT JUMPDEST CALLVALUE DUP1 ISZERO PUSH2 0x58 JUMPI PUSH0 DUP1 REVERT JUMPDEST POP PUSH2 0x73 PUSH1 0x4 DUP1 CALLDATASIZE SUB DUP2 ADD SWAP1 PUSH2 0x6E SWAP2 SWAP1 PUSH2 0xCA1 JUMP JUMPDEST PUSH2 0x138 JUMP JUMPDEST PUSH1 0x40 MLOAD PUSH2 0x87 SWAP9 SWAP8 SWAP7 SWAP6 SWAP5 SWAP4 SWAP3 SWAP2 SWAP1 PUSH2 0xDA4 JUMP JUMPDEST PUSH1 0x40 MLOAD DUP1 SWAP2 SUB SWAP1 RETURN JUMPDEST CALLVALUE DUP1 ISZERO PUSH2 0x9B JUMPI PUSH0 DUP1 REVERT JUMPDEST POP PUSH2 0xB6 PUSH1 0x4 DUP1 CALLDATASIZE SUB DUP2 ADD SWAP1 PUSH2 0xB1 SWAP2 SWAP1 PUSH2 0xCA1 JUMP JUMPDEST PUSH2 0x2CE JUMP JUMPDEST STOP JUMPDEST CALLVALUE DUP1 ISZERO PUSH2 0xC3 JUMPI PUSH0 DUP1 REVERT JUMPDEST POP PUSH2 0xDE PUSH1 0x4 DUP1 CALLDATASIZE SUB DUP2 ADD SWAP1 PUSH2 0xD9 SWAP2 SWAP1 PUSH2 0xE8F JUMP JUMPDEST PUSH2 0x582 JUMP JUMPDEST PUSH1 0x40 MLOAD PUSH2 0xEB SWAP2 SWAP1 PUSH2 0xF32 JUMP JUMPDEST PUSH1 0x40 MLOAD DUP1 SWAP2 SUB SWAP1 RETURN JUMPDEST PUSH2 0x10E PUSH1 0x4 DUP1 CALLDATASIZE SUB DUP2 ADD SWAP1 PUSH2 0x109 SWAP2 SWAP1 PUSH2 0xCA1 JUMP JUMPDEST PUSH2 0x74F JUMP JUMPDEST STOP JUMPDEST CALLVALUE DUP1 ISZERO PUSH2 0x11B JUMPI PUSH0 DUP1 REVERT JUMPDEST POP PUSH2 0x136 PUSH1 0x4 DUP1 CALLDATASIZE SUB DUP2 ADD SWAP1 PUSH2 0x131 SWAP2 SWAP1 PUSH2 0xCA1 JUMP JUMPDEST PUSH2 0x9C6 JUMP JUMPDEST STOP JUMPDEST PUSH0 DUP2 DUP2 SLOAD DUP2 LT PUSH2 0x146 JUMPI PUSH0 DUP1 REVERT JUMPDEST SWAP1 PUSH0 MSTORE PUSH1 0x20 PUSH0 KECCAK256 SWAP1 PUSH1 0x8 MUL ADD PUSH0 SWAP2 POP SWAP1 POP DUP1 PUSH0 ADD PUSH0 SWAP1 SLOAD SWAP1 PUSH2 0x100 EXP SWAP1 DIV PUSH20 0xFFFFFFFFFFFFFFFFFFFFFFFFFFFFFFFFFFFFFFFF AND SWAP1 DUP1 PUSH1 0x1 ADD DUP1 SLOAD PUSH2 0x18A SWAP1 PUSH2 0xF78 JUMP JUMPDEST DUP1 PUSH1 0x1F ADD PUSH1 0x20 DUP1 SWAP2 DIV MUL PUSH1 0x20 ADD PUSH1 0x40 MLOAD SWAP1 DUP2 ADD PUSH1 0x40 MSTORE DUP1 SWAP3 SWAP2 SWAP1 DUP2 DUP2 MSTORE PUSH1 0x20 ADD DUP3 DUP1 SLOAD PUSH2 0x1B6 SWAP1 PUSH2 0xF78 JUMP JUMPDEST DUP1 ISZERO PUSH2 0x201 JUMPI DUP1 PUSH1 0x1F LT PUSH2 0x1D8 JUMPI PUSH2 0x100 DUP1 DUP4 SLOAD DIV MUL DUP4 MSTORE SWAP2 PUSH1 0x20 ADD SWAP2 PUSH2 0x201 JUMP JUMPDEST DUP3 ADD SWAP2 SWAP1 PUSH0 MSTORE PUSH1 0x20 PUSH0 KECCAK256 SWAP1 JUMPDEST DUP2 SLOAD DUP2 MSTORE SWAP1 PUSH1 0x1 ADD SWAP1 PUSH1 0x20 ADD DUP1 DUP4 GT PUSH2 0x1E4 JUMPI DUP3 SWAP1 SUB PUSH1 0x1F AND DUP3 ADD SWAP2 JUMPDEST POP POP POP POP POP SWAP1 DUP1 PUSH1 0x2 ADD DUP1 SLOAD PUSH2 0x216 SWAP1 PUSH2 0xF78 JUMP JUMPDEST DUP1 PUSH1 0x1F ADD PUSH1 0x20 DUP1 SWAP2 DIV MUL PUSH1 0x20 ADD PUSH1 0x40 MLOAD SWAP1 DUP2 ADD PUSH1 0x40 MSTORE DUP1 SWAP3 SWAP2 SWAP1 DUP2 DUP2 MSTORE PUSH1 0x20 ADD DUP3 DUP1 SLOAD PUSH2 0x242 SWAP1 PUSH2 0xF78 JUMP JUMPDEST DUP1 ISZERO PUSH2 0x28D JUMPI DUP1 PUSH1 0x1F LT PUSH2 0x264 JUMPI PUSH2 0x100 DUP1 DUP4 SLOAD DIV MUL DUP4 MSTORE SWAP2 PUSH1 0x20 ADD SWAP2 PUSH2 0x28D JUMP JUMPDEST DUP3 ADD SWAP2 SWAP1 PUSH0 MSTORE PUSH1 0x20 PUSH0 KECCAK256 SWAP1 JUMPDEST DUP2 SLOAD DUP2 MSTORE SWAP1 PUSH1 0x1 ADD SWAP1 PUSH1 0x20 ADD DUP1 DUP4 GT PUSH2 0x270 JUMPI DUP3 SWAP1 SUB PUSH1 0x1F AND DUP3 ADD SWAP2 JUMPDEST POP POP POP POP POP SWAP1 DUP1 PUSH1 0x3 ADD SLOAD SWAP1 DUP1 PUSH1 0x4 ADD SLOAD SWAP1 DUP1 PUSH1 0x5 ADD SLOAD SWAP1 DUP1 PUSH1 0x6 ADD PUSH0 SWAP1 SLOAD SWAP1 PUSH2 0x100 EXP SWAP1 DIV PUSH1 0xFF AND SWAP1 DUP1 PUSH1 0x6 ADD PUSH1 0x1 SWAP1 SLOAD SWAP1 PUSH2 0x100 EXP SWAP1 DIV PUSH1 0xFF AND SWAP1 POP DUP9 JUMP JUMPDEST DUP1 PUSH0 DUP1 SLOAD SWAP1 POP DUP2 LT PUSH2 0x315 JUMPI PUSH1 0x40 MLOAD PUSH32 0x8C379A000000000000000000000000000000000000000000000000000000000 DUP2 MSTORE PUSH1 0x4 ADD PUSH2 0x30C SWAP1 PUSH2 0xFF2 JUMP JUMPDEST PUSH1 0x40 MLOAD DUP1 SWAP2 SUB SWAP1 REVERT JUMPDEST DUP2 CALLER PUSH20 0xFFFFFFFFFFFFFFFFFFFFFFFFFFFFFFFFFFFFFFFF AND PUSH0 DUP3 DUP2 SLOAD DUP2 LT PUSH2 0x340 JUMPI PUSH2 0x33F PUSH2 0x1010 JUMP JUMPDEST JUMPDEST SWAP1 PUSH0 MSTORE PUSH1 0x20 PUSH0 KECCAK256 SWAP1 PUSH1 0x8 MUL ADD PUSH0 ADD PUSH0 SWAP1 SLOAD SWAP1 PUSH2 0x100 EXP SWAP1 DIV PUSH20 0xFFFFFFFFFFFFFFFFFFFFFFFFFFFFFFFFFFFFFFFF AND PUSH20 0xFFFFFFFFFFFFFFFFFFFFFFFFFFFFFFFFFFFFFFFF AND EQ PUSH2 0x3C4 JUMPI PUSH1 0x40 MLOAD PUSH32 0x8C379A000000000000000000000000000000000000000000000000000000000 DUP2 MSTORE PUSH1 0x4 ADD PUSH2 0x3BB SWAP1 PUSH2 0x1087 JUMP JUMPDEST PUSH1 0x40 MLOAD DUP1 SWAP2 SUB SWAP1 REVERT JUMPDEST PUSH0 DUP1 DUP5 DUP2 SLOAD DUP2 LT PUSH2 0x3D8 JUMPI PUSH2 0x3D7 PUSH2 0x1010 JUMP JUMPDEST JUMPDEST SWAP1 PUSH0 MSTORE PUSH1 0x20 PUSH0 KECCAK256 SWAP1 PUSH1 0x8 MUL ADD SWAP1 POP DUP1 PUSH1 0x6 ADD PUSH0 SWAP1 SLOAD SWAP1 PUSH2 0x100 EXP SWAP1 DIV PUSH1 0xFF AND PUSH2 0x436 JUMPI PUSH1 0x40 MLOAD PUSH32 0x8C379A000000000000000000000000000000000000000000000000000000000 DUP2 MSTORE PUSH1 0x4 ADD PUSH2 0x42D SWAP1 PUSH2 0x10EF JUMP JUMPDEST PUSH1 0x40 MLOAD DUP1 SWAP2 SUB SWAP1 REVERT JUMPDEST DUP1 PUSH1 0x5 ADD SLOAD TIMESTAMP LT ISZERO PUSH2 0x47D JUMPI PUSH1 0x40 MLOAD PUSH32 0x8C379A000000000000000000000000000000000000000000000000000000000 DUP2 MSTORE PUSH1 0x4 ADD PUSH2 0x474 SWAP1 PUSH2 0x1157 JUMP JUMPDEST PUSH1 0x40 MLOAD DUP1 SWAP2 SUB SWAP1 REVERT JUMPDEST DUP1 PUSH1 0x6 ADD PUSH1 0x1 SWAP1 SLOAD SWAP1 PUSH2 0x100 EXP SWAP1 DIV PUSH1 0xFF AND ISZERO PUSH2 0x4CF JUMPI PUSH1 0x40 MLOAD PUSH32 0x8C379A000000000000000000000000000000000000000000000000000000000 DUP2 MSTORE PUSH1 0x4 ADD PUSH2 0x4C6 SWAP1 PUSH2 0x11BF JUMP JUMPDEST PUSH1 0x40 MLOAD DUP1 SWAP2 SUB SWAP1 REVERT JUMPDEST PUSH0 DUP2 PUSH1 0x4 ADD SLOAD SWAP1 POP PUSH0 DUP3 PUSH1 0x4 ADD DUP2 SWAP1 SSTORE POP PUSH1 0x1 DUP3 PUSH1 0x6 ADD PUSH1 0x1 PUSH2 0x100 EXP DUP2 SLOAD DUP2 PUSH1 0xFF MUL NOT AND SWAP1 DUP4 ISZERO ISZERO MUL OR SWAP1 SSTORE POP CALLER PUSH20 0xFFFFFFFFFFFFFFFFFFFFFFFFFFFFFFFFFFFFFFFF AND PUSH2 0x8FC DUP3 SWAP1 DUP2 ISZERO MUL SWAP1 PUSH1 0x40 MLOAD PUSH0 PUSH1 0x40 MLOAD DUP1 DUP4 SUB DUP2 DUP6 DUP9 DUP9 CALL SWAP4 POP POP POP POP ISZERO DUP1 ISZERO PUSH2 0x540 JUMPI RETURNDATASIZE PUSH0 DUP1 RETURNDATACOPY RETURNDATASIZE PUSH0 REVERT JUMPDEST POP DUP5 PUSH32 0xF440AEC6B52895984D061D622E6EDEBA6210F7C3E059BE920663140C084560D7 CALLER DUP4 PUSH1 0x40 MLOAD PUSH2 0x573 SWAP3 SWAP2 SWAP1 PUSH2 0x11FD JUMP JUMPDEST PUSH1 0x40 MLOAD DUP1 SWAP2 SUB SWAP1 LOG2 POP POP POP POP POP JUMP JUMPDEST PUSH0 DUP1 DUP3 GT PUSH2 0x5C5 JUMPI PUSH1 0x40 MLOAD PUSH32 0x8C379A000000000000000000000000000000000000000000000000000000000 DUP2 MSTORE PUSH1 0x4 ADD PUSH2 0x5BC SWAP1 PUSH2 0x126E JUMP JUMPDEST PUSH1 0x40 MLOAD DUP1 SWAP2 SUB SWAP1 REVERT JUMPDEST PUSH0 DUP4 GT PUSH2 0x607 JUMPI PUSH1 0x40 MLOAD PUSH32 0x8C379A000000000000000000000000000000000000000000000000000000000 DUP2 MSTORE PUSH1 0x4 ADD PUSH2 0x5FE SWAP1 PUSH2 0x12D6 JUMP JUMPDEST PUSH1 0x40 MLOAD DUP1 SWAP2 SUB SWAP1 REVERT JUMPDEST PUSH0 DUP4 TIMESTAMP PUSH2 0x614 SWAP2 SWAP1 PUSH2 0x1321 JUMP JUMPDEST SWAP1 POP PUSH0 DUP1 PUSH1 0x1 DUP2 PUSH1 0x1 DUP2 SLOAD ADD DUP1 DUP3 SSTORE DUP1 SWAP2 POP POP SUB SWAP1 PUSH0 MSTORE PUSH1 0x20 PUSH0 KECCAK256 SWAP1 PUSH1 0x8 MUL ADD SWAP1 POP CALLER DUP2 PUSH0 ADD PUSH0 PUSH2 0x100 EXP DUP2 SLOAD DUP2 PUSH20 0xFFFFFFFFFFFFFFFFFFFFFFFFFFFFFFFFFFFFFFFF MUL NOT AND SWAP1 DUP4 PUSH20 0xFFFFFFFFFFFFFFFFFFFFFFFFFFFFFFFFFFFFFFFF AND MUL OR SWAP1 SSTORE POP DUP9 DUP9 DUP3 PUSH1 0x1 ADD SWAP2 DUP3 PUSH2 0x68A SWAP3 SWAP2 SWAP1 PUSH2 0x1528 JUMP JUMPDEST POP DUP7 DUP7 DUP3 PUSH1 0x2 ADD SWAP2 DUP3 PUSH2 0x69E SWAP3 SWAP2 SWAP1 PUSH2 0x1528 JUMP JUMPDEST POP DUP4 DUP2 PUSH1 0x3 ADD DUP2 SWAP1 SSTORE POP DUP2 DUP2 PUSH1 0x5 ADD DUP2 SWAP1 SSTORE POP PUSH0 DUP2 PUSH1 0x6 ADD PUSH0 PUSH2 0x100 EXP DUP2 SLOAD DUP2 PUSH1 0xFF MUL NOT AND SWAP1 DUP4 ISZERO ISZERO MUL OR SWAP1 SSTORE POP PUSH0 DUP2 PUSH1 0x6 ADD PUSH1 0x1 PUSH2 0x100 EXP DUP2 SLOAD DUP2 PUSH1 0xFF MUL NOT AND SWAP1 DUP4 ISZERO ISZERO MUL OR SWAP1 SSTORE POP PUSH1 0x1 PUSH0 DUP1 SLOAD SWAP1 POP PUSH2 0x6F9 SWAP2 SWAP1 PUSH2 0x15F5 JUMP JUMPDEST PUSH32 0x633109EEC20320EDED000FC1E2634211AA7E92BA3F5B15FAF6DCDAFCA05094E4 CALLER PUSH1 0x40 MLOAD PUSH2 0x728 SWAP2 SWAP1 PUSH2 0x1628 JUMP JUMPDEST PUSH1 0x40 MLOAD DUP1 SWAP2 SUB SWAP1 LOG2 PUSH1 0x1 PUSH0 DUP1 SLOAD SWAP1 POP PUSH2 0x741 SWAP2 SWAP1 PUSH2 0x15F5 JUMP JUMPDEST SWAP3 POP POP POP SWAP7 SWAP6 POP POP POP POP POP POP JUMP JUMPDEST DUP1 PUSH0 DUP1 SLOAD SWAP1 POP DUP2 LT PUSH2 0x796 JUMPI PUSH1 0x40 MLOAD PUSH32 0x8C379A000000000000000000000000000000000000000000000000000000000 DUP2 MSTORE PUSH1 0x4 ADD PUSH2 0x78D SWAP1 PUSH2 0xFF2 JUMP JUMPDEST PUSH1 0x40 MLOAD DUP1 SWAP2 SUB SWAP1 REVERT JUMPDEST DUP2 PUSH0 DUP2 DUP2 SLOAD DUP2 LT PUSH2 0x7AA JUMPI PUSH2 0x7A9 PUSH2 0x1010 JUMP JUMPDEST JUMPDEST SWAP1 PUSH0 MSTORE PUSH1 0x20 PUSH0 KECCAK256 SWAP1 PUSH1 0x8 MUL ADD PUSH1 0x6 ADD PUSH1 0x1 SWAP1 SLOAD SWAP1 PUSH2 0x100 EXP SWAP1 DIV PUSH1 0xFF AND ISZERO PUSH2 0x807 JUMPI PUSH1 0x40 MLOAD PUSH32 0x8C379A000000000000000000000000000000000000000000000000000000000 DUP2 MSTORE PUSH1 0x4 ADD PUSH2 0x7FE SWAP1 PUSH2 0x168B JUMP JUMPDEST PUSH1 0x40 MLOAD DUP1 SWAP2 SUB SWAP1 REVERT JUMPDEST PUSH0 DUP2 DUP2 SLOAD DUP2 LT PUSH2 0x81A JUMPI PUSH2 0x819 PUSH2 0x1010 JUMP JUMPDEST JUMPDEST SWAP1 PUSH0 MSTORE PUSH1 0x20 PUSH0 KECCAK256 SWAP1 PUSH1 0x8 MUL ADD PUSH1 0x5 ADD SLOAD TIMESTAMP LT PUSH2 0x86B JUMPI PUSH1 0x40 MLOAD PUSH32 0x8C379A000000000000000000000000000000000000000000000000000000000 DUP2 MSTORE PUSH1 0x4 ADD PUSH2 0x862 SWAP1 PUSH2 0x16F3 JUMP JUMPDEST PUSH1 0x40 MLOAD DUP1 SWAP2 SUB SWAP1 REVERT JUMPDEST PUSH0 CALLVALUE GT PUSH2 0x8AD JUMPI PUSH1 0x40 MLOAD PUSH32 0x8C379A000000000000000000000000000000000000000000000000000000000 DUP2 MSTORE PUSH1 0x4 ADD PUSH2 0x8A4 SWAP1 PUSH2 0x175B JUMP JUMPDEST PUSH1 0x40 MLOAD DUP1 SWAP2 SUB SWAP1 REVERT JUMPDEST PUSH0 DUP1 DUP5 DUP2 SLOAD DUP2 LT PUSH2 0x8C1 JUMPI PUSH2 0x8C0 PUSH2 0x1010 JUMP JUMPDEST JUMPDEST SWAP1 PUSH0 MSTORE PUSH1 0x20 PUSH0 KECCAK256 SWAP1 PUSH1 0x8 MUL ADD SWAP1 POP CALLVALUE DUP2 PUSH1 0x7 ADD PUSH0 CALLER PUSH20 0xFFFFFFFFFFFFFFFFFFFFFFFFFFFFFFFFFFFFFFFF AND PUSH20 0xFFFFFFFFFFFFFFFFFFFFFFFFFFFFFFFFFFFFFFFF AND DUP2 MSTORE PUSH1 0x20 ADD SWAP1 DUP2 MSTORE PUSH1 0x20 ADD PUSH0 KECCAK256 PUSH0 DUP3 DUP3 SLOAD PUSH2 0x91D SWAP2 SWAP1 PUSH2 0x1321 JUMP JUMPDEST SWAP3 POP POP DUP2 SWAP1 SSTORE POP CALLVALUE DUP2 PUSH1 0x4 ADD PUSH0 DUP3 DUP3 SLOAD PUSH2 0x937 SWAP2 SWAP1 PUSH2 0x1321 JUMP JUMPDEST SWAP3 POP POP DUP2 SWAP1 SSTORE POP DUP1 PUSH1 0x3 ADD SLOAD DUP2 PUSH1 0x4 ADD SLOAD LT ISZERO DUP1 ISZERO PUSH2 0x964 JUMPI POP DUP1 PUSH1 0x6 ADD PUSH0 SWAP1 SLOAD SWAP1 PUSH2 0x100 EXP SWAP1 DIV PUSH1 0xFF AND ISZERO JUMPDEST ISZERO PUSH2 0x986 JUMPI PUSH1 0x1 DUP2 PUSH1 0x6 ADD PUSH0 PUSH2 0x100 EXP DUP2 SLOAD DUP2 PUSH1 0xFF MUL NOT AND SWAP1 DUP4 ISZERO ISZERO MUL OR SWAP1 SSTORE POP JUMPDEST DUP4 PUSH32 0xA4A91237423E0A1766A761C7CB029311D8B95D6B1B81DB1B949A70C98B4E08E CALLER CALLVALUE PUSH1 0x40 MLOAD PUSH2 0x9B8 SWAP3 SWAP2 SWAP1 PUSH2 0x11FD JUMP JUMPDEST PUSH1 0x40 MLOAD DUP1 SWAP2 SUB SWAP1 LOG2 POP POP POP POP JUMP JUMPDEST DUP1 PUSH0 DUP1 SLOAD SWAP1 POP DUP2 LT PUSH2 0xA0D JUMPI PUSH1 0x40 MLOAD PUSH32 0x8C379A000000000000000000000000000000000000000000000000000000000 DUP2 MSTORE PUSH1 0x4 ADD PUSH2 0xA04 SWAP1 PUSH2 0xFF2 JUMP JUMPDEST PUSH1 0x40 MLOAD DUP1 SWAP2 SUB SWAP1 REVERT JUMPDEST PUSH0 DUP1 DUP4 DUP2 SLOAD DUP2 LT PUSH2 0xA21 JUMPI PUSH2 0xA20 PUSH2 0x1010 JUMP JUMPDEST JUMPDEST SWAP1 PUSH0 MSTORE PUSH1 0x20 PUSH0 KECCAK256 SWAP1 PUSH1 0x8 MUL ADD SWAP1 POP DUP1 PUSH1 0x5 ADD SLOAD TIMESTAMP LT ISZERO PUSH2 0xA76 JUMPI PUSH1 0x40 MLOAD PUSH32 0x8C379A000000000000000000000000000000000000000000000000000000000 DUP2 MSTORE PUSH1 0x4 ADD PUSH2 0xA6D SWAP1 PUSH2 0x17C3 JUMP JUMPDEST PUSH1 0x40 MLOAD DUP1 SWAP2 SUB SWAP1 REVERT JUMPDEST DUP1 PUSH1 0x6 ADD PUSH0 SWAP1 SLOAD SWAP1 PUSH2 0x100 EXP SWAP1 DIV PUSH1 0xFF AND ISZERO PUSH2 0xAC7 JUMPI PUSH1 0x40 MLOAD PUSH32 0x8C379A000000000000000000000000000000000000000000000000000000000 DUP2 MSTORE PUSH1 0x4 ADD PUSH2 0xABE SWAP1 PUSH2 0x182B JUMP JUMPDEST PUSH1 0x40 MLOAD DUP1 SWAP2 SUB SWAP1 REVERT JUMPDEST DUP1 PUSH1 0x6 ADD PUSH1 0x1 SWAP1 SLOAD SWAP1 PUSH2 0x100 EXP SWAP1 DIV PUSH1 0xFF AND ISZERO PUSH2 0xB19 JUMPI PUSH1 0x40 MLOAD PUSH32 0x8C379A000000000000000000000000000000000000000000000000000000000 DUP2 MSTORE PUSH1 0x4 ADD PUSH2 0xB10 SWAP1 PUSH2 0x1893 JUMP JUMPDEST PUSH1 0x40 MLOAD DUP1 SWAP2 SUB SWAP1 REVERT JUMPDEST PUSH0 DUP2 PUSH1 0x7 ADD PUSH0 CALLER PUSH20 0xFFFFFFFFFFFFFFFFFFFFFFFFFFFFFFFFFFFFFFFF AND PUSH20 0xFFFFFFFFFFFFFFFFFFFFFFFFFFFFFFFFFFFFFFFF AND DUP2 MSTORE PUSH1 0x20 ADD SWAP1 DUP2 MSTORE PUSH1 0x20 ADD PUSH0 KECCAK256 SLOAD SWAP1 POP PUSH0 DUP2 GT PUSH2 0xB9E JUMPI PUSH1 0x40 MLOAD PUSH32 0x8C379A000000000000000000000000000000000000000000000000000000000 DUP2 MSTORE PUSH1 0x4 ADD PUSH2 0xB95 SWAP1 PUSH2 0x18FB JUMP JUMPDEST PUSH1 0x40 MLOAD DUP1 SWAP2 SUB SWAP1 REVERT JUMPDEST PUSH0 DUP3 PUSH1 0x7 ADD PUSH0 CALLER PUSH20 0xFFFFFFFFFFFFFFFFFFFFFFFFFFFFFFFFFFFFFFFF AND PUSH20 0xFFFFFFFFFFFFFFFFFFFFFFFFFFFFFFFFFFFFFFFF AND DUP2 MSTORE PUSH1 0x20 ADD SWAP1 DUP2 MSTORE PUSH1 0x20 ADD PUSH0 KECCAK256 DUP2 SWAP1 SSTORE POP CALLER PUSH20 0xFFFFFFFFFFFFFFFFFFFFFFFFFFFFFFFFFFFFFFFF AND PUSH2 0x8FC DUP3 SWAP1 DUP2 ISZERO MUL SWAP1 PUSH1 0x40 MLOAD PUSH0 PUSH1 0x40 MLOAD DUP1 DUP4 SUB DUP2 DUP6 DUP9 DUP9 CALL SWAP4 POP POP POP POP ISZERO DUP1 ISZERO PUSH2 0xC25 JUMPI RETURNDATASIZE PUSH0 DUP1 RETURNDATACOPY RETURNDATASIZE PUSH0 REVERT JUMPDEST POP DUP4 PUSH32 0xA182B2A9C58FAE7E4827FBE3AC2FA1C5711191EF3F58B1FA19631FEB97273BB2 CALLER DUP4 PUSH1 0x40 MLOAD PUSH2 0xC58 SWAP3 SWAP2 SWAP1 PUSH2 0x11FD JUMP JUMPDEST PUSH1 0x40 MLOAD DUP1 SWAP2 SUB SWAP1 LOG2 POP POP POP POP JUMP JUMPDEST PUSH0 DUP1 REVERT JUMPDEST PUSH0 DUP1 REVERT JUMPDEST PUSH0 DUP2 SWAP1 POP SWAP2 SWAP1 POP JUMP JUMPDEST PUSH2 0xC80 DUP2 PUSH2 0xC6E JUMP JUMPDEST DUP2 EQ PUSH2 0xC8A JUMPI PUSH0 DUP1 REVERT JUMPDEST POP JUMP JUMPDEST PUSH0 DUP2 CALLDATALOAD SWAP1 POP PUSH2 0xC9B DUP2 PUSH2 0xC77 JUMP JUMPDEST SWAP3 SWAP2 POP POP JUMP JUMPDEST PUSH0 PUSH1 0x20 DUP3 DUP5 SUB SLT ISZERO PUSH2 0xCB6 JUMPI PUSH2 0xCB5 PUSH2 0xC66 JUMP JUMPDEST JUMPDEST PUSH0 PUSH2 0xCC3 DUP5 DUP3 DUP6 ADD PUSH2 0xC8D JUMP JUMPDEST SWAP2 POP POP SWAP3 SWAP2 POP POP JUMP JUMPDEST PUSH0 PUSH20 0xFFFFFFFFFFFFFFFFFFFFFFFFFFFFFFFFFFFFFFFF DUP3 AND SWAP1 POP SWAP2 SWAP1 POP JUMP JUMPDEST PUSH0 PUSH2 0xCF5 DUP3 PUSH2 0xCCC JUMP JUMPDEST SWAP1 POP SWAP2 SWAP1 POP JUMP JUMPDEST PUSH2 0xD05 DUP2 PUSH2 0xCEB JUMP JUMPDEST DUP3 MSTORE POP POP JUMP JUMPDEST PUSH0 DUP2 MLOAD SWAP1 POP SWAP2 SWAP1 POP JUMP JUMPDEST PUSH0 DUP3 DUP3 MSTORE PUSH1 0x20 DUP3 ADD SWAP1 POP SWAP3 SWAP2 POP POP JUMP JUMPDEST DUP3 DUP2 DUP4 MCOPY PUSH0 DUP4 DUP4 ADD MSTORE POP POP POP JUMP JUMPDEST PUSH0 PUSH1 0x1F NOT PUSH1 0x1F DUP4 ADD AND SWAP1 POP SWAP2 SWAP1 POP JUMP JUMPDEST PUSH0 PUSH2 0xD4D DUP3 PUSH2 0xD0B JUMP JUMPDEST PUSH2 0xD57 DUP2 DUP6 PUSH2 0xD15 JUMP JUMPDEST SWAP4 POP PUSH2 0xD67 DUP2 DUP6 PUSH1 0x20 DUP7 ADD PUSH2 0xD25 JUMP JUMPDEST PUSH2 0xD70 DUP2 PUSH2 0xD33 JUMP JUMPDEST DUP5 ADD SWAP2 POP POP SWAP3 SWAP2 POP POP JUMP JUMPDEST PUSH2 0xD84 DUP2 PUSH2 0xC6E JUMP JUMPDEST DUP3 MSTORE POP POP JUMP JUMPDEST PUSH0 DUP2 ISZERO ISZERO SWAP1 POP SWAP2 SWAP1 POP JUMP JUMPDEST PUSH2 0xD9E DUP2 PUSH2 0xD8A JUMP JUMPDEST DUP3 MSTORE POP POP JUMP JUMPDEST PUSH0 PUSH2 0x100 DUP3 ADD SWAP1 POP PUSH2 0xDB8 PUSH0 DUP4 ADD DUP12 PUSH2 0xCFC JUMP JUMPDEST DUP2 DUP2 SUB PUSH1 0x20 DUP4 ADD MSTORE PUSH2 0xDCA DUP2 DUP11 PUSH2 0xD43 JUMP JUMPDEST SWAP1 POP DUP2 DUP2 SUB PUSH1 0x40 DUP4 ADD MSTORE PUSH2 0xDDE DUP2 DUP10 PUSH2 0xD43 JUMP JUMPDEST SWAP1 POP PUSH2 0xDED PUSH1 0x60 DUP4 ADD DUP9 PUSH2 0xD7B JUMP JUMPDEST PUSH2 0xDFA PUSH1 0x80 DUP4 ADD DUP8 PUSH2 0xD7B JUMP JUMPDEST PUSH2 0xE07 PUSH1 0xA0 DUP4 ADD DUP7 PUSH2 0xD7B JUMP JUMPDEST PUSH2 0xE14 PUSH1 0xC0 DUP4 ADD DUP6 PUSH2 0xD95 JUMP JUMPDEST PUSH2 0xE21 PUSH1 0xE0 DUP4 ADD DUP5 PUSH2 0xD95 JUMP JUMPDEST SWAP10 SWAP9 POP POP POP POP POP POP POP POP POP JUMP JUMPDEST PUSH0 DUP1 REVERT JUMPDEST PUSH0 DUP1 REVERT JUMPDEST PUSH0 DUP1 REVERT JUMPDEST PUSH0 DUP1 DUP4 PUSH1 0x1F DUP5 ADD SLT PUSH2 0xE4F JUMPI PUSH2 0xE4E PUSH2 0xE2E JUMP JUMPDEST JUMPDEST DUP3 CALLDATALOAD SWAP1 POP PUSH8 0xFFFFFFFFFFFFFFFF DUP2 GT ISZERO PUSH2 0xE6C JUMPI PUSH2 0xE6B PUSH2 0xE32 JUMP JUMPDEST JUMPDEST PUSH1 0x20 DUP4 ADD SWAP2 POP DUP4 PUSH1 0x1 DUP3 MUL DUP4 ADD GT ISZERO PUSH2 0xE88 JUMPI PUSH2 0xE87 PUSH2 0xE36 JUMP JUMPDEST JUMPDEST SWAP3 POP SWAP3 SWAP1 POP JUMP JUMPDEST PUSH0 DUP1 PUSH0 DUP1 PUSH0 DUP1 PUSH1 0x80 DUP8 DUP10 SUB SLT ISZERO PUSH2 0xEA9 JUMPI PUSH2 0xEA8 PUSH2 0xC66 JUMP JUMPDEST JUMPDEST PUSH0 DUP8 ADD CALLDATALOAD PUSH8 0xFFFFFFFFFFFFFFFF DUP2 GT ISZERO PUSH2 0xEC6 JUMPI PUSH2 0xEC5 PUSH2 0xC6A JUMP JUMPDEST JUMPDEST PUSH2 0xED2 DUP10 DUP3 DUP11 ADD PUSH2 0xE3A JUMP JUMPDEST SWAP7 POP SWAP7 POP POP PUSH1 0x20 DUP8 ADD CALLDATALOAD PUSH8 0xFFFFFFFFFFFFFFFF DUP2 GT ISZERO PUSH2 0xEF5 JUMPI PUSH2 0xEF4 PUSH2 0xC6A JUMP JUMPDEST JUMPDEST PUSH2 0xF01 DUP10 DUP3 DUP11 ADD PUSH2 0xE3A JUMP JUMPDEST SWAP5 POP SWAP5 POP POP PUSH1 0x40 PUSH2 0xF14 DUP10 DUP3 DUP11 ADD PUSH2 0xC8D JUMP JUMPDEST SWAP3 POP POP PUSH1 0x60 PUSH2 0xF25 DUP10 DUP3 DUP11 ADD PUSH2 0xC8D JUMP JUMPDEST SWAP2 POP POP SWAP3 SWAP6 POP SWAP3 SWAP6 POP SWAP3 SWAP6 JUMP JUMPDEST PUSH0 PUSH1 0x20 DUP3 ADD SWAP1 POP PUSH2 0xF45 PUSH0 DUP4 ADD DUP5 PUSH2 0xD7B JUMP JUMPDEST SWAP3 SWAP2 POP POP JUMP JUMPDEST PUSH32 0x4E487B7100000000000000000000000000000000000000000000000000000000 PUSH0 MSTORE PUSH1 0x22 PUSH1 0x4 MSTORE PUSH1 0x24 PUSH0 REVERT JUMPDEST PUSH0 PUSH1 0x2 DUP3 DIV SWAP1 POP PUSH1 0x1 DUP3 AND DUP1 PUSH2 0xF8F JUMPI PUSH1 0x7F DUP3 AND SWAP2 POP JUMPDEST PUSH1 0x20 DUP3 LT DUP2 SUB PUSH2 0xFA2 JUMPI PUSH2 0xFA1 PUSH2 0xF4B JUMP JUMPDEST JUMPDEST POP SWAP2 SWAP1 POP JUMP JUMPDEST PUSH32 0x496E76616C69642063616D706169676E20494400000000000000000000000000 PUSH0 DUP3 ADD MSTORE POP JUMP JUMPDEST PUSH0 PUSH2 0xFDC PUSH1 0x13 DUP4 PUSH2 0xD15 JUMP JUMPDEST SWAP2 POP PUSH2 0xFE7 DUP3 PUSH2 0xFA8 JUMP JUMPDEST PUSH1 0x20 DUP3 ADD SWAP1 POP SWAP2 SWAP1 POP JUMP JUMPDEST PUSH0 PUSH1 0x20 DUP3 ADD SWAP1 POP DUP2 DUP2 SUB PUSH0 DUP4 ADD MSTORE PUSH2 0x1009 DUP2 PUSH2 0xFD0 JUMP JUMPDEST SWAP1 POP SWAP2 SWAP1 POP JUMP JUMPDEST PUSH32 0x4E487B7100000000000000000000000000000000000000000000000000000000 PUSH0 MSTORE PUSH1 0x32 PUSH1 0x4 MSTORE PUSH1 0x24 PUSH0 REVERT JUMPDEST PUSH32 0x556E617574686F72697A65640000000000000000000000000000000000000000 PUSH0 DUP3 ADD MSTORE POP JUMP JUMPDEST PUSH0 PUSH2 0x1071 PUSH1 0xC DUP4 PUSH2 0xD15 JUMP JUMPDEST SWAP2 POP PUSH2 0x107C DUP3 PUSH2 0x103D JUMP JUMPDEST PUSH1 0x20 DUP3 ADD SWAP1 POP SWAP2 SWAP1 POP JUMP JUMPDEST PUSH0 PUSH1 0x20 DUP3 ADD SWAP1 POP DUP2 DUP2 SUB PUSH0 DUP4 ADD MSTORE PUSH2 0x109E DUP2 PUSH2 0x1065 JUMP JUMPDEST SWAP1 POP SWAP2 SWAP1 POP JUMP JUMPDEST PUSH32 0x476F616C206E6F74207265616368656400000000000000000000000000000000 PUSH0 DUP3 ADD MSTORE POP JUMP JUMPDEST PUSH0 PUSH2 0x10D9 PUSH1 0x10 DUP4 PUSH2 0xD15 JUMP JUMPDEST SWAP2 POP PUSH2 0x10E4 DUP3 PUSH2 0x10A5 JUMP JUMPDEST PUSH1 0x20 DUP3 ADD SWAP1 POP SWAP2 SWAP1 POP JUMP JUMPDEST PUSH0 PUSH1 0x20 DUP3 ADD SWAP1 POP DUP2 DUP2 SUB PUSH0 DUP4 ADD MSTORE PUSH2 0x1106 DUP2 PUSH2 0x10CD JUMP JUMPDEST SWAP1 POP SWAP2 SWAP1 POP JUMP JUMPDEST PUSH32 0x446561646C696E65206E6F742070617373656400000000000000000000000000 PUSH0 DUP3 ADD MSTORE POP JUMP JUMPDEST PUSH0 PUSH2 0x1141 PUSH1 0x13 DUP4 PUSH2 0xD15 JUMP JUMPDEST SWAP2 POP PUSH2 0x114C DUP3 PUSH2 0x110D JUMP JUMPDEST PUSH1 0x20 DUP3 ADD SWAP1 POP SWAP2 SWAP1 POP JUMP JUMPDEST PUSH0 PUSH1 0x20 DUP3 ADD SWAP1 POP DUP2 DUP2 SUB PUSH0 DUP4 ADD MSTORE PUSH2 0x116E DUP2 PUSH2 0x1135 JUMP JUMPDEST SWAP1 POP SWAP2 SWAP1 POP JUMP JUMPDEST PUSH32 0x46756E647320616C72656164792077697468647261776E000000000000000000 PUSH0 DUP3 ADD MSTORE POP JUMP JUMPDEST PUSH0 PUSH2 0x11A9 PUSH1 0x17 DUP4 PUSH2 0xD15 JUMP JUMPDEST SWAP2 POP PUSH2 0x11B4 DUP3 PUSH2 0x1175 JUMP JUMPDEST PUSH1 0x20 DUP3 ADD SWAP1 POP SWAP2 SWAP1 POP JUMP JUMPDEST PUSH0 PUSH1 0x20 DUP3 ADD SWAP1 POP DUP2 DUP2 SUB PUSH0 DUP4 ADD MSTORE PUSH2 0x11D6 DUP2 PUSH2 0x119D JUMP JUMPDEST SWAP1 POP SWAP2 SWAP1 POP JUMP JUMPDEST PUSH0 PUSH2 0x11E7 DUP3 PUSH2 0xCCC JUMP JUMPDEST SWAP1 POP SWAP2 SWAP1 POP JUMP JUMPDEST PUSH2 0x11F7 DUP2 PUSH2 0x11DD JUMP JUMPDEST DUP3 MSTORE POP POP JUMP JUMPDEST PUSH0 PUSH1 0x40 DUP3 ADD SWAP1 POP PUSH2 0x1210 PUSH0 DUP4 ADD DUP6 PUSH2 0x11EE JUMP JUMPDEST PUSH2 0x121D PUSH1 0x20 DUP4 ADD DUP5 PUSH2 0xD7B JUMP JUMPDEST SWAP4 SWAP3 POP POP POP JUMP JUMPDEST PUSH32 0x476F616C206D757374206265203E203000000000000000000000000000000000 PUSH0 DUP3 ADD MSTORE POP JUMP JUMPDEST PUSH0 PUSH2 0x1258 PUSH1 0x10 DUP4 PUSH2 0xD15 JUMP JUMPDEST SWAP2 POP PUSH2 0x1263 DUP3 PUSH2 0x1224 JUMP JUMPDEST PUSH1 0x20 DUP3 ADD SWAP1 POP SWAP2 SWAP1 POP JUMP JUMPDEST PUSH0 PUSH1 0x20 DUP3 ADD SWAP1 POP DUP2 DUP2 SUB PUSH0 DUP4 ADD MSTORE PUSH2 0x1285 DUP2 PUSH2 0x124C JUMP JUMPDEST SWAP1 POP SWAP2 SWAP1 POP JUMP JUMPDEST PUSH32 0x4475726174696F6E206D757374206265203E2030000000000000000000000000 PUSH0 DUP3 ADD MSTORE POP JUMP JUMPDEST PUSH0 PUSH2 0x12C0 PUSH1 0x14 DUP4 PUSH2 0xD15 JUMP JUMPDEST SWAP2 POP PUSH2 0x12CB DUP3 PUSH2 0x128C JUMP JUMPDEST PUSH1 0x20 DUP3 ADD SWAP1 POP SWAP2 SWAP1 POP JUMP JUMPDEST PUSH0 PUSH1 0x20 DUP3 ADD SWAP1 POP DUP2 DUP2 SUB PUSH0 DUP4 ADD MSTORE PUSH2 0x12ED DUP2 PUSH2 0x12B4 JUMP JUMPDEST SWAP1 POP SWAP2 SWAP1 POP JUMP JUMPDEST PUSH32 0x4E487B7100000000000000000000000000000000000000000000000000000000 PUSH0 MSTORE PUSH1 0x11 PUSH1 0x4 MSTORE PUSH1 0x24 PUSH0 REVERT JUMPDEST PUSH0 PUSH2 0x132B DUP3 PUSH2 0xC6E JUMP JUMPDEST SWAP2 POP PUSH2 0x1336 DUP4 PUSH2 0xC6E JUMP JUMPDEST SWAP3 POP DUP3 DUP3 ADD SWAP1 POP DUP1 DUP3 GT ISZERO PUSH2 0x134E JUMPI PUSH2 0x134D PUSH2 0x12F4 JUMP JUMPDEST JUMPDEST SWAP3 SWAP2 POP POP JUMP JUMPDEST PUSH0 DUP3 SWAP1 POP SWAP3 SWAP2 POP POP JUMP JUMPDEST PUSH32 0x4E487B7100000000000000000000000000000000000000000000000000000000 PUSH0 MSTORE PUSH1 0x41 PUSH1 0x4 MSTORE PUSH1 0x24 PUSH0 REVERT JUMPDEST PUSH0 DUP2 SWAP1 POP DUP2 PUSH0 MSTORE PUSH1 0x20 PUSH0 KECCAK256 SWAP1 POP SWAP2 SWAP1 POP JUMP JUMPDEST PUSH0 PUSH1 0x20 PUSH1 0x1F DUP4 ADD DIV SWAP1 POP SWAP2 SWAP1 POP JUMP JUMPDEST PUSH0 DUP3 DUP3 SHL SWAP1 POP SWAP3 SWAP2 POP POP JUMP JUMPDEST PUSH0 PUSH1 0x8 DUP4 MUL PUSH2 0x13E7 PUSH32 0xFFFFFFFFFFFFFFFFFFFFFFFFFFFFFFFFFFFFFFFFFFFFFFFFFFFFFFFFFFFFFFFF DUP3 PUSH2 0x13AC JUMP JUMPDEST PUSH2 0x13F1 DUP7 DUP4 PUSH2 0x13AC JUMP JUMPDEST SWAP6 POP DUP1 NOT DUP5 AND SWAP4 POP DUP1 DUP7 AND DUP5 OR SWAP3 POP POP POP SWAP4 SWAP3 POP POP POP JUMP JUMPDEST PUSH0 DUP2 SWAP1 POP SWAP2 SWAP1 POP JUMP JUMPDEST PUSH0 PUSH2 0x142C PUSH2 0x1427 PUSH2 0x1422 DUP5 PUSH2 0xC6E JUMP JUMPDEST PUSH2 0x1409 JUMP JUMPDEST PUSH2 0xC6E JUMP JUMPDEST SWAP1 POP SWAP2 SWAP1 POP JUMP JUMPDEST PUSH0 DUP2 SWAP1 POP SWAP2 SWAP1 POP JUMP JUMPDEST PUSH2 0x1445 DUP4 PUSH2 0x1412 JUMP JUMPDEST PUSH2 0x1459 PUSH2 0x1451 DUP3 PUSH2 0x1433 JUMP JUMPDEST DUP5 DUP5 SLOAD PUSH2 0x13B8 JUMP JUMPDEST DUP3 SSTORE POP POP POP POP JUMP JUMPDEST PUSH0 SWAP1 JUMP JUMPDEST PUSH2 0x146D PUSH2 0x1461 JUMP JUMPDEST PUSH2 0x1478 DUP2 DUP5 DUP5 PUSH2 0x143C JUMP JUMPDEST POP POP POP JUMP JUMPDEST JUMPDEST DUP2 DUP2 LT ISZERO PUSH2 0x149B JUMPI PUSH2 0x1490 PUSH0 DUP3 PUSH2 0x1465 JUMP JUMPDEST PUSH1 0x1 DUP2 ADD SWAP1 POP PUSH2 0x147E JUMP JUMPDEST POP POP JUMP JUMPDEST PUSH1 0x1F DUP3 GT ISZERO PUSH2 0x14E0 JUMPI PUSH2 0x14B1 DUP2 PUSH2 0x138B JUMP JUMPDEST PUSH2 0x14BA DUP5 PUSH2 0x139D JUMP JUMPDEST DUP2 ADD PUSH1 0x20 DUP6 LT ISZERO PUSH2 0x14C9 JUMPI DUP2 SWAP1 POP JUMPDEST PUSH2 0x14DD PUSH2 0x14D5 DUP6 PUSH2 0x139D JUMP JUMPDEST DUP4 ADD DUP3 PUSH2 0x147D JUMP JUMPDEST POP POP JUMPDEST POP POP POP JUMP JUMPDEST PUSH0 DUP3 DUP3 SHR SWAP1 POP SWAP3 SWAP2 POP POP JUMP JUMPDEST PUSH0 PUSH2 0x1500 PUSH0 NOT DUP5 PUSH1 0x8 MUL PUSH2 0x14E5 JUMP JUMPDEST NOT DUP1 DUP4 AND SWAP2 POP POP SWAP3 SWAP2 POP POP JUMP JUMPDEST PUSH0 PUSH2 0x1518 DUP4 DUP4 PUSH2 0x14F1 JUMP JUMPDEST SWAP2 POP DUP3 PUSH1 0x2 MUL DUP3 OR SWAP1 POP SWAP3 SWAP2 POP POP JUMP JUMPDEST PUSH2 0x1532 DUP4 DUP4 PUSH2 0x1354 JUMP JUMPDEST PUSH8 0xFFFFFFFFFFFFFFFF DUP2 GT ISZERO PUSH2 0x154B JUMPI PUSH2 0x154A PUSH2 0x135E JUMP JUMPDEST JUMPDEST PUSH2 0x1555 DUP3 SLOAD PUSH2 0xF78 JUMP JUMPDEST PUSH2 0x1560 DUP3 DUP3 DUP6 PUSH2 0x149F JUMP JUMPDEST PUSH0 PUSH1 0x1F DUP4 GT PUSH1 0x1 DUP2 EQ PUSH2 0x158D JUMPI PUSH0 DUP5 ISZERO PUSH2 0x157B JUMPI DUP3 DUP8 ADD CALLDATALOAD SWAP1 POP JUMPDEST PUSH2 0x1585 DUP6 DUP3 PUSH2 0x150D JUMP JUMPDEST DUP7 SSTORE POP PUSH2 0x15EC JUMP JUMPDEST PUSH1 0x1F NOT DUP5 AND PUSH2 0x159B DUP7 PUSH2 0x138B JUMP JUMPDEST PUSH0 JUMPDEST DUP3 DUP2 LT ISZERO PUSH2 0x15C2 JUMPI DUP5 DUP10 ADD CALLDATALOAD DUP3 SSTORE PUSH1 0x1 DUP3 ADD SWAP2 POP PUSH1 0x20 DUP6 ADD SWAP5 POP PUSH1 0x20 DUP2 ADD SWAP1 POP PUSH2 0x159D JUMP JUMPDEST DUP7 DUP4 LT ISZERO PUSH2 0x15DF JUMPI DUP5 DUP10 ADD CALLDATALOAD PUSH2 0x15DB PUSH1 0x1F DUP10 AND DUP3 PUSH2 0x14F1 JUMP JUMPDEST DUP4 SSTORE POP JUMPDEST PUSH1 0x1 PUSH1 0x2 DUP9 MUL ADD DUP9 SSTORE POP POP POP JUMPDEST POP POP POP POP POP POP POP JUMP JUMPDEST PUSH0 PUSH2 0x15FF DUP3 PUSH2 0xC6E JUMP JUMPDEST SWAP2 POP PUSH2 0x160A DUP4 PUSH2 0xC6E JUMP JUMPDEST SWAP3 POP DUP3 DUP3 SUB SWAP1 POP DUP2 DUP2 GT ISZERO PUSH2 0x1622 JUMPI PUSH2 0x1621 PUSH2 0x12F4 JUMP JUMPDEST JUMPDEST SWAP3 SWAP2 POP POP JUMP JUMPDEST PUSH0 PUSH1 0x20 DUP3 ADD SWAP1 POP PUSH2 0x163B PUSH0 DUP4 ADD DUP5 PUSH2 0x11EE JUMP JUMPDEST SWAP3 SWAP2 POP POP JUMP JUMPDEST PUSH32 0x43616D706169676E20636C6F7365640000000000000000000000000000000000 PUSH0 DUP3 ADD MSTORE POP JUMP JUMPDEST PUSH0 PUSH2 0x1675 PUSH1 0xF DUP4 PUSH2 0xD15 JUMP JUMPDEST SWAP2 POP PUSH2 0x1680 DUP3 PUSH2 0x1641 JUMP JUMPDEST PUSH1 0x20 DUP3 ADD SWAP1 POP SWAP2 SWAP1 POP JUMP JUMPDEST PUSH0 PUSH1 0x20 DUP3 ADD SWAP1 POP DUP2 DUP2 SUB PUSH0 DUP4 ADD MSTORE PUSH2 0x16A2 DUP2 PUSH2 0x1669 JUMP JUMPDEST SWAP1 POP SWAP2 SWAP1 POP JUMP JUMPDEST PUSH32 0x43616D706169676E20656E646564000000000000000000000000000000000000 PUSH0 DUP3 ADD MSTORE POP JUMP JUMPDEST PUSH0 PUSH2 0x16DD PUSH1 0xE DUP4 PUSH2 0xD15 JUMP JUMPDEST SWAP2 POP PUSH2 0x16E8 DUP3 PUSH2 0x16A9 JUMP JUMPDEST PUSH1 0x20 DUP3 ADD SWAP1 POP SWAP2 SWAP1 POP JUMP JUMPDEST PUSH0 PUSH1 0x20 DUP3 ADD SWAP1 POP DUP2 DUP2 SUB PUSH0 DUP4 ADD MSTORE PUSH2 0x170A DUP2 PUSH2 0x16D1 JUMP JUMPDEST SWAP1 POP SWAP2 SWAP1 POP JUMP JUMPDEST PUSH32 0x436F6E747269627574696F6E206D757374206265203E20300000000000000000 PUSH0 DUP3 ADD MSTORE POP JUMP JUMPDEST PUSH0 PUSH2 0x1745 PUSH1 0x18 DUP4 PUSH2 0xD15 JUMP JUMPDEST SWAP2 POP PUSH2 0x1750 DUP3 PUSH2 0x1711 JUMP JUMPDEST PUSH1 0x20 DUP3 ADD SWAP1 POP SWAP2 SWAP1 POP JUMP JUMPDEST PUSH0 PUSH1 0x20 DUP3 ADD SWAP1 POP DUP2 DUP2 SUB PUSH0 DUP4 ADD MSTORE PUSH2 0x1772 DUP2 PUSH2 0x1739 JUMP JUMPDEST SWAP1 POP SWAP2 SWAP1 POP JUMP JUMPDEST PUSH32 0x43616D706169676E206E6F7420656E6465640000000000000000000000000000 PUSH0 DUP3 ADD MSTORE POP JUMP JUMPDEST PUSH0 PUSH2 0x17AD PUSH1 0x12 DUP4 PUSH2 0xD15 JUMP JUMPDEST SWAP2 POP PUSH2 0x17B8 DUP3 PUSH2 0x1779 JUMP JUMPDEST PUSH1 0x20 DUP3 ADD SWAP1 POP SWAP2 SWAP1 POP JUMP JUMPDEST PUSH0 PUSH1 0x20 DUP3 ADD SWAP1 POP DUP2 DUP2 SUB PUSH0 DUP4 ADD MSTORE PUSH2 0x17DA DUP2 PUSH2 0x17A1 JUMP JUMPDEST SWAP1 POP SWAP2 SWAP1 POP JUMP JUMPDEST PUSH32 0x476F616C20726561636865640000000000000000000000000000000000000000 PUSH0 DUP3 ADD MSTORE POP JUMP JUMPDEST PUSH0 PUSH2 0x1815 PUSH1 0xC DUP4 PUSH2 0xD15 JUMP JUMPDEST SWAP2 POP PUSH2 0x1820 DUP3 PUSH2 0x17E1 JUMP JUMPDEST PUSH1 0x20 DUP3 ADD SWAP1 POP SWAP2 SWAP1 POP JUMP JUMPDEST PUSH0 PUSH1 0x20 DUP3 ADD SWAP1 POP DUP2 DUP2 SUB PUSH0 DUP4 ADD MSTORE PUSH2 0x1842 DUP2 PUSH2 0x1809 JUMP JUMPDEST SWAP1 POP SWAP2 SWAP1 POP JUMP JUMPDEST PUSH32 0x46756E64732077697468647261776E0000000000000000000000000000000000 PUSH0 DUP3 ADD MSTORE POP JUMP JUMPDEST PUSH0 PUSH2 0x187D PUSH1 0xF DUP4 PUSH2 0xD15 JUMP JUMPDEST SWAP2 POP PUSH2 0x1888 DUP3 PUSH2 0x1849 JUMP JUMPDEST PUSH1 0x20 DUP3 ADD SWAP1 POP SWAP2 SWAP1 POP JUMP JUMPDEST PUSH0 PUSH1 0x20 DUP3 ADD SWAP1 POP DUP2 DUP2 SUB PUSH0 DUP4 ADD MSTORE PUSH2 0x18AA DUP2 PUSH2 0x1871 JUMP JUMPDEST SWAP1 POP SWAP2 SWAP1 POP JUMP JUMPDEST PUSH32 0x4E6F20636F6E747269627574696F6E7300000000000000000000000000000000 PUSH0 DUP3 ADD MSTORE POP JUMP JUMPDEST PUSH0 PUSH2 0x18E5 PUSH1 0x10 DUP4 PUSH2 0xD15 JUMP JUMPDEST SWAP2 POP PUSH2 0x18F0 DUP3 PUSH2 0x18B1 JUMP JUMPDEST PUSH1 0x20 DUP3 ADD SWAP1 POP SWAP2 SWAP1 POP JUMP JUMPDEST PUSH0 PUSH1 0x20 DUP3 ADD SWAP1 POP DUP2 DUP2 SUB PUSH0 DUP4 ADD MSTORE PUSH2 0x1912 DUP2 PUSH2 0x18D9 JUMP JUMPDEST SWAP1 POP SWAP2 SWAP1 POP JUMP INVALID LOG2 PUSH5 0x6970667358 0x22 SLT KECCAK256 SIGNEXTEND 0xE6 EXTCODEHASH NOT STOP DUP9 0xC6 0x24 DUP1 LT 0x26 0x27 SWAP3 0xED 0xB4 0xD4 DUP15 PUSH24 0x25CBB23B552F7D330CA4A987F8AE64736F6C634300081A00 CALLER "
				},
				"gasEstimates": {
					"creation": {
						"codeDepositCost": "1295800",
						"executionCost": "1347",
						"totalCost": "1297147"
					},
					"external": {
						"campaigns(uint256)": "infinite",
						"contribute(uint256)": "infinite",
						"createCampaign(string,string,uint256,uint256)": "infinite",
						"withdrawContribution(uint256)": "infinite",
						"withdrawFunds(uint256)": "infinite"
					}
				},
				"methodIdentifiers": {
					"campaigns(uint256)": "141961bc",
					"contribute(uint256)": "c1cbbca7",
					"createCampaign(string,string,uint256,uint256)": "a318f269",
					"withdrawContribution(uint256)": "d25090ff",
					"withdrawFunds(uint256)": "155dd5ee"
				}
			},
			"storageLayout": {
				"storage": [
					{
						"astId": 26,
						"contract": "contracts/Crowdfunding.sol:Crowdfunding",
						"label": "campaigns",
						"offset": 0,
						"slot": "0",
						"type": "t_array(t_struct(Campaign)22_storage)dyn_storage"
					}
				],
				"types": {
					"t_address": {
						"encoding": "inplace",
						"label": "address",
						"numberOfBytes": "20"
					},
					"t_address_payable": {
						"encoding": "inplace",
						"label": "address payable",
						"numberOfBytes": "20"
					},
					"t_array(t_struct(Campaign)22_storage)dyn_storage": {
						"base": "t_struct(Campaign)22_storage",
						"encoding": "dynamic_array",
						"label": "struct Crowdfunding.Campaign[]",
						"numberOfBytes": "32"
					},
					"t_bool": {
						"encoding": "inplace",
						"label": "bool",
						"numberOfBytes": "1"
					},
					"t_mapping(t_address,t_uint256)": {
						"encoding": "mapping",
						"key": "t_address",
						"label": "mapping(address => uint256)",
						"numberOfBytes": "32",
						"value": "t_uint256"
					},
					"t_string_storage": {
						"encoding": "bytes",
						"label": "string",
						"numberOfBytes": "32"
					},
					"t_struct(Campaign)22_storage": {
						"encoding": "inplace",
						"label": "struct Crowdfunding.Campaign",
						"members": [
							{
								"astId": 3,
								"contract": "contracts/Crowdfunding.sol:Crowdfunding",
								"label": "creator",
								"offset": 0,
								"slot": "0",
								"type": "t_address_payable"
							},
							{
								"astId": 5,
								"contract": "contracts/Crowdfunding.sol:Crowdfunding",
								"label": "title",
								"offset": 0,
								"slot": "1",
								"type": "t_string_storage"
							},
							{
								"astId": 7,
								"contract": "contracts/Crowdfunding.sol:Crowdfunding",
								"label": "description",
								"offset": 0,
								"slot": "2",
								"type": "t_string_storage"
							},
							{
								"astId": 9,
								"contract": "contracts/Crowdfunding.sol:Crowdfunding",
								"label": "goal",
								"offset": 0,
								"slot": "3",
								"type": "t_uint256"
							},
							{
								"astId": 11,
								"contract": "contracts/Crowdfunding.sol:Crowdfunding",
								"label": "totalFunds",
								"offset": 0,
								"slot": "4",
								"type": "t_uint256"
							},
							{
								"astId": 13,
								"contract": "contracts/Crowdfunding.sol:Crowdfunding",
								"label": "deadline",
								"offset": 0,
								"slot": "5",
								"type": "t_uint256"
							},
							{
								"astId": 15,
								"contract": "contracts/Crowdfunding.sol:Crowdfunding",
								"label": "goalReached",
								"offset": 0,
								"slot": "6",
								"type": "t_bool"
							},
							{
								"astId": 17,
								"contract": "contracts/Crowdfunding.sol:Crowdfunding",
								"label": "closed",
								"offset": 1,
								"slot": "6",
								"type": "t_bool"
							},
							{
								"astId": 21,
								"contract": "contracts/Crowdfunding.sol:Crowdfunding",
								"label": "contributions",
								"offset": 0,
								"slot": "7",
								"type": "t_mapping(t_address,t_uint256)"
							}
						],
						"numberOfBytes": "256"
					},
					"t_uint256": {
						"encoding": "inplace",
						"label": "uint256",
						"numberOfBytes": "32"
					}
				}
			},
			"userdoc": {
				"kind": "user",
				"methods": {},
				"version": 1
			}
		}
	}
}