{
	"contracts/Crowdfunding.sol": {
		"Crowdfunding": {
			"abi": [
				{
					"inputs": [
						{
							"internalType": "uint256",
							"name": "",
							"type": "uint256"
						}
					],
					"name": "campaigns",
					"outputs": [
						{
							"internalType": "address payable",
							"name": "creator",
							"type": "address"
						},
						{
							"internalType": "string",
							"name": "title",
							"type": "string"
						},
						{
							"internalType": "string",
							"name": "description",
							"type": "string"
						},
						{
							"internalType": "uint256",
							"name": "goal",
							"type": "uint256"
						},
						{
							"internalType": "uint256",
							"name": "totalFunds",
							"type": "uint256"
						},
						{
							"internalType": "uint256",
							"name": "deadline",
							"type": "uint256"
						},
						{
							"internalType": "bool",
							"name": "goalReached",
							"type": "bool"
						}
					],
					"stateMutability": "view",
					"type": "function"
				},
				{
					"inputs": [
						{
							"internalType": "uint256",
							"name": "campaignId",
							"type": "uint256"
						}
					],
					"name": "contribute",
					"outputs": [],
					"stateMutability": "payable",
					"type": "function"
				},
				{
					"inputs": [
						{
							"internalType": "string",
							"name": "_title",
							"type": "string"
						},
						{
							"internalType": "string",
							"name": "_description",
							"type": "string"
						},
						{
							"internalType": "uint256",
							"name": "_duration",
							"type": "uint256"
						},
						{
							"internalType": "uint256",
							"name": "_goal",
							"type": "uint256"
						}
					],
					"name": "createCampaign",
					"outputs": [],
					"stateMutability": "nonpayable",
					"type": "function"
				},
				{
					"inputs": [
						{
							"internalType": "uint256",
							"name": "_campaignId",
							"type": "uint256"
						}
					],
					"name": "withdrawContributions",
					"outputs": [],
					"stateMutability": "payable",
					"type": "function"
				},
				{
					"inputs": [
						{
							"internalType": "uint256",
							"name": "_campaignId",
							"type": "uint256"
						}
					],
					"name": "withdrawFunds",
					"outputs": [],
					"stateMutability": "payable",
					"type": "function"
				}
			],
			"devdoc": {
				"kind": "dev",
				"methods": {},
				"version": 1
			},
			"evm": {
				"assembly": "    /* \"contracts/Crowdfunding.sol\":61:2314  contract Crowdfunding {... */\n  mstore(0x40, 0x80)\n  callvalue\n  dup1\n  iszero\n  tag_1\n  jumpi\n  0x00\n  dup1\n  revert\ntag_1:\n  pop\n  dataSize(sub_0)\n  dup1\n  dataOffset(sub_0)\n  0x00\n  codecopy\n  0x00\n  return\nstop\n\nsub_0: assembly {\n        /* \"contracts/Crowdfunding.sol\":61:2314  contract Crowdfunding {... */\n      mstore(0x40, 0x80)\n      jumpi(tag_1, lt(calldatasize, 0x04))\n      shr(0xe0, calldataload(0x00))\n      dup1\n      0x0b008fd0\n      eq\n      tag_2\n      jumpi\n      dup1\n      0x141961bc\n      eq\n      tag_3\n      jumpi\n      dup1\n      0x155dd5ee\n      eq\n      tag_4\n      jumpi\n      dup1\n      0xa318f269\n      eq\n      tag_5\n      jumpi\n      dup1\n      0xc1cbbca7\n      eq\n      tag_6\n      jumpi\n    tag_1:\n      0x00\n      dup1\n      revert\n        /* \"contracts/Crowdfunding.sol\":1869:2311  function withdrawContributions(uint256 _campaignId) public payable {... */\n    tag_2:\n      tag_7\n      0x04\n      dup1\n      calldatasize\n      sub\n      dup2\n      add\n      swap1\n      tag_8\n      swap2\n      swap1\n      tag_9\n      jump\t// in\n    tag_8:\n      tag_10\n      jump\t// in\n    tag_7:\n      stop\n        /* \"contracts/Crowdfunding.sol\":359:386  Campaign[] public campaigns */\n    tag_3:\n      callvalue\n      dup1\n      iszero\n      tag_11\n      jumpi\n      0x00\n      dup1\n      revert\n    tag_11:\n      pop\n      tag_12\n      0x04\n      dup1\n      calldatasize\n      sub\n      dup2\n      add\n      swap1\n      tag_13\n      swap2\n      swap1\n      tag_9\n      jump\t// in\n    tag_13:\n      tag_14\n      jump\t// in\n    tag_12:\n      mload(0x40)\n      tag_15\n      swap8\n      swap7\n      swap6\n      swap5\n      swap4\n      swap3\n      swap2\n      swap1\n      tag_16\n      jump\t// in\n    tag_15:\n      mload(0x40)\n      dup1\n      swap2\n      sub\n      swap1\n      return\n        /* \"contracts/Crowdfunding.sol\":1514:1861  function withdrawFunds(uint256 _campaignId) public payable {... */\n    tag_4:\n      tag_17\n      0x04\n      dup1\n      calldatasize\n      sub\n      dup2\n      add\n      swap1\n      tag_18\n      swap2\n      swap1\n      tag_9\n      jump\t// in\n    tag_18:\n      tag_19\n      jump\t// in\n    tag_17:\n      stop\n        /* \"contracts/Crowdfunding.sol\":395:937  function createCampaign(... */\n    tag_5:\n      callvalue\n      dup1\n      iszero\n      tag_20\n      jumpi\n      0x00\n      dup1\n      revert\n    tag_20:\n      pop\n      tag_21\n      0x04\n      dup1\n      calldatasize\n      sub\n      dup2\n      add\n      swap1\n      tag_22\n      swap2\n      swap1\n      tag_23\n      jump\t// in\n    tag_22:\n      tag_24\n      jump\t// in\n    tag_21:\n      stop\n        /* \"contracts/Crowdfunding.sol\":945:1506  function contribute(uint256 campaignId) public payable {... */\n    tag_6:\n      tag_25\n      0x04\n      dup1\n      calldatasize\n      sub\n      dup2\n      add\n      swap1\n      tag_26\n      swap2\n      swap1\n      tag_9\n      jump\t// in\n    tag_26:\n      tag_27\n      jump\t// in\n    tag_25:\n      stop\n        /* \"contracts/Crowdfunding.sol\":1869:2311  function withdrawContributions(uint256 _campaignId) public payable {... */\n    tag_10:\n        /* \"contracts/Crowdfunding.sol\":1988:1997  campaigns */\n      0x00\n        /* \"contracts/Crowdfunding.sol\":1998:2009  _campaignId */\n      dup2\n        /* \"contracts/Crowdfunding.sol\":1988:2010  campaigns[_campaignId] */\n      dup2\n      sload\n      dup2\n      lt\n      tag_29\n      jumpi\n      tag_30\n      tag_31\n      jump\t// in\n    tag_30:\n    tag_29:\n      swap1\n      0x00\n      mstore\n      keccak256(0x00, 0x20)\n      swap1\n      0x08\n      mul\n      add\n        /* \"contracts/Crowdfunding.sol\":1988:2019  campaigns[_campaignId].deadline */\n      0x05\n      add\n      sload\n        /* \"contracts/Crowdfunding.sol\":1969:1984  block.timestamp */\n      timestamp\n        /* \"contracts/Crowdfunding.sol\":1969:2019  block.timestamp >= campaigns[_campaignId].deadline */\n      lt\n      iszero\n        /* \"contracts/Crowdfunding.sol\":1947:2065  require(... */\n      tag_33\n      jumpi\n      mload(0x40)\n      0x08c379a000000000000000000000000000000000000000000000000000000000\n      dup2\n      mstore\n      0x04\n      add\n      tag_34\n      swap1\n      tag_35\n      jump\t// in\n    tag_34:\n      mload(0x40)\n      dup1\n      swap2\n      sub\n      swap1\n      revert\n    tag_33:\n        /* \"contracts/Crowdfunding.sol\":2099:2108  campaigns */\n      0x00\n        /* \"contracts/Crowdfunding.sol\":2109:2120  _campaignId */\n      dup2\n        /* \"contracts/Crowdfunding.sol\":2099:2121  campaigns[_campaignId] */\n      dup2\n      sload\n      dup2\n      lt\n      tag_36\n      jumpi\n      tag_37\n      tag_31\n      jump\t// in\n    tag_37:\n    tag_36:\n      swap1\n      0x00\n      mstore\n      keccak256(0x00, 0x20)\n      swap1\n      0x08\n      mul\n      add\n        /* \"contracts/Crowdfunding.sol\":2099:2133  campaigns[_campaignId].goalReached */\n      0x06\n      add\n      0x00\n      swap1\n      sload\n      swap1\n      0x0100\n      exp\n      swap1\n      div\n      0xff\n      and\n        /* \"contracts/Crowdfunding.sol\":2098:2133  !campaigns[_campaignId].goalReached */\n      iszero\n        /* \"contracts/Crowdfunding.sol\":2076:2185  require(... */\n      tag_39\n      jumpi\n      mload(0x40)\n      0x08c379a000000000000000000000000000000000000000000000000000000000\n      dup2\n      mstore\n      0x04\n      add\n      tag_40\n      swap1\n      tag_41\n      jump\t// in\n    tag_40:\n      mload(0x40)\n      dup1\n      swap2\n      sub\n      swap1\n      revert\n    tag_39:\n        /* \"contracts/Crowdfunding.sol\":2198:2212  uint256 amount */\n      0x00\n        /* \"contracts/Crowdfunding.sol\":2215:2224  campaigns */\n      dup1\n        /* \"contracts/Crowdfunding.sol\":2225:2236  _campaignId */\n      dup3\n        /* \"contracts/Crowdfunding.sol\":2215:2237  campaigns[_campaignId] */\n      dup2\n      sload\n      dup2\n      lt\n      tag_42\n      jumpi\n      tag_43\n      tag_31\n      jump\t// in\n    tag_43:\n    tag_42:\n      swap1\n      0x00\n      mstore\n      keccak256(0x00, 0x20)\n      swap1\n      0x08\n      mul\n      add\n        /* \"contracts/Crowdfunding.sol\":2215:2244  campaigns[_campaignId].funder */\n      0x07\n      add\n        /* \"contracts/Crowdfunding.sol\":2215:2256  campaigns[_campaignId].funder[msg.sender] */\n      0x00\n        /* \"contracts/Crowdfunding.sol\":2245:2255  msg.sender */\n      caller\n        /* \"contracts/Crowdfunding.sol\":2215:2256  campaigns[_campaignId].funder[msg.sender] */\n      0xffffffffffffffffffffffffffffffffffffffff\n      and\n      0xffffffffffffffffffffffffffffffffffffffff\n      and\n      dup2\n      mstore\n      0x20\n      add\n      swap1\n      dup2\n      mstore\n      0x20\n      add\n      0x00\n      keccak256\n      sload\n        /* \"contracts/Crowdfunding.sol\":2198:2256  uint256 amount = campaigns[_campaignId].funder[msg.sender] */\n      swap1\n      pop\n        /* \"contracts/Crowdfunding.sol\":2275:2285  msg.sender */\n      caller\n        /* \"contracts/Crowdfunding.sol\":2267:2295  payable(msg.sender).transfer */\n      0xffffffffffffffffffffffffffffffffffffffff\n      and\n        /* \"contracts/Crowdfunding.sol\":2267:2303  payable(msg.sender).transfer(amount) */\n      0x08fc\n        /* \"contracts/Crowdfunding.sol\":2296:2302  amount */\n      dup3\n        /* \"contracts/Crowdfunding.sol\":2267:2303  payable(msg.sender).transfer(amount) */\n      swap1\n      dup2\n      iszero\n      mul\n      swap1\n      mload(0x40)\n      0x00\n      mload(0x40)\n      dup1\n      dup4\n      sub\n      dup2\n      dup6\n      dup9\n      dup9\n      call\n      swap4\n      pop\n      pop\n      pop\n      pop\n      iszero\n      dup1\n      iszero\n      tag_46\n      jumpi\n      returndatasize\n      0x00\n      dup1\n      returndatacopy\n      revert(0x00, returndatasize)\n    tag_46:\n      pop\n        /* \"contracts/Crowdfunding.sol\":1936:2311  {... */\n      pop\n        /* \"contracts/Crowdfunding.sol\":1869:2311  function withdrawContributions(uint256 _campaignId) public payable {... */\n      pop\n      jump\t// out\n        /* \"contracts/Crowdfunding.sol\":359:386  Campaign[] public campaigns */\n    tag_14:\n      0x00\n      dup2\n      dup2\n      sload\n      dup2\n      lt\n      tag_47\n      jumpi\n      0x00\n      dup1\n      revert\n    tag_47:\n      swap1\n      0x00\n      mstore\n      keccak256(0x00, 0x20)\n      swap1\n      0x08\n      mul\n      add\n      0x00\n      swap2\n      pop\n      swap1\n      pop\n      dup1\n      0x00\n      add\n      0x00\n      swap1\n      sload\n      swap1\n      0x0100\n      exp\n      swap1\n      div\n      0xffffffffffffffffffffffffffffffffffffffff\n      and\n      swap1\n      dup1\n      0x01\n      add\n      dup1\n      sload\n      tag_49\n      swap1\n      tag_50\n      jump\t// in\n    tag_49:\n      dup1\n      0x1f\n      add\n      0x20\n      dup1\n      swap2\n      div\n      mul\n      0x20\n      add\n      mload(0x40)\n      swap1\n      dup2\n      add\n      0x40\n      mstore\n      dup1\n      swap3\n      swap2\n      swap1\n      dup2\n      dup2\n      mstore\n      0x20\n      add\n      dup3\n      dup1\n      sload\n      tag_51\n      swap1\n      tag_50\n      jump\t// in\n    tag_51:\n      dup1\n      iszero\n      tag_52\n      jumpi\n      dup1\n      0x1f\n      lt\n      tag_53\n      jumpi\n      0x0100\n      dup1\n      dup4\n      sload\n      div\n      mul\n      dup4\n      mstore\n      swap2\n      0x20\n      add\n      swap2\n      jump(tag_52)\n    tag_53:\n      dup3\n      add\n      swap2\n      swap1\n      0x00\n      mstore\n      keccak256(0x00, 0x20)\n      swap1\n    tag_54:\n      dup2\n      sload\n      dup2\n      mstore\n      swap1\n      0x01\n      add\n      swap1\n      0x20\n      add\n      dup1\n      dup4\n      gt\n      tag_54\n      jumpi\n      dup3\n      swap1\n      sub\n      0x1f\n      and\n      dup3\n      add\n      swap2\n    tag_52:\n      pop\n      pop\n      pop\n      pop\n      pop\n      swap1\n      dup1\n      0x02\n      add\n      dup1\n      sload\n      tag_55\n      swap1\n      tag_50\n      jump\t// in\n    tag_55:\n      dup1\n      0x1f\n      add\n      0x20\n      dup1\n      swap2\n      div\n      mul\n      0x20\n      add\n      mload(0x40)\n      swap1\n      dup2\n      add\n      0x40\n      mstore\n      dup1\n      swap3\n      swap2\n      swap1\n      dup2\n      dup2\n      mstore\n      0x20\n      add\n      dup3\n      dup1\n      sload\n      tag_56\n      swap1\n      tag_50\n      jump\t// in\n    tag_56:\n      dup1\n      iszero\n      tag_57\n      jumpi\n      dup1\n      0x1f\n      lt\n      tag_58\n      jumpi\n      0x0100\n      dup1\n      dup4\n      sload\n      div\n      mul\n      dup4\n      mstore\n      swap2\n      0x20\n      add\n      swap2\n      jump(tag_57)\n    tag_58:\n      dup3\n      add\n      swap2\n      swap1\n      0x00\n      mstore\n      keccak256(0x00, 0x20)\n      swap1\n    tag_59:\n      dup2\n      sload\n      dup2\n      mstore\n      swap1\n      0x01\n      add\n      swap1\n      0x20\n      add\n      dup1\n      dup4\n      gt\n      tag_59\n      jumpi\n      dup3\n      swap1\n      sub\n      0x1f\n      and\n      dup3\n      add\n      swap2\n    tag_57:\n      pop\n      pop\n      pop\n      pop\n      pop\n      swap1\n      dup1\n      0x03\n      add\n      sload\n      swap1\n      dup1\n      0x04\n      add\n      sload\n      swap1\n      dup1\n      0x05\n      add\n      sload\n      swap1\n      dup1\n      0x06\n      add\n      0x00\n      swap1\n      sload\n      swap1\n      0x0100\n      exp\n      swap1\n      div\n      0xff\n      and\n      swap1\n      pop\n      dup8\n      jump\t// out\n        /* \"contracts/Crowdfunding.sol\":1514:1861  function withdrawFunds(uint256 _campaignId) public payable {... */\n    tag_19:\n        /* \"contracts/Crowdfunding.sol\":1626:1635  campaigns */\n      0x00\n        /* \"contracts/Crowdfunding.sol\":1636:1647  _campaignId */\n      dup2\n        /* \"contracts/Crowdfunding.sol\":1626:1648  campaigns[_campaignId] */\n      dup2\n      sload\n      dup2\n      lt\n      tag_61\n      jumpi\n      tag_62\n      tag_31\n      jump\t// in\n    tag_62:\n    tag_61:\n      swap1\n      0x00\n      mstore\n      keccak256(0x00, 0x20)\n      swap1\n      0x08\n      mul\n      add\n        /* \"contracts/Crowdfunding.sol\":1626:1660  campaigns[_campaignId].goalReached */\n      0x06\n      add\n      0x00\n      swap1\n      sload\n      swap1\n      0x0100\n      exp\n      swap1\n      div\n      0xff\n      and\n        /* \"contracts/Crowdfunding.sol\":1618:1686  require(campaigns[_campaignId].goalReached, \"Goal not reached yet!\") */\n      tag_64\n      jumpi\n      mload(0x40)\n      0x08c379a000000000000000000000000000000000000000000000000000000000\n      dup2\n      mstore\n      0x04\n      add\n      tag_65\n      swap1\n      tag_66\n      jump\t// in\n    tag_65:\n      mload(0x40)\n      dup1\n      swap2\n      sub\n      swap1\n      revert\n    tag_64:\n        /* \"contracts/Crowdfunding.sol\":1697:1706  campaigns */\n      0x00\n        /* \"contracts/Crowdfunding.sol\":1707:1718  _campaignId */\n      dup2\n        /* \"contracts/Crowdfunding.sol\":1697:1719  campaigns[_campaignId] */\n      dup2\n      sload\n      dup2\n      lt\n      tag_67\n      jumpi\n      tag_68\n      tag_31\n      jump\t// in\n    tag_68:\n    tag_67:\n      swap1\n      0x00\n      mstore\n      keccak256(0x00, 0x20)\n      swap1\n      0x08\n      mul\n      add\n        /* \"contracts/Crowdfunding.sol\":1697:1727  campaigns[_campaignId].creator */\n      0x00\n      add\n      0x00\n      swap1\n      sload\n      swap1\n      0x0100\n      exp\n      swap1\n      div\n      0xffffffffffffffffffffffffffffffffffffffff\n      and\n        /* \"contracts/Crowdfunding.sol\":1697:1736  campaigns[_campaignId].creator.transfer */\n      0xffffffffffffffffffffffffffffffffffffffff\n      and\n        /* \"contracts/Crowdfunding.sol\":1697:1795  campaigns[_campaignId].creator.transfer(... */\n      0x08fc\n        /* \"contracts/Crowdfunding.sol\":1751:1760  campaigns */\n      0x00\n        /* \"contracts/Crowdfunding.sol\":1761:1772  _campaignId */\n      dup4\n        /* \"contracts/Crowdfunding.sol\":1751:1773  campaigns[_campaignId] */\n      dup2\n      sload\n      dup2\n      lt\n      tag_70\n      jumpi\n      tag_71\n      tag_31\n      jump\t// in\n    tag_71:\n    tag_70:\n      swap1\n      0x00\n      mstore\n      keccak256(0x00, 0x20)\n      swap1\n      0x08\n      mul\n      add\n        /* \"contracts/Crowdfunding.sol\":1751:1784  campaigns[_campaignId].totalFunds */\n      0x04\n      add\n      sload\n        /* \"contracts/Crowdfunding.sol\":1697:1795  campaigns[_campaignId].creator.transfer(... */\n      swap1\n      dup2\n      iszero\n      mul\n      swap1\n      mload(0x40)\n      0x00\n      mload(0x40)\n      dup1\n      dup4\n      sub\n      dup2\n      dup6\n      dup9\n      dup9\n      call\n      swap4\n      pop\n      pop\n      pop\n      pop\n      iszero\n      dup1\n      iszero\n      tag_74\n      jumpi\n      returndatasize\n      0x00\n      dup1\n      returndatacopy\n      revert(0x00, returndatasize)\n    tag_74:\n      pop\n        /* \"contracts/Crowdfunding.sol\":1842:1843  0 */\n      0x00\n        /* \"contracts/Crowdfunding.sol\":1806:1815  campaigns */\n      dup1\n        /* \"contracts/Crowdfunding.sol\":1816:1827  _campaignId */\n      dup3\n        /* \"contracts/Crowdfunding.sol\":1806:1828  campaigns[_campaignId] */\n      dup2\n      sload\n      dup2\n      lt\n      tag_75\n      jumpi\n      tag_76\n      tag_31\n      jump\t// in\n    tag_76:\n    tag_75:\n      swap1\n      0x00\n      mstore\n      keccak256(0x00, 0x20)\n      swap1\n      0x08\n      mul\n      add\n        /* \"contracts/Crowdfunding.sol\":1806:1839  campaigns[_campaignId].totalFunds */\n      0x04\n      add\n        /* \"contracts/Crowdfunding.sol\":1806:1843  campaigns[_campaignId].totalFunds = 0 */\n      dup2\n      swap1\n      sstore\n      pop\n        /* \"contracts/Crowdfunding.sol\":1514:1861  function withdrawFunds(uint256 _campaignId) public payable {... */\n      pop\n      jump\t// out\n        /* \"contracts/Crowdfunding.sol\":395:937  function createCampaign(... */\n    tag_24:\n        /* \"contracts/Crowdfunding.sol\":564:581  uint256 _deadline */\n      0x00\n        /* \"contracts/Crowdfunding.sol\":602:611  _duration */\n      dup3\n        /* \"contracts/Crowdfunding.sol\":584:599  block.timestamp */\n      timestamp\n        /* \"contracts/Crowdfunding.sol\":584:611  block.timestamp + _duration */\n      tag_79\n      swap2\n      swap1\n      tag_80\n      jump\t// in\n    tag_79:\n        /* \"contracts/Crowdfunding.sol\":564:611  uint256 _deadline = block.timestamp + _duration */\n      swap1\n      pop\n        /* \"contracts/Crowdfunding.sol\":624:652  Campaign storage newCampaign */\n      0x00\n        /* \"contracts/Crowdfunding.sol\":655:664  campaigns */\n      dup1\n        /* \"contracts/Crowdfunding.sol\":655:671  campaigns.push() */\n      0x01\n      dup2\n      0x01\n      dup2\n      sload\n      add\n      dup1\n      dup3\n      sstore\n      dup1\n      swap2\n      pop\n      pop\n      sub\n      swap1\n      0x00\n      mstore\n      keccak256(0x00, 0x20)\n      swap1\n      0x08\n      mul\n      add\n        /* \"contracts/Crowdfunding.sol\":624:671  Campaign storage newCampaign = campaigns.push() */\n      swap1\n      pop\n        /* \"contracts/Crowdfunding.sol\":712:722  msg.sender */\n      caller\n        /* \"contracts/Crowdfunding.sol\":682:693  newCampaign */\n      dup2\n        /* \"contracts/Crowdfunding.sol\":682:701  newCampaign.creator */\n      0x00\n      add\n      0x00\n        /* \"contracts/Crowdfunding.sol\":682:723  newCampaign.creator = payable(msg.sender) */\n      0x0100\n      exp\n      dup2\n      sload\n      dup2\n      0xffffffffffffffffffffffffffffffffffffffff\n      mul\n      not\n      and\n      swap1\n      dup4\n      0xffffffffffffffffffffffffffffffffffffffff\n      and\n      mul\n      or\n      swap1\n      sstore\n      pop\n        /* \"contracts/Crowdfunding.sol\":754:760  _title */\n      dup6\n        /* \"contracts/Crowdfunding.sol\":734:745  newCampaign */\n      dup2\n        /* \"contracts/Crowdfunding.sol\":734:751  newCampaign.title */\n      0x01\n      add\n        /* \"contracts/Crowdfunding.sol\":734:760  newCampaign.title = _title */\n      swap1\n      dup2\n      tag_82\n      swap2\n      swap1\n      tag_83\n      jump\t// in\n    tag_82:\n      pop\n        /* \"contracts/Crowdfunding.sol\":797:809  _description */\n      dup5\n        /* \"contracts/Crowdfunding.sol\":771:782  newCampaign */\n      dup2\n        /* \"contracts/Crowdfunding.sol\":771:794  newCampaign.description */\n      0x02\n      add\n        /* \"contracts/Crowdfunding.sol\":771:809  newCampaign.description = _description */\n      swap1\n      dup2\n      tag_84\n      swap2\n      swap1\n      tag_83\n      jump\t// in\n    tag_84:\n      pop\n        /* \"contracts/Crowdfunding.sol\":839:844  _goal */\n      dup3\n        /* \"contracts/Crowdfunding.sol\":820:831  newCampaign */\n      dup2\n        /* \"contracts/Crowdfunding.sol\":820:836  newCampaign.goal */\n      0x03\n      add\n        /* \"contracts/Crowdfunding.sol\":820:844  newCampaign.goal = _goal */\n      dup2\n      swap1\n      sstore\n      pop\n        /* \"contracts/Crowdfunding.sol\":878:887  _deadline */\n      dup2\n        /* \"contracts/Crowdfunding.sol\":855:866  newCampaign */\n      dup2\n        /* \"contracts/Crowdfunding.sol\":855:875  newCampaign.deadline */\n      0x05\n      add\n        /* \"contracts/Crowdfunding.sol\":855:887  newCampaign.deadline = _deadline */\n      dup2\n      swap1\n      sstore\n      pop\n        /* \"contracts/Crowdfunding.sol\":924:929  false */\n      0x00\n        /* \"contracts/Crowdfunding.sol\":898:909  newCampaign */\n      dup2\n        /* \"contracts/Crowdfunding.sol\":898:921  newCampaign.goalReached */\n      0x06\n      add\n      0x00\n        /* \"contracts/Crowdfunding.sol\":898:929  newCampaign.goalReached = false */\n      0x0100\n      exp\n      dup2\n      sload\n      dup2\n      0xff\n      mul\n      not\n      and\n      swap1\n      dup4\n      iszero\n      iszero\n      mul\n      or\n      swap1\n      sstore\n      pop\n        /* \"contracts/Crowdfunding.sol\":553:937  {... */\n      pop\n      pop\n        /* \"contracts/Crowdfunding.sol\":395:937  function createCampaign(... */\n      pop\n      pop\n      pop\n      pop\n      jump\t// out\n        /* \"contracts/Crowdfunding.sol\":945:1506  function contribute(uint256 campaignId) public payable {... */\n    tag_27:\n        /* \"contracts/Crowdfunding.sol\":1055:1064  msg.value */\n      callvalue\n        /* \"contracts/Crowdfunding.sol\":1011:1020  campaigns */\n      0x00\n        /* \"contracts/Crowdfunding.sol\":1021:1031  campaignId */\n      dup3\n        /* \"contracts/Crowdfunding.sol\":1011:1032  campaigns[campaignId] */\n      dup2\n      sload\n      dup2\n      lt\n      tag_86\n      jumpi\n      tag_87\n      tag_31\n      jump\t// in\n    tag_87:\n    tag_86:\n      swap1\n      0x00\n      mstore\n      keccak256(0x00, 0x20)\n      swap1\n      0x08\n      mul\n      add\n        /* \"contracts/Crowdfunding.sol\":1011:1039  campaigns[campaignId].funder */\n      0x07\n      add\n        /* \"contracts/Crowdfunding.sol\":1011:1051  campaigns[campaignId].funder[msg.sender] */\n      0x00\n        /* \"contracts/Crowdfunding.sol\":1040:1050  msg.sender */\n      caller\n        /* \"contracts/Crowdfunding.sol\":1011:1051  campaigns[campaignId].funder[msg.sender] */\n      0xffffffffffffffffffffffffffffffffffffffff\n      and\n      0xffffffffffffffffffffffffffffffffffffffff\n      and\n      dup2\n      mstore\n      0x20\n      add\n      swap1\n      dup2\n      mstore\n      0x20\n      add\n      0x00\n      keccak256\n      0x00\n        /* \"contracts/Crowdfunding.sol\":1011:1064  campaigns[campaignId].funder[msg.sender] += msg.value */\n      dup3\n      dup3\n      sload\n      tag_89\n      swap2\n      swap1\n      tag_80\n      jump\t// in\n    tag_89:\n      swap3\n      pop\n      pop\n      dup2\n      swap1\n      sstore\n      pop\n        /* \"contracts/Crowdfunding.sol\":1111:1120  msg.value */\n      callvalue\n        /* \"contracts/Crowdfunding.sol\":1075:1084  campaigns */\n      0x00\n        /* \"contracts/Crowdfunding.sol\":1085:1095  campaignId */\n      dup3\n        /* \"contracts/Crowdfunding.sol\":1075:1096  campaigns[campaignId] */\n      dup2\n      sload\n      dup2\n      lt\n      tag_90\n      jumpi\n      tag_91\n      tag_31\n      jump\t// in\n    tag_91:\n    tag_90:\n      swap1\n      0x00\n      mstore\n      keccak256(0x00, 0x20)\n      swap1\n      0x08\n      mul\n      add\n        /* \"contracts/Crowdfunding.sol\":1075:1107  campaigns[campaignId].totalFunds */\n      0x04\n      add\n      0x00\n        /* \"contracts/Crowdfunding.sol\":1075:1120  campaigns[campaignId].totalFunds += msg.value */\n      dup3\n      dup3\n      sload\n      tag_93\n      swap2\n      swap1\n      tag_80\n      jump\t// in\n    tag_93:\n      swap3\n      pop\n      pop\n      dup2\n      swap1\n      sstore\n      pop\n        /* \"contracts/Crowdfunding.sol\":1261:1270  campaigns */\n      0x00\n        /* \"contracts/Crowdfunding.sol\":1271:1281  campaignId */\n      dup2\n        /* \"contracts/Crowdfunding.sol\":1261:1282  campaigns[campaignId] */\n      dup2\n      sload\n      dup2\n      lt\n      tag_94\n      jumpi\n      tag_95\n      tag_31\n      jump\t// in\n    tag_95:\n    tag_94:\n      swap1\n      0x00\n      mstore\n      keccak256(0x00, 0x20)\n      swap1\n      0x08\n      mul\n      add\n        /* \"contracts/Crowdfunding.sol\":1261:1287  campaigns[campaignId].goal */\n      0x03\n      add\n      sload\n        /* \"contracts/Crowdfunding.sol\":1225:1234  campaigns */\n      0x00\n        /* \"contracts/Crowdfunding.sol\":1235:1245  campaignId */\n      dup3\n        /* \"contracts/Crowdfunding.sol\":1225:1246  campaigns[campaignId] */\n      dup2\n      sload\n      dup2\n      lt\n      tag_97\n      jumpi\n      tag_98\n      tag_31\n      jump\t// in\n    tag_98:\n    tag_97:\n      swap1\n      0x00\n      mstore\n      keccak256(0x00, 0x20)\n      swap1\n      0x08\n      mul\n      add\n        /* \"contracts/Crowdfunding.sol\":1225:1257  campaigns[campaignId].totalFunds */\n      0x04\n      add\n      sload\n        /* \"contracts/Crowdfunding.sol\":1225:1287  campaigns[campaignId].totalFunds >= campaigns[campaignId].goal */\n      lt\n      iszero\n        /* \"contracts/Crowdfunding.sol\":1225:1338  campaigns[campaignId].totalFunds >= campaigns[campaignId].goal &&... */\n      dup1\n      iszero\n      tag_100\n      jumpi\n      pop\n        /* \"contracts/Crowdfunding.sol\":1305:1314  campaigns */\n      0x00\n        /* \"contracts/Crowdfunding.sol\":1315:1325  campaignId */\n      dup2\n        /* \"contracts/Crowdfunding.sol\":1305:1326  campaigns[campaignId] */\n      dup2\n      sload\n      dup2\n      lt\n      tag_101\n      jumpi\n      tag_102\n      tag_31\n      jump\t// in\n    tag_102:\n    tag_101:\n      swap1\n      0x00\n      mstore\n      keccak256(0x00, 0x20)\n      swap1\n      0x08\n      mul\n      add\n        /* \"contracts/Crowdfunding.sol\":1305:1338  campaigns[campaignId].goalReached */\n      0x06\n      add\n      0x00\n      swap1\n      sload\n      swap1\n      0x0100\n      exp\n      swap1\n      div\n      0xff\n      and\n        /* \"contracts/Crowdfunding.sol\":1304:1338  !campaigns[campaignId].goalReached */\n      iszero\n        /* \"contracts/Crowdfunding.sol\":1225:1338  campaigns[campaignId].totalFunds >= campaigns[campaignId].goal &&... */\n    tag_100:\n        /* \"contracts/Crowdfunding.sol\":1207:1459  if (... */\n      iszero\n      tag_104\n      jumpi\n        /* \"contracts/Crowdfunding.sol\":1401:1405  true */\n      0x01\n        /* \"contracts/Crowdfunding.sol\":1365:1374  campaigns */\n      0x00\n        /* \"contracts/Crowdfunding.sol\":1375:1385  campaignId */\n      dup3\n        /* \"contracts/Crowdfunding.sol\":1365:1386  campaigns[campaignId] */\n      dup2\n      sload\n      dup2\n      lt\n      tag_105\n      jumpi\n      tag_106\n      tag_31\n      jump\t// in\n    tag_106:\n    tag_105:\n      swap1\n      0x00\n      mstore\n      keccak256(0x00, 0x20)\n      swap1\n      0x08\n      mul\n      add\n        /* \"contracts/Crowdfunding.sol\":1365:1398  campaigns[campaignId].goalReached */\n      0x06\n      add\n      0x00\n        /* \"contracts/Crowdfunding.sol\":1365:1405  campaigns[campaignId].goalReached = true */\n      0x0100\n      exp\n      dup2\n      sload\n      dup2\n      0xff\n      mul\n      not\n      and\n      swap1\n      dup4\n      iszero\n      iszero\n      mul\n      or\n      swap1\n      sstore\n      pop\n        /* \"contracts/Crowdfunding.sol\":1207:1459  if (... */\n    tag_104:\n        /* \"contracts/Crowdfunding.sol\":945:1506  function contribute(uint256 campaignId) public payable {... */\n      pop\n      jump\t// out\n        /* \"#utility.yul\":7:82   */\n    tag_108:\n        /* \"#utility.yul\":40:46   */\n      0x00\n        /* \"#utility.yul\":73:75   */\n      0x40\n        /* \"#utility.yul\":67:76   */\n      mload\n        /* \"#utility.yul\":57:76   */\n      swap1\n      pop\n        /* \"#utility.yul\":7:82   */\n      swap1\n      jump\t// out\n        /* \"#utility.yul\":88:205   */\n    tag_109:\n        /* \"#utility.yul\":197:198   */\n      0x00\n        /* \"#utility.yul\":194:195   */\n      dup1\n        /* \"#utility.yul\":187:199   */\n      revert\n        /* \"#utility.yul\":211:328   */\n    tag_110:\n        /* \"#utility.yul\":320:321   */\n      0x00\n        /* \"#utility.yul\":317:318   */\n      dup1\n        /* \"#utility.yul\":310:322   */\n      revert\n        /* \"#utility.yul\":334:411   */\n    tag_111:\n        /* \"#utility.yul\":371:378   */\n      0x00\n        /* \"#utility.yul\":400:405   */\n      dup2\n        /* \"#utility.yul\":389:405   */\n      swap1\n      pop\n        /* \"#utility.yul\":334:411   */\n      swap2\n      swap1\n      pop\n      jump\t// out\n        /* \"#utility.yul\":417:539   */\n    tag_112:\n        /* \"#utility.yul\":490:514   */\n      tag_163\n        /* \"#utility.yul\":508:513   */\n      dup2\n        /* \"#utility.yul\":490:514   */\n      tag_111\n      jump\t// in\n    tag_163:\n        /* \"#utility.yul\":483:488   */\n      dup2\n        /* \"#utility.yul\":480:515   */\n      eq\n        /* \"#utility.yul\":470:533   */\n      tag_164\n      jumpi\n        /* \"#utility.yul\":529:530   */\n      0x00\n        /* \"#utility.yul\":526:527   */\n      dup1\n        /* \"#utility.yul\":519:531   */\n      revert\n        /* \"#utility.yul\":470:533   */\n    tag_164:\n        /* \"#utility.yul\":417:539   */\n      pop\n      jump\t// out\n        /* \"#utility.yul\":545:684   */\n    tag_113:\n        /* \"#utility.yul\":591:596   */\n      0x00\n        /* \"#utility.yul\":629:635   */\n      dup2\n        /* \"#utility.yul\":616:636   */\n      calldataload\n        /* \"#utility.yul\":607:636   */\n      swap1\n      pop\n        /* \"#utility.yul\":645:678   */\n      tag_166\n        /* \"#utility.yul\":672:677   */\n      dup2\n        /* \"#utility.yul\":645:678   */\n      tag_112\n      jump\t// in\n    tag_166:\n        /* \"#utility.yul\":545:684   */\n      swap3\n      swap2\n      pop\n      pop\n      jump\t// out\n        /* \"#utility.yul\":690:1019   */\n    tag_9:\n        /* \"#utility.yul\":749:755   */\n      0x00\n        /* \"#utility.yul\":798:800   */\n      0x20\n        /* \"#utility.yul\":786:795   */\n      dup3\n        /* \"#utility.yul\":777:784   */\n      dup5\n        /* \"#utility.yul\":773:796   */\n      sub\n        /* \"#utility.yul\":769:801   */\n      slt\n        /* \"#utility.yul\":766:885   */\n      iszero\n      tag_168\n      jumpi\n        /* \"#utility.yul\":804:883   */\n      tag_169\n      tag_109\n      jump\t// in\n    tag_169:\n        /* \"#utility.yul\":766:885   */\n    tag_168:\n        /* \"#utility.yul\":924:925   */\n      0x00\n        /* \"#utility.yul\":949:1002   */\n      tag_170\n        /* \"#utility.yul\":994:1001   */\n      dup5\n        /* \"#utility.yul\":985:991   */\n      dup3\n        /* \"#utility.yul\":974:983   */\n      dup6\n        /* \"#utility.yul\":970:992   */\n      add\n        /* \"#utility.yul\":949:1002   */\n      tag_113\n      jump\t// in\n    tag_170:\n        /* \"#utility.yul\":939:1002   */\n      swap2\n      pop\n        /* \"#utility.yul\":895:1012   */\n      pop\n        /* \"#utility.yul\":690:1019   */\n      swap3\n      swap2\n      pop\n      pop\n      jump\t// out\n        /* \"#utility.yul\":1025:1151   */\n    tag_114:\n        /* \"#utility.yul\":1062:1069   */\n      0x00\n        /* \"#utility.yul\":1102:1144   */\n      0xffffffffffffffffffffffffffffffffffffffff\n        /* \"#utility.yul\":1095:1100   */\n      dup3\n        /* \"#utility.yul\":1091:1145   */\n      and\n        /* \"#utility.yul\":1080:1145   */\n      swap1\n      pop\n        /* \"#utility.yul\":1025:1151   */\n      swap2\n      swap1\n      pop\n      jump\t// out\n        /* \"#utility.yul\":1157:1261   */\n    tag_115:\n        /* \"#utility.yul\":1202:1209   */\n      0x00\n        /* \"#utility.yul\":1231:1255   */\n      tag_173\n        /* \"#utility.yul\":1249:1254   */\n      dup3\n        /* \"#utility.yul\":1231:1255   */\n      tag_114\n      jump\t// in\n    tag_173:\n        /* \"#utility.yul\":1220:1255   */\n      swap1\n      pop\n        /* \"#utility.yul\":1157:1261   */\n      swap2\n      swap1\n      pop\n      jump\t// out\n        /* \"#utility.yul\":1267:1409   */\n    tag_116:\n        /* \"#utility.yul\":1370:1402   */\n      tag_175\n        /* \"#utility.yul\":1396:1401   */\n      dup2\n        /* \"#utility.yul\":1370:1402   */\n      tag_115\n      jump\t// in\n    tag_175:\n        /* \"#utility.yul\":1365:1368   */\n      dup3\n        /* \"#utility.yul\":1358:1403   */\n      mstore\n        /* \"#utility.yul\":1267:1409   */\n      pop\n      pop\n      jump\t// out\n        /* \"#utility.yul\":1415:1514   */\n    tag_117:\n        /* \"#utility.yul\":1467:1473   */\n      0x00\n        /* \"#utility.yul\":1501:1506   */\n      dup2\n        /* \"#utility.yul\":1495:1507   */\n      mload\n        /* \"#utility.yul\":1485:1507   */\n      swap1\n      pop\n        /* \"#utility.yul\":1415:1514   */\n      swap2\n      swap1\n      pop\n      jump\t// out\n        /* \"#utility.yul\":1520:1689   */\n    tag_118:\n        /* \"#utility.yul\":1604:1615   */\n      0x00\n        /* \"#utility.yul\":1638:1644   */\n      dup3\n        /* \"#utility.yul\":1633:1636   */\n      dup3\n        /* \"#utility.yul\":1626:1645   */\n      mstore\n        /* \"#utility.yul\":1678:1682   */\n      0x20\n        /* \"#utility.yul\":1673:1676   */\n      dup3\n        /* \"#utility.yul\":1669:1683   */\n      add\n        /* \"#utility.yul\":1654:1683   */\n      swap1\n      pop\n        /* \"#utility.yul\":1520:1689   */\n      swap3\n      swap2\n      pop\n      pop\n      jump\t// out\n        /* \"#utility.yul\":1695:1834   */\n    tag_119:\n        /* \"#utility.yul\":1784:1790   */\n      dup3\n        /* \"#utility.yul\":1779:1782   */\n      dup2\n        /* \"#utility.yul\":1774:1777   */\n      dup4\n        /* \"#utility.yul\":1768:1791   */\n      mcopy\n        /* \"#utility.yul\":1825:1826   */\n      0x00\n        /* \"#utility.yul\":1816:1822   */\n      dup4\n        /* \"#utility.yul\":1811:1814   */\n      dup4\n        /* \"#utility.yul\":1807:1823   */\n      add\n        /* \"#utility.yul\":1800:1827   */\n      mstore\n        /* \"#utility.yul\":1695:1834   */\n      pop\n      pop\n      pop\n      jump\t// out\n        /* \"#utility.yul\":1840:1942   */\n    tag_120:\n        /* \"#utility.yul\":1881:1887   */\n      0x00\n        /* \"#utility.yul\":1932:1934   */\n      0x1f\n        /* \"#utility.yul\":1928:1935   */\n      not\n        /* \"#utility.yul\":1923:1925   */\n      0x1f\n        /* \"#utility.yul\":1916:1921   */\n      dup4\n        /* \"#utility.yul\":1912:1926   */\n      add\n        /* \"#utility.yul\":1908:1936   */\n      and\n        /* \"#utility.yul\":1898:1936   */\n      swap1\n      pop\n        /* \"#utility.yul\":1840:1942   */\n      swap2\n      swap1\n      pop\n      jump\t// out\n        /* \"#utility.yul\":1948:2325   */\n    tag_121:\n        /* \"#utility.yul\":2036:2039   */\n      0x00\n        /* \"#utility.yul\":2064:2103   */\n      tag_181\n        /* \"#utility.yul\":2097:2102   */\n      dup3\n        /* \"#utility.yul\":2064:2103   */\n      tag_117\n      jump\t// in\n    tag_181:\n        /* \"#utility.yul\":2119:2190   */\n      tag_182\n        /* \"#utility.yul\":2183:2189   */\n      dup2\n        /* \"#utility.yul\":2178:2181   */\n      dup6\n        /* \"#utility.yul\":2119:2190   */\n      tag_118\n      jump\t// in\n    tag_182:\n        /* \"#utility.yul\":2112:2190   */\n      swap4\n      pop\n        /* \"#utility.yul\":2199:2264   */\n      tag_183\n        /* \"#utility.yul\":2257:2263   */\n      dup2\n        /* \"#utility.yul\":2252:2255   */\n      dup6\n        /* \"#utility.yul\":2245:2249   */\n      0x20\n        /* \"#utility.yul\":2238:2243   */\n      dup7\n        /* \"#utility.yul\":2234:2250   */\n      add\n        /* \"#utility.yul\":2199:2264   */\n      tag_119\n      jump\t// in\n    tag_183:\n        /* \"#utility.yul\":2289:2318   */\n      tag_184\n        /* \"#utility.yul\":2311:2317   */\n      dup2\n        /* \"#utility.yul\":2289:2318   */\n      tag_120\n      jump\t// in\n    tag_184:\n        /* \"#utility.yul\":2284:2287   */\n      dup5\n        /* \"#utility.yul\":2280:2319   */\n      add\n        /* \"#utility.yul\":2273:2319   */\n      swap2\n      pop\n        /* \"#utility.yul\":2040:2325   */\n      pop\n        /* \"#utility.yul\":1948:2325   */\n      swap3\n      swap2\n      pop\n      pop\n      jump\t// out\n        /* \"#utility.yul\":2331:2449   */\n    tag_122:\n        /* \"#utility.yul\":2418:2442   */\n      tag_186\n        /* \"#utility.yul\":2436:2441   */\n      dup2\n        /* \"#utility.yul\":2418:2442   */\n      tag_111\n      jump\t// in\n    tag_186:\n        /* \"#utility.yul\":2413:2416   */\n      dup3\n        /* \"#utility.yul\":2406:2443   */\n      mstore\n        /* \"#utility.yul\":2331:2449   */\n      pop\n      pop\n      jump\t// out\n        /* \"#utility.yul\":2455:2545   */\n    tag_123:\n        /* \"#utility.yul\":2489:2496   */\n      0x00\n        /* \"#utility.yul\":2532:2537   */\n      dup2\n        /* \"#utility.yul\":2525:2538   */\n      iszero\n        /* \"#utility.yul\":2518:2539   */\n      iszero\n        /* \"#utility.yul\":2507:2539   */\n      swap1\n      pop\n        /* \"#utility.yul\":2455:2545   */\n      swap2\n      swap1\n      pop\n      jump\t// out\n        /* \"#utility.yul\":2551:2660   */\n    tag_124:\n        /* \"#utility.yul\":2632:2653   */\n      tag_189\n        /* \"#utility.yul\":2647:2652   */\n      dup2\n        /* \"#utility.yul\":2632:2653   */\n      tag_123\n      jump\t// in\n    tag_189:\n        /* \"#utility.yul\":2627:2630   */\n      dup3\n        /* \"#utility.yul\":2620:2654   */\n      mstore\n        /* \"#utility.yul\":2551:2660   */\n      pop\n      pop\n      jump\t// out\n        /* \"#utility.yul\":2666:3754   */\n    tag_16:\n        /* \"#utility.yul\":2977:2981   */\n      0x00\n        /* \"#utility.yul\":3015:3018   */\n      0xe0\n        /* \"#utility.yul\":3004:3013   */\n      dup3\n        /* \"#utility.yul\":3000:3019   */\n      add\n        /* \"#utility.yul\":2992:3019   */\n      swap1\n      pop\n        /* \"#utility.yul\":3029:3116   */\n      tag_191\n        /* \"#utility.yul\":3113:3114   */\n      0x00\n        /* \"#utility.yul\":3102:3111   */\n      dup4\n        /* \"#utility.yul\":3098:3115   */\n      add\n        /* \"#utility.yul\":3089:3095   */\n      dup11\n        /* \"#utility.yul\":3029:3116   */\n      tag_116\n      jump\t// in\n    tag_191:\n        /* \"#utility.yul\":3163:3172   */\n      dup2\n        /* \"#utility.yul\":3157:3161   */\n      dup2\n        /* \"#utility.yul\":3153:3173   */\n      sub\n        /* \"#utility.yul\":3148:3150   */\n      0x20\n        /* \"#utility.yul\":3137:3146   */\n      dup4\n        /* \"#utility.yul\":3133:3151   */\n      add\n        /* \"#utility.yul\":3126:3174   */\n      mstore\n        /* \"#utility.yul\":3191:3269   */\n      tag_192\n        /* \"#utility.yul\":3264:3268   */\n      dup2\n        /* \"#utility.yul\":3255:3261   */\n      dup10\n        /* \"#utility.yul\":3191:3269   */\n      tag_121\n      jump\t// in\n    tag_192:\n        /* \"#utility.yul\":3183:3269   */\n      swap1\n      pop\n        /* \"#utility.yul\":3316:3325   */\n      dup2\n        /* \"#utility.yul\":3310:3314   */\n      dup2\n        /* \"#utility.yul\":3306:3326   */\n      sub\n        /* \"#utility.yul\":3301:3303   */\n      0x40\n        /* \"#utility.yul\":3290:3299   */\n      dup4\n        /* \"#utility.yul\":3286:3304   */\n      add\n        /* \"#utility.yul\":3279:3327   */\n      mstore\n        /* \"#utility.yul\":3344:3422   */\n      tag_193\n        /* \"#utility.yul\":3417:3421   */\n      dup2\n        /* \"#utility.yul\":3408:3414   */\n      dup9\n        /* \"#utility.yul\":3344:3422   */\n      tag_121\n      jump\t// in\n    tag_193:\n        /* \"#utility.yul\":3336:3422   */\n      swap1\n      pop\n        /* \"#utility.yul\":3432:3504   */\n      tag_194\n        /* \"#utility.yul\":3500:3502   */\n      0x60\n        /* \"#utility.yul\":3489:3498   */\n      dup4\n        /* \"#utility.yul\":3485:3503   */\n      add\n        /* \"#utility.yul\":3476:3482   */\n      dup8\n        /* \"#utility.yul\":3432:3504   */\n      tag_122\n      jump\t// in\n    tag_194:\n        /* \"#utility.yul\":3514:3587   */\n      tag_195\n        /* \"#utility.yul\":3582:3585   */\n      0x80\n        /* \"#utility.yul\":3571:3580   */\n      dup4\n        /* \"#utility.yul\":3567:3586   */\n      add\n        /* \"#utility.yul\":3558:3564   */\n      dup7\n        /* \"#utility.yul\":3514:3587   */\n      tag_122\n      jump\t// in\n    tag_195:\n        /* \"#utility.yul\":3597:3670   */\n      tag_196\n        /* \"#utility.yul\":3665:3668   */\n      0xa0\n        /* \"#utility.yul\":3654:3663   */\n      dup4\n        /* \"#utility.yul\":3650:3669   */\n      add\n        /* \"#utility.yul\":3641:3647   */\n      dup6\n        /* \"#utility.yul\":3597:3670   */\n      tag_122\n      jump\t// in\n    tag_196:\n        /* \"#utility.yul\":3680:3747   */\n      tag_197\n        /* \"#utility.yul\":3742:3745   */\n      0xc0\n        /* \"#utility.yul\":3731:3740   */\n      dup4\n        /* \"#utility.yul\":3727:3746   */\n      add\n        /* \"#utility.yul\":3718:3724   */\n      dup5\n        /* \"#utility.yul\":3680:3747   */\n      tag_124\n      jump\t// in\n    tag_197:\n        /* \"#utility.yul\":2666:3754   */\n      swap9\n      swap8\n      pop\n      pop\n      pop\n      pop\n      pop\n      pop\n      pop\n      pop\n      jump\t// out\n        /* \"#utility.yul\":3760:3877   */\n    tag_125:\n        /* \"#utility.yul\":3869:3870   */\n      0x00\n        /* \"#utility.yul\":3866:3867   */\n      dup1\n        /* \"#utility.yul\":3859:3871   */\n      revert\n        /* \"#utility.yul\":3883:4000   */\n    tag_126:\n        /* \"#utility.yul\":3992:3993   */\n      0x00\n        /* \"#utility.yul\":3989:3990   */\n      dup1\n        /* \"#utility.yul\":3982:3994   */\n      revert\n        /* \"#utility.yul\":4006:4186   */\n    tag_127:\n        /* \"#utility.yul\":4054:4131   */\n      0x4e487b7100000000000000000000000000000000000000000000000000000000\n        /* \"#utility.yul\":4051:4052   */\n      0x00\n        /* \"#utility.yul\":4044:4132   */\n      mstore\n        /* \"#utility.yul\":4151:4155   */\n      0x41\n        /* \"#utility.yul\":4148:4149   */\n      0x04\n        /* \"#utility.yul\":4141:4156   */\n      mstore\n        /* \"#utility.yul\":4175:4179   */\n      0x24\n        /* \"#utility.yul\":4172:4173   */\n      0x00\n        /* \"#utility.yul\":4165:4180   */\n      revert\n        /* \"#utility.yul\":4192:4473   */\n    tag_128:\n        /* \"#utility.yul\":4275:4302   */\n      tag_202\n        /* \"#utility.yul\":4297:4301   */\n      dup3\n        /* \"#utility.yul\":4275:4302   */\n      tag_120\n      jump\t// in\n    tag_202:\n        /* \"#utility.yul\":4267:4273   */\n      dup2\n        /* \"#utility.yul\":4263:4303   */\n      add\n        /* \"#utility.yul\":4405:4411   */\n      dup2\n        /* \"#utility.yul\":4393:4403   */\n      dup2\n        /* \"#utility.yul\":4390:4412   */\n      lt\n        /* \"#utility.yul\":4369:4387   */\n      0xffffffffffffffff\n        /* \"#utility.yul\":4357:4367   */\n      dup3\n        /* \"#utility.yul\":4354:4388   */\n      gt\n        /* \"#utility.yul\":4351:4413   */\n      or\n        /* \"#utility.yul\":4348:4436   */\n      iszero\n      tag_203\n      jumpi\n        /* \"#utility.yul\":4416:4434   */\n      tag_204\n      tag_127\n      jump\t// in\n    tag_204:\n        /* \"#utility.yul\":4348:4436   */\n    tag_203:\n        /* \"#utility.yul\":4456:4466   */\n      dup1\n        /* \"#utility.yul\":4452:4454   */\n      0x40\n        /* \"#utility.yul\":4445:4467   */\n      mstore\n        /* \"#utility.yul\":4235:4473   */\n      pop\n        /* \"#utility.yul\":4192:4473   */\n      pop\n      pop\n      jump\t// out\n        /* \"#utility.yul\":4479:4608   */\n    tag_129:\n        /* \"#utility.yul\":4513:4519   */\n      0x00\n        /* \"#utility.yul\":4540:4560   */\n      tag_206\n      tag_108\n      jump\t// in\n    tag_206:\n        /* \"#utility.yul\":4530:4560   */\n      swap1\n      pop\n        /* \"#utility.yul\":4569:4602   */\n      tag_207\n        /* \"#utility.yul\":4597:4601   */\n      dup3\n        /* \"#utility.yul\":4589:4595   */\n      dup3\n        /* \"#utility.yul\":4569:4602   */\n      tag_128\n      jump\t// in\n    tag_207:\n        /* \"#utility.yul\":4479:4608   */\n      swap2\n      swap1\n      pop\n      jump\t// out\n        /* \"#utility.yul\":4614:4922   */\n    tag_130:\n        /* \"#utility.yul\":4676:4680   */\n      0x00\n        /* \"#utility.yul\":4766:4784   */\n      0xffffffffffffffff\n        /* \"#utility.yul\":4758:4764   */\n      dup3\n        /* \"#utility.yul\":4755:4785   */\n      gt\n        /* \"#utility.yul\":4752:4808   */\n      iszero\n      tag_209\n      jumpi\n        /* \"#utility.yul\":4788:4806   */\n      tag_210\n      tag_127\n      jump\t// in\n    tag_210:\n        /* \"#utility.yul\":4752:4808   */\n    tag_209:\n        /* \"#utility.yul\":4826:4855   */\n      tag_211\n        /* \"#utility.yul\":4848:4854   */\n      dup3\n        /* \"#utility.yul\":4826:4855   */\n      tag_120\n      jump\t// in\n    tag_211:\n        /* \"#utility.yul\":4818:4855   */\n      swap1\n      pop\n        /* \"#utility.yul\":4910:4914   */\n      0x20\n        /* \"#utility.yul\":4904:4908   */\n      dup2\n        /* \"#utility.yul\":4900:4915   */\n      add\n        /* \"#utility.yul\":4892:4915   */\n      swap1\n      pop\n        /* \"#utility.yul\":4614:4922   */\n      swap2\n      swap1\n      pop\n      jump\t// out\n        /* \"#utility.yul\":4928:5076   */\n    tag_131:\n        /* \"#utility.yul\":5026:5032   */\n      dup3\n        /* \"#utility.yul\":5021:5024   */\n      dup2\n        /* \"#utility.yul\":5016:5019   */\n      dup4\n        /* \"#utility.yul\":5003:5033   */\n      calldatacopy\n        /* \"#utility.yul\":5067:5068   */\n      0x00\n        /* \"#utility.yul\":5058:5064   */\n      dup4\n        /* \"#utility.yul\":5053:5056   */\n      dup4\n        /* \"#utility.yul\":5049:5065   */\n      add\n        /* \"#utility.yul\":5042:5069   */\n      mstore\n        /* \"#utility.yul\":4928:5076   */\n      pop\n      pop\n      pop\n      jump\t// out\n        /* \"#utility.yul\":5082:5507   */\n    tag_132:\n        /* \"#utility.yul\":5160:5165   */\n      0x00\n        /* \"#utility.yul\":5185:5251   */\n      tag_214\n        /* \"#utility.yul\":5201:5250   */\n      tag_215\n        /* \"#utility.yul\":5243:5249   */\n      dup5\n        /* \"#utility.yul\":5201:5250   */\n      tag_130\n      jump\t// in\n    tag_215:\n        /* \"#utility.yul\":5185:5251   */\n      tag_129\n      jump\t// in\n    tag_214:\n        /* \"#utility.yul\":5176:5251   */\n      swap1\n      pop\n        /* \"#utility.yul\":5274:5280   */\n      dup3\n        /* \"#utility.yul\":5267:5272   */\n      dup2\n        /* \"#utility.yul\":5260:5281   */\n      mstore\n        /* \"#utility.yul\":5312:5316   */\n      0x20\n        /* \"#utility.yul\":5305:5310   */\n      dup2\n        /* \"#utility.yul\":5301:5317   */\n      add\n        /* \"#utility.yul\":5350:5353   */\n      dup5\n        /* \"#utility.yul\":5341:5347   */\n      dup5\n        /* \"#utility.yul\":5336:5339   */\n      dup5\n        /* \"#utility.yul\":5332:5348   */\n      add\n        /* \"#utility.yul\":5329:5354   */\n      gt\n        /* \"#utility.yul\":5326:5438   */\n      iszero\n      tag_216\n      jumpi\n        /* \"#utility.yul\":5357:5436   */\n      tag_217\n      tag_126\n      jump\t// in\n    tag_217:\n        /* \"#utility.yul\":5326:5438   */\n    tag_216:\n        /* \"#utility.yul\":5447:5501   */\n      tag_218\n        /* \"#utility.yul\":5494:5500   */\n      dup5\n        /* \"#utility.yul\":5489:5492   */\n      dup3\n        /* \"#utility.yul\":5484:5487   */\n      dup6\n        /* \"#utility.yul\":5447:5501   */\n      tag_131\n      jump\t// in\n    tag_218:\n        /* \"#utility.yul\":5166:5507   */\n      pop\n        /* \"#utility.yul\":5082:5507   */\n      swap4\n      swap3\n      pop\n      pop\n      pop\n      jump\t// out\n        /* \"#utility.yul\":5527:5867   */\n    tag_133:\n        /* \"#utility.yul\":5583:5588   */\n      0x00\n        /* \"#utility.yul\":5632:5635   */\n      dup3\n        /* \"#utility.yul\":5625:5629   */\n      0x1f\n        /* \"#utility.yul\":5617:5623   */\n      dup4\n        /* \"#utility.yul\":5613:5630   */\n      add\n        /* \"#utility.yul\":5609:5636   */\n      slt\n        /* \"#utility.yul\":5599:5721   */\n      tag_220\n      jumpi\n        /* \"#utility.yul\":5640:5719   */\n      tag_221\n      tag_125\n      jump\t// in\n    tag_221:\n        /* \"#utility.yul\":5599:5721   */\n    tag_220:\n        /* \"#utility.yul\":5757:5763   */\n      dup2\n        /* \"#utility.yul\":5744:5764   */\n      calldataload\n        /* \"#utility.yul\":5782:5861   */\n      tag_222\n        /* \"#utility.yul\":5857:5860   */\n      dup5\n        /* \"#utility.yul\":5849:5855   */\n      dup3\n        /* \"#utility.yul\":5842:5846   */\n      0x20\n        /* \"#utility.yul\":5834:5840   */\n      dup7\n        /* \"#utility.yul\":5830:5847   */\n      add\n        /* \"#utility.yul\":5782:5861   */\n      tag_132\n      jump\t// in\n    tag_222:\n        /* \"#utility.yul\":5773:5861   */\n      swap2\n      pop\n        /* \"#utility.yul\":5589:5867   */\n      pop\n        /* \"#utility.yul\":5527:5867   */\n      swap3\n      swap2\n      pop\n      pop\n      jump\t// out\n        /* \"#utility.yul\":5873:6998   */\n    tag_23:\n        /* \"#utility.yul\":5979:5985   */\n      0x00\n        /* \"#utility.yul\":5987:5993   */\n      dup1\n        /* \"#utility.yul\":5995:6001   */\n      0x00\n        /* \"#utility.yul\":6003:6009   */\n      dup1\n        /* \"#utility.yul\":6052:6055   */\n      0x80\n        /* \"#utility.yul\":6040:6049   */\n      dup6\n        /* \"#utility.yul\":6031:6038   */\n      dup8\n        /* \"#utility.yul\":6027:6050   */\n      sub\n        /* \"#utility.yul\":6023:6056   */\n      slt\n        /* \"#utility.yul\":6020:6140   */\n      iszero\n      tag_224\n      jumpi\n        /* \"#utility.yul\":6059:6138   */\n      tag_225\n      tag_109\n      jump\t// in\n    tag_225:\n        /* \"#utility.yul\":6020:6140   */\n    tag_224:\n        /* \"#utility.yul\":6207:6208   */\n      0x00\n        /* \"#utility.yul\":6196:6205   */\n      dup6\n        /* \"#utility.yul\":6192:6209   */\n      add\n        /* \"#utility.yul\":6179:6210   */\n      calldataload\n        /* \"#utility.yul\":6237:6255   */\n      0xffffffffffffffff\n        /* \"#utility.yul\":6229:6235   */\n      dup2\n        /* \"#utility.yul\":6226:6256   */\n      gt\n        /* \"#utility.yul\":6223:6340   */\n      iszero\n      tag_226\n      jumpi\n        /* \"#utility.yul\":6259:6338   */\n      tag_227\n      tag_110\n      jump\t// in\n    tag_227:\n        /* \"#utility.yul\":6223:6340   */\n    tag_226:\n        /* \"#utility.yul\":6364:6427   */\n      tag_228\n        /* \"#utility.yul\":6419:6426   */\n      dup8\n        /* \"#utility.yul\":6410:6416   */\n      dup3\n        /* \"#utility.yul\":6399:6408   */\n      dup9\n        /* \"#utility.yul\":6395:6417   */\n      add\n        /* \"#utility.yul\":6364:6427   */\n      tag_133\n      jump\t// in\n    tag_228:\n        /* \"#utility.yul\":6354:6427   */\n      swap5\n      pop\n        /* \"#utility.yul\":6150:6437   */\n      pop\n        /* \"#utility.yul\":6504:6506   */\n      0x20\n        /* \"#utility.yul\":6493:6502   */\n      dup6\n        /* \"#utility.yul\":6489:6507   */\n      add\n        /* \"#utility.yul\":6476:6508   */\n      calldataload\n        /* \"#utility.yul\":6535:6553   */\n      0xffffffffffffffff\n        /* \"#utility.yul\":6527:6533   */\n      dup2\n        /* \"#utility.yul\":6524:6554   */\n      gt\n        /* \"#utility.yul\":6521:6638   */\n      iszero\n      tag_229\n      jumpi\n        /* \"#utility.yul\":6557:6636   */\n      tag_230\n      tag_110\n      jump\t// in\n    tag_230:\n        /* \"#utility.yul\":6521:6638   */\n    tag_229:\n        /* \"#utility.yul\":6662:6725   */\n      tag_231\n        /* \"#utility.yul\":6717:6724   */\n      dup8\n        /* \"#utility.yul\":6708:6714   */\n      dup3\n        /* \"#utility.yul\":6697:6706   */\n      dup9\n        /* \"#utility.yul\":6693:6715   */\n      add\n        /* \"#utility.yul\":6662:6725   */\n      tag_133\n      jump\t// in\n    tag_231:\n        /* \"#utility.yul\":6652:6725   */\n      swap4\n      pop\n        /* \"#utility.yul\":6447:6735   */\n      pop\n        /* \"#utility.yul\":6774:6776   */\n      0x40\n        /* \"#utility.yul\":6800:6853   */\n      tag_232\n        /* \"#utility.yul\":6845:6852   */\n      dup8\n        /* \"#utility.yul\":6836:6842   */\n      dup3\n        /* \"#utility.yul\":6825:6834   */\n      dup9\n        /* \"#utility.yul\":6821:6843   */\n      add\n        /* \"#utility.yul\":6800:6853   */\n      tag_113\n      jump\t// in\n    tag_232:\n        /* \"#utility.yul\":6790:6853   */\n      swap3\n      pop\n        /* \"#utility.yul\":6745:6863   */\n      pop\n        /* \"#utility.yul\":6902:6904   */\n      0x60\n        /* \"#utility.yul\":6928:6981   */\n      tag_233\n        /* \"#utility.yul\":6973:6980   */\n      dup8\n        /* \"#utility.yul\":6964:6970   */\n      dup3\n        /* \"#utility.yul\":6953:6962   */\n      dup9\n        /* \"#utility.yul\":6949:6971   */\n      add\n        /* \"#utility.yul\":6928:6981   */\n      tag_113\n      jump\t// in\n    tag_233:\n        /* \"#utility.yul\":6918:6981   */\n      swap2\n      pop\n        /* \"#utility.yul\":6873:6991   */\n      pop\n        /* \"#utility.yul\":5873:6998   */\n      swap3\n      swap6\n      swap2\n      swap5\n      pop\n      swap3\n      pop\n      jump\t// out\n        /* \"#utility.yul\":7004:7184   */\n    tag_31:\n        /* \"#utility.yul\":7052:7129   */\n      0x4e487b7100000000000000000000000000000000000000000000000000000000\n        /* \"#utility.yul\":7049:7050   */\n      0x00\n        /* \"#utility.yul\":7042:7130   */\n      mstore\n        /* \"#utility.yul\":7149:7153   */\n      0x32\n        /* \"#utility.yul\":7146:7147   */\n      0x04\n        /* \"#utility.yul\":7139:7154   */\n      mstore\n        /* \"#utility.yul\":7173:7177   */\n      0x24\n        /* \"#utility.yul\":7170:7171   */\n      0x00\n        /* \"#utility.yul\":7163:7178   */\n      revert\n        /* \"#utility.yul\":7190:7358   */\n    tag_134:\n        /* \"#utility.yul\":7330:7350   */\n      0x43616d706169676e206e6f7420656e6465640000000000000000000000000000\n        /* \"#utility.yul\":7326:7327   */\n      0x00\n        /* \"#utility.yul\":7318:7324   */\n      dup3\n        /* \"#utility.yul\":7314:7328   */\n      add\n        /* \"#utility.yul\":7307:7351   */\n      mstore\n        /* \"#utility.yul\":7190:7358   */\n      pop\n      jump\t// out\n        /* \"#utility.yul\":7364:7730   */\n    tag_135:\n        /* \"#utility.yul\":7506:7509   */\n      0x00\n        /* \"#utility.yul\":7527:7594   */\n      tag_237\n        /* \"#utility.yul\":7591:7593   */\n      0x12\n        /* \"#utility.yul\":7586:7589   */\n      dup4\n        /* \"#utility.yul\":7527:7594   */\n      tag_118\n      jump\t// in\n    tag_237:\n        /* \"#utility.yul\":7520:7594   */\n      swap2\n      pop\n        /* \"#utility.yul\":7603:7696   */\n      tag_238\n        /* \"#utility.yul\":7692:7695   */\n      dup3\n        /* \"#utility.yul\":7603:7696   */\n      tag_134\n      jump\t// in\n    tag_238:\n        /* \"#utility.yul\":7721:7723   */\n      0x20\n        /* \"#utility.yul\":7716:7719   */\n      dup3\n        /* \"#utility.yul\":7712:7724   */\n      add\n        /* \"#utility.yul\":7705:7724   */\n      swap1\n      pop\n        /* \"#utility.yul\":7364:7730   */\n      swap2\n      swap1\n      pop\n      jump\t// out\n        /* \"#utility.yul\":7736:8155   */\n    tag_35:\n        /* \"#utility.yul\":7902:7906   */\n      0x00\n        /* \"#utility.yul\":7940:7942   */\n      0x20\n        /* \"#utility.yul\":7929:7938   */\n      dup3\n        /* \"#utility.yul\":7925:7943   */\n      add\n        /* \"#utility.yul\":7917:7943   */\n      swap1\n      pop\n        /* \"#utility.yul\":7989:7998   */\n      dup2\n        /* \"#utility.yul\":7983:7987   */\n      dup2\n        /* \"#utility.yul\":7979:7999   */\n      sub\n        /* \"#utility.yul\":7975:7976   */\n      0x00\n        /* \"#utility.yul\":7964:7973   */\n      dup4\n        /* \"#utility.yul\":7960:7977   */\n      add\n        /* \"#utility.yul\":7953:8000   */\n      mstore\n        /* \"#utility.yul\":8017:8148   */\n      tag_240\n        /* \"#utility.yul\":8143:8147   */\n      dup2\n        /* \"#utility.yul\":8017:8148   */\n      tag_135\n      jump\t// in\n    tag_240:\n        /* \"#utility.yul\":8009:8148   */\n      swap1\n      pop\n        /* \"#utility.yul\":7736:8155   */\n      swap2\n      swap1\n      pop\n      jump\t// out\n        /* \"#utility.yul\":8161:8335   */\n    tag_136:\n        /* \"#utility.yul\":8301:8327   */\n      0x476f616c20726561636865642c206e6f20726566756e64730000000000000000\n        /* \"#utility.yul\":8297:8298   */\n      0x00\n        /* \"#utility.yul\":8289:8295   */\n      dup3\n        /* \"#utility.yul\":8285:8299   */\n      add\n        /* \"#utility.yul\":8278:8328   */\n      mstore\n        /* \"#utility.yul\":8161:8335   */\n      pop\n      jump\t// out\n        /* \"#utility.yul\":8341:8707   */\n    tag_137:\n        /* \"#utility.yul\":8483:8486   */\n      0x00\n        /* \"#utility.yul\":8504:8571   */\n      tag_243\n        /* \"#utility.yul\":8568:8570   */\n      0x18\n        /* \"#utility.yul\":8563:8566   */\n      dup4\n        /* \"#utility.yul\":8504:8571   */\n      tag_118\n      jump\t// in\n    tag_243:\n        /* \"#utility.yul\":8497:8571   */\n      swap2\n      pop\n        /* \"#utility.yul\":8580:8673   */\n      tag_244\n        /* \"#utility.yul\":8669:8672   */\n      dup3\n        /* \"#utility.yul\":8580:8673   */\n      tag_136\n      jump\t// in\n    tag_244:\n        /* \"#utility.yul\":8698:8700   */\n      0x20\n        /* \"#utility.yul\":8693:8696   */\n      dup3\n        /* \"#utility.yul\":8689:8701   */\n      add\n        /* \"#utility.yul\":8682:8701   */\n      swap1\n      pop\n        /* \"#utility.yul\":8341:8707   */\n      swap2\n      swap1\n      pop\n      jump\t// out\n        /* \"#utility.yul\":8713:9132   */\n    tag_41:\n        /* \"#utility.yul\":8879:8883   */\n      0x00\n        /* \"#utility.yul\":8917:8919   */\n      0x20\n        /* \"#utility.yul\":8906:8915   */\n      dup3\n        /* \"#utility.yul\":8902:8920   */\n      add\n        /* \"#utility.yul\":8894:8920   */\n      swap1\n      pop\n        /* \"#utility.yul\":8966:8975   */\n      dup2\n        /* \"#utility.yul\":8960:8964   */\n      dup2\n        /* \"#utility.yul\":8956:8976   */\n      sub\n        /* \"#utility.yul\":8952:8953   */\n      0x00\n        /* \"#utility.yul\":8941:8950   */\n      dup4\n        /* \"#utility.yul\":8937:8954   */\n      add\n        /* \"#utility.yul\":8930:8977   */\n      mstore\n        /* \"#utility.yul\":8994:9125   */\n      tag_246\n        /* \"#utility.yul\":9120:9124   */\n      dup2\n        /* \"#utility.yul\":8994:9125   */\n      tag_137\n      jump\t// in\n    tag_246:\n        /* \"#utility.yul\":8986:9125   */\n      swap1\n      pop\n        /* \"#utility.yul\":8713:9132   */\n      swap2\n      swap1\n      pop\n      jump\t// out\n        /* \"#utility.yul\":9138:9318   */\n    tag_138:\n        /* \"#utility.yul\":9186:9263   */\n      0x4e487b7100000000000000000000000000000000000000000000000000000000\n        /* \"#utility.yul\":9183:9184   */\n      0x00\n        /* \"#utility.yul\":9176:9264   */\n      mstore\n        /* \"#utility.yul\":9283:9287   */\n      0x22\n        /* \"#utility.yul\":9280:9281   */\n      0x04\n        /* \"#utility.yul\":9273:9288   */\n      mstore\n        /* \"#utility.yul\":9307:9311   */\n      0x24\n        /* \"#utility.yul\":9304:9305   */\n      0x00\n        /* \"#utility.yul\":9297:9312   */\n      revert\n        /* \"#utility.yul\":9324:9644   */\n    tag_50:\n        /* \"#utility.yul\":9368:9374   */\n      0x00\n        /* \"#utility.yul\":9405:9406   */\n      0x02\n        /* \"#utility.yul\":9399:9403   */\n      dup3\n        /* \"#utility.yul\":9395:9407   */\n      div\n        /* \"#utility.yul\":9385:9407   */\n      swap1\n      pop\n        /* \"#utility.yul\":9452:9453   */\n      0x01\n        /* \"#utility.yul\":9446:9450   */\n      dup3\n        /* \"#utility.yul\":9442:9454   */\n      and\n        /* \"#utility.yul\":9473:9491   */\n      dup1\n        /* \"#utility.yul\":9463:9544   */\n      tag_249\n      jumpi\n        /* \"#utility.yul\":9529:9533   */\n      0x7f\n        /* \"#utility.yul\":9521:9527   */\n      dup3\n        /* \"#utility.yul\":9517:9534   */\n      and\n        /* \"#utility.yul\":9507:9534   */\n      swap2\n      pop\n        /* \"#utility.yul\":9463:9544   */\n    tag_249:\n        /* \"#utility.yul\":9591:9593   */\n      0x20\n        /* \"#utility.yul\":9583:9589   */\n      dup3\n        /* \"#utility.yul\":9580:9594   */\n      lt\n        /* \"#utility.yul\":9560:9578   */\n      dup2\n        /* \"#utility.yul\":9557:9595   */\n      sub\n        /* \"#utility.yul\":9554:9638   */\n      tag_250\n      jumpi\n        /* \"#utility.yul\":9610:9628   */\n      tag_251\n      tag_138\n      jump\t// in\n    tag_251:\n        /* \"#utility.yul\":9554:9638   */\n    tag_250:\n        /* \"#utility.yul\":9375:9644   */\n      pop\n        /* \"#utility.yul\":9324:9644   */\n      swap2\n      swap1\n      pop\n      jump\t// out\n        /* \"#utility.yul\":9650:9821   */\n    tag_139:\n        /* \"#utility.yul\":9790:9813   */\n      0x476f616c206e6f74207265616368656420796574210000000000000000000000\n        /* \"#utility.yul\":9786:9787   */\n      0x00\n        /* \"#utility.yul\":9778:9784   */\n      dup3\n        /* \"#utility.yul\":9774:9788   */\n      add\n        /* \"#utility.yul\":9767:9814   */\n      mstore\n        /* \"#utility.yul\":9650:9821   */\n      pop\n      jump\t// out\n        /* \"#utility.yul\":9827:10193   */\n    tag_140:\n        /* \"#utility.yul\":9969:9972   */\n      0x00\n        /* \"#utility.yul\":9990:10057   */\n      tag_254\n        /* \"#utility.yul\":10054:10056   */\n      0x15\n        /* \"#utility.yul\":10049:10052   */\n      dup4\n        /* \"#utility.yul\":9990:10057   */\n      tag_118\n      jump\t// in\n    tag_254:\n        /* \"#utility.yul\":9983:10057   */\n      swap2\n      pop\n        /* \"#utility.yul\":10066:10159   */\n      tag_255\n        /* \"#utility.yul\":10155:10158   */\n      dup3\n        /* \"#utility.yul\":10066:10159   */\n      tag_139\n      jump\t// in\n    tag_255:\n        /* \"#utility.yul\":10184:10186   */\n      0x20\n        /* \"#utility.yul\":10179:10182   */\n      dup3\n        /* \"#utility.yul\":10175:10187   */\n      add\n        /* \"#utility.yul\":10168:10187   */\n      swap1\n      pop\n        /* \"#utility.yul\":9827:10193   */\n      swap2\n      swap1\n      pop\n      jump\t// out\n        /* \"#utility.yul\":10199:10618   */\n    tag_66:\n        /* \"#utility.yul\":10365:10369   */\n      0x00\n        /* \"#utility.yul\":10403:10405   */\n      0x20\n        /* \"#utility.yul\":10392:10401   */\n      dup3\n        /* \"#utility.yul\":10388:10406   */\n      add\n        /* \"#utility.yul\":10380:10406   */\n      swap1\n      pop\n        /* \"#utility.yul\":10452:10461   */\n      dup2\n        /* \"#utility.yul\":10446:10450   */\n      dup2\n        /* \"#utility.yul\":10442:10462   */\n      sub\n        /* \"#utility.yul\":10438:10439   */\n      0x00\n        /* \"#utility.yul\":10427:10436   */\n      dup4\n        /* \"#utility.yul\":10423:10440   */\n      add\n        /* \"#utility.yul\":10416:10463   */\n      mstore\n        /* \"#utility.yul\":10480:10611   */\n      tag_257\n        /* \"#utility.yul\":10606:10610   */\n      dup2\n        /* \"#utility.yul\":10480:10611   */\n      tag_140\n      jump\t// in\n    tag_257:\n        /* \"#utility.yul\":10472:10611   */\n      swap1\n      pop\n        /* \"#utility.yul\":10199:10618   */\n      swap2\n      swap1\n      pop\n      jump\t// out\n        /* \"#utility.yul\":10624:10804   */\n    tag_141:\n        /* \"#utility.yul\":10672:10749   */\n      0x4e487b7100000000000000000000000000000000000000000000000000000000\n        /* \"#utility.yul\":10669:10670   */\n      0x00\n        /* \"#utility.yul\":10662:10750   */\n      mstore\n        /* \"#utility.yul\":10769:10773   */\n      0x11\n        /* \"#utility.yul\":10766:10767   */\n      0x04\n        /* \"#utility.yul\":10759:10774   */\n      mstore\n        /* \"#utility.yul\":10793:10797   */\n      0x24\n        /* \"#utility.yul\":10790:10791   */\n      0x00\n        /* \"#utility.yul\":10783:10798   */\n      revert\n        /* \"#utility.yul\":10810:11001   */\n    tag_80:\n        /* \"#utility.yul\":10850:10853   */\n      0x00\n        /* \"#utility.yul\":10869:10889   */\n      tag_260\n        /* \"#utility.yul\":10887:10888   */\n      dup3\n        /* \"#utility.yul\":10869:10889   */\n      tag_111\n      jump\t// in\n    tag_260:\n        /* \"#utility.yul\":10864:10889   */\n      swap2\n      pop\n        /* \"#utility.yul\":10903:10923   */\n      tag_261\n        /* \"#utility.yul\":10921:10922   */\n      dup4\n        /* \"#utility.yul\":10903:10923   */\n      tag_111\n      jump\t// in\n    tag_261:\n        /* \"#utility.yul\":10898:10923   */\n      swap3\n      pop\n        /* \"#utility.yul\":10946:10947   */\n      dup3\n        /* \"#utility.yul\":10943:10944   */\n      dup3\n        /* \"#utility.yul\":10939:10948   */\n      add\n        /* \"#utility.yul\":10932:10948   */\n      swap1\n      pop\n        /* \"#utility.yul\":10967:10970   */\n      dup1\n        /* \"#utility.yul\":10964:10965   */\n      dup3\n        /* \"#utility.yul\":10961:10971   */\n      gt\n        /* \"#utility.yul\":10958:10994   */\n      iszero\n      tag_262\n      jumpi\n        /* \"#utility.yul\":10974:10992   */\n      tag_263\n      tag_141\n      jump\t// in\n    tag_263:\n        /* \"#utility.yul\":10958:10994   */\n    tag_262:\n        /* \"#utility.yul\":10810:11001   */\n      swap3\n      swap2\n      pop\n      pop\n      jump\t// out\n        /* \"#utility.yul\":11007:11148   */\n    tag_142:\n        /* \"#utility.yul\":11056:11060   */\n      0x00\n        /* \"#utility.yul\":11079:11082   */\n      dup2\n        /* \"#utility.yul\":11071:11082   */\n      swap1\n      pop\n        /* \"#utility.yul\":11102:11105   */\n      dup2\n        /* \"#utility.yul\":11099:11100   */\n      0x00\n        /* \"#utility.yul\":11092:11106   */\n      mstore\n        /* \"#utility.yul\":11136:11140   */\n      0x20\n        /* \"#utility.yul\":11133:11134   */\n      0x00\n        /* \"#utility.yul\":11123:11141   */\n      keccak256\n        /* \"#utility.yul\":11115:11141   */\n      swap1\n      pop\n        /* \"#utility.yul\":11007:11148   */\n      swap2\n      swap1\n      pop\n      jump\t// out\n        /* \"#utility.yul\":11154:11247   */\n    tag_143:\n        /* \"#utility.yul\":11191:11197   */\n      0x00\n        /* \"#utility.yul\":11238:11240   */\n      0x20\n        /* \"#utility.yul\":11233:11235   */\n      0x1f\n        /* \"#utility.yul\":11226:11231   */\n      dup4\n        /* \"#utility.yul\":11222:11236   */\n      add\n        /* \"#utility.yul\":11218:11241   */\n      div\n        /* \"#utility.yul\":11208:11241   */\n      swap1\n      pop\n        /* \"#utility.yul\":11154:11247   */\n      swap2\n      swap1\n      pop\n      jump\t// out\n        /* \"#utility.yul\":11253:11360   */\n    tag_144:\n        /* \"#utility.yul\":11297:11305   */\n      0x00\n        /* \"#utility.yul\":11347:11352   */\n      dup3\n        /* \"#utility.yul\":11341:11345   */\n      dup3\n        /* \"#utility.yul\":11337:11353   */\n      shl\n        /* \"#utility.yul\":11316:11353   */\n      swap1\n      pop\n        /* \"#utility.yul\":11253:11360   */\n      swap3\n      swap2\n      pop\n      pop\n      jump\t// out\n        /* \"#utility.yul\":11366:11759   */\n    tag_145:\n        /* \"#utility.yul\":11435:11441   */\n      0x00\n        /* \"#utility.yul\":11485:11486   */\n      0x08\n        /* \"#utility.yul\":11473:11483   */\n      dup4\n        /* \"#utility.yul\":11469:11487   */\n      mul\n        /* \"#utility.yul\":11508:11605   */\n      tag_268\n        /* \"#utility.yul\":11538:11604   */\n      0xffffffffffffffffffffffffffffffffffffffffffffffffffffffffffffffff\n        /* \"#utility.yul\":11527:11536   */\n      dup3\n        /* \"#utility.yul\":11508:11605   */\n      tag_144\n      jump\t// in\n    tag_268:\n        /* \"#utility.yul\":11626:11665   */\n      tag_269\n        /* \"#utility.yul\":11656:11664   */\n      dup7\n        /* \"#utility.yul\":11645:11654   */\n      dup4\n        /* \"#utility.yul\":11626:11665   */\n      tag_144\n      jump\t// in\n    tag_269:\n        /* \"#utility.yul\":11614:11665   */\n      swap6\n      pop\n        /* \"#utility.yul\":11698:11702   */\n      dup1\n        /* \"#utility.yul\":11694:11703   */\n      not\n        /* \"#utility.yul\":11687:11692   */\n      dup5\n        /* \"#utility.yul\":11683:11704   */\n      and\n        /* \"#utility.yul\":11674:11704   */\n      swap4\n      pop\n        /* \"#utility.yul\":11747:11751   */\n      dup1\n        /* \"#utility.yul\":11737:11745   */\n      dup7\n        /* \"#utility.yul\":11733:11752   */\n      and\n        /* \"#utility.yul\":11726:11731   */\n      dup5\n        /* \"#utility.yul\":11723:11753   */\n      or\n        /* \"#utility.yul\":11713:11753   */\n      swap3\n      pop\n        /* \"#utility.yul\":11442:11759   */\n      pop\n      pop\n        /* \"#utility.yul\":11366:11759   */\n      swap4\n      swap3\n      pop\n      pop\n      pop\n      jump\t// out\n        /* \"#utility.yul\":11765:11825   */\n    tag_146:\n        /* \"#utility.yul\":11793:11796   */\n      0x00\n        /* \"#utility.yul\":11814:11819   */\n      dup2\n        /* \"#utility.yul\":11807:11819   */\n      swap1\n      pop\n        /* \"#utility.yul\":11765:11825   */\n      swap2\n      swap1\n      pop\n      jump\t// out\n        /* \"#utility.yul\":11831:11973   */\n    tag_147:\n        /* \"#utility.yul\":11881:11890   */\n      0x00\n        /* \"#utility.yul\":11914:11967   */\n      tag_272\n        /* \"#utility.yul\":11932:11966   */\n      tag_273\n        /* \"#utility.yul\":11941:11965   */\n      tag_274\n        /* \"#utility.yul\":11959:11964   */\n      dup5\n        /* \"#utility.yul\":11941:11965   */\n      tag_111\n      jump\t// in\n    tag_274:\n        /* \"#utility.yul\":11932:11966   */\n      tag_146\n      jump\t// in\n    tag_273:\n        /* \"#utility.yul\":11914:11967   */\n      tag_111\n      jump\t// in\n    tag_272:\n        /* \"#utility.yul\":11901:11967   */\n      swap1\n      pop\n        /* \"#utility.yul\":11831:11973   */\n      swap2\n      swap1\n      pop\n      jump\t// out\n        /* \"#utility.yul\":11979:12054   */\n    tag_148:\n        /* \"#utility.yul\":12022:12025   */\n      0x00\n        /* \"#utility.yul\":12043:12048   */\n      dup2\n        /* \"#utility.yul\":12036:12048   */\n      swap1\n      pop\n        /* \"#utility.yul\":11979:12054   */\n      swap2\n      swap1\n      pop\n      jump\t// out\n        /* \"#utility.yul\":12060:12329   */\n    tag_149:\n        /* \"#utility.yul\":12170:12209   */\n      tag_277\n        /* \"#utility.yul\":12201:12208   */\n      dup4\n        /* \"#utility.yul\":12170:12209   */\n      tag_147\n      jump\t// in\n    tag_277:\n        /* \"#utility.yul\":12231:12322   */\n      tag_278\n        /* \"#utility.yul\":12280:12321   */\n      tag_279\n        /* \"#utility.yul\":12304:12320   */\n      dup3\n        /* \"#utility.yul\":12280:12321   */\n      tag_148\n      jump\t// in\n    tag_279:\n        /* \"#utility.yul\":12272:12278   */\n      dup5\n        /* \"#utility.yul\":12265:12269   */\n      dup5\n        /* \"#utility.yul\":12259:12270   */\n      sload\n        /* \"#utility.yul\":12231:12322   */\n      tag_145\n      jump\t// in\n    tag_278:\n        /* \"#utility.yul\":12225:12229   */\n      dup3\n        /* \"#utility.yul\":12218:12323   */\n      sstore\n        /* \"#utility.yul\":12136:12329   */\n      pop\n        /* \"#utility.yul\":12060:12329   */\n      pop\n      pop\n      pop\n      jump\t// out\n        /* \"#utility.yul\":12335:12408   */\n    tag_150:\n        /* \"#utility.yul\":12380:12383   */\n      0x00\n        /* \"#utility.yul\":12335:12408   */\n      swap1\n      jump\t// out\n        /* \"#utility.yul\":12414:12603   */\n    tag_151:\n        /* \"#utility.yul\":12491:12523   */\n      tag_282\n      tag_150\n      jump\t// in\n    tag_282:\n        /* \"#utility.yul\":12532:12597   */\n      tag_283\n        /* \"#utility.yul\":12590:12596   */\n      dup2\n        /* \"#utility.yul\":12582:12588   */\n      dup5\n        /* \"#utility.yul\":12576:12580   */\n      dup5\n        /* \"#utility.yul\":12532:12597   */\n      tag_149\n      jump\t// in\n    tag_283:\n        /* \"#utility.yul\":12467:12603   */\n      pop\n        /* \"#utility.yul\":12414:12603   */\n      pop\n      pop\n      jump\t// out\n        /* \"#utility.yul\":12609:12795   */\n    tag_152:\n        /* \"#utility.yul\":12669:12789   */\n    tag_285:\n        /* \"#utility.yul\":12686:12689   */\n      dup2\n        /* \"#utility.yul\":12679:12684   */\n      dup2\n        /* \"#utility.yul\":12676:12690   */\n      lt\n        /* \"#utility.yul\":12669:12789   */\n      iszero\n      tag_287\n      jumpi\n        /* \"#utility.yul\":12740:12779   */\n      tag_288\n        /* \"#utility.yul\":12777:12778   */\n      0x00\n        /* \"#utility.yul\":12770:12775   */\n      dup3\n        /* \"#utility.yul\":12740:12779   */\n      tag_151\n      jump\t// in\n    tag_288:\n        /* \"#utility.yul\":12713:12714   */\n      0x01\n        /* \"#utility.yul\":12706:12711   */\n      dup2\n        /* \"#utility.yul\":12702:12715   */\n      add\n        /* \"#utility.yul\":12693:12715   */\n      swap1\n      pop\n        /* \"#utility.yul\":12669:12789   */\n      jump(tag_285)\n    tag_287:\n        /* \"#utility.yul\":12609:12795   */\n      pop\n      pop\n      jump\t// out\n        /* \"#utility.yul\":12801:13344   */\n    tag_153:\n        /* \"#utility.yul\":12902:12904   */\n      0x1f\n        /* \"#utility.yul\":12897:12900   */\n      dup3\n        /* \"#utility.yul\":12894:12905   */\n      gt\n        /* \"#utility.yul\":12891:13337   */\n      iszero\n      tag_290\n      jumpi\n        /* \"#utility.yul\":12936:12974   */\n      tag_291\n        /* \"#utility.yul\":12968:12973   */\n      dup2\n        /* \"#utility.yul\":12936:12974   */\n      tag_142\n      jump\t// in\n    tag_291:\n        /* \"#utility.yul\":13020:13049   */\n      tag_292\n        /* \"#utility.yul\":13038:13048   */\n      dup5\n        /* \"#utility.yul\":13020:13049   */\n      tag_143\n      jump\t// in\n    tag_292:\n        /* \"#utility.yul\":13010:13018   */\n      dup2\n        /* \"#utility.yul\":13006:13050   */\n      add\n        /* \"#utility.yul\":13203:13205   */\n      0x20\n        /* \"#utility.yul\":13191:13201   */\n      dup6\n        /* \"#utility.yul\":13188:13206   */\n      lt\n        /* \"#utility.yul\":13185:13234   */\n      iszero\n      tag_293\n      jumpi\n        /* \"#utility.yul\":13224:13232   */\n      dup2\n        /* \"#utility.yul\":13209:13232   */\n      swap1\n      pop\n        /* \"#utility.yul\":13185:13234   */\n    tag_293:\n        /* \"#utility.yul\":13247:13327   */\n      tag_294\n        /* \"#utility.yul\":13303:13325   */\n      tag_295\n        /* \"#utility.yul\":13321:13324   */\n      dup6\n        /* \"#utility.yul\":13303:13325   */\n      tag_143\n      jump\t// in\n    tag_295:\n        /* \"#utility.yul\":13293:13301   */\n      dup4\n        /* \"#utility.yul\":13289:13326   */\n      add\n        /* \"#utility.yul\":13276:13287   */\n      dup3\n        /* \"#utility.yul\":13247:13327   */\n      tag_152\n      jump\t// in\n    tag_294:\n        /* \"#utility.yul\":12906:13337   */\n      pop\n      pop\n        /* \"#utility.yul\":12891:13337   */\n    tag_290:\n        /* \"#utility.yul\":12801:13344   */\n      pop\n      pop\n      pop\n      jump\t// out\n        /* \"#utility.yul\":13350:13467   */\n    tag_154:\n        /* \"#utility.yul\":13404:13412   */\n      0x00\n        /* \"#utility.yul\":13454:13459   */\n      dup3\n        /* \"#utility.yul\":13448:13452   */\n      dup3\n        /* \"#utility.yul\":13444:13460   */\n      shr\n        /* \"#utility.yul\":13423:13460   */\n      swap1\n      pop\n        /* \"#utility.yul\":13350:13467   */\n      swap3\n      swap2\n      pop\n      pop\n      jump\t// out\n        /* \"#utility.yul\":13473:13642   */\n    tag_155:\n        /* \"#utility.yul\":13517:13523   */\n      0x00\n        /* \"#utility.yul\":13550:13601   */\n      tag_298\n        /* \"#utility.yul\":13598:13599   */\n      0x00\n        /* \"#utility.yul\":13594:13600   */\n      not\n        /* \"#utility.yul\":13586:13591   */\n      dup5\n        /* \"#utility.yul\":13583:13584   */\n      0x08\n        /* \"#utility.yul\":13579:13592   */\n      mul\n        /* \"#utility.yul\":13550:13601   */\n      tag_154\n      jump\t// in\n    tag_298:\n        /* \"#utility.yul\":13546:13602   */\n      not\n        /* \"#utility.yul\":13631:13635   */\n      dup1\n        /* \"#utility.yul\":13625:13629   */\n      dup4\n        /* \"#utility.yul\":13621:13636   */\n      and\n        /* \"#utility.yul\":13611:13636   */\n      swap2\n      pop\n        /* \"#utility.yul\":13524:13642   */\n      pop\n        /* \"#utility.yul\":13473:13642   */\n      swap3\n      swap2\n      pop\n      pop\n      jump\t// out\n        /* \"#utility.yul\":13647:13942   */\n    tag_156:\n        /* \"#utility.yul\":13723:13727   */\n      0x00\n        /* \"#utility.yul\":13869:13898   */\n      tag_300\n        /* \"#utility.yul\":13894:13897   */\n      dup4\n        /* \"#utility.yul\":13888:13892   */\n      dup4\n        /* \"#utility.yul\":13869:13898   */\n      tag_155\n      jump\t// in\n    tag_300:\n        /* \"#utility.yul\":13861:13898   */\n      swap2\n      pop\n        /* \"#utility.yul\":13931:13934   */\n      dup3\n        /* \"#utility.yul\":13928:13929   */\n      0x02\n        /* \"#utility.yul\":13924:13935   */\n      mul\n        /* \"#utility.yul\":13918:13922   */\n      dup3\n        /* \"#utility.yul\":13915:13936   */\n      or\n        /* \"#utility.yul\":13907:13936   */\n      swap1\n      pop\n        /* \"#utility.yul\":13647:13942   */\n      swap3\n      swap2\n      pop\n      pop\n      jump\t// out\n        /* \"#utility.yul\":13947:15342   */\n    tag_83:\n        /* \"#utility.yul\":14064:14101   */\n      tag_302\n        /* \"#utility.yul\":14097:14100   */\n      dup3\n        /* \"#utility.yul\":14064:14101   */\n      tag_117\n      jump\t// in\n    tag_302:\n        /* \"#utility.yul\":14166:14184   */\n      0xffffffffffffffff\n        /* \"#utility.yul\":14158:14164   */\n      dup2\n        /* \"#utility.yul\":14155:14185   */\n      gt\n        /* \"#utility.yul\":14152:14208   */\n      iszero\n      tag_303\n      jumpi\n        /* \"#utility.yul\":14188:14206   */\n      tag_304\n      tag_127\n      jump\t// in\n    tag_304:\n        /* \"#utility.yul\":14152:14208   */\n    tag_303:\n        /* \"#utility.yul\":14232:14270   */\n      tag_305\n        /* \"#utility.yul\":14264:14268   */\n      dup3\n        /* \"#utility.yul\":14258:14269   */\n      sload\n        /* \"#utility.yul\":14232:14270   */\n      tag_50\n      jump\t// in\n    tag_305:\n        /* \"#utility.yul\":14317:14384   */\n      tag_306\n        /* \"#utility.yul\":14377:14383   */\n      dup3\n        /* \"#utility.yul\":14369:14375   */\n      dup3\n        /* \"#utility.yul\":14363:14367   */\n      dup6\n        /* \"#utility.yul\":14317:14384   */\n      tag_153\n      jump\t// in\n    tag_306:\n        /* \"#utility.yul\":14411:14412   */\n      0x00\n        /* \"#utility.yul\":14435:14439   */\n      0x20\n        /* \"#utility.yul\":14422:14439   */\n      swap1\n      pop\n        /* \"#utility.yul\":14467:14469   */\n      0x1f\n        /* \"#utility.yul\":14459:14465   */\n      dup4\n        /* \"#utility.yul\":14456:14470   */\n      gt\n        /* \"#utility.yul\":14484:14485   */\n      0x01\n        /* \"#utility.yul\":14479:15097   */\n      dup2\n      eq\n      tag_308\n      jumpi\n        /* \"#utility.yul\":15141:15142   */\n      0x00\n        /* \"#utility.yul\":15158:15164   */\n      dup5\n        /* \"#utility.yul\":15155:15232   */\n      iszero\n      tag_309\n      jumpi\n        /* \"#utility.yul\":15207:15216   */\n      dup3\n        /* \"#utility.yul\":15202:15205   */\n      dup8\n        /* \"#utility.yul\":15198:15217   */\n      add\n        /* \"#utility.yul\":15192:15218   */\n      mload\n        /* \"#utility.yul\":15183:15218   */\n      swap1\n      pop\n        /* \"#utility.yul\":15155:15232   */\n    tag_309:\n        /* \"#utility.yul\":15258:15325   */\n      tag_310\n        /* \"#utility.yul\":15318:15324   */\n      dup6\n        /* \"#utility.yul\":15311:15316   */\n      dup3\n        /* \"#utility.yul\":15258:15325   */\n      tag_156\n      jump\t// in\n    tag_310:\n        /* \"#utility.yul\":15252:15256   */\n      dup7\n        /* \"#utility.yul\":15245:15326   */\n      sstore\n        /* \"#utility.yul\":15114:15336   */\n      pop\n        /* \"#utility.yul\":14449:15336   */\n      jump(tag_307)\n        /* \"#utility.yul\":14479:15097   */\n    tag_308:\n        /* \"#utility.yul\":14531:14535   */\n      0x1f\n        /* \"#utility.yul\":14527:14536   */\n      not\n        /* \"#utility.yul\":14519:14525   */\n      dup5\n        /* \"#utility.yul\":14515:14537   */\n      and\n        /* \"#utility.yul\":14565:14602   */\n      tag_311\n        /* \"#utility.yul\":14597:14601   */\n      dup7\n        /* \"#utility.yul\":14565:14602   */\n      tag_142\n      jump\t// in\n    tag_311:\n        /* \"#utility.yul\":14624:14625   */\n      0x00\n        /* \"#utility.yul\":14638:14846   */\n    tag_312:\n        /* \"#utility.yul\":14652:14659   */\n      dup3\n        /* \"#utility.yul\":14649:14650   */\n      dup2\n        /* \"#utility.yul\":14646:14660   */\n      lt\n        /* \"#utility.yul\":14638:14846   */\n      iszero\n      tag_314\n      jumpi\n        /* \"#utility.yul\":14731:14740   */\n      dup5\n        /* \"#utility.yul\":14726:14729   */\n      dup10\n        /* \"#utility.yul\":14722:14741   */\n      add\n        /* \"#utility.yul\":14716:14742   */\n      mload\n        /* \"#utility.yul\":14708:14714   */\n      dup3\n        /* \"#utility.yul\":14701:14743   */\n      sstore\n        /* \"#utility.yul\":14782:14783   */\n      0x01\n        /* \"#utility.yul\":14774:14780   */\n      dup3\n        /* \"#utility.yul\":14770:14784   */\n      add\n        /* \"#utility.yul\":14760:14784   */\n      swap2\n      pop\n        /* \"#utility.yul\":14829:14831   */\n      0x20\n        /* \"#utility.yul\":14818:14827   */\n      dup6\n        /* \"#utility.yul\":14814:14832   */\n      add\n        /* \"#utility.yul\":14801:14832   */\n      swap5\n      pop\n        /* \"#utility.yul\":14675:14679   */\n      0x20\n        /* \"#utility.yul\":14672:14673   */\n      dup2\n        /* \"#utility.yul\":14668:14680   */\n      add\n        /* \"#utility.yul\":14663:14680   */\n      swap1\n      pop\n        /* \"#utility.yul\":14638:14846   */\n      jump(tag_312)\n    tag_314:\n        /* \"#utility.yul\":14874:14880   */\n      dup7\n        /* \"#utility.yul\":14865:14872   */\n      dup4\n        /* \"#utility.yul\":14862:14881   */\n      lt\n        /* \"#utility.yul\":14859:15038   */\n      iszero\n      tag_315\n      jumpi\n        /* \"#utility.yul\":14932:14941   */\n      dup5\n        /* \"#utility.yul\":14927:14930   */\n      dup10\n        /* \"#utility.yul\":14923:14942   */\n      add\n        /* \"#utility.yul\":14917:14943   */\n      mload\n        /* \"#utility.yul\":14975:15023   */\n      tag_316\n        /* \"#utility.yul\":15017:15021   */\n      0x1f\n        /* \"#utility.yul\":15009:15015   */\n      dup10\n        /* \"#utility.yul\":15005:15022   */\n      and\n        /* \"#utility.yul\":14994:15003   */\n      dup3\n        /* \"#utility.yul\":14975:15023   */\n      tag_155\n      jump\t// in\n    tag_316:\n        /* \"#utility.yul\":14967:14973   */\n      dup4\n        /* \"#utility.yul\":14960:15024   */\n      sstore\n        /* \"#utility.yul\":14882:15038   */\n      pop\n        /* \"#utility.yul\":14859:15038   */\n    tag_315:\n        /* \"#utility.yul\":15084:15085   */\n      0x01\n        /* \"#utility.yul\":15080:15081   */\n      0x02\n        /* \"#utility.yul\":15072:15078   */\n      dup9\n        /* \"#utility.yul\":15068:15082   */\n      mul\n        /* \"#utility.yul\":15064:15086   */\n      add\n        /* \"#utility.yul\":15058:15062   */\n      dup9\n        /* \"#utility.yul\":15051:15087   */\n      sstore\n        /* \"#utility.yul\":14486:15097   */\n      pop\n      pop\n      pop\n        /* \"#utility.yul\":14449:15336   */\n    tag_307:\n      pop\n        /* \"#utility.yul\":14039:15342   */\n      pop\n      pop\n      pop\n        /* \"#utility.yul\":13947:15342   */\n      pop\n      pop\n      jump\t// out\n\n    auxdata: 0xa2646970667358221220241706376dca26549055a8f91c20f6588417649acf93bde02ae195ba0c65abe464736f6c634300081a0033\n}\n",
				"bytecode": {
					"linkReferences": {},
					"object": "6080604052348015600e575f80fd5b50610fce8061001c5f395ff3fe608060405260043610610049575f3560e01c80630b008fd01461004d578063141961bc14610069578063155dd5ee146100ab578063a318f269146100c7578063c1cbbca7146100ef575b5f80fd5b610067600480360381019061006291906107c4565b61010b565b005b348015610074575f80fd5b5061008f600480360381019061008a91906107c4565b610288565b6040516100a297969594939291906108c7565b60405180910390f35b6100c560048036038101906100c091906107c4565b61040b565b005b3480156100d2575f80fd5b506100ed60048036038101906100e89190610a6e565b610549565b005b610109600480360381019061010491906107c4565b610612565b005b5f818154811061011e5761011d610b0a565b5b905f5260205f20906008020160050154421015610170576040517f08c379a000000000000000000000000000000000000000000000000000000000815260040161016790610b81565b60405180910390fd5b5f818154811061018357610182610b0a565b5b905f5260205f2090600802016006015f9054906101000a900460ff16156101df576040517f08c379a00000000000000000000000000000000000000000000000000000000081526004016101d690610be9565b60405180910390fd5b5f8082815481106101f3576101f2610b0a565b5b905f5260205f2090600802016007015f3373ffffffffffffffffffffffffffffffffffffffff1673ffffffffffffffffffffffffffffffffffffffff1681526020019081526020015f205490503373ffffffffffffffffffffffffffffffffffffffff166108fc8290811502906040515f60405180830381858888f19350505050158015610283573d5f803e3d5ffd5b505050565b5f8181548110610296575f80fd5b905f5260205f2090600802015f91509050805f015f9054906101000a900473ffffffffffffffffffffffffffffffffffffffff16908060010180546102da90610c34565b80601f016020809104026020016040519081016040528092919081815260200182805461030690610c34565b80156103515780601f1061032857610100808354040283529160200191610351565b820191905f5260205f20905b81548152906001019060200180831161033457829003601f168201915b50505050509080600201805461036690610c34565b80601f016020809104026020016040519081016040528092919081815260200182805461039290610c34565b80156103dd5780601f106103b4576101008083540402835291602001916103dd565b820191905f5260205f20905b8154815290600101906020018083116103c057829003601f168201915b505050505090806003015490806004015490806005015490806006015f9054906101000a900460ff16905087565b5f818154811061041e5761041d610b0a565b5b905f5260205f2090600802016006015f9054906101000a900460ff16610479576040517f08c379a000000000000000000000000000000000000000000000000000000000815260040161047090610cae565b60405180910390fd5b5f818154811061048c5761048b610b0a565b5b905f5260205f2090600802015f015f9054906101000a900473ffffffffffffffffffffffffffffffffffffffff1673ffffffffffffffffffffffffffffffffffffffff166108fc5f83815481106104e6576104e5610b0a565b5b905f5260205f2090600802016004015490811502906040515f60405180830381858888f1935050505015801561051e573d5f803e3d5ffd5b505f80828154811061053357610532610b0a565b5b905f5260205f2090600802016004018190555050565b5f82426105569190610cf9565b90505f8060018160018154018082558091505003905f5260205f209060080201905033815f015f6101000a81548173ffffffffffffffffffffffffffffffffffffffff021916908373ffffffffffffffffffffffffffffffffffffffff160217905550858160010190816105ca9190610ec9565b50848160020190816105dc9190610ec9565b508281600301819055508181600501819055505f816006015f6101000a81548160ff021916908315150217905550505050505050565b345f828154811061062657610625610b0a565b5b905f5260205f2090600802016007015f3373ffffffffffffffffffffffffffffffffffffffff1673ffffffffffffffffffffffffffffffffffffffff1681526020019081526020015f205f82825461067e9190610cf9565b92505081905550345f828154811061069957610698610b0a565b5b905f5260205f2090600802016004015f8282546106b69190610cf9565b925050819055505f81815481106106d0576106cf610b0a565b5b905f5260205f209060080201600301545f82815481106106f3576106f2610b0a565b5b905f5260205f209060080201600401541015801561073d57505f818154811061071f5761071e610b0a565b5b905f5260205f2090600802016006015f9054906101000a900460ff16155b1561077d5760015f828154811061075757610756610b0a565b5b905f5260205f2090600802016006015f6101000a81548160ff0219169083151502179055505b50565b5f604051905090565b5f80fd5b5f80fd5b5f819050919050565b6107a381610791565b81146107ad575f80fd5b50565b5f813590506107be8161079a565b92915050565b5f602082840312156107d9576107d8610789565b5b5f6107e6848285016107b0565b91505092915050565b5f73ffffffffffffffffffffffffffffffffffffffff82169050919050565b5f610818826107ef565b9050919050565b6108288161080e565b82525050565b5f81519050919050565b5f82825260208201905092915050565b8281835e5f83830152505050565b5f601f19601f8301169050919050565b5f6108708261082e565b61087a8185610838565b935061088a818560208601610848565b61089381610856565b840191505092915050565b6108a781610791565b82525050565b5f8115159050919050565b6108c1816108ad565b82525050565b5f60e0820190506108da5f83018a61081f565b81810360208301526108ec8189610866565b905081810360408301526109008188610866565b905061090f606083018761089e565b61091c608083018661089e565b61092960a083018561089e565b61093660c08301846108b8565b98975050505050505050565b5f80fd5b5f80fd5b7f4e487b71000000000000000000000000000000000000000000000000000000005f52604160045260245ffd5b61098082610856565b810181811067ffffffffffffffff8211171561099f5761099e61094a565b5b80604052505050565b5f6109b1610780565b90506109bd8282610977565b919050565b5f67ffffffffffffffff8211156109dc576109db61094a565b5b6109e582610856565b9050602081019050919050565b828183375f83830152505050565b5f610a12610a0d846109c2565b6109a8565b905082815260208101848484011115610a2e57610a2d610946565b5b610a398482856109f2565b509392505050565b5f82601f830112610a5557610a54610942565b5b8135610a65848260208601610a00565b91505092915050565b5f805f8060808587031215610a8657610a85610789565b5b5f85013567ffffffffffffffff811115610aa357610aa261078d565b5b610aaf87828801610a41565b945050602085013567ffffffffffffffff811115610ad057610acf61078d565b5b610adc87828801610a41565b9350506040610aed878288016107b0565b9250506060610afe878288016107b0565b91505092959194509250565b7f4e487b71000000000000000000000000000000000000000000000000000000005f52603260045260245ffd5b7f43616d706169676e206e6f7420656e64656400000000000000000000000000005f82015250565b5f610b6b601283610838565b9150610b7682610b37565b602082019050919050565b5f6020820190508181035f830152610b9881610b5f565b9050919050565b7f476f616c20726561636865642c206e6f20726566756e647300000000000000005f82015250565b5f610bd3601883610838565b9150610bde82610b9f565b602082019050919050565b5f6020820190508181035f830152610c0081610bc7565b9050919050565b7f4e487b71000000000000000000000000000000000000000000000000000000005f52602260045260245ffd5b5f6002820490506001821680610c4b57607f821691505b602082108103610c5e57610c5d610c07565b5b50919050565b7f476f616c206e6f742072656163686564207965742100000000000000000000005f82015250565b5f610c98601583610838565b9150610ca382610c64565b602082019050919050565b5f6020820190508181035f830152610cc581610c8c565b9050919050565b7f4e487b71000000000000000000000000000000000000000000000000000000005f52601160045260245ffd5b5f610d0382610791565b9150610d0e83610791565b9250828201905080821115610d2657610d25610ccc565b5b92915050565b5f819050815f5260205f209050919050565b5f6020601f8301049050919050565b5f82821b905092915050565b5f60088302610d887fffffffffffffffffffffffffffffffffffffffffffffffffffffffffffffffff82610d4d565b610d928683610d4d565b95508019841693508086168417925050509392505050565b5f819050919050565b5f610dcd610dc8610dc384610791565b610daa565b610791565b9050919050565b5f819050919050565b610de683610db3565b610dfa610df282610dd4565b848454610d59565b825550505050565b5f90565b610e0e610e02565b610e19818484610ddd565b505050565b5b81811015610e3c57610e315f82610e06565b600181019050610e1f565b5050565b601f821115610e8157610e5281610d2c565b610e5b84610d3e565b81016020851015610e6a578190505b610e7e610e7685610d3e565b830182610e1e565b50505b505050565b5f82821c905092915050565b5f610ea15f1984600802610e86565b1980831691505092915050565b5f610eb98383610e92565b9150826002028217905092915050565b610ed28261082e565b67ffffffffffffffff811115610eeb57610eea61094a565b5b610ef58254610c34565b610f00828285610e40565b5f60209050601f831160018114610f31575f8415610f1f578287015190505b610f298582610eae565b865550610f90565b601f198416610f3f86610d2c565b5f5b82811015610f6657848901518255600182019150602085019450602081019050610f41565b86831015610f835784890151610f7f601f891682610e92565b8355505b6001600288020188555050505b50505050505056fea2646970667358221220241706376dca26549055a8f91c20f6588417649acf93bde02ae195ba0c65abe464736f6c634300081a0033",
					"opcodes": "PUSH1 0x80 PUSH1 0x40 MSTORE CALLVALUE DUP1 ISZERO PUSH1 0xE JUMPI PUSH0 DUP1 REVERT JUMPDEST POP PUSH2 0xFCE DUP1 PUSH2 0x1C PUSH0 CODECOPY PUSH0 RETURN INVALID PUSH1 0x80 PUSH1 0x40 MSTORE PUSH1 0x4 CALLDATASIZE LT PUSH2 0x49 JUMPI PUSH0 CALLDATALOAD PUSH1 0xE0 SHR DUP1 PUSH4 0xB008FD0 EQ PUSH2 0x4D JUMPI DUP1 PUSH4 0x141961BC EQ PUSH2 0x69 JUMPI DUP1 PUSH4 0x155DD5EE EQ PUSH2 0xAB JUMPI DUP1 PUSH4 0xA318F269 EQ PUSH2 0xC7 JUMPI DUP1 PUSH4 0xC1CBBCA7 EQ PUSH2 0xEF JUMPI JUMPDEST PUSH0 DUP1 REVERT JUMPDEST PUSH2 0x67 PUSH1 0x4 DUP1 CALLDATASIZE SUB DUP2 ADD SWAP1 PUSH2 0x62 SWAP2 SWAP1 PUSH2 0x7C4 JUMP JUMPDEST PUSH2 0x10B JUMP JUMPDEST STOP JUMPDEST CALLVALUE DUP1 ISZERO PUSH2 0x74 JUMPI PUSH0 DUP1 REVERT JUMPDEST POP PUSH2 0x8F PUSH1 0x4 DUP1 CALLDATASIZE SUB DUP2 ADD SWAP1 PUSH2 0x8A SWAP2 SWAP1 PUSH2 0x7C4 JUMP JUMPDEST PUSH2 0x288 JUMP JUMPDEST PUSH1 0x40 MLOAD PUSH2 0xA2 SWAP8 SWAP7 SWAP6 SWAP5 SWAP4 SWAP3 SWAP2 SWAP1 PUSH2 0x8C7 JUMP JUMPDEST PUSH1 0x40 MLOAD DUP1 SWAP2 SUB SWAP1 RETURN JUMPDEST PUSH2 0xC5 PUSH1 0x4 DUP1 CALLDATASIZE SUB DUP2 ADD SWAP1 PUSH2 0xC0 SWAP2 SWAP1 PUSH2 0x7C4 JUMP JUMPDEST PUSH2 0x40B JUMP JUMPDEST STOP JUMPDEST CALLVALUE DUP1 ISZERO PUSH2 0xD2 JUMPI PUSH0 DUP1 REVERT JUMPDEST POP PUSH2 0xED PUSH1 0x4 DUP1 CALLDATASIZE SUB DUP2 ADD SWAP1 PUSH2 0xE8 SWAP2 SWAP1 PUSH2 0xA6E JUMP JUMPDEST PUSH2 0x549 JUMP JUMPDEST STOP JUMPDEST PUSH2 0x109 PUSH1 0x4 DUP1 CALLDATASIZE SUB DUP2 ADD SWAP1 PUSH2 0x104 SWAP2 SWAP1 PUSH2 0x7C4 JUMP JUMPDEST PUSH2 0x612 JUMP JUMPDEST STOP JUMPDEST PUSH0 DUP2 DUP2 SLOAD DUP2 LT PUSH2 0x11E JUMPI PUSH2 0x11D PUSH2 0xB0A JUMP JUMPDEST JUMPDEST SWAP1 PUSH0 MSTORE PUSH1 0x20 PUSH0 KECCAK256 SWAP1 PUSH1 0x8 MUL ADD PUSH1 0x5 ADD SLOAD TIMESTAMP LT ISZERO PUSH2 0x170 JUMPI PUSH1 0x40 MLOAD PUSH32 0x8C379A000000000000000000000000000000000000000000000000000000000 DUP2 MSTORE PUSH1 0x4 ADD PUSH2 0x167 SWAP1 PUSH2 0xB81 JUMP JUMPDEST PUSH1 0x40 MLOAD DUP1 SWAP2 SUB SWAP1 REVERT JUMPDEST PUSH0 DUP2 DUP2 SLOAD DUP2 LT PUSH2 0x183 JUMPI PUSH2 0x182 PUSH2 0xB0A JUMP JUMPDEST JUMPDEST SWAP1 PUSH0 MSTORE PUSH1 0x20 PUSH0 KECCAK256 SWAP1 PUSH1 0x8 MUL ADD PUSH1 0x6 ADD PUSH0 SWAP1 SLOAD SWAP1 PUSH2 0x100 EXP SWAP1 DIV PUSH1 0xFF AND ISZERO PUSH2 0x1DF JUMPI PUSH1 0x40 MLOAD PUSH32 0x8C379A000000000000000000000000000000000000000000000000000000000 DUP2 MSTORE PUSH1 0x4 ADD PUSH2 0x1D6 SWAP1 PUSH2 0xBE9 JUMP JUMPDEST PUSH1 0x40 MLOAD DUP1 SWAP2 SUB SWAP1 REVERT JUMPDEST PUSH0 DUP1 DUP3 DUP2 SLOAD DUP2 LT PUSH2 0x1F3 JUMPI PUSH2 0x1F2 PUSH2 0xB0A JUMP JUMPDEST JUMPDEST SWAP1 PUSH0 MSTORE PUSH1 0x20 PUSH0 KECCAK256 SWAP1 PUSH1 0x8 MUL ADD PUSH1 0x7 ADD PUSH0 CALLER PUSH20 0xFFFFFFFFFFFFFFFFFFFFFFFFFFFFFFFFFFFFFFFF AND PUSH20 0xFFFFFFFFFFFFFFFFFFFFFFFFFFFFFFFFFFFFFFFF AND DUP2 MSTORE PUSH1 0x20 ADD SWAP1 DUP2 MSTORE PUSH1 0x20 ADD PUSH0 KECCAK256 SLOAD SWAP1 POP CALLER PUSH20 0xFFFFFFFFFFFFFFFFFFFFFFFFFFFFFFFFFFFFFFFF AND PUSH2 0x8FC DUP3 SWAP1 DUP2 ISZERO MUL SWAP1 PUSH1 0x40 MLOAD PUSH0 PUSH1 0x40 MLOAD DUP1 DUP4 SUB DUP2 DUP6 DUP9 DUP9 CALL SWAP4 POP POP POP POP ISZERO DUP1 ISZERO PUSH2 0x283 JUMPI RETURNDATASIZE PUSH0 DUP1 RETURNDATACOPY RETURNDATASIZE PUSH0 REVERT JUMPDEST POP POP POP JUMP JUMPDEST PUSH0 DUP2 DUP2 SLOAD DUP2 LT PUSH2 0x296 JUMPI PUSH0 DUP1 REVERT JUMPDEST SWAP1 PUSH0 MSTORE PUSH1 0x20 PUSH0 KECCAK256 SWAP1 PUSH1 0x8 MUL ADD PUSH0 SWAP2 POP SWAP1 POP DUP1 PUSH0 ADD PUSH0 SWAP1 SLOAD SWAP1 PUSH2 0x100 EXP SWAP1 DIV PUSH20 0xFFFFFFFFFFFFFFFFFFFFFFFFFFFFFFFFFFFFFFFF AND SWAP1 DUP1 PUSH1 0x1 ADD DUP1 SLOAD PUSH2 0x2DA SWAP1 PUSH2 0xC34 JUMP JUMPDEST DUP1 PUSH1 0x1F ADD PUSH1 0x20 DUP1 SWAP2 DIV MUL PUSH1 0x20 ADD PUSH1 0x40 MLOAD SWAP1 DUP2 ADD PUSH1 0x40 MSTORE DUP1 SWAP3 SWAP2 SWAP1 DUP2 DUP2 MSTORE PUSH1 0x20 ADD DUP3 DUP1 SLOAD PUSH2 0x306 SWAP1 PUSH2 0xC34 JUMP JUMPDEST DUP1 ISZERO PUSH2 0x351 JUMPI DUP1 PUSH1 0x1F LT PUSH2 0x328 JUMPI PUSH2 0x100 DUP1 DUP4 SLOAD DIV MUL DUP4 MSTORE SWAP2 PUSH1 0x20 ADD SWAP2 PUSH2 0x351 JUMP JUMPDEST DUP3 ADD SWAP2 SWAP1 PUSH0 MSTORE PUSH1 0x20 PUSH0 KECCAK256 SWAP1 JUMPDEST DUP2 SLOAD DUP2 MSTORE SWAP1 PUSH1 0x1 ADD SWAP1 PUSH1 0x20 ADD DUP1 DUP4 GT PUSH2 0x334 JUMPI DUP3 SWAP1 SUB PUSH1 0x1F AND DUP3 ADD SWAP2 JUMPDEST POP POP POP POP POP SWAP1 DUP1 PUSH1 0x2 ADD DUP1 SLOAD PUSH2 0x366 SWAP1 PUSH2 0xC34 JUMP JUMPDEST DUP1 PUSH1 0x1F ADD PUSH1 0x20 DUP1 SWAP2 DIV MUL PUSH1 0x20 ADD PUSH1 0x40 MLOAD SWAP1 DUP2 ADD PUSH1 0x40 MSTORE DUP1 SWAP3 SWAP2 SWAP1 DUP2 DUP2 MSTORE PUSH1 0x20 ADD DUP3 DUP1 SLOAD PUSH2 0x392 SWAP1 PUSH2 0xC34 JUMP JUMPDEST DUP1 ISZERO PUSH2 0x3DD JUMPI DUP1 PUSH1 0x1F LT PUSH2 0x3B4 JUMPI PUSH2 0x100 DUP1 DUP4 SLOAD DIV MUL DUP4 MSTORE SWAP2 PUSH1 0x20 ADD SWAP2 PUSH2 0x3DD JUMP JUMPDEST DUP3 ADD SWAP2 SWAP1 PUSH0 MSTORE PUSH1 0x20 PUSH0 KECCAK256 SWAP1 JUMPDEST DUP2 SLOAD DUP2 MSTORE SWAP1 PUSH1 0x1 ADD SWAP1 PUSH1 0x20 ADD DUP1 DUP4 GT PUSH2 0x3C0 JUMPI DUP3 SWAP1 SUB PUSH1 0x1F AND DUP3 ADD SWAP2 JUMPDEST POP POP POP POP POP SWAP1 DUP1 PUSH1 0x3 ADD SLOAD SWAP1 DUP1 PUSH1 0x4 ADD SLOAD SWAP1 DUP1 PUSH1 0x5 ADD SLOAD SWAP1 DUP1 PUSH1 0x6 ADD PUSH0 SWAP1 SLOAD SWAP1 PUSH2 0x100 EXP SWAP1 DIV PUSH1 0xFF AND SWAP1 POP DUP8 JUMP JUMPDEST PUSH0 DUP2 DUP2 SLOAD DUP2 LT PUSH2 0x41E JUMPI PUSH2 0x41D PUSH2 0xB0A JUMP JUMPDEST JUMPDEST SWAP1 PUSH0 MSTORE PUSH1 0x20 PUSH0 KECCAK256 SWAP1 PUSH1 0x8 MUL ADD PUSH1 0x6 ADD PUSH0 SWAP1 SLOAD SWAP1 PUSH2 0x100 EXP SWAP1 DIV PUSH1 0xFF AND PUSH2 0x479 JUMPI PUSH1 0x40 MLOAD PUSH32 0x8C379A000000000000000000000000000000000000000000000000000000000 DUP2 MSTORE PUSH1 0x4 ADD PUSH2 0x470 SWAP1 PUSH2 0xCAE JUMP JUMPDEST PUSH1 0x40 MLOAD DUP1 SWAP2 SUB SWAP1 REVERT JUMPDEST PUSH0 DUP2 DUP2 SLOAD DUP2 LT PUSH2 0x48C JUMPI PUSH2 0x48B PUSH2 0xB0A JUMP JUMPDEST JUMPDEST SWAP1 PUSH0 MSTORE PUSH1 0x20 PUSH0 KECCAK256 SWAP1 PUSH1 0x8 MUL ADD PUSH0 ADD PUSH0 SWAP1 SLOAD SWAP1 PUSH2 0x100 EXP SWAP1 DIV PUSH20 0xFFFFFFFFFFFFFFFFFFFFFFFFFFFFFFFFFFFFFFFF AND PUSH20 0xFFFFFFFFFFFFFFFFFFFFFFFFFFFFFFFFFFFFFFFF AND PUSH2 0x8FC PUSH0 DUP4 DUP2 SLOAD DUP2 LT PUSH2 0x4E6 JUMPI PUSH2 0x4E5 PUSH2 0xB0A JUMP JUMPDEST JUMPDEST SWAP1 PUSH0 MSTORE PUSH1 0x20 PUSH0 KECCAK256 SWAP1 PUSH1 0x8 MUL ADD PUSH1 0x4 ADD SLOAD SWAP1 DUP2 ISZERO MUL SWAP1 PUSH1 0x40 MLOAD PUSH0 PUSH1 0x40 MLOAD DUP1 DUP4 SUB DUP2 DUP6 DUP9 DUP9 CALL SWAP4 POP POP POP POP ISZERO DUP1 ISZERO PUSH2 0x51E JUMPI RETURNDATASIZE PUSH0 DUP1 RETURNDATACOPY RETURNDATASIZE PUSH0 REVERT JUMPDEST POP PUSH0 DUP1 DUP3 DUP2 SLOAD DUP2 LT PUSH2 0x533 JUMPI PUSH2 0x532 PUSH2 0xB0A JUMP JUMPDEST JUMPDEST SWAP1 PUSH0 MSTORE PUSH1 0x20 PUSH0 KECCAK256 SWAP1 PUSH1 0x8 MUL ADD PUSH1 0x4 ADD DUP2 SWAP1 SSTORE POP POP JUMP JUMPDEST PUSH0 DUP3 TIMESTAMP PUSH2 0x556 SWAP2 SWAP1 PUSH2 0xCF9 JUMP JUMPDEST SWAP1 POP PUSH0 DUP1 PUSH1 0x1 DUP2 PUSH1 0x1 DUP2 SLOAD ADD DUP1 DUP3 SSTORE DUP1 SWAP2 POP POP SUB SWAP1 PUSH0 MSTORE PUSH1 0x20 PUSH0 KECCAK256 SWAP1 PUSH1 0x8 MUL ADD SWAP1 POP CALLER DUP2 PUSH0 ADD PUSH0 PUSH2 0x100 EXP DUP2 SLOAD DUP2 PUSH20 0xFFFFFFFFFFFFFFFFFFFFFFFFFFFFFFFFFFFFFFFF MUL NOT AND SWAP1 DUP4 PUSH20 0xFFFFFFFFFFFFFFFFFFFFFFFFFFFFFFFFFFFFFFFF AND MUL OR SWAP1 SSTORE POP DUP6 DUP2 PUSH1 0x1 ADD SWAP1 DUP2 PUSH2 0x5CA SWAP2 SWAP1 PUSH2 0xEC9 JUMP JUMPDEST POP DUP5 DUP2 PUSH1 0x2 ADD SWAP1 DUP2 PUSH2 0x5DC SWAP2 SWAP1 PUSH2 0xEC9 JUMP JUMPDEST POP DUP3 DUP2 PUSH1 0x3 ADD DUP2 SWAP1 SSTORE POP DUP2 DUP2 PUSH1 0x5 ADD DUP2 SWAP1 SSTORE POP PUSH0 DUP2 PUSH1 0x6 ADD PUSH0 PUSH2 0x100 EXP DUP2 SLOAD DUP2 PUSH1 0xFF MUL NOT AND SWAP1 DUP4 ISZERO ISZERO MUL OR SWAP1 SSTORE POP POP POP POP POP POP POP JUMP JUMPDEST CALLVALUE PUSH0 DUP3 DUP2 SLOAD DUP2 LT PUSH2 0x626 JUMPI PUSH2 0x625 PUSH2 0xB0A JUMP JUMPDEST JUMPDEST SWAP1 PUSH0 MSTORE PUSH1 0x20 PUSH0 KECCAK256 SWAP1 PUSH1 0x8 MUL ADD PUSH1 0x7 ADD PUSH0 CALLER PUSH20 0xFFFFFFFFFFFFFFFFFFFFFFFFFFFFFFFFFFFFFFFF AND PUSH20 0xFFFFFFFFFFFFFFFFFFFFFFFFFFFFFFFFFFFFFFFF AND DUP2 MSTORE PUSH1 0x20 ADD SWAP1 DUP2 MSTORE PUSH1 0x20 ADD PUSH0 KECCAK256 PUSH0 DUP3 DUP3 SLOAD PUSH2 0x67E SWAP2 SWAP1 PUSH2 0xCF9 JUMP JUMPDEST SWAP3 POP POP DUP2 SWAP1 SSTORE POP CALLVALUE PUSH0 DUP3 DUP2 SLOAD DUP2 LT PUSH2 0x699 JUMPI PUSH2 0x698 PUSH2 0xB0A JUMP JUMPDEST JUMPDEST SWAP1 PUSH0 MSTORE PUSH1 0x20 PUSH0 KECCAK256 SWAP1 PUSH1 0x8 MUL ADD PUSH1 0x4 ADD PUSH0 DUP3 DUP3 SLOAD PUSH2 0x6B6 SWAP2 SWAP1 PUSH2 0xCF9 JUMP JUMPDEST SWAP3 POP POP DUP2 SWAP1 SSTORE POP PUSH0 DUP2 DUP2 SLOAD DUP2 LT PUSH2 0x6D0 JUMPI PUSH2 0x6CF PUSH2 0xB0A JUMP JUMPDEST JUMPDEST SWAP1 PUSH0 MSTORE PUSH1 0x20 PUSH0 KECCAK256 SWAP1 PUSH1 0x8 MUL ADD PUSH1 0x3 ADD SLOAD PUSH0 DUP3 DUP2 SLOAD DUP2 LT PUSH2 0x6F3 JUMPI PUSH2 0x6F2 PUSH2 0xB0A JUMP JUMPDEST JUMPDEST SWAP1 PUSH0 MSTORE PUSH1 0x20 PUSH0 KECCAK256 SWAP1 PUSH1 0x8 MUL ADD PUSH1 0x4 ADD SLOAD LT ISZERO DUP1 ISZERO PUSH2 0x73D JUMPI POP PUSH0 DUP2 DUP2 SLOAD DUP2 LT PUSH2 0x71F JUMPI PUSH2 0x71E PUSH2 0xB0A JUMP JUMPDEST JUMPDEST SWAP1 PUSH0 MSTORE PUSH1 0x20 PUSH0 KECCAK256 SWAP1 PUSH1 0x8 MUL ADD PUSH1 0x6 ADD PUSH0 SWAP1 SLOAD SWAP1 PUSH2 0x100 EXP SWAP1 DIV PUSH1 0xFF AND ISZERO JUMPDEST ISZERO PUSH2 0x77D JUMPI PUSH1 0x1 PUSH0 DUP3 DUP2 SLOAD DUP2 LT PUSH2 0x757 JUMPI PUSH2 0x756 PUSH2 0xB0A JUMP JUMPDEST JUMPDEST SWAP1 PUSH0 MSTORE PUSH1 0x20 PUSH0 KECCAK256 SWAP1 PUSH1 0x8 MUL ADD PUSH1 0x6 ADD PUSH0 PUSH2 0x100 EXP DUP2 SLOAD DUP2 PUSH1 0xFF MUL NOT AND SWAP1 DUP4 ISZERO ISZERO MUL OR SWAP1 SSTORE POP JUMPDEST POP JUMP JUMPDEST PUSH0 PUSH1 0x40 MLOAD SWAP1 POP SWAP1 JUMP JUMPDEST PUSH0 DUP1 REVERT JUMPDEST PUSH0 DUP1 REVERT JUMPDEST PUSH0 DUP2 SWAP1 POP SWAP2 SWAP1 POP JUMP JUMPDEST PUSH2 0x7A3 DUP2 PUSH2 0x791 JUMP JUMPDEST DUP2 EQ PUSH2 0x7AD JUMPI PUSH0 DUP1 REVERT JUMPDEST POP JUMP JUMPDEST PUSH0 DUP2 CALLDATALOAD SWAP1 POP PUSH2 0x7BE DUP2 PUSH2 0x79A JUMP JUMPDEST SWAP3 SWAP2 POP POP JUMP JUMPDEST PUSH0 PUSH1 0x20 DUP3 DUP5 SUB SLT ISZERO PUSH2 0x7D9 JUMPI PUSH2 0x7D8 PUSH2 0x789 JUMP JUMPDEST JUMPDEST PUSH0 PUSH2 0x7E6 DUP5 DUP3 DUP6 ADD PUSH2 0x7B0 JUMP JUMPDEST SWAP2 POP POP SWAP3 SWAP2 POP POP JUMP JUMPDEST PUSH0 PUSH20 0xFFFFFFFFFFFFFFFFFFFFFFFFFFFFFFFFFFFFFFFF DUP3 AND SWAP1 POP SWAP2 SWAP1 POP JUMP JUMPDEST PUSH0 PUSH2 0x818 DUP3 PUSH2 0x7EF JUMP JUMPDEST SWAP1 POP SWAP2 SWAP1 POP JUMP JUMPDEST PUSH2 0x828 DUP2 PUSH2 0x80E JUMP JUMPDEST DUP3 MSTORE POP POP JUMP JUMPDEST PUSH0 DUP2 MLOAD SWAP1 POP SWAP2 SWAP1 POP JUMP JUMPDEST PUSH0 DUP3 DUP3 MSTORE PUSH1 0x20 DUP3 ADD SWAP1 POP SWAP3 SWAP2 POP POP JUMP JUMPDEST DUP3 DUP2 DUP4 MCOPY PUSH0 DUP4 DUP4 ADD MSTORE POP POP POP JUMP JUMPDEST PUSH0 PUSH1 0x1F NOT PUSH1 0x1F DUP4 ADD AND SWAP1 POP SWAP2 SWAP1 POP JUMP JUMPDEST PUSH0 PUSH2 0x870 DUP3 PUSH2 0x82E JUMP JUMPDEST PUSH2 0x87A DUP2 DUP6 PUSH2 0x838 JUMP JUMPDEST SWAP4 POP PUSH2 0x88A DUP2 DUP6 PUSH1 0x20 DUP7 ADD PUSH2 0x848 JUMP JUMPDEST PUSH2 0x893 DUP2 PUSH2 0x856 JUMP JUMPDEST DUP5 ADD SWAP2 POP POP SWAP3 SWAP2 POP POP JUMP JUMPDEST PUSH2 0x8A7 DUP2 PUSH2 0x791 JUMP JUMPDEST DUP3 MSTORE POP POP JUMP JUMPDEST PUSH0 DUP2 ISZERO ISZERO SWAP1 POP SWAP2 SWAP1 POP JUMP JUMPDEST PUSH2 0x8C1 DUP2 PUSH2 0x8AD JUMP JUMPDEST DUP3 MSTORE POP POP JUMP JUMPDEST PUSH0 PUSH1 0xE0 DUP3 ADD SWAP1 POP PUSH2 0x8DA PUSH0 DUP4 ADD DUP11 PUSH2 0x81F JUMP JUMPDEST DUP2 DUP2 SUB PUSH1 0x20 DUP4 ADD MSTORE PUSH2 0x8EC DUP2 DUP10 PUSH2 0x866 JUMP JUMPDEST SWAP1 POP DUP2 DUP2 SUB PUSH1 0x40 DUP4 ADD MSTORE PUSH2 0x900 DUP2 DUP9 PUSH2 0x866 JUMP JUMPDEST SWAP1 POP PUSH2 0x90F PUSH1 0x60 DUP4 ADD DUP8 PUSH2 0x89E JUMP JUMPDEST PUSH2 0x91C PUSH1 0x80 DUP4 ADD DUP7 PUSH2 0x89E JUMP JUMPDEST PUSH2 0x929 PUSH1 0xA0 DUP4 ADD DUP6 PUSH2 0x89E JUMP JUMPDEST PUSH2 0x936 PUSH1 0xC0 DUP4 ADD DUP5 PUSH2 0x8B8 JUMP JUMPDEST SWAP9 SWAP8 POP POP POP POP POP POP POP POP JUMP JUMPDEST PUSH0 DUP1 REVERT JUMPDEST PUSH0 DUP1 REVERT JUMPDEST PUSH32 0x4E487B7100000000000000000000000000000000000000000000000000000000 PUSH0 MSTORE PUSH1 0x41 PUSH1 0x4 MSTORE PUSH1 0x24 PUSH0 REVERT JUMPDEST PUSH2 0x980 DUP3 PUSH2 0x856 JUMP JUMPDEST DUP2 ADD DUP2 DUP2 LT PUSH8 0xFFFFFFFFFFFFFFFF DUP3 GT OR ISZERO PUSH2 0x99F JUMPI PUSH2 0x99E PUSH2 0x94A JUMP JUMPDEST JUMPDEST DUP1 PUSH1 0x40 MSTORE POP POP POP JUMP JUMPDEST PUSH0 PUSH2 0x9B1 PUSH2 0x780 JUMP JUMPDEST SWAP1 POP PUSH2 0x9BD DUP3 DUP3 PUSH2 0x977 JUMP JUMPDEST SWAP2 SWAP1 POP JUMP JUMPDEST PUSH0 PUSH8 0xFFFFFFFFFFFFFFFF DUP3 GT ISZERO PUSH2 0x9DC JUMPI PUSH2 0x9DB PUSH2 0x94A JUMP JUMPDEST JUMPDEST PUSH2 0x9E5 DUP3 PUSH2 0x856 JUMP JUMPDEST SWAP1 POP PUSH1 0x20 DUP2 ADD SWAP1 POP SWAP2 SWAP1 POP JUMP JUMPDEST DUP3 DUP2 DUP4 CALLDATACOPY PUSH0 DUP4 DUP4 ADD MSTORE POP POP POP JUMP JUMPDEST PUSH0 PUSH2 0xA12 PUSH2 0xA0D DUP5 PUSH2 0x9C2 JUMP JUMPDEST PUSH2 0x9A8 JUMP JUMPDEST SWAP1 POP DUP3 DUP2 MSTORE PUSH1 0x20 DUP2 ADD DUP5 DUP5 DUP5 ADD GT ISZERO PUSH2 0xA2E JUMPI PUSH2 0xA2D PUSH2 0x946 JUMP JUMPDEST JUMPDEST PUSH2 0xA39 DUP5 DUP3 DUP6 PUSH2 0x9F2 JUMP JUMPDEST POP SWAP4 SWAP3 POP POP POP JUMP JUMPDEST PUSH0 DUP3 PUSH1 0x1F DUP4 ADD SLT PUSH2 0xA55 JUMPI PUSH2 0xA54 PUSH2 0x942 JUMP JUMPDEST JUMPDEST DUP2 CALLDATALOAD PUSH2 0xA65 DUP5 DUP3 PUSH1 0x20 DUP7 ADD PUSH2 0xA00 JUMP JUMPDEST SWAP2 POP POP SWAP3 SWAP2 POP POP JUMP JUMPDEST PUSH0 DUP1 PUSH0 DUP1 PUSH1 0x80 DUP6 DUP8 SUB SLT ISZERO PUSH2 0xA86 JUMPI PUSH2 0xA85 PUSH2 0x789 JUMP JUMPDEST JUMPDEST PUSH0 DUP6 ADD CALLDATALOAD PUSH8 0xFFFFFFFFFFFFFFFF DUP2 GT ISZERO PUSH2 0xAA3 JUMPI PUSH2 0xAA2 PUSH2 0x78D JUMP JUMPDEST JUMPDEST PUSH2 0xAAF DUP8 DUP3 DUP9 ADD PUSH2 0xA41 JUMP JUMPDEST SWAP5 POP POP PUSH1 0x20 DUP6 ADD CALLDATALOAD PUSH8 0xFFFFFFFFFFFFFFFF DUP2 GT ISZERO PUSH2 0xAD0 JUMPI PUSH2 0xACF PUSH2 0x78D JUMP JUMPDEST JUMPDEST PUSH2 0xADC DUP8 DUP3 DUP9 ADD PUSH2 0xA41 JUMP JUMPDEST SWAP4 POP POP PUSH1 0x40 PUSH2 0xAED DUP8 DUP3 DUP9 ADD PUSH2 0x7B0 JUMP JUMPDEST SWAP3 POP POP PUSH1 0x60 PUSH2 0xAFE DUP8 DUP3 DUP9 ADD PUSH2 0x7B0 JUMP JUMPDEST SWAP2 POP POP SWAP3 SWAP6 SWAP2 SWAP5 POP SWAP3 POP JUMP JUMPDEST PUSH32 0x4E487B7100000000000000000000000000000000000000000000000000000000 PUSH0 MSTORE PUSH1 0x32 PUSH1 0x4 MSTORE PUSH1 0x24 PUSH0 REVERT JUMPDEST PUSH32 0x43616D706169676E206E6F7420656E6465640000000000000000000000000000 PUSH0 DUP3 ADD MSTORE POP JUMP JUMPDEST PUSH0 PUSH2 0xB6B PUSH1 0x12 DUP4 PUSH2 0x838 JUMP JUMPDEST SWAP2 POP PUSH2 0xB76 DUP3 PUSH2 0xB37 JUMP JUMPDEST PUSH1 0x20 DUP3 ADD SWAP1 POP SWAP2 SWAP1 POP JUMP JUMPDEST PUSH0 PUSH1 0x20 DUP3 ADD SWAP1 POP DUP2 DUP2 SUB PUSH0 DUP4 ADD MSTORE PUSH2 0xB98 DUP2 PUSH2 0xB5F JUMP JUMPDEST SWAP1 POP SWAP2 SWAP1 POP JUMP JUMPDEST PUSH32 0x476F616C20726561636865642C206E6F20726566756E64730000000000000000 PUSH0 DUP3 ADD MSTORE POP JUMP JUMPDEST PUSH0 PUSH2 0xBD3 PUSH1 0x18 DUP4 PUSH2 0x838 JUMP JUMPDEST SWAP2 POP PUSH2 0xBDE DUP3 PUSH2 0xB9F JUMP JUMPDEST PUSH1 0x20 DUP3 ADD SWAP1 POP SWAP2 SWAP1 POP JUMP JUMPDEST PUSH0 PUSH1 0x20 DUP3 ADD SWAP1 POP DUP2 DUP2 SUB PUSH0 DUP4 ADD MSTORE PUSH2 0xC00 DUP2 PUSH2 0xBC7 JUMP JUMPDEST SWAP1 POP SWAP2 SWAP1 POP JUMP JUMPDEST PUSH32 0x4E487B7100000000000000000000000000000000000000000000000000000000 PUSH0 MSTORE PUSH1 0x22 PUSH1 0x4 MSTORE PUSH1 0x24 PUSH0 REVERT JUMPDEST PUSH0 PUSH1 0x2 DUP3 DIV SWAP1 POP PUSH1 0x1 DUP3 AND DUP1 PUSH2 0xC4B JUMPI PUSH1 0x7F DUP3 AND SWAP2 POP JUMPDEST PUSH1 0x20 DUP3 LT DUP2 SUB PUSH2 0xC5E JUMPI PUSH2 0xC5D PUSH2 0xC07 JUMP JUMPDEST JUMPDEST POP SWAP2 SWAP1 POP JUMP JUMPDEST PUSH32 0x476F616C206E6F74207265616368656420796574210000000000000000000000 PUSH0 DUP3 ADD MSTORE POP JUMP JUMPDEST PUSH0 PUSH2 0xC98 PUSH1 0x15 DUP4 PUSH2 0x838 JUMP JUMPDEST SWAP2 POP PUSH2 0xCA3 DUP3 PUSH2 0xC64 JUMP JUMPDEST PUSH1 0x20 DUP3 ADD SWAP1 POP SWAP2 SWAP1 POP JUMP JUMPDEST PUSH0 PUSH1 0x20 DUP3 ADD SWAP1 POP DUP2 DUP2 SUB PUSH0 DUP4 ADD MSTORE PUSH2 0xCC5 DUP2 PUSH2 0xC8C JUMP JUMPDEST SWAP1 POP SWAP2 SWAP1 POP JUMP JUMPDEST PUSH32 0x4E487B7100000000000000000000000000000000000000000000000000000000 PUSH0 MSTORE PUSH1 0x11 PUSH1 0x4 MSTORE PUSH1 0x24 PUSH0 REVERT JUMPDEST PUSH0 PUSH2 0xD03 DUP3 PUSH2 0x791 JUMP JUMPDEST SWAP2 POP PUSH2 0xD0E DUP4 PUSH2 0x791 JUMP JUMPDEST SWAP3 POP DUP3 DUP3 ADD SWAP1 POP DUP1 DUP3 GT ISZERO PUSH2 0xD26 JUMPI PUSH2 0xD25 PUSH2 0xCCC JUMP JUMPDEST JUMPDEST SWAP3 SWAP2 POP POP JUMP JUMPDEST PUSH0 DUP2 SWAP1 POP DUP2 PUSH0 MSTORE PUSH1 0x20 PUSH0 KECCAK256 SWAP1 POP SWAP2 SWAP1 POP JUMP JUMPDEST PUSH0 PUSH1 0x20 PUSH1 0x1F DUP4 ADD DIV SWAP1 POP SWAP2 SWAP1 POP JUMP JUMPDEST PUSH0 DUP3 DUP3 SHL SWAP1 POP SWAP3 SWAP2 POP POP JUMP JUMPDEST PUSH0 PUSH1 0x8 DUP4 MUL PUSH2 0xD88 PUSH32 0xFFFFFFFFFFFFFFFFFFFFFFFFFFFFFFFFFFFFFFFFFFFFFFFFFFFFFFFFFFFFFFFF DUP3 PUSH2 0xD4D JUMP JUMPDEST PUSH2 0xD92 DUP7 DUP4 PUSH2 0xD4D JUMP JUMPDEST SWAP6 POP DUP1 NOT DUP5 AND SWAP4 POP DUP1 DUP7 AND DUP5 OR SWAP3 POP POP POP SWAP4 SWAP3 POP POP POP JUMP JUMPDEST PUSH0 DUP2 SWAP1 POP SWAP2 SWAP1 POP JUMP JUMPDEST PUSH0 PUSH2 0xDCD PUSH2 0xDC8 PUSH2 0xDC3 DUP5 PUSH2 0x791 JUMP JUMPDEST PUSH2 0xDAA JUMP JUMPDEST PUSH2 0x791 JUMP JUMPDEST SWAP1 POP SWAP2 SWAP1 POP JUMP JUMPDEST PUSH0 DUP2 SWAP1 POP SWAP2 SWAP1 POP JUMP JUMPDEST PUSH2 0xDE6 DUP4 PUSH2 0xDB3 JUMP JUMPDEST PUSH2 0xDFA PUSH2 0xDF2 DUP3 PUSH2 0xDD4 JUMP JUMPDEST DUP5 DUP5 SLOAD PUSH2 0xD59 JUMP JUMPDEST DUP3 SSTORE POP POP POP POP JUMP JUMPDEST PUSH0 SWAP1 JUMP JUMPDEST PUSH2 0xE0E PUSH2 0xE02 JUMP JUMPDEST PUSH2 0xE19 DUP2 DUP5 DUP5 PUSH2 0xDDD JUMP JUMPDEST POP POP POP JUMP JUMPDEST JUMPDEST DUP2 DUP2 LT ISZERO PUSH2 0xE3C JUMPI PUSH2 0xE31 PUSH0 DUP3 PUSH2 0xE06 JUMP JUMPDEST PUSH1 0x1 DUP2 ADD SWAP1 POP PUSH2 0xE1F JUMP JUMPDEST POP POP JUMP JUMPDEST PUSH1 0x1F DUP3 GT ISZERO PUSH2 0xE81 JUMPI PUSH2 0xE52 DUP2 PUSH2 0xD2C JUMP JUMPDEST PUSH2 0xE5B DUP5 PUSH2 0xD3E JUMP JUMPDEST DUP2 ADD PUSH1 0x20 DUP6 LT ISZERO PUSH2 0xE6A JUMPI DUP2 SWAP1 POP JUMPDEST PUSH2 0xE7E PUSH2 0xE76 DUP6 PUSH2 0xD3E JUMP JUMPDEST DUP4 ADD DUP3 PUSH2 0xE1E JUMP JUMPDEST POP POP JUMPDEST POP POP POP JUMP JUMPDEST PUSH0 DUP3 DUP3 SHR SWAP1 POP SWAP3 SWAP2 POP POP JUMP JUMPDEST PUSH0 PUSH2 0xEA1 PUSH0 NOT DUP5 PUSH1 0x8 MUL PUSH2 0xE86 JUMP JUMPDEST NOT DUP1 DUP4 AND SWAP2 POP POP SWAP3 SWAP2 POP POP JUMP JUMPDEST PUSH0 PUSH2 0xEB9 DUP4 DUP4 PUSH2 0xE92 JUMP JUMPDEST SWAP2 POP DUP3 PUSH1 0x2 MUL DUP3 OR SWAP1 POP SWAP3 SWAP2 POP POP JUMP JUMPDEST PUSH2 0xED2 DUP3 PUSH2 0x82E JUMP JUMPDEST PUSH8 0xFFFFFFFFFFFFFFFF DUP2 GT ISZERO PUSH2 0xEEB JUMPI PUSH2 0xEEA PUSH2 0x94A JUMP JUMPDEST JUMPDEST PUSH2 0xEF5 DUP3 SLOAD PUSH2 0xC34 JUMP JUMPDEST PUSH2 0xF00 DUP3 DUP3 DUP6 PUSH2 0xE40 JUMP JUMPDEST PUSH0 PUSH1 0x20 SWAP1 POP PUSH1 0x1F DUP4 GT PUSH1 0x1 DUP2 EQ PUSH2 0xF31 JUMPI PUSH0 DUP5 ISZERO PUSH2 0xF1F JUMPI DUP3 DUP8 ADD MLOAD SWAP1 POP JUMPDEST PUSH2 0xF29 DUP6 DUP3 PUSH2 0xEAE JUMP JUMPDEST DUP7 SSTORE POP PUSH2 0xF90 JUMP JUMPDEST PUSH1 0x1F NOT DUP5 AND PUSH2 0xF3F DUP7 PUSH2 0xD2C JUMP JUMPDEST PUSH0 JUMPDEST DUP3 DUP2 LT ISZERO PUSH2 0xF66 JUMPI DUP5 DUP10 ADD MLOAD DUP3 SSTORE PUSH1 0x1 DUP3 ADD SWAP2 POP PUSH1 0x20 DUP6 ADD SWAP5 POP PUSH1 0x20 DUP2 ADD SWAP1 POP PUSH2 0xF41 JUMP JUMPDEST DUP7 DUP4 LT ISZERO PUSH2 0xF83 JUMPI DUP5 DUP10 ADD MLOAD PUSH2 0xF7F PUSH1 0x1F DUP10 AND DUP3 PUSH2 0xE92 JUMP JUMPDEST DUP4 SSTORE POP JUMPDEST PUSH1 0x1 PUSH1 0x2 DUP9 MUL ADD DUP9 SSTORE POP POP POP JUMPDEST POP POP POP POP POP POP JUMP INVALID LOG2 PUSH5 0x6970667358 0x22 SLT KECCAK256 0x24 OR MOD CALLDATACOPY PUSH14 0xCA26549055A8F91C20F658841764 SWAP11 0xCF SWAP4 0xBD 0xE0 0x2A 0xE1 SWAP6 0xBA 0xC PUSH6 0xABE464736F6C PUSH4 0x4300081A STOP CALLER "
				},
				"gasEstimates": {
					"creation": {
						"codeDepositCost": "809200",
						"executionCost": "842",
						"totalCost": "810042"
					},
					"external": {
						"campaigns(uint256)": "infinite",
						"contribute(uint256)": "infinite",
						"createCampaign(string,string,uint256,uint256)": "infinite",
						"withdrawContributions(uint256)": "infinite",
						"withdrawFunds(uint256)": "infinite"
					}
				},
				"methodIdentifiers": {
					"campaigns(uint256)": "141961bc",
					"contribute(uint256)": "c1cbbca7",
					"createCampaign(string,string,uint256,uint256)": "a318f269",
					"withdrawContributions(uint256)": "0b008fd0",
					"withdrawFunds(uint256)": "155dd5ee"
				}
			},
			"storageLayout": {
				"storage": [
					{
						"astId": 24,
						"contract": "contracts/Crowdfunding.sol:Crowdfunding",
						"label": "campaigns",
						"offset": 0,
						"slot": "0",
						"type": "t_array(t_struct(Campaign)20_storage)dyn_storage"
					}
				],
				"types": {
					"t_address": {
						"encoding": "inplace",
						"label": "address",
						"numberOfBytes": "20"
					},
					"t_address_payable": {
						"encoding": "inplace",
						"label": "address payable",
						"numberOfBytes": "20"
					},
					"t_array(t_struct(Campaign)20_storage)dyn_storage": {
						"base": "t_struct(Campaign)20_storage",
						"encoding": "dynamic_array",
						"label": "struct Crowdfunding.Campaign[]",
						"numberOfBytes": "32"
					},
					"t_bool": {
						"encoding": "inplace",
						"label": "bool",
						"numberOfBytes": "1"
					},
					"t_mapping(t_address,t_uint256)": {
						"encoding": "mapping",
						"key": "t_address",
						"label": "mapping(address => uint256)",
						"numberOfBytes": "32",
						"value": "t_uint256"
					},
					"t_string_storage": {
						"encoding": "bytes",
						"label": "string",
						"numberOfBytes": "32"
					},
					"t_struct(Campaign)20_storage": {
						"encoding": "inplace",
						"label": "struct Crowdfunding.Campaign",
						"members": [
							{
								"astId": 3,
								"contract": "contracts/Crowdfunding.sol:Crowdfunding",
								"label": "creator",
								"offset": 0,
								"slot": "0",
								"type": "t_address_payable"
							},
							{
								"astId": 5,
								"contract": "contracts/Crowdfunding.sol:Crowdfunding",
								"label": "title",
								"offset": 0,
								"slot": "1",
								"type": "t_string_storage"
							},
							{
								"astId": 7,
								"contract": "contracts/Crowdfunding.sol:Crowdfunding",
								"label": "description",
								"offset": 0,
								"slot": "2",
								"type": "t_string_storage"
							},
							{
								"astId": 9,
								"contract": "contracts/Crowdfunding.sol:Crowdfunding",
								"label": "goal",
								"offset": 0,
								"slot": "3",
								"type": "t_uint256"
							},
							{
								"astId": 11,
								"contract": "contracts/Crowdfunding.sol:Crowdfunding",
								"label": "totalFunds",
								"offset": 0,
								"slot": "4",
								"type": "t_uint256"
							},
							{
								"astId": 13,
								"contract": "contracts/Crowdfunding.sol:Crowdfunding",
								"label": "deadline",
								"offset": 0,
								"slot": "5",
								"type": "t_uint256"
							},
							{
								"astId": 15,
								"contract": "contracts/Crowdfunding.sol:Crowdfunding",
								"label": "goalReached",
								"offset": 0,
								"slot": "6",
								"type": "t_bool"
							},
							{
								"astId": 19,
								"contract": "contracts/Crowdfunding.sol:Crowdfunding",
								"label": "funder",
								"offset": 0,
								"slot": "7",
								"type": "t_mapping(t_address,t_uint256)"
							}
						],
						"numberOfBytes": "256"
					},
					"t_uint256": {
						"encoding": "inplace",
						"label": "uint256",
						"numberOfBytes": "32"
					}
				}
			},
			"userdoc": {
				"kind": "user",
				"methods": {},
				"version": 1
			}
		}
	}
}