{
	"contracts/Crowdfunding.sol": {
		"Crowdfunding": {
			"abi": [
				{
					"anonymous": false,
					"inputs": [
						{
							"indexed": true,
							"internalType": "uint256",
							"name": "campaignId",
							"type": "uint256"
						},
						{
							"indexed": false,
							"internalType": "address",
							"name": "creator",
							"type": "address"
						}
					],
					"name": "CampaignCreated",
					"type": "event"
				},
				{
					"anonymous": false,
					"inputs": [
						{
							"indexed": true,
							"internalType": "uint256",
							"name": "campaignId",
							"type": "uint256"
						},
						{
							"indexed": false,
							"internalType": "address",
							"name": "contributor",
							"type": "address"
						},
						{
							"indexed": false,
							"internalType": "uint256",
							"name": "amount",
							"type": "uint256"
						}
					],
					"name": "ContributionMade",
					"type": "event"
				},
				{
					"anonymous": false,
					"inputs": [
						{
							"indexed": true,
							"internalType": "uint256",
							"name": "campaignId",
							"type": "uint256"
						},
						{
							"indexed": false,
							"internalType": "address",
							"name": "contributor",
							"type": "address"
						},
						{
							"indexed": false,
							"internalType": "uint256",
							"name": "amount",
							"type": "uint256"
						}
					],
					"name": "ContributionWithdrawn",
					"type": "event"
				},
				{
					"anonymous": false,
					"inputs": [
						{
							"indexed": true,
							"internalType": "uint256",
							"name": "campaignId",
							"type": "uint256"
						},
						{
							"indexed": false,
							"internalType": "address",
							"name": "creator",
							"type": "address"
						},
						{
							"indexed": false,
							"internalType": "uint256",
							"name": "amount",
							"type": "uint256"
						}
					],
					"name": "FundsWithdrawn",
					"type": "event"
				},
				{
					"inputs": [
						{
							"internalType": "uint256",
							"name": "",
							"type": "uint256"
						}
					],
					"name": "campaigns",
					"outputs": [
						{
							"internalType": "address payable",
							"name": "creator",
							"type": "address"
						},
						{
							"internalType": "string",
							"name": "title",
							"type": "string"
						},
						{
							"internalType": "string",
							"name": "description",
							"type": "string"
						},
						{
							"internalType": "uint256",
							"name": "goal",
							"type": "uint256"
						},
						{
							"internalType": "uint256",
							"name": "totalFunds",
							"type": "uint256"
						},
						{
							"internalType": "uint256",
							"name": "deadline",
							"type": "uint256"
						},
						{
							"internalType": "bool",
							"name": "goalReached",
							"type": "bool"
						},
						{
							"internalType": "bool",
							"name": "closed",
							"type": "bool"
						}
					],
					"stateMutability": "view",
					"type": "function"
				},
				{
					"inputs": [
						{
							"internalType": "uint256",
							"name": "campaignId",
							"type": "uint256"
						}
					],
					"name": "contribute",
					"outputs": [],
					"stateMutability": "payable",
					"type": "function"
				},
				{
					"inputs": [
						{
							"internalType": "string",
							"name": "_title",
							"type": "string"
						},
						{
							"internalType": "string",
							"name": "_description",
							"type": "string"
						},
						{
							"internalType": "uint256",
							"name": "_duration",
							"type": "uint256"
						},
						{
							"internalType": "uint256",
							"name": "_goal",
							"type": "uint256"
						}
					],
					"name": "createCampaign",
					"outputs": [],
					"stateMutability": "nonpayable",
					"type": "function"
				},
				{
					"inputs": [
						{
							"internalType": "uint256",
							"name": "_campaignId",
							"type": "uint256"
						}
					],
					"name": "withdrawContribution",
					"outputs": [],
					"stateMutability": "nonpayable",
					"type": "function"
				},
				{
					"inputs": [
						{
							"internalType": "uint256",
							"name": "_campaignId",
							"type": "uint256"
						}
					],
					"name": "withdrawFunds",
					"outputs": [],
					"stateMutability": "nonpayable",
					"type": "function"
				}
			],
			"devdoc": {
				"kind": "dev",
				"methods": {},
				"version": 1
			},
			"evm": {
				"assembly": "    /* \"contracts/Crowdfunding.sol\":58:3762  contract Crowdfunding {... */\n  mstore(0x40, 0x80)\n  callvalue\n  dup1\n  iszero\n  tag_1\n  jumpi\n  0x00\n  dup1\n  revert\ntag_1:\n  pop\n  dataSize(sub_0)\n  dup1\n  dataOffset(sub_0)\n  0x00\n  codecopy\n  0x00\n  return\nstop\n\nsub_0: assembly {\n        /* \"contracts/Crowdfunding.sol\":58:3762  contract Crowdfunding {... */\n      mstore(0x40, 0x80)\n      jumpi(tag_1, lt(calldatasize, 0x04))\n      shr(0xe0, calldataload(0x00))\n      dup1\n      0x141961bc\n      eq\n      tag_2\n      jumpi\n      dup1\n      0x155dd5ee\n      eq\n      tag_3\n      jumpi\n      dup1\n      0xa318f269\n      eq\n      tag_4\n      jumpi\n      dup1\n      0xc1cbbca7\n      eq\n      tag_5\n      jumpi\n      dup1\n      0xd25090ff\n      eq\n      tag_6\n      jumpi\n    tag_1:\n      0x00\n      dup1\n      revert\n        /* \"contracts/Crowdfunding.sol\":372:399  Campaign[] public campaigns */\n    tag_2:\n      callvalue\n      dup1\n      iszero\n      tag_7\n      jumpi\n      0x00\n      dup1\n      revert\n    tag_7:\n      pop\n      tag_8\n      0x04\n      dup1\n      calldatasize\n      sub\n      dup2\n      add\n      swap1\n      tag_9\n      swap2\n      swap1\n      tag_10\n      jump\t// in\n    tag_9:\n      tag_11\n      jump\t// in\n    tag_8:\n      mload(0x40)\n      tag_12\n      swap9\n      swap8\n      swap7\n      swap6\n      swap5\n      swap4\n      swap3\n      swap2\n      swap1\n      tag_13\n      jump\t// in\n    tag_12:\n      mload(0x40)\n      dup1\n      swap2\n      sub\n      swap1\n      return\n        /* \"contracts/Crowdfunding.sol\":2546:3138  function withdrawFunds(uint256 _campaignId) external validCampaign(_campaignId) onlyCreator(_campaignId) {... */\n    tag_3:\n      callvalue\n      dup1\n      iszero\n      tag_14\n      jumpi\n      0x00\n      dup1\n      revert\n    tag_14:\n      pop\n      tag_15\n      0x04\n      dup1\n      calldatasize\n      sub\n      dup2\n      add\n      swap1\n      tag_16\n      swap2\n      swap1\n      tag_10\n      jump\t// in\n    tag_16:\n      tag_17\n      jump\t// in\n    tag_15:\n      stop\n        /* \"contracts/Crowdfunding.sol\":1265:2002  function createCampaign(... */\n    tag_4:\n      callvalue\n      dup1\n      iszero\n      tag_18\n      jumpi\n      0x00\n      dup1\n      revert\n    tag_18:\n      pop\n      tag_19\n      0x04\n      dup1\n      calldatasize\n      sub\n      dup2\n      add\n      swap1\n      tag_20\n      swap2\n      swap1\n      tag_21\n      jump\t// in\n    tag_20:\n      tag_22\n      jump\t// in\n    tag_19:\n      stop\n        /* \"contracts/Crowdfunding.sol\":2008:2540  function contribute(uint256 campaignId) external payable validCampaign(campaignId) campaignActive(campaignId) {... */\n    tag_5:\n      tag_23\n      0x04\n      dup1\n      calldatasize\n      sub\n      dup2\n      add\n      swap1\n      tag_24\n      swap2\n      swap1\n      tag_10\n      jump\t// in\n    tag_24:\n      tag_25\n      jump\t// in\n    tag_23:\n      stop\n        /* \"contracts/Crowdfunding.sol\":3144:3760  function withdrawContribution(uint256 _campaignId) external validCampaign(_campaignId) {... */\n    tag_6:\n      callvalue\n      dup1\n      iszero\n      tag_26\n      jumpi\n      0x00\n      dup1\n      revert\n    tag_26:\n      pop\n      tag_27\n      0x04\n      dup1\n      calldatasize\n      sub\n      dup2\n      add\n      swap1\n      tag_28\n      swap2\n      swap1\n      tag_10\n      jump\t// in\n    tag_28:\n      tag_29\n      jump\t// in\n    tag_27:\n      stop\n        /* \"contracts/Crowdfunding.sol\":372:399  Campaign[] public campaigns */\n    tag_11:\n      0x00\n      dup2\n      dup2\n      sload\n      dup2\n      lt\n      tag_30\n      jumpi\n      0x00\n      dup1\n      revert\n    tag_30:\n      swap1\n      0x00\n      mstore\n      keccak256(0x00, 0x20)\n      swap1\n      0x08\n      mul\n      add\n      0x00\n      swap2\n      pop\n      swap1\n      pop\n      dup1\n      0x00\n      add\n      0x00\n      swap1\n      sload\n      swap1\n      0x0100\n      exp\n      swap1\n      div\n      0xffffffffffffffffffffffffffffffffffffffff\n      and\n      swap1\n      dup1\n      0x01\n      add\n      dup1\n      sload\n      tag_32\n      swap1\n      tag_33\n      jump\t// in\n    tag_32:\n      dup1\n      0x1f\n      add\n      0x20\n      dup1\n      swap2\n      div\n      mul\n      0x20\n      add\n      mload(0x40)\n      swap1\n      dup2\n      add\n      0x40\n      mstore\n      dup1\n      swap3\n      swap2\n      swap1\n      dup2\n      dup2\n      mstore\n      0x20\n      add\n      dup3\n      dup1\n      sload\n      tag_34\n      swap1\n      tag_33\n      jump\t// in\n    tag_34:\n      dup1\n      iszero\n      tag_35\n      jumpi\n      dup1\n      0x1f\n      lt\n      tag_36\n      jumpi\n      0x0100\n      dup1\n      dup4\n      sload\n      div\n      mul\n      dup4\n      mstore\n      swap2\n      0x20\n      add\n      swap2\n      jump(tag_35)\n    tag_36:\n      dup3\n      add\n      swap2\n      swap1\n      0x00\n      mstore\n      keccak256(0x00, 0x20)\n      swap1\n    tag_37:\n      dup2\n      sload\n      dup2\n      mstore\n      swap1\n      0x01\n      add\n      swap1\n      0x20\n      add\n      dup1\n      dup4\n      gt\n      tag_37\n      jumpi\n      dup3\n      swap1\n      sub\n      0x1f\n      and\n      dup3\n      add\n      swap2\n    tag_35:\n      pop\n      pop\n      pop\n      pop\n      pop\n      swap1\n      dup1\n      0x02\n      add\n      dup1\n      sload\n      tag_38\n      swap1\n      tag_33\n      jump\t// in\n    tag_38:\n      dup1\n      0x1f\n      add\n      0x20\n      dup1\n      swap2\n      div\n      mul\n      0x20\n      add\n      mload(0x40)\n      swap1\n      dup2\n      add\n      0x40\n      mstore\n      dup1\n      swap3\n      swap2\n      swap1\n      dup2\n      dup2\n      mstore\n      0x20\n      add\n      dup3\n      dup1\n      sload\n      tag_39\n      swap1\n      tag_33\n      jump\t// in\n    tag_39:\n      dup1\n      iszero\n      tag_40\n      jumpi\n      dup1\n      0x1f\n      lt\n      tag_41\n      jumpi\n      0x0100\n      dup1\n      dup4\n      sload\n      div\n      mul\n      dup4\n      mstore\n      swap2\n      0x20\n      add\n      swap2\n      jump(tag_40)\n    tag_41:\n      dup3\n      add\n      swap2\n      swap1\n      0x00\n      mstore\n      keccak256(0x00, 0x20)\n      swap1\n    tag_42:\n      dup2\n      sload\n      dup2\n      mstore\n      swap1\n      0x01\n      add\n      swap1\n      0x20\n      add\n      dup1\n      dup4\n      gt\n      tag_42\n      jumpi\n      dup3\n      swap1\n      sub\n      0x1f\n      and\n      dup3\n      add\n      swap2\n    tag_40:\n      pop\n      pop\n      pop\n      pop\n      pop\n      swap1\n      dup1\n      0x03\n      add\n      sload\n      swap1\n      dup1\n      0x04\n      add\n      sload\n      swap1\n      dup1\n      0x05\n      add\n      sload\n      swap1\n      dup1\n      0x06\n      add\n      0x00\n      swap1\n      sload\n      swap1\n      0x0100\n      exp\n      swap1\n      div\n      0xff\n      and\n      swap1\n      dup1\n      0x06\n      add\n      0x01\n      swap1\n      sload\n      swap1\n      0x0100\n      exp\n      swap1\n      div\n      0xff\n      and\n      swap1\n      pop\n      dup9\n      jump\t// out\n        /* \"contracts/Crowdfunding.sol\":2546:3138  function withdrawFunds(uint256 _campaignId) external validCampaign(_campaignId) onlyCreator(_campaignId) {... */\n    tag_17:\n        /* \"contracts/Crowdfunding.sol\":2613:2624  _campaignId */\n      dup1\n        /* \"contracts/Crowdfunding.sol\":482:491  campaigns */\n      0x00\n        /* \"contracts/Crowdfunding.sol\":482:498  campaigns.length */\n      dup1\n      sload\n      swap1\n      pop\n        /* \"contracts/Crowdfunding.sol\":468:479  _campaignId */\n      dup2\n        /* \"contracts/Crowdfunding.sol\":468:498  _campaignId < campaigns.length */\n      lt\n        /* \"contracts/Crowdfunding.sol\":460:522  require(_campaignId < campaigns.length, \"Invalid campaign ID\") */\n      tag_44\n      jumpi\n      mload(0x40)\n      0x08c379a000000000000000000000000000000000000000000000000000000000\n      dup2\n      mstore\n      0x04\n      add\n      tag_45\n      swap1\n      tag_46\n      jump\t// in\n    tag_45:\n      mload(0x40)\n      dup1\n      swap2\n      sub\n      swap1\n      revert\n    tag_44:\n        /* \"contracts/Crowdfunding.sol\":2638:2649  _campaignId */\n      dup2\n        /* \"contracts/Crowdfunding.sol\":640:650  msg.sender */\n      caller\n        /* \"contracts/Crowdfunding.sol\":606:650  campaigns[_campaignId].creator == msg.sender */\n      0xffffffffffffffffffffffffffffffffffffffff\n      and\n        /* \"contracts/Crowdfunding.sol\":606:615  campaigns */\n      0x00\n        /* \"contracts/Crowdfunding.sol\":616:627  _campaignId */\n      dup3\n        /* \"contracts/Crowdfunding.sol\":606:628  campaigns[_campaignId] */\n      dup2\n      sload\n      dup2\n      lt\n      tag_48\n      jumpi\n      tag_49\n      tag_50\n      jump\t// in\n    tag_49:\n    tag_48:\n      swap1\n      0x00\n      mstore\n      keccak256(0x00, 0x20)\n      swap1\n      0x08\n      mul\n      add\n        /* \"contracts/Crowdfunding.sol\":606:636  campaigns[_campaignId].creator */\n      0x00\n      add\n      0x00\n      swap1\n      sload\n      swap1\n      0x0100\n      exp\n      swap1\n      div\n      0xffffffffffffffffffffffffffffffffffffffff\n      and\n        /* \"contracts/Crowdfunding.sol\":606:650  campaigns[_campaignId].creator == msg.sender */\n      0xffffffffffffffffffffffffffffffffffffffff\n      and\n      eq\n        /* \"contracts/Crowdfunding.sol\":598:667  require(campaigns[_campaignId].creator == msg.sender, \"Unauthorized\") */\n      tag_52\n      jumpi\n      mload(0x40)\n      0x08c379a000000000000000000000000000000000000000000000000000000000\n      dup2\n      mstore\n      0x04\n      add\n      tag_53\n      swap1\n      tag_54\n      jump\t// in\n    tag_53:\n      mload(0x40)\n      dup1\n      swap2\n      sub\n      swap1\n      revert\n    tag_52:\n        /* \"contracts/Crowdfunding.sol\":2661:2686  Campaign storage campaign */\n      0x00\n        /* \"contracts/Crowdfunding.sol\":2689:2698  campaigns */\n      dup1\n        /* \"contracts/Crowdfunding.sol\":2699:2710  _campaignId */\n      dup5\n        /* \"contracts/Crowdfunding.sol\":2689:2711  campaigns[_campaignId] */\n      dup2\n      sload\n      dup2\n      lt\n      tag_56\n      jumpi\n      tag_57\n      tag_50\n      jump\t// in\n    tag_57:\n    tag_56:\n      swap1\n      0x00\n      mstore\n      keccak256(0x00, 0x20)\n      swap1\n      0x08\n      mul\n      add\n        /* \"contracts/Crowdfunding.sol\":2661:2711  Campaign storage campaign = campaigns[_campaignId] */\n      swap1\n      pop\n        /* \"contracts/Crowdfunding.sol\":2729:2737  campaign */\n      dup1\n        /* \"contracts/Crowdfunding.sol\":2729:2749  campaign.goalReached */\n      0x06\n      add\n      0x00\n      swap1\n      sload\n      swap1\n      0x0100\n      exp\n      swap1\n      div\n      0xff\n      and\n        /* \"contracts/Crowdfunding.sol\":2721:2770  require(campaign.goalReached, \"Goal not reached\") */\n      tag_59\n      jumpi\n      mload(0x40)\n      0x08c379a000000000000000000000000000000000000000000000000000000000\n      dup2\n      mstore\n      0x04\n      add\n      tag_60\n      swap1\n      tag_61\n      jump\t// in\n    tag_60:\n      mload(0x40)\n      dup1\n      swap2\n      sub\n      swap1\n      revert\n    tag_59:\n        /* \"contracts/Crowdfunding.sol\":2807:2815  campaign */\n      dup1\n        /* \"contracts/Crowdfunding.sol\":2807:2824  campaign.deadline */\n      0x05\n      add\n      sload\n        /* \"contracts/Crowdfunding.sol\":2788:2803  block.timestamp */\n      timestamp\n        /* \"contracts/Crowdfunding.sol\":2788:2824  block.timestamp >= campaign.deadline */\n      lt\n      iszero\n        /* \"contracts/Crowdfunding.sol\":2780:2848  require(block.timestamp >= campaign.deadline, \"Deadline not passed\") */\n      tag_62\n      jumpi\n      mload(0x40)\n      0x08c379a000000000000000000000000000000000000000000000000000000000\n      dup2\n      mstore\n      0x04\n      add\n      tag_63\n      swap1\n      tag_64\n      jump\t// in\n    tag_63:\n      mload(0x40)\n      dup1\n      swap2\n      sub\n      swap1\n      revert\n    tag_62:\n        /* \"contracts/Crowdfunding.sol\":2867:2875  campaign */\n      dup1\n        /* \"contracts/Crowdfunding.sol\":2867:2882  campaign.closed */\n      0x06\n      add\n      0x01\n      swap1\n      sload\n      swap1\n      0x0100\n      exp\n      swap1\n      div\n      0xff\n      and\n        /* \"contracts/Crowdfunding.sol\":2866:2882  !campaign.closed */\n      iszero\n        /* \"contracts/Crowdfunding.sol\":2858:2910  require(!campaign.closed, \"Funds already withdrawn\") */\n      tag_65\n      jumpi\n      mload(0x40)\n      0x08c379a000000000000000000000000000000000000000000000000000000000\n      dup2\n      mstore\n      0x04\n      add\n      tag_66\n      swap1\n      tag_67\n      jump\t// in\n    tag_66:\n      mload(0x40)\n      dup1\n      swap2\n      sub\n      swap1\n      revert\n    tag_65:\n        /* \"contracts/Crowdfunding.sol\":2921:2935  uint256 amount */\n      0x00\n        /* \"contracts/Crowdfunding.sol\":2938:2946  campaign */\n      dup2\n        /* \"contracts/Crowdfunding.sol\":2938:2957  campaign.totalFunds */\n      0x04\n      add\n      sload\n        /* \"contracts/Crowdfunding.sol\":2921:2957  uint256 amount = campaign.totalFunds */\n      swap1\n      pop\n        /* \"contracts/Crowdfunding.sol\":2989:2990  0 */\n      0x00\n        /* \"contracts/Crowdfunding.sol\":2967:2975  campaign */\n      dup3\n        /* \"contracts/Crowdfunding.sol\":2967:2986  campaign.totalFunds */\n      0x04\n      add\n        /* \"contracts/Crowdfunding.sol\":2967:2990  campaign.totalFunds = 0 */\n      dup2\n      swap1\n      sstore\n      pop\n        /* \"contracts/Crowdfunding.sol\":3018:3022  true */\n      0x01\n        /* \"contracts/Crowdfunding.sol\":3000:3008  campaign */\n      dup3\n        /* \"contracts/Crowdfunding.sol\":3000:3015  campaign.closed */\n      0x06\n      add\n      0x01\n        /* \"contracts/Crowdfunding.sol\":3000:3022  campaign.closed = true */\n      0x0100\n      exp\n      dup2\n      sload\n      dup2\n      0xff\n      mul\n      not\n      and\n      swap1\n      dup4\n      iszero\n      iszero\n      mul\n      or\n      swap1\n      sstore\n      pop\n        /* \"contracts/Crowdfunding.sol\":3041:3051  msg.sender */\n      caller\n        /* \"contracts/Crowdfunding.sol\":3033:3061  payable(msg.sender).transfer */\n      0xffffffffffffffffffffffffffffffffffffffff\n      and\n        /* \"contracts/Crowdfunding.sol\":3033:3069  payable(msg.sender).transfer(amount) */\n      0x08fc\n        /* \"contracts/Crowdfunding.sol\":3062:3068  amount */\n      dup3\n        /* \"contracts/Crowdfunding.sol\":3033:3069  payable(msg.sender).transfer(amount) */\n      swap1\n      dup2\n      iszero\n      mul\n      swap1\n      mload(0x40)\n      0x00\n      mload(0x40)\n      dup1\n      dup4\n      sub\n      dup2\n      dup6\n      dup9\n      dup9\n      call\n      swap4\n      pop\n      pop\n      pop\n      pop\n      iszero\n      dup1\n      iszero\n      tag_69\n      jumpi\n      returndatasize\n      0x00\n      dup1\n      returndatacopy\n      revert(0x00, returndatasize)\n    tag_69:\n      pop\n        /* \"contracts/Crowdfunding.sol\":3099:3110  _campaignId */\n      dup5\n        /* \"contracts/Crowdfunding.sol\":3084:3131  FundsWithdrawn(_campaignId, msg.sender, amount) */\n      0xf440aec6b52895984d061d622e6edeba6210f7c3e059be920663140c084560d7\n        /* \"contracts/Crowdfunding.sol\":3112:3122  msg.sender */\n      caller\n        /* \"contracts/Crowdfunding.sol\":3124:3130  amount */\n      dup4\n        /* \"contracts/Crowdfunding.sol\":3084:3131  FundsWithdrawn(_campaignId, msg.sender, amount) */\n      mload(0x40)\n      tag_70\n      swap3\n      swap2\n      swap1\n      tag_71\n      jump\t// in\n    tag_70:\n      mload(0x40)\n      dup1\n      swap2\n      sub\n      swap1\n      log2\n        /* \"contracts/Crowdfunding.sol\":2651:3138  {... */\n      pop\n      pop\n        /* \"contracts/Crowdfunding.sol\":532:533  _ */\n      pop\n        /* \"contracts/Crowdfunding.sol\":2546:3138  function withdrawFunds(uint256 _campaignId) external validCampaign(_campaignId) onlyCreator(_campaignId) {... */\n      pop\n      pop\n      jump\t// out\n        /* \"contracts/Crowdfunding.sol\":1265:2002  function createCampaign(... */\n    tag_22:\n        /* \"contracts/Crowdfunding.sol\":1450:1451  0 */\n      0x00\n        /* \"contracts/Crowdfunding.sol\":1442:1447  _goal */\n      dup2\n        /* \"contracts/Crowdfunding.sol\":1442:1451  _goal > 0 */\n      gt\n        /* \"contracts/Crowdfunding.sol\":1434:1472  require(_goal > 0, \"Goal must be > 0\") */\n      tag_73\n      jumpi\n      mload(0x40)\n      0x08c379a000000000000000000000000000000000000000000000000000000000\n      dup2\n      mstore\n      0x04\n      add\n      tag_74\n      swap1\n      tag_75\n      jump\t// in\n    tag_74:\n      mload(0x40)\n      dup1\n      swap2\n      sub\n      swap1\n      revert\n    tag_73:\n        /* \"contracts/Crowdfunding.sol\":1502:1503  0 */\n      0x00\n        /* \"contracts/Crowdfunding.sol\":1490:1499  _duration */\n      dup3\n        /* \"contracts/Crowdfunding.sol\":1490:1503  _duration > 0 */\n      gt\n        /* \"contracts/Crowdfunding.sol\":1482:1528  require(_duration > 0, \"Duration must be > 0\") */\n      tag_76\n      jumpi\n      mload(0x40)\n      0x08c379a000000000000000000000000000000000000000000000000000000000\n      dup2\n      mstore\n      0x04\n      add\n      tag_77\n      swap1\n      tag_78\n      jump\t// in\n    tag_77:\n      mload(0x40)\n      dup1\n      swap2\n      sub\n      swap1\n      revert\n    tag_76:\n        /* \"contracts/Crowdfunding.sol\":1539:1555  uint256 deadline */\n      0x00\n        /* \"contracts/Crowdfunding.sol\":1576:1585  _duration */\n      dup3\n        /* \"contracts/Crowdfunding.sol\":1558:1573  block.timestamp */\n      timestamp\n        /* \"contracts/Crowdfunding.sol\":1558:1585  block.timestamp + _duration */\n      tag_79\n      swap2\n      swap1\n      tag_80\n      jump\t// in\n    tag_79:\n        /* \"contracts/Crowdfunding.sol\":1539:1585  uint256 deadline = block.timestamp + _duration */\n      swap1\n      pop\n        /* \"contracts/Crowdfunding.sol\":1595:1623  Campaign storage newCampaign */\n      0x00\n        /* \"contracts/Crowdfunding.sol\":1626:1635  campaigns */\n      dup1\n        /* \"contracts/Crowdfunding.sol\":1626:1642  campaigns.push() */\n      0x01\n      dup2\n      0x01\n      dup2\n      sload\n      add\n      dup1\n      dup3\n      sstore\n      dup1\n      swap2\n      pop\n      pop\n      sub\n      swap1\n      0x00\n      mstore\n      keccak256(0x00, 0x20)\n      swap1\n      0x08\n      mul\n      add\n        /* \"contracts/Crowdfunding.sol\":1595:1642  Campaign storage newCampaign = campaigns.push() */\n      swap1\n      pop\n        /* \"contracts/Crowdfunding.sol\":1683:1693  msg.sender */\n      caller\n        /* \"contracts/Crowdfunding.sol\":1653:1664  newCampaign */\n      dup2\n        /* \"contracts/Crowdfunding.sol\":1653:1672  newCampaign.creator */\n      0x00\n      add\n      0x00\n        /* \"contracts/Crowdfunding.sol\":1653:1694  newCampaign.creator = payable(msg.sender) */\n      0x0100\n      exp\n      dup2\n      sload\n      dup2\n      0xffffffffffffffffffffffffffffffffffffffff\n      mul\n      not\n      and\n      swap1\n      dup4\n      0xffffffffffffffffffffffffffffffffffffffff\n      and\n      mul\n      or\n      swap1\n      sstore\n      pop\n        /* \"contracts/Crowdfunding.sol\":1724:1730  _title */\n      dup8\n      dup8\n        /* \"contracts/Crowdfunding.sol\":1704:1715  newCampaign */\n      dup3\n        /* \"contracts/Crowdfunding.sol\":1704:1721  newCampaign.title */\n      0x01\n      add\n        /* \"contracts/Crowdfunding.sol\":1704:1730  newCampaign.title = _title */\n      swap2\n      dup3\n      tag_82\n      swap3\n      swap2\n      swap1\n      tag_83\n      jump\t// in\n    tag_82:\n      pop\n        /* \"contracts/Crowdfunding.sol\":1766:1778  _description */\n      dup6\n      dup6\n        /* \"contracts/Crowdfunding.sol\":1740:1751  newCampaign */\n      dup3\n        /* \"contracts/Crowdfunding.sol\":1740:1763  newCampaign.description */\n      0x02\n      add\n        /* \"contracts/Crowdfunding.sol\":1740:1778  newCampaign.description = _description */\n      swap2\n      dup3\n      tag_84\n      swap3\n      swap2\n      swap1\n      tag_83\n      jump\t// in\n    tag_84:\n      pop\n        /* \"contracts/Crowdfunding.sol\":1807:1812  _goal */\n      dup3\n        /* \"contracts/Crowdfunding.sol\":1788:1799  newCampaign */\n      dup2\n        /* \"contracts/Crowdfunding.sol\":1788:1804  newCampaign.goal */\n      0x03\n      add\n        /* \"contracts/Crowdfunding.sol\":1788:1812  newCampaign.goal = _goal */\n      dup2\n      swap1\n      sstore\n      pop\n        /* \"contracts/Crowdfunding.sol\":1845:1853  deadline */\n      dup2\n        /* \"contracts/Crowdfunding.sol\":1822:1833  newCampaign */\n      dup2\n        /* \"contracts/Crowdfunding.sol\":1822:1842  newCampaign.deadline */\n      0x05\n      add\n        /* \"contracts/Crowdfunding.sol\":1822:1853  newCampaign.deadline = deadline */\n      dup2\n      swap1\n      sstore\n      pop\n        /* \"contracts/Crowdfunding.sol\":1889:1894  false */\n      0x00\n        /* \"contracts/Crowdfunding.sol\":1863:1874  newCampaign */\n      dup2\n        /* \"contracts/Crowdfunding.sol\":1863:1886  newCampaign.goalReached */\n      0x06\n      add\n      0x00\n        /* \"contracts/Crowdfunding.sol\":1863:1894  newCampaign.goalReached = false */\n      0x0100\n      exp\n      dup2\n      sload\n      dup2\n      0xff\n      mul\n      not\n      and\n      swap1\n      dup4\n      iszero\n      iszero\n      mul\n      or\n      swap1\n      sstore\n      pop\n        /* \"contracts/Crowdfunding.sol\":1925:1930  false */\n      0x00\n        /* \"contracts/Crowdfunding.sol\":1904:1915  newCampaign */\n      dup2\n        /* \"contracts/Crowdfunding.sol\":1904:1922  newCampaign.closed */\n      0x06\n      add\n      0x01\n        /* \"contracts/Crowdfunding.sol\":1904:1930  newCampaign.closed = false */\n      0x0100\n      exp\n      dup2\n      sload\n      dup2\n      0xff\n      mul\n      not\n      and\n      swap1\n      dup4\n      iszero\n      iszero\n      mul\n      or\n      swap1\n      sstore\n      pop\n        /* \"contracts/Crowdfunding.sol\":1981:1982  1 */\n      0x01\n        /* \"contracts/Crowdfunding.sol\":1962:1971  campaigns */\n      0x00\n        /* \"contracts/Crowdfunding.sol\":1962:1978  campaigns.length */\n      dup1\n      sload\n      swap1\n      pop\n        /* \"contracts/Crowdfunding.sol\":1962:1982  campaigns.length - 1 */\n      tag_85\n      swap2\n      swap1\n      tag_86\n      jump\t// in\n    tag_85:\n        /* \"contracts/Crowdfunding.sol\":1946:1995  CampaignCreated(campaigns.length - 1, msg.sender) */\n      0x633109eec20320eded000fc1e2634211aa7e92ba3f5b15faf6dcdafca05094e4\n        /* \"contracts/Crowdfunding.sol\":1984:1994  msg.sender */\n      caller\n        /* \"contracts/Crowdfunding.sol\":1946:1995  CampaignCreated(campaigns.length - 1, msg.sender) */\n      mload(0x40)\n      tag_87\n      swap2\n      swap1\n      tag_88\n      jump\t// in\n    tag_87:\n      mload(0x40)\n      dup1\n      swap2\n      sub\n      swap1\n      log2\n        /* \"contracts/Crowdfunding.sol\":1424:2002  {... */\n      pop\n      pop\n        /* \"contracts/Crowdfunding.sol\":1265:2002  function createCampaign(... */\n      pop\n      pop\n      pop\n      pop\n      pop\n      pop\n      jump\t// out\n        /* \"contracts/Crowdfunding.sol\":2008:2540  function contribute(uint256 campaignId) external payable validCampaign(campaignId) campaignActive(campaignId) {... */\n    tag_25:\n        /* \"contracts/Crowdfunding.sol\":2079:2089  campaignId */\n      dup1\n        /* \"contracts/Crowdfunding.sol\":482:491  campaigns */\n      0x00\n        /* \"contracts/Crowdfunding.sol\":482:498  campaigns.length */\n      dup1\n      sload\n      swap1\n      pop\n        /* \"contracts/Crowdfunding.sol\":468:479  _campaignId */\n      dup2\n        /* \"contracts/Crowdfunding.sol\":468:498  _campaignId < campaigns.length */\n      lt\n        /* \"contracts/Crowdfunding.sol\":460:522  require(_campaignId < campaigns.length, \"Invalid campaign ID\") */\n      tag_90\n      jumpi\n      mload(0x40)\n      0x08c379a000000000000000000000000000000000000000000000000000000000\n      dup2\n      mstore\n      0x04\n      add\n      tag_91\n      swap1\n      tag_46\n      jump\t// in\n    tag_91:\n      mload(0x40)\n      dup1\n      swap2\n      sub\n      swap1\n      revert\n    tag_90:\n        /* \"contracts/Crowdfunding.sol\":2106:2116  campaignId */\n      dup2\n        /* \"contracts/Crowdfunding.sol\":755:764  campaigns */\n      0x00\n        /* \"contracts/Crowdfunding.sol\":765:776  _campaignId */\n      dup2\n        /* \"contracts/Crowdfunding.sol\":755:777  campaigns[_campaignId] */\n      dup2\n      sload\n      dup2\n      lt\n      tag_93\n      jumpi\n      tag_94\n      tag_50\n      jump\t// in\n    tag_94:\n    tag_93:\n      swap1\n      0x00\n      mstore\n      keccak256(0x00, 0x20)\n      swap1\n      0x08\n      mul\n      add\n        /* \"contracts/Crowdfunding.sol\":755:784  campaigns[_campaignId].closed */\n      0x06\n      add\n      0x01\n      swap1\n      sload\n      swap1\n      0x0100\n      exp\n      swap1\n      div\n      0xff\n      and\n        /* \"contracts/Crowdfunding.sol\":754:784  !campaigns[_campaignId].closed */\n      iszero\n        /* \"contracts/Crowdfunding.sol\":746:804  require(!campaigns[_campaignId].closed, \"Campaign closed\") */\n      tag_96\n      jumpi\n      mload(0x40)\n      0x08c379a000000000000000000000000000000000000000000000000000000000\n      dup2\n      mstore\n      0x04\n      add\n      tag_97\n      swap1\n      tag_98\n      jump\t// in\n    tag_97:\n      mload(0x40)\n      dup1\n      swap2\n      sub\n      swap1\n      revert\n    tag_96:\n        /* \"contracts/Crowdfunding.sol\":840:849  campaigns */\n      0x00\n        /* \"contracts/Crowdfunding.sol\":850:861  _campaignId */\n      dup2\n        /* \"contracts/Crowdfunding.sol\":840:862  campaigns[_campaignId] */\n      dup2\n      sload\n      dup2\n      lt\n      tag_99\n      jumpi\n      tag_100\n      tag_50\n      jump\t// in\n    tag_100:\n    tag_99:\n      swap1\n      0x00\n      mstore\n      keccak256(0x00, 0x20)\n      swap1\n      0x08\n      mul\n      add\n        /* \"contracts/Crowdfunding.sol\":840:871  campaigns[_campaignId].deadline */\n      0x05\n      add\n      sload\n        /* \"contracts/Crowdfunding.sol\":822:837  block.timestamp */\n      timestamp\n        /* \"contracts/Crowdfunding.sol\":822:871  block.timestamp < campaigns[_campaignId].deadline */\n      lt\n        /* \"contracts/Crowdfunding.sol\":814:890  require(block.timestamp < campaigns[_campaignId].deadline, \"Campaign ended\") */\n      tag_102\n      jumpi\n      mload(0x40)\n      0x08c379a000000000000000000000000000000000000000000000000000000000\n      dup2\n      mstore\n      0x04\n      add\n      tag_103\n      swap1\n      tag_104\n      jump\t// in\n    tag_103:\n      mload(0x40)\n      dup1\n      swap2\n      sub\n      swap1\n      revert\n    tag_102:\n        /* \"contracts/Crowdfunding.sol\":2148:2149  0 */\n      0x00\n        /* \"contracts/Crowdfunding.sol\":2136:2145  msg.value */\n      callvalue\n        /* \"contracts/Crowdfunding.sol\":2136:2149  msg.value > 0 */\n      gt\n        /* \"contracts/Crowdfunding.sol\":2128:2178  require(msg.value > 0, \"Contribution must be > 0\") */\n      tag_106\n      jumpi\n      mload(0x40)\n      0x08c379a000000000000000000000000000000000000000000000000000000000\n      dup2\n      mstore\n      0x04\n      add\n      tag_107\n      swap1\n      tag_108\n      jump\t// in\n    tag_107:\n      mload(0x40)\n      dup1\n      swap2\n      sub\n      swap1\n      revert\n    tag_106:\n        /* \"contracts/Crowdfunding.sol\":2189:2214  Campaign storage campaign */\n      0x00\n        /* \"contracts/Crowdfunding.sol\":2217:2226  campaigns */\n      dup1\n        /* \"contracts/Crowdfunding.sol\":2227:2237  campaignId */\n      dup5\n        /* \"contracts/Crowdfunding.sol\":2217:2238  campaigns[campaignId] */\n      dup2\n      sload\n      dup2\n      lt\n      tag_109\n      jumpi\n      tag_110\n      tag_50\n      jump\t// in\n    tag_110:\n    tag_109:\n      swap1\n      0x00\n      mstore\n      keccak256(0x00, 0x20)\n      swap1\n      0x08\n      mul\n      add\n        /* \"contracts/Crowdfunding.sol\":2189:2238  Campaign storage campaign = campaigns[campaignId] */\n      swap1\n      pop\n        /* \"contracts/Crowdfunding.sol\":2286:2295  msg.value */\n      callvalue\n        /* \"contracts/Crowdfunding.sol\":2248:2256  campaign */\n      dup2\n        /* \"contracts/Crowdfunding.sol\":2248:2270  campaign.contributions */\n      0x07\n      add\n        /* \"contracts/Crowdfunding.sol\":2248:2282  campaign.contributions[msg.sender] */\n      0x00\n        /* \"contracts/Crowdfunding.sol\":2271:2281  msg.sender */\n      caller\n        /* \"contracts/Crowdfunding.sol\":2248:2282  campaign.contributions[msg.sender] */\n      0xffffffffffffffffffffffffffffffffffffffff\n      and\n      0xffffffffffffffffffffffffffffffffffffffff\n      and\n      dup2\n      mstore\n      0x20\n      add\n      swap1\n      dup2\n      mstore\n      0x20\n      add\n      0x00\n      keccak256\n      0x00\n        /* \"contracts/Crowdfunding.sol\":2248:2295  campaign.contributions[msg.sender] += msg.value */\n      dup3\n      dup3\n      sload\n      tag_112\n      swap2\n      swap1\n      tag_80\n      jump\t// in\n    tag_112:\n      swap3\n      pop\n      pop\n      dup2\n      swap1\n      sstore\n      pop\n        /* \"contracts/Crowdfunding.sol\":2328:2337  msg.value */\n      callvalue\n        /* \"contracts/Crowdfunding.sol\":2305:2313  campaign */\n      dup2\n        /* \"contracts/Crowdfunding.sol\":2305:2324  campaign.totalFunds */\n      0x04\n      add\n      0x00\n        /* \"contracts/Crowdfunding.sol\":2305:2337  campaign.totalFunds += msg.value */\n      dup3\n      dup3\n      sload\n      tag_113\n      swap2\n      swap1\n      tag_80\n      jump\t// in\n    tag_113:\n      swap3\n      pop\n      pop\n      dup2\n      swap1\n      sstore\n      pop\n        /* \"contracts/Crowdfunding.sol\":2375:2383  campaign */\n      dup1\n        /* \"contracts/Crowdfunding.sol\":2375:2388  campaign.goal */\n      0x03\n      add\n      sload\n        /* \"contracts/Crowdfunding.sol\":2352:2360  campaign */\n      dup2\n        /* \"contracts/Crowdfunding.sol\":2352:2371  campaign.totalFunds */\n      0x04\n      add\n      sload\n        /* \"contracts/Crowdfunding.sol\":2352:2388  campaign.totalFunds >= campaign.goal */\n      lt\n      iszero\n        /* \"contracts/Crowdfunding.sol\":2352:2413  campaign.totalFunds >= campaign.goal && !campaign.goalReached */\n      dup1\n      iszero\n      tag_114\n      jumpi\n      pop\n        /* \"contracts/Crowdfunding.sol\":2393:2401  campaign */\n      dup1\n        /* \"contracts/Crowdfunding.sol\":2393:2413  campaign.goalReached */\n      0x06\n      add\n      0x00\n      swap1\n      sload\n      swap1\n      0x0100\n      exp\n      swap1\n      div\n      0xff\n      and\n        /* \"contracts/Crowdfunding.sol\":2392:2413  !campaign.goalReached */\n      iszero\n        /* \"contracts/Crowdfunding.sol\":2352:2413  campaign.totalFunds >= campaign.goal && !campaign.goalReached */\n    tag_114:\n        /* \"contracts/Crowdfunding.sol\":2348:2467  if (campaign.totalFunds >= campaign.goal && !campaign.goalReached) {... */\n      iszero\n      tag_115\n      jumpi\n        /* \"contracts/Crowdfunding.sol\":2452:2456  true */\n      0x01\n        /* \"contracts/Crowdfunding.sol\":2429:2437  campaign */\n      dup2\n        /* \"contracts/Crowdfunding.sol\":2429:2449  campaign.goalReached */\n      0x06\n      add\n      0x00\n        /* \"contracts/Crowdfunding.sol\":2429:2456  campaign.goalReached = true */\n      0x0100\n      exp\n      dup2\n      sload\n      dup2\n      0xff\n      mul\n      not\n      and\n      swap1\n      dup4\n      iszero\n      iszero\n      mul\n      or\n      swap1\n      sstore\n      pop\n        /* \"contracts/Crowdfunding.sol\":2348:2467  if (campaign.totalFunds >= campaign.goal && !campaign.goalReached) {... */\n    tag_115:\n        /* \"contracts/Crowdfunding.sol\":2499:2509  campaignId */\n      dup4\n        /* \"contracts/Crowdfunding.sol\":2482:2533  ContributionMade(campaignId, msg.sender, msg.value) */\n      0x0a4a91237423e0a1766a761c7cb029311d8b95d6b1b81db1b949a70c98b4e08e\n        /* \"contracts/Crowdfunding.sol\":2511:2521  msg.sender */\n      caller\n        /* \"contracts/Crowdfunding.sol\":2523:2532  msg.value */\n      callvalue\n        /* \"contracts/Crowdfunding.sol\":2482:2533  ContributionMade(campaignId, msg.sender, msg.value) */\n      mload(0x40)\n      tag_116\n      swap3\n      swap2\n      swap1\n      tag_71\n      jump\t// in\n    tag_116:\n      mload(0x40)\n      dup1\n      swap2\n      sub\n      swap1\n      log2\n        /* \"contracts/Crowdfunding.sol\":2118:2540  {... */\n      pop\n        /* \"contracts/Crowdfunding.sol\":532:533  _ */\n      pop\n        /* \"contracts/Crowdfunding.sol\":2008:2540  function contribute(uint256 campaignId) external payable validCampaign(campaignId) campaignActive(campaignId) {... */\n      pop\n      pop\n      jump\t// out\n        /* \"contracts/Crowdfunding.sol\":3144:3760  function withdrawContribution(uint256 _campaignId) external validCampaign(_campaignId) {... */\n    tag_29:\n        /* \"contracts/Crowdfunding.sol\":3218:3229  _campaignId */\n      dup1\n        /* \"contracts/Crowdfunding.sol\":482:491  campaigns */\n      0x00\n        /* \"contracts/Crowdfunding.sol\":482:498  campaigns.length */\n      dup1\n      sload\n      swap1\n      pop\n        /* \"contracts/Crowdfunding.sol\":468:479  _campaignId */\n      dup2\n        /* \"contracts/Crowdfunding.sol\":468:498  _campaignId < campaigns.length */\n      lt\n        /* \"contracts/Crowdfunding.sol\":460:522  require(_campaignId < campaigns.length, \"Invalid campaign ID\") */\n      tag_118\n      jumpi\n      mload(0x40)\n      0x08c379a000000000000000000000000000000000000000000000000000000000\n      dup2\n      mstore\n      0x04\n      add\n      tag_119\n      swap1\n      tag_46\n      jump\t// in\n    tag_119:\n      mload(0x40)\n      dup1\n      swap2\n      sub\n      swap1\n      revert\n    tag_118:\n        /* \"contracts/Crowdfunding.sol\":3241:3266  Campaign storage campaign */\n      0x00\n        /* \"contracts/Crowdfunding.sol\":3269:3278  campaigns */\n      dup1\n        /* \"contracts/Crowdfunding.sol\":3279:3290  _campaignId */\n      dup4\n        /* \"contracts/Crowdfunding.sol\":3269:3291  campaigns[_campaignId] */\n      dup2\n      sload\n      dup2\n      lt\n      tag_121\n      jumpi\n      tag_122\n      tag_50\n      jump\t// in\n    tag_122:\n    tag_121:\n      swap1\n      0x00\n      mstore\n      keccak256(0x00, 0x20)\n      swap1\n      0x08\n      mul\n      add\n        /* \"contracts/Crowdfunding.sol\":3241:3291  Campaign storage campaign = campaigns[_campaignId] */\n      swap1\n      pop\n        /* \"contracts/Crowdfunding.sol\":3328:3336  campaign */\n      dup1\n        /* \"contracts/Crowdfunding.sol\":3328:3345  campaign.deadline */\n      0x05\n      add\n      sload\n        /* \"contracts/Crowdfunding.sol\":3309:3324  block.timestamp */\n      timestamp\n        /* \"contracts/Crowdfunding.sol\":3309:3345  block.timestamp >= campaign.deadline */\n      lt\n      iszero\n        /* \"contracts/Crowdfunding.sol\":3301:3368  require(block.timestamp >= campaign.deadline, \"Campaign not ended\") */\n      tag_124\n      jumpi\n      mload(0x40)\n      0x08c379a000000000000000000000000000000000000000000000000000000000\n      dup2\n      mstore\n      0x04\n      add\n      tag_125\n      swap1\n      tag_126\n      jump\t// in\n    tag_125:\n      mload(0x40)\n      dup1\n      swap2\n      sub\n      swap1\n      revert\n    tag_124:\n        /* \"contracts/Crowdfunding.sol\":3387:3395  campaign */\n      dup1\n        /* \"contracts/Crowdfunding.sol\":3387:3407  campaign.goalReached */\n      0x06\n      add\n      0x00\n      swap1\n      sload\n      swap1\n      0x0100\n      exp\n      swap1\n      div\n      0xff\n      and\n        /* \"contracts/Crowdfunding.sol\":3386:3407  !campaign.goalReached */\n      iszero\n        /* \"contracts/Crowdfunding.sol\":3378:3424  require(!campaign.goalReached, \"Goal reached\") */\n      tag_127\n      jumpi\n      mload(0x40)\n      0x08c379a000000000000000000000000000000000000000000000000000000000\n      dup2\n      mstore\n      0x04\n      add\n      tag_128\n      swap1\n      tag_129\n      jump\t// in\n    tag_128:\n      mload(0x40)\n      dup1\n      swap2\n      sub\n      swap1\n      revert\n    tag_127:\n        /* \"contracts/Crowdfunding.sol\":3443:3451  campaign */\n      dup1\n        /* \"contracts/Crowdfunding.sol\":3443:3458  campaign.closed */\n      0x06\n      add\n      0x01\n      swap1\n      sload\n      swap1\n      0x0100\n      exp\n      swap1\n      div\n      0xff\n      and\n        /* \"contracts/Crowdfunding.sol\":3442:3458  !campaign.closed */\n      iszero\n        /* \"contracts/Crowdfunding.sol\":3434:3478  require(!campaign.closed, \"Funds withdrawn\") */\n      tag_130\n      jumpi\n      mload(0x40)\n      0x08c379a000000000000000000000000000000000000000000000000000000000\n      dup2\n      mstore\n      0x04\n      add\n      tag_131\n      swap1\n      tag_132\n      jump\t// in\n    tag_131:\n      mload(0x40)\n      dup1\n      swap2\n      sub\n      swap1\n      revert\n    tag_130:\n        /* \"contracts/Crowdfunding.sol\":3489:3503  uint256 amount */\n      0x00\n        /* \"contracts/Crowdfunding.sol\":3506:3514  campaign */\n      dup2\n        /* \"contracts/Crowdfunding.sol\":3506:3528  campaign.contributions */\n      0x07\n      add\n        /* \"contracts/Crowdfunding.sol\":3506:3540  campaign.contributions[msg.sender] */\n      0x00\n        /* \"contracts/Crowdfunding.sol\":3529:3539  msg.sender */\n      caller\n        /* \"contracts/Crowdfunding.sol\":3506:3540  campaign.contributions[msg.sender] */\n      0xffffffffffffffffffffffffffffffffffffffff\n      and\n      0xffffffffffffffffffffffffffffffffffffffff\n      and\n      dup2\n      mstore\n      0x20\n      add\n      swap1\n      dup2\n      mstore\n      0x20\n      add\n      0x00\n      keccak256\n      sload\n        /* \"contracts/Crowdfunding.sol\":3489:3540  uint256 amount = campaign.contributions[msg.sender] */\n      swap1\n      pop\n        /* \"contracts/Crowdfunding.sol\":3567:3568  0 */\n      0x00\n        /* \"contracts/Crowdfunding.sol\":3558:3564  amount */\n      dup2\n        /* \"contracts/Crowdfunding.sol\":3558:3568  amount > 0 */\n      gt\n        /* \"contracts/Crowdfunding.sol\":3550:3589  require(amount > 0, \"No contributions\") */\n      tag_133\n      jumpi\n      mload(0x40)\n      0x08c379a000000000000000000000000000000000000000000000000000000000\n      dup2\n      mstore\n      0x04\n      add\n      tag_134\n      swap1\n      tag_135\n      jump\t// in\n    tag_134:\n      mload(0x40)\n      dup1\n      swap2\n      sub\n      swap1\n      revert\n    tag_133:\n        /* \"contracts/Crowdfunding.sol\":3637:3638  0 */\n      0x00\n        /* \"contracts/Crowdfunding.sol\":3600:3608  campaign */\n      dup3\n        /* \"contracts/Crowdfunding.sol\":3600:3622  campaign.contributions */\n      0x07\n      add\n        /* \"contracts/Crowdfunding.sol\":3600:3634  campaign.contributions[msg.sender] */\n      0x00\n        /* \"contracts/Crowdfunding.sol\":3623:3633  msg.sender */\n      caller\n        /* \"contracts/Crowdfunding.sol\":3600:3634  campaign.contributions[msg.sender] */\n      0xffffffffffffffffffffffffffffffffffffffff\n      and\n      0xffffffffffffffffffffffffffffffffffffffff\n      and\n      dup2\n      mstore\n      0x20\n      add\n      swap1\n      dup2\n      mstore\n      0x20\n      add\n      0x00\n      keccak256\n        /* \"contracts/Crowdfunding.sol\":3600:3638  campaign.contributions[msg.sender] = 0 */\n      dup2\n      swap1\n      sstore\n      pop\n        /* \"contracts/Crowdfunding.sol\":3656:3666  msg.sender */\n      caller\n        /* \"contracts/Crowdfunding.sol\":3648:3676  payable(msg.sender).transfer */\n      0xffffffffffffffffffffffffffffffffffffffff\n      and\n        /* \"contracts/Crowdfunding.sol\":3648:3684  payable(msg.sender).transfer(amount) */\n      0x08fc\n        /* \"contracts/Crowdfunding.sol\":3677:3683  amount */\n      dup3\n        /* \"contracts/Crowdfunding.sol\":3648:3684  payable(msg.sender).transfer(amount) */\n      swap1\n      dup2\n      iszero\n      mul\n      swap1\n      mload(0x40)\n      0x00\n      mload(0x40)\n      dup1\n      dup4\n      sub\n      dup2\n      dup6\n      dup9\n      dup9\n      call\n      swap4\n      pop\n      pop\n      pop\n      pop\n      iszero\n      dup1\n      iszero\n      tag_137\n      jumpi\n      returndatasize\n      0x00\n      dup1\n      returndatacopy\n      revert(0x00, returndatasize)\n    tag_137:\n      pop\n        /* \"contracts/Crowdfunding.sol\":3721:3732  _campaignId */\n      dup4\n        /* \"contracts/Crowdfunding.sol\":3699:3753  ContributionWithdrawn(_campaignId, msg.sender, amount) */\n      0xa182b2a9c58fae7e4827fbe3ac2fa1c5711191ef3f58b1fa19631feb97273bb2\n        /* \"contracts/Crowdfunding.sol\":3734:3744  msg.sender */\n      caller\n        /* \"contracts/Crowdfunding.sol\":3746:3752  amount */\n      dup4\n        /* \"contracts/Crowdfunding.sol\":3699:3753  ContributionWithdrawn(_campaignId, msg.sender, amount) */\n      mload(0x40)\n      tag_138\n      swap3\n      swap2\n      swap1\n      tag_71\n      jump\t// in\n    tag_138:\n      mload(0x40)\n      dup1\n      swap2\n      sub\n      swap1\n      log2\n        /* \"contracts/Crowdfunding.sol\":3231:3760  {... */\n      pop\n      pop\n        /* \"contracts/Crowdfunding.sol\":3144:3760  function withdrawContribution(uint256 _campaignId) external validCampaign(_campaignId) {... */\n      pop\n      pop\n      jump\t// out\n        /* \"#utility.yul\":88:205   */\n    tag_140:\n        /* \"#utility.yul\":197:198   */\n      0x00\n        /* \"#utility.yul\":194:195   */\n      dup1\n        /* \"#utility.yul\":187:199   */\n      revert\n        /* \"#utility.yul\":211:328   */\n    tag_141:\n        /* \"#utility.yul\":320:321   */\n      0x00\n        /* \"#utility.yul\":317:318   */\n      dup1\n        /* \"#utility.yul\":310:322   */\n      revert\n        /* \"#utility.yul\":334:411   */\n    tag_142:\n        /* \"#utility.yul\":371:378   */\n      0x00\n        /* \"#utility.yul\":400:405   */\n      dup2\n        /* \"#utility.yul\":389:405   */\n      swap1\n      pop\n        /* \"#utility.yul\":334:411   */\n      swap2\n      swap1\n      pop\n      jump\t// out\n        /* \"#utility.yul\":417:539   */\n    tag_143:\n        /* \"#utility.yul\":490:514   */\n      tag_215\n        /* \"#utility.yul\":508:513   */\n      dup2\n        /* \"#utility.yul\":490:514   */\n      tag_142\n      jump\t// in\n    tag_215:\n        /* \"#utility.yul\":483:488   */\n      dup2\n        /* \"#utility.yul\":480:515   */\n      eq\n        /* \"#utility.yul\":470:533   */\n      tag_216\n      jumpi\n        /* \"#utility.yul\":529:530   */\n      0x00\n        /* \"#utility.yul\":526:527   */\n      dup1\n        /* \"#utility.yul\":519:531   */\n      revert\n        /* \"#utility.yul\":470:533   */\n    tag_216:\n        /* \"#utility.yul\":417:539   */\n      pop\n      jump\t// out\n        /* \"#utility.yul\":545:684   */\n    tag_144:\n        /* \"#utility.yul\":591:596   */\n      0x00\n        /* \"#utility.yul\":629:635   */\n      dup2\n        /* \"#utility.yul\":616:636   */\n      calldataload\n        /* \"#utility.yul\":607:636   */\n      swap1\n      pop\n        /* \"#utility.yul\":645:678   */\n      tag_218\n        /* \"#utility.yul\":672:677   */\n      dup2\n        /* \"#utility.yul\":645:678   */\n      tag_143\n      jump\t// in\n    tag_218:\n        /* \"#utility.yul\":545:684   */\n      swap3\n      swap2\n      pop\n      pop\n      jump\t// out\n        /* \"#utility.yul\":690:1019   */\n    tag_10:\n        /* \"#utility.yul\":749:755   */\n      0x00\n        /* \"#utility.yul\":798:800   */\n      0x20\n        /* \"#utility.yul\":786:795   */\n      dup3\n        /* \"#utility.yul\":777:784   */\n      dup5\n        /* \"#utility.yul\":773:796   */\n      sub\n        /* \"#utility.yul\":769:801   */\n      slt\n        /* \"#utility.yul\":766:885   */\n      iszero\n      tag_220\n      jumpi\n        /* \"#utility.yul\":804:883   */\n      tag_221\n      tag_140\n      jump\t// in\n    tag_221:\n        /* \"#utility.yul\":766:885   */\n    tag_220:\n        /* \"#utility.yul\":924:925   */\n      0x00\n        /* \"#utility.yul\":949:1002   */\n      tag_222\n        /* \"#utility.yul\":994:1001   */\n      dup5\n        /* \"#utility.yul\":985:991   */\n      dup3\n        /* \"#utility.yul\":974:983   */\n      dup6\n        /* \"#utility.yul\":970:992   */\n      add\n        /* \"#utility.yul\":949:1002   */\n      tag_144\n      jump\t// in\n    tag_222:\n        /* \"#utility.yul\":939:1002   */\n      swap2\n      pop\n        /* \"#utility.yul\":895:1012   */\n      pop\n        /* \"#utility.yul\":690:1019   */\n      swap3\n      swap2\n      pop\n      pop\n      jump\t// out\n        /* \"#utility.yul\":1025:1151   */\n    tag_145:\n        /* \"#utility.yul\":1062:1069   */\n      0x00\n        /* \"#utility.yul\":1102:1144   */\n      0xffffffffffffffffffffffffffffffffffffffff\n        /* \"#utility.yul\":1095:1100   */\n      dup3\n        /* \"#utility.yul\":1091:1145   */\n      and\n        /* \"#utility.yul\":1080:1145   */\n      swap1\n      pop\n        /* \"#utility.yul\":1025:1151   */\n      swap2\n      swap1\n      pop\n      jump\t// out\n        /* \"#utility.yul\":1157:1261   */\n    tag_146:\n        /* \"#utility.yul\":1202:1209   */\n      0x00\n        /* \"#utility.yul\":1231:1255   */\n      tag_225\n        /* \"#utility.yul\":1249:1254   */\n      dup3\n        /* \"#utility.yul\":1231:1255   */\n      tag_145\n      jump\t// in\n    tag_225:\n        /* \"#utility.yul\":1220:1255   */\n      swap1\n      pop\n        /* \"#utility.yul\":1157:1261   */\n      swap2\n      swap1\n      pop\n      jump\t// out\n        /* \"#utility.yul\":1267:1409   */\n    tag_147:\n        /* \"#utility.yul\":1370:1402   */\n      tag_227\n        /* \"#utility.yul\":1396:1401   */\n      dup2\n        /* \"#utility.yul\":1370:1402   */\n      tag_146\n      jump\t// in\n    tag_227:\n        /* \"#utility.yul\":1365:1368   */\n      dup3\n        /* \"#utility.yul\":1358:1403   */\n      mstore\n        /* \"#utility.yul\":1267:1409   */\n      pop\n      pop\n      jump\t// out\n        /* \"#utility.yul\":1415:1514   */\n    tag_148:\n        /* \"#utility.yul\":1467:1473   */\n      0x00\n        /* \"#utility.yul\":1501:1506   */\n      dup2\n        /* \"#utility.yul\":1495:1507   */\n      mload\n        /* \"#utility.yul\":1485:1507   */\n      swap1\n      pop\n        /* \"#utility.yul\":1415:1514   */\n      swap2\n      swap1\n      pop\n      jump\t// out\n        /* \"#utility.yul\":1520:1689   */\n    tag_149:\n        /* \"#utility.yul\":1604:1615   */\n      0x00\n        /* \"#utility.yul\":1638:1644   */\n      dup3\n        /* \"#utility.yul\":1633:1636   */\n      dup3\n        /* \"#utility.yul\":1626:1645   */\n      mstore\n        /* \"#utility.yul\":1678:1682   */\n      0x20\n        /* \"#utility.yul\":1673:1676   */\n      dup3\n        /* \"#utility.yul\":1669:1683   */\n      add\n        /* \"#utility.yul\":1654:1683   */\n      swap1\n      pop\n        /* \"#utility.yul\":1520:1689   */\n      swap3\n      swap2\n      pop\n      pop\n      jump\t// out\n        /* \"#utility.yul\":1695:1834   */\n    tag_150:\n        /* \"#utility.yul\":1784:1790   */\n      dup3\n        /* \"#utility.yul\":1779:1782   */\n      dup2\n        /* \"#utility.yul\":1774:1777   */\n      dup4\n        /* \"#utility.yul\":1768:1791   */\n      mcopy\n        /* \"#utility.yul\":1825:1826   */\n      0x00\n        /* \"#utility.yul\":1816:1822   */\n      dup4\n        /* \"#utility.yul\":1811:1814   */\n      dup4\n        /* \"#utility.yul\":1807:1823   */\n      add\n        /* \"#utility.yul\":1800:1827   */\n      mstore\n        /* \"#utility.yul\":1695:1834   */\n      pop\n      pop\n      pop\n      jump\t// out\n        /* \"#utility.yul\":1840:1942   */\n    tag_151:\n        /* \"#utility.yul\":1881:1887   */\n      0x00\n        /* \"#utility.yul\":1932:1934   */\n      0x1f\n        /* \"#utility.yul\":1928:1935   */\n      not\n        /* \"#utility.yul\":1923:1925   */\n      0x1f\n        /* \"#utility.yul\":1916:1921   */\n      dup4\n        /* \"#utility.yul\":1912:1926   */\n      add\n        /* \"#utility.yul\":1908:1936   */\n      and\n        /* \"#utility.yul\":1898:1936   */\n      swap1\n      pop\n        /* \"#utility.yul\":1840:1942   */\n      swap2\n      swap1\n      pop\n      jump\t// out\n        /* \"#utility.yul\":1948:2325   */\n    tag_152:\n        /* \"#utility.yul\":2036:2039   */\n      0x00\n        /* \"#utility.yul\":2064:2103   */\n      tag_233\n        /* \"#utility.yul\":2097:2102   */\n      dup3\n        /* \"#utility.yul\":2064:2103   */\n      tag_148\n      jump\t// in\n    tag_233:\n        /* \"#utility.yul\":2119:2190   */\n      tag_234\n        /* \"#utility.yul\":2183:2189   */\n      dup2\n        /* \"#utility.yul\":2178:2181   */\n      dup6\n        /* \"#utility.yul\":2119:2190   */\n      tag_149\n      jump\t// in\n    tag_234:\n        /* \"#utility.yul\":2112:2190   */\n      swap4\n      pop\n        /* \"#utility.yul\":2199:2264   */\n      tag_235\n        /* \"#utility.yul\":2257:2263   */\n      dup2\n        /* \"#utility.yul\":2252:2255   */\n      dup6\n        /* \"#utility.yul\":2245:2249   */\n      0x20\n        /* \"#utility.yul\":2238:2243   */\n      dup7\n        /* \"#utility.yul\":2234:2250   */\n      add\n        /* \"#utility.yul\":2199:2264   */\n      tag_150\n      jump\t// in\n    tag_235:\n        /* \"#utility.yul\":2289:2318   */\n      tag_236\n        /* \"#utility.yul\":2311:2317   */\n      dup2\n        /* \"#utility.yul\":2289:2318   */\n      tag_151\n      jump\t// in\n    tag_236:\n        /* \"#utility.yul\":2284:2287   */\n      dup5\n        /* \"#utility.yul\":2280:2319   */\n      add\n        /* \"#utility.yul\":2273:2319   */\n      swap2\n      pop\n        /* \"#utility.yul\":2040:2325   */\n      pop\n        /* \"#utility.yul\":1948:2325   */\n      swap3\n      swap2\n      pop\n      pop\n      jump\t// out\n        /* \"#utility.yul\":2331:2449   */\n    tag_153:\n        /* \"#utility.yul\":2418:2442   */\n      tag_238\n        /* \"#utility.yul\":2436:2441   */\n      dup2\n        /* \"#utility.yul\":2418:2442   */\n      tag_142\n      jump\t// in\n    tag_238:\n        /* \"#utility.yul\":2413:2416   */\n      dup3\n        /* \"#utility.yul\":2406:2443   */\n      mstore\n        /* \"#utility.yul\":2331:2449   */\n      pop\n      pop\n      jump\t// out\n        /* \"#utility.yul\":2455:2545   */\n    tag_154:\n        /* \"#utility.yul\":2489:2496   */\n      0x00\n        /* \"#utility.yul\":2532:2537   */\n      dup2\n        /* \"#utility.yul\":2525:2538   */\n      iszero\n        /* \"#utility.yul\":2518:2539   */\n      iszero\n        /* \"#utility.yul\":2507:2539   */\n      swap1\n      pop\n        /* \"#utility.yul\":2455:2545   */\n      swap2\n      swap1\n      pop\n      jump\t// out\n        /* \"#utility.yul\":2551:2660   */\n    tag_155:\n        /* \"#utility.yul\":2632:2653   */\n      tag_241\n        /* \"#utility.yul\":2647:2652   */\n      dup2\n        /* \"#utility.yul\":2632:2653   */\n      tag_154\n      jump\t// in\n    tag_241:\n        /* \"#utility.yul\":2627:2630   */\n      dup3\n        /* \"#utility.yul\":2620:2654   */\n      mstore\n        /* \"#utility.yul\":2551:2660   */\n      pop\n      pop\n      jump\t// out\n        /* \"#utility.yul\":2666:3853   */\n    tag_13:\n        /* \"#utility.yul\":2999:3003   */\n      0x00\n        /* \"#utility.yul\":3037:3040   */\n      0x0100\n        /* \"#utility.yul\":3026:3035   */\n      dup3\n        /* \"#utility.yul\":3022:3041   */\n      add\n        /* \"#utility.yul\":3014:3041   */\n      swap1\n      pop\n        /* \"#utility.yul\":3051:3138   */\n      tag_243\n        /* \"#utility.yul\":3135:3136   */\n      0x00\n        /* \"#utility.yul\":3124:3133   */\n      dup4\n        /* \"#utility.yul\":3120:3137   */\n      add\n        /* \"#utility.yul\":3111:3117   */\n      dup12\n        /* \"#utility.yul\":3051:3138   */\n      tag_147\n      jump\t// in\n    tag_243:\n        /* \"#utility.yul\":3185:3194   */\n      dup2\n        /* \"#utility.yul\":3179:3183   */\n      dup2\n        /* \"#utility.yul\":3175:3195   */\n      sub\n        /* \"#utility.yul\":3170:3172   */\n      0x20\n        /* \"#utility.yul\":3159:3168   */\n      dup4\n        /* \"#utility.yul\":3155:3173   */\n      add\n        /* \"#utility.yul\":3148:3196   */\n      mstore\n        /* \"#utility.yul\":3213:3291   */\n      tag_244\n        /* \"#utility.yul\":3286:3290   */\n      dup2\n        /* \"#utility.yul\":3277:3283   */\n      dup11\n        /* \"#utility.yul\":3213:3291   */\n      tag_152\n      jump\t// in\n    tag_244:\n        /* \"#utility.yul\":3205:3291   */\n      swap1\n      pop\n        /* \"#utility.yul\":3338:3347   */\n      dup2\n        /* \"#utility.yul\":3332:3336   */\n      dup2\n        /* \"#utility.yul\":3328:3348   */\n      sub\n        /* \"#utility.yul\":3323:3325   */\n      0x40\n        /* \"#utility.yul\":3312:3321   */\n      dup4\n        /* \"#utility.yul\":3308:3326   */\n      add\n        /* \"#utility.yul\":3301:3349   */\n      mstore\n        /* \"#utility.yul\":3366:3444   */\n      tag_245\n        /* \"#utility.yul\":3439:3443   */\n      dup2\n        /* \"#utility.yul\":3430:3436   */\n      dup10\n        /* \"#utility.yul\":3366:3444   */\n      tag_152\n      jump\t// in\n    tag_245:\n        /* \"#utility.yul\":3358:3444   */\n      swap1\n      pop\n        /* \"#utility.yul\":3454:3526   */\n      tag_246\n        /* \"#utility.yul\":3522:3524   */\n      0x60\n        /* \"#utility.yul\":3511:3520   */\n      dup4\n        /* \"#utility.yul\":3507:3525   */\n      add\n        /* \"#utility.yul\":3498:3504   */\n      dup9\n        /* \"#utility.yul\":3454:3526   */\n      tag_153\n      jump\t// in\n    tag_246:\n        /* \"#utility.yul\":3536:3609   */\n      tag_247\n        /* \"#utility.yul\":3604:3607   */\n      0x80\n        /* \"#utility.yul\":3593:3602   */\n      dup4\n        /* \"#utility.yul\":3589:3608   */\n      add\n        /* \"#utility.yul\":3580:3586   */\n      dup8\n        /* \"#utility.yul\":3536:3609   */\n      tag_153\n      jump\t// in\n    tag_247:\n        /* \"#utility.yul\":3619:3692   */\n      tag_248\n        /* \"#utility.yul\":3687:3690   */\n      0xa0\n        /* \"#utility.yul\":3676:3685   */\n      dup4\n        /* \"#utility.yul\":3672:3691   */\n      add\n        /* \"#utility.yul\":3663:3669   */\n      dup7\n        /* \"#utility.yul\":3619:3692   */\n      tag_153\n      jump\t// in\n    tag_248:\n        /* \"#utility.yul\":3702:3769   */\n      tag_249\n        /* \"#utility.yul\":3764:3767   */\n      0xc0\n        /* \"#utility.yul\":3753:3762   */\n      dup4\n        /* \"#utility.yul\":3749:3768   */\n      add\n        /* \"#utility.yul\":3740:3746   */\n      dup6\n        /* \"#utility.yul\":3702:3769   */\n      tag_155\n      jump\t// in\n    tag_249:\n        /* \"#utility.yul\":3779:3846   */\n      tag_250\n        /* \"#utility.yul\":3841:3844   */\n      0xe0\n        /* \"#utility.yul\":3830:3839   */\n      dup4\n        /* \"#utility.yul\":3826:3845   */\n      add\n        /* \"#utility.yul\":3817:3823   */\n      dup5\n        /* \"#utility.yul\":3779:3846   */\n      tag_155\n      jump\t// in\n    tag_250:\n        /* \"#utility.yul\":2666:3853   */\n      swap10\n      swap9\n      pop\n      pop\n      pop\n      pop\n      pop\n      pop\n      pop\n      pop\n      pop\n      jump\t// out\n        /* \"#utility.yul\":3859:3976   */\n    tag_156:\n        /* \"#utility.yul\":3968:3969   */\n      0x00\n        /* \"#utility.yul\":3965:3966   */\n      dup1\n        /* \"#utility.yul\":3958:3970   */\n      revert\n        /* \"#utility.yul\":3982:4099   */\n    tag_157:\n        /* \"#utility.yul\":4091:4092   */\n      0x00\n        /* \"#utility.yul\":4088:4089   */\n      dup1\n        /* \"#utility.yul\":4081:4093   */\n      revert\n        /* \"#utility.yul\":4105:4222   */\n    tag_158:\n        /* \"#utility.yul\":4214:4215   */\n      0x00\n        /* \"#utility.yul\":4211:4212   */\n      dup1\n        /* \"#utility.yul\":4204:4216   */\n      revert\n        /* \"#utility.yul\":4242:4795   */\n    tag_159:\n        /* \"#utility.yul\":4300:4308   */\n      0x00\n        /* \"#utility.yul\":4310:4316   */\n      dup1\n        /* \"#utility.yul\":4360:4363   */\n      dup4\n        /* \"#utility.yul\":4353:4357   */\n      0x1f\n        /* \"#utility.yul\":4345:4351   */\n      dup5\n        /* \"#utility.yul\":4341:4358   */\n      add\n        /* \"#utility.yul\":4337:4364   */\n      slt\n        /* \"#utility.yul\":4327:4449   */\n      tag_255\n      jumpi\n        /* \"#utility.yul\":4368:4447   */\n      tag_256\n      tag_156\n      jump\t// in\n    tag_256:\n        /* \"#utility.yul\":4327:4449   */\n    tag_255:\n        /* \"#utility.yul\":4481:4487   */\n      dup3\n        /* \"#utility.yul\":4468:4488   */\n      calldataload\n        /* \"#utility.yul\":4458:4488   */\n      swap1\n      pop\n        /* \"#utility.yul\":4511:4529   */\n      0xffffffffffffffff\n        /* \"#utility.yul\":4503:4509   */\n      dup2\n        /* \"#utility.yul\":4500:4530   */\n      gt\n        /* \"#utility.yul\":4497:4614   */\n      iszero\n      tag_257\n      jumpi\n        /* \"#utility.yul\":4533:4612   */\n      tag_258\n      tag_157\n      jump\t// in\n    tag_258:\n        /* \"#utility.yul\":4497:4614   */\n    tag_257:\n        /* \"#utility.yul\":4647:4651   */\n      0x20\n        /* \"#utility.yul\":4639:4645   */\n      dup4\n        /* \"#utility.yul\":4635:4652   */\n      add\n        /* \"#utility.yul\":4623:4652   */\n      swap2\n      pop\n        /* \"#utility.yul\":4701:4704   */\n      dup4\n        /* \"#utility.yul\":4693:4697   */\n      0x01\n        /* \"#utility.yul\":4685:4691   */\n      dup3\n        /* \"#utility.yul\":4681:4698   */\n      mul\n        /* \"#utility.yul\":4671:4679   */\n      dup4\n        /* \"#utility.yul\":4667:4699   */\n      add\n        /* \"#utility.yul\":4664:4705   */\n      gt\n        /* \"#utility.yul\":4661:4789   */\n      iszero\n      tag_259\n      jumpi\n        /* \"#utility.yul\":4708:4787   */\n      tag_260\n      tag_158\n      jump\t// in\n    tag_260:\n        /* \"#utility.yul\":4661:4789   */\n    tag_259:\n        /* \"#utility.yul\":4242:4795   */\n      swap3\n      pop\n      swap3\n      swap1\n      pop\n      jump\t// out\n        /* \"#utility.yul\":4801:5966   */\n    tag_21:\n        /* \"#utility.yul\":4911:4917   */\n      0x00\n        /* \"#utility.yul\":4919:4925   */\n      dup1\n        /* \"#utility.yul\":4927:4933   */\n      0x00\n        /* \"#utility.yul\":4935:4941   */\n      dup1\n        /* \"#utility.yul\":4943:4949   */\n      0x00\n        /* \"#utility.yul\":4951:4957   */\n      dup1\n        /* \"#utility.yul\":5000:5003   */\n      0x80\n        /* \"#utility.yul\":4988:4997   */\n      dup8\n        /* \"#utility.yul\":4979:4986   */\n      dup10\n        /* \"#utility.yul\":4975:4998   */\n      sub\n        /* \"#utility.yul\":4971:5004   */\n      slt\n        /* \"#utility.yul\":4968:5088   */\n      iszero\n      tag_262\n      jumpi\n        /* \"#utility.yul\":5007:5086   */\n      tag_263\n      tag_140\n      jump\t// in\n    tag_263:\n        /* \"#utility.yul\":4968:5088   */\n    tag_262:\n        /* \"#utility.yul\":5155:5156   */\n      0x00\n        /* \"#utility.yul\":5144:5153   */\n      dup8\n        /* \"#utility.yul\":5140:5157   */\n      add\n        /* \"#utility.yul\":5127:5158   */\n      calldataload\n        /* \"#utility.yul\":5185:5203   */\n      0xffffffffffffffff\n        /* \"#utility.yul\":5177:5183   */\n      dup2\n        /* \"#utility.yul\":5174:5204   */\n      gt\n        /* \"#utility.yul\":5171:5288   */\n      iszero\n      tag_264\n      jumpi\n        /* \"#utility.yul\":5207:5286   */\n      tag_265\n      tag_141\n      jump\t// in\n    tag_265:\n        /* \"#utility.yul\":5171:5288   */\n    tag_264:\n        /* \"#utility.yul\":5320:5385   */\n      tag_266\n        /* \"#utility.yul\":5377:5384   */\n      dup10\n        /* \"#utility.yul\":5368:5374   */\n      dup3\n        /* \"#utility.yul\":5357:5366   */\n      dup11\n        /* \"#utility.yul\":5353:5375   */\n      add\n        /* \"#utility.yul\":5320:5385   */\n      tag_159\n      jump\t// in\n    tag_266:\n        /* \"#utility.yul\":5302:5385   */\n      swap7\n      pop\n      swap7\n      pop\n        /* \"#utility.yul\":5098:5395   */\n      pop\n        /* \"#utility.yul\":5462:5464   */\n      0x20\n        /* \"#utility.yul\":5451:5460   */\n      dup8\n        /* \"#utility.yul\":5447:5465   */\n      add\n        /* \"#utility.yul\":5434:5466   */\n      calldataload\n        /* \"#utility.yul\":5493:5511   */\n      0xffffffffffffffff\n        /* \"#utility.yul\":5485:5491   */\n      dup2\n        /* \"#utility.yul\":5482:5512   */\n      gt\n        /* \"#utility.yul\":5479:5596   */\n      iszero\n      tag_267\n      jumpi\n        /* \"#utility.yul\":5515:5594   */\n      tag_268\n      tag_141\n      jump\t// in\n    tag_268:\n        /* \"#utility.yul\":5479:5596   */\n    tag_267:\n        /* \"#utility.yul\":5628:5693   */\n      tag_269\n        /* \"#utility.yul\":5685:5692   */\n      dup10\n        /* \"#utility.yul\":5676:5682   */\n      dup3\n        /* \"#utility.yul\":5665:5674   */\n      dup11\n        /* \"#utility.yul\":5661:5683   */\n      add\n        /* \"#utility.yul\":5628:5693   */\n      tag_159\n      jump\t// in\n    tag_269:\n        /* \"#utility.yul\":5610:5693   */\n      swap5\n      pop\n      swap5\n      pop\n        /* \"#utility.yul\":5405:5703   */\n      pop\n        /* \"#utility.yul\":5742:5744   */\n      0x40\n        /* \"#utility.yul\":5768:5821   */\n      tag_270\n        /* \"#utility.yul\":5813:5820   */\n      dup10\n        /* \"#utility.yul\":5804:5810   */\n      dup3\n        /* \"#utility.yul\":5793:5802   */\n      dup11\n        /* \"#utility.yul\":5789:5811   */\n      add\n        /* \"#utility.yul\":5768:5821   */\n      tag_144\n      jump\t// in\n    tag_270:\n        /* \"#utility.yul\":5758:5821   */\n      swap3\n      pop\n        /* \"#utility.yul\":5713:5831   */\n      pop\n        /* \"#utility.yul\":5870:5872   */\n      0x60\n        /* \"#utility.yul\":5896:5949   */\n      tag_271\n        /* \"#utility.yul\":5941:5948   */\n      dup10\n        /* \"#utility.yul\":5932:5938   */\n      dup3\n        /* \"#utility.yul\":5921:5930   */\n      dup11\n        /* \"#utility.yul\":5917:5939   */\n      add\n        /* \"#utility.yul\":5896:5949   */\n      tag_144\n      jump\t// in\n    tag_271:\n        /* \"#utility.yul\":5886:5949   */\n      swap2\n      pop\n        /* \"#utility.yul\":5841:5959   */\n      pop\n        /* \"#utility.yul\":4801:5966   */\n      swap3\n      swap6\n      pop\n      swap3\n      swap6\n      pop\n      swap3\n      swap6\n      jump\t// out\n        /* \"#utility.yul\":5972:6152   */\n    tag_160:\n        /* \"#utility.yul\":6020:6097   */\n      0x4e487b7100000000000000000000000000000000000000000000000000000000\n        /* \"#utility.yul\":6017:6018   */\n      0x00\n        /* \"#utility.yul\":6010:6098   */\n      mstore\n        /* \"#utility.yul\":6117:6121   */\n      0x22\n        /* \"#utility.yul\":6114:6115   */\n      0x04\n        /* \"#utility.yul\":6107:6122   */\n      mstore\n        /* \"#utility.yul\":6141:6145   */\n      0x24\n        /* \"#utility.yul\":6138:6139   */\n      0x00\n        /* \"#utility.yul\":6131:6146   */\n      revert\n        /* \"#utility.yul\":6158:6478   */\n    tag_33:\n        /* \"#utility.yul\":6202:6208   */\n      0x00\n        /* \"#utility.yul\":6239:6240   */\n      0x02\n        /* \"#utility.yul\":6233:6237   */\n      dup3\n        /* \"#utility.yul\":6229:6241   */\n      div\n        /* \"#utility.yul\":6219:6241   */\n      swap1\n      pop\n        /* \"#utility.yul\":6286:6287   */\n      0x01\n        /* \"#utility.yul\":6280:6284   */\n      dup3\n        /* \"#utility.yul\":6276:6288   */\n      and\n        /* \"#utility.yul\":6307:6325   */\n      dup1\n        /* \"#utility.yul\":6297:6378   */\n      tag_274\n      jumpi\n        /* \"#utility.yul\":6363:6367   */\n      0x7f\n        /* \"#utility.yul\":6355:6361   */\n      dup3\n        /* \"#utility.yul\":6351:6368   */\n      and\n        /* \"#utility.yul\":6341:6368   */\n      swap2\n      pop\n        /* \"#utility.yul\":6297:6378   */\n    tag_274:\n        /* \"#utility.yul\":6425:6427   */\n      0x20\n        /* \"#utility.yul\":6417:6423   */\n      dup3\n        /* \"#utility.yul\":6414:6428   */\n      lt\n        /* \"#utility.yul\":6394:6412   */\n      dup2\n        /* \"#utility.yul\":6391:6429   */\n      sub\n        /* \"#utility.yul\":6388:6472   */\n      tag_275\n      jumpi\n        /* \"#utility.yul\":6444:6462   */\n      tag_276\n      tag_160\n      jump\t// in\n    tag_276:\n        /* \"#utility.yul\":6388:6472   */\n    tag_275:\n        /* \"#utility.yul\":6209:6478   */\n      pop\n        /* \"#utility.yul\":6158:6478   */\n      swap2\n      swap1\n      pop\n      jump\t// out\n        /* \"#utility.yul\":6484:6653   */\n    tag_161:\n        /* \"#utility.yul\":6624:6645   */\n      0x496e76616c69642063616d706169676e20494400000000000000000000000000\n        /* \"#utility.yul\":6620:6621   */\n      0x00\n        /* \"#utility.yul\":6612:6618   */\n      dup3\n        /* \"#utility.yul\":6608:6622   */\n      add\n        /* \"#utility.yul\":6601:6646   */\n      mstore\n        /* \"#utility.yul\":6484:6653   */\n      pop\n      jump\t// out\n        /* \"#utility.yul\":6659:7025   */\n    tag_162:\n        /* \"#utility.yul\":6801:6804   */\n      0x00\n        /* \"#utility.yul\":6822:6889   */\n      tag_279\n        /* \"#utility.yul\":6886:6888   */\n      0x13\n        /* \"#utility.yul\":6881:6884   */\n      dup4\n        /* \"#utility.yul\":6822:6889   */\n      tag_149\n      jump\t// in\n    tag_279:\n        /* \"#utility.yul\":6815:6889   */\n      swap2\n      pop\n        /* \"#utility.yul\":6898:6991   */\n      tag_280\n        /* \"#utility.yul\":6987:6990   */\n      dup3\n        /* \"#utility.yul\":6898:6991   */\n      tag_161\n      jump\t// in\n    tag_280:\n        /* \"#utility.yul\":7016:7018   */\n      0x20\n        /* \"#utility.yul\":7011:7014   */\n      dup3\n        /* \"#utility.yul\":7007:7019   */\n      add\n        /* \"#utility.yul\":7000:7019   */\n      swap1\n      pop\n        /* \"#utility.yul\":6659:7025   */\n      swap2\n      swap1\n      pop\n      jump\t// out\n        /* \"#utility.yul\":7031:7450   */\n    tag_46:\n        /* \"#utility.yul\":7197:7201   */\n      0x00\n        /* \"#utility.yul\":7235:7237   */\n      0x20\n        /* \"#utility.yul\":7224:7233   */\n      dup3\n        /* \"#utility.yul\":7220:7238   */\n      add\n        /* \"#utility.yul\":7212:7238   */\n      swap1\n      pop\n        /* \"#utility.yul\":7284:7293   */\n      dup2\n        /* \"#utility.yul\":7278:7282   */\n      dup2\n        /* \"#utility.yul\":7274:7294   */\n      sub\n        /* \"#utility.yul\":7270:7271   */\n      0x00\n        /* \"#utility.yul\":7259:7268   */\n      dup4\n        /* \"#utility.yul\":7255:7272   */\n      add\n        /* \"#utility.yul\":7248:7295   */\n      mstore\n        /* \"#utility.yul\":7312:7443   */\n      tag_282\n        /* \"#utility.yul\":7438:7442   */\n      dup2\n        /* \"#utility.yul\":7312:7443   */\n      tag_162\n      jump\t// in\n    tag_282:\n        /* \"#utility.yul\":7304:7443   */\n      swap1\n      pop\n        /* \"#utility.yul\":7031:7450   */\n      swap2\n      swap1\n      pop\n      jump\t// out\n        /* \"#utility.yul\":7456:7636   */\n    tag_50:\n        /* \"#utility.yul\":7504:7581   */\n      0x4e487b7100000000000000000000000000000000000000000000000000000000\n        /* \"#utility.yul\":7501:7502   */\n      0x00\n        /* \"#utility.yul\":7494:7582   */\n      mstore\n        /* \"#utility.yul\":7601:7605   */\n      0x32\n        /* \"#utility.yul\":7598:7599   */\n      0x04\n        /* \"#utility.yul\":7591:7606   */\n      mstore\n        /* \"#utility.yul\":7625:7629   */\n      0x24\n        /* \"#utility.yul\":7622:7623   */\n      0x00\n        /* \"#utility.yul\":7615:7630   */\n      revert\n        /* \"#utility.yul\":7642:7804   */\n    tag_163:\n        /* \"#utility.yul\":7782:7796   */\n      0x556e617574686f72697a65640000000000000000000000000000000000000000\n        /* \"#utility.yul\":7778:7779   */\n      0x00\n        /* \"#utility.yul\":7770:7776   */\n      dup3\n        /* \"#utility.yul\":7766:7780   */\n      add\n        /* \"#utility.yul\":7759:7797   */\n      mstore\n        /* \"#utility.yul\":7642:7804   */\n      pop\n      jump\t// out\n        /* \"#utility.yul\":7810:8176   */\n    tag_164:\n        /* \"#utility.yul\":7952:7955   */\n      0x00\n        /* \"#utility.yul\":7973:8040   */\n      tag_286\n        /* \"#utility.yul\":8037:8039   */\n      0x0c\n        /* \"#utility.yul\":8032:8035   */\n      dup4\n        /* \"#utility.yul\":7973:8040   */\n      tag_149\n      jump\t// in\n    tag_286:\n        /* \"#utility.yul\":7966:8040   */\n      swap2\n      pop\n        /* \"#utility.yul\":8049:8142   */\n      tag_287\n        /* \"#utility.yul\":8138:8141   */\n      dup3\n        /* \"#utility.yul\":8049:8142   */\n      tag_163\n      jump\t// in\n    tag_287:\n        /* \"#utility.yul\":8167:8169   */\n      0x20\n        /* \"#utility.yul\":8162:8165   */\n      dup3\n        /* \"#utility.yul\":8158:8170   */\n      add\n        /* \"#utility.yul\":8151:8170   */\n      swap1\n      pop\n        /* \"#utility.yul\":7810:8176   */\n      swap2\n      swap1\n      pop\n      jump\t// out\n        /* \"#utility.yul\":8182:8601   */\n    tag_54:\n        /* \"#utility.yul\":8348:8352   */\n      0x00\n        /* \"#utility.yul\":8386:8388   */\n      0x20\n        /* \"#utility.yul\":8375:8384   */\n      dup3\n        /* \"#utility.yul\":8371:8389   */\n      add\n        /* \"#utility.yul\":8363:8389   */\n      swap1\n      pop\n        /* \"#utility.yul\":8435:8444   */\n      dup2\n        /* \"#utility.yul\":8429:8433   */\n      dup2\n        /* \"#utility.yul\":8425:8445   */\n      sub\n        /* \"#utility.yul\":8421:8422   */\n      0x00\n        /* \"#utility.yul\":8410:8419   */\n      dup4\n        /* \"#utility.yul\":8406:8423   */\n      add\n        /* \"#utility.yul\":8399:8446   */\n      mstore\n        /* \"#utility.yul\":8463:8594   */\n      tag_289\n        /* \"#utility.yul\":8589:8593   */\n      dup2\n        /* \"#utility.yul\":8463:8594   */\n      tag_164\n      jump\t// in\n    tag_289:\n        /* \"#utility.yul\":8455:8594   */\n      swap1\n      pop\n        /* \"#utility.yul\":8182:8601   */\n      swap2\n      swap1\n      pop\n      jump\t// out\n        /* \"#utility.yul\":8607:8773   */\n    tag_165:\n        /* \"#utility.yul\":8747:8765   */\n      0x476f616c206e6f74207265616368656400000000000000000000000000000000\n        /* \"#utility.yul\":8743:8744   */\n      0x00\n        /* \"#utility.yul\":8735:8741   */\n      dup3\n        /* \"#utility.yul\":8731:8745   */\n      add\n        /* \"#utility.yul\":8724:8766   */\n      mstore\n        /* \"#utility.yul\":8607:8773   */\n      pop\n      jump\t// out\n        /* \"#utility.yul\":8779:9145   */\n    tag_166:\n        /* \"#utility.yul\":8921:8924   */\n      0x00\n        /* \"#utility.yul\":8942:9009   */\n      tag_292\n        /* \"#utility.yul\":9006:9008   */\n      0x10\n        /* \"#utility.yul\":9001:9004   */\n      dup4\n        /* \"#utility.yul\":8942:9009   */\n      tag_149\n      jump\t// in\n    tag_292:\n        /* \"#utility.yul\":8935:9009   */\n      swap2\n      pop\n        /* \"#utility.yul\":9018:9111   */\n      tag_293\n        /* \"#utility.yul\":9107:9110   */\n      dup3\n        /* \"#utility.yul\":9018:9111   */\n      tag_165\n      jump\t// in\n    tag_293:\n        /* \"#utility.yul\":9136:9138   */\n      0x20\n        /* \"#utility.yul\":9131:9134   */\n      dup3\n        /* \"#utility.yul\":9127:9139   */\n      add\n        /* \"#utility.yul\":9120:9139   */\n      swap1\n      pop\n        /* \"#utility.yul\":8779:9145   */\n      swap2\n      swap1\n      pop\n      jump\t// out\n        /* \"#utility.yul\":9151:9570   */\n    tag_61:\n        /* \"#utility.yul\":9317:9321   */\n      0x00\n        /* \"#utility.yul\":9355:9357   */\n      0x20\n        /* \"#utility.yul\":9344:9353   */\n      dup3\n        /* \"#utility.yul\":9340:9358   */\n      add\n        /* \"#utility.yul\":9332:9358   */\n      swap1\n      pop\n        /* \"#utility.yul\":9404:9413   */\n      dup2\n        /* \"#utility.yul\":9398:9402   */\n      dup2\n        /* \"#utility.yul\":9394:9414   */\n      sub\n        /* \"#utility.yul\":9390:9391   */\n      0x00\n        /* \"#utility.yul\":9379:9388   */\n      dup4\n        /* \"#utility.yul\":9375:9392   */\n      add\n        /* \"#utility.yul\":9368:9415   */\n      mstore\n        /* \"#utility.yul\":9432:9563   */\n      tag_295\n        /* \"#utility.yul\":9558:9562   */\n      dup2\n        /* \"#utility.yul\":9432:9563   */\n      tag_166\n      jump\t// in\n    tag_295:\n        /* \"#utility.yul\":9424:9563   */\n      swap1\n      pop\n        /* \"#utility.yul\":9151:9570   */\n      swap2\n      swap1\n      pop\n      jump\t// out\n        /* \"#utility.yul\":9576:9745   */\n    tag_167:\n        /* \"#utility.yul\":9716:9737   */\n      0x446561646c696e65206e6f742070617373656400000000000000000000000000\n        /* \"#utility.yul\":9712:9713   */\n      0x00\n        /* \"#utility.yul\":9704:9710   */\n      dup3\n        /* \"#utility.yul\":9700:9714   */\n      add\n        /* \"#utility.yul\":9693:9738   */\n      mstore\n        /* \"#utility.yul\":9576:9745   */\n      pop\n      jump\t// out\n        /* \"#utility.yul\":9751:10117   */\n    tag_168:\n        /* \"#utility.yul\":9893:9896   */\n      0x00\n        /* \"#utility.yul\":9914:9981   */\n      tag_298\n        /* \"#utility.yul\":9978:9980   */\n      0x13\n        /* \"#utility.yul\":9973:9976   */\n      dup4\n        /* \"#utility.yul\":9914:9981   */\n      tag_149\n      jump\t// in\n    tag_298:\n        /* \"#utility.yul\":9907:9981   */\n      swap2\n      pop\n        /* \"#utility.yul\":9990:10083   */\n      tag_299\n        /* \"#utility.yul\":10079:10082   */\n      dup3\n        /* \"#utility.yul\":9990:10083   */\n      tag_167\n      jump\t// in\n    tag_299:\n        /* \"#utility.yul\":10108:10110   */\n      0x20\n        /* \"#utility.yul\":10103:10106   */\n      dup3\n        /* \"#utility.yul\":10099:10111   */\n      add\n        /* \"#utility.yul\":10092:10111   */\n      swap1\n      pop\n        /* \"#utility.yul\":9751:10117   */\n      swap2\n      swap1\n      pop\n      jump\t// out\n        /* \"#utility.yul\":10123:10542   */\n    tag_64:\n        /* \"#utility.yul\":10289:10293   */\n      0x00\n        /* \"#utility.yul\":10327:10329   */\n      0x20\n        /* \"#utility.yul\":10316:10325   */\n      dup3\n        /* \"#utility.yul\":10312:10330   */\n      add\n        /* \"#utility.yul\":10304:10330   */\n      swap1\n      pop\n        /* \"#utility.yul\":10376:10385   */\n      dup2\n        /* \"#utility.yul\":10370:10374   */\n      dup2\n        /* \"#utility.yul\":10366:10386   */\n      sub\n        /* \"#utility.yul\":10362:10363   */\n      0x00\n        /* \"#utility.yul\":10351:10360   */\n      dup4\n        /* \"#utility.yul\":10347:10364   */\n      add\n        /* \"#utility.yul\":10340:10387   */\n      mstore\n        /* \"#utility.yul\":10404:10535   */\n      tag_301\n        /* \"#utility.yul\":10530:10534   */\n      dup2\n        /* \"#utility.yul\":10404:10535   */\n      tag_168\n      jump\t// in\n    tag_301:\n        /* \"#utility.yul\":10396:10535   */\n      swap1\n      pop\n        /* \"#utility.yul\":10123:10542   */\n      swap2\n      swap1\n      pop\n      jump\t// out\n        /* \"#utility.yul\":10548:10721   */\n    tag_169:\n        /* \"#utility.yul\":10688:10713   */\n      0x46756e647320616c72656164792077697468647261776e000000000000000000\n        /* \"#utility.yul\":10684:10685   */\n      0x00\n        /* \"#utility.yul\":10676:10682   */\n      dup3\n        /* \"#utility.yul\":10672:10686   */\n      add\n        /* \"#utility.yul\":10665:10714   */\n      mstore\n        /* \"#utility.yul\":10548:10721   */\n      pop\n      jump\t// out\n        /* \"#utility.yul\":10727:11093   */\n    tag_170:\n        /* \"#utility.yul\":10869:10872   */\n      0x00\n        /* \"#utility.yul\":10890:10957   */\n      tag_304\n        /* \"#utility.yul\":10954:10956   */\n      0x17\n        /* \"#utility.yul\":10949:10952   */\n      dup4\n        /* \"#utility.yul\":10890:10957   */\n      tag_149\n      jump\t// in\n    tag_304:\n        /* \"#utility.yul\":10883:10957   */\n      swap2\n      pop\n        /* \"#utility.yul\":10966:11059   */\n      tag_305\n        /* \"#utility.yul\":11055:11058   */\n      dup3\n        /* \"#utility.yul\":10966:11059   */\n      tag_169\n      jump\t// in\n    tag_305:\n        /* \"#utility.yul\":11084:11086   */\n      0x20\n        /* \"#utility.yul\":11079:11082   */\n      dup3\n        /* \"#utility.yul\":11075:11087   */\n      add\n        /* \"#utility.yul\":11068:11087   */\n      swap1\n      pop\n        /* \"#utility.yul\":10727:11093   */\n      swap2\n      swap1\n      pop\n      jump\t// out\n        /* \"#utility.yul\":11099:11518   */\n    tag_67:\n        /* \"#utility.yul\":11265:11269   */\n      0x00\n        /* \"#utility.yul\":11303:11305   */\n      0x20\n        /* \"#utility.yul\":11292:11301   */\n      dup3\n        /* \"#utility.yul\":11288:11306   */\n      add\n        /* \"#utility.yul\":11280:11306   */\n      swap1\n      pop\n        /* \"#utility.yul\":11352:11361   */\n      dup2\n        /* \"#utility.yul\":11346:11350   */\n      dup2\n        /* \"#utility.yul\":11342:11362   */\n      sub\n        /* \"#utility.yul\":11338:11339   */\n      0x00\n        /* \"#utility.yul\":11327:11336   */\n      dup4\n        /* \"#utility.yul\":11323:11340   */\n      add\n        /* \"#utility.yul\":11316:11363   */\n      mstore\n        /* \"#utility.yul\":11380:11511   */\n      tag_307\n        /* \"#utility.yul\":11506:11510   */\n      dup2\n        /* \"#utility.yul\":11380:11511   */\n      tag_170\n      jump\t// in\n    tag_307:\n        /* \"#utility.yul\":11372:11511   */\n      swap1\n      pop\n        /* \"#utility.yul\":11099:11518   */\n      swap2\n      swap1\n      pop\n      jump\t// out\n        /* \"#utility.yul\":11524:11620   */\n    tag_171:\n        /* \"#utility.yul\":11561:11568   */\n      0x00\n        /* \"#utility.yul\":11590:11614   */\n      tag_309\n        /* \"#utility.yul\":11608:11613   */\n      dup3\n        /* \"#utility.yul\":11590:11614   */\n      tag_145\n      jump\t// in\n    tag_309:\n        /* \"#utility.yul\":11579:11614   */\n      swap1\n      pop\n        /* \"#utility.yul\":11524:11620   */\n      swap2\n      swap1\n      pop\n      jump\t// out\n        /* \"#utility.yul\":11626:11744   */\n    tag_172:\n        /* \"#utility.yul\":11713:11737   */\n      tag_311\n        /* \"#utility.yul\":11731:11736   */\n      dup2\n        /* \"#utility.yul\":11713:11737   */\n      tag_171\n      jump\t// in\n    tag_311:\n        /* \"#utility.yul\":11708:11711   */\n      dup3\n        /* \"#utility.yul\":11701:11738   */\n      mstore\n        /* \"#utility.yul\":11626:11744   */\n      pop\n      pop\n      jump\t// out\n        /* \"#utility.yul\":11750:12082   */\n    tag_71:\n        /* \"#utility.yul\":11871:11875   */\n      0x00\n        /* \"#utility.yul\":11909:11911   */\n      0x40\n        /* \"#utility.yul\":11898:11907   */\n      dup3\n        /* \"#utility.yul\":11894:11912   */\n      add\n        /* \"#utility.yul\":11886:11912   */\n      swap1\n      pop\n        /* \"#utility.yul\":11922:11993   */\n      tag_313\n        /* \"#utility.yul\":11990:11991   */\n      0x00\n        /* \"#utility.yul\":11979:11988   */\n      dup4\n        /* \"#utility.yul\":11975:11992   */\n      add\n        /* \"#utility.yul\":11966:11972   */\n      dup6\n        /* \"#utility.yul\":11922:11993   */\n      tag_172\n      jump\t// in\n    tag_313:\n        /* \"#utility.yul\":12003:12075   */\n      tag_314\n        /* \"#utility.yul\":12071:12073   */\n      0x20\n        /* \"#utility.yul\":12060:12069   */\n      dup4\n        /* \"#utility.yul\":12056:12074   */\n      add\n        /* \"#utility.yul\":12047:12053   */\n      dup5\n        /* \"#utility.yul\":12003:12075   */\n      tag_153\n      jump\t// in\n    tag_314:\n        /* \"#utility.yul\":11750:12082   */\n      swap4\n      swap3\n      pop\n      pop\n      pop\n      jump\t// out\n        /* \"#utility.yul\":12088:12254   */\n    tag_173:\n        /* \"#utility.yul\":12228:12246   */\n      0x476f616c206d757374206265203e203000000000000000000000000000000000\n        /* \"#utility.yul\":12224:12225   */\n      0x00\n        /* \"#utility.yul\":12216:12222   */\n      dup3\n        /* \"#utility.yul\":12212:12226   */\n      add\n        /* \"#utility.yul\":12205:12247   */\n      mstore\n        /* \"#utility.yul\":12088:12254   */\n      pop\n      jump\t// out\n        /* \"#utility.yul\":12260:12626   */\n    tag_174:\n        /* \"#utility.yul\":12402:12405   */\n      0x00\n        /* \"#utility.yul\":12423:12490   */\n      tag_317\n        /* \"#utility.yul\":12487:12489   */\n      0x10\n        /* \"#utility.yul\":12482:12485   */\n      dup4\n        /* \"#utility.yul\":12423:12490   */\n      tag_149\n      jump\t// in\n    tag_317:\n        /* \"#utility.yul\":12416:12490   */\n      swap2\n      pop\n        /* \"#utility.yul\":12499:12592   */\n      tag_318\n        /* \"#utility.yul\":12588:12591   */\n      dup3\n        /* \"#utility.yul\":12499:12592   */\n      tag_173\n      jump\t// in\n    tag_318:\n        /* \"#utility.yul\":12617:12619   */\n      0x20\n        /* \"#utility.yul\":12612:12615   */\n      dup3\n        /* \"#utility.yul\":12608:12620   */\n      add\n        /* \"#utility.yul\":12601:12620   */\n      swap1\n      pop\n        /* \"#utility.yul\":12260:12626   */\n      swap2\n      swap1\n      pop\n      jump\t// out\n        /* \"#utility.yul\":12632:13051   */\n    tag_75:\n        /* \"#utility.yul\":12798:12802   */\n      0x00\n        /* \"#utility.yul\":12836:12838   */\n      0x20\n        /* \"#utility.yul\":12825:12834   */\n      dup3\n        /* \"#utility.yul\":12821:12839   */\n      add\n        /* \"#utility.yul\":12813:12839   */\n      swap1\n      pop\n        /* \"#utility.yul\":12885:12894   */\n      dup2\n        /* \"#utility.yul\":12879:12883   */\n      dup2\n        /* \"#utility.yul\":12875:12895   */\n      sub\n        /* \"#utility.yul\":12871:12872   */\n      0x00\n        /* \"#utility.yul\":12860:12869   */\n      dup4\n        /* \"#utility.yul\":12856:12873   */\n      add\n        /* \"#utility.yul\":12849:12896   */\n      mstore\n        /* \"#utility.yul\":12913:13044   */\n      tag_320\n        /* \"#utility.yul\":13039:13043   */\n      dup2\n        /* \"#utility.yul\":12913:13044   */\n      tag_174\n      jump\t// in\n    tag_320:\n        /* \"#utility.yul\":12905:13044   */\n      swap1\n      pop\n        /* \"#utility.yul\":12632:13051   */\n      swap2\n      swap1\n      pop\n      jump\t// out\n        /* \"#utility.yul\":13057:13227   */\n    tag_175:\n        /* \"#utility.yul\":13197:13219   */\n      0x4475726174696f6e206d757374206265203e2030000000000000000000000000\n        /* \"#utility.yul\":13193:13194   */\n      0x00\n        /* \"#utility.yul\":13185:13191   */\n      dup3\n        /* \"#utility.yul\":13181:13195   */\n      add\n        /* \"#utility.yul\":13174:13220   */\n      mstore\n        /* \"#utility.yul\":13057:13227   */\n      pop\n      jump\t// out\n        /* \"#utility.yul\":13233:13599   */\n    tag_176:\n        /* \"#utility.yul\":13375:13378   */\n      0x00\n        /* \"#utility.yul\":13396:13463   */\n      tag_323\n        /* \"#utility.yul\":13460:13462   */\n      0x14\n        /* \"#utility.yul\":13455:13458   */\n      dup4\n        /* \"#utility.yul\":13396:13463   */\n      tag_149\n      jump\t// in\n    tag_323:\n        /* \"#utility.yul\":13389:13463   */\n      swap2\n      pop\n        /* \"#utility.yul\":13472:13565   */\n      tag_324\n        /* \"#utility.yul\":13561:13564   */\n      dup3\n        /* \"#utility.yul\":13472:13565   */\n      tag_175\n      jump\t// in\n    tag_324:\n        /* \"#utility.yul\":13590:13592   */\n      0x20\n        /* \"#utility.yul\":13585:13588   */\n      dup3\n        /* \"#utility.yul\":13581:13593   */\n      add\n        /* \"#utility.yul\":13574:13593   */\n      swap1\n      pop\n        /* \"#utility.yul\":13233:13599   */\n      swap2\n      swap1\n      pop\n      jump\t// out\n        /* \"#utility.yul\":13605:14024   */\n    tag_78:\n        /* \"#utility.yul\":13771:13775   */\n      0x00\n        /* \"#utility.yul\":13809:13811   */\n      0x20\n        /* \"#utility.yul\":13798:13807   */\n      dup3\n        /* \"#utility.yul\":13794:13812   */\n      add\n        /* \"#utility.yul\":13786:13812   */\n      swap1\n      pop\n        /* \"#utility.yul\":13858:13867   */\n      dup2\n        /* \"#utility.yul\":13852:13856   */\n      dup2\n        /* \"#utility.yul\":13848:13868   */\n      sub\n        /* \"#utility.yul\":13844:13845   */\n      0x00\n        /* \"#utility.yul\":13833:13842   */\n      dup4\n        /* \"#utility.yul\":13829:13846   */\n      add\n        /* \"#utility.yul\":13822:13869   */\n      mstore\n        /* \"#utility.yul\":13886:14017   */\n      tag_326\n        /* \"#utility.yul\":14012:14016   */\n      dup2\n        /* \"#utility.yul\":13886:14017   */\n      tag_176\n      jump\t// in\n    tag_326:\n        /* \"#utility.yul\":13878:14017   */\n      swap1\n      pop\n        /* \"#utility.yul\":13605:14024   */\n      swap2\n      swap1\n      pop\n      jump\t// out\n        /* \"#utility.yul\":14030:14210   */\n    tag_177:\n        /* \"#utility.yul\":14078:14155   */\n      0x4e487b7100000000000000000000000000000000000000000000000000000000\n        /* \"#utility.yul\":14075:14076   */\n      0x00\n        /* \"#utility.yul\":14068:14156   */\n      mstore\n        /* \"#utility.yul\":14175:14179   */\n      0x11\n        /* \"#utility.yul\":14172:14173   */\n      0x04\n        /* \"#utility.yul\":14165:14180   */\n      mstore\n        /* \"#utility.yul\":14199:14203   */\n      0x24\n        /* \"#utility.yul\":14196:14197   */\n      0x00\n        /* \"#utility.yul\":14189:14204   */\n      revert\n        /* \"#utility.yul\":14216:14407   */\n    tag_80:\n        /* \"#utility.yul\":14256:14259   */\n      0x00\n        /* \"#utility.yul\":14275:14295   */\n      tag_329\n        /* \"#utility.yul\":14293:14294   */\n      dup3\n        /* \"#utility.yul\":14275:14295   */\n      tag_142\n      jump\t// in\n    tag_329:\n        /* \"#utility.yul\":14270:14295   */\n      swap2\n      pop\n        /* \"#utility.yul\":14309:14329   */\n      tag_330\n        /* \"#utility.yul\":14327:14328   */\n      dup4\n        /* \"#utility.yul\":14309:14329   */\n      tag_142\n      jump\t// in\n    tag_330:\n        /* \"#utility.yul\":14304:14329   */\n      swap3\n      pop\n        /* \"#utility.yul\":14352:14353   */\n      dup3\n        /* \"#utility.yul\":14349:14350   */\n      dup3\n        /* \"#utility.yul\":14345:14354   */\n      add\n        /* \"#utility.yul\":14338:14354   */\n      swap1\n      pop\n        /* \"#utility.yul\":14373:14376   */\n      dup1\n        /* \"#utility.yul\":14370:14371   */\n      dup3\n        /* \"#utility.yul\":14367:14377   */\n      gt\n        /* \"#utility.yul\":14364:14400   */\n      iszero\n      tag_331\n      jumpi\n        /* \"#utility.yul\":14380:14398   */\n      tag_332\n      tag_177\n      jump\t// in\n    tag_332:\n        /* \"#utility.yul\":14364:14400   */\n    tag_331:\n        /* \"#utility.yul\":14216:14407   */\n      swap3\n      swap2\n      pop\n      pop\n      jump\t// out\n        /* \"#utility.yul\":14413:14510   */\n    tag_178:\n        /* \"#utility.yul\":14472:14478   */\n      0x00\n        /* \"#utility.yul\":14500:14503   */\n      dup3\n        /* \"#utility.yul\":14490:14503   */\n      swap1\n      pop\n        /* \"#utility.yul\":14413:14510   */\n      swap3\n      swap2\n      pop\n      pop\n      jump\t// out\n        /* \"#utility.yul\":14516:14696   */\n    tag_179:\n        /* \"#utility.yul\":14564:14641   */\n      0x4e487b7100000000000000000000000000000000000000000000000000000000\n        /* \"#utility.yul\":14561:14562   */\n      0x00\n        /* \"#utility.yul\":14554:14642   */\n      mstore\n        /* \"#utility.yul\":14661:14665   */\n      0x41\n        /* \"#utility.yul\":14658:14659   */\n      0x04\n        /* \"#utility.yul\":14651:14666   */\n      mstore\n        /* \"#utility.yul\":14685:14689   */\n      0x24\n        /* \"#utility.yul\":14682:14683   */\n      0x00\n        /* \"#utility.yul\":14675:14690   */\n      revert\n        /* \"#utility.yul\":14702:14843   */\n    tag_180:\n        /* \"#utility.yul\":14751:14755   */\n      0x00\n        /* \"#utility.yul\":14774:14777   */\n      dup2\n        /* \"#utility.yul\":14766:14777   */\n      swap1\n      pop\n        /* \"#utility.yul\":14797:14800   */\n      dup2\n        /* \"#utility.yul\":14794:14795   */\n      0x00\n        /* \"#utility.yul\":14787:14801   */\n      mstore\n        /* \"#utility.yul\":14831:14835   */\n      0x20\n        /* \"#utility.yul\":14828:14829   */\n      0x00\n        /* \"#utility.yul\":14818:14836   */\n      keccak256\n        /* \"#utility.yul\":14810:14836   */\n      swap1\n      pop\n        /* \"#utility.yul\":14702:14843   */\n      swap2\n      swap1\n      pop\n      jump\t// out\n        /* \"#utility.yul\":14849:14942   */\n    tag_181:\n        /* \"#utility.yul\":14886:14892   */\n      0x00\n        /* \"#utility.yul\":14933:14935   */\n      0x20\n        /* \"#utility.yul\":14928:14930   */\n      0x1f\n        /* \"#utility.yul\":14921:14926   */\n      dup4\n        /* \"#utility.yul\":14917:14931   */\n      add\n        /* \"#utility.yul\":14913:14936   */\n      div\n        /* \"#utility.yul\":14903:14936   */\n      swap1\n      pop\n        /* \"#utility.yul\":14849:14942   */\n      swap2\n      swap1\n      pop\n      jump\t// out\n        /* \"#utility.yul\":14948:15055   */\n    tag_182:\n        /* \"#utility.yul\":14992:15000   */\n      0x00\n        /* \"#utility.yul\":15042:15047   */\n      dup3\n        /* \"#utility.yul\":15036:15040   */\n      dup3\n        /* \"#utility.yul\":15032:15048   */\n      shl\n        /* \"#utility.yul\":15011:15048   */\n      swap1\n      pop\n        /* \"#utility.yul\":14948:15055   */\n      swap3\n      swap2\n      pop\n      pop\n      jump\t// out\n        /* \"#utility.yul\":15061:15454   */\n    tag_183:\n        /* \"#utility.yul\":15130:15136   */\n      0x00\n        /* \"#utility.yul\":15180:15181   */\n      0x08\n        /* \"#utility.yul\":15168:15178   */\n      dup4\n        /* \"#utility.yul\":15164:15182   */\n      mul\n        /* \"#utility.yul\":15203:15300   */\n      tag_339\n        /* \"#utility.yul\":15233:15299   */\n      0xffffffffffffffffffffffffffffffffffffffffffffffffffffffffffffffff\n        /* \"#utility.yul\":15222:15231   */\n      dup3\n        /* \"#utility.yul\":15203:15300   */\n      tag_182\n      jump\t// in\n    tag_339:\n        /* \"#utility.yul\":15321:15360   */\n      tag_340\n        /* \"#utility.yul\":15351:15359   */\n      dup7\n        /* \"#utility.yul\":15340:15349   */\n      dup4\n        /* \"#utility.yul\":15321:15360   */\n      tag_182\n      jump\t// in\n    tag_340:\n        /* \"#utility.yul\":15309:15360   */\n      swap6\n      pop\n        /* \"#utility.yul\":15393:15397   */\n      dup1\n        /* \"#utility.yul\":15389:15398   */\n      not\n        /* \"#utility.yul\":15382:15387   */\n      dup5\n        /* \"#utility.yul\":15378:15399   */\n      and\n        /* \"#utility.yul\":15369:15399   */\n      swap4\n      pop\n        /* \"#utility.yul\":15442:15446   */\n      dup1\n        /* \"#utility.yul\":15432:15440   */\n      dup7\n        /* \"#utility.yul\":15428:15447   */\n      and\n        /* \"#utility.yul\":15421:15426   */\n      dup5\n        /* \"#utility.yul\":15418:15448   */\n      or\n        /* \"#utility.yul\":15408:15448   */\n      swap3\n      pop\n        /* \"#utility.yul\":15137:15454   */\n      pop\n      pop\n        /* \"#utility.yul\":15061:15454   */\n      swap4\n      swap3\n      pop\n      pop\n      pop\n      jump\t// out\n        /* \"#utility.yul\":15460:15520   */\n    tag_184:\n        /* \"#utility.yul\":15488:15491   */\n      0x00\n        /* \"#utility.yul\":15509:15514   */\n      dup2\n        /* \"#utility.yul\":15502:15514   */\n      swap1\n      pop\n        /* \"#utility.yul\":15460:15520   */\n      swap2\n      swap1\n      pop\n      jump\t// out\n        /* \"#utility.yul\":15526:15668   */\n    tag_185:\n        /* \"#utility.yul\":15576:15585   */\n      0x00\n        /* \"#utility.yul\":15609:15662   */\n      tag_343\n        /* \"#utility.yul\":15627:15661   */\n      tag_344\n        /* \"#utility.yul\":15636:15660   */\n      tag_345\n        /* \"#utility.yul\":15654:15659   */\n      dup5\n        /* \"#utility.yul\":15636:15660   */\n      tag_142\n      jump\t// in\n    tag_345:\n        /* \"#utility.yul\":15627:15661   */\n      tag_184\n      jump\t// in\n    tag_344:\n        /* \"#utility.yul\":15609:15662   */\n      tag_142\n      jump\t// in\n    tag_343:\n        /* \"#utility.yul\":15596:15662   */\n      swap1\n      pop\n        /* \"#utility.yul\":15526:15668   */\n      swap2\n      swap1\n      pop\n      jump\t// out\n        /* \"#utility.yul\":15674:15749   */\n    tag_186:\n        /* \"#utility.yul\":15717:15720   */\n      0x00\n        /* \"#utility.yul\":15738:15743   */\n      dup2\n        /* \"#utility.yul\":15731:15743   */\n      swap1\n      pop\n        /* \"#utility.yul\":15674:15749   */\n      swap2\n      swap1\n      pop\n      jump\t// out\n        /* \"#utility.yul\":15755:16024   */\n    tag_187:\n        /* \"#utility.yul\":15865:15904   */\n      tag_348\n        /* \"#utility.yul\":15896:15903   */\n      dup4\n        /* \"#utility.yul\":15865:15904   */\n      tag_185\n      jump\t// in\n    tag_348:\n        /* \"#utility.yul\":15926:16017   */\n      tag_349\n        /* \"#utility.yul\":15975:16016   */\n      tag_350\n        /* \"#utility.yul\":15999:16015   */\n      dup3\n        /* \"#utility.yul\":15975:16016   */\n      tag_186\n      jump\t// in\n    tag_350:\n        /* \"#utility.yul\":15967:15973   */\n      dup5\n        /* \"#utility.yul\":15960:15964   */\n      dup5\n        /* \"#utility.yul\":15954:15965   */\n      sload\n        /* \"#utility.yul\":15926:16017   */\n      tag_183\n      jump\t// in\n    tag_349:\n        /* \"#utility.yul\":15920:15924   */\n      dup3\n        /* \"#utility.yul\":15913:16018   */\n      sstore\n        /* \"#utility.yul\":15831:16024   */\n      pop\n        /* \"#utility.yul\":15755:16024   */\n      pop\n      pop\n      pop\n      jump\t// out\n        /* \"#utility.yul\":16030:16103   */\n    tag_188:\n        /* \"#utility.yul\":16075:16078   */\n      0x00\n        /* \"#utility.yul\":16030:16103   */\n      swap1\n      jump\t// out\n        /* \"#utility.yul\":16109:16298   */\n    tag_189:\n        /* \"#utility.yul\":16186:16218   */\n      tag_353\n      tag_188\n      jump\t// in\n    tag_353:\n        /* \"#utility.yul\":16227:16292   */\n      tag_354\n        /* \"#utility.yul\":16285:16291   */\n      dup2\n        /* \"#utility.yul\":16277:16283   */\n      dup5\n        /* \"#utility.yul\":16271:16275   */\n      dup5\n        /* \"#utility.yul\":16227:16292   */\n      tag_187\n      jump\t// in\n    tag_354:\n        /* \"#utility.yul\":16162:16298   */\n      pop\n        /* \"#utility.yul\":16109:16298   */\n      pop\n      pop\n      jump\t// out\n        /* \"#utility.yul\":16304:16490   */\n    tag_190:\n        /* \"#utility.yul\":16364:16484   */\n    tag_356:\n        /* \"#utility.yul\":16381:16384   */\n      dup2\n        /* \"#utility.yul\":16374:16379   */\n      dup2\n        /* \"#utility.yul\":16371:16385   */\n      lt\n        /* \"#utility.yul\":16364:16484   */\n      iszero\n      tag_358\n      jumpi\n        /* \"#utility.yul\":16435:16474   */\n      tag_359\n        /* \"#utility.yul\":16472:16473   */\n      0x00\n        /* \"#utility.yul\":16465:16470   */\n      dup3\n        /* \"#utility.yul\":16435:16474   */\n      tag_189\n      jump\t// in\n    tag_359:\n        /* \"#utility.yul\":16408:16409   */\n      0x01\n        /* \"#utility.yul\":16401:16406   */\n      dup2\n        /* \"#utility.yul\":16397:16410   */\n      add\n        /* \"#utility.yul\":16388:16410   */\n      swap1\n      pop\n        /* \"#utility.yul\":16364:16484   */\n      jump(tag_356)\n    tag_358:\n        /* \"#utility.yul\":16304:16490   */\n      pop\n      pop\n      jump\t// out\n        /* \"#utility.yul\":16496:17039   */\n    tag_191:\n        /* \"#utility.yul\":16597:16599   */\n      0x1f\n        /* \"#utility.yul\":16592:16595   */\n      dup3\n        /* \"#utility.yul\":16589:16600   */\n      gt\n        /* \"#utility.yul\":16586:17032   */\n      iszero\n      tag_361\n      jumpi\n        /* \"#utility.yul\":16631:16669   */\n      tag_362\n        /* \"#utility.yul\":16663:16668   */\n      dup2\n        /* \"#utility.yul\":16631:16669   */\n      tag_180\n      jump\t// in\n    tag_362:\n        /* \"#utility.yul\":16715:16744   */\n      tag_363\n        /* \"#utility.yul\":16733:16743   */\n      dup5\n        /* \"#utility.yul\":16715:16744   */\n      tag_181\n      jump\t// in\n    tag_363:\n        /* \"#utility.yul\":16705:16713   */\n      dup2\n        /* \"#utility.yul\":16701:16745   */\n      add\n        /* \"#utility.yul\":16898:16900   */\n      0x20\n        /* \"#utility.yul\":16886:16896   */\n      dup6\n        /* \"#utility.yul\":16883:16901   */\n      lt\n        /* \"#utility.yul\":16880:16929   */\n      iszero\n      tag_364\n      jumpi\n        /* \"#utility.yul\":16919:16927   */\n      dup2\n        /* \"#utility.yul\":16904:16927   */\n      swap1\n      pop\n        /* \"#utility.yul\":16880:16929   */\n    tag_364:\n        /* \"#utility.yul\":16942:17022   */\n      tag_365\n        /* \"#utility.yul\":16998:17020   */\n      tag_366\n        /* \"#utility.yul\":17016:17019   */\n      dup6\n        /* \"#utility.yul\":16998:17020   */\n      tag_181\n      jump\t// in\n    tag_366:\n        /* \"#utility.yul\":16988:16996   */\n      dup4\n        /* \"#utility.yul\":16984:17021   */\n      add\n        /* \"#utility.yul\":16971:16982   */\n      dup3\n        /* \"#utility.yul\":16942:17022   */\n      tag_190\n      jump\t// in\n    tag_365:\n        /* \"#utility.yul\":16601:17032   */\n      pop\n      pop\n        /* \"#utility.yul\":16586:17032   */\n    tag_361:\n        /* \"#utility.yul\":16496:17039   */\n      pop\n      pop\n      pop\n      jump\t// out\n        /* \"#utility.yul\":17045:17162   */\n    tag_192:\n        /* \"#utility.yul\":17099:17107   */\n      0x00\n        /* \"#utility.yul\":17149:17154   */\n      dup3\n        /* \"#utility.yul\":17143:17147   */\n      dup3\n        /* \"#utility.yul\":17139:17155   */\n      shr\n        /* \"#utility.yul\":17118:17155   */\n      swap1\n      pop\n        /* \"#utility.yul\":17045:17162   */\n      swap3\n      swap2\n      pop\n      pop\n      jump\t// out\n        /* \"#utility.yul\":17168:17337   */\n    tag_193:\n        /* \"#utility.yul\":17212:17218   */\n      0x00\n        /* \"#utility.yul\":17245:17296   */\n      tag_369\n        /* \"#utility.yul\":17293:17294   */\n      0x00\n        /* \"#utility.yul\":17289:17295   */\n      not\n        /* \"#utility.yul\":17281:17286   */\n      dup5\n        /* \"#utility.yul\":17278:17279   */\n      0x08\n        /* \"#utility.yul\":17274:17287   */\n      mul\n        /* \"#utility.yul\":17245:17296   */\n      tag_192\n      jump\t// in\n    tag_369:\n        /* \"#utility.yul\":17241:17297   */\n      not\n        /* \"#utility.yul\":17326:17330   */\n      dup1\n        /* \"#utility.yul\":17320:17324   */\n      dup4\n        /* \"#utility.yul\":17316:17331   */\n      and\n        /* \"#utility.yul\":17306:17331   */\n      swap2\n      pop\n        /* \"#utility.yul\":17219:17337   */\n      pop\n        /* \"#utility.yul\":17168:17337   */\n      swap3\n      swap2\n      pop\n      pop\n      jump\t// out\n        /* \"#utility.yul\":17342:17637   */\n    tag_194:\n        /* \"#utility.yul\":17418:17422   */\n      0x00\n        /* \"#utility.yul\":17564:17593   */\n      tag_371\n        /* \"#utility.yul\":17589:17592   */\n      dup4\n        /* \"#utility.yul\":17583:17587   */\n      dup4\n        /* \"#utility.yul\":17564:17593   */\n      tag_193\n      jump\t// in\n    tag_371:\n        /* \"#utility.yul\":17556:17593   */\n      swap2\n      pop\n        /* \"#utility.yul\":17626:17629   */\n      dup3\n        /* \"#utility.yul\":17623:17624   */\n      0x02\n        /* \"#utility.yul\":17619:17630   */\n      mul\n        /* \"#utility.yul\":17613:17617   */\n      dup3\n        /* \"#utility.yul\":17610:17631   */\n      or\n        /* \"#utility.yul\":17602:17631   */\n      swap1\n      pop\n        /* \"#utility.yul\":17342:17637   */\n      swap3\n      swap2\n      pop\n      pop\n      jump\t// out\n        /* \"#utility.yul\":17642:19045   */\n    tag_83:\n        /* \"#utility.yul\":17766:17810   */\n      tag_373\n        /* \"#utility.yul\":17806:17809   */\n      dup4\n        /* \"#utility.yul\":17801:17804   */\n      dup4\n        /* \"#utility.yul\":17766:17810   */\n      tag_178\n      jump\t// in\n    tag_373:\n        /* \"#utility.yul\":17875:17893   */\n      0xffffffffffffffff\n        /* \"#utility.yul\":17867:17873   */\n      dup2\n        /* \"#utility.yul\":17864:17894   */\n      gt\n        /* \"#utility.yul\":17861:17917   */\n      iszero\n      tag_374\n      jumpi\n        /* \"#utility.yul\":17897:17915   */\n      tag_375\n      tag_179\n      jump\t// in\n    tag_375:\n        /* \"#utility.yul\":17861:17917   */\n    tag_374:\n        /* \"#utility.yul\":17941:17979   */\n      tag_376\n        /* \"#utility.yul\":17973:17977   */\n      dup3\n        /* \"#utility.yul\":17967:17978   */\n      sload\n        /* \"#utility.yul\":17941:17979   */\n      tag_33\n      jump\t// in\n    tag_376:\n        /* \"#utility.yul\":18026:18093   */\n      tag_377\n        /* \"#utility.yul\":18086:18092   */\n      dup3\n        /* \"#utility.yul\":18078:18084   */\n      dup3\n        /* \"#utility.yul\":18072:18076   */\n      dup6\n        /* \"#utility.yul\":18026:18093   */\n      tag_191\n      jump\t// in\n    tag_377:\n        /* \"#utility.yul\":18120:18121   */\n      0x00\n        /* \"#utility.yul\":18149:18151   */\n      0x1f\n        /* \"#utility.yul\":18141:18147   */\n      dup4\n        /* \"#utility.yul\":18138:18152   */\n      gt\n        /* \"#utility.yul\":18166:18167   */\n      0x01\n        /* \"#utility.yul\":18161:18793   */\n      dup2\n      eq\n      tag_379\n      jumpi\n        /* \"#utility.yul\":18837:18838   */\n      0x00\n        /* \"#utility.yul\":18854:18860   */\n      dup5\n        /* \"#utility.yul\":18851:18935   */\n      iszero\n      tag_380\n      jumpi\n        /* \"#utility.yul\":18910:18919   */\n      dup3\n        /* \"#utility.yul\":18905:18908   */\n      dup8\n        /* \"#utility.yul\":18901:18920   */\n      add\n        /* \"#utility.yul\":18888:18921   */\n      calldataload\n        /* \"#utility.yul\":18879:18921   */\n      swap1\n      pop\n        /* \"#utility.yul\":18851:18935   */\n    tag_380:\n        /* \"#utility.yul\":18961:19028   */\n      tag_381\n        /* \"#utility.yul\":19021:19027   */\n      dup6\n        /* \"#utility.yul\":19014:19019   */\n      dup3\n        /* \"#utility.yul\":18961:19028   */\n      tag_194\n      jump\t// in\n    tag_381:\n        /* \"#utility.yul\":18955:18959   */\n      dup7\n        /* \"#utility.yul\":18948:19029   */\n      sstore\n        /* \"#utility.yul\":18810:19039   */\n      pop\n        /* \"#utility.yul\":18131:19039   */\n      jump(tag_378)\n        /* \"#utility.yul\":18161:18793   */\n    tag_379:\n        /* \"#utility.yul\":18213:18217   */\n      0x1f\n        /* \"#utility.yul\":18209:18218   */\n      not\n        /* \"#utility.yul\":18201:18207   */\n      dup5\n        /* \"#utility.yul\":18197:18219   */\n      and\n        /* \"#utility.yul\":18247:18284   */\n      tag_382\n        /* \"#utility.yul\":18279:18283   */\n      dup7\n        /* \"#utility.yul\":18247:18284   */\n      tag_180\n      jump\t// in\n    tag_382:\n        /* \"#utility.yul\":18306:18307   */\n      0x00\n        /* \"#utility.yul\":18320:18535   */\n    tag_383:\n        /* \"#utility.yul\":18334:18341   */\n      dup3\n        /* \"#utility.yul\":18331:18332   */\n      dup2\n        /* \"#utility.yul\":18328:18342   */\n      lt\n        /* \"#utility.yul\":18320:18535   */\n      iszero\n      tag_385\n      jumpi\n        /* \"#utility.yul\":18420:18429   */\n      dup5\n        /* \"#utility.yul\":18415:18418   */\n      dup10\n        /* \"#utility.yul\":18411:18430   */\n      add\n        /* \"#utility.yul\":18398:18431   */\n      calldataload\n        /* \"#utility.yul\":18390:18396   */\n      dup3\n        /* \"#utility.yul\":18383:18432   */\n      sstore\n        /* \"#utility.yul\":18471:18472   */\n      0x01\n        /* \"#utility.yul\":18463:18469   */\n      dup3\n        /* \"#utility.yul\":18459:18473   */\n      add\n        /* \"#utility.yul\":18449:18473   */\n      swap2\n      pop\n        /* \"#utility.yul\":18518:18520   */\n      0x20\n        /* \"#utility.yul\":18507:18516   */\n      dup6\n        /* \"#utility.yul\":18503:18521   */\n      add\n        /* \"#utility.yul\":18490:18521   */\n      swap5\n      pop\n        /* \"#utility.yul\":18357:18361   */\n      0x20\n        /* \"#utility.yul\":18354:18355   */\n      dup2\n        /* \"#utility.yul\":18350:18362   */\n      add\n        /* \"#utility.yul\":18345:18362   */\n      swap1\n      pop\n        /* \"#utility.yul\":18320:18535   */\n      jump(tag_383)\n    tag_385:\n        /* \"#utility.yul\":18563:18569   */\n      dup7\n        /* \"#utility.yul\":18554:18561   */\n      dup4\n        /* \"#utility.yul\":18551:18570   */\n      lt\n        /* \"#utility.yul\":18548:18734   */\n      iszero\n      tag_386\n      jumpi\n        /* \"#utility.yul\":18628:18637   */\n      dup5\n        /* \"#utility.yul\":18623:18626   */\n      dup10\n        /* \"#utility.yul\":18619:18638   */\n      add\n        /* \"#utility.yul\":18606:18639   */\n      calldataload\n        /* \"#utility.yul\":18671:18719   */\n      tag_387\n        /* \"#utility.yul\":18713:18717   */\n      0x1f\n        /* \"#utility.yul\":18705:18711   */\n      dup10\n        /* \"#utility.yul\":18701:18718   */\n      and\n        /* \"#utility.yul\":18690:18699   */\n      dup3\n        /* \"#utility.yul\":18671:18719   */\n      tag_193\n      jump\t// in\n    tag_387:\n        /* \"#utility.yul\":18663:18669   */\n      dup4\n        /* \"#utility.yul\":18656:18720   */\n      sstore\n        /* \"#utility.yul\":18571:18734   */\n      pop\n        /* \"#utility.yul\":18548:18734   */\n    tag_386:\n        /* \"#utility.yul\":18780:18781   */\n      0x01\n        /* \"#utility.yul\":18776:18777   */\n      0x02\n        /* \"#utility.yul\":18768:18774   */\n      dup9\n        /* \"#utility.yul\":18764:18778   */\n      mul\n        /* \"#utility.yul\":18760:18782   */\n      add\n        /* \"#utility.yul\":18754:18758   */\n      dup9\n        /* \"#utility.yul\":18747:18783   */\n      sstore\n        /* \"#utility.yul\":18168:18793   */\n      pop\n      pop\n      pop\n        /* \"#utility.yul\":18131:19039   */\n    tag_378:\n      pop\n        /* \"#utility.yul\":17741:19045   */\n      pop\n      pop\n      pop\n        /* \"#utility.yul\":17642:19045   */\n      pop\n      pop\n      pop\n      jump\t// out\n        /* \"#utility.yul\":19051:19245   */\n    tag_86:\n        /* \"#utility.yul\":19091:19095   */\n      0x00\n        /* \"#utility.yul\":19111:19131   */\n      tag_389\n        /* \"#utility.yul\":19129:19130   */\n      dup3\n        /* \"#utility.yul\":19111:19131   */\n      tag_142\n      jump\t// in\n    tag_389:\n        /* \"#utility.yul\":19106:19131   */\n      swap2\n      pop\n        /* \"#utility.yul\":19145:19165   */\n      tag_390\n        /* \"#utility.yul\":19163:19164   */\n      dup4\n        /* \"#utility.yul\":19145:19165   */\n      tag_142\n      jump\t// in\n    tag_390:\n        /* \"#utility.yul\":19140:19165   */\n      swap3\n      pop\n        /* \"#utility.yul\":19189:19190   */\n      dup3\n        /* \"#utility.yul\":19186:19187   */\n      dup3\n        /* \"#utility.yul\":19182:19191   */\n      sub\n        /* \"#utility.yul\":19174:19191   */\n      swap1\n      pop\n        /* \"#utility.yul\":19213:19214   */\n      dup2\n        /* \"#utility.yul\":19207:19211   */\n      dup2\n        /* \"#utility.yul\":19204:19215   */\n      gt\n        /* \"#utility.yul\":19201:19238   */\n      iszero\n      tag_391\n      jumpi\n        /* \"#utility.yul\":19218:19236   */\n      tag_392\n      tag_177\n      jump\t// in\n    tag_392:\n        /* \"#utility.yul\":19201:19238   */\n    tag_391:\n        /* \"#utility.yul\":19051:19245   */\n      swap3\n      swap2\n      pop\n      pop\n      jump\t// out\n        /* \"#utility.yul\":19251:19473   */\n    tag_88:\n        /* \"#utility.yul\":19344:19348   */\n      0x00\n        /* \"#utility.yul\":19382:19384   */\n      0x20\n        /* \"#utility.yul\":19371:19380   */\n      dup3\n        /* \"#utility.yul\":19367:19385   */\n      add\n        /* \"#utility.yul\":19359:19385   */\n      swap1\n      pop\n        /* \"#utility.yul\":19395:19466   */\n      tag_394\n        /* \"#utility.yul\":19463:19464   */\n      0x00\n        /* \"#utility.yul\":19452:19461   */\n      dup4\n        /* \"#utility.yul\":19448:19465   */\n      add\n        /* \"#utility.yul\":19439:19445   */\n      dup5\n        /* \"#utility.yul\":19395:19466   */\n      tag_172\n      jump\t// in\n    tag_394:\n        /* \"#utility.yul\":19251:19473   */\n      swap3\n      swap2\n      pop\n      pop\n      jump\t// out\n        /* \"#utility.yul\":19479:19644   */\n    tag_195:\n        /* \"#utility.yul\":19619:19636   */\n      0x43616d706169676e20636c6f7365640000000000000000000000000000000000\n        /* \"#utility.yul\":19615:19616   */\n      0x00\n        /* \"#utility.yul\":19607:19613   */\n      dup3\n        /* \"#utility.yul\":19603:19617   */\n      add\n        /* \"#utility.yul\":19596:19637   */\n      mstore\n        /* \"#utility.yul\":19479:19644   */\n      pop\n      jump\t// out\n        /* \"#utility.yul\":19650:20016   */\n    tag_196:\n        /* \"#utility.yul\":19792:19795   */\n      0x00\n        /* \"#utility.yul\":19813:19880   */\n      tag_397\n        /* \"#utility.yul\":19877:19879   */\n      0x0f\n        /* \"#utility.yul\":19872:19875   */\n      dup4\n        /* \"#utility.yul\":19813:19880   */\n      tag_149\n      jump\t// in\n    tag_397:\n        /* \"#utility.yul\":19806:19880   */\n      swap2\n      pop\n        /* \"#utility.yul\":19889:19982   */\n      tag_398\n        /* \"#utility.yul\":19978:19981   */\n      dup3\n        /* \"#utility.yul\":19889:19982   */\n      tag_195\n      jump\t// in\n    tag_398:\n        /* \"#utility.yul\":20007:20009   */\n      0x20\n        /* \"#utility.yul\":20002:20005   */\n      dup3\n        /* \"#utility.yul\":19998:20010   */\n      add\n        /* \"#utility.yul\":19991:20010   */\n      swap1\n      pop\n        /* \"#utility.yul\":19650:20016   */\n      swap2\n      swap1\n      pop\n      jump\t// out\n        /* \"#utility.yul\":20022:20441   */\n    tag_98:\n        /* \"#utility.yul\":20188:20192   */\n      0x00\n        /* \"#utility.yul\":20226:20228   */\n      0x20\n        /* \"#utility.yul\":20215:20224   */\n      dup3\n        /* \"#utility.yul\":20211:20229   */\n      add\n        /* \"#utility.yul\":20203:20229   */\n      swap1\n      pop\n        /* \"#utility.yul\":20275:20284   */\n      dup2\n        /* \"#utility.yul\":20269:20273   */\n      dup2\n        /* \"#utility.yul\":20265:20285   */\n      sub\n        /* \"#utility.yul\":20261:20262   */\n      0x00\n        /* \"#utility.yul\":20250:20259   */\n      dup4\n        /* \"#utility.yul\":20246:20263   */\n      add\n        /* \"#utility.yul\":20239:20286   */\n      mstore\n        /* \"#utility.yul\":20303:20434   */\n      tag_400\n        /* \"#utility.yul\":20429:20433   */\n      dup2\n        /* \"#utility.yul\":20303:20434   */\n      tag_196\n      jump\t// in\n    tag_400:\n        /* \"#utility.yul\":20295:20434   */\n      swap1\n      pop\n        /* \"#utility.yul\":20022:20441   */\n      swap2\n      swap1\n      pop\n      jump\t// out\n        /* \"#utility.yul\":20447:20611   */\n    tag_197:\n        /* \"#utility.yul\":20587:20603   */\n      0x43616d706169676e20656e646564000000000000000000000000000000000000\n        /* \"#utility.yul\":20583:20584   */\n      0x00\n        /* \"#utility.yul\":20575:20581   */\n      dup3\n        /* \"#utility.yul\":20571:20585   */\n      add\n        /* \"#utility.yul\":20564:20604   */\n      mstore\n        /* \"#utility.yul\":20447:20611   */\n      pop\n      jump\t// out\n        /* \"#utility.yul\":20617:20983   */\n    tag_198:\n        /* \"#utility.yul\":20759:20762   */\n      0x00\n        /* \"#utility.yul\":20780:20847   */\n      tag_403\n        /* \"#utility.yul\":20844:20846   */\n      0x0e\n        /* \"#utility.yul\":20839:20842   */\n      dup4\n        /* \"#utility.yul\":20780:20847   */\n      tag_149\n      jump\t// in\n    tag_403:\n        /* \"#utility.yul\":20773:20847   */\n      swap2\n      pop\n        /* \"#utility.yul\":20856:20949   */\n      tag_404\n        /* \"#utility.yul\":20945:20948   */\n      dup3\n        /* \"#utility.yul\":20856:20949   */\n      tag_197\n      jump\t// in\n    tag_404:\n        /* \"#utility.yul\":20974:20976   */\n      0x20\n        /* \"#utility.yul\":20969:20972   */\n      dup3\n        /* \"#utility.yul\":20965:20977   */\n      add\n        /* \"#utility.yul\":20958:20977   */\n      swap1\n      pop\n        /* \"#utility.yul\":20617:20983   */\n      swap2\n      swap1\n      pop\n      jump\t// out\n        /* \"#utility.yul\":20989:21408   */\n    tag_104:\n        /* \"#utility.yul\":21155:21159   */\n      0x00\n        /* \"#utility.yul\":21193:21195   */\n      0x20\n        /* \"#utility.yul\":21182:21191   */\n      dup3\n        /* \"#utility.yul\":21178:21196   */\n      add\n        /* \"#utility.yul\":21170:21196   */\n      swap1\n      pop\n        /* \"#utility.yul\":21242:21251   */\n      dup2\n        /* \"#utility.yul\":21236:21240   */\n      dup2\n        /* \"#utility.yul\":21232:21252   */\n      sub\n        /* \"#utility.yul\":21228:21229   */\n      0x00\n        /* \"#utility.yul\":21217:21226   */\n      dup4\n        /* \"#utility.yul\":21213:21230   */\n      add\n        /* \"#utility.yul\":21206:21253   */\n      mstore\n        /* \"#utility.yul\":21270:21401   */\n      tag_406\n        /* \"#utility.yul\":21396:21400   */\n      dup2\n        /* \"#utility.yul\":21270:21401   */\n      tag_198\n      jump\t// in\n    tag_406:\n        /* \"#utility.yul\":21262:21401   */\n      swap1\n      pop\n        /* \"#utility.yul\":20989:21408   */\n      swap2\n      swap1\n      pop\n      jump\t// out\n        /* \"#utility.yul\":21414:21588   */\n    tag_199:\n        /* \"#utility.yul\":21554:21580   */\n      0x436f6e747269627574696f6e206d757374206265203e20300000000000000000\n        /* \"#utility.yul\":21550:21551   */\n      0x00\n        /* \"#utility.yul\":21542:21548   */\n      dup3\n        /* \"#utility.yul\":21538:21552   */\n      add\n        /* \"#utility.yul\":21531:21581   */\n      mstore\n        /* \"#utility.yul\":21414:21588   */\n      pop\n      jump\t// out\n        /* \"#utility.yul\":21594:21960   */\n    tag_200:\n        /* \"#utility.yul\":21736:21739   */\n      0x00\n        /* \"#utility.yul\":21757:21824   */\n      tag_409\n        /* \"#utility.yul\":21821:21823   */\n      0x18\n        /* \"#utility.yul\":21816:21819   */\n      dup4\n        /* \"#utility.yul\":21757:21824   */\n      tag_149\n      jump\t// in\n    tag_409:\n        /* \"#utility.yul\":21750:21824   */\n      swap2\n      pop\n        /* \"#utility.yul\":21833:21926   */\n      tag_410\n        /* \"#utility.yul\":21922:21925   */\n      dup3\n        /* \"#utility.yul\":21833:21926   */\n      tag_199\n      jump\t// in\n    tag_410:\n        /* \"#utility.yul\":21951:21953   */\n      0x20\n        /* \"#utility.yul\":21946:21949   */\n      dup3\n        /* \"#utility.yul\":21942:21954   */\n      add\n        /* \"#utility.yul\":21935:21954   */\n      swap1\n      pop\n        /* \"#utility.yul\":21594:21960   */\n      swap2\n      swap1\n      pop\n      jump\t// out\n        /* \"#utility.yul\":21966:22385   */\n    tag_108:\n        /* \"#utility.yul\":22132:22136   */\n      0x00\n        /* \"#utility.yul\":22170:22172   */\n      0x20\n        /* \"#utility.yul\":22159:22168   */\n      dup3\n        /* \"#utility.yul\":22155:22173   */\n      add\n        /* \"#utility.yul\":22147:22173   */\n      swap1\n      pop\n        /* \"#utility.yul\":22219:22228   */\n      dup2\n        /* \"#utility.yul\":22213:22217   */\n      dup2\n        /* \"#utility.yul\":22209:22229   */\n      sub\n        /* \"#utility.yul\":22205:22206   */\n      0x00\n        /* \"#utility.yul\":22194:22203   */\n      dup4\n        /* \"#utility.yul\":22190:22207   */\n      add\n        /* \"#utility.yul\":22183:22230   */\n      mstore\n        /* \"#utility.yul\":22247:22378   */\n      tag_412\n        /* \"#utility.yul\":22373:22377   */\n      dup2\n        /* \"#utility.yul\":22247:22378   */\n      tag_200\n      jump\t// in\n    tag_412:\n        /* \"#utility.yul\":22239:22378   */\n      swap1\n      pop\n        /* \"#utility.yul\":21966:22385   */\n      swap2\n      swap1\n      pop\n      jump\t// out\n        /* \"#utility.yul\":22391:22559   */\n    tag_201:\n        /* \"#utility.yul\":22531:22551   */\n      0x43616d706169676e206e6f7420656e6465640000000000000000000000000000\n        /* \"#utility.yul\":22527:22528   */\n      0x00\n        /* \"#utility.yul\":22519:22525   */\n      dup3\n        /* \"#utility.yul\":22515:22529   */\n      add\n        /* \"#utility.yul\":22508:22552   */\n      mstore\n        /* \"#utility.yul\":22391:22559   */\n      pop\n      jump\t// out\n        /* \"#utility.yul\":22565:22931   */\n    tag_202:\n        /* \"#utility.yul\":22707:22710   */\n      0x00\n        /* \"#utility.yul\":22728:22795   */\n      tag_415\n        /* \"#utility.yul\":22792:22794   */\n      0x12\n        /* \"#utility.yul\":22787:22790   */\n      dup4\n        /* \"#utility.yul\":22728:22795   */\n      tag_149\n      jump\t// in\n    tag_415:\n        /* \"#utility.yul\":22721:22795   */\n      swap2\n      pop\n        /* \"#utility.yul\":22804:22897   */\n      tag_416\n        /* \"#utility.yul\":22893:22896   */\n      dup3\n        /* \"#utility.yul\":22804:22897   */\n      tag_201\n      jump\t// in\n    tag_416:\n        /* \"#utility.yul\":22922:22924   */\n      0x20\n        /* \"#utility.yul\":22917:22920   */\n      dup3\n        /* \"#utility.yul\":22913:22925   */\n      add\n        /* \"#utility.yul\":22906:22925   */\n      swap1\n      pop\n        /* \"#utility.yul\":22565:22931   */\n      swap2\n      swap1\n      pop\n      jump\t// out\n        /* \"#utility.yul\":22937:23356   */\n    tag_126:\n        /* \"#utility.yul\":23103:23107   */\n      0x00\n        /* \"#utility.yul\":23141:23143   */\n      0x20\n        /* \"#utility.yul\":23130:23139   */\n      dup3\n        /* \"#utility.yul\":23126:23144   */\n      add\n        /* \"#utility.yul\":23118:23144   */\n      swap1\n      pop\n        /* \"#utility.yul\":23190:23199   */\n      dup2\n        /* \"#utility.yul\":23184:23188   */\n      dup2\n        /* \"#utility.yul\":23180:23200   */\n      sub\n        /* \"#utility.yul\":23176:23177   */\n      0x00\n        /* \"#utility.yul\":23165:23174   */\n      dup4\n        /* \"#utility.yul\":23161:23178   */\n      add\n        /* \"#utility.yul\":23154:23201   */\n      mstore\n        /* \"#utility.yul\":23218:23349   */\n      tag_418\n        /* \"#utility.yul\":23344:23348   */\n      dup2\n        /* \"#utility.yul\":23218:23349   */\n      tag_202\n      jump\t// in\n    tag_418:\n        /* \"#utility.yul\":23210:23349   */\n      swap1\n      pop\n        /* \"#utility.yul\":22937:23356   */\n      swap2\n      swap1\n      pop\n      jump\t// out\n        /* \"#utility.yul\":23362:23524   */\n    tag_203:\n        /* \"#utility.yul\":23502:23516   */\n      0x476f616c20726561636865640000000000000000000000000000000000000000\n        /* \"#utility.yul\":23498:23499   */\n      0x00\n        /* \"#utility.yul\":23490:23496   */\n      dup3\n        /* \"#utility.yul\":23486:23500   */\n      add\n        /* \"#utility.yul\":23479:23517   */\n      mstore\n        /* \"#utility.yul\":23362:23524   */\n      pop\n      jump\t// out\n        /* \"#utility.yul\":23530:23896   */\n    tag_204:\n        /* \"#utility.yul\":23672:23675   */\n      0x00\n        /* \"#utility.yul\":23693:23760   */\n      tag_421\n        /* \"#utility.yul\":23757:23759   */\n      0x0c\n        /* \"#utility.yul\":23752:23755   */\n      dup4\n        /* \"#utility.yul\":23693:23760   */\n      tag_149\n      jump\t// in\n    tag_421:\n        /* \"#utility.yul\":23686:23760   */\n      swap2\n      pop\n        /* \"#utility.yul\":23769:23862   */\n      tag_422\n        /* \"#utility.yul\":23858:23861   */\n      dup3\n        /* \"#utility.yul\":23769:23862   */\n      tag_203\n      jump\t// in\n    tag_422:\n        /* \"#utility.yul\":23887:23889   */\n      0x20\n        /* \"#utility.yul\":23882:23885   */\n      dup3\n        /* \"#utility.yul\":23878:23890   */\n      add\n        /* \"#utility.yul\":23871:23890   */\n      swap1\n      pop\n        /* \"#utility.yul\":23530:23896   */\n      swap2\n      swap1\n      pop\n      jump\t// out\n        /* \"#utility.yul\":23902:24321   */\n    tag_129:\n        /* \"#utility.yul\":24068:24072   */\n      0x00\n        /* \"#utility.yul\":24106:24108   */\n      0x20\n        /* \"#utility.yul\":24095:24104   */\n      dup3\n        /* \"#utility.yul\":24091:24109   */\n      add\n        /* \"#utility.yul\":24083:24109   */\n      swap1\n      pop\n        /* \"#utility.yul\":24155:24164   */\n      dup2\n        /* \"#utility.yul\":24149:24153   */\n      dup2\n        /* \"#utility.yul\":24145:24165   */\n      sub\n        /* \"#utility.yul\":24141:24142   */\n      0x00\n        /* \"#utility.yul\":24130:24139   */\n      dup4\n        /* \"#utility.yul\":24126:24143   */\n      add\n        /* \"#utility.yul\":24119:24166   */\n      mstore\n        /* \"#utility.yul\":24183:24314   */\n      tag_424\n        /* \"#utility.yul\":24309:24313   */\n      dup2\n        /* \"#utility.yul\":24183:24314   */\n      tag_204\n      jump\t// in\n    tag_424:\n        /* \"#utility.yul\":24175:24314   */\n      swap1\n      pop\n        /* \"#utility.yul\":23902:24321   */\n      swap2\n      swap1\n      pop\n      jump\t// out\n        /* \"#utility.yul\":24327:24492   */\n    tag_205:\n        /* \"#utility.yul\":24467:24484   */\n      0x46756e64732077697468647261776e0000000000000000000000000000000000\n        /* \"#utility.yul\":24463:24464   */\n      0x00\n        /* \"#utility.yul\":24455:24461   */\n      dup3\n        /* \"#utility.yul\":24451:24465   */\n      add\n        /* \"#utility.yul\":24444:24485   */\n      mstore\n        /* \"#utility.yul\":24327:24492   */\n      pop\n      jump\t// out\n        /* \"#utility.yul\":24498:24864   */\n    tag_206:\n        /* \"#utility.yul\":24640:24643   */\n      0x00\n        /* \"#utility.yul\":24661:24728   */\n      tag_427\n        /* \"#utility.yul\":24725:24727   */\n      0x0f\n        /* \"#utility.yul\":24720:24723   */\n      dup4\n        /* \"#utility.yul\":24661:24728   */\n      tag_149\n      jump\t// in\n    tag_427:\n        /* \"#utility.yul\":24654:24728   */\n      swap2\n      pop\n        /* \"#utility.yul\":24737:24830   */\n      tag_428\n        /* \"#utility.yul\":24826:24829   */\n      dup3\n        /* \"#utility.yul\":24737:24830   */\n      tag_205\n      jump\t// in\n    tag_428:\n        /* \"#utility.yul\":24855:24857   */\n      0x20\n        /* \"#utility.yul\":24850:24853   */\n      dup3\n        /* \"#utility.yul\":24846:24858   */\n      add\n        /* \"#utility.yul\":24839:24858   */\n      swap1\n      pop\n        /* \"#utility.yul\":24498:24864   */\n      swap2\n      swap1\n      pop\n      jump\t// out\n        /* \"#utility.yul\":24870:25289   */\n    tag_132:\n        /* \"#utility.yul\":25036:25040   */\n      0x00\n        /* \"#utility.yul\":25074:25076   */\n      0x20\n        /* \"#utility.yul\":25063:25072   */\n      dup3\n        /* \"#utility.yul\":25059:25077   */\n      add\n        /* \"#utility.yul\":25051:25077   */\n      swap1\n      pop\n        /* \"#utility.yul\":25123:25132   */\n      dup2\n        /* \"#utility.yul\":25117:25121   */\n      dup2\n        /* \"#utility.yul\":25113:25133   */\n      sub\n        /* \"#utility.yul\":25109:25110   */\n      0x00\n        /* \"#utility.yul\":25098:25107   */\n      dup4\n        /* \"#utility.yul\":25094:25111   */\n      add\n        /* \"#utility.yul\":25087:25134   */\n      mstore\n        /* \"#utility.yul\":25151:25282   */\n      tag_430\n        /* \"#utility.yul\":25277:25281   */\n      dup2\n        /* \"#utility.yul\":25151:25282   */\n      tag_206\n      jump\t// in\n    tag_430:\n        /* \"#utility.yul\":25143:25282   */\n      swap1\n      pop\n        /* \"#utility.yul\":24870:25289   */\n      swap2\n      swap1\n      pop\n      jump\t// out\n        /* \"#utility.yul\":25295:25461   */\n    tag_207:\n        /* \"#utility.yul\":25435:25453   */\n      0x4e6f20636f6e747269627574696f6e7300000000000000000000000000000000\n        /* \"#utility.yul\":25431:25432   */\n      0x00\n        /* \"#utility.yul\":25423:25429   */\n      dup3\n        /* \"#utility.yul\":25419:25433   */\n      add\n        /* \"#utility.yul\":25412:25454   */\n      mstore\n        /* \"#utility.yul\":25295:25461   */\n      pop\n      jump\t// out\n        /* \"#utility.yul\":25467:25833   */\n    tag_208:\n        /* \"#utility.yul\":25609:25612   */\n      0x00\n        /* \"#utility.yul\":25630:25697   */\n      tag_433\n        /* \"#utility.yul\":25694:25696   */\n      0x10\n        /* \"#utility.yul\":25689:25692   */\n      dup4\n        /* \"#utility.yul\":25630:25697   */\n      tag_149\n      jump\t// in\n    tag_433:\n        /* \"#utility.yul\":25623:25697   */\n      swap2\n      pop\n        /* \"#utility.yul\":25706:25799   */\n      tag_434\n        /* \"#utility.yul\":25795:25798   */\n      dup3\n        /* \"#utility.yul\":25706:25799   */\n      tag_207\n      jump\t// in\n    tag_434:\n        /* \"#utility.yul\":25824:25826   */\n      0x20\n        /* \"#utility.yul\":25819:25822   */\n      dup3\n        /* \"#utility.yul\":25815:25827   */\n      add\n        /* \"#utility.yul\":25808:25827   */\n      swap1\n      pop\n        /* \"#utility.yul\":25467:25833   */\n      swap2\n      swap1\n      pop\n      jump\t// out\n        /* \"#utility.yul\":25839:26258   */\n    tag_135:\n        /* \"#utility.yul\":26005:26009   */\n      0x00\n        /* \"#utility.yul\":26043:26045   */\n      0x20\n        /* \"#utility.yul\":26032:26041   */\n      dup3\n        /* \"#utility.yul\":26028:26046   */\n      add\n        /* \"#utility.yul\":26020:26046   */\n      swap1\n      pop\n        /* \"#utility.yul\":26092:26101   */\n      dup2\n        /* \"#utility.yul\":26086:26090   */\n      dup2\n        /* \"#utility.yul\":26082:26102   */\n      sub\n        /* \"#utility.yul\":26078:26079   */\n      0x00\n        /* \"#utility.yul\":26067:26076   */\n      dup4\n        /* \"#utility.yul\":26063:26080   */\n      add\n        /* \"#utility.yul\":26056:26103   */\n      mstore\n        /* \"#utility.yul\":26120:26251   */\n      tag_436\n        /* \"#utility.yul\":26246:26250   */\n      dup2\n        /* \"#utility.yul\":26120:26251   */\n      tag_208\n      jump\t// in\n    tag_436:\n        /* \"#utility.yul\":26112:26251   */\n      swap1\n      pop\n        /* \"#utility.yul\":25839:26258   */\n      swap2\n      swap1\n      pop\n      jump\t// out\n\n    auxdata: 0xa26469706673582212205b00ec18a60edc918959a572d7b0ac9bff32319390dabd1377c481728474044264736f6c634300081a0033\n}\n",
				"bytecode": {
					"linkReferences": {},
					"object": "6080604052348015600e575f80fd5b5061190c8061001c5f395ff3fe608060405260043610610049575f3560e01c8063141961bc1461004d578063155dd5ee14610090578063a318f269146100b8578063c1cbbca7146100e0578063d25090ff146100fc575b5f80fd5b348015610058575f80fd5b50610073600480360381019061006e9190610c77565b610124565b604051610087989796959493929190610d7a565b60405180910390f35b34801561009b575f80fd5b506100b660048036038101906100b19190610c77565b6102ba565b005b3480156100c3575f80fd5b506100de60048036038101906100d99190610e65565b61056e565b005b6100fa60048036038101906100f59190610c77565b610725565b005b348015610107575f80fd5b50610122600480360381019061011d9190610c77565b61099c565b005b5f8181548110610132575f80fd5b905f5260205f2090600802015f91509050805f015f9054906101000a900473ffffffffffffffffffffffffffffffffffffffff169080600101805461017690610f35565b80601f01602080910402602001604051908101604052809291908181526020018280546101a290610f35565b80156101ed5780601f106101c4576101008083540402835291602001916101ed565b820191905f5260205f20905b8154815290600101906020018083116101d057829003601f168201915b50505050509080600201805461020290610f35565b80601f016020809104026020016040519081016040528092919081815260200182805461022e90610f35565b80156102795780601f1061025057610100808354040283529160200191610279565b820191905f5260205f20905b81548152906001019060200180831161025c57829003601f168201915b505050505090806003015490806004015490806005015490806006015f9054906101000a900460ff16908060060160019054906101000a900460ff16905088565b805f805490508110610301576040517f08c379a00000000000000000000000000000000000000000000000000000000081526004016102f890610faf565b60405180910390fd5b813373ffffffffffffffffffffffffffffffffffffffff165f828154811061032c5761032b610fcd565b5b905f5260205f2090600802015f015f9054906101000a900473ffffffffffffffffffffffffffffffffffffffff1673ffffffffffffffffffffffffffffffffffffffff16146103b0576040517f08c379a00000000000000000000000000000000000000000000000000000000081526004016103a790611044565b60405180910390fd5b5f8084815481106103c4576103c3610fcd565b5b905f5260205f2090600802019050806006015f9054906101000a900460ff16610422576040517f08c379a0000000000000000000000000000000000000000000000000000000008152600401610419906110ac565b60405180910390fd5b8060050154421015610469576040517f08c379a000000000000000000000000000000000000000000000000000000000815260040161046090611114565b60405180910390fd5b8060060160019054906101000a900460ff16156104bb576040517f08c379a00000000000000000000000000000000000000000000000000000000081526004016104b29061117c565b60405180910390fd5b5f816004015490505f826004018190555060018260060160016101000a81548160ff0219169083151502179055503373ffffffffffffffffffffffffffffffffffffffff166108fc8290811502906040515f60405180830381858888f1935050505015801561052c573d5f803e3d5ffd5b50847ff440aec6b52895984d061d622e6edeba6210f7c3e059be920663140c084560d7338360405161055f9291906111ba565b60405180910390a25050505050565b5f81116105b0576040517f08c379a00000000000000000000000000000000000000000000000000000000081526004016105a79061122b565b60405180910390fd5b5f82116105f2576040517f08c379a00000000000000000000000000000000000000000000000000000000081526004016105e990611293565b60405180910390fd5b5f82426105ff91906112de565b90505f8060018160018154018082558091505003905f5260205f209060080201905033815f015f6101000a81548173ffffffffffffffffffffffffffffffffffffffff021916908373ffffffffffffffffffffffffffffffffffffffff16021790555087878260010191826106759291906114e5565b5085858260020191826106899291906114e5565b508281600301819055508181600501819055505f816006015f6101000a81548160ff0219169083151502179055505f8160060160016101000a81548160ff02191690831515021790555060015f805490506106e491906115b2565b7f633109eec20320eded000fc1e2634211aa7e92ba3f5b15faf6dcdafca05094e43360405161071391906115e5565b60405180910390a25050505050505050565b805f80549050811061076c576040517f08c379a000000000000000000000000000000000000000000000000000000000815260040161076390610faf565b60405180910390fd5b815f81815481106107805761077f610fcd565b5b905f5260205f20906008020160060160019054906101000a900460ff16156107dd576040517f08c379a00000000000000000000000000000000000000000000000000000000081526004016107d490611648565b60405180910390fd5b5f81815481106107f0576107ef610fcd565b5b905f5260205f209060080201600501544210610841576040517f08c379a0000000000000000000000000000000000000000000000000000000008152600401610838906116b0565b60405180910390fd5b5f3411610883576040517f08c379a000000000000000000000000000000000000000000000000000000000815260040161087a90611718565b60405180910390fd5b5f80848154811061089757610896610fcd565b5b905f5260205f209060080201905034816007015f3373ffffffffffffffffffffffffffffffffffffffff1673ffffffffffffffffffffffffffffffffffffffff1681526020019081526020015f205f8282546108f391906112de565b9250508190555034816004015f82825461090d91906112de565b92505081905550806003015481600401541015801561093a5750806006015f9054906101000a900460ff16155b1561095c576001816006015f6101000a81548160ff0219169083151502179055505b837f0a4a91237423e0a1766a761c7cb029311d8b95d6b1b81db1b949a70c98b4e08e333460405161098e9291906111ba565b60405180910390a250505050565b805f8054905081106109e3576040517f08c379a00000000000000000000000000000000000000000000000000000000081526004016109da90610faf565b60405180910390fd5b5f8083815481106109f7576109f6610fcd565b5b905f5260205f20906008020190508060050154421015610a4c576040517f08c379a0000000000000000000000000000000000000000000000000000000008152600401610a4390611780565b60405180910390fd5b806006015f9054906101000a900460ff1615610a9d576040517f08c379a0000000000000000000000000000000000000000000000000000000008152600401610a94906117e8565b60405180910390fd5b8060060160019054906101000a900460ff1615610aef576040517f08c379a0000000000000000000000000000000000000000000000000000000008152600401610ae690611850565b60405180910390fd5b5f816007015f3373ffffffffffffffffffffffffffffffffffffffff1673ffffffffffffffffffffffffffffffffffffffff1681526020019081526020015f205490505f8111610b74576040517f08c379a0000000000000000000000000000000000000000000000000000000008152600401610b6b906118b8565b60405180910390fd5b5f826007015f3373ffffffffffffffffffffffffffffffffffffffff1673ffffffffffffffffffffffffffffffffffffffff1681526020019081526020015f20819055503373ffffffffffffffffffffffffffffffffffffffff166108fc8290811502906040515f60405180830381858888f19350505050158015610bfb573d5f803e3d5ffd5b50837fa182b2a9c58fae7e4827fbe3ac2fa1c5711191ef3f58b1fa19631feb97273bb23383604051610c2e9291906111ba565b60405180910390a250505050565b5f80fd5b5f80fd5b5f819050919050565b610c5681610c44565b8114610c60575f80fd5b50565b5f81359050610c7181610c4d565b92915050565b5f60208284031215610c8c57610c8b610c3c565b5b5f610c9984828501610c63565b91505092915050565b5f73ffffffffffffffffffffffffffffffffffffffff82169050919050565b5f610ccb82610ca2565b9050919050565b610cdb81610cc1565b82525050565b5f81519050919050565b5f82825260208201905092915050565b8281835e5f83830152505050565b5f601f19601f8301169050919050565b5f610d2382610ce1565b610d2d8185610ceb565b9350610d3d818560208601610cfb565b610d4681610d09565b840191505092915050565b610d5a81610c44565b82525050565b5f8115159050919050565b610d7481610d60565b82525050565b5f61010082019050610d8e5f83018b610cd2565b8181036020830152610da0818a610d19565b90508181036040830152610db48189610d19565b9050610dc36060830188610d51565b610dd06080830187610d51565b610ddd60a0830186610d51565b610dea60c0830185610d6b565b610df760e0830184610d6b565b9998505050505050505050565b5f80fd5b5f80fd5b5f80fd5b5f8083601f840112610e2557610e24610e04565b5b8235905067ffffffffffffffff811115610e4257610e41610e08565b5b602083019150836001820283011115610e5e57610e5d610e0c565b5b9250929050565b5f805f805f8060808789031215610e7f57610e7e610c3c565b5b5f87013567ffffffffffffffff811115610e9c57610e9b610c40565b5b610ea889828a01610e10565b9650965050602087013567ffffffffffffffff811115610ecb57610eca610c40565b5b610ed789828a01610e10565b94509450506040610eea89828a01610c63565b9250506060610efb89828a01610c63565b9150509295509295509295565b7f4e487b71000000000000000000000000000000000000000000000000000000005f52602260045260245ffd5b5f6002820490506001821680610f4c57607f821691505b602082108103610f5f57610f5e610f08565b5b50919050565b7f496e76616c69642063616d706169676e204944000000000000000000000000005f82015250565b5f610f99601383610ceb565b9150610fa482610f65565b602082019050919050565b5f6020820190508181035f830152610fc681610f8d565b9050919050565b7f4e487b71000000000000000000000000000000000000000000000000000000005f52603260045260245ffd5b7f556e617574686f72697a656400000000000000000000000000000000000000005f82015250565b5f61102e600c83610ceb565b915061103982610ffa565b602082019050919050565b5f6020820190508181035f83015261105b81611022565b9050919050565b7f476f616c206e6f742072656163686564000000000000000000000000000000005f82015250565b5f611096601083610ceb565b91506110a182611062565b602082019050919050565b5f6020820190508181035f8301526110c38161108a565b9050919050565b7f446561646c696e65206e6f7420706173736564000000000000000000000000005f82015250565b5f6110fe601383610ceb565b9150611109826110ca565b602082019050919050565b5f6020820190508181035f83015261112b816110f2565b9050919050565b7f46756e647320616c72656164792077697468647261776e0000000000000000005f82015250565b5f611166601783610ceb565b915061117182611132565b602082019050919050565b5f6020820190508181035f8301526111938161115a565b9050919050565b5f6111a482610ca2565b9050919050565b6111b48161119a565b82525050565b5f6040820190506111cd5f8301856111ab565b6111da6020830184610d51565b9392505050565b7f476f616c206d757374206265203e2030000000000000000000000000000000005f82015250565b5f611215601083610ceb565b9150611220826111e1565b602082019050919050565b5f6020820190508181035f83015261124281611209565b9050919050565b7f4475726174696f6e206d757374206265203e20300000000000000000000000005f82015250565b5f61127d601483610ceb565b915061128882611249565b602082019050919050565b5f6020820190508181035f8301526112aa81611271565b9050919050565b7f4e487b71000000000000000000000000000000000000000000000000000000005f52601160045260245ffd5b5f6112e882610c44565b91506112f383610c44565b925082820190508082111561130b5761130a6112b1565b5b92915050565b5f82905092915050565b7f4e487b71000000000000000000000000000000000000000000000000000000005f52604160045260245ffd5b5f819050815f5260205f209050919050565b5f6020601f8301049050919050565b5f82821b905092915050565b5f600883026113a47fffffffffffffffffffffffffffffffffffffffffffffffffffffffffffffffff82611369565b6113ae8683611369565b95508019841693508086168417925050509392505050565b5f819050919050565b5f6113e96113e46113df84610c44565b6113c6565b610c44565b9050919050565b5f819050919050565b611402836113cf565b61141661140e826113f0565b848454611375565b825550505050565b5f90565b61142a61141e565b6114358184846113f9565b505050565b5b818110156114585761144d5f82611422565b60018101905061143b565b5050565b601f82111561149d5761146e81611348565b6114778461135a565b81016020851015611486578190505b61149a6114928561135a565b83018261143a565b50505b505050565b5f82821c905092915050565b5f6114bd5f19846008026114a2565b1980831691505092915050565b5f6114d583836114ae565b9150826002028217905092915050565b6114ef8383611311565b67ffffffffffffffff8111156115085761150761131b565b5b6115128254610f35565b61151d82828561145c565b5f601f83116001811461154a575f8415611538578287013590505b61154285826114ca565b8655506115a9565b601f19841661155886611348565b5f5b8281101561157f5784890135825560018201915060208501945060208101905061155a565b8683101561159c5784890135611598601f8916826114ae565b8355505b6001600288020188555050505b50505050505050565b5f6115bc82610c44565b91506115c783610c44565b92508282039050818111156115df576115de6112b1565b5b92915050565b5f6020820190506115f85f8301846111ab565b92915050565b7f43616d706169676e20636c6f73656400000000000000000000000000000000005f82015250565b5f611632600f83610ceb565b915061163d826115fe565b602082019050919050565b5f6020820190508181035f83015261165f81611626565b9050919050565b7f43616d706169676e20656e6465640000000000000000000000000000000000005f82015250565b5f61169a600e83610ceb565b91506116a582611666565b602082019050919050565b5f6020820190508181035f8301526116c78161168e565b9050919050565b7f436f6e747269627574696f6e206d757374206265203e203000000000000000005f82015250565b5f611702601883610ceb565b915061170d826116ce565b602082019050919050565b5f6020820190508181035f83015261172f816116f6565b9050919050565b7f43616d706169676e206e6f7420656e64656400000000000000000000000000005f82015250565b5f61176a601283610ceb565b915061177582611736565b602082019050919050565b5f6020820190508181035f8301526117978161175e565b9050919050565b7f476f616c207265616368656400000000000000000000000000000000000000005f82015250565b5f6117d2600c83610ceb565b91506117dd8261179e565b602082019050919050565b5f6020820190508181035f8301526117ff816117c6565b9050919050565b7f46756e64732077697468647261776e00000000000000000000000000000000005f82015250565b5f61183a600f83610ceb565b915061184582611806565b602082019050919050565b5f6020820190508181035f8301526118678161182e565b9050919050565b7f4e6f20636f6e747269627574696f6e73000000000000000000000000000000005f82015250565b5f6118a2601083610ceb565b91506118ad8261186e565b602082019050919050565b5f6020820190508181035f8301526118cf81611896565b905091905056fea26469706673582212205b00ec18a60edc918959a572d7b0ac9bff32319390dabd1377c481728474044264736f6c634300081a0033",
					"opcodes": "PUSH1 0x80 PUSH1 0x40 MSTORE CALLVALUE DUP1 ISZERO PUSH1 0xE JUMPI PUSH0 DUP1 REVERT JUMPDEST POP PUSH2 0x190C DUP1 PUSH2 0x1C PUSH0 CODECOPY PUSH0 RETURN INVALID PUSH1 0x80 PUSH1 0x40 MSTORE PUSH1 0x4 CALLDATASIZE LT PUSH2 0x49 JUMPI PUSH0 CALLDATALOAD PUSH1 0xE0 SHR DUP1 PUSH4 0x141961BC EQ PUSH2 0x4D JUMPI DUP1 PUSH4 0x155DD5EE EQ PUSH2 0x90 JUMPI DUP1 PUSH4 0xA318F269 EQ PUSH2 0xB8 JUMPI DUP1 PUSH4 0xC1CBBCA7 EQ PUSH2 0xE0 JUMPI DUP1 PUSH4 0xD25090FF EQ PUSH2 0xFC JUMPI JUMPDEST PUSH0 DUP1 REVERT JUMPDEST CALLVALUE DUP1 ISZERO PUSH2 0x58 JUMPI PUSH0 DUP1 REVERT JUMPDEST POP PUSH2 0x73 PUSH1 0x4 DUP1 CALLDATASIZE SUB DUP2 ADD SWAP1 PUSH2 0x6E SWAP2 SWAP1 PUSH2 0xC77 JUMP JUMPDEST PUSH2 0x124 JUMP JUMPDEST PUSH1 0x40 MLOAD PUSH2 0x87 SWAP9 SWAP8 SWAP7 SWAP6 SWAP5 SWAP4 SWAP3 SWAP2 SWAP1 PUSH2 0xD7A JUMP JUMPDEST PUSH1 0x40 MLOAD DUP1 SWAP2 SUB SWAP1 RETURN JUMPDEST CALLVALUE DUP1 ISZERO PUSH2 0x9B JUMPI PUSH0 DUP1 REVERT JUMPDEST POP PUSH2 0xB6 PUSH1 0x4 DUP1 CALLDATASIZE SUB DUP2 ADD SWAP1 PUSH2 0xB1 SWAP2 SWAP1 PUSH2 0xC77 JUMP JUMPDEST PUSH2 0x2BA JUMP JUMPDEST STOP JUMPDEST CALLVALUE DUP1 ISZERO PUSH2 0xC3 JUMPI PUSH0 DUP1 REVERT JUMPDEST POP PUSH2 0xDE PUSH1 0x4 DUP1 CALLDATASIZE SUB DUP2 ADD SWAP1 PUSH2 0xD9 SWAP2 SWAP1 PUSH2 0xE65 JUMP JUMPDEST PUSH2 0x56E JUMP JUMPDEST STOP JUMPDEST PUSH2 0xFA PUSH1 0x4 DUP1 CALLDATASIZE SUB DUP2 ADD SWAP1 PUSH2 0xF5 SWAP2 SWAP1 PUSH2 0xC77 JUMP JUMPDEST PUSH2 0x725 JUMP JUMPDEST STOP JUMPDEST CALLVALUE DUP1 ISZERO PUSH2 0x107 JUMPI PUSH0 DUP1 REVERT JUMPDEST POP PUSH2 0x122 PUSH1 0x4 DUP1 CALLDATASIZE SUB DUP2 ADD SWAP1 PUSH2 0x11D SWAP2 SWAP1 PUSH2 0xC77 JUMP JUMPDEST PUSH2 0x99C JUMP JUMPDEST STOP JUMPDEST PUSH0 DUP2 DUP2 SLOAD DUP2 LT PUSH2 0x132 JUMPI PUSH0 DUP1 REVERT JUMPDEST SWAP1 PUSH0 MSTORE PUSH1 0x20 PUSH0 KECCAK256 SWAP1 PUSH1 0x8 MUL ADD PUSH0 SWAP2 POP SWAP1 POP DUP1 PUSH0 ADD PUSH0 SWAP1 SLOAD SWAP1 PUSH2 0x100 EXP SWAP1 DIV PUSH20 0xFFFFFFFFFFFFFFFFFFFFFFFFFFFFFFFFFFFFFFFF AND SWAP1 DUP1 PUSH1 0x1 ADD DUP1 SLOAD PUSH2 0x176 SWAP1 PUSH2 0xF35 JUMP JUMPDEST DUP1 PUSH1 0x1F ADD PUSH1 0x20 DUP1 SWAP2 DIV MUL PUSH1 0x20 ADD PUSH1 0x40 MLOAD SWAP1 DUP2 ADD PUSH1 0x40 MSTORE DUP1 SWAP3 SWAP2 SWAP1 DUP2 DUP2 MSTORE PUSH1 0x20 ADD DUP3 DUP1 SLOAD PUSH2 0x1A2 SWAP1 PUSH2 0xF35 JUMP JUMPDEST DUP1 ISZERO PUSH2 0x1ED JUMPI DUP1 PUSH1 0x1F LT PUSH2 0x1C4 JUMPI PUSH2 0x100 DUP1 DUP4 SLOAD DIV MUL DUP4 MSTORE SWAP2 PUSH1 0x20 ADD SWAP2 PUSH2 0x1ED JUMP JUMPDEST DUP3 ADD SWAP2 SWAP1 PUSH0 MSTORE PUSH1 0x20 PUSH0 KECCAK256 SWAP1 JUMPDEST DUP2 SLOAD DUP2 MSTORE SWAP1 PUSH1 0x1 ADD SWAP1 PUSH1 0x20 ADD DUP1 DUP4 GT PUSH2 0x1D0 JUMPI DUP3 SWAP1 SUB PUSH1 0x1F AND DUP3 ADD SWAP2 JUMPDEST POP POP POP POP POP SWAP1 DUP1 PUSH1 0x2 ADD DUP1 SLOAD PUSH2 0x202 SWAP1 PUSH2 0xF35 JUMP JUMPDEST DUP1 PUSH1 0x1F ADD PUSH1 0x20 DUP1 SWAP2 DIV MUL PUSH1 0x20 ADD PUSH1 0x40 MLOAD SWAP1 DUP2 ADD PUSH1 0x40 MSTORE DUP1 SWAP3 SWAP2 SWAP1 DUP2 DUP2 MSTORE PUSH1 0x20 ADD DUP3 DUP1 SLOAD PUSH2 0x22E SWAP1 PUSH2 0xF35 JUMP JUMPDEST DUP1 ISZERO PUSH2 0x279 JUMPI DUP1 PUSH1 0x1F LT PUSH2 0x250 JUMPI PUSH2 0x100 DUP1 DUP4 SLOAD DIV MUL DUP4 MSTORE SWAP2 PUSH1 0x20 ADD SWAP2 PUSH2 0x279 JUMP JUMPDEST DUP3 ADD SWAP2 SWAP1 PUSH0 MSTORE PUSH1 0x20 PUSH0 KECCAK256 SWAP1 JUMPDEST DUP2 SLOAD DUP2 MSTORE SWAP1 PUSH1 0x1 ADD SWAP1 PUSH1 0x20 ADD DUP1 DUP4 GT PUSH2 0x25C JUMPI DUP3 SWAP1 SUB PUSH1 0x1F AND DUP3 ADD SWAP2 JUMPDEST POP POP POP POP POP SWAP1 DUP1 PUSH1 0x3 ADD SLOAD SWAP1 DUP1 PUSH1 0x4 ADD SLOAD SWAP1 DUP1 PUSH1 0x5 ADD SLOAD SWAP1 DUP1 PUSH1 0x6 ADD PUSH0 SWAP1 SLOAD SWAP1 PUSH2 0x100 EXP SWAP1 DIV PUSH1 0xFF AND SWAP1 DUP1 PUSH1 0x6 ADD PUSH1 0x1 SWAP1 SLOAD SWAP1 PUSH2 0x100 EXP SWAP1 DIV PUSH1 0xFF AND SWAP1 POP DUP9 JUMP JUMPDEST DUP1 PUSH0 DUP1 SLOAD SWAP1 POP DUP2 LT PUSH2 0x301 JUMPI PUSH1 0x40 MLOAD PUSH32 0x8C379A000000000000000000000000000000000000000000000000000000000 DUP2 MSTORE PUSH1 0x4 ADD PUSH2 0x2F8 SWAP1 PUSH2 0xFAF JUMP JUMPDEST PUSH1 0x40 MLOAD DUP1 SWAP2 SUB SWAP1 REVERT JUMPDEST DUP2 CALLER PUSH20 0xFFFFFFFFFFFFFFFFFFFFFFFFFFFFFFFFFFFFFFFF AND PUSH0 DUP3 DUP2 SLOAD DUP2 LT PUSH2 0x32C JUMPI PUSH2 0x32B PUSH2 0xFCD JUMP JUMPDEST JUMPDEST SWAP1 PUSH0 MSTORE PUSH1 0x20 PUSH0 KECCAK256 SWAP1 PUSH1 0x8 MUL ADD PUSH0 ADD PUSH0 SWAP1 SLOAD SWAP1 PUSH2 0x100 EXP SWAP1 DIV PUSH20 0xFFFFFFFFFFFFFFFFFFFFFFFFFFFFFFFFFFFFFFFF AND PUSH20 0xFFFFFFFFFFFFFFFFFFFFFFFFFFFFFFFFFFFFFFFF AND EQ PUSH2 0x3B0 JUMPI PUSH1 0x40 MLOAD PUSH32 0x8C379A000000000000000000000000000000000000000000000000000000000 DUP2 MSTORE PUSH1 0x4 ADD PUSH2 0x3A7 SWAP1 PUSH2 0x1044 JUMP JUMPDEST PUSH1 0x40 MLOAD DUP1 SWAP2 SUB SWAP1 REVERT JUMPDEST PUSH0 DUP1 DUP5 DUP2 SLOAD DUP2 LT PUSH2 0x3C4 JUMPI PUSH2 0x3C3 PUSH2 0xFCD JUMP JUMPDEST JUMPDEST SWAP1 PUSH0 MSTORE PUSH1 0x20 PUSH0 KECCAK256 SWAP1 PUSH1 0x8 MUL ADD SWAP1 POP DUP1 PUSH1 0x6 ADD PUSH0 SWAP1 SLOAD SWAP1 PUSH2 0x100 EXP SWAP1 DIV PUSH1 0xFF AND PUSH2 0x422 JUMPI PUSH1 0x40 MLOAD PUSH32 0x8C379A000000000000000000000000000000000000000000000000000000000 DUP2 MSTORE PUSH1 0x4 ADD PUSH2 0x419 SWAP1 PUSH2 0x10AC JUMP JUMPDEST PUSH1 0x40 MLOAD DUP1 SWAP2 SUB SWAP1 REVERT JUMPDEST DUP1 PUSH1 0x5 ADD SLOAD TIMESTAMP LT ISZERO PUSH2 0x469 JUMPI PUSH1 0x40 MLOAD PUSH32 0x8C379A000000000000000000000000000000000000000000000000000000000 DUP2 MSTORE PUSH1 0x4 ADD PUSH2 0x460 SWAP1 PUSH2 0x1114 JUMP JUMPDEST PUSH1 0x40 MLOAD DUP1 SWAP2 SUB SWAP1 REVERT JUMPDEST DUP1 PUSH1 0x6 ADD PUSH1 0x1 SWAP1 SLOAD SWAP1 PUSH2 0x100 EXP SWAP1 DIV PUSH1 0xFF AND ISZERO PUSH2 0x4BB JUMPI PUSH1 0x40 MLOAD PUSH32 0x8C379A000000000000000000000000000000000000000000000000000000000 DUP2 MSTORE PUSH1 0x4 ADD PUSH2 0x4B2 SWAP1 PUSH2 0x117C JUMP JUMPDEST PUSH1 0x40 MLOAD DUP1 SWAP2 SUB SWAP1 REVERT JUMPDEST PUSH0 DUP2 PUSH1 0x4 ADD SLOAD SWAP1 POP PUSH0 DUP3 PUSH1 0x4 ADD DUP2 SWAP1 SSTORE POP PUSH1 0x1 DUP3 PUSH1 0x6 ADD PUSH1 0x1 PUSH2 0x100 EXP DUP2 SLOAD DUP2 PUSH1 0xFF MUL NOT AND SWAP1 DUP4 ISZERO ISZERO MUL OR SWAP1 SSTORE POP CALLER PUSH20 0xFFFFFFFFFFFFFFFFFFFFFFFFFFFFFFFFFFFFFFFF AND PUSH2 0x8FC DUP3 SWAP1 DUP2 ISZERO MUL SWAP1 PUSH1 0x40 MLOAD PUSH0 PUSH1 0x40 MLOAD DUP1 DUP4 SUB DUP2 DUP6 DUP9 DUP9 CALL SWAP4 POP POP POP POP ISZERO DUP1 ISZERO PUSH2 0x52C JUMPI RETURNDATASIZE PUSH0 DUP1 RETURNDATACOPY RETURNDATASIZE PUSH0 REVERT JUMPDEST POP DUP5 PUSH32 0xF440AEC6B52895984D061D622E6EDEBA6210F7C3E059BE920663140C084560D7 CALLER DUP4 PUSH1 0x40 MLOAD PUSH2 0x55F SWAP3 SWAP2 SWAP1 PUSH2 0x11BA JUMP JUMPDEST PUSH1 0x40 MLOAD DUP1 SWAP2 SUB SWAP1 LOG2 POP POP POP POP POP JUMP JUMPDEST PUSH0 DUP2 GT PUSH2 0x5B0 JUMPI PUSH1 0x40 MLOAD PUSH32 0x8C379A000000000000000000000000000000000000000000000000000000000 DUP2 MSTORE PUSH1 0x4 ADD PUSH2 0x5A7 SWAP1 PUSH2 0x122B JUMP JUMPDEST PUSH1 0x40 MLOAD DUP1 SWAP2 SUB SWAP1 REVERT JUMPDEST PUSH0 DUP3 GT PUSH2 0x5F2 JUMPI PUSH1 0x40 MLOAD PUSH32 0x8C379A000000000000000000000000000000000000000000000000000000000 DUP2 MSTORE PUSH1 0x4 ADD PUSH2 0x5E9 SWAP1 PUSH2 0x1293 JUMP JUMPDEST PUSH1 0x40 MLOAD DUP1 SWAP2 SUB SWAP1 REVERT JUMPDEST PUSH0 DUP3 TIMESTAMP PUSH2 0x5FF SWAP2 SWAP1 PUSH2 0x12DE JUMP JUMPDEST SWAP1 POP PUSH0 DUP1 PUSH1 0x1 DUP2 PUSH1 0x1 DUP2 SLOAD ADD DUP1 DUP3 SSTORE DUP1 SWAP2 POP POP SUB SWAP1 PUSH0 MSTORE PUSH1 0x20 PUSH0 KECCAK256 SWAP1 PUSH1 0x8 MUL ADD SWAP1 POP CALLER DUP2 PUSH0 ADD PUSH0 PUSH2 0x100 EXP DUP2 SLOAD DUP2 PUSH20 0xFFFFFFFFFFFFFFFFFFFFFFFFFFFFFFFFFFFFFFFF MUL NOT AND SWAP1 DUP4 PUSH20 0xFFFFFFFFFFFFFFFFFFFFFFFFFFFFFFFFFFFFFFFF AND MUL OR SWAP1 SSTORE POP DUP8 DUP8 DUP3 PUSH1 0x1 ADD SWAP2 DUP3 PUSH2 0x675 SWAP3 SWAP2 SWAP1 PUSH2 0x14E5 JUMP JUMPDEST POP DUP6 DUP6 DUP3 PUSH1 0x2 ADD SWAP2 DUP3 PUSH2 0x689 SWAP3 SWAP2 SWAP1 PUSH2 0x14E5 JUMP JUMPDEST POP DUP3 DUP2 PUSH1 0x3 ADD DUP2 SWAP1 SSTORE POP DUP2 DUP2 PUSH1 0x5 ADD DUP2 SWAP1 SSTORE POP PUSH0 DUP2 PUSH1 0x6 ADD PUSH0 PUSH2 0x100 EXP DUP2 SLOAD DUP2 PUSH1 0xFF MUL NOT AND SWAP1 DUP4 ISZERO ISZERO MUL OR SWAP1 SSTORE POP PUSH0 DUP2 PUSH1 0x6 ADD PUSH1 0x1 PUSH2 0x100 EXP DUP2 SLOAD DUP2 PUSH1 0xFF MUL NOT AND SWAP1 DUP4 ISZERO ISZERO MUL OR SWAP1 SSTORE POP PUSH1 0x1 PUSH0 DUP1 SLOAD SWAP1 POP PUSH2 0x6E4 SWAP2 SWAP1 PUSH2 0x15B2 JUMP JUMPDEST PUSH32 0x633109EEC20320EDED000FC1E2634211AA7E92BA3F5B15FAF6DCDAFCA05094E4 CALLER PUSH1 0x40 MLOAD PUSH2 0x713 SWAP2 SWAP1 PUSH2 0x15E5 JUMP JUMPDEST PUSH1 0x40 MLOAD DUP1 SWAP2 SUB SWAP1 LOG2 POP POP POP POP POP POP POP POP JUMP JUMPDEST DUP1 PUSH0 DUP1 SLOAD SWAP1 POP DUP2 LT PUSH2 0x76C JUMPI PUSH1 0x40 MLOAD PUSH32 0x8C379A000000000000000000000000000000000000000000000000000000000 DUP2 MSTORE PUSH1 0x4 ADD PUSH2 0x763 SWAP1 PUSH2 0xFAF JUMP JUMPDEST PUSH1 0x40 MLOAD DUP1 SWAP2 SUB SWAP1 REVERT JUMPDEST DUP2 PUSH0 DUP2 DUP2 SLOAD DUP2 LT PUSH2 0x780 JUMPI PUSH2 0x77F PUSH2 0xFCD JUMP JUMPDEST JUMPDEST SWAP1 PUSH0 MSTORE PUSH1 0x20 PUSH0 KECCAK256 SWAP1 PUSH1 0x8 MUL ADD PUSH1 0x6 ADD PUSH1 0x1 SWAP1 SLOAD SWAP1 PUSH2 0x100 EXP SWAP1 DIV PUSH1 0xFF AND ISZERO PUSH2 0x7DD JUMPI PUSH1 0x40 MLOAD PUSH32 0x8C379A000000000000000000000000000000000000000000000000000000000 DUP2 MSTORE PUSH1 0x4 ADD PUSH2 0x7D4 SWAP1 PUSH2 0x1648 JUMP JUMPDEST PUSH1 0x40 MLOAD DUP1 SWAP2 SUB SWAP1 REVERT JUMPDEST PUSH0 DUP2 DUP2 SLOAD DUP2 LT PUSH2 0x7F0 JUMPI PUSH2 0x7EF PUSH2 0xFCD JUMP JUMPDEST JUMPDEST SWAP1 PUSH0 MSTORE PUSH1 0x20 PUSH0 KECCAK256 SWAP1 PUSH1 0x8 MUL ADD PUSH1 0x5 ADD SLOAD TIMESTAMP LT PUSH2 0x841 JUMPI PUSH1 0x40 MLOAD PUSH32 0x8C379A000000000000000000000000000000000000000000000000000000000 DUP2 MSTORE PUSH1 0x4 ADD PUSH2 0x838 SWAP1 PUSH2 0x16B0 JUMP JUMPDEST PUSH1 0x40 MLOAD DUP1 SWAP2 SUB SWAP1 REVERT JUMPDEST PUSH0 CALLVALUE GT PUSH2 0x883 JUMPI PUSH1 0x40 MLOAD PUSH32 0x8C379A000000000000000000000000000000000000000000000000000000000 DUP2 MSTORE PUSH1 0x4 ADD PUSH2 0x87A SWAP1 PUSH2 0x1718 JUMP JUMPDEST PUSH1 0x40 MLOAD DUP1 SWAP2 SUB SWAP1 REVERT JUMPDEST PUSH0 DUP1 DUP5 DUP2 SLOAD DUP2 LT PUSH2 0x897 JUMPI PUSH2 0x896 PUSH2 0xFCD JUMP JUMPDEST JUMPDEST SWAP1 PUSH0 MSTORE PUSH1 0x20 PUSH0 KECCAK256 SWAP1 PUSH1 0x8 MUL ADD SWAP1 POP CALLVALUE DUP2 PUSH1 0x7 ADD PUSH0 CALLER PUSH20 0xFFFFFFFFFFFFFFFFFFFFFFFFFFFFFFFFFFFFFFFF AND PUSH20 0xFFFFFFFFFFFFFFFFFFFFFFFFFFFFFFFFFFFFFFFF AND DUP2 MSTORE PUSH1 0x20 ADD SWAP1 DUP2 MSTORE PUSH1 0x20 ADD PUSH0 KECCAK256 PUSH0 DUP3 DUP3 SLOAD PUSH2 0x8F3 SWAP2 SWAP1 PUSH2 0x12DE JUMP JUMPDEST SWAP3 POP POP DUP2 SWAP1 SSTORE POP CALLVALUE DUP2 PUSH1 0x4 ADD PUSH0 DUP3 DUP3 SLOAD PUSH2 0x90D SWAP2 SWAP1 PUSH2 0x12DE JUMP JUMPDEST SWAP3 POP POP DUP2 SWAP1 SSTORE POP DUP1 PUSH1 0x3 ADD SLOAD DUP2 PUSH1 0x4 ADD SLOAD LT ISZERO DUP1 ISZERO PUSH2 0x93A JUMPI POP DUP1 PUSH1 0x6 ADD PUSH0 SWAP1 SLOAD SWAP1 PUSH2 0x100 EXP SWAP1 DIV PUSH1 0xFF AND ISZERO JUMPDEST ISZERO PUSH2 0x95C JUMPI PUSH1 0x1 DUP2 PUSH1 0x6 ADD PUSH0 PUSH2 0x100 EXP DUP2 SLOAD DUP2 PUSH1 0xFF MUL NOT AND SWAP1 DUP4 ISZERO ISZERO MUL OR SWAP1 SSTORE POP JUMPDEST DUP4 PUSH32 0xA4A91237423E0A1766A761C7CB029311D8B95D6B1B81DB1B949A70C98B4E08E CALLER CALLVALUE PUSH1 0x40 MLOAD PUSH2 0x98E SWAP3 SWAP2 SWAP1 PUSH2 0x11BA JUMP JUMPDEST PUSH1 0x40 MLOAD DUP1 SWAP2 SUB SWAP1 LOG2 POP POP POP POP JUMP JUMPDEST DUP1 PUSH0 DUP1 SLOAD SWAP1 POP DUP2 LT PUSH2 0x9E3 JUMPI PUSH1 0x40 MLOAD PUSH32 0x8C379A000000000000000000000000000000000000000000000000000000000 DUP2 MSTORE PUSH1 0x4 ADD PUSH2 0x9DA SWAP1 PUSH2 0xFAF JUMP JUMPDEST PUSH1 0x40 MLOAD DUP1 SWAP2 SUB SWAP1 REVERT JUMPDEST PUSH0 DUP1 DUP4 DUP2 SLOAD DUP2 LT PUSH2 0x9F7 JUMPI PUSH2 0x9F6 PUSH2 0xFCD JUMP JUMPDEST JUMPDEST SWAP1 PUSH0 MSTORE PUSH1 0x20 PUSH0 KECCAK256 SWAP1 PUSH1 0x8 MUL ADD SWAP1 POP DUP1 PUSH1 0x5 ADD SLOAD TIMESTAMP LT ISZERO PUSH2 0xA4C JUMPI PUSH1 0x40 MLOAD PUSH32 0x8C379A000000000000000000000000000000000000000000000000000000000 DUP2 MSTORE PUSH1 0x4 ADD PUSH2 0xA43 SWAP1 PUSH2 0x1780 JUMP JUMPDEST PUSH1 0x40 MLOAD DUP1 SWAP2 SUB SWAP1 REVERT JUMPDEST DUP1 PUSH1 0x6 ADD PUSH0 SWAP1 SLOAD SWAP1 PUSH2 0x100 EXP SWAP1 DIV PUSH1 0xFF AND ISZERO PUSH2 0xA9D JUMPI PUSH1 0x40 MLOAD PUSH32 0x8C379A000000000000000000000000000000000000000000000000000000000 DUP2 MSTORE PUSH1 0x4 ADD PUSH2 0xA94 SWAP1 PUSH2 0x17E8 JUMP JUMPDEST PUSH1 0x40 MLOAD DUP1 SWAP2 SUB SWAP1 REVERT JUMPDEST DUP1 PUSH1 0x6 ADD PUSH1 0x1 SWAP1 SLOAD SWAP1 PUSH2 0x100 EXP SWAP1 DIV PUSH1 0xFF AND ISZERO PUSH2 0xAEF JUMPI PUSH1 0x40 MLOAD PUSH32 0x8C379A000000000000000000000000000000000000000000000000000000000 DUP2 MSTORE PUSH1 0x4 ADD PUSH2 0xAE6 SWAP1 PUSH2 0x1850 JUMP JUMPDEST PUSH1 0x40 MLOAD DUP1 SWAP2 SUB SWAP1 REVERT JUMPDEST PUSH0 DUP2 PUSH1 0x7 ADD PUSH0 CALLER PUSH20 0xFFFFFFFFFFFFFFFFFFFFFFFFFFFFFFFFFFFFFFFF AND PUSH20 0xFFFFFFFFFFFFFFFFFFFFFFFFFFFFFFFFFFFFFFFF AND DUP2 MSTORE PUSH1 0x20 ADD SWAP1 DUP2 MSTORE PUSH1 0x20 ADD PUSH0 KECCAK256 SLOAD SWAP1 POP PUSH0 DUP2 GT PUSH2 0xB74 JUMPI PUSH1 0x40 MLOAD PUSH32 0x8C379A000000000000000000000000000000000000000000000000000000000 DUP2 MSTORE PUSH1 0x4 ADD PUSH2 0xB6B SWAP1 PUSH2 0x18B8 JUMP JUMPDEST PUSH1 0x40 MLOAD DUP1 SWAP2 SUB SWAP1 REVERT JUMPDEST PUSH0 DUP3 PUSH1 0x7 ADD PUSH0 CALLER PUSH20 0xFFFFFFFFFFFFFFFFFFFFFFFFFFFFFFFFFFFFFFFF AND PUSH20 0xFFFFFFFFFFFFFFFFFFFFFFFFFFFFFFFFFFFFFFFF AND DUP2 MSTORE PUSH1 0x20 ADD SWAP1 DUP2 MSTORE PUSH1 0x20 ADD PUSH0 KECCAK256 DUP2 SWAP1 SSTORE POP CALLER PUSH20 0xFFFFFFFFFFFFFFFFFFFFFFFFFFFFFFFFFFFFFFFF AND PUSH2 0x8FC DUP3 SWAP1 DUP2 ISZERO MUL SWAP1 PUSH1 0x40 MLOAD PUSH0 PUSH1 0x40 MLOAD DUP1 DUP4 SUB DUP2 DUP6 DUP9 DUP9 CALL SWAP4 POP POP POP POP ISZERO DUP1 ISZERO PUSH2 0xBFB JUMPI RETURNDATASIZE PUSH0 DUP1 RETURNDATACOPY RETURNDATASIZE PUSH0 REVERT JUMPDEST POP DUP4 PUSH32 0xA182B2A9C58FAE7E4827FBE3AC2FA1C5711191EF3F58B1FA19631FEB97273BB2 CALLER DUP4 PUSH1 0x40 MLOAD PUSH2 0xC2E SWAP3 SWAP2 SWAP1 PUSH2 0x11BA JUMP JUMPDEST PUSH1 0x40 MLOAD DUP1 SWAP2 SUB SWAP1 LOG2 POP POP POP POP JUMP JUMPDEST PUSH0 DUP1 REVERT JUMPDEST PUSH0 DUP1 REVERT JUMPDEST PUSH0 DUP2 SWAP1 POP SWAP2 SWAP1 POP JUMP JUMPDEST PUSH2 0xC56 DUP2 PUSH2 0xC44 JUMP JUMPDEST DUP2 EQ PUSH2 0xC60 JUMPI PUSH0 DUP1 REVERT JUMPDEST POP JUMP JUMPDEST PUSH0 DUP2 CALLDATALOAD SWAP1 POP PUSH2 0xC71 DUP2 PUSH2 0xC4D JUMP JUMPDEST SWAP3 SWAP2 POP POP JUMP JUMPDEST PUSH0 PUSH1 0x20 DUP3 DUP5 SUB SLT ISZERO PUSH2 0xC8C JUMPI PUSH2 0xC8B PUSH2 0xC3C JUMP JUMPDEST JUMPDEST PUSH0 PUSH2 0xC99 DUP5 DUP3 DUP6 ADD PUSH2 0xC63 JUMP JUMPDEST SWAP2 POP POP SWAP3 SWAP2 POP POP JUMP JUMPDEST PUSH0 PUSH20 0xFFFFFFFFFFFFFFFFFFFFFFFFFFFFFFFFFFFFFFFF DUP3 AND SWAP1 POP SWAP2 SWAP1 POP JUMP JUMPDEST PUSH0 PUSH2 0xCCB DUP3 PUSH2 0xCA2 JUMP JUMPDEST SWAP1 POP SWAP2 SWAP1 POP JUMP JUMPDEST PUSH2 0xCDB DUP2 PUSH2 0xCC1 JUMP JUMPDEST DUP3 MSTORE POP POP JUMP JUMPDEST PUSH0 DUP2 MLOAD SWAP1 POP SWAP2 SWAP1 POP JUMP JUMPDEST PUSH0 DUP3 DUP3 MSTORE PUSH1 0x20 DUP3 ADD SWAP1 POP SWAP3 SWAP2 POP POP JUMP JUMPDEST DUP3 DUP2 DUP4 MCOPY PUSH0 DUP4 DUP4 ADD MSTORE POP POP POP JUMP JUMPDEST PUSH0 PUSH1 0x1F NOT PUSH1 0x1F DUP4 ADD AND SWAP1 POP SWAP2 SWAP1 POP JUMP JUMPDEST PUSH0 PUSH2 0xD23 DUP3 PUSH2 0xCE1 JUMP JUMPDEST PUSH2 0xD2D DUP2 DUP6 PUSH2 0xCEB JUMP JUMPDEST SWAP4 POP PUSH2 0xD3D DUP2 DUP6 PUSH1 0x20 DUP7 ADD PUSH2 0xCFB JUMP JUMPDEST PUSH2 0xD46 DUP2 PUSH2 0xD09 JUMP JUMPDEST DUP5 ADD SWAP2 POP POP SWAP3 SWAP2 POP POP JUMP JUMPDEST PUSH2 0xD5A DUP2 PUSH2 0xC44 JUMP JUMPDEST DUP3 MSTORE POP POP JUMP JUMPDEST PUSH0 DUP2 ISZERO ISZERO SWAP1 POP SWAP2 SWAP1 POP JUMP JUMPDEST PUSH2 0xD74 DUP2 PUSH2 0xD60 JUMP JUMPDEST DUP3 MSTORE POP POP JUMP JUMPDEST PUSH0 PUSH2 0x100 DUP3 ADD SWAP1 POP PUSH2 0xD8E PUSH0 DUP4 ADD DUP12 PUSH2 0xCD2 JUMP JUMPDEST DUP2 DUP2 SUB PUSH1 0x20 DUP4 ADD MSTORE PUSH2 0xDA0 DUP2 DUP11 PUSH2 0xD19 JUMP JUMPDEST SWAP1 POP DUP2 DUP2 SUB PUSH1 0x40 DUP4 ADD MSTORE PUSH2 0xDB4 DUP2 DUP10 PUSH2 0xD19 JUMP JUMPDEST SWAP1 POP PUSH2 0xDC3 PUSH1 0x60 DUP4 ADD DUP9 PUSH2 0xD51 JUMP JUMPDEST PUSH2 0xDD0 PUSH1 0x80 DUP4 ADD DUP8 PUSH2 0xD51 JUMP JUMPDEST PUSH2 0xDDD PUSH1 0xA0 DUP4 ADD DUP7 PUSH2 0xD51 JUMP JUMPDEST PUSH2 0xDEA PUSH1 0xC0 DUP4 ADD DUP6 PUSH2 0xD6B JUMP JUMPDEST PUSH2 0xDF7 PUSH1 0xE0 DUP4 ADD DUP5 PUSH2 0xD6B JUMP JUMPDEST SWAP10 SWAP9 POP POP POP POP POP POP POP POP POP JUMP JUMPDEST PUSH0 DUP1 REVERT JUMPDEST PUSH0 DUP1 REVERT JUMPDEST PUSH0 DUP1 REVERT JUMPDEST PUSH0 DUP1 DUP4 PUSH1 0x1F DUP5 ADD SLT PUSH2 0xE25 JUMPI PUSH2 0xE24 PUSH2 0xE04 JUMP JUMPDEST JUMPDEST DUP3 CALLDATALOAD SWAP1 POP PUSH8 0xFFFFFFFFFFFFFFFF DUP2 GT ISZERO PUSH2 0xE42 JUMPI PUSH2 0xE41 PUSH2 0xE08 JUMP JUMPDEST JUMPDEST PUSH1 0x20 DUP4 ADD SWAP2 POP DUP4 PUSH1 0x1 DUP3 MUL DUP4 ADD GT ISZERO PUSH2 0xE5E JUMPI PUSH2 0xE5D PUSH2 0xE0C JUMP JUMPDEST JUMPDEST SWAP3 POP SWAP3 SWAP1 POP JUMP JUMPDEST PUSH0 DUP1 PUSH0 DUP1 PUSH0 DUP1 PUSH1 0x80 DUP8 DUP10 SUB SLT ISZERO PUSH2 0xE7F JUMPI PUSH2 0xE7E PUSH2 0xC3C JUMP JUMPDEST JUMPDEST PUSH0 DUP8 ADD CALLDATALOAD PUSH8 0xFFFFFFFFFFFFFFFF DUP2 GT ISZERO PUSH2 0xE9C JUMPI PUSH2 0xE9B PUSH2 0xC40 JUMP JUMPDEST JUMPDEST PUSH2 0xEA8 DUP10 DUP3 DUP11 ADD PUSH2 0xE10 JUMP JUMPDEST SWAP7 POP SWAP7 POP POP PUSH1 0x20 DUP8 ADD CALLDATALOAD PUSH8 0xFFFFFFFFFFFFFFFF DUP2 GT ISZERO PUSH2 0xECB JUMPI PUSH2 0xECA PUSH2 0xC40 JUMP JUMPDEST JUMPDEST PUSH2 0xED7 DUP10 DUP3 DUP11 ADD PUSH2 0xE10 JUMP JUMPDEST SWAP5 POP SWAP5 POP POP PUSH1 0x40 PUSH2 0xEEA DUP10 DUP3 DUP11 ADD PUSH2 0xC63 JUMP JUMPDEST SWAP3 POP POP PUSH1 0x60 PUSH2 0xEFB DUP10 DUP3 DUP11 ADD PUSH2 0xC63 JUMP JUMPDEST SWAP2 POP POP SWAP3 SWAP6 POP SWAP3 SWAP6 POP SWAP3 SWAP6 JUMP JUMPDEST PUSH32 0x4E487B7100000000000000000000000000000000000000000000000000000000 PUSH0 MSTORE PUSH1 0x22 PUSH1 0x4 MSTORE PUSH1 0x24 PUSH0 REVERT JUMPDEST PUSH0 PUSH1 0x2 DUP3 DIV SWAP1 POP PUSH1 0x1 DUP3 AND DUP1 PUSH2 0xF4C JUMPI PUSH1 0x7F DUP3 AND SWAP2 POP JUMPDEST PUSH1 0x20 DUP3 LT DUP2 SUB PUSH2 0xF5F JUMPI PUSH2 0xF5E PUSH2 0xF08 JUMP JUMPDEST JUMPDEST POP SWAP2 SWAP1 POP JUMP JUMPDEST PUSH32 0x496E76616C69642063616D706169676E20494400000000000000000000000000 PUSH0 DUP3 ADD MSTORE POP JUMP JUMPDEST PUSH0 PUSH2 0xF99 PUSH1 0x13 DUP4 PUSH2 0xCEB JUMP JUMPDEST SWAP2 POP PUSH2 0xFA4 DUP3 PUSH2 0xF65 JUMP JUMPDEST PUSH1 0x20 DUP3 ADD SWAP1 POP SWAP2 SWAP1 POP JUMP JUMPDEST PUSH0 PUSH1 0x20 DUP3 ADD SWAP1 POP DUP2 DUP2 SUB PUSH0 DUP4 ADD MSTORE PUSH2 0xFC6 DUP2 PUSH2 0xF8D JUMP JUMPDEST SWAP1 POP SWAP2 SWAP1 POP JUMP JUMPDEST PUSH32 0x4E487B7100000000000000000000000000000000000000000000000000000000 PUSH0 MSTORE PUSH1 0x32 PUSH1 0x4 MSTORE PUSH1 0x24 PUSH0 REVERT JUMPDEST PUSH32 0x556E617574686F72697A65640000000000000000000000000000000000000000 PUSH0 DUP3 ADD MSTORE POP JUMP JUMPDEST PUSH0 PUSH2 0x102E PUSH1 0xC DUP4 PUSH2 0xCEB JUMP JUMPDEST SWAP2 POP PUSH2 0x1039 DUP3 PUSH2 0xFFA JUMP JUMPDEST PUSH1 0x20 DUP3 ADD SWAP1 POP SWAP2 SWAP1 POP JUMP JUMPDEST PUSH0 PUSH1 0x20 DUP3 ADD SWAP1 POP DUP2 DUP2 SUB PUSH0 DUP4 ADD MSTORE PUSH2 0x105B DUP2 PUSH2 0x1022 JUMP JUMPDEST SWAP1 POP SWAP2 SWAP1 POP JUMP JUMPDEST PUSH32 0x476F616C206E6F74207265616368656400000000000000000000000000000000 PUSH0 DUP3 ADD MSTORE POP JUMP JUMPDEST PUSH0 PUSH2 0x1096 PUSH1 0x10 DUP4 PUSH2 0xCEB JUMP JUMPDEST SWAP2 POP PUSH2 0x10A1 DUP3 PUSH2 0x1062 JUMP JUMPDEST PUSH1 0x20 DUP3 ADD SWAP1 POP SWAP2 SWAP1 POP JUMP JUMPDEST PUSH0 PUSH1 0x20 DUP3 ADD SWAP1 POP DUP2 DUP2 SUB PUSH0 DUP4 ADD MSTORE PUSH2 0x10C3 DUP2 PUSH2 0x108A JUMP JUMPDEST SWAP1 POP SWAP2 SWAP1 POP JUMP JUMPDEST PUSH32 0x446561646C696E65206E6F742070617373656400000000000000000000000000 PUSH0 DUP3 ADD MSTORE POP JUMP JUMPDEST PUSH0 PUSH2 0x10FE PUSH1 0x13 DUP4 PUSH2 0xCEB JUMP JUMPDEST SWAP2 POP PUSH2 0x1109 DUP3 PUSH2 0x10CA JUMP JUMPDEST PUSH1 0x20 DUP3 ADD SWAP1 POP SWAP2 SWAP1 POP JUMP JUMPDEST PUSH0 PUSH1 0x20 DUP3 ADD SWAP1 POP DUP2 DUP2 SUB PUSH0 DUP4 ADD MSTORE PUSH2 0x112B DUP2 PUSH2 0x10F2 JUMP JUMPDEST SWAP1 POP SWAP2 SWAP1 POP JUMP JUMPDEST PUSH32 0x46756E647320616C72656164792077697468647261776E000000000000000000 PUSH0 DUP3 ADD MSTORE POP JUMP JUMPDEST PUSH0 PUSH2 0x1166 PUSH1 0x17 DUP4 PUSH2 0xCEB JUMP JUMPDEST SWAP2 POP PUSH2 0x1171 DUP3 PUSH2 0x1132 JUMP JUMPDEST PUSH1 0x20 DUP3 ADD SWAP1 POP SWAP2 SWAP1 POP JUMP JUMPDEST PUSH0 PUSH1 0x20 DUP3 ADD SWAP1 POP DUP2 DUP2 SUB PUSH0 DUP4 ADD MSTORE PUSH2 0x1193 DUP2 PUSH2 0x115A JUMP JUMPDEST SWAP1 POP SWAP2 SWAP1 POP JUMP JUMPDEST PUSH0 PUSH2 0x11A4 DUP3 PUSH2 0xCA2 JUMP JUMPDEST SWAP1 POP SWAP2 SWAP1 POP JUMP JUMPDEST PUSH2 0x11B4 DUP2 PUSH2 0x119A JUMP JUMPDEST DUP3 MSTORE POP POP JUMP JUMPDEST PUSH0 PUSH1 0x40 DUP3 ADD SWAP1 POP PUSH2 0x11CD PUSH0 DUP4 ADD DUP6 PUSH2 0x11AB JUMP JUMPDEST PUSH2 0x11DA PUSH1 0x20 DUP4 ADD DUP5 PUSH2 0xD51 JUMP JUMPDEST SWAP4 SWAP3 POP POP POP JUMP JUMPDEST PUSH32 0x476F616C206D757374206265203E203000000000000000000000000000000000 PUSH0 DUP3 ADD MSTORE POP JUMP JUMPDEST PUSH0 PUSH2 0x1215 PUSH1 0x10 DUP4 PUSH2 0xCEB JUMP JUMPDEST SWAP2 POP PUSH2 0x1220 DUP3 PUSH2 0x11E1 JUMP JUMPDEST PUSH1 0x20 DUP3 ADD SWAP1 POP SWAP2 SWAP1 POP JUMP JUMPDEST PUSH0 PUSH1 0x20 DUP3 ADD SWAP1 POP DUP2 DUP2 SUB PUSH0 DUP4 ADD MSTORE PUSH2 0x1242 DUP2 PUSH2 0x1209 JUMP JUMPDEST SWAP1 POP SWAP2 SWAP1 POP JUMP JUMPDEST PUSH32 0x4475726174696F6E206D757374206265203E2030000000000000000000000000 PUSH0 DUP3 ADD MSTORE POP JUMP JUMPDEST PUSH0 PUSH2 0x127D PUSH1 0x14 DUP4 PUSH2 0xCEB JUMP JUMPDEST SWAP2 POP PUSH2 0x1288 DUP3 PUSH2 0x1249 JUMP JUMPDEST PUSH1 0x20 DUP3 ADD SWAP1 POP SWAP2 SWAP1 POP JUMP JUMPDEST PUSH0 PUSH1 0x20 DUP3 ADD SWAP1 POP DUP2 DUP2 SUB PUSH0 DUP4 ADD MSTORE PUSH2 0x12AA DUP2 PUSH2 0x1271 JUMP JUMPDEST SWAP1 POP SWAP2 SWAP1 POP JUMP JUMPDEST PUSH32 0x4E487B7100000000000000000000000000000000000000000000000000000000 PUSH0 MSTORE PUSH1 0x11 PUSH1 0x4 MSTORE PUSH1 0x24 PUSH0 REVERT JUMPDEST PUSH0 PUSH2 0x12E8 DUP3 PUSH2 0xC44 JUMP JUMPDEST SWAP2 POP PUSH2 0x12F3 DUP4 PUSH2 0xC44 JUMP JUMPDEST SWAP3 POP DUP3 DUP3 ADD SWAP1 POP DUP1 DUP3 GT ISZERO PUSH2 0x130B JUMPI PUSH2 0x130A PUSH2 0x12B1 JUMP JUMPDEST JUMPDEST SWAP3 SWAP2 POP POP JUMP JUMPDEST PUSH0 DUP3 SWAP1 POP SWAP3 SWAP2 POP POP JUMP JUMPDEST PUSH32 0x4E487B7100000000000000000000000000000000000000000000000000000000 PUSH0 MSTORE PUSH1 0x41 PUSH1 0x4 MSTORE PUSH1 0x24 PUSH0 REVERT JUMPDEST PUSH0 DUP2 SWAP1 POP DUP2 PUSH0 MSTORE PUSH1 0x20 PUSH0 KECCAK256 SWAP1 POP SWAP2 SWAP1 POP JUMP JUMPDEST PUSH0 PUSH1 0x20 PUSH1 0x1F DUP4 ADD DIV SWAP1 POP SWAP2 SWAP1 POP JUMP JUMPDEST PUSH0 DUP3 DUP3 SHL SWAP1 POP SWAP3 SWAP2 POP POP JUMP JUMPDEST PUSH0 PUSH1 0x8 DUP4 MUL PUSH2 0x13A4 PUSH32 0xFFFFFFFFFFFFFFFFFFFFFFFFFFFFFFFFFFFFFFFFFFFFFFFFFFFFFFFFFFFFFFFF DUP3 PUSH2 0x1369 JUMP JUMPDEST PUSH2 0x13AE DUP7 DUP4 PUSH2 0x1369 JUMP JUMPDEST SWAP6 POP DUP1 NOT DUP5 AND SWAP4 POP DUP1 DUP7 AND DUP5 OR SWAP3 POP POP POP SWAP4 SWAP3 POP POP POP JUMP JUMPDEST PUSH0 DUP2 SWAP1 POP SWAP2 SWAP1 POP JUMP JUMPDEST PUSH0 PUSH2 0x13E9 PUSH2 0x13E4 PUSH2 0x13DF DUP5 PUSH2 0xC44 JUMP JUMPDEST PUSH2 0x13C6 JUMP JUMPDEST PUSH2 0xC44 JUMP JUMPDEST SWAP1 POP SWAP2 SWAP1 POP JUMP JUMPDEST PUSH0 DUP2 SWAP1 POP SWAP2 SWAP1 POP JUMP JUMPDEST PUSH2 0x1402 DUP4 PUSH2 0x13CF JUMP JUMPDEST PUSH2 0x1416 PUSH2 0x140E DUP3 PUSH2 0x13F0 JUMP JUMPDEST DUP5 DUP5 SLOAD PUSH2 0x1375 JUMP JUMPDEST DUP3 SSTORE POP POP POP POP JUMP JUMPDEST PUSH0 SWAP1 JUMP JUMPDEST PUSH2 0x142A PUSH2 0x141E JUMP JUMPDEST PUSH2 0x1435 DUP2 DUP5 DUP5 PUSH2 0x13F9 JUMP JUMPDEST POP POP POP JUMP JUMPDEST JUMPDEST DUP2 DUP2 LT ISZERO PUSH2 0x1458 JUMPI PUSH2 0x144D PUSH0 DUP3 PUSH2 0x1422 JUMP JUMPDEST PUSH1 0x1 DUP2 ADD SWAP1 POP PUSH2 0x143B JUMP JUMPDEST POP POP JUMP JUMPDEST PUSH1 0x1F DUP3 GT ISZERO PUSH2 0x149D JUMPI PUSH2 0x146E DUP2 PUSH2 0x1348 JUMP JUMPDEST PUSH2 0x1477 DUP5 PUSH2 0x135A JUMP JUMPDEST DUP2 ADD PUSH1 0x20 DUP6 LT ISZERO PUSH2 0x1486 JUMPI DUP2 SWAP1 POP JUMPDEST PUSH2 0x149A PUSH2 0x1492 DUP6 PUSH2 0x135A JUMP JUMPDEST DUP4 ADD DUP3 PUSH2 0x143A JUMP JUMPDEST POP POP JUMPDEST POP POP POP JUMP JUMPDEST PUSH0 DUP3 DUP3 SHR SWAP1 POP SWAP3 SWAP2 POP POP JUMP JUMPDEST PUSH0 PUSH2 0x14BD PUSH0 NOT DUP5 PUSH1 0x8 MUL PUSH2 0x14A2 JUMP JUMPDEST NOT DUP1 DUP4 AND SWAP2 POP POP SWAP3 SWAP2 POP POP JUMP JUMPDEST PUSH0 PUSH2 0x14D5 DUP4 DUP4 PUSH2 0x14AE JUMP JUMPDEST SWAP2 POP DUP3 PUSH1 0x2 MUL DUP3 OR SWAP1 POP SWAP3 SWAP2 POP POP JUMP JUMPDEST PUSH2 0x14EF DUP4 DUP4 PUSH2 0x1311 JUMP JUMPDEST PUSH8 0xFFFFFFFFFFFFFFFF DUP2 GT ISZERO PUSH2 0x1508 JUMPI PUSH2 0x1507 PUSH2 0x131B JUMP JUMPDEST JUMPDEST PUSH2 0x1512 DUP3 SLOAD PUSH2 0xF35 JUMP JUMPDEST PUSH2 0x151D DUP3 DUP3 DUP6 PUSH2 0x145C JUMP JUMPDEST PUSH0 PUSH1 0x1F DUP4 GT PUSH1 0x1 DUP2 EQ PUSH2 0x154A JUMPI PUSH0 DUP5 ISZERO PUSH2 0x1538 JUMPI DUP3 DUP8 ADD CALLDATALOAD SWAP1 POP JUMPDEST PUSH2 0x1542 DUP6 DUP3 PUSH2 0x14CA JUMP JUMPDEST DUP7 SSTORE POP PUSH2 0x15A9 JUMP JUMPDEST PUSH1 0x1F NOT DUP5 AND PUSH2 0x1558 DUP7 PUSH2 0x1348 JUMP JUMPDEST PUSH0 JUMPDEST DUP3 DUP2 LT ISZERO PUSH2 0x157F JUMPI DUP5 DUP10 ADD CALLDATALOAD DUP3 SSTORE PUSH1 0x1 DUP3 ADD SWAP2 POP PUSH1 0x20 DUP6 ADD SWAP5 POP PUSH1 0x20 DUP2 ADD SWAP1 POP PUSH2 0x155A JUMP JUMPDEST DUP7 DUP4 LT ISZERO PUSH2 0x159C JUMPI DUP5 DUP10 ADD CALLDATALOAD PUSH2 0x1598 PUSH1 0x1F DUP10 AND DUP3 PUSH2 0x14AE JUMP JUMPDEST DUP4 SSTORE POP JUMPDEST PUSH1 0x1 PUSH1 0x2 DUP9 MUL ADD DUP9 SSTORE POP POP POP JUMPDEST POP POP POP POP POP POP POP JUMP JUMPDEST PUSH0 PUSH2 0x15BC DUP3 PUSH2 0xC44 JUMP JUMPDEST SWAP2 POP PUSH2 0x15C7 DUP4 PUSH2 0xC44 JUMP JUMPDEST SWAP3 POP DUP3 DUP3 SUB SWAP1 POP DUP2 DUP2 GT ISZERO PUSH2 0x15DF JUMPI PUSH2 0x15DE PUSH2 0x12B1 JUMP JUMPDEST JUMPDEST SWAP3 SWAP2 POP POP JUMP JUMPDEST PUSH0 PUSH1 0x20 DUP3 ADD SWAP1 POP PUSH2 0x15F8 PUSH0 DUP4 ADD DUP5 PUSH2 0x11AB JUMP JUMPDEST SWAP3 SWAP2 POP POP JUMP JUMPDEST PUSH32 0x43616D706169676E20636C6F7365640000000000000000000000000000000000 PUSH0 DUP3 ADD MSTORE POP JUMP JUMPDEST PUSH0 PUSH2 0x1632 PUSH1 0xF DUP4 PUSH2 0xCEB JUMP JUMPDEST SWAP2 POP PUSH2 0x163D DUP3 PUSH2 0x15FE JUMP JUMPDEST PUSH1 0x20 DUP3 ADD SWAP1 POP SWAP2 SWAP1 POP JUMP JUMPDEST PUSH0 PUSH1 0x20 DUP3 ADD SWAP1 POP DUP2 DUP2 SUB PUSH0 DUP4 ADD MSTORE PUSH2 0x165F DUP2 PUSH2 0x1626 JUMP JUMPDEST SWAP1 POP SWAP2 SWAP1 POP JUMP JUMPDEST PUSH32 0x43616D706169676E20656E646564000000000000000000000000000000000000 PUSH0 DUP3 ADD MSTORE POP JUMP JUMPDEST PUSH0 PUSH2 0x169A PUSH1 0xE DUP4 PUSH2 0xCEB JUMP JUMPDEST SWAP2 POP PUSH2 0x16A5 DUP3 PUSH2 0x1666 JUMP JUMPDEST PUSH1 0x20 DUP3 ADD SWAP1 POP SWAP2 SWAP1 POP JUMP JUMPDEST PUSH0 PUSH1 0x20 DUP3 ADD SWAP1 POP DUP2 DUP2 SUB PUSH0 DUP4 ADD MSTORE PUSH2 0x16C7 DUP2 PUSH2 0x168E JUMP JUMPDEST SWAP1 POP SWAP2 SWAP1 POP JUMP JUMPDEST PUSH32 0x436F6E747269627574696F6E206D757374206265203E20300000000000000000 PUSH0 DUP3 ADD MSTORE POP JUMP JUMPDEST PUSH0 PUSH2 0x1702 PUSH1 0x18 DUP4 PUSH2 0xCEB JUMP JUMPDEST SWAP2 POP PUSH2 0x170D DUP3 PUSH2 0x16CE JUMP JUMPDEST PUSH1 0x20 DUP3 ADD SWAP1 POP SWAP2 SWAP1 POP JUMP JUMPDEST PUSH0 PUSH1 0x20 DUP3 ADD SWAP1 POP DUP2 DUP2 SUB PUSH0 DUP4 ADD MSTORE PUSH2 0x172F DUP2 PUSH2 0x16F6 JUMP JUMPDEST SWAP1 POP SWAP2 SWAP1 POP JUMP JUMPDEST PUSH32 0x43616D706169676E206E6F7420656E6465640000000000000000000000000000 PUSH0 DUP3 ADD MSTORE POP JUMP JUMPDEST PUSH0 PUSH2 0x176A PUSH1 0x12 DUP4 PUSH2 0xCEB JUMP JUMPDEST SWAP2 POP PUSH2 0x1775 DUP3 PUSH2 0x1736 JUMP JUMPDEST PUSH1 0x20 DUP3 ADD SWAP1 POP SWAP2 SWAP1 POP JUMP JUMPDEST PUSH0 PUSH1 0x20 DUP3 ADD SWAP1 POP DUP2 DUP2 SUB PUSH0 DUP4 ADD MSTORE PUSH2 0x1797 DUP2 PUSH2 0x175E JUMP JUMPDEST SWAP1 POP SWAP2 SWAP1 POP JUMP JUMPDEST PUSH32 0x476F616C20726561636865640000000000000000000000000000000000000000 PUSH0 DUP3 ADD MSTORE POP JUMP JUMPDEST PUSH0 PUSH2 0x17D2 PUSH1 0xC DUP4 PUSH2 0xCEB JUMP JUMPDEST SWAP2 POP PUSH2 0x17DD DUP3 PUSH2 0x179E JUMP JUMPDEST PUSH1 0x20 DUP3 ADD SWAP1 POP SWAP2 SWAP1 POP JUMP JUMPDEST PUSH0 PUSH1 0x20 DUP3 ADD SWAP1 POP DUP2 DUP2 SUB PUSH0 DUP4 ADD MSTORE PUSH2 0x17FF DUP2 PUSH2 0x17C6 JUMP JUMPDEST SWAP1 POP SWAP2 SWAP1 POP JUMP JUMPDEST PUSH32 0x46756E64732077697468647261776E0000000000000000000000000000000000 PUSH0 DUP3 ADD MSTORE POP JUMP JUMPDEST PUSH0 PUSH2 0x183A PUSH1 0xF DUP4 PUSH2 0xCEB JUMP JUMPDEST SWAP2 POP PUSH2 0x1845 DUP3 PUSH2 0x1806 JUMP JUMPDEST PUSH1 0x20 DUP3 ADD SWAP1 POP SWAP2 SWAP1 POP JUMP JUMPDEST PUSH0 PUSH1 0x20 DUP3 ADD SWAP1 POP DUP2 DUP2 SUB PUSH0 DUP4 ADD MSTORE PUSH2 0x1867 DUP2 PUSH2 0x182E JUMP JUMPDEST SWAP1 POP SWAP2 SWAP1 POP JUMP JUMPDEST PUSH32 0x4E6F20636F6E747269627574696F6E7300000000000000000000000000000000 PUSH0 DUP3 ADD MSTORE POP JUMP JUMPDEST PUSH0 PUSH2 0x18A2 PUSH1 0x10 DUP4 PUSH2 0xCEB JUMP JUMPDEST SWAP2 POP PUSH2 0x18AD DUP3 PUSH2 0x186E JUMP JUMPDEST PUSH1 0x20 DUP3 ADD SWAP1 POP SWAP2 SWAP1 POP JUMP JUMPDEST PUSH0 PUSH1 0x20 DUP3 ADD SWAP1 POP DUP2 DUP2 SUB PUSH0 DUP4 ADD MSTORE PUSH2 0x18CF DUP2 PUSH2 0x1896 JUMP JUMPDEST SWAP1 POP SWAP2 SWAP1 POP JUMP INVALID LOG2 PUSH5 0x6970667358 0x22 SLT KECCAK256 JUMPDEST STOP 0xEC XOR 0xA6 0xE 0xDC SWAP2 DUP10 MSIZE 0xA5 PUSH19 0xD7B0AC9BFF32319390DABD1377C48172847404 TIMESTAMP PUSH5 0x736F6C6343 STOP ADDMOD BYTE STOP CALLER "
				},
				"gasEstimates": {
					"creation": {
						"codeDepositCost": "1282400",
						"executionCost": "1333",
						"totalCost": "1283733"
					},
					"external": {
						"campaigns(uint256)": "infinite",
						"contribute(uint256)": "infinite",
						"createCampaign(string,string,uint256,uint256)": "infinite",
						"withdrawContribution(uint256)": "infinite",
						"withdrawFunds(uint256)": "infinite"
					}
				},
				"methodIdentifiers": {
					"campaigns(uint256)": "141961bc",
					"contribute(uint256)": "c1cbbca7",
					"createCampaign(string,string,uint256,uint256)": "a318f269",
					"withdrawContribution(uint256)": "d25090ff",
					"withdrawFunds(uint256)": "155dd5ee"
				}
			},
			"storageLayout": {
				"storage": [
					{
						"astId": 26,
						"contract": "contracts/Crowdfunding.sol:Crowdfunding",
						"label": "campaigns",
						"offset": 0,
						"slot": "0",
						"type": "t_array(t_struct(Campaign)22_storage)dyn_storage"
					}
				],
				"types": {
					"t_address": {
						"encoding": "inplace",
						"label": "address",
						"numberOfBytes": "20"
					},
					"t_address_payable": {
						"encoding": "inplace",
						"label": "address payable",
						"numberOfBytes": "20"
					},
					"t_array(t_struct(Campaign)22_storage)dyn_storage": {
						"base": "t_struct(Campaign)22_storage",
						"encoding": "dynamic_array",
						"label": "struct Crowdfunding.Campaign[]",
						"numberOfBytes": "32"
					},
					"t_bool": {
						"encoding": "inplace",
						"label": "bool",
						"numberOfBytes": "1"
					},
					"t_mapping(t_address,t_uint256)": {
						"encoding": "mapping",
						"key": "t_address",
						"label": "mapping(address => uint256)",
						"numberOfBytes": "32",
						"value": "t_uint256"
					},
					"t_string_storage": {
						"encoding": "bytes",
						"label": "string",
						"numberOfBytes": "32"
					},
					"t_struct(Campaign)22_storage": {
						"encoding": "inplace",
						"label": "struct Crowdfunding.Campaign",
						"members": [
							{
								"astId": 3,
								"contract": "contracts/Crowdfunding.sol:Crowdfunding",
								"label": "creator",
								"offset": 0,
								"slot": "0",
								"type": "t_address_payable"
							},
							{
								"astId": 5,
								"contract": "contracts/Crowdfunding.sol:Crowdfunding",
								"label": "title",
								"offset": 0,
								"slot": "1",
								"type": "t_string_storage"
							},
							{
								"astId": 7,
								"contract": "contracts/Crowdfunding.sol:Crowdfunding",
								"label": "description",
								"offset": 0,
								"slot": "2",
								"type": "t_string_storage"
							},
							{
								"astId": 9,
								"contract": "contracts/Crowdfunding.sol:Crowdfunding",
								"label": "goal",
								"offset": 0,
								"slot": "3",
								"type": "t_uint256"
							},
							{
								"astId": 11,
								"contract": "contracts/Crowdfunding.sol:Crowdfunding",
								"label": "totalFunds",
								"offset": 0,
								"slot": "4",
								"type": "t_uint256"
							},
							{
								"astId": 13,
								"contract": "contracts/Crowdfunding.sol:Crowdfunding",
								"label": "deadline",
								"offset": 0,
								"slot": "5",
								"type": "t_uint256"
							},
							{
								"astId": 15,
								"contract": "contracts/Crowdfunding.sol:Crowdfunding",
								"label": "goalReached",
								"offset": 0,
								"slot": "6",
								"type": "t_bool"
							},
							{
								"astId": 17,
								"contract": "contracts/Crowdfunding.sol:Crowdfunding",
								"label": "closed",
								"offset": 1,
								"slot": "6",
								"type": "t_bool"
							},
							{
								"astId": 21,
								"contract": "contracts/Crowdfunding.sol:Crowdfunding",
								"label": "contributions",
								"offset": 0,
								"slot": "7",
								"type": "t_mapping(t_address,t_uint256)"
							}
						],
						"numberOfBytes": "256"
					},
					"t_uint256": {
						"encoding": "inplace",
						"label": "uint256",
						"numberOfBytes": "32"
					}
				}
			},
			"userdoc": {
				"kind": "user",
				"methods": {},
				"version": 1
			}
		}
	}
}