{
	"data": {
		"bytecode": {
			"linkReferences": {},
			"object": "6080604052348015600e575f80fd5b506118dc8061001c5f395ff3fe608060405260043610610049575f3560e01c80630b008fd01461004d578063141961bc14610069578063155dd5ee146100ac578063a318f269146100c8578063c1cbbca7146100f0575b5f80fd5b61006760048036038101906100629190610d1b565b61010c565b005b348015610074575f80fd5b5061008f600480360381019061008a9190610d1b565b6103dc565b6040516100a3989796959493929190610e1e565b60405180910390f35b6100c660048036038101906100c19190610d1b565b610572565b005b3480156100d3575f80fd5b506100ee60048036038101906100e99190610fd4565b6108bc565b005b61010a60048036038101906101059190610d1b565b610a09565b005b805f805490508110610153576040517f08c379a000000000000000000000000000000000000000000000000000000000815260040161014a906110ba565b60405180910390fd5b815f8181548110610167576101666110d8565b5b905f5260205f20906008020160060160019054906101000a900460ff16156101c4576040517f08c379a00000000000000000000000000000000000000000000000000000000081526004016101bb9061114f565b60405180910390fd5b5f81815481106101d7576101d66110d8565b5b905f5260205f209060080201600501544210610228576040517f08c379a000000000000000000000000000000000000000000000000000000000815260040161021f906111b7565b60405180910390fd5b5f838154811061023b5761023a6110d8565b5b905f5260205f2090600802016005015442101561028d576040517f08c379a00000000000000000000000000000000000000000000000000000000081526004016102849061121f565b60405180910390fd5b5f8084815481106102a1576102a06110d8565b5b905f5260205f2090600802016007015f3373ffffffffffffffffffffffffffffffffffffffff1673ffffffffffffffffffffffffffffffffffffffff1681526020019081526020015f205490505f8111610330576040517f08c379a000000000000000000000000000000000000000000000000000000000815260040161032790611287565b60405180910390fd5b5f808581548110610344576103436110d8565b5b905f5260205f2090600802016007015f3373ffffffffffffffffffffffffffffffffffffffff1673ffffffffffffffffffffffffffffffffffffffff1681526020019081526020015f20819055503373ffffffffffffffffffffffffffffffffffffffff166108fc8290811502906040515f60405180830381858888f193505050501580156103d5573d5f803e3d5ffd5b5050505050565b5f81815481106103ea575f80fd5b905f5260205f2090600802015f91509050805f015f9054906101000a900473ffffffffffffffffffffffffffffffffffffffff169080600101805461042e906112d2565b80601f016020809104026020016040519081016040528092919081815260200182805461045a906112d2565b80156104a55780601f1061047c576101008083540402835291602001916104a5565b820191905f5260205f20905b81548152906001019060200180831161048857829003601f168201915b5050505050908060020180546104ba906112d2565b80601f01602080910402602001604051908101604052809291908181526020018280546104e6906112d2565b80156105315780601f1061050857610100808354040283529160200191610531565b820191905f5260205f20905b81548152906001019060200180831161051457829003601f168201915b505050505090806003015490806004015490806005015490806006015f9054906101000a900460ff16908060060160019054906101000a900460ff16905088565b805f8054905081106105b9576040517f08c379a00000000000000000000000000000000000000000000000000000000081526004016105b0906110ba565b60405180910390fd5b813373ffffffffffffffffffffffffffffffffffffffff165f82815481106105e4576105e36110d8565b5b905f5260205f2090600802015f015f9054906101000a900473ffffffffffffffffffffffffffffffffffffffff1673ffffffffffffffffffffffffffffffffffffffff1614610668576040517f08c379a000000000000000000000000000000000000000000000000000000000815260040161065f9061134c565b60405180910390fd5b5f838154811061067b5761067a6110d8565b5b905f5260205f2090600802016006015f9054906101000a900460ff166106d6576040517f08c379a00000000000000000000000000000000000000000000000000000000081526004016106cd906113b4565b60405180910390fd5b5f83815481106106e9576106e86110d8565b5b905f5260205f2090600802016005015442101561073b576040517f08c379a00000000000000000000000000000000000000000000000000000000081526004016107329061141c565b60405180910390fd5b5f838154811061074e5761074d6110d8565b5b905f5260205f20906008020160060160019054906101000a900460ff16156107ab576040517f08c379a00000000000000000000000000000000000000000000000000000000081526004016107a290611484565b60405180910390fd5b5f8084815481106107bf576107be6110d8565b5b905f5260205f2090600802016004015490505f8085815481106107e5576107e46110d8565b5b905f5260205f209060080201600401819055505f80858154811061080c5761080b6110d8565b5b905f5260205f20906008020160060160016101000a81548160ff0219169083151502179055505f8481548110610845576108446110d8565b5b905f5260205f2090600802015f015f9054906101000a900473ffffffffffffffffffffffffffffffffffffffff1673ffffffffffffffffffffffffffffffffffffffff166108fc8290811502906040515f60405180830381858888f193505050501580156108b5573d5f803e3d5ffd5b5050505050565b5f81116108fe576040517f08c379a00000000000000000000000000000000000000000000000000000000081526004016108f5906114ec565b60405180910390fd5b5f8211610940576040517f08c379a000000000000000000000000000000000000000000000000000000000815260040161093790611554565b60405180910390fd5b5f824261094d919061159f565b90505f8060018160018154018082558091505003905f5260205f209060080201905033815f015f6101000a81548173ffffffffffffffffffffffffffffffffffffffff021916908373ffffffffffffffffffffffffffffffffffffffff160217905550858160010190816109c1919061176f565b50848160020190816109d3919061176f565b508281600301819055508181600501819055505f816006015f6101000a81548160ff021916908315150217905550505050505050565b805f805490508110610a50576040517f08c379a0000000000000000000000000000000000000000000000000000000008152600401610a47906110ba565b60405180910390fd5b815f8181548110610a6457610a636110d8565b5b905f5260205f20906008020160060160019054906101000a900460ff1615610ac1576040517f08c379a0000000000000000000000000000000000000000000000000000000008152600401610ab89061114f565b60405180910390fd5b5f8181548110610ad457610ad36110d8565b5b905f5260205f209060080201600501544210610b25576040517f08c379a0000000000000000000000000000000000000000000000000000000008152600401610b1c906111b7565b60405180910390fd5b5f3411610b67576040517f08c379a0000000000000000000000000000000000000000000000000000000008152600401610b5e90611888565b60405180910390fd5b345f8481548110610b7b57610b7a6110d8565b5b905f5260205f2090600802016007015f3373ffffffffffffffffffffffffffffffffffffffff1673ffffffffffffffffffffffffffffffffffffffff1681526020019081526020015f205f828254610bd3919061159f565b92505081905550345f8481548110610bee57610bed6110d8565b5b905f5260205f2090600802016004015f828254610c0b919061159f565b925050819055505f8381548110610c2557610c246110d8565b5b905f5260205f209060080201600301545f8481548110610c4857610c476110d8565b5b905f5260205f2090600802016004015410158015610c9257505f8381548110610c7457610c736110d8565b5b905f5260205f2090600802016006015f9054906101000a900460ff16155b15610cd25760015f8481548110610cac57610cab6110d8565b5b905f5260205f2090600802016006015f6101000a81548160ff0219169083151502179055505b505050565b5f604051905090565b5f80fd5b5f80fd5b5f819050919050565b610cfa81610ce8565b8114610d04575f80fd5b50565b5f81359050610d1581610cf1565b92915050565b5f60208284031215610d3057610d2f610ce0565b5b5f610d3d84828501610d07565b91505092915050565b5f73ffffffffffffffffffffffffffffffffffffffff82169050919050565b5f610d6f82610d46565b9050919050565b610d7f81610d65565b82525050565b5f81519050919050565b5f82825260208201905092915050565b8281835e5f83830152505050565b5f601f19601f8301169050919050565b5f610dc782610d85565b610dd18185610d8f565b9350610de1818560208601610d9f565b610dea81610dad565b840191505092915050565b610dfe81610ce8565b82525050565b5f8115159050919050565b610e1881610e04565b82525050565b5f61010082019050610e325f83018b610d76565b8181036020830152610e44818a610dbd565b90508181036040830152610e588189610dbd565b9050610e676060830188610df5565b610e746080830187610df5565b610e8160a0830186610df5565b610e8e60c0830185610e0f565b610e9b60e0830184610e0f565b9998505050505050505050565b5f80fd5b5f80fd5b7f4e487b71000000000000000000000000000000000000000000000000000000005f52604160045260245ffd5b610ee682610dad565b810181811067ffffffffffffffff82111715610f0557610f04610eb0565b5b80604052505050565b5f610f17610cd7565b9050610f238282610edd565b919050565b5f67ffffffffffffffff821115610f4257610f41610eb0565b5b610f4b82610dad565b9050602081019050919050565b828183375f83830152505050565b5f610f78610f7384610f28565b610f0e565b905082815260208101848484011115610f9457610f93610eac565b5b610f9f848285610f58565b509392505050565b5f82601f830112610fbb57610fba610ea8565b5b8135610fcb848260208601610f66565b91505092915050565b5f805f8060808587031215610fec57610feb610ce0565b5b5f85013567ffffffffffffffff81111561100957611008610ce4565b5b61101587828801610fa7565b945050602085013567ffffffffffffffff81111561103657611035610ce4565b5b61104287828801610fa7565b935050604061105387828801610d07565b925050606061106487828801610d07565b91505092959194509250565b7f496e76616c69642063616d706169676e204944000000000000000000000000005f82015250565b5f6110a4601383610d8f565b91506110af82611070565b602082019050919050565b5f6020820190508181035f8301526110d181611098565b9050919050565b7f4e487b71000000000000000000000000000000000000000000000000000000005f52603260045260245ffd5b7f43616d706169676e20636c6f73656400000000000000000000000000000000005f82015250565b5f611139600f83610d8f565b915061114482611105565b602082019050919050565b5f6020820190508181035f8301526111668161112d565b9050919050565b7f43616d706169676e20656e6465640000000000000000000000000000000000005f82015250565b5f6111a1600e83610d8f565b91506111ac8261116d565b602082019050919050565b5f6020820190508181035f8301526111ce81611195565b9050919050565b7f43616d706169676e206e6f7420656e64656400000000000000000000000000005f82015250565b5f611209601283610d8f565b9150611214826111d5565b602082019050919050565b5f6020820190508181035f830152611236816111fd565b9050919050565b7f4e6f20636f6e747269627574696f6e7320746f207769746864726177000000005f82015250565b5f611271601c83610d8f565b915061127c8261123d565b602082019050919050565b5f6020820190508181035f83015261129e81611265565b9050919050565b7f4e487b71000000000000000000000000000000000000000000000000000000005f52602260045260245ffd5b5f60028204905060018216806112e957607f821691505b6020821081036112fc576112fb6112a5565b5b50919050565b7f556e617574686f72697a656400000000000000000000000000000000000000005f82015250565b5f611336600c83610d8f565b915061134182611302565b602082019050919050565b5f6020820190508181035f8301526113638161132a565b9050919050565b7f476f616c206e6f742072656163686564000000000000000000000000000000005f82015250565b5f61139e601083610d8f565b91506113a98261136a565b602082019050919050565b5f6020820190508181035f8301526113cb81611392565b9050919050565b7f446561646c696e65206e6f7420706173736564000000000000000000000000005f82015250565b5f611406601383610d8f565b9150611411826113d2565b602082019050919050565b5f6020820190508181035f830152611433816113fa565b9050919050565b7f416c72656164792077697468647261776e0000000000000000000000000000005f82015250565b5f61146e601183610d8f565b91506114798261143a565b602082019050919050565b5f6020820190508181035f83015261149b81611462565b9050919050565b7f476f616c206d757374206265203e2030000000000000000000000000000000005f82015250565b5f6114d6601083610d8f565b91506114e1826114a2565b602082019050919050565b5f6020820190508181035f830152611503816114ca565b9050919050565b7f4475726174696f6e206d757374206265203e20300000000000000000000000005f82015250565b5f61153e601483610d8f565b91506115498261150a565b602082019050919050565b5f6020820190508181035f83015261156b81611532565b9050919050565b7f4e487b71000000000000000000000000000000000000000000000000000000005f52601160045260245ffd5b5f6115a982610ce8565b91506115b483610ce8565b92508282019050808211156115cc576115cb611572565b5b92915050565b5f819050815f5260205f209050919050565b5f6020601f8301049050919050565b5f82821b905092915050565b5f6008830261162e7fffffffffffffffffffffffffffffffffffffffffffffffffffffffffffffffff826115f3565b61163886836115f3565b95508019841693508086168417925050509392505050565b5f819050919050565b5f61167361166e61166984610ce8565b611650565b610ce8565b9050919050565b5f819050919050565b61168c83611659565b6116a06116988261167a565b8484546115ff565b825550505050565b5f90565b6116b46116a8565b6116bf818484611683565b505050565b5b818110156116e2576116d75f826116ac565b6001810190506116c5565b5050565b601f821115611727576116f8816115d2565b611701846115e4565b81016020851015611710578190505b61172461171c856115e4565b8301826116c4565b50505b505050565b5f82821c905092915050565b5f6117475f198460080261172c565b1980831691505092915050565b5f61175f8383611738565b9150826002028217905092915050565b61177882610d85565b67ffffffffffffffff81111561179157611790610eb0565b5b61179b82546112d2565b6117a68282856116e6565b5f60209050601f8311600181146117d7575f84156117c5578287015190505b6117cf8582611754565b865550611836565b601f1984166117e5866115d2565b5f5b8281101561180c578489015182556001820191506020850194506020810190506117e7565b868310156118295784890151611825601f891682611738565b8355505b6001600288020188555050505b505050505050565b7f436f6e747269627574696f6e206d757374206265203e203000000000000000005f82015250565b5f611872601883610d8f565b915061187d8261183e565b602082019050919050565b5f6020820190508181035f83015261189f81611866565b905091905056fea26469706673582212203fae3aed5781fa2ef2bb8f74e633d335a7fa65936446313b33a941d0a33a51d564736f6c634300081a0033",
			"opcodes": "PUSH1 0x80 PUSH1 0x40 MSTORE CALLVALUE DUP1 ISZERO PUSH1 0xE JUMPI PUSH0 DUP1 REVERT JUMPDEST POP PUSH2 0x18DC DUP1 PUSH2 0x1C PUSH0 CODECOPY PUSH0 RETURN INVALID PUSH1 0x80 PUSH1 0x40 MSTORE PUSH1 0x4 CALLDATASIZE LT PUSH2 0x49 JUMPI PUSH0 CALLDATALOAD PUSH1 0xE0 SHR DUP1 PUSH4 0xB008FD0 EQ PUSH2 0x4D JUMPI DUP1 PUSH4 0x141961BC EQ PUSH2 0x69 JUMPI DUP1 PUSH4 0x155DD5EE EQ PUSH2 0xAC JUMPI DUP1 PUSH4 0xA318F269 EQ PUSH2 0xC8 JUMPI DUP1 PUSH4 0xC1CBBCA7 EQ PUSH2 0xF0 JUMPI JUMPDEST PUSH0 DUP1 REVERT JUMPDEST PUSH2 0x67 PUSH1 0x4 DUP1 CALLDATASIZE SUB DUP2 ADD SWAP1 PUSH2 0x62 SWAP2 SWAP1 PUSH2 0xD1B JUMP JUMPDEST PUSH2 0x10C JUMP JUMPDEST STOP JUMPDEST CALLVALUE DUP1 ISZERO PUSH2 0x74 JUMPI PUSH0 DUP1 REVERT JUMPDEST POP PUSH2 0x8F PUSH1 0x4 DUP1 CALLDATASIZE SUB DUP2 ADD SWAP1 PUSH2 0x8A SWAP2 SWAP1 PUSH2 0xD1B JUMP JUMPDEST PUSH2 0x3DC JUMP JUMPDEST PUSH1 0x40 MLOAD PUSH2 0xA3 SWAP9 SWAP8 SWAP7 SWAP6 SWAP5 SWAP4 SWAP3 SWAP2 SWAP1 PUSH2 0xE1E JUMP JUMPDEST PUSH1 0x40 MLOAD DUP1 SWAP2 SUB SWAP1 RETURN JUMPDEST PUSH2 0xC6 PUSH1 0x4 DUP1 CALLDATASIZE SUB DUP2 ADD SWAP1 PUSH2 0xC1 SWAP2 SWAP1 PUSH2 0xD1B JUMP JUMPDEST PUSH2 0x572 JUMP JUMPDEST STOP JUMPDEST CALLVALUE DUP1 ISZERO PUSH2 0xD3 JUMPI PUSH0 DUP1 REVERT JUMPDEST POP PUSH2 0xEE PUSH1 0x4 DUP1 CALLDATASIZE SUB DUP2 ADD SWAP1 PUSH2 0xE9 SWAP2 SWAP1 PUSH2 0xFD4 JUMP JUMPDEST PUSH2 0x8BC JUMP JUMPDEST STOP JUMPDEST PUSH2 0x10A PUSH1 0x4 DUP1 CALLDATASIZE SUB DUP2 ADD SWAP1 PUSH2 0x105 SWAP2 SWAP1 PUSH2 0xD1B JUMP JUMPDEST PUSH2 0xA09 JUMP JUMPDEST STOP JUMPDEST DUP1 PUSH0 DUP1 SLOAD SWAP1 POP DUP2 LT PUSH2 0x153 JUMPI PUSH1 0x40 MLOAD PUSH32 0x8C379A000000000000000000000000000000000000000000000000000000000 DUP2 MSTORE PUSH1 0x4 ADD PUSH2 0x14A SWAP1 PUSH2 0x10BA JUMP JUMPDEST PUSH1 0x40 MLOAD DUP1 SWAP2 SUB SWAP1 REVERT JUMPDEST DUP2 PUSH0 DUP2 DUP2 SLOAD DUP2 LT PUSH2 0x167 JUMPI PUSH2 0x166 PUSH2 0x10D8 JUMP JUMPDEST JUMPDEST SWAP1 PUSH0 MSTORE PUSH1 0x20 PUSH0 KECCAK256 SWAP1 PUSH1 0x8 MUL ADD PUSH1 0x6 ADD PUSH1 0x1 SWAP1 SLOAD SWAP1 PUSH2 0x100 EXP SWAP1 DIV PUSH1 0xFF AND ISZERO PUSH2 0x1C4 JUMPI PUSH1 0x40 MLOAD PUSH32 0x8C379A000000000000000000000000000000000000000000000000000000000 DUP2 MSTORE PUSH1 0x4 ADD PUSH2 0x1BB SWAP1 PUSH2 0x114F JUMP JUMPDEST PUSH1 0x40 MLOAD DUP1 SWAP2 SUB SWAP1 REVERT JUMPDEST PUSH0 DUP2 DUP2 SLOAD DUP2 LT PUSH2 0x1D7 JUMPI PUSH2 0x1D6 PUSH2 0x10D8 JUMP JUMPDEST JUMPDEST SWAP1 PUSH0 MSTORE PUSH1 0x20 PUSH0 KECCAK256 SWAP1 PUSH1 0x8 MUL ADD PUSH1 0x5 ADD SLOAD TIMESTAMP LT PUSH2 0x228 JUMPI PUSH1 0x40 MLOAD PUSH32 0x8C379A000000000000000000000000000000000000000000000000000000000 DUP2 MSTORE PUSH1 0x4 ADD PUSH2 0x21F SWAP1 PUSH2 0x11B7 JUMP JUMPDEST PUSH1 0x40 MLOAD DUP1 SWAP2 SUB SWAP1 REVERT JUMPDEST PUSH0 DUP4 DUP2 SLOAD DUP2 LT PUSH2 0x23B JUMPI PUSH2 0x23A PUSH2 0x10D8 JUMP JUMPDEST JUMPDEST SWAP1 PUSH0 MSTORE PUSH1 0x20 PUSH0 KECCAK256 SWAP1 PUSH1 0x8 MUL ADD PUSH1 0x5 ADD SLOAD TIMESTAMP LT ISZERO PUSH2 0x28D JUMPI PUSH1 0x40 MLOAD PUSH32 0x8C379A000000000000000000000000000000000000000000000000000000000 DUP2 MSTORE PUSH1 0x4 ADD PUSH2 0x284 SWAP1 PUSH2 0x121F JUMP JUMPDEST PUSH1 0x40 MLOAD DUP1 SWAP2 SUB SWAP1 REVERT JUMPDEST PUSH0 DUP1 DUP5 DUP2 SLOAD DUP2 LT PUSH2 0x2A1 JUMPI PUSH2 0x2A0 PUSH2 0x10D8 JUMP JUMPDEST JUMPDEST SWAP1 PUSH0 MSTORE PUSH1 0x20 PUSH0 KECCAK256 SWAP1 PUSH1 0x8 MUL ADD PUSH1 0x7 ADD PUSH0 CALLER PUSH20 0xFFFFFFFFFFFFFFFFFFFFFFFFFFFFFFFFFFFFFFFF AND PUSH20 0xFFFFFFFFFFFFFFFFFFFFFFFFFFFFFFFFFFFFFFFF AND DUP2 MSTORE PUSH1 0x20 ADD SWAP1 DUP2 MSTORE PUSH1 0x20 ADD PUSH0 KECCAK256 SLOAD SWAP1 POP PUSH0 DUP2 GT PUSH2 0x330 JUMPI PUSH1 0x40 MLOAD PUSH32 0x8C379A000000000000000000000000000000000000000000000000000000000 DUP2 MSTORE PUSH1 0x4 ADD PUSH2 0x327 SWAP1 PUSH2 0x1287 JUMP JUMPDEST PUSH1 0x40 MLOAD DUP1 SWAP2 SUB SWAP1 REVERT JUMPDEST PUSH0 DUP1 DUP6 DUP2 SLOAD DUP2 LT PUSH2 0x344 JUMPI PUSH2 0x343 PUSH2 0x10D8 JUMP JUMPDEST JUMPDEST SWAP1 PUSH0 MSTORE PUSH1 0x20 PUSH0 KECCAK256 SWAP1 PUSH1 0x8 MUL ADD PUSH1 0x7 ADD PUSH0 CALLER PUSH20 0xFFFFFFFFFFFFFFFFFFFFFFFFFFFFFFFFFFFFFFFF AND PUSH20 0xFFFFFFFFFFFFFFFFFFFFFFFFFFFFFFFFFFFFFFFF AND DUP2 MSTORE PUSH1 0x20 ADD SWAP1 DUP2 MSTORE PUSH1 0x20 ADD PUSH0 KECCAK256 DUP2 SWAP1 SSTORE POP CALLER PUSH20 0xFFFFFFFFFFFFFFFFFFFFFFFFFFFFFFFFFFFFFFFF AND PUSH2 0x8FC DUP3 SWAP1 DUP2 ISZERO MUL SWAP1 PUSH1 0x40 MLOAD PUSH0 PUSH1 0x40 MLOAD DUP1 DUP4 SUB DUP2 DUP6 DUP9 DUP9 CALL SWAP4 POP POP POP POP ISZERO DUP1 ISZERO PUSH2 0x3D5 JUMPI RETURNDATASIZE PUSH0 DUP1 RETURNDATACOPY RETURNDATASIZE PUSH0 REVERT JUMPDEST POP POP POP POP POP JUMP JUMPDEST PUSH0 DUP2 DUP2 SLOAD DUP2 LT PUSH2 0x3EA JUMPI PUSH0 DUP1 REVERT JUMPDEST SWAP1 PUSH0 MSTORE PUSH1 0x20 PUSH0 KECCAK256 SWAP1 PUSH1 0x8 MUL ADD PUSH0 SWAP2 POP SWAP1 POP DUP1 PUSH0 ADD PUSH0 SWAP1 SLOAD SWAP1 PUSH2 0x100 EXP SWAP1 DIV PUSH20 0xFFFFFFFFFFFFFFFFFFFFFFFFFFFFFFFFFFFFFFFF AND SWAP1 DUP1 PUSH1 0x1 ADD DUP1 SLOAD PUSH2 0x42E SWAP1 PUSH2 0x12D2 JUMP JUMPDEST DUP1 PUSH1 0x1F ADD PUSH1 0x20 DUP1 SWAP2 DIV MUL PUSH1 0x20 ADD PUSH1 0x40 MLOAD SWAP1 DUP2 ADD PUSH1 0x40 MSTORE DUP1 SWAP3 SWAP2 SWAP1 DUP2 DUP2 MSTORE PUSH1 0x20 ADD DUP3 DUP1 SLOAD PUSH2 0x45A SWAP1 PUSH2 0x12D2 JUMP JUMPDEST DUP1 ISZERO PUSH2 0x4A5 JUMPI DUP1 PUSH1 0x1F LT PUSH2 0x47C JUMPI PUSH2 0x100 DUP1 DUP4 SLOAD DIV MUL DUP4 MSTORE SWAP2 PUSH1 0x20 ADD SWAP2 PUSH2 0x4A5 JUMP JUMPDEST DUP3 ADD SWAP2 SWAP1 PUSH0 MSTORE PUSH1 0x20 PUSH0 KECCAK256 SWAP1 JUMPDEST DUP2 SLOAD DUP2 MSTORE SWAP1 PUSH1 0x1 ADD SWAP1 PUSH1 0x20 ADD DUP1 DUP4 GT PUSH2 0x488 JUMPI DUP3 SWAP1 SUB PUSH1 0x1F AND DUP3 ADD SWAP2 JUMPDEST POP POP POP POP POP SWAP1 DUP1 PUSH1 0x2 ADD DUP1 SLOAD PUSH2 0x4BA SWAP1 PUSH2 0x12D2 JUMP JUMPDEST DUP1 PUSH1 0x1F ADD PUSH1 0x20 DUP1 SWAP2 DIV MUL PUSH1 0x20 ADD PUSH1 0x40 MLOAD SWAP1 DUP2 ADD PUSH1 0x40 MSTORE DUP1 SWAP3 SWAP2 SWAP1 DUP2 DUP2 MSTORE PUSH1 0x20 ADD DUP3 DUP1 SLOAD PUSH2 0x4E6 SWAP1 PUSH2 0x12D2 JUMP JUMPDEST DUP1 ISZERO PUSH2 0x531 JUMPI DUP1 PUSH1 0x1F LT PUSH2 0x508 JUMPI PUSH2 0x100 DUP1 DUP4 SLOAD DIV MUL DUP4 MSTORE SWAP2 PUSH1 0x20 ADD SWAP2 PUSH2 0x531 JUMP JUMPDEST DUP3 ADD SWAP2 SWAP1 PUSH0 MSTORE PUSH1 0x20 PUSH0 KECCAK256 SWAP1 JUMPDEST DUP2 SLOAD DUP2 MSTORE SWAP1 PUSH1 0x1 ADD SWAP1 PUSH1 0x20 ADD DUP1 DUP4 GT PUSH2 0x514 JUMPI DUP3 SWAP1 SUB PUSH1 0x1F AND DUP3 ADD SWAP2 JUMPDEST POP POP POP POP POP SWAP1 DUP1 PUSH1 0x3 ADD SLOAD SWAP1 DUP1 PUSH1 0x4 ADD SLOAD SWAP1 DUP1 PUSH1 0x5 ADD SLOAD SWAP1 DUP1 PUSH1 0x6 ADD PUSH0 SWAP1 SLOAD SWAP1 PUSH2 0x100 EXP SWAP1 DIV PUSH1 0xFF AND SWAP1 DUP1 PUSH1 0x6 ADD PUSH1 0x1 SWAP1 SLOAD SWAP1 PUSH2 0x100 EXP SWAP1 DIV PUSH1 0xFF AND SWAP1 POP DUP9 JUMP JUMPDEST DUP1 PUSH0 DUP1 SLOAD SWAP1 POP DUP2 LT PUSH2 0x5B9 JUMPI PUSH1 0x40 MLOAD PUSH32 0x8C379A000000000000000000000000000000000000000000000000000000000 DUP2 MSTORE PUSH1 0x4 ADD PUSH2 0x5B0 SWAP1 PUSH2 0x10BA JUMP JUMPDEST PUSH1 0x40 MLOAD DUP1 SWAP2 SUB SWAP1 REVERT JUMPDEST DUP2 CALLER PUSH20 0xFFFFFFFFFFFFFFFFFFFFFFFFFFFFFFFFFFFFFFFF AND PUSH0 DUP3 DUP2 SLOAD DUP2 LT PUSH2 0x5E4 JUMPI PUSH2 0x5E3 PUSH2 0x10D8 JUMP JUMPDEST JUMPDEST SWAP1 PUSH0 MSTORE PUSH1 0x20 PUSH0 KECCAK256 SWAP1 PUSH1 0x8 MUL ADD PUSH0 ADD PUSH0 SWAP1 SLOAD SWAP1 PUSH2 0x100 EXP SWAP1 DIV PUSH20 0xFFFFFFFFFFFFFFFFFFFFFFFFFFFFFFFFFFFFFFFF AND PUSH20 0xFFFFFFFFFFFFFFFFFFFFFFFFFFFFFFFFFFFFFFFF AND EQ PUSH2 0x668 JUMPI PUSH1 0x40 MLOAD PUSH32 0x8C379A000000000000000000000000000000000000000000000000000000000 DUP2 MSTORE PUSH1 0x4 ADD PUSH2 0x65F SWAP1 PUSH2 0x134C JUMP JUMPDEST PUSH1 0x40 MLOAD DUP1 SWAP2 SUB SWAP1 REVERT JUMPDEST PUSH0 DUP4 DUP2 SLOAD DUP2 LT PUSH2 0x67B JUMPI PUSH2 0x67A PUSH2 0x10D8 JUMP JUMPDEST JUMPDEST SWAP1 PUSH0 MSTORE PUSH1 0x20 PUSH0 KECCAK256 SWAP1 PUSH1 0x8 MUL ADD PUSH1 0x6 ADD PUSH0 SWAP1 SLOAD SWAP1 PUSH2 0x100 EXP SWAP1 DIV PUSH1 0xFF AND PUSH2 0x6D6 JUMPI PUSH1 0x40 MLOAD PUSH32 0x8C379A000000000000000000000000000000000000000000000000000000000 DUP2 MSTORE PUSH1 0x4 ADD PUSH2 0x6CD SWAP1 PUSH2 0x13B4 JUMP JUMPDEST PUSH1 0x40 MLOAD DUP1 SWAP2 SUB SWAP1 REVERT JUMPDEST PUSH0 DUP4 DUP2 SLOAD DUP2 LT PUSH2 0x6E9 JUMPI PUSH2 0x6E8 PUSH2 0x10D8 JUMP JUMPDEST JUMPDEST SWAP1 PUSH0 MSTORE PUSH1 0x20 PUSH0 KECCAK256 SWAP1 PUSH1 0x8 MUL ADD PUSH1 0x5 ADD SLOAD TIMESTAMP LT ISZERO PUSH2 0x73B JUMPI PUSH1 0x40 MLOAD PUSH32 0x8C379A000000000000000000000000000000000000000000000000000000000 DUP2 MSTORE PUSH1 0x4 ADD PUSH2 0x732 SWAP1 PUSH2 0x141C JUMP JUMPDEST PUSH1 0x40 MLOAD DUP1 SWAP2 SUB SWAP1 REVERT JUMPDEST PUSH0 DUP4 DUP2 SLOAD DUP2 LT PUSH2 0x74E JUMPI PUSH2 0x74D PUSH2 0x10D8 JUMP JUMPDEST JUMPDEST SWAP1 PUSH0 MSTORE PUSH1 0x20 PUSH0 KECCAK256 SWAP1 PUSH1 0x8 MUL ADD PUSH1 0x6 ADD PUSH1 0x1 SWAP1 SLOAD SWAP1 PUSH2 0x100 EXP SWAP1 DIV PUSH1 0xFF AND ISZERO PUSH2 0x7AB JUMPI PUSH1 0x40 MLOAD PUSH32 0x8C379A000000000000000000000000000000000000000000000000000000000 DUP2 MSTORE PUSH1 0x4 ADD PUSH2 0x7A2 SWAP1 PUSH2 0x1484 JUMP JUMPDEST PUSH1 0x40 MLOAD DUP1 SWAP2 SUB SWAP1 REVERT JUMPDEST PUSH0 DUP1 DUP5 DUP2 SLOAD DUP2 LT PUSH2 0x7BF JUMPI PUSH2 0x7BE PUSH2 0x10D8 JUMP JUMPDEST JUMPDEST SWAP1 PUSH0 MSTORE PUSH1 0x20 PUSH0 KECCAK256 SWAP1 PUSH1 0x8 MUL ADD PUSH1 0x4 ADD SLOAD SWAP1 POP PUSH0 DUP1 DUP6 DUP2 SLOAD DUP2 LT PUSH2 0x7E5 JUMPI PUSH2 0x7E4 PUSH2 0x10D8 JUMP JUMPDEST JUMPDEST SWAP1 PUSH0 MSTORE PUSH1 0x20 PUSH0 KECCAK256 SWAP1 PUSH1 0x8 MUL ADD PUSH1 0x4 ADD DUP2 SWAP1 SSTORE POP PUSH0 DUP1 DUP6 DUP2 SLOAD DUP2 LT PUSH2 0x80C JUMPI PUSH2 0x80B PUSH2 0x10D8 JUMP JUMPDEST JUMPDEST SWAP1 PUSH0 MSTORE PUSH1 0x20 PUSH0 KECCAK256 SWAP1 PUSH1 0x8 MUL ADD PUSH1 0x6 ADD PUSH1 0x1 PUSH2 0x100 EXP DUP2 SLOAD DUP2 PUSH1 0xFF MUL NOT AND SWAP1 DUP4 ISZERO ISZERO MUL OR SWAP1 SSTORE POP PUSH0 DUP5 DUP2 SLOAD DUP2 LT PUSH2 0x845 JUMPI PUSH2 0x844 PUSH2 0x10D8 JUMP JUMPDEST JUMPDEST SWAP1 PUSH0 MSTORE PUSH1 0x20 PUSH0 KECCAK256 SWAP1 PUSH1 0x8 MUL ADD PUSH0 ADD PUSH0 SWAP1 SLOAD SWAP1 PUSH2 0x100 EXP SWAP1 DIV PUSH20 0xFFFFFFFFFFFFFFFFFFFFFFFFFFFFFFFFFFFFFFFF AND PUSH20 0xFFFFFFFFFFFFFFFFFFFFFFFFFFFFFFFFFFFFFFFF AND PUSH2 0x8FC DUP3 SWAP1 DUP2 ISZERO MUL SWAP1 PUSH1 0x40 MLOAD PUSH0 PUSH1 0x40 MLOAD DUP1 DUP4 SUB DUP2 DUP6 DUP9 DUP9 CALL SWAP4 POP POP POP POP ISZERO DUP1 ISZERO PUSH2 0x8B5 JUMPI RETURNDATASIZE PUSH0 DUP1 RETURNDATACOPY RETURNDATASIZE PUSH0 REVERT JUMPDEST POP POP POP POP POP JUMP JUMPDEST PUSH0 DUP2 GT PUSH2 0x8FE JUMPI PUSH1 0x40 MLOAD PUSH32 0x8C379A000000000000000000000000000000000000000000000000000000000 DUP2 MSTORE PUSH1 0x4 ADD PUSH2 0x8F5 SWAP1 PUSH2 0x14EC JUMP JUMPDEST PUSH1 0x40 MLOAD DUP1 SWAP2 SUB SWAP1 REVERT JUMPDEST PUSH0 DUP3 GT PUSH2 0x940 JUMPI PUSH1 0x40 MLOAD PUSH32 0x8C379A000000000000000000000000000000000000000000000000000000000 DUP2 MSTORE PUSH1 0x4 ADD PUSH2 0x937 SWAP1 PUSH2 0x1554 JUMP JUMPDEST PUSH1 0x40 MLOAD DUP1 SWAP2 SUB SWAP1 REVERT JUMPDEST PUSH0 DUP3 TIMESTAMP PUSH2 0x94D SWAP2 SWAP1 PUSH2 0x159F JUMP JUMPDEST SWAP1 POP PUSH0 DUP1 PUSH1 0x1 DUP2 PUSH1 0x1 DUP2 SLOAD ADD DUP1 DUP3 SSTORE DUP1 SWAP2 POP POP SUB SWAP1 PUSH0 MSTORE PUSH1 0x20 PUSH0 KECCAK256 SWAP1 PUSH1 0x8 MUL ADD SWAP1 POP CALLER DUP2 PUSH0 ADD PUSH0 PUSH2 0x100 EXP DUP2 SLOAD DUP2 PUSH20 0xFFFFFFFFFFFFFFFFFFFFFFFFFFFFFFFFFFFFFFFF MUL NOT AND SWAP1 DUP4 PUSH20 0xFFFFFFFFFFFFFFFFFFFFFFFFFFFFFFFFFFFFFFFF AND MUL OR SWAP1 SSTORE POP DUP6 DUP2 PUSH1 0x1 ADD SWAP1 DUP2 PUSH2 0x9C1 SWAP2 SWAP1 PUSH2 0x176F JUMP JUMPDEST POP DUP5 DUP2 PUSH1 0x2 ADD SWAP1 DUP2 PUSH2 0x9D3 SWAP2 SWAP1 PUSH2 0x176F JUMP JUMPDEST POP DUP3 DUP2 PUSH1 0x3 ADD DUP2 SWAP1 SSTORE POP DUP2 DUP2 PUSH1 0x5 ADD DUP2 SWAP1 SSTORE POP PUSH0 DUP2 PUSH1 0x6 ADD PUSH0 PUSH2 0x100 EXP DUP2 SLOAD DUP2 PUSH1 0xFF MUL NOT AND SWAP1 DUP4 ISZERO ISZERO MUL OR SWAP1 SSTORE POP POP POP POP POP POP POP JUMP JUMPDEST DUP1 PUSH0 DUP1 SLOAD SWAP1 POP DUP2 LT PUSH2 0xA50 JUMPI PUSH1 0x40 MLOAD PUSH32 0x8C379A000000000000000000000000000000000000000000000000000000000 DUP2 MSTORE PUSH1 0x4 ADD PUSH2 0xA47 SWAP1 PUSH2 0x10BA JUMP JUMPDEST PUSH1 0x40 MLOAD DUP1 SWAP2 SUB SWAP1 REVERT JUMPDEST DUP2 PUSH0 DUP2 DUP2 SLOAD DUP2 LT PUSH2 0xA64 JUMPI PUSH2 0xA63 PUSH2 0x10D8 JUMP JUMPDEST JUMPDEST SWAP1 PUSH0 MSTORE PUSH1 0x20 PUSH0 KECCAK256 SWAP1 PUSH1 0x8 MUL ADD PUSH1 0x6 ADD PUSH1 0x1 SWAP1 SLOAD SWAP1 PUSH2 0x100 EXP SWAP1 DIV PUSH1 0xFF AND ISZERO PUSH2 0xAC1 JUMPI PUSH1 0x40 MLOAD PUSH32 0x8C379A000000000000000000000000000000000000000000000000000000000 DUP2 MSTORE PUSH1 0x4 ADD PUSH2 0xAB8 SWAP1 PUSH2 0x114F JUMP JUMPDEST PUSH1 0x40 MLOAD DUP1 SWAP2 SUB SWAP1 REVERT JUMPDEST PUSH0 DUP2 DUP2 SLOAD DUP2 LT PUSH2 0xAD4 JUMPI PUSH2 0xAD3 PUSH2 0x10D8 JUMP JUMPDEST JUMPDEST SWAP1 PUSH0 MSTORE PUSH1 0x20 PUSH0 KECCAK256 SWAP1 PUSH1 0x8 MUL ADD PUSH1 0x5 ADD SLOAD TIMESTAMP LT PUSH2 0xB25 JUMPI PUSH1 0x40 MLOAD PUSH32 0x8C379A000000000000000000000000000000000000000000000000000000000 DUP2 MSTORE PUSH1 0x4 ADD PUSH2 0xB1C SWAP1 PUSH2 0x11B7 JUMP JUMPDEST PUSH1 0x40 MLOAD DUP1 SWAP2 SUB SWAP1 REVERT JUMPDEST PUSH0 CALLVALUE GT PUSH2 0xB67 JUMPI PUSH1 0x40 MLOAD PUSH32 0x8C379A000000000000000000000000000000000000000000000000000000000 DUP2 MSTORE PUSH1 0x4 ADD PUSH2 0xB5E SWAP1 PUSH2 0x1888 JUMP JUMPDEST PUSH1 0x40 MLOAD DUP1 SWAP2 SUB SWAP1 REVERT JUMPDEST CALLVALUE PUSH0 DUP5 DUP2 SLOAD DUP2 LT PUSH2 0xB7B JUMPI PUSH2 0xB7A PUSH2 0x10D8 JUMP JUMPDEST JUMPDEST SWAP1 PUSH0 MSTORE PUSH1 0x20 PUSH0 KECCAK256 SWAP1 PUSH1 0x8 MUL ADD PUSH1 0x7 ADD PUSH0 CALLER PUSH20 0xFFFFFFFFFFFFFFFFFFFFFFFFFFFFFFFFFFFFFFFF AND PUSH20 0xFFFFFFFFFFFFFFFFFFFFFFFFFFFFFFFFFFFFFFFF AND DUP2 MSTORE PUSH1 0x20 ADD SWAP1 DUP2 MSTORE PUSH1 0x20 ADD PUSH0 KECCAK256 PUSH0 DUP3 DUP3 SLOAD PUSH2 0xBD3 SWAP2 SWAP1 PUSH2 0x159F JUMP JUMPDEST SWAP3 POP POP DUP2 SWAP1 SSTORE POP CALLVALUE PUSH0 DUP5 DUP2 SLOAD DUP2 LT PUSH2 0xBEE JUMPI PUSH2 0xBED PUSH2 0x10D8 JUMP JUMPDEST JUMPDEST SWAP1 PUSH0 MSTORE PUSH1 0x20 PUSH0 KECCAK256 SWAP1 PUSH1 0x8 MUL ADD PUSH1 0x4 ADD PUSH0 DUP3 DUP3 SLOAD PUSH2 0xC0B SWAP2 SWAP1 PUSH2 0x159F JUMP JUMPDEST SWAP3 POP POP DUP2 SWAP1 SSTORE POP PUSH0 DUP4 DUP2 SLOAD DUP2 LT PUSH2 0xC25 JUMPI PUSH2 0xC24 PUSH2 0x10D8 JUMP JUMPDEST JUMPDEST SWAP1 PUSH0 MSTORE PUSH1 0x20 PUSH0 KECCAK256 SWAP1 PUSH1 0x8 MUL ADD PUSH1 0x3 ADD SLOAD PUSH0 DUP5 DUP2 SLOAD DUP2 LT PUSH2 0xC48 JUMPI PUSH2 0xC47 PUSH2 0x10D8 JUMP JUMPDEST JUMPDEST SWAP1 PUSH0 MSTORE PUSH1 0x20 PUSH0 KECCAK256 SWAP1 PUSH1 0x8 MUL ADD PUSH1 0x4 ADD SLOAD LT ISZERO DUP1 ISZERO PUSH2 0xC92 JUMPI POP PUSH0 DUP4 DUP2 SLOAD DUP2 LT PUSH2 0xC74 JUMPI PUSH2 0xC73 PUSH2 0x10D8 JUMP JUMPDEST JUMPDEST SWAP1 PUSH0 MSTORE PUSH1 0x20 PUSH0 KECCAK256 SWAP1 PUSH1 0x8 MUL ADD PUSH1 0x6 ADD PUSH0 SWAP1 SLOAD SWAP1 PUSH2 0x100 EXP SWAP1 DIV PUSH1 0xFF AND ISZERO JUMPDEST ISZERO PUSH2 0xCD2 JUMPI PUSH1 0x1 PUSH0 DUP5 DUP2 SLOAD DUP2 LT PUSH2 0xCAC JUMPI PUSH2 0xCAB PUSH2 0x10D8 JUMP JUMPDEST JUMPDEST SWAP1 PUSH0 MSTORE PUSH1 0x20 PUSH0 KECCAK256 SWAP1 PUSH1 0x8 MUL ADD PUSH1 0x6 ADD PUSH0 PUSH2 0x100 EXP DUP2 SLOAD DUP2 PUSH1 0xFF MUL NOT AND SWAP1 DUP4 ISZERO ISZERO MUL OR SWAP1 SSTORE POP JUMPDEST POP POP POP JUMP JUMPDEST PUSH0 PUSH1 0x40 MLOAD SWAP1 POP SWAP1 JUMP JUMPDEST PUSH0 DUP1 REVERT JUMPDEST PUSH0 DUP1 REVERT JUMPDEST PUSH0 DUP2 SWAP1 POP SWAP2 SWAP1 POP JUMP JUMPDEST PUSH2 0xCFA DUP2 PUSH2 0xCE8 JUMP JUMPDEST DUP2 EQ PUSH2 0xD04 JUMPI PUSH0 DUP1 REVERT JUMPDEST POP JUMP JUMPDEST PUSH0 DUP2 CALLDATALOAD SWAP1 POP PUSH2 0xD15 DUP2 PUSH2 0xCF1 JUMP JUMPDEST SWAP3 SWAP2 POP POP JUMP JUMPDEST PUSH0 PUSH1 0x20 DUP3 DUP5 SUB SLT ISZERO PUSH2 0xD30 JUMPI PUSH2 0xD2F PUSH2 0xCE0 JUMP JUMPDEST JUMPDEST PUSH0 PUSH2 0xD3D DUP5 DUP3 DUP6 ADD PUSH2 0xD07 JUMP JUMPDEST SWAP2 POP POP SWAP3 SWAP2 POP POP JUMP JUMPDEST PUSH0 PUSH20 0xFFFFFFFFFFFFFFFFFFFFFFFFFFFFFFFFFFFFFFFF DUP3 AND SWAP1 POP SWAP2 SWAP1 POP JUMP JUMPDEST PUSH0 PUSH2 0xD6F DUP3 PUSH2 0xD46 JUMP JUMPDEST SWAP1 POP SWAP2 SWAP1 POP JUMP JUMPDEST PUSH2 0xD7F DUP2 PUSH2 0xD65 JUMP JUMPDEST DUP3 MSTORE POP POP JUMP JUMPDEST PUSH0 DUP2 MLOAD SWAP1 POP SWAP2 SWAP1 POP JUMP JUMPDEST PUSH0 DUP3 DUP3 MSTORE PUSH1 0x20 DUP3 ADD SWAP1 POP SWAP3 SWAP2 POP POP JUMP JUMPDEST DUP3 DUP2 DUP4 MCOPY PUSH0 DUP4 DUP4 ADD MSTORE POP POP POP JUMP JUMPDEST PUSH0 PUSH1 0x1F NOT PUSH1 0x1F DUP4 ADD AND SWAP1 POP SWAP2 SWAP1 POP JUMP JUMPDEST PUSH0 PUSH2 0xDC7 DUP3 PUSH2 0xD85 JUMP JUMPDEST PUSH2 0xDD1 DUP2 DUP6 PUSH2 0xD8F JUMP JUMPDEST SWAP4 POP PUSH2 0xDE1 DUP2 DUP6 PUSH1 0x20 DUP7 ADD PUSH2 0xD9F JUMP JUMPDEST PUSH2 0xDEA DUP2 PUSH2 0xDAD JUMP JUMPDEST DUP5 ADD SWAP2 POP POP SWAP3 SWAP2 POP POP JUMP JUMPDEST PUSH2 0xDFE DUP2 PUSH2 0xCE8 JUMP JUMPDEST DUP3 MSTORE POP POP JUMP JUMPDEST PUSH0 DUP2 ISZERO ISZERO SWAP1 POP SWAP2 SWAP1 POP JUMP JUMPDEST PUSH2 0xE18 DUP2 PUSH2 0xE04 JUMP JUMPDEST DUP3 MSTORE POP POP JUMP JUMPDEST PUSH0 PUSH2 0x100 DUP3 ADD SWAP1 POP PUSH2 0xE32 PUSH0 DUP4 ADD DUP12 PUSH2 0xD76 JUMP JUMPDEST DUP2 DUP2 SUB PUSH1 0x20 DUP4 ADD MSTORE PUSH2 0xE44 DUP2 DUP11 PUSH2 0xDBD JUMP JUMPDEST SWAP1 POP DUP2 DUP2 SUB PUSH1 0x40 DUP4 ADD MSTORE PUSH2 0xE58 DUP2 DUP10 PUSH2 0xDBD JUMP JUMPDEST SWAP1 POP PUSH2 0xE67 PUSH1 0x60 DUP4 ADD DUP9 PUSH2 0xDF5 JUMP JUMPDEST PUSH2 0xE74 PUSH1 0x80 DUP4 ADD DUP8 PUSH2 0xDF5 JUMP JUMPDEST PUSH2 0xE81 PUSH1 0xA0 DUP4 ADD DUP7 PUSH2 0xDF5 JUMP JUMPDEST PUSH2 0xE8E PUSH1 0xC0 DUP4 ADD DUP6 PUSH2 0xE0F JUMP JUMPDEST PUSH2 0xE9B PUSH1 0xE0 DUP4 ADD DUP5 PUSH2 0xE0F JUMP JUMPDEST SWAP10 SWAP9 POP POP POP POP POP POP POP POP POP JUMP JUMPDEST PUSH0 DUP1 REVERT JUMPDEST PUSH0 DUP1 REVERT JUMPDEST PUSH32 0x4E487B7100000000000000000000000000000000000000000000000000000000 PUSH0 MSTORE PUSH1 0x41 PUSH1 0x4 MSTORE PUSH1 0x24 PUSH0 REVERT JUMPDEST PUSH2 0xEE6 DUP3 PUSH2 0xDAD JUMP JUMPDEST DUP2 ADD DUP2 DUP2 LT PUSH8 0xFFFFFFFFFFFFFFFF DUP3 GT OR ISZERO PUSH2 0xF05 JUMPI PUSH2 0xF04 PUSH2 0xEB0 JUMP JUMPDEST JUMPDEST DUP1 PUSH1 0x40 MSTORE POP POP POP JUMP JUMPDEST PUSH0 PUSH2 0xF17 PUSH2 0xCD7 JUMP JUMPDEST SWAP1 POP PUSH2 0xF23 DUP3 DUP3 PUSH2 0xEDD JUMP JUMPDEST SWAP2 SWAP1 POP JUMP JUMPDEST PUSH0 PUSH8 0xFFFFFFFFFFFFFFFF DUP3 GT ISZERO PUSH2 0xF42 JUMPI PUSH2 0xF41 PUSH2 0xEB0 JUMP JUMPDEST JUMPDEST PUSH2 0xF4B DUP3 PUSH2 0xDAD JUMP JUMPDEST SWAP1 POP PUSH1 0x20 DUP2 ADD SWAP1 POP SWAP2 SWAP1 POP JUMP JUMPDEST DUP3 DUP2 DUP4 CALLDATACOPY PUSH0 DUP4 DUP4 ADD MSTORE POP POP POP JUMP JUMPDEST PUSH0 PUSH2 0xF78 PUSH2 0xF73 DUP5 PUSH2 0xF28 JUMP JUMPDEST PUSH2 0xF0E JUMP JUMPDEST SWAP1 POP DUP3 DUP2 MSTORE PUSH1 0x20 DUP2 ADD DUP5 DUP5 DUP5 ADD GT ISZERO PUSH2 0xF94 JUMPI PUSH2 0xF93 PUSH2 0xEAC JUMP JUMPDEST JUMPDEST PUSH2 0xF9F DUP5 DUP3 DUP6 PUSH2 0xF58 JUMP JUMPDEST POP SWAP4 SWAP3 POP POP POP JUMP JUMPDEST PUSH0 DUP3 PUSH1 0x1F DUP4 ADD SLT PUSH2 0xFBB JUMPI PUSH2 0xFBA PUSH2 0xEA8 JUMP JUMPDEST JUMPDEST DUP2 CALLDATALOAD PUSH2 0xFCB DUP5 DUP3 PUSH1 0x20 DUP7 ADD PUSH2 0xF66 JUMP JUMPDEST SWAP2 POP POP SWAP3 SWAP2 POP POP JUMP JUMPDEST PUSH0 DUP1 PUSH0 DUP1 PUSH1 0x80 DUP6 DUP8 SUB SLT ISZERO PUSH2 0xFEC JUMPI PUSH2 0xFEB PUSH2 0xCE0 JUMP JUMPDEST JUMPDEST PUSH0 DUP6 ADD CALLDATALOAD PUSH8 0xFFFFFFFFFFFFFFFF DUP2 GT ISZERO PUSH2 0x1009 JUMPI PUSH2 0x1008 PUSH2 0xCE4 JUMP JUMPDEST JUMPDEST PUSH2 0x1015 DUP8 DUP3 DUP9 ADD PUSH2 0xFA7 JUMP JUMPDEST SWAP5 POP POP PUSH1 0x20 DUP6 ADD CALLDATALOAD PUSH8 0xFFFFFFFFFFFFFFFF DUP2 GT ISZERO PUSH2 0x1036 JUMPI PUSH2 0x1035 PUSH2 0xCE4 JUMP JUMPDEST JUMPDEST PUSH2 0x1042 DUP8 DUP3 DUP9 ADD PUSH2 0xFA7 JUMP JUMPDEST SWAP4 POP POP PUSH1 0x40 PUSH2 0x1053 DUP8 DUP3 DUP9 ADD PUSH2 0xD07 JUMP JUMPDEST SWAP3 POP POP PUSH1 0x60 PUSH2 0x1064 DUP8 DUP3 DUP9 ADD PUSH2 0xD07 JUMP JUMPDEST SWAP2 POP POP SWAP3 SWAP6 SWAP2 SWAP5 POP SWAP3 POP JUMP JUMPDEST PUSH32 0x496E76616C69642063616D706169676E20494400000000000000000000000000 PUSH0 DUP3 ADD MSTORE POP JUMP JUMPDEST PUSH0 PUSH2 0x10A4 PUSH1 0x13 DUP4 PUSH2 0xD8F JUMP JUMPDEST SWAP2 POP PUSH2 0x10AF DUP3 PUSH2 0x1070 JUMP JUMPDEST PUSH1 0x20 DUP3 ADD SWAP1 POP SWAP2 SWAP1 POP JUMP JUMPDEST PUSH0 PUSH1 0x20 DUP3 ADD SWAP1 POP DUP2 DUP2 SUB PUSH0 DUP4 ADD MSTORE PUSH2 0x10D1 DUP2 PUSH2 0x1098 JUMP JUMPDEST SWAP1 POP SWAP2 SWAP1 POP JUMP JUMPDEST PUSH32 0x4E487B7100000000000000000000000000000000000000000000000000000000 PUSH0 MSTORE PUSH1 0x32 PUSH1 0x4 MSTORE PUSH1 0x24 PUSH0 REVERT JUMPDEST PUSH32 0x43616D706169676E20636C6F7365640000000000000000000000000000000000 PUSH0 DUP3 ADD MSTORE POP JUMP JUMPDEST PUSH0 PUSH2 0x1139 PUSH1 0xF DUP4 PUSH2 0xD8F JUMP JUMPDEST SWAP2 POP PUSH2 0x1144 DUP3 PUSH2 0x1105 JUMP JUMPDEST PUSH1 0x20 DUP3 ADD SWAP1 POP SWAP2 SWAP1 POP JUMP JUMPDEST PUSH0 PUSH1 0x20 DUP3 ADD SWAP1 POP DUP2 DUP2 SUB PUSH0 DUP4 ADD MSTORE PUSH2 0x1166 DUP2 PUSH2 0x112D JUMP JUMPDEST SWAP1 POP SWAP2 SWAP1 POP JUMP JUMPDEST PUSH32 0x43616D706169676E20656E646564000000000000000000000000000000000000 PUSH0 DUP3 ADD MSTORE POP JUMP JUMPDEST PUSH0 PUSH2 0x11A1 PUSH1 0xE DUP4 PUSH2 0xD8F JUMP JUMPDEST SWAP2 POP PUSH2 0x11AC DUP3 PUSH2 0x116D JUMP JUMPDEST PUSH1 0x20 DUP3 ADD SWAP1 POP SWAP2 SWAP1 POP JUMP JUMPDEST PUSH0 PUSH1 0x20 DUP3 ADD SWAP1 POP DUP2 DUP2 SUB PUSH0 DUP4 ADD MSTORE PUSH2 0x11CE DUP2 PUSH2 0x1195 JUMP JUMPDEST SWAP1 POP SWAP2 SWAP1 POP JUMP JUMPDEST PUSH32 0x43616D706169676E206E6F7420656E6465640000000000000000000000000000 PUSH0 DUP3 ADD MSTORE POP JUMP JUMPDEST PUSH0 PUSH2 0x1209 PUSH1 0x12 DUP4 PUSH2 0xD8F JUMP JUMPDEST SWAP2 POP PUSH2 0x1214 DUP3 PUSH2 0x11D5 JUMP JUMPDEST PUSH1 0x20 DUP3 ADD SWAP1 POP SWAP2 SWAP1 POP JUMP JUMPDEST PUSH0 PUSH1 0x20 DUP3 ADD SWAP1 POP DUP2 DUP2 SUB PUSH0 DUP4 ADD MSTORE PUSH2 0x1236 DUP2 PUSH2 0x11FD JUMP JUMPDEST SWAP1 POP SWAP2 SWAP1 POP JUMP JUMPDEST PUSH32 0x4E6F20636F6E747269627574696F6E7320746F20776974686472617700000000 PUSH0 DUP3 ADD MSTORE POP JUMP JUMPDEST PUSH0 PUSH2 0x1271 PUSH1 0x1C DUP4 PUSH2 0xD8F JUMP JUMPDEST SWAP2 POP PUSH2 0x127C DUP3 PUSH2 0x123D JUMP JUMPDEST PUSH1 0x20 DUP3 ADD SWAP1 POP SWAP2 SWAP1 POP JUMP JUMPDEST PUSH0 PUSH1 0x20 DUP3 ADD SWAP1 POP DUP2 DUP2 SUB PUSH0 DUP4 ADD MSTORE PUSH2 0x129E DUP2 PUSH2 0x1265 JUMP JUMPDEST SWAP1 POP SWAP2 SWAP1 POP JUMP JUMPDEST PUSH32 0x4E487B7100000000000000000000000000000000000000000000000000000000 PUSH0 MSTORE PUSH1 0x22 PUSH1 0x4 MSTORE PUSH1 0x24 PUSH0 REVERT JUMPDEST PUSH0 PUSH1 0x2 DUP3 DIV SWAP1 POP PUSH1 0x1 DUP3 AND DUP1 PUSH2 0x12E9 JUMPI PUSH1 0x7F DUP3 AND SWAP2 POP JUMPDEST PUSH1 0x20 DUP3 LT DUP2 SUB PUSH2 0x12FC JUMPI PUSH2 0x12FB PUSH2 0x12A5 JUMP JUMPDEST JUMPDEST POP SWAP2 SWAP1 POP JUMP JUMPDEST PUSH32 0x556E617574686F72697A65640000000000000000000000000000000000000000 PUSH0 DUP3 ADD MSTORE POP JUMP JUMPDEST PUSH0 PUSH2 0x1336 PUSH1 0xC DUP4 PUSH2 0xD8F JUMP JUMPDEST SWAP2 POP PUSH2 0x1341 DUP3 PUSH2 0x1302 JUMP JUMPDEST PUSH1 0x20 DUP3 ADD SWAP1 POP SWAP2 SWAP1 POP JUMP JUMPDEST PUSH0 PUSH1 0x20 DUP3 ADD SWAP1 POP DUP2 DUP2 SUB PUSH0 DUP4 ADD MSTORE PUSH2 0x1363 DUP2 PUSH2 0x132A JUMP JUMPDEST SWAP1 POP SWAP2 SWAP1 POP JUMP JUMPDEST PUSH32 0x476F616C206E6F74207265616368656400000000000000000000000000000000 PUSH0 DUP3 ADD MSTORE POP JUMP JUMPDEST PUSH0 PUSH2 0x139E PUSH1 0x10 DUP4 PUSH2 0xD8F JUMP JUMPDEST SWAP2 POP PUSH2 0x13A9 DUP3 PUSH2 0x136A JUMP JUMPDEST PUSH1 0x20 DUP3 ADD SWAP1 POP SWAP2 SWAP1 POP JUMP JUMPDEST PUSH0 PUSH1 0x20 DUP3 ADD SWAP1 POP DUP2 DUP2 SUB PUSH0 DUP4 ADD MSTORE PUSH2 0x13CB DUP2 PUSH2 0x1392 JUMP JUMPDEST SWAP1 POP SWAP2 SWAP1 POP JUMP JUMPDEST PUSH32 0x446561646C696E65206E6F742070617373656400000000000000000000000000 PUSH0 DUP3 ADD MSTORE POP JUMP JUMPDEST PUSH0 PUSH2 0x1406 PUSH1 0x13 DUP4 PUSH2 0xD8F JUMP JUMPDEST SWAP2 POP PUSH2 0x1411 DUP3 PUSH2 0x13D2 JUMP JUMPDEST PUSH1 0x20 DUP3 ADD SWAP1 POP SWAP2 SWAP1 POP JUMP JUMPDEST PUSH0 PUSH1 0x20 DUP3 ADD SWAP1 POP DUP2 DUP2 SUB PUSH0 DUP4 ADD MSTORE PUSH2 0x1433 DUP2 PUSH2 0x13FA JUMP JUMPDEST SWAP1 POP SWAP2 SWAP1 POP JUMP JUMPDEST PUSH32 0x416C72656164792077697468647261776E000000000000000000000000000000 PUSH0 DUP3 ADD MSTORE POP JUMP JUMPDEST PUSH0 PUSH2 0x146E PUSH1 0x11 DUP4 PUSH2 0xD8F JUMP JUMPDEST SWAP2 POP PUSH2 0x1479 DUP3 PUSH2 0x143A JUMP JUMPDEST PUSH1 0x20 DUP3 ADD SWAP1 POP SWAP2 SWAP1 POP JUMP JUMPDEST PUSH0 PUSH1 0x20 DUP3 ADD SWAP1 POP DUP2 DUP2 SUB PUSH0 DUP4 ADD MSTORE PUSH2 0x149B DUP2 PUSH2 0x1462 JUMP JUMPDEST SWAP1 POP SWAP2 SWAP1 POP JUMP JUMPDEST PUSH32 0x476F616C206D757374206265203E203000000000000000000000000000000000 PUSH0 DUP3 ADD MSTORE POP JUMP JUMPDEST PUSH0 PUSH2 0x14D6 PUSH1 0x10 DUP4 PUSH2 0xD8F JUMP JUMPDEST SWAP2 POP PUSH2 0x14E1 DUP3 PUSH2 0x14A2 JUMP JUMPDEST PUSH1 0x20 DUP3 ADD SWAP1 POP SWAP2 SWAP1 POP JUMP JUMPDEST PUSH0 PUSH1 0x20 DUP3 ADD SWAP1 POP DUP2 DUP2 SUB PUSH0 DUP4 ADD MSTORE PUSH2 0x1503 DUP2 PUSH2 0x14CA JUMP JUMPDEST SWAP1 POP SWAP2 SWAP1 POP JUMP JUMPDEST PUSH32 0x4475726174696F6E206D757374206265203E2030000000000000000000000000 PUSH0 DUP3 ADD MSTORE POP JUMP JUMPDEST PUSH0 PUSH2 0x153E PUSH1 0x14 DUP4 PUSH2 0xD8F JUMP JUMPDEST SWAP2 POP PUSH2 0x1549 DUP3 PUSH2 0x150A JUMP JUMPDEST PUSH1 0x20 DUP3 ADD SWAP1 POP SWAP2 SWAP1 POP JUMP JUMPDEST PUSH0 PUSH1 0x20 DUP3 ADD SWAP1 POP DUP2 DUP2 SUB PUSH0 DUP4 ADD MSTORE PUSH2 0x156B DUP2 PUSH2 0x1532 JUMP JUMPDEST SWAP1 POP SWAP2 SWAP1 POP JUMP JUMPDEST PUSH32 0x4E487B7100000000000000000000000000000000000000000000000000000000 PUSH0 MSTORE PUSH1 0x11 PUSH1 0x4 MSTORE PUSH1 0x24 PUSH0 REVERT JUMPDEST PUSH0 PUSH2 0x15A9 DUP3 PUSH2 0xCE8 JUMP JUMPDEST SWAP2 POP PUSH2 0x15B4 DUP4 PUSH2 0xCE8 JUMP JUMPDEST SWAP3 POP DUP3 DUP3 ADD SWAP1 POP DUP1 DUP3 GT ISZERO PUSH2 0x15CC JUMPI PUSH2 0x15CB PUSH2 0x1572 JUMP JUMPDEST JUMPDEST SWAP3 SWAP2 POP POP JUMP JUMPDEST PUSH0 DUP2 SWAP1 POP DUP2 PUSH0 MSTORE PUSH1 0x20 PUSH0 KECCAK256 SWAP1 POP SWAP2 SWAP1 POP JUMP JUMPDEST PUSH0 PUSH1 0x20 PUSH1 0x1F DUP4 ADD DIV SWAP1 POP SWAP2 SWAP1 POP JUMP JUMPDEST PUSH0 DUP3 DUP3 SHL SWAP1 POP SWAP3 SWAP2 POP POP JUMP JUMPDEST PUSH0 PUSH1 0x8 DUP4 MUL PUSH2 0x162E PUSH32 0xFFFFFFFFFFFFFFFFFFFFFFFFFFFFFFFFFFFFFFFFFFFFFFFFFFFFFFFFFFFFFFFF DUP3 PUSH2 0x15F3 JUMP JUMPDEST PUSH2 0x1638 DUP7 DUP4 PUSH2 0x15F3 JUMP JUMPDEST SWAP6 POP DUP1 NOT DUP5 AND SWAP4 POP DUP1 DUP7 AND DUP5 OR SWAP3 POP POP POP SWAP4 SWAP3 POP POP POP JUMP JUMPDEST PUSH0 DUP2 SWAP1 POP SWAP2 SWAP1 POP JUMP JUMPDEST PUSH0 PUSH2 0x1673 PUSH2 0x166E PUSH2 0x1669 DUP5 PUSH2 0xCE8 JUMP JUMPDEST PUSH2 0x1650 JUMP JUMPDEST PUSH2 0xCE8 JUMP JUMPDEST SWAP1 POP SWAP2 SWAP1 POP JUMP JUMPDEST PUSH0 DUP2 SWAP1 POP SWAP2 SWAP1 POP JUMP JUMPDEST PUSH2 0x168C DUP4 PUSH2 0x1659 JUMP JUMPDEST PUSH2 0x16A0 PUSH2 0x1698 DUP3 PUSH2 0x167A JUMP JUMPDEST DUP5 DUP5 SLOAD PUSH2 0x15FF JUMP JUMPDEST DUP3 SSTORE POP POP POP POP JUMP JUMPDEST PUSH0 SWAP1 JUMP JUMPDEST PUSH2 0x16B4 PUSH2 0x16A8 JUMP JUMPDEST PUSH2 0x16BF DUP2 DUP5 DUP5 PUSH2 0x1683 JUMP JUMPDEST POP POP POP JUMP JUMPDEST JUMPDEST DUP2 DUP2 LT ISZERO PUSH2 0x16E2 JUMPI PUSH2 0x16D7 PUSH0 DUP3 PUSH2 0x16AC JUMP JUMPDEST PUSH1 0x1 DUP2 ADD SWAP1 POP PUSH2 0x16C5 JUMP JUMPDEST POP POP JUMP JUMPDEST PUSH1 0x1F DUP3 GT ISZERO PUSH2 0x1727 JUMPI PUSH2 0x16F8 DUP2 PUSH2 0x15D2 JUMP JUMPDEST PUSH2 0x1701 DUP5 PUSH2 0x15E4 JUMP JUMPDEST DUP2 ADD PUSH1 0x20 DUP6 LT ISZERO PUSH2 0x1710 JUMPI DUP2 SWAP1 POP JUMPDEST PUSH2 0x1724 PUSH2 0x171C DUP6 PUSH2 0x15E4 JUMP JUMPDEST DUP4 ADD DUP3 PUSH2 0x16C4 JUMP JUMPDEST POP POP JUMPDEST POP POP POP JUMP JUMPDEST PUSH0 DUP3 DUP3 SHR SWAP1 POP SWAP3 SWAP2 POP POP JUMP JUMPDEST PUSH0 PUSH2 0x1747 PUSH0 NOT DUP5 PUSH1 0x8 MUL PUSH2 0x172C JUMP JUMPDEST NOT DUP1 DUP4 AND SWAP2 POP POP SWAP3 SWAP2 POP POP JUMP JUMPDEST PUSH0 PUSH2 0x175F DUP4 DUP4 PUSH2 0x1738 JUMP JUMPDEST SWAP2 POP DUP3 PUSH1 0x2 MUL DUP3 OR SWAP1 POP SWAP3 SWAP2 POP POP JUMP JUMPDEST PUSH2 0x1778 DUP3 PUSH2 0xD85 JUMP JUMPDEST PUSH8 0xFFFFFFFFFFFFFFFF DUP2 GT ISZERO PUSH2 0x1791 JUMPI PUSH2 0x1790 PUSH2 0xEB0 JUMP JUMPDEST JUMPDEST PUSH2 0x179B DUP3 SLOAD PUSH2 0x12D2 JUMP JUMPDEST PUSH2 0x17A6 DUP3 DUP3 DUP6 PUSH2 0x16E6 JUMP JUMPDEST PUSH0 PUSH1 0x20 SWAP1 POP PUSH1 0x1F DUP4 GT PUSH1 0x1 DUP2 EQ PUSH2 0x17D7 JUMPI PUSH0 DUP5 ISZERO PUSH2 0x17C5 JUMPI DUP3 DUP8 ADD MLOAD SWAP1 POP JUMPDEST PUSH2 0x17CF DUP6 DUP3 PUSH2 0x1754 JUMP JUMPDEST DUP7 SSTORE POP PUSH2 0x1836 JUMP JUMPDEST PUSH1 0x1F NOT DUP5 AND PUSH2 0x17E5 DUP7 PUSH2 0x15D2 JUMP JUMPDEST PUSH0 JUMPDEST DUP3 DUP2 LT ISZERO PUSH2 0x180C JUMPI DUP5 DUP10 ADD MLOAD DUP3 SSTORE PUSH1 0x1 DUP3 ADD SWAP2 POP PUSH1 0x20 DUP6 ADD SWAP5 POP PUSH1 0x20 DUP2 ADD SWAP1 POP PUSH2 0x17E7 JUMP JUMPDEST DUP7 DUP4 LT ISZERO PUSH2 0x1829 JUMPI DUP5 DUP10 ADD MLOAD PUSH2 0x1825 PUSH1 0x1F DUP10 AND DUP3 PUSH2 0x1738 JUMP JUMPDEST DUP4 SSTORE POP JUMPDEST PUSH1 0x1 PUSH1 0x2 DUP9 MUL ADD DUP9 SSTORE POP POP POP JUMPDEST POP POP POP POP POP POP JUMP JUMPDEST PUSH32 0x436F6E747269627574696F6E206D757374206265203E20300000000000000000 PUSH0 DUP3 ADD MSTORE POP JUMP JUMPDEST PUSH0 PUSH2 0x1872 PUSH1 0x18 DUP4 PUSH2 0xD8F JUMP JUMPDEST SWAP2 POP PUSH2 0x187D DUP3 PUSH2 0x183E JUMP JUMPDEST PUSH1 0x20 DUP3 ADD SWAP1 POP SWAP2 SWAP1 POP JUMP JUMPDEST PUSH0 PUSH1 0x20 DUP3 ADD SWAP1 POP DUP2 DUP2 SUB PUSH0 DUP4 ADD MSTORE PUSH2 0x189F DUP2 PUSH2 0x1866 JUMP JUMPDEST SWAP1 POP SWAP2 SWAP1 POP JUMP INVALID LOG2 PUSH5 0x6970667358 0x22 SLT KECCAK256 EXTCODEHASH 0xAE GASPRICE 0xED JUMPI DUP2 STATICCALL 0x2E CALLCODE 0xBB DUP16 PUSH21 0xE633D335A7FA65936446313B33A941D0A33A51D564 PUSH20 0x6F6C634300081A00330000000000000000000000 "
		},
		"gasEstimates": {
			"creation": {
				"codeDepositCost": "1272800",
				"executionCost": "1320",
				"totalCost": "1274120"
			},
			"external": {
				"campaigns(uint256)": "infinite",
				"contribute(uint256)": "infinite",
				"createCampaign(string,string,uint256,uint256)": "infinite",
				"withdrawContributions(uint256)": "infinite",
				"withdrawFunds(uint256)": "infinite"
			}
		},
		"methodIdentifiers": {
			"campaigns(uint256)": "141961bc",
			"contribute(uint256)": "c1cbbca7",
			"createCampaign(string,string,uint256,uint256)": "a318f269",
			"withdrawContributions(uint256)": "0b008fd0",
			"withdrawFunds(uint256)": "155dd5ee"
		}
	},
	"abi": [
		{
			"inputs": [
				{
					"internalType": "uint256",
					"name": "",
					"type": "uint256"
				}
			],
			"name": "campaigns",
			"outputs": [
				{
					"internalType": "address payable",
					"name": "creator",
					"type": "address"
				},
				{
					"internalType": "string",
					"name": "title",
					"type": "string"
				},
				{
					"internalType": "string",
					"name": "description",
					"type": "string"
				},
				{
					"internalType": "uint256",
					"name": "goal",
					"type": "uint256"
				},
				{
					"internalType": "uint256",
					"name": "totalFunds",
					"type": "uint256"
				},
				{
					"internalType": "uint256",
					"name": "deadline",
					"type": "uint256"
				},
				{
					"internalType": "bool",
					"name": "goalReached",
					"type": "bool"
				},
				{
					"internalType": "bool",
					"name": "closed",
					"type": "bool"
				}
			],
			"stateMutability": "view",
			"type": "function"
		},
		{
			"inputs": [
				{
					"internalType": "uint256",
					"name": "_campaignId",
					"type": "uint256"
				}
			],
			"name": "contribute",
			"outputs": [],
			"stateMutability": "payable",
			"type": "function"
		},
		{
			"inputs": [
				{
					"internalType": "string",
					"name": "_title",
					"type": "string"
				},
				{
					"internalType": "string",
					"name": "_description",
					"type": "string"
				},
				{
					"internalType": "uint256",
					"name": "_duration",
					"type": "uint256"
				},
				{
					"internalType": "uint256",
					"name": "_goal",
					"type": "uint256"
				}
			],
			"name": "createCampaign",
			"outputs": [],
			"stateMutability": "nonpayable",
			"type": "function"
		},
		{
			"inputs": [
				{
					"internalType": "uint256",
					"name": "_campaignId",
					"type": "uint256"
				}
			],
			"name": "withdrawContributions",
			"outputs": [],
			"stateMutability": "payable",
			"type": "function"
		},
		{
			"inputs": [
				{
					"internalType": "uint256",
					"name": "_campaignId",
					"type": "uint256"
				}
			],
			"name": "withdrawFunds",
			"outputs": [],
			"stateMutability": "payable",
			"type": "function"
		}
	]
}