{
	"data": {
		"bytecode": {
			"linkReferences": {},
			"object": "6080604052348015600e575f80fd5b5061194f8061001c5f395ff3fe608060405260043610610049575f3560e01c8063141961bc1461004d578063155dd5ee14610090578063a318f269146100b8578063c1cbbca7146100f4578063d25090ff14610110575b5f80fd5b348015610058575f80fd5b50610073600480360381019061006e9190610ca1565b610138565b604051610087989796959493929190610da4565b60405180910390f35b34801561009b575f80fd5b506100b660048036038101906100b19190610ca1565b6102ce565b005b3480156100c3575f80fd5b506100de60048036038101906100d99190610e8f565b610582565b6040516100eb9190610f32565b60405180910390f35b61010e60048036038101906101099190610ca1565b61074f565b005b34801561011b575f80fd5b5061013660048036038101906101319190610ca1565b6109c6565b005b5f8181548110610146575f80fd5b905f5260205f2090600802015f91509050805f015f9054906101000a900473ffffffffffffffffffffffffffffffffffffffff169080600101805461018a90610f78565b80601f01602080910402602001604051908101604052809291908181526020018280546101b690610f78565b80156102015780601f106101d857610100808354040283529160200191610201565b820191905f5260205f20905b8154815290600101906020018083116101e457829003601f168201915b50505050509080600201805461021690610f78565b80601f016020809104026020016040519081016040528092919081815260200182805461024290610f78565b801561028d5780601f106102645761010080835404028352916020019161028d565b820191905f5260205f20905b81548152906001019060200180831161027057829003601f168201915b505050505090806003015490806004015490806005015490806006015f9054906101000a900460ff16908060060160019054906101000a900460ff16905088565b805f805490508110610315576040517f08c379a000000000000000000000000000000000000000000000000000000000815260040161030c90610ff2565b60405180910390fd5b813373ffffffffffffffffffffffffffffffffffffffff165f82815481106103405761033f611010565b5b905f5260205f2090600802015f015f9054906101000a900473ffffffffffffffffffffffffffffffffffffffff1673ffffffffffffffffffffffffffffffffffffffff16146103c4576040517f08c379a00000000000000000000000000000000000000000000000000000000081526004016103bb90611087565b60405180910390fd5b5f8084815481106103d8576103d7611010565b5b905f5260205f2090600802019050806006015f9054906101000a900460ff16610436576040517f08c379a000000000000000000000000000000000000000000000000000000000815260040161042d906110ef565b60405180910390fd5b806005015442101561047d576040517f08c379a000000000000000000000000000000000000000000000000000000000815260040161047490611157565b60405180910390fd5b8060060160019054906101000a900460ff16156104cf576040517f08c379a00000000000000000000000000000000000000000000000000000000081526004016104c6906111bf565b60405180910390fd5b5f816004015490505f826004018190555060018260060160016101000a81548160ff0219169083151502179055503373ffffffffffffffffffffffffffffffffffffffff166108fc8290811502906040515f60405180830381858888f19350505050158015610540573d5f803e3d5ffd5b50847ff440aec6b52895984d061d622e6edeba6210f7c3e059be920663140c084560d733836040516105739291906111fd565b60405180910390a25050505050565b5f8082116105c5576040517f08c379a00000000000000000000000000000000000000000000000000000000081526004016105bc9061126e565b60405180910390fd5b5f8311610607576040517f08c379a00000000000000000000000000000000000000000000000000000000081526004016105fe906112d6565b60405180910390fd5b5f83426106149190611321565b90505f8060018160018154018082558091505003905f5260205f209060080201905033815f015f6101000a81548173ffffffffffffffffffffffffffffffffffffffff021916908373ffffffffffffffffffffffffffffffffffffffff160217905550888882600101918261068a929190611528565b50868682600201918261069e929190611528565b508381600301819055508181600501819055505f816006015f6101000a81548160ff0219169083151502179055505f8160060160016101000a81548160ff02191690831515021790555060015f805490506106f991906115f5565b7f633109eec20320eded000fc1e2634211aa7e92ba3f5b15faf6dcdafca05094e4336040516107289190611628565b60405180910390a260015f8054905061074191906115f5565b925050509695505050505050565b805f805490508110610796576040517f08c379a000000000000000000000000000000000000000000000000000000000815260040161078d90610ff2565b60405180910390fd5b815f81815481106107aa576107a9611010565b5b905f5260205f20906008020160060160019054906101000a900460ff1615610807576040517f08c379a00000000000000000000000000000000000000000000000000000000081526004016107fe9061168b565b60405180910390fd5b5f818154811061081a57610819611010565b5b905f5260205f20906008020160050154421061086b576040517f08c379a0000000000000000000000000000000000000000000000000000000008152600401610862906116f3565b60405180910390fd5b5f34116108ad576040517f08c379a00000000000000000000000000000000000000000000000000000000081526004016108a49061175b565b60405180910390fd5b5f8084815481106108c1576108c0611010565b5b905f5260205f209060080201905034816007015f3373ffffffffffffffffffffffffffffffffffffffff1673ffffffffffffffffffffffffffffffffffffffff1681526020019081526020015f205f82825461091d9190611321565b9250508190555034816004015f8282546109379190611321565b9250508190555080600301548160040154101580156109645750806006015f9054906101000a900460ff16155b15610986576001816006015f6101000a81548160ff0219169083151502179055505b837f0a4a91237423e0a1766a761c7cb029311d8b95d6b1b81db1b949a70c98b4e08e33346040516109b89291906111fd565b60405180910390a250505050565b805f805490508110610a0d576040517f08c379a0000000000000000000000000000000000000000000000000000000008152600401610a0490610ff2565b60405180910390fd5b5f808381548110610a2157610a20611010565b5b905f5260205f20906008020190508060050154421015610a76576040517f08c379a0000000000000000000000000000000000000000000000000000000008152600401610a6d906117c3565b60405180910390fd5b806006015f9054906101000a900460ff1615610ac7576040517f08c379a0000000000000000000000000000000000000000000000000000000008152600401610abe9061182b565b60405180910390fd5b8060060160019054906101000a900460ff1615610b19576040517f08c379a0000000000000000000000000000000000000000000000000000000008152600401610b1090611893565b60405180910390fd5b5f816007015f3373ffffffffffffffffffffffffffffffffffffffff1673ffffffffffffffffffffffffffffffffffffffff1681526020019081526020015f205490505f8111610b9e576040517f08c379a0000000000000000000000000000000000000000000000000000000008152600401610b95906118fb565b60405180910390fd5b5f826007015f3373ffffffffffffffffffffffffffffffffffffffff1673ffffffffffffffffffffffffffffffffffffffff1681526020019081526020015f20819055503373ffffffffffffffffffffffffffffffffffffffff166108fc8290811502906040515f60405180830381858888f19350505050158015610c25573d5f803e3d5ffd5b50837fa182b2a9c58fae7e4827fbe3ac2fa1c5711191ef3f58b1fa19631feb97273bb23383604051610c589291906111fd565b60405180910390a250505050565b5f80fd5b5f80fd5b5f819050919050565b610c8081610c6e565b8114610c8a575f80fd5b50565b5f81359050610c9b81610c77565b92915050565b5f60208284031215610cb657610cb5610c66565b5b5f610cc384828501610c8d565b91505092915050565b5f73ffffffffffffffffffffffffffffffffffffffff82169050919050565b5f610cf582610ccc565b9050919050565b610d0581610ceb565b82525050565b5f81519050919050565b5f82825260208201905092915050565b8281835e5f83830152505050565b5f601f19601f8301169050919050565b5f610d4d82610d0b565b610d578185610d15565b9350610d67818560208601610d25565b610d7081610d33565b840191505092915050565b610d8481610c6e565b82525050565b5f8115159050919050565b610d9e81610d8a565b82525050565b5f61010082019050610db85f83018b610cfc565b8181036020830152610dca818a610d43565b90508181036040830152610dde8189610d43565b9050610ded6060830188610d7b565b610dfa6080830187610d7b565b610e0760a0830186610d7b565b610e1460c0830185610d95565b610e2160e0830184610d95565b9998505050505050505050565b5f80fd5b5f80fd5b5f80fd5b5f8083601f840112610e4f57610e4e610e2e565b5b8235905067ffffffffffffffff811115610e6c57610e6b610e32565b5b602083019150836001820283011115610e8857610e87610e36565b5b9250929050565b5f805f805f8060808789031215610ea957610ea8610c66565b5b5f87013567ffffffffffffffff811115610ec657610ec5610c6a565b5b610ed289828a01610e3a565b9650965050602087013567ffffffffffffffff811115610ef557610ef4610c6a565b5b610f0189828a01610e3a565b94509450506040610f1489828a01610c8d565b9250506060610f2589828a01610c8d565b9150509295509295509295565b5f602082019050610f455f830184610d7b565b92915050565b7f4e487b71000000000000000000000000000000000000000000000000000000005f52602260045260245ffd5b5f6002820490506001821680610f8f57607f821691505b602082108103610fa257610fa1610f4b565b5b50919050565b7f496e76616c69642063616d706169676e204944000000000000000000000000005f82015250565b5f610fdc601383610d15565b9150610fe782610fa8565b602082019050919050565b5f6020820190508181035f83015261100981610fd0565b9050919050565b7f4e487b71000000000000000000000000000000000000000000000000000000005f52603260045260245ffd5b7f556e617574686f72697a656400000000000000000000000000000000000000005f82015250565b5f611071600c83610d15565b915061107c8261103d565b602082019050919050565b5f6020820190508181035f83015261109e81611065565b9050919050565b7f476f616c206e6f742072656163686564000000000000000000000000000000005f82015250565b5f6110d9601083610d15565b91506110e4826110a5565b602082019050919050565b5f6020820190508181035f830152611106816110cd565b9050919050565b7f446561646c696e65206e6f7420706173736564000000000000000000000000005f82015250565b5f611141601383610d15565b915061114c8261110d565b602082019050919050565b5f6020820190508181035f83015261116e81611135565b9050919050565b7f46756e647320616c72656164792077697468647261776e0000000000000000005f82015250565b5f6111a9601783610d15565b91506111b482611175565b602082019050919050565b5f6020820190508181035f8301526111d68161119d565b9050919050565b5f6111e782610ccc565b9050919050565b6111f7816111dd565b82525050565b5f6040820190506112105f8301856111ee565b61121d6020830184610d7b565b9392505050565b7f476f616c206d757374206265203e2030000000000000000000000000000000005f82015250565b5f611258601083610d15565b915061126382611224565b602082019050919050565b5f6020820190508181035f8301526112858161124c565b9050919050565b7f4475726174696f6e206d757374206265203e20300000000000000000000000005f82015250565b5f6112c0601483610d15565b91506112cb8261128c565b602082019050919050565b5f6020820190508181035f8301526112ed816112b4565b9050919050565b7f4e487b71000000000000000000000000000000000000000000000000000000005f52601160045260245ffd5b5f61132b82610c6e565b915061133683610c6e565b925082820190508082111561134e5761134d6112f4565b5b92915050565b5f82905092915050565b7f4e487b71000000000000000000000000000000000000000000000000000000005f52604160045260245ffd5b5f819050815f5260205f209050919050565b5f6020601f8301049050919050565b5f82821b905092915050565b5f600883026113e77fffffffffffffffffffffffffffffffffffffffffffffffffffffffffffffffff826113ac565b6113f186836113ac565b95508019841693508086168417925050509392505050565b5f819050919050565b5f61142c61142761142284610c6e565b611409565b610c6e565b9050919050565b5f819050919050565b61144583611412565b61145961145182611433565b8484546113b8565b825550505050565b5f90565b61146d611461565b61147881848461143c565b505050565b5b8181101561149b576114905f82611465565b60018101905061147e565b5050565b601f8211156114e0576114b18161138b565b6114ba8461139d565b810160208510156114c9578190505b6114dd6114d58561139d565b83018261147d565b50505b505050565b5f82821c905092915050565b5f6115005f19846008026114e5565b1980831691505092915050565b5f61151883836114f1565b9150826002028217905092915050565b6115328383611354565b67ffffffffffffffff81111561154b5761154a61135e565b5b6115558254610f78565b61156082828561149f565b5f601f83116001811461158d575f841561157b578287013590505b611585858261150d565b8655506115ec565b601f19841661159b8661138b565b5f5b828110156115c25784890135825560018201915060208501945060208101905061159d565b868310156115df57848901356115db601f8916826114f1565b8355505b6001600288020188555050505b50505050505050565b5f6115ff82610c6e565b915061160a83610c6e565b9250828203905081811115611622576116216112f4565b5b92915050565b5f60208201905061163b5f8301846111ee565b92915050565b7f43616d706169676e20636c6f73656400000000000000000000000000000000005f82015250565b5f611675600f83610d15565b915061168082611641565b602082019050919050565b5f6020820190508181035f8301526116a281611669565b9050919050565b7f43616d706169676e20656e6465640000000000000000000000000000000000005f82015250565b5f6116dd600e83610d15565b91506116e8826116a9565b602082019050919050565b5f6020820190508181035f83015261170a816116d1565b9050919050565b7f436f6e747269627574696f6e206d757374206265203e203000000000000000005f82015250565b5f611745601883610d15565b915061175082611711565b602082019050919050565b5f6020820190508181035f83015261177281611739565b9050919050565b7f43616d706169676e206e6f7420656e64656400000000000000000000000000005f82015250565b5f6117ad601283610d15565b91506117b882611779565b602082019050919050565b5f6020820190508181035f8301526117da816117a1565b9050919050565b7f476f616c207265616368656400000000000000000000000000000000000000005f82015250565b5f611815600c83610d15565b9150611820826117e1565b602082019050919050565b5f6020820190508181035f83015261184281611809565b9050919050565b7f46756e64732077697468647261776e00000000000000000000000000000000005f82015250565b5f61187d600f83610d15565b915061188882611849565b602082019050919050565b5f6020820190508181035f8301526118aa81611871565b9050919050565b7f4e6f20636f6e747269627574696f6e73000000000000000000000000000000005f82015250565b5f6118e5601083610d15565b91506118f0826118b1565b602082019050919050565b5f6020820190508181035f830152611912816118d9565b905091905056fea26469706673582212200be63f190088c6248010262792edb4d48e7725cbb23b552f7d330ca4a987f8ae64736f6c634300081a0033",
			"opcodes": "PUSH1 0x80 PUSH1 0x40 MSTORE CALLVALUE DUP1 ISZERO PUSH1 0xE JUMPI PUSH0 DUP1 REVERT JUMPDEST POP PUSH2 0x194F DUP1 PUSH2 0x1C PUSH0 CODECOPY PUSH0 RETURN INVALID PUSH1 0x80 PUSH1 0x40 MSTORE PUSH1 0x4 CALLDATASIZE LT PUSH2 0x49 JUMPI PUSH0 CALLDATALOAD PUSH1 0xE0 SHR DUP1 PUSH4 0x141961BC EQ PUSH2 0x4D JUMPI DUP1 PUSH4 0x155DD5EE EQ PUSH2 0x90 JUMPI DUP1 PUSH4 0xA318F269 EQ PUSH2 0xB8 JUMPI DUP1 PUSH4 0xC1CBBCA7 EQ PUSH2 0xF4 JUMPI DUP1 PUSH4 0xD25090FF EQ PUSH2 0x110 JUMPI JUMPDEST PUSH0 DUP1 REVERT JUMPDEST CALLVALUE DUP1 ISZERO PUSH2 0x58 JUMPI PUSH0 DUP1 REVERT JUMPDEST POP PUSH2 0x73 PUSH1 0x4 DUP1 CALLDATASIZE SUB DUP2 ADD SWAP1 PUSH2 0x6E SWAP2 SWAP1 PUSH2 0xCA1 JUMP JUMPDEST PUSH2 0x138 JUMP JUMPDEST PUSH1 0x40 MLOAD PUSH2 0x87 SWAP9 SWAP8 SWAP7 SWAP6 SWAP5 SWAP4 SWAP3 SWAP2 SWAP1 PUSH2 0xDA4 JUMP JUMPDEST PUSH1 0x40 MLOAD DUP1 SWAP2 SUB SWAP1 RETURN JUMPDEST CALLVALUE DUP1 ISZERO PUSH2 0x9B JUMPI PUSH0 DUP1 REVERT JUMPDEST POP PUSH2 0xB6 PUSH1 0x4 DUP1 CALLDATASIZE SUB DUP2 ADD SWAP1 PUSH2 0xB1 SWAP2 SWAP1 PUSH2 0xCA1 JUMP JUMPDEST PUSH2 0x2CE JUMP JUMPDEST STOP JUMPDEST CALLVALUE DUP1 ISZERO PUSH2 0xC3 JUMPI PUSH0 DUP1 REVERT JUMPDEST POP PUSH2 0xDE PUSH1 0x4 DUP1 CALLDATASIZE SUB DUP2 ADD SWAP1 PUSH2 0xD9 SWAP2 SWAP1 PUSH2 0xE8F JUMP JUMPDEST PUSH2 0x582 JUMP JUMPDEST PUSH1 0x40 MLOAD PUSH2 0xEB SWAP2 SWAP1 PUSH2 0xF32 JUMP JUMPDEST PUSH1 0x40 MLOAD DUP1 SWAP2 SUB SWAP1 RETURN JUMPDEST PUSH2 0x10E PUSH1 0x4 DUP1 CALLDATASIZE SUB DUP2 ADD SWAP1 PUSH2 0x109 SWAP2 SWAP1 PUSH2 0xCA1 JUMP JUMPDEST PUSH2 0x74F JUMP JUMPDEST STOP JUMPDEST CALLVALUE DUP1 ISZERO PUSH2 0x11B JUMPI PUSH0 DUP1 REVERT JUMPDEST POP PUSH2 0x136 PUSH1 0x4 DUP1 CALLDATASIZE SUB DUP2 ADD SWAP1 PUSH2 0x131 SWAP2 SWAP1 PUSH2 0xCA1 JUMP JUMPDEST PUSH2 0x9C6 JUMP JUMPDEST STOP JUMPDEST PUSH0 DUP2 DUP2 SLOAD DUP2 LT PUSH2 0x146 JUMPI PUSH0 DUP1 REVERT JUMPDEST SWAP1 PUSH0 MSTORE PUSH1 0x20 PUSH0 KECCAK256 SWAP1 PUSH1 0x8 MUL ADD PUSH0 SWAP2 POP SWAP1 POP DUP1 PUSH0 ADD PUSH0 SWAP1 SLOAD SWAP1 PUSH2 0x100 EXP SWAP1 DIV PUSH20 0xFFFFFFFFFFFFFFFFFFFFFFFFFFFFFFFFFFFFFFFF AND SWAP1 DUP1 PUSH1 0x1 ADD DUP1 SLOAD PUSH2 0x18A SWAP1 PUSH2 0xF78 JUMP JUMPDEST DUP1 PUSH1 0x1F ADD PUSH1 0x20 DUP1 SWAP2 DIV MUL PUSH1 0x20 ADD PUSH1 0x40 MLOAD SWAP1 DUP2 ADD PUSH1 0x40 MSTORE DUP1 SWAP3 SWAP2 SWAP1 DUP2 DUP2 MSTORE PUSH1 0x20 ADD DUP3 DUP1 SLOAD PUSH2 0x1B6 SWAP1 PUSH2 0xF78 JUMP JUMPDEST DUP1 ISZERO PUSH2 0x201 JUMPI DUP1 PUSH1 0x1F LT PUSH2 0x1D8 JUMPI PUSH2 0x100 DUP1 DUP4 SLOAD DIV MUL DUP4 MSTORE SWAP2 PUSH1 0x20 ADD SWAP2 PUSH2 0x201 JUMP JUMPDEST DUP3 ADD SWAP2 SWAP1 PUSH0 MSTORE PUSH1 0x20 PUSH0 KECCAK256 SWAP1 JUMPDEST DUP2 SLOAD DUP2 MSTORE SWAP1 PUSH1 0x1 ADD SWAP1 PUSH1 0x20 ADD DUP1 DUP4 GT PUSH2 0x1E4 JUMPI DUP3 SWAP1 SUB PUSH1 0x1F AND DUP3 ADD SWAP2 JUMPDEST POP POP POP POP POP SWAP1 DUP1 PUSH1 0x2 ADD DUP1 SLOAD PUSH2 0x216 SWAP1 PUSH2 0xF78 JUMP JUMPDEST DUP1 PUSH1 0x1F ADD PUSH1 0x20 DUP1 SWAP2 DIV MUL PUSH1 0x20 ADD PUSH1 0x40 MLOAD SWAP1 DUP2 ADD PUSH1 0x40 MSTORE DUP1 SWAP3 SWAP2 SWAP1 DUP2 DUP2 MSTORE PUSH1 0x20 ADD DUP3 DUP1 SLOAD PUSH2 0x242 SWAP1 PUSH2 0xF78 JUMP JUMPDEST DUP1 ISZERO PUSH2 0x28D JUMPI DUP1 PUSH1 0x1F LT PUSH2 0x264 JUMPI PUSH2 0x100 DUP1 DUP4 SLOAD DIV MUL DUP4 MSTORE SWAP2 PUSH1 0x20 ADD SWAP2 PUSH2 0x28D JUMP JUMPDEST DUP3 ADD SWAP2 SWAP1 PUSH0 MSTORE PUSH1 0x20 PUSH0 KECCAK256 SWAP1 JUMPDEST DUP2 SLOAD DUP2 MSTORE SWAP1 PUSH1 0x1 ADD SWAP1 PUSH1 0x20 ADD DUP1 DUP4 GT PUSH2 0x270 JUMPI DUP3 SWAP1 SUB PUSH1 0x1F AND DUP3 ADD SWAP2 JUMPDEST POP POP POP POP POP SWAP1 DUP1 PUSH1 0x3 ADD SLOAD SWAP1 DUP1 PUSH1 0x4 ADD SLOAD SWAP1 DUP1 PUSH1 0x5 ADD SLOAD SWAP1 DUP1 PUSH1 0x6 ADD PUSH0 SWAP1 SLOAD SWAP1 PUSH2 0x100 EXP SWAP1 DIV PUSH1 0xFF AND SWAP1 DUP1 PUSH1 0x6 ADD PUSH1 0x1 SWAP1 SLOAD SWAP1 PUSH2 0x100 EXP SWAP1 DIV PUSH1 0xFF AND SWAP1 POP DUP9 JUMP JUMPDEST DUP1 PUSH0 DUP1 SLOAD SWAP1 POP DUP2 LT PUSH2 0x315 JUMPI PUSH1 0x40 MLOAD PUSH32 0x8C379A000000000000000000000000000000000000000000000000000000000 DUP2 MSTORE PUSH1 0x4 ADD PUSH2 0x30C SWAP1 PUSH2 0xFF2 JUMP JUMPDEST PUSH1 0x40 MLOAD DUP1 SWAP2 SUB SWAP1 REVERT JUMPDEST DUP2 CALLER PUSH20 0xFFFFFFFFFFFFFFFFFFFFFFFFFFFFFFFFFFFFFFFF AND PUSH0 DUP3 DUP2 SLOAD DUP2 LT PUSH2 0x340 JUMPI PUSH2 0x33F PUSH2 0x1010 JUMP JUMPDEST JUMPDEST SWAP1 PUSH0 MSTORE PUSH1 0x20 PUSH0 KECCAK256 SWAP1 PUSH1 0x8 MUL ADD PUSH0 ADD PUSH0 SWAP1 SLOAD SWAP1 PUSH2 0x100 EXP SWAP1 DIV PUSH20 0xFFFFFFFFFFFFFFFFFFFFFFFFFFFFFFFFFFFFFFFF AND PUSH20 0xFFFFFFFFFFFFFFFFFFFFFFFFFFFFFFFFFFFFFFFF AND EQ PUSH2 0x3C4 JUMPI PUSH1 0x40 MLOAD PUSH32 0x8C379A000000000000000000000000000000000000000000000000000000000 DUP2 MSTORE PUSH1 0x4 ADD PUSH2 0x3BB SWAP1 PUSH2 0x1087 JUMP JUMPDEST PUSH1 0x40 MLOAD DUP1 SWAP2 SUB SWAP1 REVERT JUMPDEST PUSH0 DUP1 DUP5 DUP2 SLOAD DUP2 LT PUSH2 0x3D8 JUMPI PUSH2 0x3D7 PUSH2 0x1010 JUMP JUMPDEST JUMPDEST SWAP1 PUSH0 MSTORE PUSH1 0x20 PUSH0 KECCAK256 SWAP1 PUSH1 0x8 MUL ADD SWAP1 POP DUP1 PUSH1 0x6 ADD PUSH0 SWAP1 SLOAD SWAP1 PUSH2 0x100 EXP SWAP1 DIV PUSH1 0xFF AND PUSH2 0x436 JUMPI PUSH1 0x40 MLOAD PUSH32 0x8C379A000000000000000000000000000000000000000000000000000000000 DUP2 MSTORE PUSH1 0x4 ADD PUSH2 0x42D SWAP1 PUSH2 0x10EF JUMP JUMPDEST PUSH1 0x40 MLOAD DUP1 SWAP2 SUB SWAP1 REVERT JUMPDEST DUP1 PUSH1 0x5 ADD SLOAD TIMESTAMP LT ISZERO PUSH2 0x47D JUMPI PUSH1 0x40 MLOAD PUSH32 0x8C379A000000000000000000000000000000000000000000000000000000000 DUP2 MSTORE PUSH1 0x4 ADD PUSH2 0x474 SWAP1 PUSH2 0x1157 JUMP JUMPDEST PUSH1 0x40 MLOAD DUP1 SWAP2 SUB SWAP1 REVERT JUMPDEST DUP1 PUSH1 0x6 ADD PUSH1 0x1 SWAP1 SLOAD SWAP1 PUSH2 0x100 EXP SWAP1 DIV PUSH1 0xFF AND ISZERO PUSH2 0x4CF JUMPI PUSH1 0x40 MLOAD PUSH32 0x8C379A000000000000000000000000000000000000000000000000000000000 DUP2 MSTORE PUSH1 0x4 ADD PUSH2 0x4C6 SWAP1 PUSH2 0x11BF JUMP JUMPDEST PUSH1 0x40 MLOAD DUP1 SWAP2 SUB SWAP1 REVERT JUMPDEST PUSH0 DUP2 PUSH1 0x4 ADD SLOAD SWAP1 POP PUSH0 DUP3 PUSH1 0x4 ADD DUP2 SWAP1 SSTORE POP PUSH1 0x1 DUP3 PUSH1 0x6 ADD PUSH1 0x1 PUSH2 0x100 EXP DUP2 SLOAD DUP2 PUSH1 0xFF MUL NOT AND SWAP1 DUP4 ISZERO ISZERO MUL OR SWAP1 SSTORE POP CALLER PUSH20 0xFFFFFFFFFFFFFFFFFFFFFFFFFFFFFFFFFFFFFFFF AND PUSH2 0x8FC DUP3 SWAP1 DUP2 ISZERO MUL SWAP1 PUSH1 0x40 MLOAD PUSH0 PUSH1 0x40 MLOAD DUP1 DUP4 SUB DUP2 DUP6 DUP9 DUP9 CALL SWAP4 POP POP POP POP ISZERO DUP1 ISZERO PUSH2 0x540 JUMPI RETURNDATASIZE PUSH0 DUP1 RETURNDATACOPY RETURNDATASIZE PUSH0 REVERT JUMPDEST POP DUP5 PUSH32 0xF440AEC6B52895984D061D622E6EDEBA6210F7C3E059BE920663140C084560D7 CALLER DUP4 PUSH1 0x40 MLOAD PUSH2 0x573 SWAP3 SWAP2 SWAP1 PUSH2 0x11FD JUMP JUMPDEST PUSH1 0x40 MLOAD DUP1 SWAP2 SUB SWAP1 LOG2 POP POP POP POP POP JUMP JUMPDEST PUSH0 DUP1 DUP3 GT PUSH2 0x5C5 JUMPI PUSH1 0x40 MLOAD PUSH32 0x8C379A000000000000000000000000000000000000000000000000000000000 DUP2 MSTORE PUSH1 0x4 ADD PUSH2 0x5BC SWAP1 PUSH2 0x126E JUMP JUMPDEST PUSH1 0x40 MLOAD DUP1 SWAP2 SUB SWAP1 REVERT JUMPDEST PUSH0 DUP4 GT PUSH2 0x607 JUMPI PUSH1 0x40 MLOAD PUSH32 0x8C379A000000000000000000000000000000000000000000000000000000000 DUP2 MSTORE PUSH1 0x4 ADD PUSH2 0x5FE SWAP1 PUSH2 0x12D6 JUMP JUMPDEST PUSH1 0x40 MLOAD DUP1 SWAP2 SUB SWAP1 REVERT JUMPDEST PUSH0 DUP4 TIMESTAMP PUSH2 0x614 SWAP2 SWAP1 PUSH2 0x1321 JUMP JUMPDEST SWAP1 POP PUSH0 DUP1 PUSH1 0x1 DUP2 PUSH1 0x1 DUP2 SLOAD ADD DUP1 DUP3 SSTORE DUP1 SWAP2 POP POP SUB SWAP1 PUSH0 MSTORE PUSH1 0x20 PUSH0 KECCAK256 SWAP1 PUSH1 0x8 MUL ADD SWAP1 POP CALLER DUP2 PUSH0 ADD PUSH0 PUSH2 0x100 EXP DUP2 SLOAD DUP2 PUSH20 0xFFFFFFFFFFFFFFFFFFFFFFFFFFFFFFFFFFFFFFFF MUL NOT AND SWAP1 DUP4 PUSH20 0xFFFFFFFFFFFFFFFFFFFFFFFFFFFFFFFFFFFFFFFF AND MUL OR SWAP1 SSTORE POP DUP9 DUP9 DUP3 PUSH1 0x1 ADD SWAP2 DUP3 PUSH2 0x68A SWAP3 SWAP2 SWAP1 PUSH2 0x1528 JUMP JUMPDEST POP DUP7 DUP7 DUP3 PUSH1 0x2 ADD SWAP2 DUP3 PUSH2 0x69E SWAP3 SWAP2 SWAP1 PUSH2 0x1528 JUMP JUMPDEST POP DUP4 DUP2 PUSH1 0x3 ADD DUP2 SWAP1 SSTORE POP DUP2 DUP2 PUSH1 0x5 ADD DUP2 SWAP1 SSTORE POP PUSH0 DUP2 PUSH1 0x6 ADD PUSH0 PUSH2 0x100 EXP DUP2 SLOAD DUP2 PUSH1 0xFF MUL NOT AND SWAP1 DUP4 ISZERO ISZERO MUL OR SWAP1 SSTORE POP PUSH0 DUP2 PUSH1 0x6 ADD PUSH1 0x1 PUSH2 0x100 EXP DUP2 SLOAD DUP2 PUSH1 0xFF MUL NOT AND SWAP1 DUP4 ISZERO ISZERO MUL OR SWAP1 SSTORE POP PUSH1 0x1 PUSH0 DUP1 SLOAD SWAP1 POP PUSH2 0x6F9 SWAP2 SWAP1 PUSH2 0x15F5 JUMP JUMPDEST PUSH32 0x633109EEC20320EDED000FC1E2634211AA7E92BA3F5B15FAF6DCDAFCA05094E4 CALLER PUSH1 0x40 MLOAD PUSH2 0x728 SWAP2 SWAP1 PUSH2 0x1628 JUMP JUMPDEST PUSH1 0x40 MLOAD DUP1 SWAP2 SUB SWAP1 LOG2 PUSH1 0x1 PUSH0 DUP1 SLOAD SWAP1 POP PUSH2 0x741 SWAP2 SWAP1 PUSH2 0x15F5 JUMP JUMPDEST SWAP3 POP POP POP SWAP7 SWAP6 POP POP POP POP POP POP JUMP JUMPDEST DUP1 PUSH0 DUP1 SLOAD SWAP1 POP DUP2 LT PUSH2 0x796 JUMPI PUSH1 0x40 MLOAD PUSH32 0x8C379A000000000000000000000000000000000000000000000000000000000 DUP2 MSTORE PUSH1 0x4 ADD PUSH2 0x78D SWAP1 PUSH2 0xFF2 JUMP JUMPDEST PUSH1 0x40 MLOAD DUP1 SWAP2 SUB SWAP1 REVERT JUMPDEST DUP2 PUSH0 DUP2 DUP2 SLOAD DUP2 LT PUSH2 0x7AA JUMPI PUSH2 0x7A9 PUSH2 0x1010 JUMP JUMPDEST JUMPDEST SWAP1 PUSH0 MSTORE PUSH1 0x20 PUSH0 KECCAK256 SWAP1 PUSH1 0x8 MUL ADD PUSH1 0x6 ADD PUSH1 0x1 SWAP1 SLOAD SWAP1 PUSH2 0x100 EXP SWAP1 DIV PUSH1 0xFF AND ISZERO PUSH2 0x807 JUMPI PUSH1 0x40 MLOAD PUSH32 0x8C379A000000000000000000000000000000000000000000000000000000000 DUP2 MSTORE PUSH1 0x4 ADD PUSH2 0x7FE SWAP1 PUSH2 0x168B JUMP JUMPDEST PUSH1 0x40 MLOAD DUP1 SWAP2 SUB SWAP1 REVERT JUMPDEST PUSH0 DUP2 DUP2 SLOAD DUP2 LT PUSH2 0x81A JUMPI PUSH2 0x819 PUSH2 0x1010 JUMP JUMPDEST JUMPDEST SWAP1 PUSH0 MSTORE PUSH1 0x20 PUSH0 KECCAK256 SWAP1 PUSH1 0x8 MUL ADD PUSH1 0x5 ADD SLOAD TIMESTAMP LT PUSH2 0x86B JUMPI PUSH1 0x40 MLOAD PUSH32 0x8C379A000000000000000000000000000000000000000000000000000000000 DUP2 MSTORE PUSH1 0x4 ADD PUSH2 0x862 SWAP1 PUSH2 0x16F3 JUMP JUMPDEST PUSH1 0x40 MLOAD DUP1 SWAP2 SUB SWAP1 REVERT JUMPDEST PUSH0 CALLVALUE GT PUSH2 0x8AD JUMPI PUSH1 0x40 MLOAD PUSH32 0x8C379A000000000000000000000000000000000000000000000000000000000 DUP2 MSTORE PUSH1 0x4 ADD PUSH2 0x8A4 SWAP1 PUSH2 0x175B JUMP JUMPDEST PUSH1 0x40 MLOAD DUP1 SWAP2 SUB SWAP1 REVERT JUMPDEST PUSH0 DUP1 DUP5 DUP2 SLOAD DUP2 LT PUSH2 0x8C1 JUMPI PUSH2 0x8C0 PUSH2 0x1010 JUMP JUMPDEST JUMPDEST SWAP1 PUSH0 MSTORE PUSH1 0x20 PUSH0 KECCAK256 SWAP1 PUSH1 0x8 MUL ADD SWAP1 POP CALLVALUE DUP2 PUSH1 0x7 ADD PUSH0 CALLER PUSH20 0xFFFFFFFFFFFFFFFFFFFFFFFFFFFFFFFFFFFFFFFF AND PUSH20 0xFFFFFFFFFFFFFFFFFFFFFFFFFFFFFFFFFFFFFFFF AND DUP2 MSTORE PUSH1 0x20 ADD SWAP1 DUP2 MSTORE PUSH1 0x20 ADD PUSH0 KECCAK256 PUSH0 DUP3 DUP3 SLOAD PUSH2 0x91D SWAP2 SWAP1 PUSH2 0x1321 JUMP JUMPDEST SWAP3 POP POP DUP2 SWAP1 SSTORE POP CALLVALUE DUP2 PUSH1 0x4 ADD PUSH0 DUP3 DUP3 SLOAD PUSH2 0x937 SWAP2 SWAP1 PUSH2 0x1321 JUMP JUMPDEST SWAP3 POP POP DUP2 SWAP1 SSTORE POP DUP1 PUSH1 0x3 ADD SLOAD DUP2 PUSH1 0x4 ADD SLOAD LT ISZERO DUP1 ISZERO PUSH2 0x964 JUMPI POP DUP1 PUSH1 0x6 ADD PUSH0 SWAP1 SLOAD SWAP1 PUSH2 0x100 EXP SWAP1 DIV PUSH1 0xFF AND ISZERO JUMPDEST ISZERO PUSH2 0x986 JUMPI PUSH1 0x1 DUP2 PUSH1 0x6 ADD PUSH0 PUSH2 0x100 EXP DUP2 SLOAD DUP2 PUSH1 0xFF MUL NOT AND SWAP1 DUP4 ISZERO ISZERO MUL OR SWAP1 SSTORE POP JUMPDEST DUP4 PUSH32 0xA4A91237423E0A1766A761C7CB029311D8B95D6B1B81DB1B949A70C98B4E08E CALLER CALLVALUE PUSH1 0x40 MLOAD PUSH2 0x9B8 SWAP3 SWAP2 SWAP1 PUSH2 0x11FD JUMP JUMPDEST PUSH1 0x40 MLOAD DUP1 SWAP2 SUB SWAP1 LOG2 POP POP POP POP JUMP JUMPDEST DUP1 PUSH0 DUP1 SLOAD SWAP1 POP DUP2 LT PUSH2 0xA0D JUMPI PUSH1 0x40 MLOAD PUSH32 0x8C379A000000000000000000000000000000000000000000000000000000000 DUP2 MSTORE PUSH1 0x4 ADD PUSH2 0xA04 SWAP1 PUSH2 0xFF2 JUMP JUMPDEST PUSH1 0x40 MLOAD DUP1 SWAP2 SUB SWAP1 REVERT JUMPDEST PUSH0 DUP1 DUP4 DUP2 SLOAD DUP2 LT PUSH2 0xA21 JUMPI PUSH2 0xA20 PUSH2 0x1010 JUMP JUMPDEST JUMPDEST SWAP1 PUSH0 MSTORE PUSH1 0x20 PUSH0 KECCAK256 SWAP1 PUSH1 0x8 MUL ADD SWAP1 POP DUP1 PUSH1 0x5 ADD SLOAD TIMESTAMP LT ISZERO PUSH2 0xA76 JUMPI PUSH1 0x40 MLOAD PUSH32 0x8C379A000000000000000000000000000000000000000000000000000000000 DUP2 MSTORE PUSH1 0x4 ADD PUSH2 0xA6D SWAP1 PUSH2 0x17C3 JUMP JUMPDEST PUSH1 0x40 MLOAD DUP1 SWAP2 SUB SWAP1 REVERT JUMPDEST DUP1 PUSH1 0x6 ADD PUSH0 SWAP1 SLOAD SWAP1 PUSH2 0x100 EXP SWAP1 DIV PUSH1 0xFF AND ISZERO PUSH2 0xAC7 JUMPI PUSH1 0x40 MLOAD PUSH32 0x8C379A000000000000000000000000000000000000000000000000000000000 DUP2 MSTORE PUSH1 0x4 ADD PUSH2 0xABE SWAP1 PUSH2 0x182B JUMP JUMPDEST PUSH1 0x40 MLOAD DUP1 SWAP2 SUB SWAP1 REVERT JUMPDEST DUP1 PUSH1 0x6 ADD PUSH1 0x1 SWAP1 SLOAD SWAP1 PUSH2 0x100 EXP SWAP1 DIV PUSH1 0xFF AND ISZERO PUSH2 0xB19 JUMPI PUSH1 0x40 MLOAD PUSH32 0x8C379A000000000000000000000000000000000000000000000000000000000 DUP2 MSTORE PUSH1 0x4 ADD PUSH2 0xB10 SWAP1 PUSH2 0x1893 JUMP JUMPDEST PUSH1 0x40 MLOAD DUP1 SWAP2 SUB SWAP1 REVERT JUMPDEST PUSH0 DUP2 PUSH1 0x7 ADD PUSH0 CALLER PUSH20 0xFFFFFFFFFFFFFFFFFFFFFFFFFFFFFFFFFFFFFFFF AND PUSH20 0xFFFFFFFFFFFFFFFFFFFFFFFFFFFFFFFFFFFFFFFF AND DUP2 MSTORE PUSH1 0x20 ADD SWAP1 DUP2 MSTORE PUSH1 0x20 ADD PUSH0 KECCAK256 SLOAD SWAP1 POP PUSH0 DUP2 GT PUSH2 0xB9E JUMPI PUSH1 0x40 MLOAD PUSH32 0x8C379A000000000000000000000000000000000000000000000000000000000 DUP2 MSTORE PUSH1 0x4 ADD PUSH2 0xB95 SWAP1 PUSH2 0x18FB JUMP JUMPDEST PUSH1 0x40 MLOAD DUP1 SWAP2 SUB SWAP1 REVERT JUMPDEST PUSH0 DUP3 PUSH1 0x7 ADD PUSH0 CALLER PUSH20 0xFFFFFFFFFFFFFFFFFFFFFFFFFFFFFFFFFFFFFFFF AND PUSH20 0xFFFFFFFFFFFFFFFFFFFFFFFFFFFFFFFFFFFFFFFF AND DUP2 MSTORE PUSH1 0x20 ADD SWAP1 DUP2 MSTORE PUSH1 0x20 ADD PUSH0 KECCAK256 DUP2 SWAP1 SSTORE POP CALLER PUSH20 0xFFFFFFFFFFFFFFFFFFFFFFFFFFFFFFFFFFFFFFFF AND PUSH2 0x8FC DUP3 SWAP1 DUP2 ISZERO MUL SWAP1 PUSH1 0x40 MLOAD PUSH0 PUSH1 0x40 MLOAD DUP1 DUP4 SUB DUP2 DUP6 DUP9 DUP9 CALL SWAP4 POP POP POP POP ISZERO DUP1 ISZERO PUSH2 0xC25 JUMPI RETURNDATASIZE PUSH0 DUP1 RETURNDATACOPY RETURNDATASIZE PUSH0 REVERT JUMPDEST POP DUP4 PUSH32 0xA182B2A9C58FAE7E4827FBE3AC2FA1C5711191EF3F58B1FA19631FEB97273BB2 CALLER DUP4 PUSH1 0x40 MLOAD PUSH2 0xC58 SWAP3 SWAP2 SWAP1 PUSH2 0x11FD JUMP JUMPDEST PUSH1 0x40 MLOAD DUP1 SWAP2 SUB SWAP1 LOG2 POP POP POP POP JUMP JUMPDEST PUSH0 DUP1 REVERT JUMPDEST PUSH0 DUP1 REVERT JUMPDEST PUSH0 DUP2 SWAP1 POP SWAP2 SWAP1 POP JUMP JUMPDEST PUSH2 0xC80 DUP2 PUSH2 0xC6E JUMP JUMPDEST DUP2 EQ PUSH2 0xC8A JUMPI PUSH0 DUP1 REVERT JUMPDEST POP JUMP JUMPDEST PUSH0 DUP2 CALLDATALOAD SWAP1 POP PUSH2 0xC9B DUP2 PUSH2 0xC77 JUMP JUMPDEST SWAP3 SWAP2 POP POP JUMP JUMPDEST PUSH0 PUSH1 0x20 DUP3 DUP5 SUB SLT ISZERO PUSH2 0xCB6 JUMPI PUSH2 0xCB5 PUSH2 0xC66 JUMP JUMPDEST JUMPDEST PUSH0 PUSH2 0xCC3 DUP5 DUP3 DUP6 ADD PUSH2 0xC8D JUMP JUMPDEST SWAP2 POP POP SWAP3 SWAP2 POP POP JUMP JUMPDEST PUSH0 PUSH20 0xFFFFFFFFFFFFFFFFFFFFFFFFFFFFFFFFFFFFFFFF DUP3 AND SWAP1 POP SWAP2 SWAP1 POP JUMP JUMPDEST PUSH0 PUSH2 0xCF5 DUP3 PUSH2 0xCCC JUMP JUMPDEST SWAP1 POP SWAP2 SWAP1 POP JUMP JUMPDEST PUSH2 0xD05 DUP2 PUSH2 0xCEB JUMP JUMPDEST DUP3 MSTORE POP POP JUMP JUMPDEST PUSH0 DUP2 MLOAD SWAP1 POP SWAP2 SWAP1 POP JUMP JUMPDEST PUSH0 DUP3 DUP3 MSTORE PUSH1 0x20 DUP3 ADD SWAP1 POP SWAP3 SWAP2 POP POP JUMP JUMPDEST DUP3 DUP2 DUP4 MCOPY PUSH0 DUP4 DUP4 ADD MSTORE POP POP POP JUMP JUMPDEST PUSH0 PUSH1 0x1F NOT PUSH1 0x1F DUP4 ADD AND SWAP1 POP SWAP2 SWAP1 POP JUMP JUMPDEST PUSH0 PUSH2 0xD4D DUP3 PUSH2 0xD0B JUMP JUMPDEST PUSH2 0xD57 DUP2 DUP6 PUSH2 0xD15 JUMP JUMPDEST SWAP4 POP PUSH2 0xD67 DUP2 DUP6 PUSH1 0x20 DUP7 ADD PUSH2 0xD25 JUMP JUMPDEST PUSH2 0xD70 DUP2 PUSH2 0xD33 JUMP JUMPDEST DUP5 ADD SWAP2 POP POP SWAP3 SWAP2 POP POP JUMP JUMPDEST PUSH2 0xD84 DUP2 PUSH2 0xC6E JUMP JUMPDEST DUP3 MSTORE POP POP JUMP JUMPDEST PUSH0 DUP2 ISZERO ISZERO SWAP1 POP SWAP2 SWAP1 POP JUMP JUMPDEST PUSH2 0xD9E DUP2 PUSH2 0xD8A JUMP JUMPDEST DUP3 MSTORE POP POP JUMP JUMPDEST PUSH0 PUSH2 0x100 DUP3 ADD SWAP1 POP PUSH2 0xDB8 PUSH0 DUP4 ADD DUP12 PUSH2 0xCFC JUMP JUMPDEST DUP2 DUP2 SUB PUSH1 0x20 DUP4 ADD MSTORE PUSH2 0xDCA DUP2 DUP11 PUSH2 0xD43 JUMP JUMPDEST SWAP1 POP DUP2 DUP2 SUB PUSH1 0x40 DUP4 ADD MSTORE PUSH2 0xDDE DUP2 DUP10 PUSH2 0xD43 JUMP JUMPDEST SWAP1 POP PUSH2 0xDED PUSH1 0x60 DUP4 ADD DUP9 PUSH2 0xD7B JUMP JUMPDEST PUSH2 0xDFA PUSH1 0x80 DUP4 ADD DUP8 PUSH2 0xD7B JUMP JUMPDEST PUSH2 0xE07 PUSH1 0xA0 DUP4 ADD DUP7 PUSH2 0xD7B JUMP JUMPDEST PUSH2 0xE14 PUSH1 0xC0 DUP4 ADD DUP6 PUSH2 0xD95 JUMP JUMPDEST PUSH2 0xE21 PUSH1 0xE0 DUP4 ADD DUP5 PUSH2 0xD95 JUMP JUMPDEST SWAP10 SWAP9 POP POP POP POP POP POP POP POP POP JUMP JUMPDEST PUSH0 DUP1 REVERT JUMPDEST PUSH0 DUP1 REVERT JUMPDEST PUSH0 DUP1 REVERT JUMPDEST PUSH0 DUP1 DUP4 PUSH1 0x1F DUP5 ADD SLT PUSH2 0xE4F JUMPI PUSH2 0xE4E PUSH2 0xE2E JUMP JUMPDEST JUMPDEST DUP3 CALLDATALOAD SWAP1 POP PUSH8 0xFFFFFFFFFFFFFFFF DUP2 GT ISZERO PUSH2 0xE6C JUMPI PUSH2 0xE6B PUSH2 0xE32 JUMP JUMPDEST JUMPDEST PUSH1 0x20 DUP4 ADD SWAP2 POP DUP4 PUSH1 0x1 DUP3 MUL DUP4 ADD GT ISZERO PUSH2 0xE88 JUMPI PUSH2 0xE87 PUSH2 0xE36 JUMP JUMPDEST JUMPDEST SWAP3 POP SWAP3 SWAP1 POP JUMP JUMPDEST PUSH0 DUP1 PUSH0 DUP1 PUSH0 DUP1 PUSH1 0x80 DUP8 DUP10 SUB SLT ISZERO PUSH2 0xEA9 JUMPI PUSH2 0xEA8 PUSH2 0xC66 JUMP JUMPDEST JUMPDEST PUSH0 DUP8 ADD CALLDATALOAD PUSH8 0xFFFFFFFFFFFFFFFF DUP2 GT ISZERO PUSH2 0xEC6 JUMPI PUSH2 0xEC5 PUSH2 0xC6A JUMP JUMPDEST JUMPDEST PUSH2 0xED2 DUP10 DUP3 DUP11 ADD PUSH2 0xE3A JUMP JUMPDEST SWAP7 POP SWAP7 POP POP PUSH1 0x20 DUP8 ADD CALLDATALOAD PUSH8 0xFFFFFFFFFFFFFFFF DUP2 GT ISZERO PUSH2 0xEF5 JUMPI PUSH2 0xEF4 PUSH2 0xC6A JUMP JUMPDEST JUMPDEST PUSH2 0xF01 DUP10 DUP3 DUP11 ADD PUSH2 0xE3A JUMP JUMPDEST SWAP5 POP SWAP5 POP POP PUSH1 0x40 PUSH2 0xF14 DUP10 DUP3 DUP11 ADD PUSH2 0xC8D JUMP JUMPDEST SWAP3 POP POP PUSH1 0x60 PUSH2 0xF25 DUP10 DUP3 DUP11 ADD PUSH2 0xC8D JUMP JUMPDEST SWAP2 POP POP SWAP3 SWAP6 POP SWAP3 SWAP6 POP SWAP3 SWAP6 JUMP JUMPDEST PUSH0 PUSH1 0x20 DUP3 ADD SWAP1 POP PUSH2 0xF45 PUSH0 DUP4 ADD DUP5 PUSH2 0xD7B JUMP JUMPDEST SWAP3 SWAP2 POP POP JUMP JUMPDEST PUSH32 0x4E487B7100000000000000000000000000000000000000000000000000000000 PUSH0 MSTORE PUSH1 0x22 PUSH1 0x4 MSTORE PUSH1 0x24 PUSH0 REVERT JUMPDEST PUSH0 PUSH1 0x2 DUP3 DIV SWAP1 POP PUSH1 0x1 DUP3 AND DUP1 PUSH2 0xF8F JUMPI PUSH1 0x7F DUP3 AND SWAP2 POP JUMPDEST PUSH1 0x20 DUP3 LT DUP2 SUB PUSH2 0xFA2 JUMPI PUSH2 0xFA1 PUSH2 0xF4B JUMP JUMPDEST JUMPDEST POP SWAP2 SWAP1 POP JUMP JUMPDEST PUSH32 0x496E76616C69642063616D706169676E20494400000000000000000000000000 PUSH0 DUP3 ADD MSTORE POP JUMP JUMPDEST PUSH0 PUSH2 0xFDC PUSH1 0x13 DUP4 PUSH2 0xD15 JUMP JUMPDEST SWAP2 POP PUSH2 0xFE7 DUP3 PUSH2 0xFA8 JUMP JUMPDEST PUSH1 0x20 DUP3 ADD SWAP1 POP SWAP2 SWAP1 POP JUMP JUMPDEST PUSH0 PUSH1 0x20 DUP3 ADD SWAP1 POP DUP2 DUP2 SUB PUSH0 DUP4 ADD MSTORE PUSH2 0x1009 DUP2 PUSH2 0xFD0 JUMP JUMPDEST SWAP1 POP SWAP2 SWAP1 POP JUMP JUMPDEST PUSH32 0x4E487B7100000000000000000000000000000000000000000000000000000000 PUSH0 MSTORE PUSH1 0x32 PUSH1 0x4 MSTORE PUSH1 0x24 PUSH0 REVERT JUMPDEST PUSH32 0x556E617574686F72697A65640000000000000000000000000000000000000000 PUSH0 DUP3 ADD MSTORE POP JUMP JUMPDEST PUSH0 PUSH2 0x1071 PUSH1 0xC DUP4 PUSH2 0xD15 JUMP JUMPDEST SWAP2 POP PUSH2 0x107C DUP3 PUSH2 0x103D JUMP JUMPDEST PUSH1 0x20 DUP3 ADD SWAP1 POP SWAP2 SWAP1 POP JUMP JUMPDEST PUSH0 PUSH1 0x20 DUP3 ADD SWAP1 POP DUP2 DUP2 SUB PUSH0 DUP4 ADD MSTORE PUSH2 0x109E DUP2 PUSH2 0x1065 JUMP JUMPDEST SWAP1 POP SWAP2 SWAP1 POP JUMP JUMPDEST PUSH32 0x476F616C206E6F74207265616368656400000000000000000000000000000000 PUSH0 DUP3 ADD MSTORE POP JUMP JUMPDEST PUSH0 PUSH2 0x10D9 PUSH1 0x10 DUP4 PUSH2 0xD15 JUMP JUMPDEST SWAP2 POP PUSH2 0x10E4 DUP3 PUSH2 0x10A5 JUMP JUMPDEST PUSH1 0x20 DUP3 ADD SWAP1 POP SWAP2 SWAP1 POP JUMP JUMPDEST PUSH0 PUSH1 0x20 DUP3 ADD SWAP1 POP DUP2 DUP2 SUB PUSH0 DUP4 ADD MSTORE PUSH2 0x1106 DUP2 PUSH2 0x10CD JUMP JUMPDEST SWAP1 POP SWAP2 SWAP1 POP JUMP JUMPDEST PUSH32 0x446561646C696E65206E6F742070617373656400000000000000000000000000 PUSH0 DUP3 ADD MSTORE POP JUMP JUMPDEST PUSH0 PUSH2 0x1141 PUSH1 0x13 DUP4 PUSH2 0xD15 JUMP JUMPDEST SWAP2 POP PUSH2 0x114C DUP3 PUSH2 0x110D JUMP JUMPDEST PUSH1 0x20 DUP3 ADD SWAP1 POP SWAP2 SWAP1 POP JUMP JUMPDEST PUSH0 PUSH1 0x20 DUP3 ADD SWAP1 POP DUP2 DUP2 SUB PUSH0 DUP4 ADD MSTORE PUSH2 0x116E DUP2 PUSH2 0x1135 JUMP JUMPDEST SWAP1 POP SWAP2 SWAP1 POP JUMP JUMPDEST PUSH32 0x46756E647320616C72656164792077697468647261776E000000000000000000 PUSH0 DUP3 ADD MSTORE POP JUMP JUMPDEST PUSH0 PUSH2 0x11A9 PUSH1 0x17 DUP4 PUSH2 0xD15 JUMP JUMPDEST SWAP2 POP PUSH2 0x11B4 DUP3 PUSH2 0x1175 JUMP JUMPDEST PUSH1 0x20 DUP3 ADD SWAP1 POP SWAP2 SWAP1 POP JUMP JUMPDEST PUSH0 PUSH1 0x20 DUP3 ADD SWAP1 POP DUP2 DUP2 SUB PUSH0 DUP4 ADD MSTORE PUSH2 0x11D6 DUP2 PUSH2 0x119D JUMP JUMPDEST SWAP1 POP SWAP2 SWAP1 POP JUMP JUMPDEST PUSH0 PUSH2 0x11E7 DUP3 PUSH2 0xCCC JUMP JUMPDEST SWAP1 POP SWAP2 SWAP1 POP JUMP JUMPDEST PUSH2 0x11F7 DUP2 PUSH2 0x11DD JUMP JUMPDEST DUP3 MSTORE POP POP JUMP JUMPDEST PUSH0 PUSH1 0x40 DUP3 ADD SWAP1 POP PUSH2 0x1210 PUSH0 DUP4 ADD DUP6 PUSH2 0x11EE JUMP JUMPDEST PUSH2 0x121D PUSH1 0x20 DUP4 ADD DUP5 PUSH2 0xD7B JUMP JUMPDEST SWAP4 SWAP3 POP POP POP JUMP JUMPDEST PUSH32 0x476F616C206D757374206265203E203000000000000000000000000000000000 PUSH0 DUP3 ADD MSTORE POP JUMP JUMPDEST PUSH0 PUSH2 0x1258 PUSH1 0x10 DUP4 PUSH2 0xD15 JUMP JUMPDEST SWAP2 POP PUSH2 0x1263 DUP3 PUSH2 0x1224 JUMP JUMPDEST PUSH1 0x20 DUP3 ADD SWAP1 POP SWAP2 SWAP1 POP JUMP JUMPDEST PUSH0 PUSH1 0x20 DUP3 ADD SWAP1 POP DUP2 DUP2 SUB PUSH0 DUP4 ADD MSTORE PUSH2 0x1285 DUP2 PUSH2 0x124C JUMP JUMPDEST SWAP1 POP SWAP2 SWAP1 POP JUMP JUMPDEST PUSH32 0x4475726174696F6E206D757374206265203E2030000000000000000000000000 PUSH0 DUP3 ADD MSTORE POP JUMP JUMPDEST PUSH0 PUSH2 0x12C0 PUSH1 0x14 DUP4 PUSH2 0xD15 JUMP JUMPDEST SWAP2 POP PUSH2 0x12CB DUP3 PUSH2 0x128C JUMP JUMPDEST PUSH1 0x20 DUP3 ADD SWAP1 POP SWAP2 SWAP1 POP JUMP JUMPDEST PUSH0 PUSH1 0x20 DUP3 ADD SWAP1 POP DUP2 DUP2 SUB PUSH0 DUP4 ADD MSTORE PUSH2 0x12ED DUP2 PUSH2 0x12B4 JUMP JUMPDEST SWAP1 POP SWAP2 SWAP1 POP JUMP JUMPDEST PUSH32 0x4E487B7100000000000000000000000000000000000000000000000000000000 PUSH0 MSTORE PUSH1 0x11 PUSH1 0x4 MSTORE PUSH1 0x24 PUSH0 REVERT JUMPDEST PUSH0 PUSH2 0x132B DUP3 PUSH2 0xC6E JUMP JUMPDEST SWAP2 POP PUSH2 0x1336 DUP4 PUSH2 0xC6E JUMP JUMPDEST SWAP3 POP DUP3 DUP3 ADD SWAP1 POP DUP1 DUP3 GT ISZERO PUSH2 0x134E JUMPI PUSH2 0x134D PUSH2 0x12F4 JUMP JUMPDEST JUMPDEST SWAP3 SWAP2 POP POP JUMP JUMPDEST PUSH0 DUP3 SWAP1 POP SWAP3 SWAP2 POP POP JUMP JUMPDEST PUSH32 0x4E487B7100000000000000000000000000000000000000000000000000000000 PUSH0 MSTORE PUSH1 0x41 PUSH1 0x4 MSTORE PUSH1 0x24 PUSH0 REVERT JUMPDEST PUSH0 DUP2 SWAP1 POP DUP2 PUSH0 MSTORE PUSH1 0x20 PUSH0 KECCAK256 SWAP1 POP SWAP2 SWAP1 POP JUMP JUMPDEST PUSH0 PUSH1 0x20 PUSH1 0x1F DUP4 ADD DIV SWAP1 POP SWAP2 SWAP1 POP JUMP JUMPDEST PUSH0 DUP3 DUP3 SHL SWAP1 POP SWAP3 SWAP2 POP POP JUMP JUMPDEST PUSH0 PUSH1 0x8 DUP4 MUL PUSH2 0x13E7 PUSH32 0xFFFFFFFFFFFFFFFFFFFFFFFFFFFFFFFFFFFFFFFFFFFFFFFFFFFFFFFFFFFFFFFF DUP3 PUSH2 0x13AC JUMP JUMPDEST PUSH2 0x13F1 DUP7 DUP4 PUSH2 0x13AC JUMP JUMPDEST SWAP6 POP DUP1 NOT DUP5 AND SWAP4 POP DUP1 DUP7 AND DUP5 OR SWAP3 POP POP POP SWAP4 SWAP3 POP POP POP JUMP JUMPDEST PUSH0 DUP2 SWAP1 POP SWAP2 SWAP1 POP JUMP JUMPDEST PUSH0 PUSH2 0x142C PUSH2 0x1427 PUSH2 0x1422 DUP5 PUSH2 0xC6E JUMP JUMPDEST PUSH2 0x1409 JUMP JUMPDEST PUSH2 0xC6E JUMP JUMPDEST SWAP1 POP SWAP2 SWAP1 POP JUMP JUMPDEST PUSH0 DUP2 SWAP1 POP SWAP2 SWAP1 POP JUMP JUMPDEST PUSH2 0x1445 DUP4 PUSH2 0x1412 JUMP JUMPDEST PUSH2 0x1459 PUSH2 0x1451 DUP3 PUSH2 0x1433 JUMP JUMPDEST DUP5 DUP5 SLOAD PUSH2 0x13B8 JUMP JUMPDEST DUP3 SSTORE POP POP POP POP JUMP JUMPDEST PUSH0 SWAP1 JUMP JUMPDEST PUSH2 0x146D PUSH2 0x1461 JUMP JUMPDEST PUSH2 0x1478 DUP2 DUP5 DUP5 PUSH2 0x143C JUMP JUMPDEST POP POP POP JUMP JUMPDEST JUMPDEST DUP2 DUP2 LT ISZERO PUSH2 0x149B JUMPI PUSH2 0x1490 PUSH0 DUP3 PUSH2 0x1465 JUMP JUMPDEST PUSH1 0x1 DUP2 ADD SWAP1 POP PUSH2 0x147E JUMP JUMPDEST POP POP JUMP JUMPDEST PUSH1 0x1F DUP3 GT ISZERO PUSH2 0x14E0 JUMPI PUSH2 0x14B1 DUP2 PUSH2 0x138B JUMP JUMPDEST PUSH2 0x14BA DUP5 PUSH2 0x139D JUMP JUMPDEST DUP2 ADD PUSH1 0x20 DUP6 LT ISZERO PUSH2 0x14C9 JUMPI DUP2 SWAP1 POP JUMPDEST PUSH2 0x14DD PUSH2 0x14D5 DUP6 PUSH2 0x139D JUMP JUMPDEST DUP4 ADD DUP3 PUSH2 0x147D JUMP JUMPDEST POP POP JUMPDEST POP POP POP JUMP JUMPDEST PUSH0 DUP3 DUP3 SHR SWAP1 POP SWAP3 SWAP2 POP POP JUMP JUMPDEST PUSH0 PUSH2 0x1500 PUSH0 NOT DUP5 PUSH1 0x8 MUL PUSH2 0x14E5 JUMP JUMPDEST NOT DUP1 DUP4 AND SWAP2 POP POP SWAP3 SWAP2 POP POP JUMP JUMPDEST PUSH0 PUSH2 0x1518 DUP4 DUP4 PUSH2 0x14F1 JUMP JUMPDEST SWAP2 POP DUP3 PUSH1 0x2 MUL DUP3 OR SWAP1 POP SWAP3 SWAP2 POP POP JUMP JUMPDEST PUSH2 0x1532 DUP4 DUP4 PUSH2 0x1354 JUMP JUMPDEST PUSH8 0xFFFFFFFFFFFFFFFF DUP2 GT ISZERO PUSH2 0x154B JUMPI PUSH2 0x154A PUSH2 0x135E JUMP JUMPDEST JUMPDEST PUSH2 0x1555 DUP3 SLOAD PUSH2 0xF78 JUMP JUMPDEST PUSH2 0x1560 DUP3 DUP3 DUP6 PUSH2 0x149F JUMP JUMPDEST PUSH0 PUSH1 0x1F DUP4 GT PUSH1 0x1 DUP2 EQ PUSH2 0x158D JUMPI PUSH0 DUP5 ISZERO PUSH2 0x157B JUMPI DUP3 DUP8 ADD CALLDATALOAD SWAP1 POP JUMPDEST PUSH2 0x1585 DUP6 DUP3 PUSH2 0x150D JUMP JUMPDEST DUP7 SSTORE POP PUSH2 0x15EC JUMP JUMPDEST PUSH1 0x1F NOT DUP5 AND PUSH2 0x159B DUP7 PUSH2 0x138B JUMP JUMPDEST PUSH0 JUMPDEST DUP3 DUP2 LT ISZERO PUSH2 0x15C2 JUMPI DUP5 DUP10 ADD CALLDATALOAD DUP3 SSTORE PUSH1 0x1 DUP3 ADD SWAP2 POP PUSH1 0x20 DUP6 ADD SWAP5 POP PUSH1 0x20 DUP2 ADD SWAP1 POP PUSH2 0x159D JUMP JUMPDEST DUP7 DUP4 LT ISZERO PUSH2 0x15DF JUMPI DUP5 DUP10 ADD CALLDATALOAD PUSH2 0x15DB PUSH1 0x1F DUP10 AND DUP3 PUSH2 0x14F1 JUMP JUMPDEST DUP4 SSTORE POP JUMPDEST PUSH1 0x1 PUSH1 0x2 DUP9 MUL ADD DUP9 SSTORE POP POP POP JUMPDEST POP POP POP POP POP POP POP JUMP JUMPDEST PUSH0 PUSH2 0x15FF DUP3 PUSH2 0xC6E JUMP JUMPDEST SWAP2 POP PUSH2 0x160A DUP4 PUSH2 0xC6E JUMP JUMPDEST SWAP3 POP DUP3 DUP3 SUB SWAP1 POP DUP2 DUP2 GT ISZERO PUSH2 0x1622 JUMPI PUSH2 0x1621 PUSH2 0x12F4 JUMP JUMPDEST JUMPDEST SWAP3 SWAP2 POP POP JUMP JUMPDEST PUSH0 PUSH1 0x20 DUP3 ADD SWAP1 POP PUSH2 0x163B PUSH0 DUP4 ADD DUP5 PUSH2 0x11EE JUMP JUMPDEST SWAP3 SWAP2 POP POP JUMP JUMPDEST PUSH32 0x43616D706169676E20636C6F7365640000000000000000000000000000000000 PUSH0 DUP3 ADD MSTORE POP JUMP JUMPDEST PUSH0 PUSH2 0x1675 PUSH1 0xF DUP4 PUSH2 0xD15 JUMP JUMPDEST SWAP2 POP PUSH2 0x1680 DUP3 PUSH2 0x1641 JUMP JUMPDEST PUSH1 0x20 DUP3 ADD SWAP1 POP SWAP2 SWAP1 POP JUMP JUMPDEST PUSH0 PUSH1 0x20 DUP3 ADD SWAP1 POP DUP2 DUP2 SUB PUSH0 DUP4 ADD MSTORE PUSH2 0x16A2 DUP2 PUSH2 0x1669 JUMP JUMPDEST SWAP1 POP SWAP2 SWAP1 POP JUMP JUMPDEST PUSH32 0x43616D706169676E20656E646564000000000000000000000000000000000000 PUSH0 DUP3 ADD MSTORE POP JUMP JUMPDEST PUSH0 PUSH2 0x16DD PUSH1 0xE DUP4 PUSH2 0xD15 JUMP JUMPDEST SWAP2 POP PUSH2 0x16E8 DUP3 PUSH2 0x16A9 JUMP JUMPDEST PUSH1 0x20 DUP3 ADD SWAP1 POP SWAP2 SWAP1 POP JUMP JUMPDEST PUSH0 PUSH1 0x20 DUP3 ADD SWAP1 POP DUP2 DUP2 SUB PUSH0 DUP4 ADD MSTORE PUSH2 0x170A DUP2 PUSH2 0x16D1 JUMP JUMPDEST SWAP1 POP SWAP2 SWAP1 POP JUMP JUMPDEST PUSH32 0x436F6E747269627574696F6E206D757374206265203E20300000000000000000 PUSH0 DUP3 ADD MSTORE POP JUMP JUMPDEST PUSH0 PUSH2 0x1745 PUSH1 0x18 DUP4 PUSH2 0xD15 JUMP JUMPDEST SWAP2 POP PUSH2 0x1750 DUP3 PUSH2 0x1711 JUMP JUMPDEST PUSH1 0x20 DUP3 ADD SWAP1 POP SWAP2 SWAP1 POP JUMP JUMPDEST PUSH0 PUSH1 0x20 DUP3 ADD SWAP1 POP DUP2 DUP2 SUB PUSH0 DUP4 ADD MSTORE PUSH2 0x1772 DUP2 PUSH2 0x1739 JUMP JUMPDEST SWAP1 POP SWAP2 SWAP1 POP JUMP JUMPDEST PUSH32 0x43616D706169676E206E6F7420656E6465640000000000000000000000000000 PUSH0 DUP3 ADD MSTORE POP JUMP JUMPDEST PUSH0 PUSH2 0x17AD PUSH1 0x12 DUP4 PUSH2 0xD15 JUMP JUMPDEST SWAP2 POP PUSH2 0x17B8 DUP3 PUSH2 0x1779 JUMP JUMPDEST PUSH1 0x20 DUP3 ADD SWAP1 POP SWAP2 SWAP1 POP JUMP JUMPDEST PUSH0 PUSH1 0x20 DUP3 ADD SWAP1 POP DUP2 DUP2 SUB PUSH0 DUP4 ADD MSTORE PUSH2 0x17DA DUP2 PUSH2 0x17A1 JUMP JUMPDEST SWAP1 POP SWAP2 SWAP1 POP JUMP JUMPDEST PUSH32 0x476F616C20726561636865640000000000000000000000000000000000000000 PUSH0 DUP3 ADD MSTORE POP JUMP JUMPDEST PUSH0 PUSH2 0x1815 PUSH1 0xC DUP4 PUSH2 0xD15 JUMP JUMPDEST SWAP2 POP PUSH2 0x1820 DUP3 PUSH2 0x17E1 JUMP JUMPDEST PUSH1 0x20 DUP3 ADD SWAP1 POP SWAP2 SWAP1 POP JUMP JUMPDEST PUSH0 PUSH1 0x20 DUP3 ADD SWAP1 POP DUP2 DUP2 SUB PUSH0 DUP4 ADD MSTORE PUSH2 0x1842 DUP2 PUSH2 0x1809 JUMP JUMPDEST SWAP1 POP SWAP2 SWAP1 POP JUMP JUMPDEST PUSH32 0x46756E64732077697468647261776E0000000000000000000000000000000000 PUSH0 DUP3 ADD MSTORE POP JUMP JUMPDEST PUSH0 PUSH2 0x187D PUSH1 0xF DUP4 PUSH2 0xD15 JUMP JUMPDEST SWAP2 POP PUSH2 0x1888 DUP3 PUSH2 0x1849 JUMP JUMPDEST PUSH1 0x20 DUP3 ADD SWAP1 POP SWAP2 SWAP1 POP JUMP JUMPDEST PUSH0 PUSH1 0x20 DUP3 ADD SWAP1 POP DUP2 DUP2 SUB PUSH0 DUP4 ADD MSTORE PUSH2 0x18AA DUP2 PUSH2 0x1871 JUMP JUMPDEST SWAP1 POP SWAP2 SWAP1 POP JUMP JUMPDEST PUSH32 0x4E6F20636F6E747269627574696F6E7300000000000000000000000000000000 PUSH0 DUP3 ADD MSTORE POP JUMP JUMPDEST PUSH0 PUSH2 0x18E5 PUSH1 0x10 DUP4 PUSH2 0xD15 JUMP JUMPDEST SWAP2 POP PUSH2 0x18F0 DUP3 PUSH2 0x18B1 JUMP JUMPDEST PUSH1 0x20 DUP3 ADD SWAP1 POP SWAP2 SWAP1 POP JUMP JUMPDEST PUSH0 PUSH1 0x20 DUP3 ADD SWAP1 POP DUP2 DUP2 SUB PUSH0 DUP4 ADD MSTORE PUSH2 0x1912 DUP2 PUSH2 0x18D9 JUMP JUMPDEST SWAP1 POP SWAP2 SWAP1 POP JUMP INVALID LOG2 PUSH5 0x6970667358 0x22 SLT KECCAK256 SIGNEXTEND 0xE6 EXTCODEHASH NOT STOP DUP9 0xC6 0x24 DUP1 LT 0x26 0x27 SWAP3 0xED 0xB4 0xD4 DUP15 PUSH24 0x25CBB23B552F7D330CA4A987F8AE64736F6C634300081A00 CALLER "
		},
		"gasEstimates": {
			"creation": {
				"codeDepositCost": "1295800",
				"executionCost": "1347",
				"totalCost": "1297147"
			},
			"external": {
				"campaigns(uint256)": "infinite",
				"contribute(uint256)": "infinite",
				"createCampaign(string,string,uint256,uint256)": "infinite",
				"withdrawContribution(uint256)": "infinite",
				"withdrawFunds(uint256)": "infinite"
			}
		},
		"methodIdentifiers": {
			"campaigns(uint256)": "141961bc",
			"contribute(uint256)": "c1cbbca7",
			"createCampaign(string,string,uint256,uint256)": "a318f269",
			"withdrawContribution(uint256)": "d25090ff",
			"withdrawFunds(uint256)": "155dd5ee"
		}
	},
	"abi": [
		{
			"anonymous": false,
			"inputs": [
				{
					"indexed": true,
					"internalType": "uint256",
					"name": "campaignId",
					"type": "uint256"
				},
				{
					"indexed": false,
					"internalType": "address",
					"name": "creator",
					"type": "address"
				}
			],
			"name": "CampaignCreated",
			"type": "event"
		},
		{
			"anonymous": false,
			"inputs": [
				{
					"indexed": true,
					"internalType": "uint256",
					"name": "campaignId",
					"type": "uint256"
				},
				{
					"indexed": false,
					"internalType": "address",
					"name": "contributor",
					"type": "address"
				},
				{
					"indexed": false,
					"internalType": "uint256",
					"name": "amount",
					"type": "uint256"
				}
			],
			"name": "ContributionMade",
			"type": "event"
		},
		{
			"anonymous": false,
			"inputs": [
				{
					"indexed": true,
					"internalType": "uint256",
					"name": "campaignId",
					"type": "uint256"
				},
				{
					"indexed": false,
					"internalType": "address",
					"name": "contributor",
					"type": "address"
				},
				{
					"indexed": false,
					"internalType": "uint256",
					"name": "amount",
					"type": "uint256"
				}
			],
			"name": "ContributionWithdrawn",
			"type": "event"
		},
		{
			"anonymous": false,
			"inputs": [
				{
					"indexed": true,
					"internalType": "uint256",
					"name": "campaignId",
					"type": "uint256"
				},
				{
					"indexed": false,
					"internalType": "address",
					"name": "creator",
					"type": "address"
				},
				{
					"indexed": false,
					"internalType": "uint256",
					"name": "amount",
					"type": "uint256"
				}
			],
			"name": "FundsWithdrawn",
			"type": "event"
		},
		{
			"inputs": [
				{
					"internalType": "uint256",
					"name": "",
					"type": "uint256"
				}
			],
			"name": "campaigns",
			"outputs": [
				{
					"internalType": "address payable",
					"name": "creator",
					"type": "address"
				},
				{
					"internalType": "string",
					"name": "title",
					"type": "string"
				},
				{
					"internalType": "string",
					"name": "description",
					"type": "string"
				},
				{
					"internalType": "uint256",
					"name": "goal",
					"type": "uint256"
				},
				{
					"internalType": "uint256",
					"name": "totalFunds",
					"type": "uint256"
				},
				{
					"internalType": "uint256",
					"name": "deadline",
					"type": "uint256"
				},
				{
					"internalType": "bool",
					"name": "goalReached",
					"type": "bool"
				},
				{
					"internalType": "bool",
					"name": "closed",
					"type": "bool"
				}
			],
			"stateMutability": "view",
			"type": "function"
		},
		{
			"inputs": [
				{
					"internalType": "uint256",
					"name": "campaignId",
					"type": "uint256"
				}
			],
			"name": "contribute",
			"outputs": [],
			"stateMutability": "payable",
			"type": "function"
		},
		{
			"inputs": [
				{
					"internalType": "string",
					"name": "_title",
					"type": "string"
				},
				{
					"internalType": "string",
					"name": "_description",
					"type": "string"
				},
				{
					"internalType": "uint256",
					"name": "_duration",
					"type": "uint256"
				},
				{
					"internalType": "uint256",
					"name": "_goal",
					"type": "uint256"
				}
			],
			"name": "createCampaign",
			"outputs": [
				{
					"internalType": "uint256",
					"name": "",
					"type": "uint256"
				}
			],
			"stateMutability": "nonpayable",
			"type": "function"
		},
		{
			"inputs": [
				{
					"internalType": "uint256",
					"name": "_campaignId",
					"type": "uint256"
				}
			],
			"name": "withdrawContribution",
			"outputs": [],
			"stateMutability": "nonpayable",
			"type": "function"
		},
		{
			"inputs": [
				{
					"internalType": "uint256",
					"name": "_campaignId",
					"type": "uint256"
				}
			],
			"name": "withdrawFunds",
			"outputs": [],
			"stateMutability": "nonpayable",
			"type": "function"
		}
	]
}